{
  "_format": "hh-sol-artifact-1",
  "contractName": "OracleMock",
  "sourceName": "contracts/OracleMock.sol",
  "abi": [
    {
      "inputs": [],
      "stateMutability": "nonpayable",
      "type": "constructor"
    },
    {
      "inputs": [
        {
          "internalType": "bytes32",
          "name": "c__0x3eeeb1b9",
          "type": "bytes32"
        }
      ],
      "name": "c_0x3eeeb1b9",
      "outputs": [],
      "stateMutability": "pure",
      "type": "function"
    },
    {
      "inputs": [],
      "name": "decimals",
      "outputs": [
        {
          "internalType": "uint8",
          "name": "",
          "type": "uint8"
        }
      ],
      "stateMutability": "view",
      "type": "function"
    },
    {
      "inputs": [],
      "name": "description",
      "outputs": [
        {
          "internalType": "string",
          "name": "",
          "type": "string"
        }
      ],
      "stateMutability": "view",
      "type": "function"
    },
    {
      "inputs": [
        {
          "internalType": "uint80",
          "name": "_roundId",
          "type": "uint80"
        }
      ],
      "name": "getRoundData",
      "outputs": [
        {
          "internalType": "uint80",
          "name": "roundId",
          "type": "uint80"
        },
        {
          "internalType": "int256",
          "name": "answer",
          "type": "int256"
        },
        {
          "internalType": "uint256",
          "name": "startedAt",
          "type": "uint256"
        },
        {
          "internalType": "uint256",
          "name": "updatedAt",
          "type": "uint256"
        },
        {
          "internalType": "uint80",
          "name": "answeredInRound",
          "type": "uint80"
        }
      ],
      "stateMutability": "view",
      "type": "function"
    },
    {
      "inputs": [],
      "name": "latestRoundData",
      "outputs": [
        {
          "internalType": "uint80",
          "name": "",
          "type": "uint80"
        },
        {
          "internalType": "int256",
          "name": "",
          "type": "int256"
        },
        {
          "internalType": "uint256",
          "name": "",
          "type": "uint256"
        },
        {
          "internalType": "uint256",
          "name": "",
          "type": "uint256"
        },
        {
          "internalType": "uint80",
          "name": "",
          "type": "uint80"
        }
      ],
      "stateMutability": "view",
      "type": "function"
    },
    {
      "inputs": [],
      "name": "version",
      "outputs": [
        {
          "internalType": "uint256",
          "name": "",
          "type": "uint256"
        }
      ],
      "stateMutability": "view",
      "type": "function"
    }
  ],
  "bytecode": "0x608060405234801561001057600080fd5b506100437f72b7c408efc9f0d9ce17f48e2ca278caad7f59a107b5e4cfcac1a3a1080c15f860001b61004860201b60201c565b61004b565b50565b6107028061005a6000396000f3fe608060405234801561001057600080fd5b50600436106100625760003560e01c8063313ce5671461006757806354fd4d50146100855780637284e416146100a35780639a6fc8f5146100c1578063ba406152146100f5578063feaf968c14610111575b600080fd5b61006f610133565b60405161007c91906105e2565b60405180910390f35b61008d6101c0565b60405161009a9190610574565b60405180910390f35b6100ab61024d565b6040516100b89190610552565b60405180910390f35b6100db60048036038101906100d691906104b4565b61030e565b6040516100ec95949392919061058f565b60405180910390f35b61010f600480360381019061010a919061048b565b6103b5565b005b6101196103b8565b60405161012a95949392919061058f565b60405180910390f35b60006101617fe57d077f9c145b84b72a9cc905f8e94dbe4bcc9041a1afec547828c2e30ab96360001b6103b5565b61018d7f6d5de1d093d79bc512d01cf33732a9c38969a150036d0a4793d154b53738d2fd60001b6103b5565b6101b97f96fb1fcb283af40db364bf322a745f9629a584d08b63c1a5cc3541afb865be7f60001b6103b5565b6000905090565b60006101ee7fbfaacfd6b76388ebb2fb62ef649157c292a02c44b234f23870eae5fbde8429a060001b6103b5565b61021a7fa67f9811529895010f0541f1ada0aaa42cfde698428475a11d98b52d5c86093c60001b6103b5565b6102467f60a43f28ee2a674b9ed1f04e8fadca0f20bfcf8e4788dc633d17465c2321101f60001b6103b5565b6000905090565b606061027b7f597ef78af7072de175484411d51da03f9ca1afc5a33c9762523584530e47952860001b6103b5565b6102a77f639f49e39f6fd5195bf9d4baf5e7c8d7024de121ab9d42cd6b58bf958d4d8d9e60001b6103b5565b6102d37fec6c4e6f27c50fab7991032bfe2dcada97fc87d725b9bd5536939913dfcd785d60001b6103b5565b6040518060400160405280600681526020017f6d656d6f72790000000000000000000000000000000000000000000000000000815250905090565b60008060008060006103427f0f34c37b50d00ebb76f3c8d76dca5bea04e44f6de3d8014488bc393a39c1fcc960001b6103b5565b61036e7ffff82a43c67cbaf06075a6d2ef6a9bdd00a7f585bf64277459fb1021f4f26cb360001b6103b5565b61039a7f4ad9ac0e8cd5dfe9969d4ad596c3a61c593b6fd3658c4203a1addc68d1c0aed060001b6103b5565b60008060008060009450945094509450945091939590929450565b50565b60008060008060006103ec7fc6c3280f500cc852bfde71b44b617e935eef2c0120d41dc3e42d091372ce635260001b6103b5565b6104187f6fbafcf9440ad3d1e1374328c1d165c04da6eb80c53096e3b5868e600ac1cd0460001b6103b5565b6104447f8147af7a06c68f3805147e35d8f134f77748d0c925a7d4c5728e1e63ee4d886060001b6103b5565b6001633b9aca006001806001945094509450945094509091929394565b6000813590506104708161069e565b92915050565b600081359050610485816106b5565b92915050565b60006020828403121561049d57600080fd5b60006104ab84828501610461565b91505092915050565b6000602082840312156104c657600080fd5b60006104d484828501610476565b91505092915050565b6104e681610623565b82525050565b60006104f7826105fd565b6105018185610608565b935061051181856020860161065a565b61051a8161068d565b840191505092915050565b61052e8161062d565b82525050565b61053d81610644565b82525050565b61054c81610637565b82525050565b6000602082019050818103600083015261056c81846104ec565b905092915050565b60006020820190506105896000830184610525565b92915050565b600060a0820190506105a46000830188610534565b6105b160208301876104dd565b6105be6040830186610525565b6105cb6060830185610525565b6105d86080830184610534565b9695505050505050565b60006020820190506105f76000830184610543565b92915050565b600081519050919050565b600082825260208201905092915050565b6000819050919050565b6000819050919050565b6000819050919050565b600060ff82169050919050565b600069ffffffffffffffffffff82169050919050565b60005b8381101561067857808201518184015260208101905061065d565b83811115610687576000848401525b50505050565b6000601f19601f8301169050919050565b6106a781610619565b81146106b257600080fd5b50565b6106be81610644565b81146106c957600080fd5b5056fea2646970667358221220c1e67a8f8ad4ddd1ec077d6a1e3f399733bb9384a916f4ee16b6e988eefe7db264736f6c63430008000033",
  "linkReferences": {},
  "deployedLinkReferences": {}
}