{
  "_format": "hh-sol-artifact-1",
  "contractName": "OracleMock",
  "sourceName": "contracts/OracleMock.sol",
  "abi": [
    {
      "inputs": [],
      "stateMutability": "nonpayable",
      "type": "constructor"
    },
    {
      "inputs": [],
      "name": "decimals",
      "outputs": [
        {
          "internalType": "uint8",
          "name": "",
          "type": "uint8"
        }
      ],
      "stateMutability": "view",
      "type": "function"
    },
    {
      "inputs": [],
      "name": "description",
      "outputs": [
        {
          "internalType": "string",
          "name": "",
          "type": "string"
        }
      ],
      "stateMutability": "view",
      "type": "function"
    },
    {
      "inputs": [
        {
          "internalType": "uint80",
          "name": "_roundId",
          "type": "uint80"
        }
      ],
      "name": "getRoundData",
      "outputs": [
        {
          "internalType": "uint80",
          "name": "roundId",
          "type": "uint80"
        },
        {
          "internalType": "int256",
          "name": "answer",
          "type": "int256"
        },
        {
          "internalType": "uint256",
          "name": "startedAt",
          "type": "uint256"
        },
        {
          "internalType": "uint256",
          "name": "updatedAt",
          "type": "uint256"
        },
        {
          "internalType": "uint80",
          "name": "answeredInRound",
          "type": "uint80"
        }
      ],
      "stateMutability": "view",
      "type": "function"
    },
    {
      "inputs": [],
      "name": "latestRoundData",
      "outputs": [
        {
          "internalType": "uint80",
          "name": "",
          "type": "uint80"
        },
        {
          "internalType": "int256",
          "name": "",
          "type": "int256"
        },
        {
          "internalType": "uint256",
          "name": "",
          "type": "uint256"
        },
        {
          "internalType": "uint256",
          "name": "",
          "type": "uint256"
        },
        {
          "internalType": "uint80",
          "name": "",
          "type": "uint80"
        }
      ],
      "stateMutability": "view",
      "type": "function"
    },
    {
      "inputs": [],
      "name": "version",
      "outputs": [
        {
          "internalType": "uint256",
          "name": "",
          "type": "uint256"
        }
      ],
      "stateMutability": "view",
      "type": "function"
    }
  ],
  "bytecode": "0x608060405234801561001057600080fd5b506103dc806100206000396000f3fe608060405234801561001057600080fd5b50600436106100575760003560e01c8063313ce5671461005c57806354fd4d501461007a5780637284e416146100985780639a6fc8f5146100b6578063feaf968c146100ea575b600080fd5b61006461010c565b60405161007191906102dd565b60405180910390f35b610082610111565b60405161008f919061026f565b60405180910390f35b6100a0610116565b6040516100ad919061024d565b60405180910390f35b6100d060048036038101906100cb91906101af565b610153565b6040516100e195949392919061028a565b60405180910390f35b6100f2610175565b60405161010395949392919061028a565b60405180910390f35b600090565b600090565b60606040518060400160405280600681526020017f6d656d6f72790000000000000000000000000000000000000000000000000000815250905090565b6000806000806000806000806000809450945094509450945091939590929450565b60008060008060006001633b9aca006001806001945094509450945094509091929394565b6000813590506101a98161038f565b92915050565b6000602082840312156101c157600080fd5b60006101cf8482850161019a565b91505092915050565b6101e181610314565b82525050565b60006101f2826102f8565b6101fc8185610303565b935061020c81856020860161034b565b6102158161037e565b840191505092915050565b6102298161031e565b82525050565b61023881610335565b82525050565b61024781610328565b82525050565b6000602082019050818103600083015261026781846101e7565b905092915050565b60006020820190506102846000830184610220565b92915050565b600060a08201905061029f600083018861022f565b6102ac60208301876101d8565b6102b96040830186610220565b6102c66060830185610220565b6102d3608083018461022f565b9695505050505050565b60006020820190506102f2600083018461023e565b92915050565b600081519050919050565b600082825260208201905092915050565b6000819050919050565b6000819050919050565b600060ff82169050919050565b600069ffffffffffffffffffff82169050919050565b60005b8381101561036957808201518184015260208101905061034e565b83811115610378576000848401525b50505050565b6000601f19601f8301169050919050565b61039881610335565b81146103a357600080fd5b5056fea2646970667358221220129ef942e069be043fd0670e13e2287543a7f7f36f85df38c87ce7270eb7540a64736f6c63430008000033",
  "linkReferences": {},
  "deployedLinkReferences": {}
}