{
  "_format": "hh-sol-artifact-1",
  "contractName": "BinaryStaking",
  "sourceName": "contracts/BinaryStaking.sol",
  "abi": [
    {
      "inputs": [
        {
          "internalType": "address",
          "name": "token",
          "type": "address"
        }
      ],
      "stateMutability": "nonpayable",
      "type": "constructor"
    },
    {
      "anonymous": false,
      "inputs": [
        {
          "indexed": true,
          "internalType": "address",
          "name": "user",
          "type": "address"
        },
        {
          "indexed": false,
          "internalType": "uint256",
          "name": "amount",
          "type": "uint256"
        }
      ],
      "name": "Release",
      "type": "event"
    },
    {
      "anonymous": false,
      "inputs": [
        {
          "indexed": false,
          "internalType": "uint256",
          "name": "amount",
          "type": "uint256"
        }
      ],
      "name": "Reward",
      "type": "event"
    },
    {
      "anonymous": false,
      "inputs": [
        {
          "indexed": true,
          "internalType": "address",
          "name": "user",
          "type": "address"
        },
        {
          "indexed": false,
          "internalType": "uint256",
          "name": "amount",
          "type": "uint256"
        }
      ],
      "name": "Staked",
      "type": "event"
    },
    {
      "anonymous": false,
      "inputs": [
        {
          "indexed": true,
          "internalType": "address",
          "name": "user",
          "type": "address"
        },
        {
          "indexed": false,
          "internalType": "uint256",
          "name": "amount",
          "type": "uint256"
        }
      ],
      "name": "Unstaked",
      "type": "event"
    },
    {
      "inputs": [],
      "name": "accumulatedRewards",
      "outputs": [
        {
          "internalType": "uint256",
          "name": "",
          "type": "uint256"
        }
      ],
      "stateMutability": "view",
      "type": "function"
    },
    {
      "inputs": [],
      "name": "binToken",
      "outputs": [
        {
          "internalType": "contract IERC20",
          "name": "",
          "type": "address"
        }
      ],
      "stateMutability": "view",
      "type": "function"
    },
    {
      "inputs": [
        {
          "internalType": "bytes32",
          "name": "c__0x73a3b7d7",
          "type": "bytes32"
        }
      ],
      "name": "c_0x73a3b7d7",
      "outputs": [],
      "stateMutability": "pure",
      "type": "function"
    },
    {
      "inputs": [
        {
          "internalType": "address",
          "name": "user",
          "type": "address"
        }
      ],
      "name": "ownedDividends",
      "outputs": [
        {
          "internalType": "uint256",
          "name": "",
          "type": "uint256"
        }
      ],
      "stateMutability": "view",
      "type": "function"
    },
    {
      "inputs": [],
      "name": "receiveFunds",
      "outputs": [],
      "stateMutability": "payable",
      "type": "function"
    },
    {
      "inputs": [],
      "name": "release",
      "outputs": [],
      "stateMutability": "nonpayable",
      "type": "function"
    },
    {
      "inputs": [
        {
          "internalType": "uint256",
          "name": "amount",
          "type": "uint256"
        }
      ],
      "name": "stake",
      "outputs": [],
      "stateMutability": "nonpayable",
      "type": "function"
    },
    {
      "inputs": [
        {
          "internalType": "address",
          "name": "",
          "type": "address"
        }
      ],
      "name": "stakingBalance",
      "outputs": [
        {
          "internalType": "uint256",
          "name": "stakedBin",
          "type": "uint256"
        },
        {
          "internalType": "uint256",
          "name": "valueWhenLastReleased",
          "type": "uint256"
        }
      ],
      "stateMutability": "view",
      "type": "function"
    },
    {
      "inputs": [
        {
          "internalType": "uint256",
          "name": "amount",
          "type": "uint256"
        }
      ],
      "name": "unstake",
      "outputs": [],
      "stateMutability": "nonpayable",
      "type": "function"
    }
  ],
  "bytecode": "0x60806040523480156200001157600080fd5b5060405162001dee38038062001dee8339818101604052810190620000379190620001dd565b6200006b7f7cfe0d510f51b451e2b81a7bfe39f294e53a5dd28effda47cb6431fd53e679da60001b620001c360201b60201c565b6200009f7f5d534ffd01eb57f31b8d3b71da052a0a2739d4a679b5622fae442b6c089d5dc660001b620001c360201b60201c565b620000d37fed987937a1940eb7b6ca8be87ff4d7080e39dfeb5165a1e795db36b3d5fb238460001b620001c360201b60201c565b33600160006101000a81548173ffffffffffffffffffffffffffffffffffffffff021916908373ffffffffffffffffffffffffffffffffffffffff160217905550620001487f086c932afb9e8bc8277681304ce71cada3caf0b53b206b17ab484a1a0cdb59c160001b620001c360201b60201c565b6200017c7f28096d83f251b31811115a38611b118164597a21ca5eeb8f79a09853cf0d801260001b620001c360201b60201c565b806000806101000a81548173ffffffffffffffffffffffffffffffffffffffff021916908373ffffffffffffffffffffffffffffffffffffffff1602179055505062000257565b50565b600081519050620001d7816200023d565b92915050565b600060208284031215620001f057600080fd5b60006200020084828501620001c6565b91505092915050565b600062000216826200021d565b9050919050565b600073ffffffffffffffffffffffffffffffffffffffff82169050919050565b620002488162000209565b81146200025457600080fd5b50565b611b8780620002676000396000f3fe6080604052600436106100855760003560e01c806386d1a69f1161005957806386d1a69f146101245780639c81ff6b1461013b578063a66e456214610166578063a694fc3a146101a3578063fe4fdc4e146101cc57610085565b80625c33e11461008a5780630d8f71b4146100945780632e17de78146100bd57806345bc78ab146100e6575b600080fd5b6100926101f7565b005b3480156100a057600080fd5b506100bb60048036038101906100b691906116b9565b610670565b005b3480156100c957600080fd5b506100e460048036038101906100df91906116e2565b610673565b005b3480156100f257600080fd5b5061010d60048036038101906101089190611667565b610bc2565b60405161011b9291906118d2565b60405180910390f35b34801561013057600080fd5b50610139610be6565b005b34801561014757600080fd5b50610150611038565b60405161015d91906118b7565b60405180910390f35b34801561017257600080fd5b5061018d60048036038101906101889190611667565b61103e565b60405161019a91906118b7565b60405180910390f35b3480156101af57600080fd5b506101ca60048036038101906101c591906116e2565b6111be565b005b3480156101d857600080fd5b506101e16115da565b6040516101ee919061185c565b60405180910390f35b6102237fb26cc02b20d3804719887b8168c7ec1a1f53e2a09e4a4b715ed128306ce756dc60001b610670565b61024f7ff88a56aadb79692544501333190daebe420833e4b4686e7fdff9e58f1b3cff1c60001b610670565b61027b7f61c5c30115f7f64f8b354311f150c4e80e25823a036aac2fcd026a777e31401c60001b610670565b60003490506102ac7fd833a236e1f519ec66e13dc3a481b481ba9f93fdf6215ff08e9efe4d511645d060001b610670565b6102d87f643ace3760854eca63ebd9d791a810df38629a178a0c49729f3255ba37be8c4c60001b610670565b60008060009054906101000a900473ffffffffffffffffffffffffffffffffffffffff1673ffffffffffffffffffffffffffffffffffffffff166370a08231306040518263ffffffff1660e01b815260040161033491906117e1565b60206040518083038186803b15801561034c57600080fd5b505afa158015610360573d6000803e3d6000fd5b505050506040513d601f19601f82011682018060405250810190610384919061170b565b146104f0576103b57fae01007c993d1701ea288bd2eaf7c003e6f4c669e0ffd536ea50fbd58ec5efa060001b610670565b6103e17f099a20d49f530391ee784939472bd1f9a9a1e05bfa196c2b01da948efb5af39c60001b610670565b61040d7f807c62837d7ae62a702a2751f265af5193f09bd05040154e3d6ebf6b97887b5c60001b610670565b60008054906101000a900473ffffffffffffffffffffffffffffffffffffffff1673ffffffffffffffffffffffffffffffffffffffff166370a08231306040518263ffffffff1660e01b815260040161046691906117e1565b60206040518083038186803b15801561047e57600080fd5b505afa158015610492573d6000803e3d6000fd5b505050506040513d601f19601f820116820180604052508101906104b6919061170b565b6b033b2e3c9fd0803ce8000000826104ce9190611993565b6104d89190611962565b6003546104e5919061190c565b6003819055506105de565b61051c7fb27429bddbc5fc93370b8d629bb49399327b206007385da66c6952597c895b1f60001b610670565b6105487fd8adbd5fc4823646a4b3112e92548f57b3ab12ad3b7b23cf86fcbe596301b68760001b610670565b6105747fea18d8ce916e7c24de6edffe431d606ff2924180ec14ef920bdcb6d138d0966f60001b610670565b600160009054906101000a900473ffffffffffffffffffffffffffffffffffffffff1673ffffffffffffffffffffffffffffffffffffffff166108fc829081150290604051600060405180830381858888f193505050501580156105dc573d6000803e3d6000fd5b505b61060a7fa1496ae3668f9496be5eae0dfbe3f5aff90b93e0a723f0ada3c53f4629188dd760001b610670565b6106367f2418cc881ed973b3b3fd6cdaf66964581055c04643058d55e992e4ab0f15520c60001b610670565b7f3ac0594a85a20354f9dc74f33728416d19ce00d04a406c108cc2dcf2cecea1348160405161066591906118b7565b60405180910390a150565b50565b61069f7f53ccebbdf58f4f92810fc75e5b46a9c3c8b6ed63861b6a7003f280df80da10c260001b610670565b6106cb7f5ebca9729793a8affeeafa49f543887e204dfde71cd10b7140c58caac86d29d760001b610670565b6106f77f324d0b716611eaad729f332f412e797d4db12f12da27de8e7dd7ad23cc9e4a7f60001b610670565b6107237fa38dbd39fffb220d014378131185e726944f7dd69c8110d854729037ae59a96360001b610670565b60008111610766576040517f08c379a000000000000000000000000000000000000000000000000000000000815260040161075d90611877565b60405180910390fd5b6107927f06719382201219d93951484a0198e552b26fcd1d7b02865d4b6073480e25ef0c60001b610670565b6107be7fd645f08c17cec079d9206b0405d1d65a1075af922f8fc371c541f51fc8ff8c2960001b610670565b6107ea7fd27145374897834394f2bda2569bf35c0cdfc76218a41096e6dfaf2d9a97c00d60001b610670565b6108167fd8d77c61b71fffb3fdc836ca50034e60ae5440d10afe104491bd6ec7eb85b85460001b610670565b600260003373ffffffffffffffffffffffffffffffffffffffff1673ffffffffffffffffffffffffffffffffffffffff1681526020019081526020016000206000015481111561089b576040517f08c379a000000000000000000000000000000000000000000000000000000000815260040161089290611897565b60405180910390fd5b6108c77f63c317a711da273f19e362e71f428edc8fb727e9b188331c2524765ae0f9b7a460001b610670565b6108f37fd5477b4b2d1bbbb2ff6f6db5816160c86fd4a970714e1180e22906c06caebbd760001b610670565b61091f7f25489506c19f6959296c492b1ff745e62152dc3e9cf4764f77c013d06ad35ecb60001b610670565b610927610be6565b6109537f2058f809e43cc4c1648b07e165a8137f1c6b4bc334ce743d85ad0aede2c2391160001b610670565b61097f7fc65a95ff1a90354cd8617f38ee06c9336bdb56bbbedbfaf56be217b549cc5e1b60001b610670565b80600260003373ffffffffffffffffffffffffffffffffffffffff1673ffffffffffffffffffffffffffffffffffffffff168152602001908152602001600020600001546109cd91906119ed565b600260003373ffffffffffffffffffffffffffffffffffffffff1673ffffffffffffffffffffffffffffffffffffffff16815260200190815260200160002060000181905550610a3f7fb07fbde4bfd20ef9fd87bb1489e94da42a835a6acb9cd7ce8dfbb086ddf7b6c360001b610670565b610a6b7fddbbbdc786ad84d30b2d672f3f08d6a92ef456e54282dacdec67a2f085b8be9b60001b610670565b60008054906101000a900473ffffffffffffffffffffffffffffffffffffffff1673ffffffffffffffffffffffffffffffffffffffff1663a9059cbb33836040518363ffffffff1660e01b8152600401610ac6929190611833565b602060405180830381600087803b158015610ae057600080fd5b505af1158015610af4573d6000803e3d6000fd5b505050506040513d601f19601f82011682018060405250810190610b189190611690565b50610b457f0bfef76509511ff80f439d555f9e20a0878987f24ecdfeca09fdcb3fd8a860ad60001b610670565b610b717f98baaebdffbccc09d26040b5875beee1242a9b75b232f636a0e26c7a6fee241060001b610670565b3373ffffffffffffffffffffffffffffffffffffffff167f0f5bb82176feb1b5e747e28471aa92156a04d9f3ab9f45f28e2d704232b93f7582604051610bb791906118b7565b60405180910390a250565b60026020528060005260406000206000915090508060000154908060010154905082565b610c127fc15d5c8047c5c9ee480ab6969a9615694e69dcb7e987e37015f4f5974db0cf9d60001b610670565b610c3e7f6d6e11143d13b297579f6694211876200a296199bfb2ad8ff7cb717a0b16404360001b610670565b610c6a7f934991a96d722be3c8de80eb5c0b33675b7cb07d27aca9fc8cccf9f7155ca71b60001b610670565b60006003541415610cfe57610ca17f1572332e6f7167112d8ffcea3f911f147ef973c1d620a8ce44a5a988fef0b71460001b610670565b610ccd7faedb3c5e34cb0ed6e51daa179a4179a565be81a24e73fe3abdb837263788375260001b610670565b610cf97f99d4b8dda13d9209d0276c20f8238fb52db5189fdfb25d2e1333b9765b8f213760001b610670565b611036565b610d2a7f45190d4e70bafa5f24a486ba4c56a3762e811bcc5b16d45295bbdde31ecfa6a560001b610670565b610d567f25df9c6bec09cffb7760c5ef69e1139dd37994d2542829e7b7399de333f08d3a60001b610670565b610d827ffcae47dba662771a14f6c1ec48054dc13df22479f6e9586b602c8008095ff8ad60001b610670565b6000610d8d3361103e565b9050610dbb7f593e66a9a6b16c7873caf6018f921037cacc4fd4296e8a179bcec46a95d204cc60001b610670565b610de77faab87446b0a1b6b6df3e20e9a25a3f346eb6a757508da73bc5afdba32cd3c3de60001b610670565b600354600260003373ffffffffffffffffffffffffffffffffffffffff1673ffffffffffffffffffffffffffffffffffffffff16815260200190815260200160002060010181905550610e5c7f7ce24acf885fa229288b9c5bf5130b9a32f50adc2100a5cef4830204484c6fa860001b610670565b610e887f2c4db50a4466a86357fc51f3b67a285536cab64c171a54e1a134b58c252a599f60001b610670565b600081111561100757610ebd7f640a0a95e06103a8ff56e28b4a151af25e2af6fecde77a67900b7e5a9df86b0260001b610670565b610ee97ff4b6aa9696c6f1dda52a34288ff2ef3c1d594332613c98a20ae03b2168ac920460001b610670565b610f157fcc53e0c320a6356908a033d10abf785972c2aabaf891be0f2c1acacac204b53c60001b610670565b3373ffffffffffffffffffffffffffffffffffffffff166108fc829081150290604051600060405180830381858888f19350505050158015610f5b573d6000803e3d6000fd5b50610f887f3a1ebb8227dfbd251d98a799170ad4ca5cb0ad68309af12eb085a5c8083b69a860001b610670565b610fb47ff84562f0cd3184420557b54fb96a6d95b92cee2460558d0ca2605db944079be660001b610670565b3373ffffffffffffffffffffffffffffffffffffffff167ff6334794522b9db534a812aaae1af828a2e96aac68473b58e36d7d0bfd67477b82604051610ffa91906118b7565b60405180910390a2611034565b6110337f58c481b19ecfd27e19fa52a51160f8e0ddd542f3e8f61a788a777c69ba624c3e60001b610670565b5b505b565b60035481565b600061106c7fb401a56c76e7535f00bc6219988d3a5de2b6e76d0006e1f8be01804790c1cf3560001b610670565b6110987fb404f7a713dd49f02110c2b3fea4a5ff78b509e9e23c1ed583bf0c65285507d660001b610670565b6110c47f83bd8cd797a865de2684ecacce0fc4e43123b8878c12c1d9a443fb44f42ffff460001b610670565b6000600260008473ffffffffffffffffffffffffffffffffffffffff1673ffffffffffffffffffffffffffffffffffffffff1681526020019081526020016000206040518060400160405290816000820154815260200160018201548152505090506111527fe6ad65ad3ce3bc2942be4ccf8bbb2da2054a09e0650853c8a34d3bd9919b0b4360001b610670565b61117e7f9589b9309b128ff04e76cc0c561ab398ead7369f27e4da44c670d9fcecb60ee260001b610670565b6b033b2e3c9fd0803ce8000000816020015160035461119d91906119ed565b82600001516111ac9190611993565b6111b69190611962565b915050919050565b6111ea7f43a3198a1987255b42d881685cd3125cb1becb6e9a201cc9113e678916a192be60001b610670565b6112167f891a4c1dd6c6328380712a333651eeee2e6b5135a802d13eac9b3891c8b89f7f60001b610670565b6112427faf53e672e570dff0898e934914675e75e04b56d4a41ed5c43b3990b9b2514ee660001b610670565b61126e7f23e04da4a69104dacfb8b7df7e47c4e06f2d5e9a10e7228a2632b0f3efdc06dd60001b610670565b600081116112b1576040517f08c379a00000000000000000000000000000000000000000000000000000000081526004016112a890611877565b60405180910390fd5b6112dd7f8608c7d357d54b0af4eb764a8b9d559cd1c9eb9bbab57458e1ff2f21abc7854160001b610670565b6113097f92165cd7baafd85dca1f6f84f1f941339cc23e8f4332f4d9a548a950acb8bb6a60001b610670565b6113357f53b87323997c17e655aaa16c9e532c9ebbba405ad8b5e463d18d9bd6998154ea60001b610670565b61133d610be6565b6113697fe60fdb91eb0302bd97222abdf411783a88f5b6773ce3f44f3975383c36263dda60001b610670565b6113957f5e7dbfc451e5b85ca2a909b520503c4d9dfb8d53e4bc70b73c5d72b5aae5a46b60001b610670565b60008054906101000a900473ffffffffffffffffffffffffffffffffffffffff1673ffffffffffffffffffffffffffffffffffffffff166323b872dd3330846040518463ffffffff1660e01b81526004016113f2939291906117fc565b602060405180830381600087803b15801561140c57600080fd5b505af1158015611420573d6000803e3d6000fd5b505050506040513d601f19601f820116820180604052508101906114449190611690565b506114717f1d155a143f0cea6c0bd0f303edb51c426c28deba0623c9e52ed9f3f85746830c60001b610670565b61149d7f8809add7c93e097a682e9d63c73135dc54589f33823711d14b4367200f8da93160001b610670565b80600260003373ffffffffffffffffffffffffffffffffffffffff1673ffffffffffffffffffffffffffffffffffffffff168152602001908152602001600020600001546114eb919061190c565b600260003373ffffffffffffffffffffffffffffffffffffffff1673ffffffffffffffffffffffffffffffffffffffff1681526020019081526020016000206000018190555061155d7f194c8427aa05f0a88c9012506b74a2dff80b3062f38b81dbce89a0e29d06298260001b610670565b6115897ff5c774334e962e2d45261e44a7ef575eb9abe80b4f4008f450d737023dca30d260001b610670565b3373ffffffffffffffffffffffffffffffffffffffff167f9e71bc8eea02a63969f509818f2dafb9254532904319f9dbda79b67bd34a5f3d826040516115cf91906118b7565b60405180910390a250565b60008054906101000a900473ffffffffffffffffffffffffffffffffffffffff1681565b60008135905061160d81611af5565b92915050565b60008151905061162281611b0c565b92915050565b60008135905061163781611b23565b92915050565b60008135905061164c81611b3a565b92915050565b60008151905061166181611b3a565b92915050565b60006020828403121561167957600080fd5b6000611687848285016115fe565b91505092915050565b6000602082840312156116a257600080fd5b60006116b084828501611613565b91505092915050565b6000602082840312156116cb57600080fd5b60006116d984828501611628565b91505092915050565b6000602082840312156116f457600080fd5b60006117028482850161163d565b91505092915050565b60006020828403121561171d57600080fd5b600061172b84828501611652565b91505092915050565b61173d81611a21565b82525050565b61174c81611a73565b82525050565b600061175f601f836118fb565b91507f416d6f756e742073686f756c642062652067726561746572207468616e2030006000830152602082019050919050565b600061179f6020836118fb565b91507f43616e6e6f7420756e7374616b65206d6f7265207468616e2062616c616e63656000830152602082019050919050565b6117db81611a69565b82525050565b60006020820190506117f66000830184611734565b92915050565b60006060820190506118116000830186611734565b61181e6020830185611734565b61182b60408301846117d2565b949350505050565b60006040820190506118486000830185611734565b61185560208301846117d2565b9392505050565b60006020820190506118716000830184611743565b92915050565b6000602082019050818103600083015261189081611752565b9050919050565b600060208201905081810360008301526118b081611792565b9050919050565b60006020820190506118cc60008301846117d2565b92915050565b60006040820190506118e760008301856117d2565b6118f460208301846117d2565b9392505050565b600082825260208201905092915050565b600061191782611a69565b915061192283611a69565b9250827fffffffffffffffffffffffffffffffffffffffffffffffffffffffffffffffff0382111561195757611956611a97565b5b828201905092915050565b600061196d82611a69565b915061197883611a69565b92508261198857611987611ac6565b5b828204905092915050565b600061199e82611a69565b91506119a983611a69565b9250817fffffffffffffffffffffffffffffffffffffffffffffffffffffffffffffffff04831182151516156119e2576119e1611a97565b5b828202905092915050565b60006119f882611a69565b9150611a0383611a69565b925082821015611a1657611a15611a97565b5b828203905092915050565b6000611a2c82611a49565b9050919050565b60008115159050919050565b6000819050919050565b600073ffffffffffffffffffffffffffffffffffffffff82169050919050565b6000819050919050565b6000611a7e82611a85565b9050919050565b6000611a9082611a49565b9050919050565b7f4e487b7100000000000000000000000000000000000000000000000000000000600052601160045260246000fd5b7f4e487b7100000000000000000000000000000000000000000000000000000000600052601260045260246000fd5b611afe81611a21565b8114611b0957600080fd5b50565b611b1581611a33565b8114611b2057600080fd5b50565b611b2c81611a3f565b8114611b3757600080fd5b50565b611b4381611a69565b8114611b4e57600080fd5b5056fea26469706673582212208fec55a017f5a1fe8c8e7cb01f2659e1529029bf33e1466f7aac981a2ce0b09464736f6c63430008000033",
  "linkReferences": {},
  "deployedLinkReferences": {}
}