{
  "contracts/BinaryBet.sol": {
    "BinaryBet": {
      "abi": [
        {
          "inputs": [
            {
              "internalType": "uint256",
              "name": "_windowDuration",
              "type": "uint256"
            },
            {
              "internalType": "uint256",
              "name": "_fee",
              "type": "uint256"
            },
            {
              "internalType": "address",
              "name": "aggregator",
              "type": "address"
            },
            {
              "internalType": "address",
              "name": "stakingContract",
              "type": "address"
            },
            {
              "internalType": "address",
              "name": "tokenContract",
              "type": "address"
            },
            {
              "internalType": "uint256",
              "name": "reward",
              "type": "uint256"
            }
          ],
          "stateMutability": "nonpayable",
          "type": "constructor"
        },
        {
          "anonymous": false,
          "inputs": [
            {
              "indexed": true,
              "internalType": "uint256",
              "name": "windowNumber",
              "type": "uint256"
            },
            {
              "indexed": true,
              "internalType": "address",
              "name": "user",
              "type": "address"
            },
            {
              "indexed": false,
              "internalType": "uint256",
              "name": "gain",
              "type": "uint256"
            }
          ],
          "name": "BetSettled",
          "type": "event"
        },
        {
          "anonymous": false,
          "inputs": [
            {
              "indexed": true,
              "internalType": "address",
              "name": "user",
              "type": "address"
            },
            {
              "indexed": true,
              "internalType": "uint256",
              "name": "windowNumber",
              "type": "uint256"
            },
            {
              "indexed": false,
              "internalType": "uint256",
              "name": "value",
              "type": "uint256"
            },
            {
              "indexed": false,
              "internalType": "uint8",
              "name": "side",
              "type": "uint8"
            }
          ],
          "name": "NewBet",
          "type": "event"
        },
        {
          "anonymous": false,
          "inputs": [
            {
              "indexed": true,
              "internalType": "uint256",
              "name": "windowNumber",
              "type": "uint256"
            },
            {
              "indexed": false,
              "internalType": "uint256",
              "name": "price",
              "type": "uint256"
            }
          ],
          "name": "PriceUpdated",
          "type": "event"
        },
        {
          "inputs": [],
          "name": "REWARD_PER_WINDOW",
          "outputs": [
            {
              "internalType": "uint256",
              "name": "",
              "type": "uint256"
            }
          ],
          "stateMutability": "view",
          "type": "function"
        },
        {
          "inputs": [],
          "name": "accumulatedFees",
          "outputs": [
            {
              "internalType": "uint256",
              "name": "",
              "type": "uint256"
            }
          ],
          "stateMutability": "view",
          "type": "function"
        },
        {
          "inputs": [
            {
              "internalType": "address",
              "name": "_user",
              "type": "address"
            }
          ],
          "name": "betListLen",
          "outputs": [
            {
              "internalType": "uint256",
              "name": "",
              "type": "uint256"
            }
          ],
          "stateMutability": "view",
          "type": "function"
        },
        {
          "inputs": [
            {
              "internalType": "uint256",
              "name": "referencePrice",
              "type": "uint256"
            },
            {
              "internalType": "uint256",
              "name": "settlementPrice",
              "type": "uint256"
            }
          ],
          "name": "betResult",
          "outputs": [
            {
              "internalType": "uint8",
              "name": "",
              "type": "uint8"
            }
          ],
          "stateMutability": "pure",
          "type": "function"
        },
        {
          "inputs": [
            {
              "internalType": "uint256",
              "name": "upStake",
              "type": "uint256"
            },
            {
              "internalType": "uint256",
              "name": "downStake",
              "type": "uint256"
            },
            {
              "internalType": "uint256",
              "name": "poolUp",
              "type": "uint256"
            },
            {
              "internalType": "uint256",
              "name": "poolDown",
              "type": "uint256"
            }
          ],
          "name": "calculateTokenReward",
          "outputs": [
            {
              "internalType": "uint256",
              "name": "",
              "type": "uint256"
            }
          ],
          "stateMutability": "view",
          "type": "function"
        },
        {
          "inputs": [
            {
              "internalType": "uint256",
              "name": "value",
              "type": "uint256"
            },
            {
              "internalType": "uint256",
              "name": "_fee",
              "type": "uint256"
            }
          ],
          "name": "computeFee",
          "outputs": [
            {
              "internalType": "uint256",
              "name": "betFee",
              "type": "uint256"
            }
          ],
          "stateMutability": "pure",
          "type": "function"
        },
        {
          "inputs": [],
          "name": "fee",
          "outputs": [
            {
              "internalType": "uint256",
              "name": "",
              "type": "uint256"
            }
          ],
          "stateMutability": "view",
          "type": "function"
        },
        {
          "inputs": [],
          "name": "firstBlock",
          "outputs": [
            {
              "internalType": "uint256",
              "name": "",
              "type": "uint256"
            }
          ],
          "stateMutability": "view",
          "type": "function"
        },
        {
          "inputs": [
            {
              "internalType": "uint256",
              "name": "windowNumber",
              "type": "uint256"
            }
          ],
          "name": "getPoolValues",
          "outputs": [
            {
              "internalType": "uint256",
              "name": "",
              "type": "uint256"
            },
            {
              "internalType": "uint256",
              "name": "",
              "type": "uint256"
            }
          ],
          "stateMutability": "view",
          "type": "function"
        },
        {
          "inputs": [
            {
              "internalType": "address",
              "name": "_user",
              "type": "address"
            },
            {
              "internalType": "uint256",
              "name": "index",
              "type": "uint256"
            }
          ],
          "name": "getUserBetList",
          "outputs": [
            {
              "internalType": "uint256",
              "name": "",
              "type": "uint256"
            }
          ],
          "stateMutability": "view",
          "type": "function"
        },
        {
          "inputs": [
            {
              "internalType": "uint256",
              "name": "windowNumber",
              "type": "uint256"
            },
            {
              "internalType": "address",
              "name": "_user",
              "type": "address"
            }
          ],
          "name": "getUserStake",
          "outputs": [
            {
              "internalType": "uint256",
              "name": "",
              "type": "uint256"
            },
            {
              "internalType": "uint256",
              "name": "",
              "type": "uint256"
            }
          ],
          "stateMutability": "view",
          "type": "function"
        },
        {
          "inputs": [
            {
              "internalType": "uint256",
              "name": "window",
              "type": "uint256"
            }
          ],
          "name": "getWindowBetPrices",
          "outputs": [
            {
              "internalType": "uint256",
              "name": "",
              "type": "uint256"
            },
            {
              "internalType": "uint256",
              "name": "",
              "type": "uint256"
            }
          ],
          "stateMutability": "view",
          "type": "function"
        },
        {
          "inputs": [
            {
              "internalType": "uint256",
              "name": "currentBlock",
              "type": "uint256"
            },
            {
              "internalType": "uint256",
              "name": "_windowDuration",
              "type": "uint256"
            },
            {
              "internalType": "uint256",
              "name": "_firstBlock",
              "type": "uint256"
            }
          ],
          "name": "getWindowNumber",
          "outputs": [
            {
              "internalType": "uint256",
              "name": "windowNumber",
              "type": "uint256"
            }
          ],
          "stateMutability": "pure",
          "type": "function"
        },
        {
          "inputs": [
            {
              "internalType": "uint256",
              "name": "windowNumber",
              "type": "uint256"
            },
            {
              "internalType": "uint256",
              "name": "_windowDuration",
              "type": "uint256"
            },
            {
              "internalType": "uint256",
              "name": "_firstBlock",
              "type": "uint256"
            }
          ],
          "name": "getWindowStartingBlock",
          "outputs": [
            {
              "internalType": "uint256",
              "name": "startingBlock",
              "type": "uint256"
            }
          ],
          "stateMutability": "pure",
          "type": "function"
        },
        {
          "inputs": [
            {
              "internalType": "uint8",
              "name": "side",
              "type": "uint8"
            }
          ],
          "name": "placeBet",
          "outputs": [],
          "stateMutability": "payable",
          "type": "function"
        },
        {
          "inputs": [
            {
              "internalType": "uint256",
              "name": "",
              "type": "uint256"
            }
          ],
          "name": "pools",
          "outputs": [
            {
              "internalType": "uint64",
              "name": "downValue",
              "type": "uint64"
            },
            {
              "internalType": "uint64",
              "name": "upValue",
              "type": "uint64"
            }
          ],
          "stateMutability": "view",
          "type": "function"
        },
        {
          "inputs": [
            {
              "internalType": "uint256",
              "name": "upStake",
              "type": "uint256"
            },
            {
              "internalType": "uint256",
              "name": "downStake",
              "type": "uint256"
            },
            {
              "internalType": "uint256",
              "name": "poolUp",
              "type": "uint256"
            },
            {
              "internalType": "uint256",
              "name": "poolDown",
              "type": "uint256"
            },
            {
              "internalType": "uint8",
              "name": "res",
              "type": "uint8"
            }
          ],
          "name": "settleBet",
          "outputs": [
            {
              "internalType": "uint256",
              "name": "gain",
              "type": "uint256"
            },
            {
              "internalType": "uint256",
              "name": "fees",
              "type": "uint256"
            }
          ],
          "stateMutability": "pure",
          "type": "function"
        },
        {
          "inputs": [
            {
              "internalType": "address",
              "name": "_user",
              "type": "address"
            }
          ],
          "name": "updateBalance",
          "outputs": [],
          "stateMutability": "nonpayable",
          "type": "function"
        },
        {
          "inputs": [],
          "name": "updatePrice",
          "outputs": [],
          "stateMutability": "nonpayable",
          "type": "function"
        },
        {
          "inputs": [],
          "name": "windowDuration",
          "outputs": [
            {
              "internalType": "uint256",
              "name": "",
              "type": "uint256"
            }
          ],
          "stateMutability": "view",
          "type": "function"
        },
        {
          "inputs": [
            {
              "internalType": "uint256",
              "name": "",
              "type": "uint256"
            }
          ],
          "name": "windowPrice",
          "outputs": [
            {
              "internalType": "uint256",
              "name": "",
              "type": "uint256"
            }
          ],
          "stateMutability": "view",
          "type": "function"
        },
        {
          "inputs": [
            {
              "internalType": "uint256",
              "name": "window",
              "type": "uint256"
            },
            {
              "internalType": "uint256",
              "name": "currentWindow",
              "type": "uint256"
            },
            {
              "internalType": "uint256",
              "name": "initialPrice",
              "type": "uint256"
            },
            {
              "internalType": "uint256",
              "name": "finalPrice",
              "type": "uint256"
            }
          ],
          "name": "windowStatus",
          "outputs": [
            {
              "internalType": "enum BinaryBet.WindowStatus",
              "name": "status",
              "type": "uint8"
            }
          ],
          "stateMutability": "pure",
          "type": "function"
        }
      ],
      "devdoc": {
        "kind": "dev",
        "methods": {},
        "version": 1
      },
      "evm": {
        "bytecode": {
          "linkReferences": {},
          "object": "6101606040523480156200001257600080fd5b5060405162001913380380620019138339810160408190526200003591620000d2565b60648511156200004457600080fd5b600080546001600160a01b0386166001600160a01b031990911617905543610120526101408690526101008590526001600160601b0319606084811b821660c081905260a05283901b16608052620000a581670de0b6b3a764000062000138565b60e0525062000166945050505050565b80516001600160a01b0381168114620000cd57600080fd5b919050565b60008060008060008060c08789031215620000ec57600080fd5b86519550602087015194506200010560408801620000b5565b93506200011560608801620000b5565b92506200012560808801620000b5565b915060a087015190509295509295509295565b60008160001904831182151516156200016157634e487b7160e01b600052601160045260246000fd5b500290565b60805160601c60a05160601c60c05160601c60e0516101005161012051610140516117066200020d600039600081816103020152818161066401528181610a520152610d080152600081816102350152818161068501528181610a730152610d2901526000818161053c0152610a0501526000818161034b0152610f590152600050506000611236015260008181610ffa015281816110c0015261115701526117066000f3fe6080604052600436106101755760003560e01c806378f14be4116100cb578063b47a35661161007f578063ddca3f4311610059578063ddca3f431461052a578063e0d65d871461055e578063f83b35fb1461058b57600080fd5b8063b47a3566146104ca578063ca055e53146104ea578063daaac9d21461050a57600080fd5b80639626a230116100b05780639626a230146103c6578063ac4afa3814610435578063b134894e1461049d57600080fd5b806378f14be41461036d57806389b808a71461038d57600080fd5b8063430468441161012d5780635c11ff7a116101075780635c11ff7a146102f0578063673a7e281461032457806371a422071461033957600080fd5b806343046844146102a7578063508ba0bd146102ba578063587f5ed7146102da57600080fd5b8063231b02681161015e578063231b0268146102235780632ff284c21461026557806340b8405a1461028557600080fd5b80630eff4d881461017a5780631bb5abf9146101f1575b600080fd5b34801561018657600080fd5b506101d7610195366004611369565b60009081526001602090815260409182902082518084019093525467ffffffffffffffff80821680855268010000000000000000909204169290910182905291565b604080519283526020830191909152015b60405180910390f35b3480156101fd57600080fd5b5061021161020c366004611382565b6105ab565b60405160ff90911681526020016101e8565b34801561022f57600080fd5b506102577f000000000000000000000000000000000000000000000000000000000000000081565b6040519081526020016101e8565b34801561027157600080fd5b50610257610280366004611382565b6105d7565b34801561029157600080fd5b506102a56102a03660046113c0565b6105f6565b005b6102a56102b53660046113ec565b61097e565b3480156102c657600080fd5b506102576102d5366004611407565b610cd6565b3480156102e657600080fd5b5061025760025481565b3480156102fc57600080fd5b506102577f000000000000000000000000000000000000000000000000000000000000000081565b34801561033057600080fd5b506102a5610d00565b34801561034557600080fd5b506102577f000000000000000000000000000000000000000000000000000000000000000081565b34801561037957600080fd5b50610257610388366004611407565b610dbb565b34801561039957600080fd5b506102576103a83660046113c0565b6001600160a01b031660009081526004602052604090206001015490565b3480156103d257600080fd5b506101d76103e1366004611433565b6001600160a01b031660009081526004602090815260408083209383529281529082902082518084019093525467ffffffffffffffff80821680855268010000000000000000909204169290910182905291565b34801561044157600080fd5b5061047c610450366004611369565b60016020526000908152604090205467ffffffffffffffff808216916801000000000000000090041682565b6040805167ffffffffffffffff9384168152929091166020830152016101e8565b3480156104a957600080fd5b506104bd6104b836600461145f565b610ddd565b6040516101e891906114a7565b3480156104d657600080fd5b506102576104e53660046114cf565b610e40565b3480156104f657600080fd5b506101d76105053660046114f9565b610e80565b34801561051657600080fd5b5061025761052536600461145f565b610f52565b34801561053657600080fd5b506102577f000000000000000000000000000000000000000000000000000000000000000081565b34801561056a57600080fd5b50610257610579366004611369565b60036020526000908152604090205481565b34801561059757600080fd5b506101d76105a6366004611369565b610f9a565b6000828210156105bd575060006105d1565b828211156105cd575060016105d1565b5060025b92915050565b600060646105e58385611558565b6105ef9190611577565b9392505050565b6001600160a01b0381166000908152600460205260409020600181015461061b575050565b600181015460009081905b801561092e5760008460010160018361063f9190611599565b8154811061064f5761064f6115b0565b9060005260206000200154905060006106a9437f00000000000000000000000000000000000000000000000000000000000000007f0000000000000000000000000000000000000000000000000000000000000000610cd6565b90506000806106b784610f9a565b9150915060006106c985858585610ddd565b905060008160038111156106df576106df611491565b14806106fc575060018160038111156106fa576106fa611491565b145b1561070b57505050505061091c565b6000600382600381111561072157610721611491565b14156107385761073184846105ab565b9050610756565b600282600381111561074c5761074c611491565b1415610756575060025b6001808b018054909161076891611599565b81548110610778576107786115b0565b90600052602060002001548a6001016001896107949190611599565b815481106107a4576107a46115b0565b60009182526020909120015560018a018054806107c3576107c36115c6565b6000828152602080822083016000199081018390559092019092558782528b8152604080832081518083018352905467ffffffffffffffff8082168352680100000000000000009182900481168386019081528c87526001865284872085518087019096525480831680875293900482169585018690525183519396949585946108539492841693169189610e80565b9092509050610862828e6115dc565b9c508060025461087291906115dc565b60028190555060006108be856020015167ffffffffffffffff16866000015167ffffffffffffffff16866020015167ffffffffffffffff16876000015167ffffffffffffffff16610f52565b90506108ca818e6115dc565b9c508f6001600160a01b03168b7f6f277b50171c654e40c771d9c2bbf19e070eeb21cce6f8e9a80334564279e3958560405161090891815260200190565b60405180910390a350505050505050505050505b80610926816115f4565b915050610626565b506040516001600160a01b0385169083156108fc029084906000818181858888f19350505050158015610965573d6000803e3d6000fd5b506109708482610fe3565b61097861122c565b50505050565b600034116109ec576040517f08c379a000000000000000000000000000000000000000000000000000000000815260206004820152601d60248201527f4f6e6c79207374726963746c7920706f7369746976652076616c756573000000604482015260640160405180910390fd5b6109f4610d00565b6109fd336105f6565b6000610a29347f00000000000000000000000000000000000000000000000000000000000000006105d7565b905080600254610a3991906115dc565b6002556000610a488234611599565b90506000610a97437f00000000000000000000000000000000000000000000000000000000000000007f0000000000000000000000000000000000000000000000000000000000000000610cd6565b3360009081526004602052604090206001810154919250901580610ae75750600180820180549091610ac891611599565b81548110610ad857610ad86115b0565b90600052602060002001548214155b15610b0657600180820180549182018155600090815260209020018290555b60018560ff166001811115610b1d57610b1d611491565b6001811115610b2e57610b2e611491565b1415610bf55760008281526020829052604090208054849190600890610b6b90849068010000000000000000900467ffffffffffffffff1661160b565b92506101000a81548167ffffffffffffffff021916908367ffffffffffffffff160217905550826001600084815260200190815260200160002060000160088282829054906101000a900467ffffffffffffffff16610bca919061160b565b92506101000a81548167ffffffffffffffff021916908367ffffffffffffffff160217905550610c86565b60008281526020829052604081208054859290610c1d90849067ffffffffffffffff1661160b565b82546101009290920a67ffffffffffffffff818102199093169183160217909155600084815260016020526040812080548794509092610c5f9185911661160b565b92506101000a81548167ffffffffffffffff021916908367ffffffffffffffff1602179055505b6040805167ffffffffffffffff8516815260ff87166020820152839133917f85ff162f60a0eab11e1e0d3d9cfa18a46d7038a29751af4130dbaeeadbd37ed4910160405180910390a35050505050565b600082610ce38386611599565b610ced9190611577565b610cf89060016115dc565b949350505050565b6000610d4d437f00000000000000000000000000000000000000000000000000000000000000007f0000000000000000000000000000000000000000000000000000000000000000610cd6565b600081815260036020526040902054909150610db857610d6b6112b1565b600082815260036020526040908190208290555182917f945c1c4e99aa89f648fbfe3df471b916f719e16d960fcec0737d4d56bd69683891610daf91815260200190565b60405180910390a25b50565b600082610dc9600186611599565b610dd39190611558565b610cf890836115dc565b6000610dea8560026115dc565b841015610df957506000610cf8565b610e048560036115dc565b84108015610e10575081155b15610e1d57506001610cf8565b821580610e28575081155b15610e3557506002610cf8565b506003949350505050565b6001600160a01b0382166000908152600460205260408120600101805483908110610e6d57610e6d6115b0565b9060005260206000200154905092915050565b60008060008360ff166002811115610e9a57610e9a611491565b90506000610ea886886115dc565b90506001826002811115610ebe57610ebe611491565b148015610eca57508615155b15610ee157610eda818a89611352565b9350610f46565b6000826002811115610ef557610ef5611491565b148015610f0157508515155b15610f1157610eda818988611352565b6002826002811115610f2557610f25611491565b1415610f3557610eda888a6115dc565b60009350610f43888a6115dc565b92505b50509550959350505050565b6000610f917f0000000000000000000000000000000000000000000000000000000000000000610f8286886115dc565b610f8c85876115dc565b611352565b95945050505050565b600080600381610fab8560016115dc565b81526020019081526020016000205460036000856002610fcb91906115dc565b81526020019081526020016000205491509150915091565b6040516370a0823160e01b815230600482015281907f00000000000000000000000000000000000000000000000000000000000000006001600160a01b0316906370a082319060240160206040518083038186803b15801561104457600080fd5b505afa158015611058573d6000803e3d6000fd5b505050506040513d601f19601f8201168201806040525081019061107c9190611637565b10611142576040517fa9059cbb0000000000000000000000000000000000000000000000000000000081526001600160a01b038381166004830152602482018390527f0000000000000000000000000000000000000000000000000000000000000000169063a9059cbb906044015b602060405180830381600087803b15801561110557600080fd5b505af1158015611119573d6000803e3d6000fd5b505050506040513d601f19601f8201168201806040525081019061113d9190611650565b505050565b6040516370a0823160e01b81523060048201527f00000000000000000000000000000000000000000000000000000000000000006001600160a01b03169063a9059cbb90849083906370a082319060240160206040518083038186803b1580156111ab57600080fd5b505afa1580156111bf573d6000803e3d6000fd5b505050506040513d601f19601f820116820180604052508101906111e39190611637565b6040517fffffffff0000000000000000000000000000000000000000000000000000000060e085901b1681526001600160a01b03909216600483015260248201526044016110eb565b600254156112af577f00000000000000000000000000000000000000000000000000000000000000006001600160a01b0316625c33e16002546040518263ffffffff1660e01b81526004016000604051808303818588803b15801561129057600080fd5b505af11580156112a4573d6000803e3d6000fd5b505060006002555050505b565b60008054604080517ffeaf968c000000000000000000000000000000000000000000000000000000008152905183926001600160a01b03169163feaf968c9160048083019260a0929190829003018186803b15801561130f57600080fd5b505afa158015611323573d6000803e3d6000fd5b505050506040513d601f19601f82011682018060405250810190611347919061168c565b509195945050505050565b60008161135f8585611558565b610cf89190611577565b60006020828403121561137b57600080fd5b5035919050565b6000806040838503121561139557600080fd5b50508035926020909101359150565b80356001600160a01b03811681146113bb57600080fd5b919050565b6000602082840312156113d257600080fd5b6105ef826113a4565b803560ff811681146113bb57600080fd5b6000602082840312156113fe57600080fd5b6105ef826113db565b60008060006060848603121561141c57600080fd5b505081359360208301359350604090920135919050565b6000806040838503121561144657600080fd5b82359150611456602084016113a4565b90509250929050565b6000806000806080858703121561147557600080fd5b5050823594602084013594506040840135936060013592509050565b634e487b7160e01b600052602160045260246000fd5b60208101600483106114c957634e487b7160e01b600052602160045260246000fd5b91905290565b600080604083850312156114e257600080fd5b6114eb836113a4565b946020939093013593505050565b600080600080600060a0868803121561151157600080fd5b85359450602086013593506040860135925060608601359150611536608087016113db565b90509295509295909350565b634e487b7160e01b600052601160045260246000fd5b600081600019048311821515161561157257611572611542565b500290565b60008261159457634e487b7160e01b600052601260045260246000fd5b500490565b6000828210156115ab576115ab611542565b500390565b634e487b7160e01b600052603260045260246000fd5b634e487b7160e01b600052603160045260246000fd5b600082198211156115ef576115ef611542565b500190565b60008161160357611603611542565b506000190190565b600067ffffffffffffffff80831681851680830382111561162e5761162e611542565b01949350505050565b60006020828403121561164957600080fd5b5051919050565b60006020828403121561166257600080fd5b815180151581146105ef57600080fd5b805169ffffffffffffffffffff811681146113bb57600080fd5b600080600080600060a086880312156116a457600080fd5b6116ad86611672565b94506020860151935060408601519250606086015191506115366080870161167256fea26469706673582212206236596fefa3cb8c763897f6c2078abf80bb23e441842b24a1aff9a786e4d9f364736f6c63430008080033",
          "opcodes": "PUSH2 0x160 PUSH1 0x40 MSTORE CALLVALUE DUP1 ISZERO PUSH3 0x12 JUMPI PUSH1 0x0 DUP1 REVERT JUMPDEST POP PUSH1 0x40 MLOAD PUSH3 0x1913 CODESIZE SUB DUP1 PUSH3 0x1913 DUP4 CODECOPY DUP2 ADD PUSH1 0x40 DUP2 SWAP1 MSTORE PUSH3 0x35 SWAP2 PUSH3 0xD2 JUMP JUMPDEST PUSH1 0x64 DUP6 GT ISZERO PUSH3 0x44 JUMPI PUSH1 0x0 DUP1 REVERT JUMPDEST PUSH1 0x0 DUP1 SLOAD PUSH1 0x1 PUSH1 0x1 PUSH1 0xA0 SHL SUB DUP7 AND PUSH1 0x1 PUSH1 0x1 PUSH1 0xA0 SHL SUB NOT SWAP1 SWAP2 AND OR SWAP1 SSTORE NUMBER PUSH2 0x120 MSTORE PUSH2 0x140 DUP7 SWAP1 MSTORE PUSH2 0x100 DUP6 SWAP1 MSTORE PUSH1 0x1 PUSH1 0x1 PUSH1 0x60 SHL SUB NOT PUSH1 0x60 DUP5 DUP2 SHL DUP3 AND PUSH1 0xC0 DUP2 SWAP1 MSTORE PUSH1 0xA0 MSTORE DUP4 SWAP1 SHL AND PUSH1 0x80 MSTORE PUSH3 0xA5 DUP2 PUSH8 0xDE0B6B3A7640000 PUSH3 0x138 JUMP JUMPDEST PUSH1 0xE0 MSTORE POP PUSH3 0x166 SWAP5 POP POP POP POP POP JUMP JUMPDEST DUP1 MLOAD PUSH1 0x1 PUSH1 0x1 PUSH1 0xA0 SHL SUB DUP2 AND DUP2 EQ PUSH3 0xCD JUMPI PUSH1 0x0 DUP1 REVERT JUMPDEST SWAP2 SWAP1 POP JUMP JUMPDEST PUSH1 0x0 DUP1 PUSH1 0x0 DUP1 PUSH1 0x0 DUP1 PUSH1 0xC0 DUP8 DUP10 SUB SLT ISZERO PUSH3 0xEC JUMPI PUSH1 0x0 DUP1 REVERT JUMPDEST DUP7 MLOAD SWAP6 POP PUSH1 0x20 DUP8 ADD MLOAD SWAP5 POP PUSH3 0x105 PUSH1 0x40 DUP9 ADD PUSH3 0xB5 JUMP JUMPDEST SWAP4 POP PUSH3 0x115 PUSH1 0x60 DUP9 ADD PUSH3 0xB5 JUMP JUMPDEST SWAP3 POP PUSH3 0x125 PUSH1 0x80 DUP9 ADD PUSH3 0xB5 JUMP JUMPDEST SWAP2 POP PUSH1 0xA0 DUP8 ADD MLOAD SWAP1 POP SWAP3 SWAP6 POP SWAP3 SWAP6 POP SWAP3 SWAP6 JUMP JUMPDEST PUSH1 0x0 DUP2 PUSH1 0x0 NOT DIV DUP4 GT DUP3 ISZERO ISZERO AND ISZERO PUSH3 0x161 JUMPI PUSH4 0x4E487B71 PUSH1 0xE0 SHL PUSH1 0x0 MSTORE PUSH1 0x11 PUSH1 0x4 MSTORE PUSH1 0x24 PUSH1 0x0 REVERT JUMPDEST POP MUL SWAP1 JUMP JUMPDEST PUSH1 0x80 MLOAD PUSH1 0x60 SHR PUSH1 0xA0 MLOAD PUSH1 0x60 SHR PUSH1 0xC0 MLOAD PUSH1 0x60 SHR PUSH1 0xE0 MLOAD PUSH2 0x100 MLOAD PUSH2 0x120 MLOAD PUSH2 0x140 MLOAD PUSH2 0x1706 PUSH3 0x20D PUSH1 0x0 CODECOPY PUSH1 0x0 DUP2 DUP2 PUSH2 0x302 ADD MSTORE DUP2 DUP2 PUSH2 0x664 ADD MSTORE DUP2 DUP2 PUSH2 0xA52 ADD MSTORE PUSH2 0xD08 ADD MSTORE PUSH1 0x0 DUP2 DUP2 PUSH2 0x235 ADD MSTORE DUP2 DUP2 PUSH2 0x685 ADD MSTORE DUP2 DUP2 PUSH2 0xA73 ADD MSTORE PUSH2 0xD29 ADD MSTORE PUSH1 0x0 DUP2 DUP2 PUSH2 0x53C ADD MSTORE PUSH2 0xA05 ADD MSTORE PUSH1 0x0 DUP2 DUP2 PUSH2 0x34B ADD MSTORE PUSH2 0xF59 ADD MSTORE PUSH1 0x0 POP POP PUSH1 0x0 PUSH2 0x1236 ADD MSTORE PUSH1 0x0 DUP2 DUP2 PUSH2 0xFFA ADD MSTORE DUP2 DUP2 PUSH2 0x10C0 ADD MSTORE PUSH2 0x1157 ADD MSTORE PUSH2 0x1706 PUSH1 0x0 RETURN INVALID PUSH1 0x80 PUSH1 0x40 MSTORE PUSH1 0x4 CALLDATASIZE LT PUSH2 0x175 JUMPI PUSH1 0x0 CALLDATALOAD PUSH1 0xE0 SHR DUP1 PUSH4 0x78F14BE4 GT PUSH2 0xCB JUMPI DUP1 PUSH4 0xB47A3566 GT PUSH2 0x7F JUMPI DUP1 PUSH4 0xDDCA3F43 GT PUSH2 0x59 JUMPI DUP1 PUSH4 0xDDCA3F43 EQ PUSH2 0x52A JUMPI DUP1 PUSH4 0xE0D65D87 EQ PUSH2 0x55E JUMPI DUP1 PUSH4 0xF83B35FB EQ PUSH2 0x58B JUMPI PUSH1 0x0 DUP1 REVERT JUMPDEST DUP1 PUSH4 0xB47A3566 EQ PUSH2 0x4CA JUMPI DUP1 PUSH4 0xCA055E53 EQ PUSH2 0x4EA JUMPI DUP1 PUSH4 0xDAAAC9D2 EQ PUSH2 0x50A JUMPI PUSH1 0x0 DUP1 REVERT JUMPDEST DUP1 PUSH4 0x9626A230 GT PUSH2 0xB0 JUMPI DUP1 PUSH4 0x9626A230 EQ PUSH2 0x3C6 JUMPI DUP1 PUSH4 0xAC4AFA38 EQ PUSH2 0x435 JUMPI DUP1 PUSH4 0xB134894E EQ PUSH2 0x49D JUMPI PUSH1 0x0 DUP1 REVERT JUMPDEST DUP1 PUSH4 0x78F14BE4 EQ PUSH2 0x36D JUMPI DUP1 PUSH4 0x89B808A7 EQ PUSH2 0x38D JUMPI PUSH1 0x0 DUP1 REVERT JUMPDEST DUP1 PUSH4 0x43046844 GT PUSH2 0x12D JUMPI DUP1 PUSH4 0x5C11FF7A GT PUSH2 0x107 JUMPI DUP1 PUSH4 0x5C11FF7A EQ PUSH2 0x2F0 JUMPI DUP1 PUSH4 0x673A7E28 EQ PUSH2 0x324 JUMPI DUP1 PUSH4 0x71A42207 EQ PUSH2 0x339 JUMPI PUSH1 0x0 DUP1 REVERT JUMPDEST DUP1 PUSH4 0x43046844 EQ PUSH2 0x2A7 JUMPI DUP1 PUSH4 0x508BA0BD EQ PUSH2 0x2BA JUMPI DUP1 PUSH4 0x587F5ED7 EQ PUSH2 0x2DA JUMPI PUSH1 0x0 DUP1 REVERT JUMPDEST DUP1 PUSH4 0x231B0268 GT PUSH2 0x15E JUMPI DUP1 PUSH4 0x231B0268 EQ PUSH2 0x223 JUMPI DUP1 PUSH4 0x2FF284C2 EQ PUSH2 0x265 JUMPI DUP1 PUSH4 0x40B8405A EQ PUSH2 0x285 JUMPI PUSH1 0x0 DUP1 REVERT JUMPDEST DUP1 PUSH4 0xEFF4D88 EQ PUSH2 0x17A JUMPI DUP1 PUSH4 0x1BB5ABF9 EQ PUSH2 0x1F1 JUMPI JUMPDEST PUSH1 0x0 DUP1 REVERT JUMPDEST CALLVALUE DUP1 ISZERO PUSH2 0x186 JUMPI PUSH1 0x0 DUP1 REVERT JUMPDEST POP PUSH2 0x1D7 PUSH2 0x195 CALLDATASIZE PUSH1 0x4 PUSH2 0x1369 JUMP JUMPDEST PUSH1 0x0 SWAP1 DUP2 MSTORE PUSH1 0x1 PUSH1 0x20 SWAP1 DUP2 MSTORE PUSH1 0x40 SWAP2 DUP3 SWAP1 KECCAK256 DUP3 MLOAD DUP1 DUP5 ADD SWAP1 SWAP4 MSTORE SLOAD PUSH8 0xFFFFFFFFFFFFFFFF DUP1 DUP3 AND DUP1 DUP6 MSTORE PUSH9 0x10000000000000000 SWAP1 SWAP3 DIV AND SWAP3 SWAP1 SWAP2 ADD DUP3 SWAP1 MSTORE SWAP2 JUMP JUMPDEST PUSH1 0x40 DUP1 MLOAD SWAP3 DUP4 MSTORE PUSH1 0x20 DUP4 ADD SWAP2 SWAP1 SWAP2 MSTORE ADD JUMPDEST PUSH1 0x40 MLOAD DUP1 SWAP2 SUB SWAP1 RETURN JUMPDEST CALLVALUE DUP1 ISZERO PUSH2 0x1FD JUMPI PUSH1 0x0 DUP1 REVERT JUMPDEST POP PUSH2 0x211 PUSH2 0x20C CALLDATASIZE PUSH1 0x4 PUSH2 0x1382 JUMP JUMPDEST PUSH2 0x5AB JUMP JUMPDEST PUSH1 0x40 MLOAD PUSH1 0xFF SWAP1 SWAP2 AND DUP2 MSTORE PUSH1 0x20 ADD PUSH2 0x1E8 JUMP JUMPDEST CALLVALUE DUP1 ISZERO PUSH2 0x22F JUMPI PUSH1 0x0 DUP1 REVERT JUMPDEST POP PUSH2 0x257 PUSH32 0x0 DUP2 JUMP JUMPDEST PUSH1 0x40 MLOAD SWAP1 DUP2 MSTORE PUSH1 0x20 ADD PUSH2 0x1E8 JUMP JUMPDEST CALLVALUE DUP1 ISZERO PUSH2 0x271 JUMPI PUSH1 0x0 DUP1 REVERT JUMPDEST POP PUSH2 0x257 PUSH2 0x280 CALLDATASIZE PUSH1 0x4 PUSH2 0x1382 JUMP JUMPDEST PUSH2 0x5D7 JUMP JUMPDEST CALLVALUE DUP1 ISZERO PUSH2 0x291 JUMPI PUSH1 0x0 DUP1 REVERT JUMPDEST POP PUSH2 0x2A5 PUSH2 0x2A0 CALLDATASIZE PUSH1 0x4 PUSH2 0x13C0 JUMP JUMPDEST PUSH2 0x5F6 JUMP JUMPDEST STOP JUMPDEST PUSH2 0x2A5 PUSH2 0x2B5 CALLDATASIZE PUSH1 0x4 PUSH2 0x13EC JUMP JUMPDEST PUSH2 0x97E JUMP JUMPDEST CALLVALUE DUP1 ISZERO PUSH2 0x2C6 JUMPI PUSH1 0x0 DUP1 REVERT JUMPDEST POP PUSH2 0x257 PUSH2 0x2D5 CALLDATASIZE PUSH1 0x4 PUSH2 0x1407 JUMP JUMPDEST PUSH2 0xCD6 JUMP JUMPDEST CALLVALUE DUP1 ISZERO PUSH2 0x2E6 JUMPI PUSH1 0x0 DUP1 REVERT JUMPDEST POP PUSH2 0x257 PUSH1 0x2 SLOAD DUP2 JUMP JUMPDEST CALLVALUE DUP1 ISZERO PUSH2 0x2FC JUMPI PUSH1 0x0 DUP1 REVERT JUMPDEST POP PUSH2 0x257 PUSH32 0x0 DUP2 JUMP JUMPDEST CALLVALUE DUP1 ISZERO PUSH2 0x330 JUMPI PUSH1 0x0 DUP1 REVERT JUMPDEST POP PUSH2 0x2A5 PUSH2 0xD00 JUMP JUMPDEST CALLVALUE DUP1 ISZERO PUSH2 0x345 JUMPI PUSH1 0x0 DUP1 REVERT JUMPDEST POP PUSH2 0x257 PUSH32 0x0 DUP2 JUMP JUMPDEST CALLVALUE DUP1 ISZERO PUSH2 0x379 JUMPI PUSH1 0x0 DUP1 REVERT JUMPDEST POP PUSH2 0x257 PUSH2 0x388 CALLDATASIZE PUSH1 0x4 PUSH2 0x1407 JUMP JUMPDEST PUSH2 0xDBB JUMP JUMPDEST CALLVALUE DUP1 ISZERO PUSH2 0x399 JUMPI PUSH1 0x0 DUP1 REVERT JUMPDEST POP PUSH2 0x257 PUSH2 0x3A8 CALLDATASIZE PUSH1 0x4 PUSH2 0x13C0 JUMP JUMPDEST PUSH1 0x1 PUSH1 0x1 PUSH1 0xA0 SHL SUB AND PUSH1 0x0 SWAP1 DUP2 MSTORE PUSH1 0x4 PUSH1 0x20 MSTORE PUSH1 0x40 SWAP1 KECCAK256 PUSH1 0x1 ADD SLOAD SWAP1 JUMP JUMPDEST CALLVALUE DUP1 ISZERO PUSH2 0x3D2 JUMPI PUSH1 0x0 DUP1 REVERT JUMPDEST POP PUSH2 0x1D7 PUSH2 0x3E1 CALLDATASIZE PUSH1 0x4 PUSH2 0x1433 JUMP JUMPDEST PUSH1 0x1 PUSH1 0x1 PUSH1 0xA0 SHL SUB AND PUSH1 0x0 SWAP1 DUP2 MSTORE PUSH1 0x4 PUSH1 0x20 SWAP1 DUP2 MSTORE PUSH1 0x40 DUP1 DUP4 KECCAK256 SWAP4 DUP4 MSTORE SWAP3 DUP2 MSTORE SWAP1 DUP3 SWAP1 KECCAK256 DUP3 MLOAD DUP1 DUP5 ADD SWAP1 SWAP4 MSTORE SLOAD PUSH8 0xFFFFFFFFFFFFFFFF DUP1 DUP3 AND DUP1 DUP6 MSTORE PUSH9 0x10000000000000000 SWAP1 SWAP3 DIV AND SWAP3 SWAP1 SWAP2 ADD DUP3 SWAP1 MSTORE SWAP2 JUMP JUMPDEST CALLVALUE DUP1 ISZERO PUSH2 0x441 JUMPI PUSH1 0x0 DUP1 REVERT JUMPDEST POP PUSH2 0x47C PUSH2 0x450 CALLDATASIZE PUSH1 0x4 PUSH2 0x1369 JUMP JUMPDEST PUSH1 0x1 PUSH1 0x20 MSTORE PUSH1 0x0 SWAP1 DUP2 MSTORE PUSH1 0x40 SWAP1 KECCAK256 SLOAD PUSH8 0xFFFFFFFFFFFFFFFF DUP1 DUP3 AND SWAP2 PUSH9 0x10000000000000000 SWAP1 DIV AND DUP3 JUMP JUMPDEST PUSH1 0x40 DUP1 MLOAD PUSH8 0xFFFFFFFFFFFFFFFF SWAP4 DUP5 AND DUP2 MSTORE SWAP3 SWAP1 SWAP2 AND PUSH1 0x20 DUP4 ADD MSTORE ADD PUSH2 0x1E8 JUMP JUMPDEST CALLVALUE DUP1 ISZERO PUSH2 0x4A9 JUMPI PUSH1 0x0 DUP1 REVERT JUMPDEST POP PUSH2 0x4BD PUSH2 0x4B8 CALLDATASIZE PUSH1 0x4 PUSH2 0x145F JUMP JUMPDEST PUSH2 0xDDD JUMP JUMPDEST PUSH1 0x40 MLOAD PUSH2 0x1E8 SWAP2 SWAP1 PUSH2 0x14A7 JUMP JUMPDEST CALLVALUE DUP1 ISZERO PUSH2 0x4D6 JUMPI PUSH1 0x0 DUP1 REVERT JUMPDEST POP PUSH2 0x257 PUSH2 0x4E5 CALLDATASIZE PUSH1 0x4 PUSH2 0x14CF JUMP JUMPDEST PUSH2 0xE40 JUMP JUMPDEST CALLVALUE DUP1 ISZERO PUSH2 0x4F6 JUMPI PUSH1 0x0 DUP1 REVERT JUMPDEST POP PUSH2 0x1D7 PUSH2 0x505 CALLDATASIZE PUSH1 0x4 PUSH2 0x14F9 JUMP JUMPDEST PUSH2 0xE80 JUMP JUMPDEST CALLVALUE DUP1 ISZERO PUSH2 0x516 JUMPI PUSH1 0x0 DUP1 REVERT JUMPDEST POP PUSH2 0x257 PUSH2 0x525 CALLDATASIZE PUSH1 0x4 PUSH2 0x145F JUMP JUMPDEST PUSH2 0xF52 JUMP JUMPDEST CALLVALUE DUP1 ISZERO PUSH2 0x536 JUMPI PUSH1 0x0 DUP1 REVERT JUMPDEST POP PUSH2 0x257 PUSH32 0x0 DUP2 JUMP JUMPDEST CALLVALUE DUP1 ISZERO PUSH2 0x56A JUMPI PUSH1 0x0 DUP1 REVERT JUMPDEST POP PUSH2 0x257 PUSH2 0x579 CALLDATASIZE PUSH1 0x4 PUSH2 0x1369 JUMP JUMPDEST PUSH1 0x3 PUSH1 0x20 MSTORE PUSH1 0x0 SWAP1 DUP2 MSTORE PUSH1 0x40 SWAP1 KECCAK256 SLOAD DUP2 JUMP JUMPDEST CALLVALUE DUP1 ISZERO PUSH2 0x597 JUMPI PUSH1 0x0 DUP1 REVERT JUMPDEST POP PUSH2 0x1D7 PUSH2 0x5A6 CALLDATASIZE PUSH1 0x4 PUSH2 0x1369 JUMP JUMPDEST PUSH2 0xF9A JUMP JUMPDEST PUSH1 0x0 DUP3 DUP3 LT ISZERO PUSH2 0x5BD JUMPI POP PUSH1 0x0 PUSH2 0x5D1 JUMP JUMPDEST DUP3 DUP3 GT ISZERO PUSH2 0x5CD JUMPI POP PUSH1 0x1 PUSH2 0x5D1 JUMP JUMPDEST POP PUSH1 0x2 JUMPDEST SWAP3 SWAP2 POP POP JUMP JUMPDEST PUSH1 0x0 PUSH1 0x64 PUSH2 0x5E5 DUP4 DUP6 PUSH2 0x1558 JUMP JUMPDEST PUSH2 0x5EF SWAP2 SWAP1 PUSH2 0x1577 JUMP JUMPDEST SWAP4 SWAP3 POP POP POP JUMP JUMPDEST PUSH1 0x1 PUSH1 0x1 PUSH1 0xA0 SHL SUB DUP2 AND PUSH1 0x0 SWAP1 DUP2 MSTORE PUSH1 0x4 PUSH1 0x20 MSTORE PUSH1 0x40 SWAP1 KECCAK256 PUSH1 0x1 DUP2 ADD SLOAD PUSH2 0x61B JUMPI POP POP JUMP JUMPDEST PUSH1 0x1 DUP2 ADD SLOAD PUSH1 0x0 SWAP1 DUP2 SWAP1 JUMPDEST DUP1 ISZERO PUSH2 0x92E JUMPI PUSH1 0x0 DUP5 PUSH1 0x1 ADD PUSH1 0x1 DUP4 PUSH2 0x63F SWAP2 SWAP1 PUSH2 0x1599 JUMP JUMPDEST DUP2 SLOAD DUP2 LT PUSH2 0x64F JUMPI PUSH2 0x64F PUSH2 0x15B0 JUMP JUMPDEST SWAP1 PUSH1 0x0 MSTORE PUSH1 0x20 PUSH1 0x0 KECCAK256 ADD SLOAD SWAP1 POP PUSH1 0x0 PUSH2 0x6A9 NUMBER PUSH32 0x0 PUSH32 0x0 PUSH2 0xCD6 JUMP JUMPDEST SWAP1 POP PUSH1 0x0 DUP1 PUSH2 0x6B7 DUP5 PUSH2 0xF9A JUMP JUMPDEST SWAP2 POP SWAP2 POP PUSH1 0x0 PUSH2 0x6C9 DUP6 DUP6 DUP6 DUP6 PUSH2 0xDDD JUMP JUMPDEST SWAP1 POP PUSH1 0x0 DUP2 PUSH1 0x3 DUP2 GT ISZERO PUSH2 0x6DF JUMPI PUSH2 0x6DF PUSH2 0x1491 JUMP JUMPDEST EQ DUP1 PUSH2 0x6FC JUMPI POP PUSH1 0x1 DUP2 PUSH1 0x3 DUP2 GT ISZERO PUSH2 0x6FA JUMPI PUSH2 0x6FA PUSH2 0x1491 JUMP JUMPDEST EQ JUMPDEST ISZERO PUSH2 0x70B JUMPI POP POP POP POP POP PUSH2 0x91C JUMP JUMPDEST PUSH1 0x0 PUSH1 0x3 DUP3 PUSH1 0x3 DUP2 GT ISZERO PUSH2 0x721 JUMPI PUSH2 0x721 PUSH2 0x1491 JUMP JUMPDEST EQ ISZERO PUSH2 0x738 JUMPI PUSH2 0x731 DUP5 DUP5 PUSH2 0x5AB JUMP JUMPDEST SWAP1 POP PUSH2 0x756 JUMP JUMPDEST PUSH1 0x2 DUP3 PUSH1 0x3 DUP2 GT ISZERO PUSH2 0x74C JUMPI PUSH2 0x74C PUSH2 0x1491 JUMP JUMPDEST EQ ISZERO PUSH2 0x756 JUMPI POP PUSH1 0x2 JUMPDEST PUSH1 0x1 DUP1 DUP12 ADD DUP1 SLOAD SWAP1 SWAP2 PUSH2 0x768 SWAP2 PUSH2 0x1599 JUMP JUMPDEST DUP2 SLOAD DUP2 LT PUSH2 0x778 JUMPI PUSH2 0x778 PUSH2 0x15B0 JUMP JUMPDEST SWAP1 PUSH1 0x0 MSTORE PUSH1 0x20 PUSH1 0x0 KECCAK256 ADD SLOAD DUP11 PUSH1 0x1 ADD PUSH1 0x1 DUP10 PUSH2 0x794 SWAP2 SWAP1 PUSH2 0x1599 JUMP JUMPDEST DUP2 SLOAD DUP2 LT PUSH2 0x7A4 JUMPI PUSH2 0x7A4 PUSH2 0x15B0 JUMP JUMPDEST PUSH1 0x0 SWAP2 DUP3 MSTORE PUSH1 0x20 SWAP1 SWAP2 KECCAK256 ADD SSTORE PUSH1 0x1 DUP11 ADD DUP1 SLOAD DUP1 PUSH2 0x7C3 JUMPI PUSH2 0x7C3 PUSH2 0x15C6 JUMP JUMPDEST PUSH1 0x0 DUP3 DUP2 MSTORE PUSH1 0x20 DUP1 DUP3 KECCAK256 DUP4 ADD PUSH1 0x0 NOT SWAP1 DUP2 ADD DUP4 SWAP1 SSTORE SWAP1 SWAP3 ADD SWAP1 SWAP3 SSTORE DUP8 DUP3 MSTORE DUP12 DUP2 MSTORE PUSH1 0x40 DUP1 DUP4 KECCAK256 DUP2 MLOAD DUP1 DUP4 ADD DUP4 MSTORE SWAP1 SLOAD PUSH8 0xFFFFFFFFFFFFFFFF DUP1 DUP3 AND DUP4 MSTORE PUSH9 0x10000000000000000 SWAP2 DUP3 SWAP1 DIV DUP2 AND DUP4 DUP7 ADD SWAP1 DUP2 MSTORE DUP13 DUP8 MSTORE PUSH1 0x1 DUP7 MSTORE DUP5 DUP8 KECCAK256 DUP6 MLOAD DUP1 DUP8 ADD SWAP1 SWAP7 MSTORE SLOAD DUP1 DUP4 AND DUP1 DUP8 MSTORE SWAP4 SWAP1 DIV DUP3 AND SWAP6 DUP6 ADD DUP7 SWAP1 MSTORE MLOAD DUP4 MLOAD SWAP4 SWAP7 SWAP5 SWAP6 DUP6 SWAP5 PUSH2 0x853 SWAP5 SWAP3 DUP5 AND SWAP4 AND SWAP2 DUP10 PUSH2 0xE80 JUMP JUMPDEST SWAP1 SWAP3 POP SWAP1 POP PUSH2 0x862 DUP3 DUP15 PUSH2 0x15DC JUMP JUMPDEST SWAP13 POP DUP1 PUSH1 0x2 SLOAD PUSH2 0x872 SWAP2 SWAP1 PUSH2 0x15DC JUMP JUMPDEST PUSH1 0x2 DUP2 SWAP1 SSTORE POP PUSH1 0x0 PUSH2 0x8BE DUP6 PUSH1 0x20 ADD MLOAD PUSH8 0xFFFFFFFFFFFFFFFF AND DUP7 PUSH1 0x0 ADD MLOAD PUSH8 0xFFFFFFFFFFFFFFFF AND DUP7 PUSH1 0x20 ADD MLOAD PUSH8 0xFFFFFFFFFFFFFFFF AND DUP8 PUSH1 0x0 ADD MLOAD PUSH8 0xFFFFFFFFFFFFFFFF AND PUSH2 0xF52 JUMP JUMPDEST SWAP1 POP PUSH2 0x8CA DUP2 DUP15 PUSH2 0x15DC JUMP JUMPDEST SWAP13 POP DUP16 PUSH1 0x1 PUSH1 0x1 PUSH1 0xA0 SHL SUB AND DUP12 PUSH32 0x6F277B50171C654E40C771D9C2BBF19E070EEB21CCE6F8E9A80334564279E395 DUP6 PUSH1 0x40 MLOAD PUSH2 0x908 SWAP2 DUP2 MSTORE PUSH1 0x20 ADD SWAP1 JUMP JUMPDEST PUSH1 0x40 MLOAD DUP1 SWAP2 SUB SWAP1 LOG3 POP POP POP POP POP POP POP POP POP POP POP JUMPDEST DUP1 PUSH2 0x926 DUP2 PUSH2 0x15F4 JUMP JUMPDEST SWAP2 POP POP PUSH2 0x626 JUMP JUMPDEST POP PUSH1 0x40 MLOAD PUSH1 0x1 PUSH1 0x1 PUSH1 0xA0 SHL SUB DUP6 AND SWAP1 DUP4 ISZERO PUSH2 0x8FC MUL SWAP1 DUP5 SWAP1 PUSH1 0x0 DUP2 DUP2 DUP2 DUP6 DUP9 DUP9 CALL SWAP4 POP POP POP POP ISZERO DUP1 ISZERO PUSH2 0x965 JUMPI RETURNDATASIZE PUSH1 0x0 DUP1 RETURNDATACOPY RETURNDATASIZE PUSH1 0x0 REVERT JUMPDEST POP PUSH2 0x970 DUP5 DUP3 PUSH2 0xFE3 JUMP JUMPDEST PUSH2 0x978 PUSH2 0x122C JUMP JUMPDEST POP POP POP POP JUMP JUMPDEST PUSH1 0x0 CALLVALUE GT PUSH2 0x9EC JUMPI PUSH1 0x40 MLOAD PUSH32 0x8C379A000000000000000000000000000000000000000000000000000000000 DUP2 MSTORE PUSH1 0x20 PUSH1 0x4 DUP3 ADD MSTORE PUSH1 0x1D PUSH1 0x24 DUP3 ADD MSTORE PUSH32 0x4F6E6C79207374726963746C7920706F7369746976652076616C756573000000 PUSH1 0x44 DUP3 ADD MSTORE PUSH1 0x64 ADD PUSH1 0x40 MLOAD DUP1 SWAP2 SUB SWAP1 REVERT JUMPDEST PUSH2 0x9F4 PUSH2 0xD00 JUMP JUMPDEST PUSH2 0x9FD CALLER PUSH2 0x5F6 JUMP JUMPDEST PUSH1 0x0 PUSH2 0xA29 CALLVALUE PUSH32 0x0 PUSH2 0x5D7 JUMP JUMPDEST SWAP1 POP DUP1 PUSH1 0x2 SLOAD PUSH2 0xA39 SWAP2 SWAP1 PUSH2 0x15DC JUMP JUMPDEST PUSH1 0x2 SSTORE PUSH1 0x0 PUSH2 0xA48 DUP3 CALLVALUE PUSH2 0x1599 JUMP JUMPDEST SWAP1 POP PUSH1 0x0 PUSH2 0xA97 NUMBER PUSH32 0x0 PUSH32 0x0 PUSH2 0xCD6 JUMP JUMPDEST CALLER PUSH1 0x0 SWAP1 DUP2 MSTORE PUSH1 0x4 PUSH1 0x20 MSTORE PUSH1 0x40 SWAP1 KECCAK256 PUSH1 0x1 DUP2 ADD SLOAD SWAP2 SWAP3 POP SWAP1 ISZERO DUP1 PUSH2 0xAE7 JUMPI POP PUSH1 0x1 DUP1 DUP3 ADD DUP1 SLOAD SWAP1 SWAP2 PUSH2 0xAC8 SWAP2 PUSH2 0x1599 JUMP JUMPDEST DUP2 SLOAD DUP2 LT PUSH2 0xAD8 JUMPI PUSH2 0xAD8 PUSH2 0x15B0 JUMP JUMPDEST SWAP1 PUSH1 0x0 MSTORE PUSH1 0x20 PUSH1 0x0 KECCAK256 ADD SLOAD DUP3 EQ ISZERO JUMPDEST ISZERO PUSH2 0xB06 JUMPI PUSH1 0x1 DUP1 DUP3 ADD DUP1 SLOAD SWAP2 DUP3 ADD DUP2 SSTORE PUSH1 0x0 SWAP1 DUP2 MSTORE PUSH1 0x20 SWAP1 KECCAK256 ADD DUP3 SWAP1 SSTORE JUMPDEST PUSH1 0x1 DUP6 PUSH1 0xFF AND PUSH1 0x1 DUP2 GT ISZERO PUSH2 0xB1D JUMPI PUSH2 0xB1D PUSH2 0x1491 JUMP JUMPDEST PUSH1 0x1 DUP2 GT ISZERO PUSH2 0xB2E JUMPI PUSH2 0xB2E PUSH2 0x1491 JUMP JUMPDEST EQ ISZERO PUSH2 0xBF5 JUMPI PUSH1 0x0 DUP3 DUP2 MSTORE PUSH1 0x20 DUP3 SWAP1 MSTORE PUSH1 0x40 SWAP1 KECCAK256 DUP1 SLOAD DUP5 SWAP2 SWAP1 PUSH1 0x8 SWAP1 PUSH2 0xB6B SWAP1 DUP5 SWAP1 PUSH9 0x10000000000000000 SWAP1 DIV PUSH8 0xFFFFFFFFFFFFFFFF AND PUSH2 0x160B JUMP JUMPDEST SWAP3 POP PUSH2 0x100 EXP DUP2 SLOAD DUP2 PUSH8 0xFFFFFFFFFFFFFFFF MUL NOT AND SWAP1 DUP4 PUSH8 0xFFFFFFFFFFFFFFFF AND MUL OR SWAP1 SSTORE POP DUP3 PUSH1 0x1 PUSH1 0x0 DUP5 DUP2 MSTORE PUSH1 0x20 ADD SWAP1 DUP2 MSTORE PUSH1 0x20 ADD PUSH1 0x0 KECCAK256 PUSH1 0x0 ADD PUSH1 0x8 DUP3 DUP3 DUP3 SWAP1 SLOAD SWAP1 PUSH2 0x100 EXP SWAP1 DIV PUSH8 0xFFFFFFFFFFFFFFFF AND PUSH2 0xBCA SWAP2 SWAP1 PUSH2 0x160B JUMP JUMPDEST SWAP3 POP PUSH2 0x100 EXP DUP2 SLOAD DUP2 PUSH8 0xFFFFFFFFFFFFFFFF MUL NOT AND SWAP1 DUP4 PUSH8 0xFFFFFFFFFFFFFFFF AND MUL OR SWAP1 SSTORE POP PUSH2 0xC86 JUMP JUMPDEST PUSH1 0x0 DUP3 DUP2 MSTORE PUSH1 0x20 DUP3 SWAP1 MSTORE PUSH1 0x40 DUP2 KECCAK256 DUP1 SLOAD DUP6 SWAP3 SWAP1 PUSH2 0xC1D SWAP1 DUP5 SWAP1 PUSH8 0xFFFFFFFFFFFFFFFF AND PUSH2 0x160B JUMP JUMPDEST DUP3 SLOAD PUSH2 0x100 SWAP3 SWAP1 SWAP3 EXP PUSH8 0xFFFFFFFFFFFFFFFF DUP2 DUP2 MUL NOT SWAP1 SWAP4 AND SWAP2 DUP4 AND MUL OR SWAP1 SWAP2 SSTORE PUSH1 0x0 DUP5 DUP2 MSTORE PUSH1 0x1 PUSH1 0x20 MSTORE PUSH1 0x40 DUP2 KECCAK256 DUP1 SLOAD DUP8 SWAP5 POP SWAP1 SWAP3 PUSH2 0xC5F SWAP2 DUP6 SWAP2 AND PUSH2 0x160B JUMP JUMPDEST SWAP3 POP PUSH2 0x100 EXP DUP2 SLOAD DUP2 PUSH8 0xFFFFFFFFFFFFFFFF MUL NOT AND SWAP1 DUP4 PUSH8 0xFFFFFFFFFFFFFFFF AND MUL OR SWAP1 SSTORE POP JUMPDEST PUSH1 0x40 DUP1 MLOAD PUSH8 0xFFFFFFFFFFFFFFFF DUP6 AND DUP2 MSTORE PUSH1 0xFF DUP8 AND PUSH1 0x20 DUP3 ADD MSTORE DUP4 SWAP2 CALLER SWAP2 PUSH32 0x85FF162F60A0EAB11E1E0D3D9CFA18A46D7038A29751AF4130DBAEEADBD37ED4 SWAP2 ADD PUSH1 0x40 MLOAD DUP1 SWAP2 SUB SWAP1 LOG3 POP POP POP POP POP JUMP JUMPDEST PUSH1 0x0 DUP3 PUSH2 0xCE3 DUP4 DUP7 PUSH2 0x1599 JUMP JUMPDEST PUSH2 0xCED SWAP2 SWAP1 PUSH2 0x1577 JUMP JUMPDEST PUSH2 0xCF8 SWAP1 PUSH1 0x1 PUSH2 0x15DC JUMP JUMPDEST SWAP5 SWAP4 POP POP POP POP JUMP JUMPDEST PUSH1 0x0 PUSH2 0xD4D NUMBER PUSH32 0x0 PUSH32 0x0 PUSH2 0xCD6 JUMP JUMPDEST PUSH1 0x0 DUP2 DUP2 MSTORE PUSH1 0x3 PUSH1 0x20 MSTORE PUSH1 0x40 SWAP1 KECCAK256 SLOAD SWAP1 SWAP2 POP PUSH2 0xDB8 JUMPI PUSH2 0xD6B PUSH2 0x12B1 JUMP JUMPDEST PUSH1 0x0 DUP3 DUP2 MSTORE PUSH1 0x3 PUSH1 0x20 MSTORE PUSH1 0x40 SWAP1 DUP2 SWAP1 KECCAK256 DUP3 SWAP1 SSTORE MLOAD DUP3 SWAP2 PUSH32 0x945C1C4E99AA89F648FBFE3DF471B916F719E16D960FCEC0737D4D56BD696838 SWAP2 PUSH2 0xDAF SWAP2 DUP2 MSTORE PUSH1 0x20 ADD SWAP1 JUMP JUMPDEST PUSH1 0x40 MLOAD DUP1 SWAP2 SUB SWAP1 LOG2 JUMPDEST POP JUMP JUMPDEST PUSH1 0x0 DUP3 PUSH2 0xDC9 PUSH1 0x1 DUP7 PUSH2 0x1599 JUMP JUMPDEST PUSH2 0xDD3 SWAP2 SWAP1 PUSH2 0x1558 JUMP JUMPDEST PUSH2 0xCF8 SWAP1 DUP4 PUSH2 0x15DC JUMP JUMPDEST PUSH1 0x0 PUSH2 0xDEA DUP6 PUSH1 0x2 PUSH2 0x15DC JUMP JUMPDEST DUP5 LT ISZERO PUSH2 0xDF9 JUMPI POP PUSH1 0x0 PUSH2 0xCF8 JUMP JUMPDEST PUSH2 0xE04 DUP6 PUSH1 0x3 PUSH2 0x15DC JUMP JUMPDEST DUP5 LT DUP1 ISZERO PUSH2 0xE10 JUMPI POP DUP2 ISZERO JUMPDEST ISZERO PUSH2 0xE1D JUMPI POP PUSH1 0x1 PUSH2 0xCF8 JUMP JUMPDEST DUP3 ISZERO DUP1 PUSH2 0xE28 JUMPI POP DUP2 ISZERO JUMPDEST ISZERO PUSH2 0xE35 JUMPI POP PUSH1 0x2 PUSH2 0xCF8 JUMP JUMPDEST POP PUSH1 0x3 SWAP5 SWAP4 POP POP POP POP JUMP JUMPDEST PUSH1 0x1 PUSH1 0x1 PUSH1 0xA0 SHL SUB DUP3 AND PUSH1 0x0 SWAP1 DUP2 MSTORE PUSH1 0x4 PUSH1 0x20 MSTORE PUSH1 0x40 DUP2 KECCAK256 PUSH1 0x1 ADD DUP1 SLOAD DUP4 SWAP1 DUP2 LT PUSH2 0xE6D JUMPI PUSH2 0xE6D PUSH2 0x15B0 JUMP JUMPDEST SWAP1 PUSH1 0x0 MSTORE PUSH1 0x20 PUSH1 0x0 KECCAK256 ADD SLOAD SWAP1 POP SWAP3 SWAP2 POP POP JUMP JUMPDEST PUSH1 0x0 DUP1 PUSH1 0x0 DUP4 PUSH1 0xFF AND PUSH1 0x2 DUP2 GT ISZERO PUSH2 0xE9A JUMPI PUSH2 0xE9A PUSH2 0x1491 JUMP JUMPDEST SWAP1 POP PUSH1 0x0 PUSH2 0xEA8 DUP7 DUP9 PUSH2 0x15DC JUMP JUMPDEST SWAP1 POP PUSH1 0x1 DUP3 PUSH1 0x2 DUP2 GT ISZERO PUSH2 0xEBE JUMPI PUSH2 0xEBE PUSH2 0x1491 JUMP JUMPDEST EQ DUP1 ISZERO PUSH2 0xECA JUMPI POP DUP7 ISZERO ISZERO JUMPDEST ISZERO PUSH2 0xEE1 JUMPI PUSH2 0xEDA DUP2 DUP11 DUP10 PUSH2 0x1352 JUMP JUMPDEST SWAP4 POP PUSH2 0xF46 JUMP JUMPDEST PUSH1 0x0 DUP3 PUSH1 0x2 DUP2 GT ISZERO PUSH2 0xEF5 JUMPI PUSH2 0xEF5 PUSH2 0x1491 JUMP JUMPDEST EQ DUP1 ISZERO PUSH2 0xF01 JUMPI POP DUP6 ISZERO ISZERO JUMPDEST ISZERO PUSH2 0xF11 JUMPI PUSH2 0xEDA DUP2 DUP10 DUP9 PUSH2 0x1352 JUMP JUMPDEST PUSH1 0x2 DUP3 PUSH1 0x2 DUP2 GT ISZERO PUSH2 0xF25 JUMPI PUSH2 0xF25 PUSH2 0x1491 JUMP JUMPDEST EQ ISZERO PUSH2 0xF35 JUMPI PUSH2 0xEDA DUP9 DUP11 PUSH2 0x15DC JUMP JUMPDEST PUSH1 0x0 SWAP4 POP PUSH2 0xF43 DUP9 DUP11 PUSH2 0x15DC JUMP JUMPDEST SWAP3 POP JUMPDEST POP POP SWAP6 POP SWAP6 SWAP4 POP POP POP POP JUMP JUMPDEST PUSH1 0x0 PUSH2 0xF91 PUSH32 0x0 PUSH2 0xF82 DUP7 DUP9 PUSH2 0x15DC JUMP JUMPDEST PUSH2 0xF8C DUP6 DUP8 PUSH2 0x15DC JUMP JUMPDEST PUSH2 0x1352 JUMP JUMPDEST SWAP6 SWAP5 POP POP POP POP POP JUMP JUMPDEST PUSH1 0x0 DUP1 PUSH1 0x3 DUP2 PUSH2 0xFAB DUP6 PUSH1 0x1 PUSH2 0x15DC JUMP JUMPDEST DUP2 MSTORE PUSH1 0x20 ADD SWAP1 DUP2 MSTORE PUSH1 0x20 ADD PUSH1 0x0 KECCAK256 SLOAD PUSH1 0x3 PUSH1 0x0 DUP6 PUSH1 0x2 PUSH2 0xFCB SWAP2 SWAP1 PUSH2 0x15DC JUMP JUMPDEST DUP2 MSTORE PUSH1 0x20 ADD SWAP1 DUP2 MSTORE PUSH1 0x20 ADD PUSH1 0x0 KECCAK256 SLOAD SWAP2 POP SWAP2 POP SWAP2 POP SWAP2 JUMP JUMPDEST PUSH1 0x40 MLOAD PUSH4 0x70A08231 PUSH1 0xE0 SHL DUP2 MSTORE ADDRESS PUSH1 0x4 DUP3 ADD MSTORE DUP2 SWAP1 PUSH32 0x0 PUSH1 0x1 PUSH1 0x1 PUSH1 0xA0 SHL SUB AND SWAP1 PUSH4 0x70A08231 SWAP1 PUSH1 0x24 ADD PUSH1 0x20 PUSH1 0x40 MLOAD DUP1 DUP4 SUB DUP2 DUP7 DUP1 EXTCODESIZE ISZERO DUP1 ISZERO PUSH2 0x1044 JUMPI PUSH1 0x0 DUP1 REVERT JUMPDEST POP GAS STATICCALL ISZERO DUP1 ISZERO PUSH2 0x1058 JUMPI RETURNDATASIZE PUSH1 0x0 DUP1 RETURNDATACOPY RETURNDATASIZE PUSH1 0x0 REVERT JUMPDEST POP POP POP POP PUSH1 0x40 MLOAD RETURNDATASIZE PUSH1 0x1F NOT PUSH1 0x1F DUP3 ADD AND DUP3 ADD DUP1 PUSH1 0x40 MSTORE POP DUP2 ADD SWAP1 PUSH2 0x107C SWAP2 SWAP1 PUSH2 0x1637 JUMP JUMPDEST LT PUSH2 0x1142 JUMPI PUSH1 0x40 MLOAD PUSH32 0xA9059CBB00000000000000000000000000000000000000000000000000000000 DUP2 MSTORE PUSH1 0x1 PUSH1 0x1 PUSH1 0xA0 SHL SUB DUP4 DUP2 AND PUSH1 0x4 DUP4 ADD MSTORE PUSH1 0x24 DUP3 ADD DUP4 SWAP1 MSTORE PUSH32 0x0 AND SWAP1 PUSH4 0xA9059CBB SWAP1 PUSH1 0x44 ADD JUMPDEST PUSH1 0x20 PUSH1 0x40 MLOAD DUP1 DUP4 SUB DUP2 PUSH1 0x0 DUP8 DUP1 EXTCODESIZE ISZERO DUP1 ISZERO PUSH2 0x1105 JUMPI PUSH1 0x0 DUP1 REVERT JUMPDEST POP GAS CALL ISZERO DUP1 ISZERO PUSH2 0x1119 JUMPI RETURNDATASIZE PUSH1 0x0 DUP1 RETURNDATACOPY RETURNDATASIZE PUSH1 0x0 REVERT JUMPDEST POP POP POP POP PUSH1 0x40 MLOAD RETURNDATASIZE PUSH1 0x1F NOT PUSH1 0x1F DUP3 ADD AND DUP3 ADD DUP1 PUSH1 0x40 MSTORE POP DUP2 ADD SWAP1 PUSH2 0x113D SWAP2 SWAP1 PUSH2 0x1650 JUMP JUMPDEST POP POP POP JUMP JUMPDEST PUSH1 0x40 MLOAD PUSH4 0x70A08231 PUSH1 0xE0 SHL DUP2 MSTORE ADDRESS PUSH1 0x4 DUP3 ADD MSTORE PUSH32 0x0 PUSH1 0x1 PUSH1 0x1 PUSH1 0xA0 SHL SUB AND SWAP1 PUSH4 0xA9059CBB SWAP1 DUP5 SWAP1 DUP4 SWAP1 PUSH4 0x70A08231 SWAP1 PUSH1 0x24 ADD PUSH1 0x20 PUSH1 0x40 MLOAD DUP1 DUP4 SUB DUP2 DUP7 DUP1 EXTCODESIZE ISZERO DUP1 ISZERO PUSH2 0x11AB JUMPI PUSH1 0x0 DUP1 REVERT JUMPDEST POP GAS STATICCALL ISZERO DUP1 ISZERO PUSH2 0x11BF JUMPI RETURNDATASIZE PUSH1 0x0 DUP1 RETURNDATACOPY RETURNDATASIZE PUSH1 0x0 REVERT JUMPDEST POP POP POP POP PUSH1 0x40 MLOAD RETURNDATASIZE PUSH1 0x1F NOT PUSH1 0x1F DUP3 ADD AND DUP3 ADD DUP1 PUSH1 0x40 MSTORE POP DUP2 ADD SWAP1 PUSH2 0x11E3 SWAP2 SWAP1 PUSH2 0x1637 JUMP JUMPDEST PUSH1 0x40 MLOAD PUSH32 0xFFFFFFFF00000000000000000000000000000000000000000000000000000000 PUSH1 0xE0 DUP6 SWAP1 SHL AND DUP2 MSTORE PUSH1 0x1 PUSH1 0x1 PUSH1 0xA0 SHL SUB SWAP1 SWAP3 AND PUSH1 0x4 DUP4 ADD MSTORE PUSH1 0x24 DUP3 ADD MSTORE PUSH1 0x44 ADD PUSH2 0x10EB JUMP JUMPDEST PUSH1 0x2 SLOAD ISZERO PUSH2 0x12AF JUMPI PUSH32 0x0 PUSH1 0x1 PUSH1 0x1 PUSH1 0xA0 SHL SUB AND PUSH3 0x5C33E1 PUSH1 0x2 SLOAD PUSH1 0x40 MLOAD DUP3 PUSH4 0xFFFFFFFF AND PUSH1 0xE0 SHL DUP2 MSTORE PUSH1 0x4 ADD PUSH1 0x0 PUSH1 0x40 MLOAD DUP1 DUP4 SUB DUP2 DUP6 DUP9 DUP1 EXTCODESIZE ISZERO DUP1 ISZERO PUSH2 0x1290 JUMPI PUSH1 0x0 DUP1 REVERT JUMPDEST POP GAS CALL ISZERO DUP1 ISZERO PUSH2 0x12A4 JUMPI RETURNDATASIZE PUSH1 0x0 DUP1 RETURNDATACOPY RETURNDATASIZE PUSH1 0x0 REVERT JUMPDEST POP POP PUSH1 0x0 PUSH1 0x2 SSTORE POP POP POP JUMPDEST JUMP JUMPDEST PUSH1 0x0 DUP1 SLOAD PUSH1 0x40 DUP1 MLOAD PUSH32 0xFEAF968C00000000000000000000000000000000000000000000000000000000 DUP2 MSTORE SWAP1 MLOAD DUP4 SWAP3 PUSH1 0x1 PUSH1 0x1 PUSH1 0xA0 SHL SUB AND SWAP2 PUSH4 0xFEAF968C SWAP2 PUSH1 0x4 DUP1 DUP4 ADD SWAP3 PUSH1 0xA0 SWAP3 SWAP2 SWAP1 DUP3 SWAP1 SUB ADD DUP2 DUP7 DUP1 EXTCODESIZE ISZERO DUP1 ISZERO PUSH2 0x130F JUMPI PUSH1 0x0 DUP1 REVERT JUMPDEST POP GAS STATICCALL ISZERO DUP1 ISZERO PUSH2 0x1323 JUMPI RETURNDATASIZE PUSH1 0x0 DUP1 RETURNDATACOPY RETURNDATASIZE PUSH1 0x0 REVERT JUMPDEST POP POP POP POP PUSH1 0x40 MLOAD RETURNDATASIZE PUSH1 0x1F NOT PUSH1 0x1F DUP3 ADD AND DUP3 ADD DUP1 PUSH1 0x40 MSTORE POP DUP2 ADD SWAP1 PUSH2 0x1347 SWAP2 SWAP1 PUSH2 0x168C JUMP JUMPDEST POP SWAP2 SWAP6 SWAP5 POP POP POP POP POP JUMP JUMPDEST PUSH1 0x0 DUP2 PUSH2 0x135F DUP6 DUP6 PUSH2 0x1558 JUMP JUMPDEST PUSH2 0xCF8 SWAP2 SWAP1 PUSH2 0x1577 JUMP JUMPDEST PUSH1 0x0 PUSH1 0x20 DUP3 DUP5 SUB SLT ISZERO PUSH2 0x137B JUMPI PUSH1 0x0 DUP1 REVERT JUMPDEST POP CALLDATALOAD SWAP2 SWAP1 POP JUMP JUMPDEST PUSH1 0x0 DUP1 PUSH1 0x40 DUP4 DUP6 SUB SLT ISZERO PUSH2 0x1395 JUMPI PUSH1 0x0 DUP1 REVERT JUMPDEST POP POP DUP1 CALLDATALOAD SWAP3 PUSH1 0x20 SWAP1 SWAP2 ADD CALLDATALOAD SWAP2 POP JUMP JUMPDEST DUP1 CALLDATALOAD PUSH1 0x1 PUSH1 0x1 PUSH1 0xA0 SHL SUB DUP2 AND DUP2 EQ PUSH2 0x13BB JUMPI PUSH1 0x0 DUP1 REVERT JUMPDEST SWAP2 SWAP1 POP JUMP JUMPDEST PUSH1 0x0 PUSH1 0x20 DUP3 DUP5 SUB SLT ISZERO PUSH2 0x13D2 JUMPI PUSH1 0x0 DUP1 REVERT JUMPDEST PUSH2 0x5EF DUP3 PUSH2 0x13A4 JUMP JUMPDEST DUP1 CALLDATALOAD PUSH1 0xFF DUP2 AND DUP2 EQ PUSH2 0x13BB JUMPI PUSH1 0x0 DUP1 REVERT JUMPDEST PUSH1 0x0 PUSH1 0x20 DUP3 DUP5 SUB SLT ISZERO PUSH2 0x13FE JUMPI PUSH1 0x0 DUP1 REVERT JUMPDEST PUSH2 0x5EF DUP3 PUSH2 0x13DB JUMP JUMPDEST PUSH1 0x0 DUP1 PUSH1 0x0 PUSH1 0x60 DUP5 DUP7 SUB SLT ISZERO PUSH2 0x141C JUMPI PUSH1 0x0 DUP1 REVERT JUMPDEST POP POP DUP2 CALLDATALOAD SWAP4 PUSH1 0x20 DUP4 ADD CALLDATALOAD SWAP4 POP PUSH1 0x40 SWAP1 SWAP3 ADD CALLDATALOAD SWAP2 SWAP1 POP JUMP JUMPDEST PUSH1 0x0 DUP1 PUSH1 0x40 DUP4 DUP6 SUB SLT ISZERO PUSH2 0x1446 JUMPI PUSH1 0x0 DUP1 REVERT JUMPDEST DUP3 CALLDATALOAD SWAP2 POP PUSH2 0x1456 PUSH1 0x20 DUP5 ADD PUSH2 0x13A4 JUMP JUMPDEST SWAP1 POP SWAP3 POP SWAP3 SWAP1 POP JUMP JUMPDEST PUSH1 0x0 DUP1 PUSH1 0x0 DUP1 PUSH1 0x80 DUP6 DUP8 SUB SLT ISZERO PUSH2 0x1475 JUMPI PUSH1 0x0 DUP1 REVERT JUMPDEST POP POP DUP3 CALLDATALOAD SWAP5 PUSH1 0x20 DUP5 ADD CALLDATALOAD SWAP5 POP PUSH1 0x40 DUP5 ADD CALLDATALOAD SWAP4 PUSH1 0x60 ADD CALLDATALOAD SWAP3 POP SWAP1 POP JUMP JUMPDEST PUSH4 0x4E487B71 PUSH1 0xE0 SHL PUSH1 0x0 MSTORE PUSH1 0x21 PUSH1 0x4 MSTORE PUSH1 0x24 PUSH1 0x0 REVERT JUMPDEST PUSH1 0x20 DUP2 ADD PUSH1 0x4 DUP4 LT PUSH2 0x14C9 JUMPI PUSH4 0x4E487B71 PUSH1 0xE0 SHL PUSH1 0x0 MSTORE PUSH1 0x21 PUSH1 0x4 MSTORE PUSH1 0x24 PUSH1 0x0 REVERT JUMPDEST SWAP2 SWAP1 MSTORE SWAP1 JUMP JUMPDEST PUSH1 0x0 DUP1 PUSH1 0x40 DUP4 DUP6 SUB SLT ISZERO PUSH2 0x14E2 JUMPI PUSH1 0x0 DUP1 REVERT JUMPDEST PUSH2 0x14EB DUP4 PUSH2 0x13A4 JUMP JUMPDEST SWAP5 PUSH1 0x20 SWAP4 SWAP1 SWAP4 ADD CALLDATALOAD SWAP4 POP POP POP JUMP JUMPDEST PUSH1 0x0 DUP1 PUSH1 0x0 DUP1 PUSH1 0x0 PUSH1 0xA0 DUP7 DUP9 SUB SLT ISZERO PUSH2 0x1511 JUMPI PUSH1 0x0 DUP1 REVERT JUMPDEST DUP6 CALLDATALOAD SWAP5 POP PUSH1 0x20 DUP7 ADD CALLDATALOAD SWAP4 POP PUSH1 0x40 DUP7 ADD CALLDATALOAD SWAP3 POP PUSH1 0x60 DUP7 ADD CALLDATALOAD SWAP2 POP PUSH2 0x1536 PUSH1 0x80 DUP8 ADD PUSH2 0x13DB JUMP JUMPDEST SWAP1 POP SWAP3 SWAP6 POP SWAP3 SWAP6 SWAP1 SWAP4 POP JUMP JUMPDEST PUSH4 0x4E487B71 PUSH1 0xE0 SHL PUSH1 0x0 MSTORE PUSH1 0x11 PUSH1 0x4 MSTORE PUSH1 0x24 PUSH1 0x0 REVERT JUMPDEST PUSH1 0x0 DUP2 PUSH1 0x0 NOT DIV DUP4 GT DUP3 ISZERO ISZERO AND ISZERO PUSH2 0x1572 JUMPI PUSH2 0x1572 PUSH2 0x1542 JUMP JUMPDEST POP MUL SWAP1 JUMP JUMPDEST PUSH1 0x0 DUP3 PUSH2 0x1594 JUMPI PUSH4 0x4E487B71 PUSH1 0xE0 SHL PUSH1 0x0 MSTORE PUSH1 0x12 PUSH1 0x4 MSTORE PUSH1 0x24 PUSH1 0x0 REVERT JUMPDEST POP DIV SWAP1 JUMP JUMPDEST PUSH1 0x0 DUP3 DUP3 LT ISZERO PUSH2 0x15AB JUMPI PUSH2 0x15AB PUSH2 0x1542 JUMP JUMPDEST POP SUB SWAP1 JUMP JUMPDEST PUSH4 0x4E487B71 PUSH1 0xE0 SHL PUSH1 0x0 MSTORE PUSH1 0x32 PUSH1 0x4 MSTORE PUSH1 0x24 PUSH1 0x0 REVERT JUMPDEST PUSH4 0x4E487B71 PUSH1 0xE0 SHL PUSH1 0x0 MSTORE PUSH1 0x31 PUSH1 0x4 MSTORE PUSH1 0x24 PUSH1 0x0 REVERT JUMPDEST PUSH1 0x0 DUP3 NOT DUP3 GT ISZERO PUSH2 0x15EF JUMPI PUSH2 0x15EF PUSH2 0x1542 JUMP JUMPDEST POP ADD SWAP1 JUMP JUMPDEST PUSH1 0x0 DUP2 PUSH2 0x1603 JUMPI PUSH2 0x1603 PUSH2 0x1542 JUMP JUMPDEST POP PUSH1 0x0 NOT ADD SWAP1 JUMP JUMPDEST PUSH1 0x0 PUSH8 0xFFFFFFFFFFFFFFFF DUP1 DUP4 AND DUP2 DUP6 AND DUP1 DUP4 SUB DUP3 GT ISZERO PUSH2 0x162E JUMPI PUSH2 0x162E PUSH2 0x1542 JUMP JUMPDEST ADD SWAP5 SWAP4 POP POP POP POP JUMP JUMPDEST PUSH1 0x0 PUSH1 0x20 DUP3 DUP5 SUB SLT ISZERO PUSH2 0x1649 JUMPI PUSH1 0x0 DUP1 REVERT JUMPDEST POP MLOAD SWAP2 SWAP1 POP JUMP JUMPDEST PUSH1 0x0 PUSH1 0x20 DUP3 DUP5 SUB SLT ISZERO PUSH2 0x1662 JUMPI PUSH1 0x0 DUP1 REVERT JUMPDEST DUP2 MLOAD DUP1 ISZERO ISZERO DUP2 EQ PUSH2 0x5EF JUMPI PUSH1 0x0 DUP1 REVERT JUMPDEST DUP1 MLOAD PUSH10 0xFFFFFFFFFFFFFFFFFFFF DUP2 AND DUP2 EQ PUSH2 0x13BB JUMPI PUSH1 0x0 DUP1 REVERT JUMPDEST PUSH1 0x0 DUP1 PUSH1 0x0 DUP1 PUSH1 0x0 PUSH1 0xA0 DUP7 DUP9 SUB SLT ISZERO PUSH2 0x16A4 JUMPI PUSH1 0x0 DUP1 REVERT JUMPDEST PUSH2 0x16AD DUP7 PUSH2 0x1672 JUMP JUMPDEST SWAP5 POP PUSH1 0x20 DUP7 ADD MLOAD SWAP4 POP PUSH1 0x40 DUP7 ADD MLOAD SWAP3 POP PUSH1 0x60 DUP7 ADD MLOAD SWAP2 POP PUSH2 0x1536 PUSH1 0x80 DUP8 ADD PUSH2 0x1672 JUMP INVALID LOG2 PUSH5 0x6970667358 0x22 SLT KECCAK256 PUSH3 0x36596F 0xEF LOG3 0xCB DUP13 PUSH23 0x3897F6C2078ABF80BB23E441842B24A1AFF9A786E4D9F3 PUSH5 0x736F6C6343 STOP ADDMOD ADDMOD STOP CALLER "
        },
        "gasEstimates": {
          "creation": {
            "codeDepositCost": "1178800",
            "executionCost": "infinite",
            "totalCost": "infinite"
          },
          "external": {
            "REWARD_PER_WINDOW()": "infinite",
            "accumulatedFees()": "2385",
            "betListLen(address)": "2611",
            "betResult(uint256,uint256)": "460",
            "calculateTokenReward(uint256,uint256,uint256,uint256)": "infinite",
            "computeFee(uint256,uint256)": "539",
            "fee()": "infinite",
            "firstBlock()": "infinite",
            "getPoolValues(uint256)": "2599",
            "getUserBetList(address,uint256)": "4819",
            "getUserStake(uint256,address)": "2788",
            "getWindowBetPrices(uint256)": "infinite",
            "getWindowNumber(uint256,uint256,uint256)": "609",
            "getWindowStartingBlock(uint256,uint256,uint256)": "619",
            "placeBet(uint8)": "infinite",
            "pools(uint256)": "2570",
            "settleBet(uint256,uint256,uint256,uint256,uint8)": "infinite",
            "updateBalance(address)": "infinite",
            "updatePrice()": "infinite",
            "windowDuration()": "infinite",
            "windowPrice(uint256)": "2504",
            "windowStatus(uint256,uint256,uint256,uint256)": "infinite"
          },
          "internal": {
            "priceOracle()": "infinite",
            "sharePool(uint256,uint256,uint256)": "181",
            "transferFees()": "infinite",
            "transferRewards(address,uint256)": "infinite"
          }
        },
        "methodIdentifiers": {
          "REWARD_PER_WINDOW()": "71a42207",
          "accumulatedFees()": "587f5ed7",
          "betListLen(address)": "89b808a7",
          "betResult(uint256,uint256)": "1bb5abf9",
          "calculateTokenReward(uint256,uint256,uint256,uint256)": "daaac9d2",
          "computeFee(uint256,uint256)": "2ff284c2",
          "fee()": "ddca3f43",
          "firstBlock()": "231b0268",
          "getPoolValues(uint256)": "0eff4d88",
          "getUserBetList(address,uint256)": "b47a3566",
          "getUserStake(uint256,address)": "9626a230",
          "getWindowBetPrices(uint256)": "f83b35fb",
          "getWindowNumber(uint256,uint256,uint256)": "508ba0bd",
          "getWindowStartingBlock(uint256,uint256,uint256)": "78f14be4",
          "placeBet(uint8)": "43046844",
          "pools(uint256)": "ac4afa38",
          "settleBet(uint256,uint256,uint256,uint256,uint8)": "ca055e53",
          "updateBalance(address)": "40b8405a",
          "updatePrice()": "673a7e28",
          "windowDuration()": "5c11ff7a",
          "windowPrice(uint256)": "e0d65d87",
          "windowStatus(uint256,uint256,uint256,uint256)": "b134894e"
        }
      },
      "storageLayout": {
        "storage": [
          {
            "astId": 893,
            "contract": "contracts/BinaryBet.sol:BinaryBet",
            "label": "priceFeed",
            "offset": 0,
            "slot": "0",
            "type": "t_contract(AggregatorV3Interface)45"
          },
          {
            "astId": 908,
            "contract": "contracts/BinaryBet.sol:BinaryBet",
            "label": "pools",
            "offset": 0,
            "slot": "1",
            "type": "t_mapping(t_uint256,t_struct(Pool)890_storage)"
          },
          {
            "astId": 910,
            "contract": "contracts/BinaryBet.sol:BinaryBet",
            "label": "accumulatedFees",
            "offset": 0,
            "slot": "2",
            "type": "t_uint256"
          },
          {
            "astId": 920,
            "contract": "contracts/BinaryBet.sol:BinaryBet",
            "label": "windowPrice",
            "offset": 0,
            "slot": "3",
            "type": "t_mapping(t_uint256,t_uint256)"
          },
          {
            "astId": 934,
            "contract": "contracts/BinaryBet.sol:BinaryBet",
            "label": "user",
            "offset": 0,
            "slot": "4",
            "type": "t_mapping(t_address,t_struct(User)929_storage)"
          }
        ],
        "types": {
          "t_address": {
            "encoding": "inplace",
            "label": "address",
            "numberOfBytes": "20"
          },
          "t_array(t_uint256)dyn_storage": {
            "base": "t_uint256",
            "encoding": "dynamic_array",
            "label": "uint256[]",
            "numberOfBytes": "32"
          },
          "t_contract(AggregatorV3Interface)45": {
            "encoding": "inplace",
            "label": "contract AggregatorV3Interface",
            "numberOfBytes": "20"
          },
          "t_mapping(t_address,t_struct(User)929_storage)": {
            "encoding": "mapping",
            "key": "t_address",
            "label": "mapping(address => struct BinaryBet.User)",
            "numberOfBytes": "32",
            "value": "t_struct(User)929_storage"
          },
          "t_mapping(t_uint256,t_struct(Pool)890_storage)": {
            "encoding": "mapping",
            "key": "t_uint256",
            "label": "mapping(uint256 => struct BinaryBet.Pool)",
            "numberOfBytes": "32",
            "value": "t_struct(Pool)890_storage"
          },
          "t_mapping(t_uint256,t_uint256)": {
            "encoding": "mapping",
            "key": "t_uint256",
            "label": "mapping(uint256 => uint256)",
            "numberOfBytes": "32",
            "value": "t_uint256"
          },
          "t_struct(Pool)890_storage": {
            "encoding": "inplace",
            "label": "struct BinaryBet.Pool",
            "members": [
              {
                "astId": 887,
                "contract": "contracts/BinaryBet.sol:BinaryBet",
                "label": "downValue",
                "offset": 0,
                "slot": "0",
                "type": "t_uint64"
              },
              {
                "astId": 889,
                "contract": "contracts/BinaryBet.sol:BinaryBet",
                "label": "upValue",
                "offset": 8,
                "slot": "0",
                "type": "t_uint64"
              }
            ],
            "numberOfBytes": "32"
          },
          "t_struct(User)929_storage": {
            "encoding": "inplace",
            "label": "struct BinaryBet.User",
            "members": [
              {
                "astId": 925,
                "contract": "contracts/BinaryBet.sol:BinaryBet",
                "label": "stake",
                "offset": 0,
                "slot": "0",
                "type": "t_mapping(t_uint256,t_struct(Pool)890_storage)"
              },
              {
                "astId": 928,
                "contract": "contracts/BinaryBet.sol:BinaryBet",
                "label": "bets",
                "offset": 0,
                "slot": "1",
                "type": "t_array(t_uint256)dyn_storage"
              }
            ],
            "numberOfBytes": "64"
          },
          "t_uint256": {
            "encoding": "inplace",
            "label": "uint256",
            "numberOfBytes": "32"
          },
          "t_uint64": {
            "encoding": "inplace",
            "label": "uint64",
            "numberOfBytes": "8"
          }
        }
      },
      "userdoc": {
        "kind": "user",
        "methods": {},
        "version": 1
      }
    }
  }
}