{
  "contracts/BinaryBet.sol": {
    "BinaryBet": {
      "abi": [
        {
          "inputs": [
            {
              "internalType": "uint256",
              "name": "_windowDuration",
              "type": "uint256"
            },
            {
              "internalType": "uint256",
              "name": "_fee",
              "type": "uint256"
            },
            {
              "internalType": "address",
              "name": "aggregator",
              "type": "address"
            },
            {
              "internalType": "address",
              "name": "stakingContract",
              "type": "address"
            },
            {
              "internalType": "address",
              "name": "tokenContract",
              "type": "address"
            }
          ],
          "stateMutability": "nonpayable",
          "type": "constructor"
        },
        {
          "anonymous": false,
          "inputs": [
            {
              "indexed": true,
              "internalType": "uint256",
              "name": "windowNumber",
              "type": "uint256"
            },
            {
              "indexed": true,
              "internalType": "address",
              "name": "user",
              "type": "address"
            },
            {
              "indexed": false,
              "internalType": "uint256",
              "name": "gain",
              "type": "uint256"
            }
          ],
          "name": "betSettled",
          "type": "event"
        },
        {
          "anonymous": false,
          "inputs": [
            {
              "indexed": true,
              "internalType": "address",
              "name": "user",
              "type": "address"
            },
            {
              "indexed": true,
              "internalType": "uint256",
              "name": "windowNumber",
              "type": "uint256"
            },
            {
              "indexed": false,
              "internalType": "uint256",
              "name": "value",
              "type": "uint256"
            },
            {
              "indexed": false,
              "internalType": "uint8",
              "name": "side",
              "type": "uint8"
            }
          ],
          "name": "newBet",
          "type": "event"
        },
        {
          "anonymous": false,
          "inputs": [
            {
              "indexed": true,
              "internalType": "uint256",
              "name": "windowNumber",
              "type": "uint256"
            },
            {
              "indexed": false,
              "internalType": "uint256",
              "name": "price",
              "type": "uint256"
            }
          ],
          "name": "priceUpdated",
          "type": "event"
        },
        {
          "inputs": [],
          "name": "REWARD_PER_WINDOW",
          "outputs": [
            {
              "internalType": "uint256",
              "name": "",
              "type": "uint256"
            }
          ],
          "stateMutability": "view",
          "type": "function"
        },
        {
          "inputs": [],
          "name": "accumulatedFees",
          "outputs": [
            {
              "internalType": "uint256",
              "name": "",
              "type": "uint256"
            }
          ],
          "stateMutability": "view",
          "type": "function"
        },
        {
          "inputs": [
            {
              "internalType": "address",
              "name": "user",
              "type": "address"
            }
          ],
          "name": "betListLen",
          "outputs": [
            {
              "internalType": "uint256",
              "name": "",
              "type": "uint256"
            }
          ],
          "stateMutability": "view",
          "type": "function"
        },
        {
          "inputs": [
            {
              "internalType": "uint256",
              "name": "referencePrice",
              "type": "uint256"
            },
            {
              "internalType": "uint256",
              "name": "settlementPrice",
              "type": "uint256"
            }
          ],
          "name": "betResult",
          "outputs": [
            {
              "internalType": "uint8",
              "name": "",
              "type": "uint8"
            }
          ],
          "stateMutability": "pure",
          "type": "function"
        },
        {
          "inputs": [
            {
              "internalType": "uint256",
              "name": "upStake",
              "type": "uint256"
            },
            {
              "internalType": "uint256",
              "name": "downStake",
              "type": "uint256"
            },
            {
              "internalType": "uint256",
              "name": "poolUp",
              "type": "uint256"
            },
            {
              "internalType": "uint256",
              "name": "poolDown",
              "type": "uint256"
            }
          ],
          "name": "calculateTokenReward",
          "outputs": [
            {
              "internalType": "uint256",
              "name": "",
              "type": "uint256"
            }
          ],
          "stateMutability": "pure",
          "type": "function"
        },
        {
          "inputs": [
            {
              "internalType": "address",
              "name": "newGovernance",
              "type": "address"
            }
          ],
          "name": "changeGovernance",
          "outputs": [],
          "stateMutability": "nonpayable",
          "type": "function"
        },
        {
          "inputs": [
            {
              "internalType": "uint256",
              "name": "windowSize",
              "type": "uint256"
            }
          ],
          "name": "changeWindowSize",
          "outputs": [],
          "stateMutability": "nonpayable",
          "type": "function"
        },
        {
          "inputs": [
            {
              "internalType": "uint256",
              "name": "value",
              "type": "uint256"
            },
            {
              "internalType": "uint256",
              "name": "_fee",
              "type": "uint256"
            }
          ],
          "name": "computeFee",
          "outputs": [
            {
              "internalType": "uint256",
              "name": "betFee",
              "type": "uint256"
            }
          ],
          "stateMutability": "pure",
          "type": "function"
        },
        {
          "inputs": [],
          "name": "fee",
          "outputs": [
            {
              "internalType": "uint256",
              "name": "",
              "type": "uint256"
            }
          ],
          "stateMutability": "view",
          "type": "function"
        },
        {
          "inputs": [],
          "name": "firstBlock",
          "outputs": [
            {
              "internalType": "uint256",
              "name": "",
              "type": "uint256"
            }
          ],
          "stateMutability": "view",
          "type": "function"
        },
        {
          "inputs": [],
          "name": "firstWindow",
          "outputs": [
            {
              "internalType": "uint256",
              "name": "",
              "type": "uint256"
            }
          ],
          "stateMutability": "view",
          "type": "function"
        },
        {
          "inputs": [
            {
              "internalType": "uint256",
              "name": "windowNumber",
              "type": "uint256"
            }
          ],
          "name": "getPoolValues",
          "outputs": [
            {
              "internalType": "uint256",
              "name": "",
              "type": "uint256"
            },
            {
              "internalType": "uint256",
              "name": "",
              "type": "uint256"
            }
          ],
          "stateMutability": "view",
          "type": "function"
        },
        {
          "inputs": [
            {
              "internalType": "address",
              "name": "user",
              "type": "address"
            },
            {
              "internalType": "uint256",
              "name": "index",
              "type": "uint256"
            }
          ],
          "name": "getUserBetList",
          "outputs": [
            {
              "internalType": "uint256",
              "name": "",
              "type": "uint256"
            }
          ],
          "stateMutability": "view",
          "type": "function"
        },
        {
          "inputs": [
            {
              "internalType": "uint256",
              "name": "windowNumber",
              "type": "uint256"
            },
            {
              "internalType": "address",
              "name": "user",
              "type": "address"
            }
          ],
          "name": "getUserStake",
          "outputs": [
            {
              "internalType": "uint256",
              "name": "",
              "type": "uint256"
            },
            {
              "internalType": "uint256",
              "name": "",
              "type": "uint256"
            }
          ],
          "stateMutability": "view",
          "type": "function"
        },
        {
          "inputs": [
            {
              "internalType": "uint256",
              "name": "window",
              "type": "uint256"
            }
          ],
          "name": "getWindowBetPrices",
          "outputs": [
            {
              "internalType": "uint256",
              "name": "",
              "type": "uint256"
            },
            {
              "internalType": "uint256",
              "name": "",
              "type": "uint256"
            }
          ],
          "stateMutability": "view",
          "type": "function"
        },
        {
          "inputs": [
            {
              "internalType": "uint256",
              "name": "currentBlock",
              "type": "uint256"
            },
            {
              "internalType": "uint256",
              "name": "_windowDuration",
              "type": "uint256"
            },
            {
              "internalType": "uint256",
              "name": "_firstBlock",
              "type": "uint256"
            },
            {
              "internalType": "uint256",
              "name": "_windowOffset",
              "type": "uint256"
            },
            {
              "internalType": "uint256",
              "name": "_firstWindow",
              "type": "uint256"
            }
          ],
          "name": "getWindowNumber",
          "outputs": [
            {
              "internalType": "uint256",
              "name": "windowNumber",
              "type": "uint256"
            }
          ],
          "stateMutability": "pure",
          "type": "function"
        },
        {
          "inputs": [
            {
              "internalType": "uint256",
              "name": "windowNumber",
              "type": "uint256"
            },
            {
              "internalType": "uint256",
              "name": "_windowDuration",
              "type": "uint256"
            },
            {
              "internalType": "uint256",
              "name": "_firstBlock",
              "type": "uint256"
            },
            {
              "internalType": "uint256",
              "name": "_windowOffset",
              "type": "uint256"
            }
          ],
          "name": "getWindowStartingBlock",
          "outputs": [
            {
              "internalType": "uint256",
              "name": "startingBlock",
              "type": "uint256"
            }
          ],
          "stateMutability": "pure",
          "type": "function"
        },
        {
          "inputs": [
            {
              "internalType": "uint8",
              "name": "side",
              "type": "uint8"
            }
          ],
          "name": "placeBet",
          "outputs": [],
          "stateMutability": "payable",
          "type": "function"
        },
        {
          "inputs": [
            {
              "internalType": "uint256",
              "name": "",
              "type": "uint256"
            }
          ],
          "name": "pools",
          "outputs": [
            {
              "internalType": "uint256",
              "name": "downValue",
              "type": "uint256"
            },
            {
              "internalType": "uint256",
              "name": "upValue",
              "type": "uint256"
            }
          ],
          "stateMutability": "view",
          "type": "function"
        },
        {
          "inputs": [
            {
              "internalType": "uint256",
              "name": "upStake",
              "type": "uint256"
            },
            {
              "internalType": "uint256",
              "name": "downStake",
              "type": "uint256"
            },
            {
              "internalType": "uint256",
              "name": "poolUp",
              "type": "uint256"
            },
            {
              "internalType": "uint256",
              "name": "poolDown",
              "type": "uint256"
            },
            {
              "internalType": "uint8",
              "name": "betResult",
              "type": "uint8"
            }
          ],
          "name": "settleBet",
          "outputs": [
            {
              "internalType": "uint256",
              "name": "gain",
              "type": "uint256"
            },
            {
              "internalType": "uint256",
              "name": "fees",
              "type": "uint256"
            }
          ],
          "stateMutability": "pure",
          "type": "function"
        },
        {
          "inputs": [
            {
              "internalType": "address",
              "name": "user",
              "type": "address"
            }
          ],
          "name": "updateBalance",
          "outputs": [],
          "stateMutability": "nonpayable",
          "type": "function"
        },
        {
          "inputs": [
            {
              "internalType": "uint256",
              "name": "downValue",
              "type": "uint256"
            },
            {
              "internalType": "uint256",
              "name": "upValue",
              "type": "uint256"
            },
            {
              "internalType": "uint8",
              "name": "side",
              "type": "uint8"
            },
            {
              "internalType": "uint256",
              "name": "value",
              "type": "uint256"
            }
          ],
          "name": "updatePool",
          "outputs": [
            {
              "internalType": "uint256",
              "name": "",
              "type": "uint256"
            },
            {
              "internalType": "uint256",
              "name": "",
              "type": "uint256"
            }
          ],
          "stateMutability": "pure",
          "type": "function"
        },
        {
          "inputs": [],
          "name": "updatePrice",
          "outputs": [],
          "stateMutability": "nonpayable",
          "type": "function"
        },
        {
          "inputs": [
            {
              "internalType": "address",
              "name": "",
              "type": "address"
            },
            {
              "internalType": "uint256",
              "name": "",
              "type": "uint256"
            }
          ],
          "name": "userBets",
          "outputs": [
            {
              "internalType": "uint256",
              "name": "",
              "type": "uint256"
            }
          ],
          "stateMutability": "view",
          "type": "function"
        },
        {
          "inputs": [
            {
              "internalType": "address",
              "name": "",
              "type": "address"
            },
            {
              "internalType": "uint256",
              "name": "",
              "type": "uint256"
            }
          ],
          "name": "userStake",
          "outputs": [
            {
              "internalType": "uint256",
              "name": "downValue",
              "type": "uint256"
            },
            {
              "internalType": "uint256",
              "name": "upValue",
              "type": "uint256"
            }
          ],
          "stateMutability": "view",
          "type": "function"
        },
        {
          "inputs": [],
          "name": "windowDuration",
          "outputs": [
            {
              "internalType": "uint256",
              "name": "",
              "type": "uint256"
            }
          ],
          "stateMutability": "view",
          "type": "function"
        },
        {
          "inputs": [],
          "name": "windowOffset",
          "outputs": [
            {
              "internalType": "uint256",
              "name": "",
              "type": "uint256"
            }
          ],
          "stateMutability": "view",
          "type": "function"
        },
        {
          "inputs": [
            {
              "internalType": "uint256",
              "name": "",
              "type": "uint256"
            }
          ],
          "name": "windowPrice",
          "outputs": [
            {
              "internalType": "uint256",
              "name": "",
              "type": "uint256"
            }
          ],
          "stateMutability": "view",
          "type": "function"
        }
      ],
      "devdoc": {
        "kind": "dev",
        "methods": {},
        "version": 1
      },
      "evm": {
        "bytecode": {
          "linkReferences": {},
          "object": "60806040526001600b553480156200001657600080fd5b50604051620029df380380620029df83398181016040528101906200003c9190620001c6565b60648411156200004b57600080fd5b826000806101000a81548173ffffffffffffffffffffffffffffffffffffffff021916908373ffffffffffffffffffffffffffffffffffffffff16021790555043600481905550846003819055508360028190555033600160006101000a81548173ffffffffffffffffffffffffffffffffffffffff021916908373ffffffffffffffffffffffffffffffffffffffff1602179055506001600b8190555081600660006101000a81548173ffffffffffffffffffffffffffffffffffffffff021916908373ffffffffffffffffffffffffffffffffffffffff160217905550600860009054906101000a900473ffffffffffffffffffffffffffffffffffffffff16600760006101000a81548173ffffffffffffffffffffffffffffffffffffffff021916908373ffffffffffffffffffffffffffffffffffffffff1602179055505050505050620002ba565b600081519050620001a98162000286565b92915050565b600081519050620001c081620002a0565b92915050565b600080600080600060a08688031215620001df57600080fd5b6000620001ef88828901620001af565b95505060206200020288828901620001af565b9450506040620002158882890162000198565b9350506060620002288882890162000198565b92505060806200023b8882890162000198565b9150509295509295909350565b600062000255826200025c565b9050919050565b600073ffffffffffffffffffffffffffffffffffffffff82169050919050565b6000819050919050565b620002918162000248565b81146200029d57600080fd5b50565b620002ab816200027c565b8114620002b757600080fd5b50565b61271580620002ca6000396000f3fe6080604052600436106101b75760003560e01c806380962668116100ec578063ca055e531161008a578063e0a5cee311610064578063e0a5cee31461069f578063e0d65d87146106ca578063f52818f014610707578063f83b35fb14610730576101b7565b8063ca055e53146105f9578063daaac9d214610637578063ddca3f4314610674576101b7565b80639626a230116100c65780639626a2301461051757806399572d6f14610555578063ac4afa381461057e578063b47a3566146105bc576101b7565b80638096266814610472578063849cd1c71461049d57806389b808a7146104da576101b7565b806343046844116101595780635c11ff7a116101335780635c11ff7a146103c8578063673a7e28146103f357806371a422071461040a5780638068aa6814610435576101b7565b80634304684414610344578063576fe42f14610360578063587f5ed71461039d576101b7565b8063231b026811610195578063231b0268146102755780632ff284c2146102a05780633937ea4f146102dd57806340b8405a1461031b576101b7565b80630ed6ca29146101bc5780630eff4d88146101fa5780631bb5abf914610238575b600080fd5b3480156101c857600080fd5b506101e360048036038101906101de91906120ca565b61076e565b6040516101f19291906123c5565b60405180910390f35b34801561020657600080fd5b50610221600480360381019061021c9190611eaf565b6108db565b60405161022f9291906123c5565b60405180910390f35b34801561024457600080fd5b5061025f600480360381019061025a9190611f3d565b610928565b60405161026c9190612417565b60405180910390f35b34801561028157600080fd5b5061028a610957565b60405161029791906123aa565b60405180910390f35b3480156102ac57600080fd5b506102c760048036038101906102c29190611f3d565b61095d565b6040516102d491906123aa565b60405180910390f35b3480156102e957600080fd5b5061030460048036038101906102ff9190611e4a565b61097f565b6040516103129291906123c5565b60405180910390f35b34801561032757600080fd5b50610342600480360381019061033d9190611e21565b6109b0565b005b61035e6004803603810190610359919061212d565b611122565b005b34801561036c57600080fd5b5061038760048036038101906103829190611fdc565b6114eb565b60405161039491906123aa565b60405180910390f35b3480156103a957600080fd5b506103b2611537565b6040516103bf91906123aa565b60405180910390f35b3480156103d457600080fd5b506103dd61153d565b6040516103ea91906123aa565b60405180910390f35b3480156103ff57600080fd5b50610408611543565b005b34801561041657600080fd5b5061041f6115e6565b60405161042c91906123aa565b60405180910390f35b34801561044157600080fd5b5061045c60048036038101906104579190611e4a565b6115f3565b60405161046991906123aa565b60405180910390f35b34801561047e57600080fd5b50610487611624565b60405161049491906123aa565b60405180910390f35b3480156104a957600080fd5b506104c460048036038101906104bf9190611f79565b61162a565b6040516104d191906123aa565b60405180910390f35b3480156104e657600080fd5b5061050160048036038101906104fc9190611e21565b611664565b60405161050e91906123aa565b60405180910390f35b34801561052357600080fd5b5061053e60048036038101906105399190611f01565b6116b0565b60405161054c9291906123c5565b60405180910390f35b34801561056157600080fd5b5061057c60048036038101906105779190611e21565b61173c565b005b34801561058a57600080fd5b506105a560048036038101906105a09190611eaf565b611810565b6040516105b39291906123c5565b60405180910390f35b3480156105c857600080fd5b506105e360048036038101906105de9190611e4a565b611834565b6040516105f091906123aa565b60405180910390f35b34801561060557600080fd5b50610620600480360381019061061b9190612053565b6118c0565b60405161062e9291906123c5565b60405180910390f35b34801561064357600080fd5b5061065e60048036038101906106599190611f79565b611aef565b60405161066b91906123aa565b60405180910390f35b34801561068057600080fd5b50610689611b25565b60405161069691906123aa565b60405180910390f35b3480156106ab57600080fd5b506106b4611b2b565b6040516106c191906123aa565b60405180910390f35b3480156106d657600080fd5b506106f160048036038101906106ec9190611eaf565b611b31565b6040516106fe91906123aa565b60405180910390f35b34801561071357600080fd5b5061072e60048036038101906107299190611eaf565b611b49565b005b34801561073c57600080fd5b5061075760048036038101906107529190611eaf565b611c72565b6040516107659291906123c5565b60405180910390f35b60008060008460ff1660018111156107af577f4e487b7100000000000000000000000000000000000000000000000000000000600052602160045260246000fd5b9050600060018111156107eb577f4e487b7100000000000000000000000000000000000000000000000000000000600052602160045260246000fd5b816001811115610824577f4e487b7100000000000000000000000000000000000000000000000000000000600052602160045260246000fd5b14156108415783876108369190612443565b8692509250506108d2565b60018081111561087a577f4e487b7100000000000000000000000000000000000000000000000000000000600052602160045260246000fd5b8160018111156108b3577f4e487b7100000000000000000000000000000000000000000000000000000000600052602160045260246000fd5b14156108d0578684876108c69190612443565b92509250506108d2565b505b94509492505050565b600080600060096000858152602001908152602001600020604051806040016040529081600082015481526020016001820154815250509050806000015181602001519250925050915091565b60008282101561093b5760009050610951565b8282111561094c5760019050610951565b600290505b92915050565b60045481565b60006064828461096d91906124ca565b6109779190612499565b905092915050565b600e602052816000526040600020602052806000526040600020600091509150508060000154908060010154905082565b6000600f60008373ffffffffffffffffffffffffffffffffffffffff1673ffffffffffffffffffffffffffffffffffffffff1681526020019081526020016000209050600081805490501415610a06575061111f565b600080828054905090505b600081111561103357600083600183610a2a9190612524565b81548110610a61577f4e487b7100000000000000000000000000000000000000000000000000000000600052603260045260246000fd5b906000526020600020015490506000610a8543600354600454600c54600b546114eb565b9050600282610a949190612443565b811015610aa2575050611020565b600080610aae84611c72565b91509150600081148015610acd5750600384610aca9190612443565b83105b15610adb5750505050611020565b6000610ae78383610928565b90506000831480610af85750600082145b15610b0257600290505b8760018980549050610b149190612524565b81548110610b4b577f4e487b7100000000000000000000000000000000000000000000000000000000600052603260045260246000fd5b906000526020600020015488600188610b649190612524565b81548110610b9b577f4e487b7100000000000000000000000000000000000000000000000000000000600052603260045260246000fd5b906000526020600020018190555087805480610be0577f4e487b7100000000000000000000000000000000000000000000000000000000600052603160045260246000fd5b600190038181906000526020600020016000905590556000600e60008b73ffffffffffffffffffffffffffffffffffffffff1673ffffffffffffffffffffffffffffffffffffffff1681526020019081526020016000206000878152602001908152602001600020604051806040016040529081600082015481526020016001820154815250509050600060096000888152602001908152602001600020604051806040016040529081600082015481526020016001820154815250509050600080610cbf8460200151856000015185602001518660000151896118c0565b91509150818b610ccf9190612443565b9a5080600d54610cdf9190612443565b600d819055506000610d038560200151866000015186602001518760000151611aef565b905080600760009054906101000a900473ffffffffffffffffffffffffffffffffffffffff1673ffffffffffffffffffffffffffffffffffffffff166370a08231306040518263ffffffff1660e01b8152600401610d619190612306565b60206040518083038186803b158015610d7957600080fd5b505afa158015610d8d573d6000803e3d6000fd5b505050506040513d601f19601f82011682018060405250810190610db19190611ed8565b10610e6b57600760009054906101000a900473ffffffffffffffffffffffffffffffffffffffff1673ffffffffffffffffffffffffffffffffffffffff1663a9059cbb8f836040518363ffffffff1660e01b8152600401610e13929190612321565b602060405180830381600087803b158015610e2d57600080fd5b505af1158015610e41573d6000803e3d6000fd5b505050506040513d601f19601f82011682018060405250810190610e659190611e86565b50610fc6565b600760009054906101000a900473ffffffffffffffffffffffffffffffffffffffff1673ffffffffffffffffffffffffffffffffffffffff1663a9059cbb8f600760009054906101000a900473ffffffffffffffffffffffffffffffffffffffff1673ffffffffffffffffffffffffffffffffffffffff166370a08231306040518263ffffffff1660e01b8152600401610f059190612306565b60206040518083038186803b158015610f1d57600080fd5b505afa158015610f31573d6000803e3d6000fd5b505050506040513d601f19601f82011682018060405250810190610f559190611ed8565b6040518363ffffffff1660e01b8152600401610f72929190612321565b602060405180830381600087803b158015610f8c57600080fd5b505af1158015610fa0573d6000803e3d6000fd5b505050506040513d601f19601f82011682018060405250810190610fc49190611e86565b505b8d73ffffffffffffffffffffffffffffffffffffffff168a7f1a82fd78981b9465af4b8bd67f27607df5d873b7a978cc8cee1a65b85c2990fc8560405161100d91906123aa565b60405180910390a3505050505050505050505b808061102b906125cd565b915050610a11565b5060008110611084578273ffffffffffffffffffffffffffffffffffffffff166108fc829081150290604051600060405180830381858888f19350505050158015611082573d6000803e3d6000fd5b505b6000600d54111561111c57600560009054906101000a900473ffffffffffffffffffffffffffffffffffffffff1673ffffffffffffffffffffffffffffffffffffffff16625c33e1600d546040518263ffffffff1660e01b81526004016000604051808303818588803b1580156110fa57600080fd5b505af115801561110e573d6000803e3d6000fd5b50505050506000600d819055505b50505b50565b60003411611165576040517f08c379a000000000000000000000000000000000000000000000000000000000815260040161115c9061234a565b60405180910390fd5b61116d611543565b611176336109b0565b60006111843460025461095d565b905080600d546111949190612443565b600d81905550600081346111a89190612524565b905060006111c143600354600454600c54600b546114eb565b9050601060003373ffffffffffffffffffffffffffffffffffffffff1673ffffffffffffffffffffffffffffffffffffffff168152602001908152602001600020600082815260200190815260200160002060009054906101000a900460ff166112f557600f60003373ffffffffffffffffffffffffffffffffffffffff1673ffffffffffffffffffffffffffffffffffffffff1681526020019081526020016000208190806001815401808255809150506001900390600052602060002001600090919091909150556001601060003373ffffffffffffffffffffffffffffffffffffffff1673ffffffffffffffffffffffffffffffffffffffff168152602001908152602001600020600083815260200190815260200160002060006101000a81548160ff0219169083151502179055505b60006009600083815260200190815260200160002060405180604001604052908160008201548152602001600182015481525050905060008061134283600001518460200151898861076e565b915091506040518060400160405280838152602001828152506009600086815260200190815260200160002060008201518160000155602082015181600101559050506000600e60003373ffffffffffffffffffffffffffffffffffffffff1673ffffffffffffffffffffffffffffffffffffffff168152602001908152602001600020600086815260200190815260200160002060405180604001604052908160008201548152602001600182015481525050905061140c816000015182602001518a8961076e565b8093508194505050604051806040016040528084815260200183815250600e60003373ffffffffffffffffffffffffffffffffffffffff1673ffffffffffffffffffffffffffffffffffffffff16815260200190815260200160002060008781526020019081526020016000206000820151816000015560208201518160010155905050843373ffffffffffffffffffffffffffffffffffffffff167f560e32e4934b84f33b228f40ddc5b9fa690426ee087005a7d979d7921d24a02b888b6040516114d99291906123ee565b60405180910390a35050505050505050565b6000838610156114fd5781905061152e565b60018386868961150d9190612524565b6115179190612499565b6115219190612443565b61152b9190612443565b90505b95945050505050565b600d5481565b60035481565b600061155a43600354600454600c54600b546114eb565b90506000600a60008381526020019081526020016000205414156115e357611580611cbe565b600a600083815260200190815260200160002081905550807f7a3325b9d11ddc18edd3dff130141b6ce951061520c6b933a604bf701f3d8052600a6000848152602001908152602001600020546040516115da91906123aa565b60405180910390a25b50565b68240cba98add2c4000081565b600f602052816000526040600020818154811061160f57600080fd5b90600052602060002001600091509150505481565b600c5481565b6000838260018761163b9190612524565b6116459190612524565b61164f91906124ca565b8361165a9190612443565b9050949350505050565b6000600f60008373ffffffffffffffffffffffffffffffffffffffff1673ffffffffffffffffffffffffffffffffffffffff168152602001908152602001600020805490509050919050565b6000806000600e60008573ffffffffffffffffffffffffffffffffffffffff1673ffffffffffffffffffffffffffffffffffffffff16815260200190815260200160002060008681526020019081526020016000206040518060400160405290816000820154815260200160018201548152505090508060000151816020015192509250509250929050565b600160009054906101000a900473ffffffffffffffffffffffffffffffffffffffff1673ffffffffffffffffffffffffffffffffffffffff163373ffffffffffffffffffffffffffffffffffffffff16146117cc576040517f08c379a00000000000000000000000000000000000000000000000000000000081526004016117c39061236a565b60405180910390fd5b80600160006101000a81548173ffffffffffffffffffffffffffffffffffffffff021916908373ffffffffffffffffffffffffffffffffffffffff16021790555050565b60096020528060005260406000206000915090508060000154908060010154905082565b6000600f60008473ffffffffffffffffffffffffffffffffffffffff1673ffffffffffffffffffffffffffffffffffffffff16815260200190815260200160002082815481106118ad577f4e487b7100000000000000000000000000000000000000000000000000000000600052603260045260246000fd5b9060005260206000200154905092915050565b60008060008360ff166002811115611901577f4e487b7100000000000000000000000000000000000000000000000000000000600052602160045260246000fd5b9050600085876119119190612443565b90506001600281111561194d577f4e487b7100000000000000000000000000000000000000000000000000000000600052602160045260246000fd5b826002811115611986577f4e487b7100000000000000000000000000000000000000000000000000000000600052602160045260246000fd5b148015611994575060008714155b156119ab576119a4818a89611d6c565b9350611ae3565b600060028111156119e5577f4e487b7100000000000000000000000000000000000000000000000000000000600052602160045260246000fd5b826002811115611a1e577f4e487b7100000000000000000000000000000000000000000000000000000000600052602160045260246000fd5b148015611a2c575060008614155b15611a4357611a3c818988611d6c565b9350611ae2565b600280811115611a7c577f4e487b7100000000000000000000000000000000000000000000000000000000600052602160045260246000fd5b826002811115611ab5577f4e487b7100000000000000000000000000000000000000000000000000000000600052602160045260246000fd5b1415611ace578789611ac79190612443565b9350611ae1565b600093508789611ade9190612443565b92505b5b5b50509550959350505050565b6000611b1b68240cba98add2c400008587611b0a9190612443565b8486611b169190612443565b611d6c565b9050949350505050565b60025481565b600b5481565b600a6020528060005260406000206000915090505481565b600160009054906101000a900473ffffffffffffffffffffffffffffffffffffffff1673ffffffffffffffffffffffffffffffffffffffff163373ffffffffffffffffffffffffffffffffffffffff1614611bd9576040517f08c379a0000000000000000000000000000000000000000000000000000000008152600401611bd09061236a565b60405180910390fd5b60008111611c1c576040517f08c379a0000000000000000000000000000000000000000000000000000000008152600401611c139061238a565b60405180910390fd5b6000611c3343600354600454600c54600b546114eb565b9050611c53600182611c459190612443565b600354600454600c5461162a565b60048190555080600c8190555080600b81905550816003819055505050565b600080600a6000600185611c869190612443565b815260200190815260200160002054600a6000600286611ca69190612443565b81526020019081526020016000205491509150915091565b60008060008054906101000a900473ffffffffffffffffffffffffffffffffffffffff1673ffffffffffffffffffffffffffffffffffffffff1663feaf968c6040518163ffffffff1660e01b815260040160a06040518083038186803b158015611d2757600080fd5b505afa158015611d3b573d6000803e3d6000fd5b505050506040513d601f19601f82011682018060405250810190611d5f9190612156565b5050509150508091505090565b6000818484611d7b91906124ca565b611d859190612499565b90509392505050565b600081359050611d9d81612655565b92915050565b600081519050611db28161266c565b92915050565b600081519050611dc781612683565b92915050565b600081359050611ddc8161269a565b92915050565b600081519050611df18161269a565b92915050565b600081359050611e06816126b1565b92915050565b600081519050611e1b816126c8565b92915050565b600060208284031215611e3357600080fd5b6000611e4184828501611d8e565b91505092915050565b60008060408385031215611e5d57600080fd5b6000611e6b85828601611d8e565b9250506020611e7c85828601611dcd565b9150509250929050565b600060208284031215611e9857600080fd5b6000611ea684828501611da3565b91505092915050565b600060208284031215611ec157600080fd5b6000611ecf84828501611dcd565b91505092915050565b600060208284031215611eea57600080fd5b6000611ef884828501611de2565b91505092915050565b60008060408385031215611f1457600080fd5b6000611f2285828601611dcd565b9250506020611f3385828601611d8e565b9150509250929050565b60008060408385031215611f5057600080fd5b6000611f5e85828601611dcd565b9250506020611f6f85828601611dcd565b9150509250929050565b60008060008060808587031215611f8f57600080fd5b6000611f9d87828801611dcd565b9450506020611fae87828801611dcd565b9350506040611fbf87828801611dcd565b9250506060611fd087828801611dcd565b91505092959194509250565b600080600080600060a08688031215611ff457600080fd5b600061200288828901611dcd565b955050602061201388828901611dcd565b945050604061202488828901611dcd565b935050606061203588828901611dcd565b925050608061204688828901611dcd565b9150509295509295909350565b600080600080600060a0868803121561206b57600080fd5b600061207988828901611dcd565b955050602061208a88828901611dcd565b945050604061209b88828901611dcd565b93505060606120ac88828901611dcd565b92505060806120bd88828901611df7565b9150509295509295909350565b600080600080608085870312156120e057600080fd5b60006120ee87828801611dcd565b94505060206120ff87828801611dcd565b935050604061211087828801611df7565b925050606061212187828801611dcd565b91505092959194509250565b60006020828403121561213f57600080fd5b600061214d84828501611df7565b91505092915050565b600080600080600060a0868803121561216e57600080fd5b600061217c88828901611e0c565b955050602061218d88828901611db8565b945050604061219e88828901611de2565b93505060606121af88828901611de2565b92505060806121c088828901611e0c565b9150509295509295909350565b6121d681612558565b82525050565b60006121e9601d83612432565b91507f4f6e6c79207374726963746c7920706f7369746976652076616c7565730000006000830152602082019050919050565b6000612229602483612432565b91507f6f6e6c7920676f7665726e616e63652063616e2063616c6c2074686973206d6560008301527f74686f64000000000000000000000000000000000000000000000000000000006020830152604082019050919050565b600061228f602783612432565b91507f77696e646f772073697a652073686f756c64206265207374726963746c79207060008301527f6f736974697665000000000000000000000000000000000000000000000000006020830152604082019050919050565b6122f1816125a0565b82525050565b612300816125aa565b82525050565b600060208201905061231b60008301846121cd565b92915050565b600060408201905061233660008301856121cd565b61234360208301846122e8565b9392505050565b60006020820190508181036000830152612363816121dc565b9050919050565b600060208201905081810360008301526123838161221c565b9050919050565b600060208201905081810360008301526123a381612282565b9050919050565b60006020820190506123bf60008301846122e8565b92915050565b60006040820190506123da60008301856122e8565b6123e760208301846122e8565b9392505050565b600060408201905061240360008301856122e8565b61241060208301846122f7565b9392505050565b600060208201905061242c60008301846122f7565b92915050565b600082825260208201905092915050565b600061244e826125a0565b9150612459836125a0565b9250827fffffffffffffffffffffffffffffffffffffffffffffffffffffffffffffffff0382111561248e5761248d6125f7565b5b828201905092915050565b60006124a4826125a0565b91506124af836125a0565b9250826124bf576124be612626565b5b828204905092915050565b60006124d5826125a0565b91506124e0836125a0565b9250817fffffffffffffffffffffffffffffffffffffffffffffffffffffffffffffffff0483118215151615612519576125186125f7565b5b828202905092915050565b600061252f826125a0565b915061253a836125a0565b92508282101561254d5761254c6125f7565b5b828203905092915050565b600061256382612580565b9050919050565b60008115159050919050565b6000819050919050565b600073ffffffffffffffffffffffffffffffffffffffff82169050919050565b6000819050919050565b600060ff82169050919050565b600069ffffffffffffffffffff82169050919050565b60006125d8826125a0565b915060008214156125ec576125eb6125f7565b5b600182039050919050565b7f4e487b7100000000000000000000000000000000000000000000000000000000600052601160045260246000fd5b7f4e487b7100000000000000000000000000000000000000000000000000000000600052601260045260246000fd5b61265e81612558565b811461266957600080fd5b50565b6126758161256a565b811461268057600080fd5b50565b61268c81612576565b811461269757600080fd5b50565b6126a3816125a0565b81146126ae57600080fd5b50565b6126ba816125aa565b81146126c557600080fd5b50565b6126d1816125b7565b81146126dc57600080fd5b5056fea2646970667358221220aa5aef56bd6e1a509e597fc4a434b2b41496cc42f000898b15f355fa3fb5deeb64736f6c63430008000033",
          "opcodes": "PUSH1 0x80 PUSH1 0x40 MSTORE PUSH1 0x1 PUSH1 0xB SSTORE CALLVALUE DUP1 ISZERO PUSH3 0x16 JUMPI PUSH1 0x0 DUP1 REVERT JUMPDEST POP PUSH1 0x40 MLOAD PUSH3 0x29DF CODESIZE SUB DUP1 PUSH3 0x29DF DUP4 CODECOPY DUP2 DUP2 ADD PUSH1 0x40 MSTORE DUP2 ADD SWAP1 PUSH3 0x3C SWAP2 SWAP1 PUSH3 0x1C6 JUMP JUMPDEST PUSH1 0x64 DUP5 GT ISZERO PUSH3 0x4B JUMPI PUSH1 0x0 DUP1 REVERT JUMPDEST DUP3 PUSH1 0x0 DUP1 PUSH2 0x100 EXP DUP2 SLOAD DUP2 PUSH20 0xFFFFFFFFFFFFFFFFFFFFFFFFFFFFFFFFFFFFFFFF MUL NOT AND SWAP1 DUP4 PUSH20 0xFFFFFFFFFFFFFFFFFFFFFFFFFFFFFFFFFFFFFFFF AND MUL OR SWAP1 SSTORE POP NUMBER PUSH1 0x4 DUP2 SWAP1 SSTORE POP DUP5 PUSH1 0x3 DUP2 SWAP1 SSTORE POP DUP4 PUSH1 0x2 DUP2 SWAP1 SSTORE POP CALLER PUSH1 0x1 PUSH1 0x0 PUSH2 0x100 EXP DUP2 SLOAD DUP2 PUSH20 0xFFFFFFFFFFFFFFFFFFFFFFFFFFFFFFFFFFFFFFFF MUL NOT AND SWAP1 DUP4 PUSH20 0xFFFFFFFFFFFFFFFFFFFFFFFFFFFFFFFFFFFFFFFF AND MUL OR SWAP1 SSTORE POP PUSH1 0x1 PUSH1 0xB DUP2 SWAP1 SSTORE POP DUP2 PUSH1 0x6 PUSH1 0x0 PUSH2 0x100 EXP DUP2 SLOAD DUP2 PUSH20 0xFFFFFFFFFFFFFFFFFFFFFFFFFFFFFFFFFFFFFFFF MUL NOT AND SWAP1 DUP4 PUSH20 0xFFFFFFFFFFFFFFFFFFFFFFFFFFFFFFFFFFFFFFFF AND MUL OR SWAP1 SSTORE POP PUSH1 0x8 PUSH1 0x0 SWAP1 SLOAD SWAP1 PUSH2 0x100 EXP SWAP1 DIV PUSH20 0xFFFFFFFFFFFFFFFFFFFFFFFFFFFFFFFFFFFFFFFF AND PUSH1 0x7 PUSH1 0x0 PUSH2 0x100 EXP DUP2 SLOAD DUP2 PUSH20 0xFFFFFFFFFFFFFFFFFFFFFFFFFFFFFFFFFFFFFFFF MUL NOT AND SWAP1 DUP4 PUSH20 0xFFFFFFFFFFFFFFFFFFFFFFFFFFFFFFFFFFFFFFFF AND MUL OR SWAP1 SSTORE POP POP POP POP POP POP PUSH3 0x2BA JUMP JUMPDEST PUSH1 0x0 DUP2 MLOAD SWAP1 POP PUSH3 0x1A9 DUP2 PUSH3 0x286 JUMP JUMPDEST SWAP3 SWAP2 POP POP JUMP JUMPDEST PUSH1 0x0 DUP2 MLOAD SWAP1 POP PUSH3 0x1C0 DUP2 PUSH3 0x2A0 JUMP JUMPDEST SWAP3 SWAP2 POP POP JUMP JUMPDEST PUSH1 0x0 DUP1 PUSH1 0x0 DUP1 PUSH1 0x0 PUSH1 0xA0 DUP7 DUP9 SUB SLT ISZERO PUSH3 0x1DF JUMPI PUSH1 0x0 DUP1 REVERT JUMPDEST PUSH1 0x0 PUSH3 0x1EF DUP9 DUP3 DUP10 ADD PUSH3 0x1AF JUMP JUMPDEST SWAP6 POP POP PUSH1 0x20 PUSH3 0x202 DUP9 DUP3 DUP10 ADD PUSH3 0x1AF JUMP JUMPDEST SWAP5 POP POP PUSH1 0x40 PUSH3 0x215 DUP9 DUP3 DUP10 ADD PUSH3 0x198 JUMP JUMPDEST SWAP4 POP POP PUSH1 0x60 PUSH3 0x228 DUP9 DUP3 DUP10 ADD PUSH3 0x198 JUMP JUMPDEST SWAP3 POP POP PUSH1 0x80 PUSH3 0x23B DUP9 DUP3 DUP10 ADD PUSH3 0x198 JUMP JUMPDEST SWAP2 POP POP SWAP3 SWAP6 POP SWAP3 SWAP6 SWAP1 SWAP4 POP JUMP JUMPDEST PUSH1 0x0 PUSH3 0x255 DUP3 PUSH3 0x25C JUMP JUMPDEST SWAP1 POP SWAP2 SWAP1 POP JUMP JUMPDEST PUSH1 0x0 PUSH20 0xFFFFFFFFFFFFFFFFFFFFFFFFFFFFFFFFFFFFFFFF DUP3 AND SWAP1 POP SWAP2 SWAP1 POP JUMP JUMPDEST PUSH1 0x0 DUP2 SWAP1 POP SWAP2 SWAP1 POP JUMP JUMPDEST PUSH3 0x291 DUP2 PUSH3 0x248 JUMP JUMPDEST DUP2 EQ PUSH3 0x29D JUMPI PUSH1 0x0 DUP1 REVERT JUMPDEST POP JUMP JUMPDEST PUSH3 0x2AB DUP2 PUSH3 0x27C JUMP JUMPDEST DUP2 EQ PUSH3 0x2B7 JUMPI PUSH1 0x0 DUP1 REVERT JUMPDEST POP JUMP JUMPDEST PUSH2 0x2715 DUP1 PUSH3 0x2CA PUSH1 0x0 CODECOPY PUSH1 0x0 RETURN INVALID PUSH1 0x80 PUSH1 0x40 MSTORE PUSH1 0x4 CALLDATASIZE LT PUSH2 0x1B7 JUMPI PUSH1 0x0 CALLDATALOAD PUSH1 0xE0 SHR DUP1 PUSH4 0x80962668 GT PUSH2 0xEC JUMPI DUP1 PUSH4 0xCA055E53 GT PUSH2 0x8A JUMPI DUP1 PUSH4 0xE0A5CEE3 GT PUSH2 0x64 JUMPI DUP1 PUSH4 0xE0A5CEE3 EQ PUSH2 0x69F JUMPI DUP1 PUSH4 0xE0D65D87 EQ PUSH2 0x6CA JUMPI DUP1 PUSH4 0xF52818F0 EQ PUSH2 0x707 JUMPI DUP1 PUSH4 0xF83B35FB EQ PUSH2 0x730 JUMPI PUSH2 0x1B7 JUMP JUMPDEST DUP1 PUSH4 0xCA055E53 EQ PUSH2 0x5F9 JUMPI DUP1 PUSH4 0xDAAAC9D2 EQ PUSH2 0x637 JUMPI DUP1 PUSH4 0xDDCA3F43 EQ PUSH2 0x674 JUMPI PUSH2 0x1B7 JUMP JUMPDEST DUP1 PUSH4 0x9626A230 GT PUSH2 0xC6 JUMPI DUP1 PUSH4 0x9626A230 EQ PUSH2 0x517 JUMPI DUP1 PUSH4 0x99572D6F EQ PUSH2 0x555 JUMPI DUP1 PUSH4 0xAC4AFA38 EQ PUSH2 0x57E JUMPI DUP1 PUSH4 0xB47A3566 EQ PUSH2 0x5BC JUMPI PUSH2 0x1B7 JUMP JUMPDEST DUP1 PUSH4 0x80962668 EQ PUSH2 0x472 JUMPI DUP1 PUSH4 0x849CD1C7 EQ PUSH2 0x49D JUMPI DUP1 PUSH4 0x89B808A7 EQ PUSH2 0x4DA JUMPI PUSH2 0x1B7 JUMP JUMPDEST DUP1 PUSH4 0x43046844 GT PUSH2 0x159 JUMPI DUP1 PUSH4 0x5C11FF7A GT PUSH2 0x133 JUMPI DUP1 PUSH4 0x5C11FF7A EQ PUSH2 0x3C8 JUMPI DUP1 PUSH4 0x673A7E28 EQ PUSH2 0x3F3 JUMPI DUP1 PUSH4 0x71A42207 EQ PUSH2 0x40A JUMPI DUP1 PUSH4 0x8068AA68 EQ PUSH2 0x435 JUMPI PUSH2 0x1B7 JUMP JUMPDEST DUP1 PUSH4 0x43046844 EQ PUSH2 0x344 JUMPI DUP1 PUSH4 0x576FE42F EQ PUSH2 0x360 JUMPI DUP1 PUSH4 0x587F5ED7 EQ PUSH2 0x39D JUMPI PUSH2 0x1B7 JUMP JUMPDEST DUP1 PUSH4 0x231B0268 GT PUSH2 0x195 JUMPI DUP1 PUSH4 0x231B0268 EQ PUSH2 0x275 JUMPI DUP1 PUSH4 0x2FF284C2 EQ PUSH2 0x2A0 JUMPI DUP1 PUSH4 0x3937EA4F EQ PUSH2 0x2DD JUMPI DUP1 PUSH4 0x40B8405A EQ PUSH2 0x31B JUMPI PUSH2 0x1B7 JUMP JUMPDEST DUP1 PUSH4 0xED6CA29 EQ PUSH2 0x1BC JUMPI DUP1 PUSH4 0xEFF4D88 EQ PUSH2 0x1FA JUMPI DUP1 PUSH4 0x1BB5ABF9 EQ PUSH2 0x238 JUMPI JUMPDEST PUSH1 0x0 DUP1 REVERT JUMPDEST CALLVALUE DUP1 ISZERO PUSH2 0x1C8 JUMPI PUSH1 0x0 DUP1 REVERT JUMPDEST POP PUSH2 0x1E3 PUSH1 0x4 DUP1 CALLDATASIZE SUB DUP2 ADD SWAP1 PUSH2 0x1DE SWAP2 SWAP1 PUSH2 0x20CA JUMP JUMPDEST PUSH2 0x76E JUMP JUMPDEST PUSH1 0x40 MLOAD PUSH2 0x1F1 SWAP3 SWAP2 SWAP1 PUSH2 0x23C5 JUMP JUMPDEST PUSH1 0x40 MLOAD DUP1 SWAP2 SUB SWAP1 RETURN JUMPDEST CALLVALUE DUP1 ISZERO PUSH2 0x206 JUMPI PUSH1 0x0 DUP1 REVERT JUMPDEST POP PUSH2 0x221 PUSH1 0x4 DUP1 CALLDATASIZE SUB DUP2 ADD SWAP1 PUSH2 0x21C SWAP2 SWAP1 PUSH2 0x1EAF JUMP JUMPDEST PUSH2 0x8DB JUMP JUMPDEST PUSH1 0x40 MLOAD PUSH2 0x22F SWAP3 SWAP2 SWAP1 PUSH2 0x23C5 JUMP JUMPDEST PUSH1 0x40 MLOAD DUP1 SWAP2 SUB SWAP1 RETURN JUMPDEST CALLVALUE DUP1 ISZERO PUSH2 0x244 JUMPI PUSH1 0x0 DUP1 REVERT JUMPDEST POP PUSH2 0x25F PUSH1 0x4 DUP1 CALLDATASIZE SUB DUP2 ADD SWAP1 PUSH2 0x25A SWAP2 SWAP1 PUSH2 0x1F3D JUMP JUMPDEST PUSH2 0x928 JUMP JUMPDEST PUSH1 0x40 MLOAD PUSH2 0x26C SWAP2 SWAP1 PUSH2 0x2417 JUMP JUMPDEST PUSH1 0x40 MLOAD DUP1 SWAP2 SUB SWAP1 RETURN JUMPDEST CALLVALUE DUP1 ISZERO PUSH2 0x281 JUMPI PUSH1 0x0 DUP1 REVERT JUMPDEST POP PUSH2 0x28A PUSH2 0x957 JUMP JUMPDEST PUSH1 0x40 MLOAD PUSH2 0x297 SWAP2 SWAP1 PUSH2 0x23AA JUMP JUMPDEST PUSH1 0x40 MLOAD DUP1 SWAP2 SUB SWAP1 RETURN JUMPDEST CALLVALUE DUP1 ISZERO PUSH2 0x2AC JUMPI PUSH1 0x0 DUP1 REVERT JUMPDEST POP PUSH2 0x2C7 PUSH1 0x4 DUP1 CALLDATASIZE SUB DUP2 ADD SWAP1 PUSH2 0x2C2 SWAP2 SWAP1 PUSH2 0x1F3D JUMP JUMPDEST PUSH2 0x95D JUMP JUMPDEST PUSH1 0x40 MLOAD PUSH2 0x2D4 SWAP2 SWAP1 PUSH2 0x23AA JUMP JUMPDEST PUSH1 0x40 MLOAD DUP1 SWAP2 SUB SWAP1 RETURN JUMPDEST CALLVALUE DUP1 ISZERO PUSH2 0x2E9 JUMPI PUSH1 0x0 DUP1 REVERT JUMPDEST POP PUSH2 0x304 PUSH1 0x4 DUP1 CALLDATASIZE SUB DUP2 ADD SWAP1 PUSH2 0x2FF SWAP2 SWAP1 PUSH2 0x1E4A JUMP JUMPDEST PUSH2 0x97F JUMP JUMPDEST PUSH1 0x40 MLOAD PUSH2 0x312 SWAP3 SWAP2 SWAP1 PUSH2 0x23C5 JUMP JUMPDEST PUSH1 0x40 MLOAD DUP1 SWAP2 SUB SWAP1 RETURN JUMPDEST CALLVALUE DUP1 ISZERO PUSH2 0x327 JUMPI PUSH1 0x0 DUP1 REVERT JUMPDEST POP PUSH2 0x342 PUSH1 0x4 DUP1 CALLDATASIZE SUB DUP2 ADD SWAP1 PUSH2 0x33D SWAP2 SWAP1 PUSH2 0x1E21 JUMP JUMPDEST PUSH2 0x9B0 JUMP JUMPDEST STOP JUMPDEST PUSH2 0x35E PUSH1 0x4 DUP1 CALLDATASIZE SUB DUP2 ADD SWAP1 PUSH2 0x359 SWAP2 SWAP1 PUSH2 0x212D JUMP JUMPDEST PUSH2 0x1122 JUMP JUMPDEST STOP JUMPDEST CALLVALUE DUP1 ISZERO PUSH2 0x36C JUMPI PUSH1 0x0 DUP1 REVERT JUMPDEST POP PUSH2 0x387 PUSH1 0x4 DUP1 CALLDATASIZE SUB DUP2 ADD SWAP1 PUSH2 0x382 SWAP2 SWAP1 PUSH2 0x1FDC JUMP JUMPDEST PUSH2 0x14EB JUMP JUMPDEST PUSH1 0x40 MLOAD PUSH2 0x394 SWAP2 SWAP1 PUSH2 0x23AA JUMP JUMPDEST PUSH1 0x40 MLOAD DUP1 SWAP2 SUB SWAP1 RETURN JUMPDEST CALLVALUE DUP1 ISZERO PUSH2 0x3A9 JUMPI PUSH1 0x0 DUP1 REVERT JUMPDEST POP PUSH2 0x3B2 PUSH2 0x1537 JUMP JUMPDEST PUSH1 0x40 MLOAD PUSH2 0x3BF SWAP2 SWAP1 PUSH2 0x23AA JUMP JUMPDEST PUSH1 0x40 MLOAD DUP1 SWAP2 SUB SWAP1 RETURN JUMPDEST CALLVALUE DUP1 ISZERO PUSH2 0x3D4 JUMPI PUSH1 0x0 DUP1 REVERT JUMPDEST POP PUSH2 0x3DD PUSH2 0x153D JUMP JUMPDEST PUSH1 0x40 MLOAD PUSH2 0x3EA SWAP2 SWAP1 PUSH2 0x23AA JUMP JUMPDEST PUSH1 0x40 MLOAD DUP1 SWAP2 SUB SWAP1 RETURN JUMPDEST CALLVALUE DUP1 ISZERO PUSH2 0x3FF JUMPI PUSH1 0x0 DUP1 REVERT JUMPDEST POP PUSH2 0x408 PUSH2 0x1543 JUMP JUMPDEST STOP JUMPDEST CALLVALUE DUP1 ISZERO PUSH2 0x416 JUMPI PUSH1 0x0 DUP1 REVERT JUMPDEST POP PUSH2 0x41F PUSH2 0x15E6 JUMP JUMPDEST PUSH1 0x40 MLOAD PUSH2 0x42C SWAP2 SWAP1 PUSH2 0x23AA JUMP JUMPDEST PUSH1 0x40 MLOAD DUP1 SWAP2 SUB SWAP1 RETURN JUMPDEST CALLVALUE DUP1 ISZERO PUSH2 0x441 JUMPI PUSH1 0x0 DUP1 REVERT JUMPDEST POP PUSH2 0x45C PUSH1 0x4 DUP1 CALLDATASIZE SUB DUP2 ADD SWAP1 PUSH2 0x457 SWAP2 SWAP1 PUSH2 0x1E4A JUMP JUMPDEST PUSH2 0x15F3 JUMP JUMPDEST PUSH1 0x40 MLOAD PUSH2 0x469 SWAP2 SWAP1 PUSH2 0x23AA JUMP JUMPDEST PUSH1 0x40 MLOAD DUP1 SWAP2 SUB SWAP1 RETURN JUMPDEST CALLVALUE DUP1 ISZERO PUSH2 0x47E JUMPI PUSH1 0x0 DUP1 REVERT JUMPDEST POP PUSH2 0x487 PUSH2 0x1624 JUMP JUMPDEST PUSH1 0x40 MLOAD PUSH2 0x494 SWAP2 SWAP1 PUSH2 0x23AA JUMP JUMPDEST PUSH1 0x40 MLOAD DUP1 SWAP2 SUB SWAP1 RETURN JUMPDEST CALLVALUE DUP1 ISZERO PUSH2 0x4A9 JUMPI PUSH1 0x0 DUP1 REVERT JUMPDEST POP PUSH2 0x4C4 PUSH1 0x4 DUP1 CALLDATASIZE SUB DUP2 ADD SWAP1 PUSH2 0x4BF SWAP2 SWAP1 PUSH2 0x1F79 JUMP JUMPDEST PUSH2 0x162A JUMP JUMPDEST PUSH1 0x40 MLOAD PUSH2 0x4D1 SWAP2 SWAP1 PUSH2 0x23AA JUMP JUMPDEST PUSH1 0x40 MLOAD DUP1 SWAP2 SUB SWAP1 RETURN JUMPDEST CALLVALUE DUP1 ISZERO PUSH2 0x4E6 JUMPI PUSH1 0x0 DUP1 REVERT JUMPDEST POP PUSH2 0x501 PUSH1 0x4 DUP1 CALLDATASIZE SUB DUP2 ADD SWAP1 PUSH2 0x4FC SWAP2 SWAP1 PUSH2 0x1E21 JUMP JUMPDEST PUSH2 0x1664 JUMP JUMPDEST PUSH1 0x40 MLOAD PUSH2 0x50E SWAP2 SWAP1 PUSH2 0x23AA JUMP JUMPDEST PUSH1 0x40 MLOAD DUP1 SWAP2 SUB SWAP1 RETURN JUMPDEST CALLVALUE DUP1 ISZERO PUSH2 0x523 JUMPI PUSH1 0x0 DUP1 REVERT JUMPDEST POP PUSH2 0x53E PUSH1 0x4 DUP1 CALLDATASIZE SUB DUP2 ADD SWAP1 PUSH2 0x539 SWAP2 SWAP1 PUSH2 0x1F01 JUMP JUMPDEST PUSH2 0x16B0 JUMP JUMPDEST PUSH1 0x40 MLOAD PUSH2 0x54C SWAP3 SWAP2 SWAP1 PUSH2 0x23C5 JUMP JUMPDEST PUSH1 0x40 MLOAD DUP1 SWAP2 SUB SWAP1 RETURN JUMPDEST CALLVALUE DUP1 ISZERO PUSH2 0x561 JUMPI PUSH1 0x0 DUP1 REVERT JUMPDEST POP PUSH2 0x57C PUSH1 0x4 DUP1 CALLDATASIZE SUB DUP2 ADD SWAP1 PUSH2 0x577 SWAP2 SWAP1 PUSH2 0x1E21 JUMP JUMPDEST PUSH2 0x173C JUMP JUMPDEST STOP JUMPDEST CALLVALUE DUP1 ISZERO PUSH2 0x58A JUMPI PUSH1 0x0 DUP1 REVERT JUMPDEST POP PUSH2 0x5A5 PUSH1 0x4 DUP1 CALLDATASIZE SUB DUP2 ADD SWAP1 PUSH2 0x5A0 SWAP2 SWAP1 PUSH2 0x1EAF JUMP JUMPDEST PUSH2 0x1810 JUMP JUMPDEST PUSH1 0x40 MLOAD PUSH2 0x5B3 SWAP3 SWAP2 SWAP1 PUSH2 0x23C5 JUMP JUMPDEST PUSH1 0x40 MLOAD DUP1 SWAP2 SUB SWAP1 RETURN JUMPDEST CALLVALUE DUP1 ISZERO PUSH2 0x5C8 JUMPI PUSH1 0x0 DUP1 REVERT JUMPDEST POP PUSH2 0x5E3 PUSH1 0x4 DUP1 CALLDATASIZE SUB DUP2 ADD SWAP1 PUSH2 0x5DE SWAP2 SWAP1 PUSH2 0x1E4A JUMP JUMPDEST PUSH2 0x1834 JUMP JUMPDEST PUSH1 0x40 MLOAD PUSH2 0x5F0 SWAP2 SWAP1 PUSH2 0x23AA JUMP JUMPDEST PUSH1 0x40 MLOAD DUP1 SWAP2 SUB SWAP1 RETURN JUMPDEST CALLVALUE DUP1 ISZERO PUSH2 0x605 JUMPI PUSH1 0x0 DUP1 REVERT JUMPDEST POP PUSH2 0x620 PUSH1 0x4 DUP1 CALLDATASIZE SUB DUP2 ADD SWAP1 PUSH2 0x61B SWAP2 SWAP1 PUSH2 0x2053 JUMP JUMPDEST PUSH2 0x18C0 JUMP JUMPDEST PUSH1 0x40 MLOAD PUSH2 0x62E SWAP3 SWAP2 SWAP1 PUSH2 0x23C5 JUMP JUMPDEST PUSH1 0x40 MLOAD DUP1 SWAP2 SUB SWAP1 RETURN JUMPDEST CALLVALUE DUP1 ISZERO PUSH2 0x643 JUMPI PUSH1 0x0 DUP1 REVERT JUMPDEST POP PUSH2 0x65E PUSH1 0x4 DUP1 CALLDATASIZE SUB DUP2 ADD SWAP1 PUSH2 0x659 SWAP2 SWAP1 PUSH2 0x1F79 JUMP JUMPDEST PUSH2 0x1AEF JUMP JUMPDEST PUSH1 0x40 MLOAD PUSH2 0x66B SWAP2 SWAP1 PUSH2 0x23AA JUMP JUMPDEST PUSH1 0x40 MLOAD DUP1 SWAP2 SUB SWAP1 RETURN JUMPDEST CALLVALUE DUP1 ISZERO PUSH2 0x680 JUMPI PUSH1 0x0 DUP1 REVERT JUMPDEST POP PUSH2 0x689 PUSH2 0x1B25 JUMP JUMPDEST PUSH1 0x40 MLOAD PUSH2 0x696 SWAP2 SWAP1 PUSH2 0x23AA JUMP JUMPDEST PUSH1 0x40 MLOAD DUP1 SWAP2 SUB SWAP1 RETURN JUMPDEST CALLVALUE DUP1 ISZERO PUSH2 0x6AB JUMPI PUSH1 0x0 DUP1 REVERT JUMPDEST POP PUSH2 0x6B4 PUSH2 0x1B2B JUMP JUMPDEST PUSH1 0x40 MLOAD PUSH2 0x6C1 SWAP2 SWAP1 PUSH2 0x23AA JUMP JUMPDEST PUSH1 0x40 MLOAD DUP1 SWAP2 SUB SWAP1 RETURN JUMPDEST CALLVALUE DUP1 ISZERO PUSH2 0x6D6 JUMPI PUSH1 0x0 DUP1 REVERT JUMPDEST POP PUSH2 0x6F1 PUSH1 0x4 DUP1 CALLDATASIZE SUB DUP2 ADD SWAP1 PUSH2 0x6EC SWAP2 SWAP1 PUSH2 0x1EAF JUMP JUMPDEST PUSH2 0x1B31 JUMP JUMPDEST PUSH1 0x40 MLOAD PUSH2 0x6FE SWAP2 SWAP1 PUSH2 0x23AA JUMP JUMPDEST PUSH1 0x40 MLOAD DUP1 SWAP2 SUB SWAP1 RETURN JUMPDEST CALLVALUE DUP1 ISZERO PUSH2 0x713 JUMPI PUSH1 0x0 DUP1 REVERT JUMPDEST POP PUSH2 0x72E PUSH1 0x4 DUP1 CALLDATASIZE SUB DUP2 ADD SWAP1 PUSH2 0x729 SWAP2 SWAP1 PUSH2 0x1EAF JUMP JUMPDEST PUSH2 0x1B49 JUMP JUMPDEST STOP JUMPDEST CALLVALUE DUP1 ISZERO PUSH2 0x73C JUMPI PUSH1 0x0 DUP1 REVERT JUMPDEST POP PUSH2 0x757 PUSH1 0x4 DUP1 CALLDATASIZE SUB DUP2 ADD SWAP1 PUSH2 0x752 SWAP2 SWAP1 PUSH2 0x1EAF JUMP JUMPDEST PUSH2 0x1C72 JUMP JUMPDEST PUSH1 0x40 MLOAD PUSH2 0x765 SWAP3 SWAP2 SWAP1 PUSH2 0x23C5 JUMP JUMPDEST PUSH1 0x40 MLOAD DUP1 SWAP2 SUB SWAP1 RETURN JUMPDEST PUSH1 0x0 DUP1 PUSH1 0x0 DUP5 PUSH1 0xFF AND PUSH1 0x1 DUP2 GT ISZERO PUSH2 0x7AF JUMPI PUSH32 0x4E487B7100000000000000000000000000000000000000000000000000000000 PUSH1 0x0 MSTORE PUSH1 0x21 PUSH1 0x4 MSTORE PUSH1 0x24 PUSH1 0x0 REVERT JUMPDEST SWAP1 POP PUSH1 0x0 PUSH1 0x1 DUP2 GT ISZERO PUSH2 0x7EB JUMPI PUSH32 0x4E487B7100000000000000000000000000000000000000000000000000000000 PUSH1 0x0 MSTORE PUSH1 0x21 PUSH1 0x4 MSTORE PUSH1 0x24 PUSH1 0x0 REVERT JUMPDEST DUP2 PUSH1 0x1 DUP2 GT ISZERO PUSH2 0x824 JUMPI PUSH32 0x4E487B7100000000000000000000000000000000000000000000000000000000 PUSH1 0x0 MSTORE PUSH1 0x21 PUSH1 0x4 MSTORE PUSH1 0x24 PUSH1 0x0 REVERT JUMPDEST EQ ISZERO PUSH2 0x841 JUMPI DUP4 DUP8 PUSH2 0x836 SWAP2 SWAP1 PUSH2 0x2443 JUMP JUMPDEST DUP7 SWAP3 POP SWAP3 POP POP PUSH2 0x8D2 JUMP JUMPDEST PUSH1 0x1 DUP1 DUP2 GT ISZERO PUSH2 0x87A JUMPI PUSH32 0x4E487B7100000000000000000000000000000000000000000000000000000000 PUSH1 0x0 MSTORE PUSH1 0x21 PUSH1 0x4 MSTORE PUSH1 0x24 PUSH1 0x0 REVERT JUMPDEST DUP2 PUSH1 0x1 DUP2 GT ISZERO PUSH2 0x8B3 JUMPI PUSH32 0x4E487B7100000000000000000000000000000000000000000000000000000000 PUSH1 0x0 MSTORE PUSH1 0x21 PUSH1 0x4 MSTORE PUSH1 0x24 PUSH1 0x0 REVERT JUMPDEST EQ ISZERO PUSH2 0x8D0 JUMPI DUP7 DUP5 DUP8 PUSH2 0x8C6 SWAP2 SWAP1 PUSH2 0x2443 JUMP JUMPDEST SWAP3 POP SWAP3 POP POP PUSH2 0x8D2 JUMP JUMPDEST POP JUMPDEST SWAP5 POP SWAP5 SWAP3 POP POP POP JUMP JUMPDEST PUSH1 0x0 DUP1 PUSH1 0x0 PUSH1 0x9 PUSH1 0x0 DUP6 DUP2 MSTORE PUSH1 0x20 ADD SWAP1 DUP2 MSTORE PUSH1 0x20 ADD PUSH1 0x0 KECCAK256 PUSH1 0x40 MLOAD DUP1 PUSH1 0x40 ADD PUSH1 0x40 MSTORE SWAP1 DUP2 PUSH1 0x0 DUP3 ADD SLOAD DUP2 MSTORE PUSH1 0x20 ADD PUSH1 0x1 DUP3 ADD SLOAD DUP2 MSTORE POP POP SWAP1 POP DUP1 PUSH1 0x0 ADD MLOAD DUP2 PUSH1 0x20 ADD MLOAD SWAP3 POP SWAP3 POP POP SWAP2 POP SWAP2 JUMP JUMPDEST PUSH1 0x0 DUP3 DUP3 LT ISZERO PUSH2 0x93B JUMPI PUSH1 0x0 SWAP1 POP PUSH2 0x951 JUMP JUMPDEST DUP3 DUP3 GT ISZERO PUSH2 0x94C JUMPI PUSH1 0x1 SWAP1 POP PUSH2 0x951 JUMP JUMPDEST PUSH1 0x2 SWAP1 POP JUMPDEST SWAP3 SWAP2 POP POP JUMP JUMPDEST PUSH1 0x4 SLOAD DUP2 JUMP JUMPDEST PUSH1 0x0 PUSH1 0x64 DUP3 DUP5 PUSH2 0x96D SWAP2 SWAP1 PUSH2 0x24CA JUMP JUMPDEST PUSH2 0x977 SWAP2 SWAP1 PUSH2 0x2499 JUMP JUMPDEST SWAP1 POP SWAP3 SWAP2 POP POP JUMP JUMPDEST PUSH1 0xE PUSH1 0x20 MSTORE DUP2 PUSH1 0x0 MSTORE PUSH1 0x40 PUSH1 0x0 KECCAK256 PUSH1 0x20 MSTORE DUP1 PUSH1 0x0 MSTORE PUSH1 0x40 PUSH1 0x0 KECCAK256 PUSH1 0x0 SWAP2 POP SWAP2 POP POP DUP1 PUSH1 0x0 ADD SLOAD SWAP1 DUP1 PUSH1 0x1 ADD SLOAD SWAP1 POP DUP3 JUMP JUMPDEST PUSH1 0x0 PUSH1 0xF PUSH1 0x0 DUP4 PUSH20 0xFFFFFFFFFFFFFFFFFFFFFFFFFFFFFFFFFFFFFFFF AND PUSH20 0xFFFFFFFFFFFFFFFFFFFFFFFFFFFFFFFFFFFFFFFF AND DUP2 MSTORE PUSH1 0x20 ADD SWAP1 DUP2 MSTORE PUSH1 0x20 ADD PUSH1 0x0 KECCAK256 SWAP1 POP PUSH1 0x0 DUP2 DUP1 SLOAD SWAP1 POP EQ ISZERO PUSH2 0xA06 JUMPI POP PUSH2 0x111F JUMP JUMPDEST PUSH1 0x0 DUP1 DUP3 DUP1 SLOAD SWAP1 POP SWAP1 POP JUMPDEST PUSH1 0x0 DUP2 GT ISZERO PUSH2 0x1033 JUMPI PUSH1 0x0 DUP4 PUSH1 0x1 DUP4 PUSH2 0xA2A SWAP2 SWAP1 PUSH2 0x2524 JUMP JUMPDEST DUP2 SLOAD DUP2 LT PUSH2 0xA61 JUMPI PUSH32 0x4E487B7100000000000000000000000000000000000000000000000000000000 PUSH1 0x0 MSTORE PUSH1 0x32 PUSH1 0x4 MSTORE PUSH1 0x24 PUSH1 0x0 REVERT JUMPDEST SWAP1 PUSH1 0x0 MSTORE PUSH1 0x20 PUSH1 0x0 KECCAK256 ADD SLOAD SWAP1 POP PUSH1 0x0 PUSH2 0xA85 NUMBER PUSH1 0x3 SLOAD PUSH1 0x4 SLOAD PUSH1 0xC SLOAD PUSH1 0xB SLOAD PUSH2 0x14EB JUMP JUMPDEST SWAP1 POP PUSH1 0x2 DUP3 PUSH2 0xA94 SWAP2 SWAP1 PUSH2 0x2443 JUMP JUMPDEST DUP2 LT ISZERO PUSH2 0xAA2 JUMPI POP POP PUSH2 0x1020 JUMP JUMPDEST PUSH1 0x0 DUP1 PUSH2 0xAAE DUP5 PUSH2 0x1C72 JUMP JUMPDEST SWAP2 POP SWAP2 POP PUSH1 0x0 DUP2 EQ DUP1 ISZERO PUSH2 0xACD JUMPI POP PUSH1 0x3 DUP5 PUSH2 0xACA SWAP2 SWAP1 PUSH2 0x2443 JUMP JUMPDEST DUP4 LT JUMPDEST ISZERO PUSH2 0xADB JUMPI POP POP POP POP PUSH2 0x1020 JUMP JUMPDEST PUSH1 0x0 PUSH2 0xAE7 DUP4 DUP4 PUSH2 0x928 JUMP JUMPDEST SWAP1 POP PUSH1 0x0 DUP4 EQ DUP1 PUSH2 0xAF8 JUMPI POP PUSH1 0x0 DUP3 EQ JUMPDEST ISZERO PUSH2 0xB02 JUMPI PUSH1 0x2 SWAP1 POP JUMPDEST DUP8 PUSH1 0x1 DUP10 DUP1 SLOAD SWAP1 POP PUSH2 0xB14 SWAP2 SWAP1 PUSH2 0x2524 JUMP JUMPDEST DUP2 SLOAD DUP2 LT PUSH2 0xB4B JUMPI PUSH32 0x4E487B7100000000000000000000000000000000000000000000000000000000 PUSH1 0x0 MSTORE PUSH1 0x32 PUSH1 0x4 MSTORE PUSH1 0x24 PUSH1 0x0 REVERT JUMPDEST SWAP1 PUSH1 0x0 MSTORE PUSH1 0x20 PUSH1 0x0 KECCAK256 ADD SLOAD DUP9 PUSH1 0x1 DUP9 PUSH2 0xB64 SWAP2 SWAP1 PUSH2 0x2524 JUMP JUMPDEST DUP2 SLOAD DUP2 LT PUSH2 0xB9B JUMPI PUSH32 0x4E487B7100000000000000000000000000000000000000000000000000000000 PUSH1 0x0 MSTORE PUSH1 0x32 PUSH1 0x4 MSTORE PUSH1 0x24 PUSH1 0x0 REVERT JUMPDEST SWAP1 PUSH1 0x0 MSTORE PUSH1 0x20 PUSH1 0x0 KECCAK256 ADD DUP2 SWAP1 SSTORE POP DUP8 DUP1 SLOAD DUP1 PUSH2 0xBE0 JUMPI PUSH32 0x4E487B7100000000000000000000000000000000000000000000000000000000 PUSH1 0x0 MSTORE PUSH1 0x31 PUSH1 0x4 MSTORE PUSH1 0x24 PUSH1 0x0 REVERT JUMPDEST PUSH1 0x1 SWAP1 SUB DUP2 DUP2 SWAP1 PUSH1 0x0 MSTORE PUSH1 0x20 PUSH1 0x0 KECCAK256 ADD PUSH1 0x0 SWAP1 SSTORE SWAP1 SSTORE PUSH1 0x0 PUSH1 0xE PUSH1 0x0 DUP12 PUSH20 0xFFFFFFFFFFFFFFFFFFFFFFFFFFFFFFFFFFFFFFFF AND PUSH20 0xFFFFFFFFFFFFFFFFFFFFFFFFFFFFFFFFFFFFFFFF AND DUP2 MSTORE PUSH1 0x20 ADD SWAP1 DUP2 MSTORE PUSH1 0x20 ADD PUSH1 0x0 KECCAK256 PUSH1 0x0 DUP8 DUP2 MSTORE PUSH1 0x20 ADD SWAP1 DUP2 MSTORE PUSH1 0x20 ADD PUSH1 0x0 KECCAK256 PUSH1 0x40 MLOAD DUP1 PUSH1 0x40 ADD PUSH1 0x40 MSTORE SWAP1 DUP2 PUSH1 0x0 DUP3 ADD SLOAD DUP2 MSTORE PUSH1 0x20 ADD PUSH1 0x1 DUP3 ADD SLOAD DUP2 MSTORE POP POP SWAP1 POP PUSH1 0x0 PUSH1 0x9 PUSH1 0x0 DUP9 DUP2 MSTORE PUSH1 0x20 ADD SWAP1 DUP2 MSTORE PUSH1 0x20 ADD PUSH1 0x0 KECCAK256 PUSH1 0x40 MLOAD DUP1 PUSH1 0x40 ADD PUSH1 0x40 MSTORE SWAP1 DUP2 PUSH1 0x0 DUP3 ADD SLOAD DUP2 MSTORE PUSH1 0x20 ADD PUSH1 0x1 DUP3 ADD SLOAD DUP2 MSTORE POP POP SWAP1 POP PUSH1 0x0 DUP1 PUSH2 0xCBF DUP5 PUSH1 0x20 ADD MLOAD DUP6 PUSH1 0x0 ADD MLOAD DUP6 PUSH1 0x20 ADD MLOAD DUP7 PUSH1 0x0 ADD MLOAD DUP10 PUSH2 0x18C0 JUMP JUMPDEST SWAP2 POP SWAP2 POP DUP2 DUP12 PUSH2 0xCCF SWAP2 SWAP1 PUSH2 0x2443 JUMP JUMPDEST SWAP11 POP DUP1 PUSH1 0xD SLOAD PUSH2 0xCDF SWAP2 SWAP1 PUSH2 0x2443 JUMP JUMPDEST PUSH1 0xD DUP2 SWAP1 SSTORE POP PUSH1 0x0 PUSH2 0xD03 DUP6 PUSH1 0x20 ADD MLOAD DUP7 PUSH1 0x0 ADD MLOAD DUP7 PUSH1 0x20 ADD MLOAD DUP8 PUSH1 0x0 ADD MLOAD PUSH2 0x1AEF JUMP JUMPDEST SWAP1 POP DUP1 PUSH1 0x7 PUSH1 0x0 SWAP1 SLOAD SWAP1 PUSH2 0x100 EXP SWAP1 DIV PUSH20 0xFFFFFFFFFFFFFFFFFFFFFFFFFFFFFFFFFFFFFFFF AND PUSH20 0xFFFFFFFFFFFFFFFFFFFFFFFFFFFFFFFFFFFFFFFF AND PUSH4 0x70A08231 ADDRESS PUSH1 0x40 MLOAD DUP3 PUSH4 0xFFFFFFFF AND PUSH1 0xE0 SHL DUP2 MSTORE PUSH1 0x4 ADD PUSH2 0xD61 SWAP2 SWAP1 PUSH2 0x2306 JUMP JUMPDEST PUSH1 0x20 PUSH1 0x40 MLOAD DUP1 DUP4 SUB DUP2 DUP7 DUP1 EXTCODESIZE ISZERO DUP1 ISZERO PUSH2 0xD79 JUMPI PUSH1 0x0 DUP1 REVERT JUMPDEST POP GAS STATICCALL ISZERO DUP1 ISZERO PUSH2 0xD8D JUMPI RETURNDATASIZE PUSH1 0x0 DUP1 RETURNDATACOPY RETURNDATASIZE PUSH1 0x0 REVERT JUMPDEST POP POP POP POP PUSH1 0x40 MLOAD RETURNDATASIZE PUSH1 0x1F NOT PUSH1 0x1F DUP3 ADD AND DUP3 ADD DUP1 PUSH1 0x40 MSTORE POP DUP2 ADD SWAP1 PUSH2 0xDB1 SWAP2 SWAP1 PUSH2 0x1ED8 JUMP JUMPDEST LT PUSH2 0xE6B JUMPI PUSH1 0x7 PUSH1 0x0 SWAP1 SLOAD SWAP1 PUSH2 0x100 EXP SWAP1 DIV PUSH20 0xFFFFFFFFFFFFFFFFFFFFFFFFFFFFFFFFFFFFFFFF AND PUSH20 0xFFFFFFFFFFFFFFFFFFFFFFFFFFFFFFFFFFFFFFFF AND PUSH4 0xA9059CBB DUP16 DUP4 PUSH1 0x40 MLOAD DUP4 PUSH4 0xFFFFFFFF AND PUSH1 0xE0 SHL DUP2 MSTORE PUSH1 0x4 ADD PUSH2 0xE13 SWAP3 SWAP2 SWAP1 PUSH2 0x2321 JUMP JUMPDEST PUSH1 0x20 PUSH1 0x40 MLOAD DUP1 DUP4 SUB DUP2 PUSH1 0x0 DUP8 DUP1 EXTCODESIZE ISZERO DUP1 ISZERO PUSH2 0xE2D JUMPI PUSH1 0x0 DUP1 REVERT JUMPDEST POP GAS CALL ISZERO DUP1 ISZERO PUSH2 0xE41 JUMPI RETURNDATASIZE PUSH1 0x0 DUP1 RETURNDATACOPY RETURNDATASIZE PUSH1 0x0 REVERT JUMPDEST POP POP POP POP PUSH1 0x40 MLOAD RETURNDATASIZE PUSH1 0x1F NOT PUSH1 0x1F DUP3 ADD AND DUP3 ADD DUP1 PUSH1 0x40 MSTORE POP DUP2 ADD SWAP1 PUSH2 0xE65 SWAP2 SWAP1 PUSH2 0x1E86 JUMP JUMPDEST POP PUSH2 0xFC6 JUMP JUMPDEST PUSH1 0x7 PUSH1 0x0 SWAP1 SLOAD SWAP1 PUSH2 0x100 EXP SWAP1 DIV PUSH20 0xFFFFFFFFFFFFFFFFFFFFFFFFFFFFFFFFFFFFFFFF AND PUSH20 0xFFFFFFFFFFFFFFFFFFFFFFFFFFFFFFFFFFFFFFFF AND PUSH4 0xA9059CBB DUP16 PUSH1 0x7 PUSH1 0x0 SWAP1 SLOAD SWAP1 PUSH2 0x100 EXP SWAP1 DIV PUSH20 0xFFFFFFFFFFFFFFFFFFFFFFFFFFFFFFFFFFFFFFFF AND PUSH20 0xFFFFFFFFFFFFFFFFFFFFFFFFFFFFFFFFFFFFFFFF AND PUSH4 0x70A08231 ADDRESS PUSH1 0x40 MLOAD DUP3 PUSH4 0xFFFFFFFF AND PUSH1 0xE0 SHL DUP2 MSTORE PUSH1 0x4 ADD PUSH2 0xF05 SWAP2 SWAP1 PUSH2 0x2306 JUMP JUMPDEST PUSH1 0x20 PUSH1 0x40 MLOAD DUP1 DUP4 SUB DUP2 DUP7 DUP1 EXTCODESIZE ISZERO DUP1 ISZERO PUSH2 0xF1D JUMPI PUSH1 0x0 DUP1 REVERT JUMPDEST POP GAS STATICCALL ISZERO DUP1 ISZERO PUSH2 0xF31 JUMPI RETURNDATASIZE PUSH1 0x0 DUP1 RETURNDATACOPY RETURNDATASIZE PUSH1 0x0 REVERT JUMPDEST POP POP POP POP PUSH1 0x40 MLOAD RETURNDATASIZE PUSH1 0x1F NOT PUSH1 0x1F DUP3 ADD AND DUP3 ADD DUP1 PUSH1 0x40 MSTORE POP DUP2 ADD SWAP1 PUSH2 0xF55 SWAP2 SWAP1 PUSH2 0x1ED8 JUMP JUMPDEST PUSH1 0x40 MLOAD DUP4 PUSH4 0xFFFFFFFF AND PUSH1 0xE0 SHL DUP2 MSTORE PUSH1 0x4 ADD PUSH2 0xF72 SWAP3 SWAP2 SWAP1 PUSH2 0x2321 JUMP JUMPDEST PUSH1 0x20 PUSH1 0x40 MLOAD DUP1 DUP4 SUB DUP2 PUSH1 0x0 DUP8 DUP1 EXTCODESIZE ISZERO DUP1 ISZERO PUSH2 0xF8C JUMPI PUSH1 0x0 DUP1 REVERT JUMPDEST POP GAS CALL ISZERO DUP1 ISZERO PUSH2 0xFA0 JUMPI RETURNDATASIZE PUSH1 0x0 DUP1 RETURNDATACOPY RETURNDATASIZE PUSH1 0x0 REVERT JUMPDEST POP POP POP POP PUSH1 0x40 MLOAD RETURNDATASIZE PUSH1 0x1F NOT PUSH1 0x1F DUP3 ADD AND DUP3 ADD DUP1 PUSH1 0x40 MSTORE POP DUP2 ADD SWAP1 PUSH2 0xFC4 SWAP2 SWAP1 PUSH2 0x1E86 JUMP JUMPDEST POP JUMPDEST DUP14 PUSH20 0xFFFFFFFFFFFFFFFFFFFFFFFFFFFFFFFFFFFFFFFF AND DUP11 PUSH32 0x1A82FD78981B9465AF4B8BD67F27607DF5D873B7A978CC8CEE1A65B85C2990FC DUP6 PUSH1 0x40 MLOAD PUSH2 0x100D SWAP2 SWAP1 PUSH2 0x23AA JUMP JUMPDEST PUSH1 0x40 MLOAD DUP1 SWAP2 SUB SWAP1 LOG3 POP POP POP POP POP POP POP POP POP POP JUMPDEST DUP1 DUP1 PUSH2 0x102B SWAP1 PUSH2 0x25CD JUMP JUMPDEST SWAP2 POP POP PUSH2 0xA11 JUMP JUMPDEST POP PUSH1 0x0 DUP2 LT PUSH2 0x1084 JUMPI DUP3 PUSH20 0xFFFFFFFFFFFFFFFFFFFFFFFFFFFFFFFFFFFFFFFF AND PUSH2 0x8FC DUP3 SWAP1 DUP2 ISZERO MUL SWAP1 PUSH1 0x40 MLOAD PUSH1 0x0 PUSH1 0x40 MLOAD DUP1 DUP4 SUB DUP2 DUP6 DUP9 DUP9 CALL SWAP4 POP POP POP POP ISZERO DUP1 ISZERO PUSH2 0x1082 JUMPI RETURNDATASIZE PUSH1 0x0 DUP1 RETURNDATACOPY RETURNDATASIZE PUSH1 0x0 REVERT JUMPDEST POP JUMPDEST PUSH1 0x0 PUSH1 0xD SLOAD GT ISZERO PUSH2 0x111C JUMPI PUSH1 0x5 PUSH1 0x0 SWAP1 SLOAD SWAP1 PUSH2 0x100 EXP SWAP1 DIV PUSH20 0xFFFFFFFFFFFFFFFFFFFFFFFFFFFFFFFFFFFFFFFF AND PUSH20 0xFFFFFFFFFFFFFFFFFFFFFFFFFFFFFFFFFFFFFFFF AND PUSH3 0x5C33E1 PUSH1 0xD SLOAD PUSH1 0x40 MLOAD DUP3 PUSH4 0xFFFFFFFF AND PUSH1 0xE0 SHL DUP2 MSTORE PUSH1 0x4 ADD PUSH1 0x0 PUSH1 0x40 MLOAD DUP1 DUP4 SUB DUP2 DUP6 DUP9 DUP1 EXTCODESIZE ISZERO DUP1 ISZERO PUSH2 0x10FA JUMPI PUSH1 0x0 DUP1 REVERT JUMPDEST POP GAS CALL ISZERO DUP1 ISZERO PUSH2 0x110E JUMPI RETURNDATASIZE PUSH1 0x0 DUP1 RETURNDATACOPY RETURNDATASIZE PUSH1 0x0 REVERT JUMPDEST POP POP POP POP POP PUSH1 0x0 PUSH1 0xD DUP2 SWAP1 SSTORE POP JUMPDEST POP POP JUMPDEST POP JUMP JUMPDEST PUSH1 0x0 CALLVALUE GT PUSH2 0x1165 JUMPI PUSH1 0x40 MLOAD PUSH32 0x8C379A000000000000000000000000000000000000000000000000000000000 DUP2 MSTORE PUSH1 0x4 ADD PUSH2 0x115C SWAP1 PUSH2 0x234A JUMP JUMPDEST PUSH1 0x40 MLOAD DUP1 SWAP2 SUB SWAP1 REVERT JUMPDEST PUSH2 0x116D PUSH2 0x1543 JUMP JUMPDEST PUSH2 0x1176 CALLER PUSH2 0x9B0 JUMP JUMPDEST PUSH1 0x0 PUSH2 0x1184 CALLVALUE PUSH1 0x2 SLOAD PUSH2 0x95D JUMP JUMPDEST SWAP1 POP DUP1 PUSH1 0xD SLOAD PUSH2 0x1194 SWAP2 SWAP1 PUSH2 0x2443 JUMP JUMPDEST PUSH1 0xD DUP2 SWAP1 SSTORE POP PUSH1 0x0 DUP2 CALLVALUE PUSH2 0x11A8 SWAP2 SWAP1 PUSH2 0x2524 JUMP JUMPDEST SWAP1 POP PUSH1 0x0 PUSH2 0x11C1 NUMBER PUSH1 0x3 SLOAD PUSH1 0x4 SLOAD PUSH1 0xC SLOAD PUSH1 0xB SLOAD PUSH2 0x14EB JUMP JUMPDEST SWAP1 POP PUSH1 0x10 PUSH1 0x0 CALLER PUSH20 0xFFFFFFFFFFFFFFFFFFFFFFFFFFFFFFFFFFFFFFFF AND PUSH20 0xFFFFFFFFFFFFFFFFFFFFFFFFFFFFFFFFFFFFFFFF AND DUP2 MSTORE PUSH1 0x20 ADD SWAP1 DUP2 MSTORE PUSH1 0x20 ADD PUSH1 0x0 KECCAK256 PUSH1 0x0 DUP3 DUP2 MSTORE PUSH1 0x20 ADD SWAP1 DUP2 MSTORE PUSH1 0x20 ADD PUSH1 0x0 KECCAK256 PUSH1 0x0 SWAP1 SLOAD SWAP1 PUSH2 0x100 EXP SWAP1 DIV PUSH1 0xFF AND PUSH2 0x12F5 JUMPI PUSH1 0xF PUSH1 0x0 CALLER PUSH20 0xFFFFFFFFFFFFFFFFFFFFFFFFFFFFFFFFFFFFFFFF AND PUSH20 0xFFFFFFFFFFFFFFFFFFFFFFFFFFFFFFFFFFFFFFFF AND DUP2 MSTORE PUSH1 0x20 ADD SWAP1 DUP2 MSTORE PUSH1 0x20 ADD PUSH1 0x0 KECCAK256 DUP2 SWAP1 DUP1 PUSH1 0x1 DUP2 SLOAD ADD DUP1 DUP3 SSTORE DUP1 SWAP2 POP POP PUSH1 0x1 SWAP1 SUB SWAP1 PUSH1 0x0 MSTORE PUSH1 0x20 PUSH1 0x0 KECCAK256 ADD PUSH1 0x0 SWAP1 SWAP2 SWAP1 SWAP2 SWAP1 SWAP2 POP SSTORE PUSH1 0x1 PUSH1 0x10 PUSH1 0x0 CALLER PUSH20 0xFFFFFFFFFFFFFFFFFFFFFFFFFFFFFFFFFFFFFFFF AND PUSH20 0xFFFFFFFFFFFFFFFFFFFFFFFFFFFFFFFFFFFFFFFF AND DUP2 MSTORE PUSH1 0x20 ADD SWAP1 DUP2 MSTORE PUSH1 0x20 ADD PUSH1 0x0 KECCAK256 PUSH1 0x0 DUP4 DUP2 MSTORE PUSH1 0x20 ADD SWAP1 DUP2 MSTORE PUSH1 0x20 ADD PUSH1 0x0 KECCAK256 PUSH1 0x0 PUSH2 0x100 EXP DUP2 SLOAD DUP2 PUSH1 0xFF MUL NOT AND SWAP1 DUP4 ISZERO ISZERO MUL OR SWAP1 SSTORE POP JUMPDEST PUSH1 0x0 PUSH1 0x9 PUSH1 0x0 DUP4 DUP2 MSTORE PUSH1 0x20 ADD SWAP1 DUP2 MSTORE PUSH1 0x20 ADD PUSH1 0x0 KECCAK256 PUSH1 0x40 MLOAD DUP1 PUSH1 0x40 ADD PUSH1 0x40 MSTORE SWAP1 DUP2 PUSH1 0x0 DUP3 ADD SLOAD DUP2 MSTORE PUSH1 0x20 ADD PUSH1 0x1 DUP3 ADD SLOAD DUP2 MSTORE POP POP SWAP1 POP PUSH1 0x0 DUP1 PUSH2 0x1342 DUP4 PUSH1 0x0 ADD MLOAD DUP5 PUSH1 0x20 ADD MLOAD DUP10 DUP9 PUSH2 0x76E JUMP JUMPDEST SWAP2 POP SWAP2 POP PUSH1 0x40 MLOAD DUP1 PUSH1 0x40 ADD PUSH1 0x40 MSTORE DUP1 DUP4 DUP2 MSTORE PUSH1 0x20 ADD DUP3 DUP2 MSTORE POP PUSH1 0x9 PUSH1 0x0 DUP7 DUP2 MSTORE PUSH1 0x20 ADD SWAP1 DUP2 MSTORE PUSH1 0x20 ADD PUSH1 0x0 KECCAK256 PUSH1 0x0 DUP3 ADD MLOAD DUP2 PUSH1 0x0 ADD SSTORE PUSH1 0x20 DUP3 ADD MLOAD DUP2 PUSH1 0x1 ADD SSTORE SWAP1 POP POP PUSH1 0x0 PUSH1 0xE PUSH1 0x0 CALLER PUSH20 0xFFFFFFFFFFFFFFFFFFFFFFFFFFFFFFFFFFFFFFFF AND PUSH20 0xFFFFFFFFFFFFFFFFFFFFFFFFFFFFFFFFFFFFFFFF AND DUP2 MSTORE PUSH1 0x20 ADD SWAP1 DUP2 MSTORE PUSH1 0x20 ADD PUSH1 0x0 KECCAK256 PUSH1 0x0 DUP7 DUP2 MSTORE PUSH1 0x20 ADD SWAP1 DUP2 MSTORE PUSH1 0x20 ADD PUSH1 0x0 KECCAK256 PUSH1 0x40 MLOAD DUP1 PUSH1 0x40 ADD PUSH1 0x40 MSTORE SWAP1 DUP2 PUSH1 0x0 DUP3 ADD SLOAD DUP2 MSTORE PUSH1 0x20 ADD PUSH1 0x1 DUP3 ADD SLOAD DUP2 MSTORE POP POP SWAP1 POP PUSH2 0x140C DUP2 PUSH1 0x0 ADD MLOAD DUP3 PUSH1 0x20 ADD MLOAD DUP11 DUP10 PUSH2 0x76E JUMP JUMPDEST DUP1 SWAP4 POP DUP2 SWAP5 POP POP POP PUSH1 0x40 MLOAD DUP1 PUSH1 0x40 ADD PUSH1 0x40 MSTORE DUP1 DUP5 DUP2 MSTORE PUSH1 0x20 ADD DUP4 DUP2 MSTORE POP PUSH1 0xE PUSH1 0x0 CALLER PUSH20 0xFFFFFFFFFFFFFFFFFFFFFFFFFFFFFFFFFFFFFFFF AND PUSH20 0xFFFFFFFFFFFFFFFFFFFFFFFFFFFFFFFFFFFFFFFF AND DUP2 MSTORE PUSH1 0x20 ADD SWAP1 DUP2 MSTORE PUSH1 0x20 ADD PUSH1 0x0 KECCAK256 PUSH1 0x0 DUP8 DUP2 MSTORE PUSH1 0x20 ADD SWAP1 DUP2 MSTORE PUSH1 0x20 ADD PUSH1 0x0 KECCAK256 PUSH1 0x0 DUP3 ADD MLOAD DUP2 PUSH1 0x0 ADD SSTORE PUSH1 0x20 DUP3 ADD MLOAD DUP2 PUSH1 0x1 ADD SSTORE SWAP1 POP POP DUP5 CALLER PUSH20 0xFFFFFFFFFFFFFFFFFFFFFFFFFFFFFFFFFFFFFFFF AND PUSH32 0x560E32E4934B84F33B228F40DDC5B9FA690426EE087005A7D979D7921D24A02B DUP9 DUP12 PUSH1 0x40 MLOAD PUSH2 0x14D9 SWAP3 SWAP2 SWAP1 PUSH2 0x23EE JUMP JUMPDEST PUSH1 0x40 MLOAD DUP1 SWAP2 SUB SWAP1 LOG3 POP POP POP POP POP POP POP POP JUMP JUMPDEST PUSH1 0x0 DUP4 DUP7 LT ISZERO PUSH2 0x14FD JUMPI DUP2 SWAP1 POP PUSH2 0x152E JUMP JUMPDEST PUSH1 0x1 DUP4 DUP7 DUP7 DUP10 PUSH2 0x150D SWAP2 SWAP1 PUSH2 0x2524 JUMP JUMPDEST PUSH2 0x1517 SWAP2 SWAP1 PUSH2 0x2499 JUMP JUMPDEST PUSH2 0x1521 SWAP2 SWAP1 PUSH2 0x2443 JUMP JUMPDEST PUSH2 0x152B SWAP2 SWAP1 PUSH2 0x2443 JUMP JUMPDEST SWAP1 POP JUMPDEST SWAP6 SWAP5 POP POP POP POP POP JUMP JUMPDEST PUSH1 0xD SLOAD DUP2 JUMP JUMPDEST PUSH1 0x3 SLOAD DUP2 JUMP JUMPDEST PUSH1 0x0 PUSH2 0x155A NUMBER PUSH1 0x3 SLOAD PUSH1 0x4 SLOAD PUSH1 0xC SLOAD PUSH1 0xB SLOAD PUSH2 0x14EB JUMP JUMPDEST SWAP1 POP PUSH1 0x0 PUSH1 0xA PUSH1 0x0 DUP4 DUP2 MSTORE PUSH1 0x20 ADD SWAP1 DUP2 MSTORE PUSH1 0x20 ADD PUSH1 0x0 KECCAK256 SLOAD EQ ISZERO PUSH2 0x15E3 JUMPI PUSH2 0x1580 PUSH2 0x1CBE JUMP JUMPDEST PUSH1 0xA PUSH1 0x0 DUP4 DUP2 MSTORE PUSH1 0x20 ADD SWAP1 DUP2 MSTORE PUSH1 0x20 ADD PUSH1 0x0 KECCAK256 DUP2 SWAP1 SSTORE POP DUP1 PUSH32 0x7A3325B9D11DDC18EDD3DFF130141B6CE951061520C6B933A604BF701F3D8052 PUSH1 0xA PUSH1 0x0 DUP5 DUP2 MSTORE PUSH1 0x20 ADD SWAP1 DUP2 MSTORE PUSH1 0x20 ADD PUSH1 0x0 KECCAK256 SLOAD PUSH1 0x40 MLOAD PUSH2 0x15DA SWAP2 SWAP1 PUSH2 0x23AA JUMP JUMPDEST PUSH1 0x40 MLOAD DUP1 SWAP2 SUB SWAP1 LOG2 JUMPDEST POP JUMP JUMPDEST PUSH9 0x240CBA98ADD2C40000 DUP2 JUMP JUMPDEST PUSH1 0xF PUSH1 0x20 MSTORE DUP2 PUSH1 0x0 MSTORE PUSH1 0x40 PUSH1 0x0 KECCAK256 DUP2 DUP2 SLOAD DUP2 LT PUSH2 0x160F JUMPI PUSH1 0x0 DUP1 REVERT JUMPDEST SWAP1 PUSH1 0x0 MSTORE PUSH1 0x20 PUSH1 0x0 KECCAK256 ADD PUSH1 0x0 SWAP2 POP SWAP2 POP POP SLOAD DUP2 JUMP JUMPDEST PUSH1 0xC SLOAD DUP2 JUMP JUMPDEST PUSH1 0x0 DUP4 DUP3 PUSH1 0x1 DUP8 PUSH2 0x163B SWAP2 SWAP1 PUSH2 0x2524 JUMP JUMPDEST PUSH2 0x1645 SWAP2 SWAP1 PUSH2 0x2524 JUMP JUMPDEST PUSH2 0x164F SWAP2 SWAP1 PUSH2 0x24CA JUMP JUMPDEST DUP4 PUSH2 0x165A SWAP2 SWAP1 PUSH2 0x2443 JUMP JUMPDEST SWAP1 POP SWAP5 SWAP4 POP POP POP POP JUMP JUMPDEST PUSH1 0x0 PUSH1 0xF PUSH1 0x0 DUP4 PUSH20 0xFFFFFFFFFFFFFFFFFFFFFFFFFFFFFFFFFFFFFFFF AND PUSH20 0xFFFFFFFFFFFFFFFFFFFFFFFFFFFFFFFFFFFFFFFF AND DUP2 MSTORE PUSH1 0x20 ADD SWAP1 DUP2 MSTORE PUSH1 0x20 ADD PUSH1 0x0 KECCAK256 DUP1 SLOAD SWAP1 POP SWAP1 POP SWAP2 SWAP1 POP JUMP JUMPDEST PUSH1 0x0 DUP1 PUSH1 0x0 PUSH1 0xE PUSH1 0x0 DUP6 PUSH20 0xFFFFFFFFFFFFFFFFFFFFFFFFFFFFFFFFFFFFFFFF AND PUSH20 0xFFFFFFFFFFFFFFFFFFFFFFFFFFFFFFFFFFFFFFFF AND DUP2 MSTORE PUSH1 0x20 ADD SWAP1 DUP2 MSTORE PUSH1 0x20 ADD PUSH1 0x0 KECCAK256 PUSH1 0x0 DUP7 DUP2 MSTORE PUSH1 0x20 ADD SWAP1 DUP2 MSTORE PUSH1 0x20 ADD PUSH1 0x0 KECCAK256 PUSH1 0x40 MLOAD DUP1 PUSH1 0x40 ADD PUSH1 0x40 MSTORE SWAP1 DUP2 PUSH1 0x0 DUP3 ADD SLOAD DUP2 MSTORE PUSH1 0x20 ADD PUSH1 0x1 DUP3 ADD SLOAD DUP2 MSTORE POP POP SWAP1 POP DUP1 PUSH1 0x0 ADD MLOAD DUP2 PUSH1 0x20 ADD MLOAD SWAP3 POP SWAP3 POP POP SWAP3 POP SWAP3 SWAP1 POP JUMP JUMPDEST PUSH1 0x1 PUSH1 0x0 SWAP1 SLOAD SWAP1 PUSH2 0x100 EXP SWAP1 DIV PUSH20 0xFFFFFFFFFFFFFFFFFFFFFFFFFFFFFFFFFFFFFFFF AND PUSH20 0xFFFFFFFFFFFFFFFFFFFFFFFFFFFFFFFFFFFFFFFF AND CALLER PUSH20 0xFFFFFFFFFFFFFFFFFFFFFFFFFFFFFFFFFFFFFFFF AND EQ PUSH2 0x17CC JUMPI PUSH1 0x40 MLOAD PUSH32 0x8C379A000000000000000000000000000000000000000000000000000000000 DUP2 MSTORE PUSH1 0x4 ADD PUSH2 0x17C3 SWAP1 PUSH2 0x236A JUMP JUMPDEST PUSH1 0x40 MLOAD DUP1 SWAP2 SUB SWAP1 REVERT JUMPDEST DUP1 PUSH1 0x1 PUSH1 0x0 PUSH2 0x100 EXP DUP2 SLOAD DUP2 PUSH20 0xFFFFFFFFFFFFFFFFFFFFFFFFFFFFFFFFFFFFFFFF MUL NOT AND SWAP1 DUP4 PUSH20 0xFFFFFFFFFFFFFFFFFFFFFFFFFFFFFFFFFFFFFFFF AND MUL OR SWAP1 SSTORE POP POP JUMP JUMPDEST PUSH1 0x9 PUSH1 0x20 MSTORE DUP1 PUSH1 0x0 MSTORE PUSH1 0x40 PUSH1 0x0 KECCAK256 PUSH1 0x0 SWAP2 POP SWAP1 POP DUP1 PUSH1 0x0 ADD SLOAD SWAP1 DUP1 PUSH1 0x1 ADD SLOAD SWAP1 POP DUP3 JUMP JUMPDEST PUSH1 0x0 PUSH1 0xF PUSH1 0x0 DUP5 PUSH20 0xFFFFFFFFFFFFFFFFFFFFFFFFFFFFFFFFFFFFFFFF AND PUSH20 0xFFFFFFFFFFFFFFFFFFFFFFFFFFFFFFFFFFFFFFFF AND DUP2 MSTORE PUSH1 0x20 ADD SWAP1 DUP2 MSTORE PUSH1 0x20 ADD PUSH1 0x0 KECCAK256 DUP3 DUP2 SLOAD DUP2 LT PUSH2 0x18AD JUMPI PUSH32 0x4E487B7100000000000000000000000000000000000000000000000000000000 PUSH1 0x0 MSTORE PUSH1 0x32 PUSH1 0x4 MSTORE PUSH1 0x24 PUSH1 0x0 REVERT JUMPDEST SWAP1 PUSH1 0x0 MSTORE PUSH1 0x20 PUSH1 0x0 KECCAK256 ADD SLOAD SWAP1 POP SWAP3 SWAP2 POP POP JUMP JUMPDEST PUSH1 0x0 DUP1 PUSH1 0x0 DUP4 PUSH1 0xFF AND PUSH1 0x2 DUP2 GT ISZERO PUSH2 0x1901 JUMPI PUSH32 0x4E487B7100000000000000000000000000000000000000000000000000000000 PUSH1 0x0 MSTORE PUSH1 0x21 PUSH1 0x4 MSTORE PUSH1 0x24 PUSH1 0x0 REVERT JUMPDEST SWAP1 POP PUSH1 0x0 DUP6 DUP8 PUSH2 0x1911 SWAP2 SWAP1 PUSH2 0x2443 JUMP JUMPDEST SWAP1 POP PUSH1 0x1 PUSH1 0x2 DUP2 GT ISZERO PUSH2 0x194D JUMPI PUSH32 0x4E487B7100000000000000000000000000000000000000000000000000000000 PUSH1 0x0 MSTORE PUSH1 0x21 PUSH1 0x4 MSTORE PUSH1 0x24 PUSH1 0x0 REVERT JUMPDEST DUP3 PUSH1 0x2 DUP2 GT ISZERO PUSH2 0x1986 JUMPI PUSH32 0x4E487B7100000000000000000000000000000000000000000000000000000000 PUSH1 0x0 MSTORE PUSH1 0x21 PUSH1 0x4 MSTORE PUSH1 0x24 PUSH1 0x0 REVERT JUMPDEST EQ DUP1 ISZERO PUSH2 0x1994 JUMPI POP PUSH1 0x0 DUP8 EQ ISZERO JUMPDEST ISZERO PUSH2 0x19AB JUMPI PUSH2 0x19A4 DUP2 DUP11 DUP10 PUSH2 0x1D6C JUMP JUMPDEST SWAP4 POP PUSH2 0x1AE3 JUMP JUMPDEST PUSH1 0x0 PUSH1 0x2 DUP2 GT ISZERO PUSH2 0x19E5 JUMPI PUSH32 0x4E487B7100000000000000000000000000000000000000000000000000000000 PUSH1 0x0 MSTORE PUSH1 0x21 PUSH1 0x4 MSTORE PUSH1 0x24 PUSH1 0x0 REVERT JUMPDEST DUP3 PUSH1 0x2 DUP2 GT ISZERO PUSH2 0x1A1E JUMPI PUSH32 0x4E487B7100000000000000000000000000000000000000000000000000000000 PUSH1 0x0 MSTORE PUSH1 0x21 PUSH1 0x4 MSTORE PUSH1 0x24 PUSH1 0x0 REVERT JUMPDEST EQ DUP1 ISZERO PUSH2 0x1A2C JUMPI POP PUSH1 0x0 DUP7 EQ ISZERO JUMPDEST ISZERO PUSH2 0x1A43 JUMPI PUSH2 0x1A3C DUP2 DUP10 DUP9 PUSH2 0x1D6C JUMP JUMPDEST SWAP4 POP PUSH2 0x1AE2 JUMP JUMPDEST PUSH1 0x2 DUP1 DUP2 GT ISZERO PUSH2 0x1A7C JUMPI PUSH32 0x4E487B7100000000000000000000000000000000000000000000000000000000 PUSH1 0x0 MSTORE PUSH1 0x21 PUSH1 0x4 MSTORE PUSH1 0x24 PUSH1 0x0 REVERT JUMPDEST DUP3 PUSH1 0x2 DUP2 GT ISZERO PUSH2 0x1AB5 JUMPI PUSH32 0x4E487B7100000000000000000000000000000000000000000000000000000000 PUSH1 0x0 MSTORE PUSH1 0x21 PUSH1 0x4 MSTORE PUSH1 0x24 PUSH1 0x0 REVERT JUMPDEST EQ ISZERO PUSH2 0x1ACE JUMPI DUP8 DUP10 PUSH2 0x1AC7 SWAP2 SWAP1 PUSH2 0x2443 JUMP JUMPDEST SWAP4 POP PUSH2 0x1AE1 JUMP JUMPDEST PUSH1 0x0 SWAP4 POP DUP8 DUP10 PUSH2 0x1ADE SWAP2 SWAP1 PUSH2 0x2443 JUMP JUMPDEST SWAP3 POP JUMPDEST JUMPDEST JUMPDEST POP POP SWAP6 POP SWAP6 SWAP4 POP POP POP POP JUMP JUMPDEST PUSH1 0x0 PUSH2 0x1B1B PUSH9 0x240CBA98ADD2C40000 DUP6 DUP8 PUSH2 0x1B0A SWAP2 SWAP1 PUSH2 0x2443 JUMP JUMPDEST DUP5 DUP7 PUSH2 0x1B16 SWAP2 SWAP1 PUSH2 0x2443 JUMP JUMPDEST PUSH2 0x1D6C JUMP JUMPDEST SWAP1 POP SWAP5 SWAP4 POP POP POP POP JUMP JUMPDEST PUSH1 0x2 SLOAD DUP2 JUMP JUMPDEST PUSH1 0xB SLOAD DUP2 JUMP JUMPDEST PUSH1 0xA PUSH1 0x20 MSTORE DUP1 PUSH1 0x0 MSTORE PUSH1 0x40 PUSH1 0x0 KECCAK256 PUSH1 0x0 SWAP2 POP SWAP1 POP SLOAD DUP2 JUMP JUMPDEST PUSH1 0x1 PUSH1 0x0 SWAP1 SLOAD SWAP1 PUSH2 0x100 EXP SWAP1 DIV PUSH20 0xFFFFFFFFFFFFFFFFFFFFFFFFFFFFFFFFFFFFFFFF AND PUSH20 0xFFFFFFFFFFFFFFFFFFFFFFFFFFFFFFFFFFFFFFFF AND CALLER PUSH20 0xFFFFFFFFFFFFFFFFFFFFFFFFFFFFFFFFFFFFFFFF AND EQ PUSH2 0x1BD9 JUMPI PUSH1 0x40 MLOAD PUSH32 0x8C379A000000000000000000000000000000000000000000000000000000000 DUP2 MSTORE PUSH1 0x4 ADD PUSH2 0x1BD0 SWAP1 PUSH2 0x236A JUMP JUMPDEST PUSH1 0x40 MLOAD DUP1 SWAP2 SUB SWAP1 REVERT JUMPDEST PUSH1 0x0 DUP2 GT PUSH2 0x1C1C JUMPI PUSH1 0x40 MLOAD PUSH32 0x8C379A000000000000000000000000000000000000000000000000000000000 DUP2 MSTORE PUSH1 0x4 ADD PUSH2 0x1C13 SWAP1 PUSH2 0x238A JUMP JUMPDEST PUSH1 0x40 MLOAD DUP1 SWAP2 SUB SWAP1 REVERT JUMPDEST PUSH1 0x0 PUSH2 0x1C33 NUMBER PUSH1 0x3 SLOAD PUSH1 0x4 SLOAD PUSH1 0xC SLOAD PUSH1 0xB SLOAD PUSH2 0x14EB JUMP JUMPDEST SWAP1 POP PUSH2 0x1C53 PUSH1 0x1 DUP3 PUSH2 0x1C45 SWAP2 SWAP1 PUSH2 0x2443 JUMP JUMPDEST PUSH1 0x3 SLOAD PUSH1 0x4 SLOAD PUSH1 0xC SLOAD PUSH2 0x162A JUMP JUMPDEST PUSH1 0x4 DUP2 SWAP1 SSTORE POP DUP1 PUSH1 0xC DUP2 SWAP1 SSTORE POP DUP1 PUSH1 0xB DUP2 SWAP1 SSTORE POP DUP2 PUSH1 0x3 DUP2 SWAP1 SSTORE POP POP POP JUMP JUMPDEST PUSH1 0x0 DUP1 PUSH1 0xA PUSH1 0x0 PUSH1 0x1 DUP6 PUSH2 0x1C86 SWAP2 SWAP1 PUSH2 0x2443 JUMP JUMPDEST DUP2 MSTORE PUSH1 0x20 ADD SWAP1 DUP2 MSTORE PUSH1 0x20 ADD PUSH1 0x0 KECCAK256 SLOAD PUSH1 0xA PUSH1 0x0 PUSH1 0x2 DUP7 PUSH2 0x1CA6 SWAP2 SWAP1 PUSH2 0x2443 JUMP JUMPDEST DUP2 MSTORE PUSH1 0x20 ADD SWAP1 DUP2 MSTORE PUSH1 0x20 ADD PUSH1 0x0 KECCAK256 SLOAD SWAP2 POP SWAP2 POP SWAP2 POP SWAP2 JUMP JUMPDEST PUSH1 0x0 DUP1 PUSH1 0x0 DUP1 SLOAD SWAP1 PUSH2 0x100 EXP SWAP1 DIV PUSH20 0xFFFFFFFFFFFFFFFFFFFFFFFFFFFFFFFFFFFFFFFF AND PUSH20 0xFFFFFFFFFFFFFFFFFFFFFFFFFFFFFFFFFFFFFFFF AND PUSH4 0xFEAF968C PUSH1 0x40 MLOAD DUP2 PUSH4 0xFFFFFFFF AND PUSH1 0xE0 SHL DUP2 MSTORE PUSH1 0x4 ADD PUSH1 0xA0 PUSH1 0x40 MLOAD DUP1 DUP4 SUB DUP2 DUP7 DUP1 EXTCODESIZE ISZERO DUP1 ISZERO PUSH2 0x1D27 JUMPI PUSH1 0x0 DUP1 REVERT JUMPDEST POP GAS STATICCALL ISZERO DUP1 ISZERO PUSH2 0x1D3B JUMPI RETURNDATASIZE PUSH1 0x0 DUP1 RETURNDATACOPY RETURNDATASIZE PUSH1 0x0 REVERT JUMPDEST POP POP POP POP PUSH1 0x40 MLOAD RETURNDATASIZE PUSH1 0x1F NOT PUSH1 0x1F DUP3 ADD AND DUP3 ADD DUP1 PUSH1 0x40 MSTORE POP DUP2 ADD SWAP1 PUSH2 0x1D5F SWAP2 SWAP1 PUSH2 0x2156 JUMP JUMPDEST POP POP POP SWAP2 POP POP DUP1 SWAP2 POP POP SWAP1 JUMP JUMPDEST PUSH1 0x0 DUP2 DUP5 DUP5 PUSH2 0x1D7B SWAP2 SWAP1 PUSH2 0x24CA JUMP JUMPDEST PUSH2 0x1D85 SWAP2 SWAP1 PUSH2 0x2499 JUMP JUMPDEST SWAP1 POP SWAP4 SWAP3 POP POP POP JUMP JUMPDEST PUSH1 0x0 DUP2 CALLDATALOAD SWAP1 POP PUSH2 0x1D9D DUP2 PUSH2 0x2655 JUMP JUMPDEST SWAP3 SWAP2 POP POP JUMP JUMPDEST PUSH1 0x0 DUP2 MLOAD SWAP1 POP PUSH2 0x1DB2 DUP2 PUSH2 0x266C JUMP JUMPDEST SWAP3 SWAP2 POP POP JUMP JUMPDEST PUSH1 0x0 DUP2 MLOAD SWAP1 POP PUSH2 0x1DC7 DUP2 PUSH2 0x2683 JUMP JUMPDEST SWAP3 SWAP2 POP POP JUMP JUMPDEST PUSH1 0x0 DUP2 CALLDATALOAD SWAP1 POP PUSH2 0x1DDC DUP2 PUSH2 0x269A JUMP JUMPDEST SWAP3 SWAP2 POP POP JUMP JUMPDEST PUSH1 0x0 DUP2 MLOAD SWAP1 POP PUSH2 0x1DF1 DUP2 PUSH2 0x269A JUMP JUMPDEST SWAP3 SWAP2 POP POP JUMP JUMPDEST PUSH1 0x0 DUP2 CALLDATALOAD SWAP1 POP PUSH2 0x1E06 DUP2 PUSH2 0x26B1 JUMP JUMPDEST SWAP3 SWAP2 POP POP JUMP JUMPDEST PUSH1 0x0 DUP2 MLOAD SWAP1 POP PUSH2 0x1E1B DUP2 PUSH2 0x26C8 JUMP JUMPDEST SWAP3 SWAP2 POP POP JUMP JUMPDEST PUSH1 0x0 PUSH1 0x20 DUP3 DUP5 SUB SLT ISZERO PUSH2 0x1E33 JUMPI PUSH1 0x0 DUP1 REVERT JUMPDEST PUSH1 0x0 PUSH2 0x1E41 DUP5 DUP3 DUP6 ADD PUSH2 0x1D8E JUMP JUMPDEST SWAP2 POP POP SWAP3 SWAP2 POP POP JUMP JUMPDEST PUSH1 0x0 DUP1 PUSH1 0x40 DUP4 DUP6 SUB SLT ISZERO PUSH2 0x1E5D JUMPI PUSH1 0x0 DUP1 REVERT JUMPDEST PUSH1 0x0 PUSH2 0x1E6B DUP6 DUP3 DUP7 ADD PUSH2 0x1D8E JUMP JUMPDEST SWAP3 POP POP PUSH1 0x20 PUSH2 0x1E7C DUP6 DUP3 DUP7 ADD PUSH2 0x1DCD JUMP JUMPDEST SWAP2 POP POP SWAP3 POP SWAP3 SWAP1 POP JUMP JUMPDEST PUSH1 0x0 PUSH1 0x20 DUP3 DUP5 SUB SLT ISZERO PUSH2 0x1E98 JUMPI PUSH1 0x0 DUP1 REVERT JUMPDEST PUSH1 0x0 PUSH2 0x1EA6 DUP5 DUP3 DUP6 ADD PUSH2 0x1DA3 JUMP JUMPDEST SWAP2 POP POP SWAP3 SWAP2 POP POP JUMP JUMPDEST PUSH1 0x0 PUSH1 0x20 DUP3 DUP5 SUB SLT ISZERO PUSH2 0x1EC1 JUMPI PUSH1 0x0 DUP1 REVERT JUMPDEST PUSH1 0x0 PUSH2 0x1ECF DUP5 DUP3 DUP6 ADD PUSH2 0x1DCD JUMP JUMPDEST SWAP2 POP POP SWAP3 SWAP2 POP POP JUMP JUMPDEST PUSH1 0x0 PUSH1 0x20 DUP3 DUP5 SUB SLT ISZERO PUSH2 0x1EEA JUMPI PUSH1 0x0 DUP1 REVERT JUMPDEST PUSH1 0x0 PUSH2 0x1EF8 DUP5 DUP3 DUP6 ADD PUSH2 0x1DE2 JUMP JUMPDEST SWAP2 POP POP SWAP3 SWAP2 POP POP JUMP JUMPDEST PUSH1 0x0 DUP1 PUSH1 0x40 DUP4 DUP6 SUB SLT ISZERO PUSH2 0x1F14 JUMPI PUSH1 0x0 DUP1 REVERT JUMPDEST PUSH1 0x0 PUSH2 0x1F22 DUP6 DUP3 DUP7 ADD PUSH2 0x1DCD JUMP JUMPDEST SWAP3 POP POP PUSH1 0x20 PUSH2 0x1F33 DUP6 DUP3 DUP7 ADD PUSH2 0x1D8E JUMP JUMPDEST SWAP2 POP POP SWAP3 POP SWAP3 SWAP1 POP JUMP JUMPDEST PUSH1 0x0 DUP1 PUSH1 0x40 DUP4 DUP6 SUB SLT ISZERO PUSH2 0x1F50 JUMPI PUSH1 0x0 DUP1 REVERT JUMPDEST PUSH1 0x0 PUSH2 0x1F5E DUP6 DUP3 DUP7 ADD PUSH2 0x1DCD JUMP JUMPDEST SWAP3 POP POP PUSH1 0x20 PUSH2 0x1F6F DUP6 DUP3 DUP7 ADD PUSH2 0x1DCD JUMP JUMPDEST SWAP2 POP POP SWAP3 POP SWAP3 SWAP1 POP JUMP JUMPDEST PUSH1 0x0 DUP1 PUSH1 0x0 DUP1 PUSH1 0x80 DUP6 DUP8 SUB SLT ISZERO PUSH2 0x1F8F JUMPI PUSH1 0x0 DUP1 REVERT JUMPDEST PUSH1 0x0 PUSH2 0x1F9D DUP8 DUP3 DUP9 ADD PUSH2 0x1DCD JUMP JUMPDEST SWAP5 POP POP PUSH1 0x20 PUSH2 0x1FAE DUP8 DUP3 DUP9 ADD PUSH2 0x1DCD JUMP JUMPDEST SWAP4 POP POP PUSH1 0x40 PUSH2 0x1FBF DUP8 DUP3 DUP9 ADD PUSH2 0x1DCD JUMP JUMPDEST SWAP3 POP POP PUSH1 0x60 PUSH2 0x1FD0 DUP8 DUP3 DUP9 ADD PUSH2 0x1DCD JUMP JUMPDEST SWAP2 POP POP SWAP3 SWAP6 SWAP2 SWAP5 POP SWAP3 POP JUMP JUMPDEST PUSH1 0x0 DUP1 PUSH1 0x0 DUP1 PUSH1 0x0 PUSH1 0xA0 DUP7 DUP9 SUB SLT ISZERO PUSH2 0x1FF4 JUMPI PUSH1 0x0 DUP1 REVERT JUMPDEST PUSH1 0x0 PUSH2 0x2002 DUP9 DUP3 DUP10 ADD PUSH2 0x1DCD JUMP JUMPDEST SWAP6 POP POP PUSH1 0x20 PUSH2 0x2013 DUP9 DUP3 DUP10 ADD PUSH2 0x1DCD JUMP JUMPDEST SWAP5 POP POP PUSH1 0x40 PUSH2 0x2024 DUP9 DUP3 DUP10 ADD PUSH2 0x1DCD JUMP JUMPDEST SWAP4 POP POP PUSH1 0x60 PUSH2 0x2035 DUP9 DUP3 DUP10 ADD PUSH2 0x1DCD JUMP JUMPDEST SWAP3 POP POP PUSH1 0x80 PUSH2 0x2046 DUP9 DUP3 DUP10 ADD PUSH2 0x1DCD JUMP JUMPDEST SWAP2 POP POP SWAP3 SWAP6 POP SWAP3 SWAP6 SWAP1 SWAP4 POP JUMP JUMPDEST PUSH1 0x0 DUP1 PUSH1 0x0 DUP1 PUSH1 0x0 PUSH1 0xA0 DUP7 DUP9 SUB SLT ISZERO PUSH2 0x206B JUMPI PUSH1 0x0 DUP1 REVERT JUMPDEST PUSH1 0x0 PUSH2 0x2079 DUP9 DUP3 DUP10 ADD PUSH2 0x1DCD JUMP JUMPDEST SWAP6 POP POP PUSH1 0x20 PUSH2 0x208A DUP9 DUP3 DUP10 ADD PUSH2 0x1DCD JUMP JUMPDEST SWAP5 POP POP PUSH1 0x40 PUSH2 0x209B DUP9 DUP3 DUP10 ADD PUSH2 0x1DCD JUMP JUMPDEST SWAP4 POP POP PUSH1 0x60 PUSH2 0x20AC DUP9 DUP3 DUP10 ADD PUSH2 0x1DCD JUMP JUMPDEST SWAP3 POP POP PUSH1 0x80 PUSH2 0x20BD DUP9 DUP3 DUP10 ADD PUSH2 0x1DF7 JUMP JUMPDEST SWAP2 POP POP SWAP3 SWAP6 POP SWAP3 SWAP6 SWAP1 SWAP4 POP JUMP JUMPDEST PUSH1 0x0 DUP1 PUSH1 0x0 DUP1 PUSH1 0x80 DUP6 DUP8 SUB SLT ISZERO PUSH2 0x20E0 JUMPI PUSH1 0x0 DUP1 REVERT JUMPDEST PUSH1 0x0 PUSH2 0x20EE DUP8 DUP3 DUP9 ADD PUSH2 0x1DCD JUMP JUMPDEST SWAP5 POP POP PUSH1 0x20 PUSH2 0x20FF DUP8 DUP3 DUP9 ADD PUSH2 0x1DCD JUMP JUMPDEST SWAP4 POP POP PUSH1 0x40 PUSH2 0x2110 DUP8 DUP3 DUP9 ADD PUSH2 0x1DF7 JUMP JUMPDEST SWAP3 POP POP PUSH1 0x60 PUSH2 0x2121 DUP8 DUP3 DUP9 ADD PUSH2 0x1DCD JUMP JUMPDEST SWAP2 POP POP SWAP3 SWAP6 SWAP2 SWAP5 POP SWAP3 POP JUMP JUMPDEST PUSH1 0x0 PUSH1 0x20 DUP3 DUP5 SUB SLT ISZERO PUSH2 0x213F JUMPI PUSH1 0x0 DUP1 REVERT JUMPDEST PUSH1 0x0 PUSH2 0x214D DUP5 DUP3 DUP6 ADD PUSH2 0x1DF7 JUMP JUMPDEST SWAP2 POP POP SWAP3 SWAP2 POP POP JUMP JUMPDEST PUSH1 0x0 DUP1 PUSH1 0x0 DUP1 PUSH1 0x0 PUSH1 0xA0 DUP7 DUP9 SUB SLT ISZERO PUSH2 0x216E JUMPI PUSH1 0x0 DUP1 REVERT JUMPDEST PUSH1 0x0 PUSH2 0x217C DUP9 DUP3 DUP10 ADD PUSH2 0x1E0C JUMP JUMPDEST SWAP6 POP POP PUSH1 0x20 PUSH2 0x218D DUP9 DUP3 DUP10 ADD PUSH2 0x1DB8 JUMP JUMPDEST SWAP5 POP POP PUSH1 0x40 PUSH2 0x219E DUP9 DUP3 DUP10 ADD PUSH2 0x1DE2 JUMP JUMPDEST SWAP4 POP POP PUSH1 0x60 PUSH2 0x21AF DUP9 DUP3 DUP10 ADD PUSH2 0x1DE2 JUMP JUMPDEST SWAP3 POP POP PUSH1 0x80 PUSH2 0x21C0 DUP9 DUP3 DUP10 ADD PUSH2 0x1E0C JUMP JUMPDEST SWAP2 POP POP SWAP3 SWAP6 POP SWAP3 SWAP6 SWAP1 SWAP4 POP JUMP JUMPDEST PUSH2 0x21D6 DUP2 PUSH2 0x2558 JUMP JUMPDEST DUP3 MSTORE POP POP JUMP JUMPDEST PUSH1 0x0 PUSH2 0x21E9 PUSH1 0x1D DUP4 PUSH2 0x2432 JUMP JUMPDEST SWAP2 POP PUSH32 0x4F6E6C79207374726963746C7920706F7369746976652076616C756573000000 PUSH1 0x0 DUP4 ADD MSTORE PUSH1 0x20 DUP3 ADD SWAP1 POP SWAP2 SWAP1 POP JUMP JUMPDEST PUSH1 0x0 PUSH2 0x2229 PUSH1 0x24 DUP4 PUSH2 0x2432 JUMP JUMPDEST SWAP2 POP PUSH32 0x6F6E6C7920676F7665726E616E63652063616E2063616C6C2074686973206D65 PUSH1 0x0 DUP4 ADD MSTORE PUSH32 0x74686F6400000000000000000000000000000000000000000000000000000000 PUSH1 0x20 DUP4 ADD MSTORE PUSH1 0x40 DUP3 ADD SWAP1 POP SWAP2 SWAP1 POP JUMP JUMPDEST PUSH1 0x0 PUSH2 0x228F PUSH1 0x27 DUP4 PUSH2 0x2432 JUMP JUMPDEST SWAP2 POP PUSH32 0x77696E646F772073697A652073686F756C64206265207374726963746C792070 PUSH1 0x0 DUP4 ADD MSTORE PUSH32 0x6F73697469766500000000000000000000000000000000000000000000000000 PUSH1 0x20 DUP4 ADD MSTORE PUSH1 0x40 DUP3 ADD SWAP1 POP SWAP2 SWAP1 POP JUMP JUMPDEST PUSH2 0x22F1 DUP2 PUSH2 0x25A0 JUMP JUMPDEST DUP3 MSTORE POP POP JUMP JUMPDEST PUSH2 0x2300 DUP2 PUSH2 0x25AA JUMP JUMPDEST DUP3 MSTORE POP POP JUMP JUMPDEST PUSH1 0x0 PUSH1 0x20 DUP3 ADD SWAP1 POP PUSH2 0x231B PUSH1 0x0 DUP4 ADD DUP5 PUSH2 0x21CD JUMP JUMPDEST SWAP3 SWAP2 POP POP JUMP JUMPDEST PUSH1 0x0 PUSH1 0x40 DUP3 ADD SWAP1 POP PUSH2 0x2336 PUSH1 0x0 DUP4 ADD DUP6 PUSH2 0x21CD JUMP JUMPDEST PUSH2 0x2343 PUSH1 0x20 DUP4 ADD DUP5 PUSH2 0x22E8 JUMP JUMPDEST SWAP4 SWAP3 POP POP POP JUMP JUMPDEST PUSH1 0x0 PUSH1 0x20 DUP3 ADD SWAP1 POP DUP2 DUP2 SUB PUSH1 0x0 DUP4 ADD MSTORE PUSH2 0x2363 DUP2 PUSH2 0x21DC JUMP JUMPDEST SWAP1 POP SWAP2 SWAP1 POP JUMP JUMPDEST PUSH1 0x0 PUSH1 0x20 DUP3 ADD SWAP1 POP DUP2 DUP2 SUB PUSH1 0x0 DUP4 ADD MSTORE PUSH2 0x2383 DUP2 PUSH2 0x221C JUMP JUMPDEST SWAP1 POP SWAP2 SWAP1 POP JUMP JUMPDEST PUSH1 0x0 PUSH1 0x20 DUP3 ADD SWAP1 POP DUP2 DUP2 SUB PUSH1 0x0 DUP4 ADD MSTORE PUSH2 0x23A3 DUP2 PUSH2 0x2282 JUMP JUMPDEST SWAP1 POP SWAP2 SWAP1 POP JUMP JUMPDEST PUSH1 0x0 PUSH1 0x20 DUP3 ADD SWAP1 POP PUSH2 0x23BF PUSH1 0x0 DUP4 ADD DUP5 PUSH2 0x22E8 JUMP JUMPDEST SWAP3 SWAP2 POP POP JUMP JUMPDEST PUSH1 0x0 PUSH1 0x40 DUP3 ADD SWAP1 POP PUSH2 0x23DA PUSH1 0x0 DUP4 ADD DUP6 PUSH2 0x22E8 JUMP JUMPDEST PUSH2 0x23E7 PUSH1 0x20 DUP4 ADD DUP5 PUSH2 0x22E8 JUMP JUMPDEST SWAP4 SWAP3 POP POP POP JUMP JUMPDEST PUSH1 0x0 PUSH1 0x40 DUP3 ADD SWAP1 POP PUSH2 0x2403 PUSH1 0x0 DUP4 ADD DUP6 PUSH2 0x22E8 JUMP JUMPDEST PUSH2 0x2410 PUSH1 0x20 DUP4 ADD DUP5 PUSH2 0x22F7 JUMP JUMPDEST SWAP4 SWAP3 POP POP POP JUMP JUMPDEST PUSH1 0x0 PUSH1 0x20 DUP3 ADD SWAP1 POP PUSH2 0x242C PUSH1 0x0 DUP4 ADD DUP5 PUSH2 0x22F7 JUMP JUMPDEST SWAP3 SWAP2 POP POP JUMP JUMPDEST PUSH1 0x0 DUP3 DUP3 MSTORE PUSH1 0x20 DUP3 ADD SWAP1 POP SWAP3 SWAP2 POP POP JUMP JUMPDEST PUSH1 0x0 PUSH2 0x244E DUP3 PUSH2 0x25A0 JUMP JUMPDEST SWAP2 POP PUSH2 0x2459 DUP4 PUSH2 0x25A0 JUMP JUMPDEST SWAP3 POP DUP3 PUSH32 0xFFFFFFFFFFFFFFFFFFFFFFFFFFFFFFFFFFFFFFFFFFFFFFFFFFFFFFFFFFFFFFFF SUB DUP3 GT ISZERO PUSH2 0x248E JUMPI PUSH2 0x248D PUSH2 0x25F7 JUMP JUMPDEST JUMPDEST DUP3 DUP3 ADD SWAP1 POP SWAP3 SWAP2 POP POP JUMP JUMPDEST PUSH1 0x0 PUSH2 0x24A4 DUP3 PUSH2 0x25A0 JUMP JUMPDEST SWAP2 POP PUSH2 0x24AF DUP4 PUSH2 0x25A0 JUMP JUMPDEST SWAP3 POP DUP3 PUSH2 0x24BF JUMPI PUSH2 0x24BE PUSH2 0x2626 JUMP JUMPDEST JUMPDEST DUP3 DUP3 DIV SWAP1 POP SWAP3 SWAP2 POP POP JUMP JUMPDEST PUSH1 0x0 PUSH2 0x24D5 DUP3 PUSH2 0x25A0 JUMP JUMPDEST SWAP2 POP PUSH2 0x24E0 DUP4 PUSH2 0x25A0 JUMP JUMPDEST SWAP3 POP DUP2 PUSH32 0xFFFFFFFFFFFFFFFFFFFFFFFFFFFFFFFFFFFFFFFFFFFFFFFFFFFFFFFFFFFFFFFF DIV DUP4 GT DUP3 ISZERO ISZERO AND ISZERO PUSH2 0x2519 JUMPI PUSH2 0x2518 PUSH2 0x25F7 JUMP JUMPDEST JUMPDEST DUP3 DUP3 MUL SWAP1 POP SWAP3 SWAP2 POP POP JUMP JUMPDEST PUSH1 0x0 PUSH2 0x252F DUP3 PUSH2 0x25A0 JUMP JUMPDEST SWAP2 POP PUSH2 0x253A DUP4 PUSH2 0x25A0 JUMP JUMPDEST SWAP3 POP DUP3 DUP3 LT ISZERO PUSH2 0x254D JUMPI PUSH2 0x254C PUSH2 0x25F7 JUMP JUMPDEST JUMPDEST DUP3 DUP3 SUB SWAP1 POP SWAP3 SWAP2 POP POP JUMP JUMPDEST PUSH1 0x0 PUSH2 0x2563 DUP3 PUSH2 0x2580 JUMP JUMPDEST SWAP1 POP SWAP2 SWAP1 POP JUMP JUMPDEST PUSH1 0x0 DUP2 ISZERO ISZERO SWAP1 POP SWAP2 SWAP1 POP JUMP JUMPDEST PUSH1 0x0 DUP2 SWAP1 POP SWAP2 SWAP1 POP JUMP JUMPDEST PUSH1 0x0 PUSH20 0xFFFFFFFFFFFFFFFFFFFFFFFFFFFFFFFFFFFFFFFF DUP3 AND SWAP1 POP SWAP2 SWAP1 POP JUMP JUMPDEST PUSH1 0x0 DUP2 SWAP1 POP SWAP2 SWAP1 POP JUMP JUMPDEST PUSH1 0x0 PUSH1 0xFF DUP3 AND SWAP1 POP SWAP2 SWAP1 POP JUMP JUMPDEST PUSH1 0x0 PUSH10 0xFFFFFFFFFFFFFFFFFFFF DUP3 AND SWAP1 POP SWAP2 SWAP1 POP JUMP JUMPDEST PUSH1 0x0 PUSH2 0x25D8 DUP3 PUSH2 0x25A0 JUMP JUMPDEST SWAP2 POP PUSH1 0x0 DUP3 EQ ISZERO PUSH2 0x25EC JUMPI PUSH2 0x25EB PUSH2 0x25F7 JUMP JUMPDEST JUMPDEST PUSH1 0x1 DUP3 SUB SWAP1 POP SWAP2 SWAP1 POP JUMP JUMPDEST PUSH32 0x4E487B7100000000000000000000000000000000000000000000000000000000 PUSH1 0x0 MSTORE PUSH1 0x11 PUSH1 0x4 MSTORE PUSH1 0x24 PUSH1 0x0 REVERT JUMPDEST PUSH32 0x4E487B7100000000000000000000000000000000000000000000000000000000 PUSH1 0x0 MSTORE PUSH1 0x12 PUSH1 0x4 MSTORE PUSH1 0x24 PUSH1 0x0 REVERT JUMPDEST PUSH2 0x265E DUP2 PUSH2 0x2558 JUMP JUMPDEST DUP2 EQ PUSH2 0x2669 JUMPI PUSH1 0x0 DUP1 REVERT JUMPDEST POP JUMP JUMPDEST PUSH2 0x2675 DUP2 PUSH2 0x256A JUMP JUMPDEST DUP2 EQ PUSH2 0x2680 JUMPI PUSH1 0x0 DUP1 REVERT JUMPDEST POP JUMP JUMPDEST PUSH2 0x268C DUP2 PUSH2 0x2576 JUMP JUMPDEST DUP2 EQ PUSH2 0x2697 JUMPI PUSH1 0x0 DUP1 REVERT JUMPDEST POP JUMP JUMPDEST PUSH2 0x26A3 DUP2 PUSH2 0x25A0 JUMP JUMPDEST DUP2 EQ PUSH2 0x26AE JUMPI PUSH1 0x0 DUP1 REVERT JUMPDEST POP JUMP JUMPDEST PUSH2 0x26BA DUP2 PUSH2 0x25AA JUMP JUMPDEST DUP2 EQ PUSH2 0x26C5 JUMPI PUSH1 0x0 DUP1 REVERT JUMPDEST POP JUMP JUMPDEST PUSH2 0x26D1 DUP2 PUSH2 0x25B7 JUMP JUMPDEST DUP2 EQ PUSH2 0x26DC JUMPI PUSH1 0x0 DUP1 REVERT JUMPDEST POP JUMP INVALID LOG2 PUSH5 0x6970667358 0x22 SLT KECCAK256 0xAA GAS 0xEF JUMP 0xBD PUSH15 0x1A509E597FC4A434B2B41496CC42F0 STOP DUP10 DUP12 ISZERO RETURN SSTORE STATICCALL EXTCODEHASH 0xB5 0xDE 0xEB PUSH5 0x736F6C6343 STOP ADDMOD STOP STOP CALLER "
        },
        "gasEstimates": {
          "creation": {
            "codeDepositCost": "2001000",
            "executionCost": "infinite",
            "totalCost": "infinite"
          },
          "external": {
            "REWARD_PER_WINDOW()": "418",
            "accumulatedFees()": "1219",
            "betListLen(address)": "1639",
            "betResult(uint256,uint256)": "infinite",
            "calculateTokenReward(uint256,uint256,uint256,uint256)": "infinite",
            "changeGovernance(address)": "22259",
            "changeWindowSize(uint256)": "infinite",
            "computeFee(uint256,uint256)": "infinite",
            "fee()": "1218",
            "firstBlock()": "1175",
            "firstWindow()": "1173",
            "getPoolValues(uint256)": "infinite",
            "getUserBetList(address,uint256)": "infinite",
            "getUserStake(uint256,address)": "infinite",
            "getWindowBetPrices(uint256)": "infinite",
            "getWindowNumber(uint256,uint256,uint256,uint256,uint256)": "infinite",
            "getWindowStartingBlock(uint256,uint256,uint256,uint256)": "infinite",
            "placeBet(uint8)": "infinite",
            "pools(uint256)": "infinite",
            "settleBet(uint256,uint256,uint256,uint256,uint8)": "infinite",
            "updateBalance(address)": "infinite",
            "updatePool(uint256,uint256,uint8,uint256)": "infinite",
            "updatePrice()": "infinite",
            "userBets(address,uint256)": "infinite",
            "userStake(address,uint256)": "infinite",
            "windowDuration()": "1174",
            "windowOffset()": "1175",
            "windowPrice(uint256)": "infinite"
          },
          "internal": {
            "priceOracle()": "infinite",
            "sharePool(uint256,uint256,uint256)": "infinite"
          }
        },
        "methodIdentifiers": {
          "REWARD_PER_WINDOW()": "71a42207",
          "accumulatedFees()": "587f5ed7",
          "betListLen(address)": "89b808a7",
          "betResult(uint256,uint256)": "1bb5abf9",
          "calculateTokenReward(uint256,uint256,uint256,uint256)": "daaac9d2",
          "changeGovernance(address)": "99572d6f",
          "changeWindowSize(uint256)": "f52818f0",
          "computeFee(uint256,uint256)": "2ff284c2",
          "fee()": "ddca3f43",
          "firstBlock()": "231b0268",
          "firstWindow()": "e0a5cee3",
          "getPoolValues(uint256)": "0eff4d88",
          "getUserBetList(address,uint256)": "b47a3566",
          "getUserStake(uint256,address)": "9626a230",
          "getWindowBetPrices(uint256)": "f83b35fb",
          "getWindowNumber(uint256,uint256,uint256,uint256,uint256)": "576fe42f",
          "getWindowStartingBlock(uint256,uint256,uint256,uint256)": "849cd1c7",
          "placeBet(uint8)": "43046844",
          "pools(uint256)": "ac4afa38",
          "settleBet(uint256,uint256,uint256,uint256,uint8)": "ca055e53",
          "updateBalance(address)": "40b8405a",
          "updatePool(uint256,uint256,uint8,uint256)": "0ed6ca29",
          "updatePrice()": "673a7e28",
          "userBets(address,uint256)": "8068aa68",
          "userStake(address,uint256)": "3937ea4f",
          "windowDuration()": "5c11ff7a",
          "windowOffset()": "80962668",
          "windowPrice(uint256)": "e0d65d87"
        }
      },
      "storageLayout": {
        "storage": [
          {
            "astId": 784,
            "contract": "contracts/BinaryBet.sol:BinaryBet",
            "label": "priceFeed",
            "offset": 0,
            "slot": "0",
            "type": "t_contract(AggregatorV3Interface)45"
          },
          {
            "astId": 786,
            "contract": "contracts/BinaryBet.sol:BinaryBet",
            "label": "governance",
            "offset": 0,
            "slot": "1",
            "type": "t_address"
          },
          {
            "astId": 791,
            "contract": "contracts/BinaryBet.sol:BinaryBet",
            "label": "fee",
            "offset": 0,
            "slot": "2",
            "type": "t_uint256"
          },
          {
            "astId": 793,
            "contract": "contracts/BinaryBet.sol:BinaryBet",
            "label": "windowDuration",
            "offset": 0,
            "slot": "3",
            "type": "t_uint256"
          },
          {
            "astId": 795,
            "contract": "contracts/BinaryBet.sol:BinaryBet",
            "label": "firstBlock",
            "offset": 0,
            "slot": "4",
            "type": "t_uint256"
          },
          {
            "astId": 798,
            "contract": "contracts/BinaryBet.sol:BinaryBet",
            "label": "staking",
            "offset": 0,
            "slot": "5",
            "type": "t_contract(BinaryStaking)2126"
          },
          {
            "astId": 800,
            "contract": "contracts/BinaryBet.sol:BinaryBet",
            "label": "stakingAddress",
            "offset": 0,
            "slot": "6",
            "type": "t_address_payable"
          },
          {
            "astId": 803,
            "contract": "contracts/BinaryBet.sol:BinaryBet",
            "label": "token",
            "offset": 0,
            "slot": "7",
            "type": "t_contract(BinToken)762"
          },
          {
            "astId": 805,
            "contract": "contracts/BinaryBet.sol:BinaryBet",
            "label": "tokenAddress",
            "offset": 0,
            "slot": "8",
            "type": "t_address"
          },
          {
            "astId": 810,
            "contract": "contracts/BinaryBet.sol:BinaryBet",
            "label": "pools",
            "offset": 0,
            "slot": "9",
            "type": "t_mapping(t_uint256,t_struct(Pool)781_storage)"
          },
          {
            "astId": 814,
            "contract": "contracts/BinaryBet.sol:BinaryBet",
            "label": "windowPrice",
            "offset": 0,
            "slot": "10",
            "type": "t_mapping(t_uint256,t_uint256)"
          },
          {
            "astId": 817,
            "contract": "contracts/BinaryBet.sol:BinaryBet",
            "label": "firstWindow",
            "offset": 0,
            "slot": "11",
            "type": "t_uint256"
          },
          {
            "astId": 819,
            "contract": "contracts/BinaryBet.sol:BinaryBet",
            "label": "windowOffset",
            "offset": 0,
            "slot": "12",
            "type": "t_uint256"
          },
          {
            "astId": 821,
            "contract": "contracts/BinaryBet.sol:BinaryBet",
            "label": "accumulatedFees",
            "offset": 0,
            "slot": "13",
            "type": "t_uint256"
          },
          {
            "astId": 828,
            "contract": "contracts/BinaryBet.sol:BinaryBet",
            "label": "userStake",
            "offset": 0,
            "slot": "14",
            "type": "t_mapping(t_address,t_mapping(t_uint256,t_struct(Pool)781_storage))"
          },
          {
            "astId": 833,
            "contract": "contracts/BinaryBet.sol:BinaryBet",
            "label": "userBets",
            "offset": 0,
            "slot": "15",
            "type": "t_mapping(t_address,t_array(t_uint256)dyn_storage)"
          },
          {
            "astId": 839,
            "contract": "contracts/BinaryBet.sol:BinaryBet",
            "label": "userBetted",
            "offset": 0,
            "slot": "16",
            "type": "t_mapping(t_address,t_mapping(t_uint256,t_bool))"
          }
        ],
        "types": {
          "t_address": {
            "encoding": "inplace",
            "label": "address",
            "numberOfBytes": "20"
          },
          "t_address_payable": {
            "encoding": "inplace",
            "label": "address payable",
            "numberOfBytes": "20"
          },
          "t_array(t_uint256)dyn_storage": {
            "base": "t_uint256",
            "encoding": "dynamic_array",
            "label": "uint256[]",
            "numberOfBytes": "32"
          },
          "t_bool": {
            "encoding": "inplace",
            "label": "bool",
            "numberOfBytes": "1"
          },
          "t_contract(AggregatorV3Interface)45": {
            "encoding": "inplace",
            "label": "contract AggregatorV3Interface",
            "numberOfBytes": "20"
          },
          "t_contract(BinToken)762": {
            "encoding": "inplace",
            "label": "contract BinToken",
            "numberOfBytes": "20"
          },
          "t_contract(BinaryStaking)2126": {
            "encoding": "inplace",
            "label": "contract BinaryStaking",
            "numberOfBytes": "20"
          },
          "t_mapping(t_address,t_array(t_uint256)dyn_storage)": {
            "encoding": "mapping",
            "key": "t_address",
            "label": "mapping(address => uint256[])",
            "numberOfBytes": "32",
            "value": "t_array(t_uint256)dyn_storage"
          },
          "t_mapping(t_address,t_mapping(t_uint256,t_bool))": {
            "encoding": "mapping",
            "key": "t_address",
            "label": "mapping(address => mapping(uint256 => bool))",
            "numberOfBytes": "32",
            "value": "t_mapping(t_uint256,t_bool)"
          },
          "t_mapping(t_address,t_mapping(t_uint256,t_struct(Pool)781_storage))": {
            "encoding": "mapping",
            "key": "t_address",
            "label": "mapping(address => mapping(uint256 => struct BinaryBet.Pool))",
            "numberOfBytes": "32",
            "value": "t_mapping(t_uint256,t_struct(Pool)781_storage)"
          },
          "t_mapping(t_uint256,t_bool)": {
            "encoding": "mapping",
            "key": "t_uint256",
            "label": "mapping(uint256 => bool)",
            "numberOfBytes": "32",
            "value": "t_bool"
          },
          "t_mapping(t_uint256,t_struct(Pool)781_storage)": {
            "encoding": "mapping",
            "key": "t_uint256",
            "label": "mapping(uint256 => struct BinaryBet.Pool)",
            "numberOfBytes": "32",
            "value": "t_struct(Pool)781_storage"
          },
          "t_mapping(t_uint256,t_uint256)": {
            "encoding": "mapping",
            "key": "t_uint256",
            "label": "mapping(uint256 => uint256)",
            "numberOfBytes": "32",
            "value": "t_uint256"
          },
          "t_struct(Pool)781_storage": {
            "encoding": "inplace",
            "label": "struct BinaryBet.Pool",
            "members": [
              {
                "astId": 778,
                "contract": "contracts/BinaryBet.sol:BinaryBet",
                "label": "downValue",
                "offset": 0,
                "slot": "0",
                "type": "t_uint256"
              },
              {
                "astId": 780,
                "contract": "contracts/BinaryBet.sol:BinaryBet",
                "label": "upValue",
                "offset": 0,
                "slot": "1",
                "type": "t_uint256"
              }
            ],
            "numberOfBytes": "64"
          },
          "t_uint256": {
            "encoding": "inplace",
            "label": "uint256",
            "numberOfBytes": "32"
          }
        }
      },
      "userdoc": {
        "kind": "user",
        "methods": {},
        "version": 1
      }
    }
  }
}