{
  "contracts/BinaryBet.sol": {
    "BinaryBet": {
      "abi": [
        {
          "inputs": [
            {
              "internalType": "uint256",
              "name": "_windowDuration",
              "type": "uint256"
            },
            {
              "internalType": "uint256",
              "name": "_fee",
              "type": "uint256"
            },
            {
              "internalType": "address",
              "name": "aggregator",
              "type": "address"
            },
            {
              "internalType": "address",
              "name": "stakingContract",
              "type": "address"
            },
            {
              "internalType": "address",
              "name": "tokenContract",
              "type": "address"
            },
            {
              "internalType": "uint256",
              "name": "reward",
              "type": "uint256"
            }
          ],
          "stateMutability": "nonpayable",
          "type": "constructor"
        },
        {
          "anonymous": false,
          "inputs": [
            {
              "indexed": true,
              "internalType": "uint256",
              "name": "windowNumber",
              "type": "uint256"
            },
            {
              "indexed": true,
              "internalType": "address",
              "name": "user",
              "type": "address"
            },
            {
              "indexed": false,
              "internalType": "uint256",
              "name": "gain",
              "type": "uint256"
            }
          ],
          "name": "BetSettled",
          "type": "event"
        },
        {
          "anonymous": false,
          "inputs": [
            {
              "indexed": true,
              "internalType": "address",
              "name": "user",
              "type": "address"
            },
            {
              "indexed": true,
              "internalType": "uint256",
              "name": "windowNumber",
              "type": "uint256"
            },
            {
              "indexed": false,
              "internalType": "uint256",
              "name": "value",
              "type": "uint256"
            },
            {
              "indexed": false,
              "internalType": "uint8",
              "name": "side",
              "type": "uint8"
            }
          ],
          "name": "NewBet",
          "type": "event"
        },
        {
          "anonymous": false,
          "inputs": [
            {
              "indexed": true,
              "internalType": "address",
              "name": "previousOwner",
              "type": "address"
            },
            {
              "indexed": true,
              "internalType": "address",
              "name": "newOwner",
              "type": "address"
            }
          ],
          "name": "OwnershipTransferred",
          "type": "event"
        },
        {
          "anonymous": false,
          "inputs": [
            {
              "indexed": true,
              "internalType": "uint256",
              "name": "windowNumber",
              "type": "uint256"
            },
            {
              "indexed": false,
              "internalType": "uint256",
              "name": "price",
              "type": "uint256"
            }
          ],
          "name": "PriceUpdated",
          "type": "event"
        },
        {
          "inputs": [],
          "name": "REWARD_PER_WINDOW",
          "outputs": [
            {
              "internalType": "uint256",
              "name": "",
              "type": "uint256"
            }
          ],
          "stateMutability": "view",
          "type": "function"
        },
        {
          "inputs": [],
          "name": "accumulatedFees",
          "outputs": [
            {
              "internalType": "uint256",
              "name": "",
              "type": "uint256"
            }
          ],
          "stateMutability": "view",
          "type": "function"
        },
        {
          "inputs": [
            {
              "internalType": "address",
              "name": "_user",
              "type": "address"
            }
          ],
          "name": "betListLen",
          "outputs": [
            {
              "internalType": "uint256",
              "name": "",
              "type": "uint256"
            }
          ],
          "stateMutability": "view",
          "type": "function"
        },
        {
          "inputs": [
            {
              "internalType": "uint256",
              "name": "referencePrice",
              "type": "uint256"
            },
            {
              "internalType": "uint256",
              "name": "settlementPrice",
              "type": "uint256"
            }
          ],
          "name": "betResult",
          "outputs": [
            {
              "internalType": "uint8",
              "name": "",
              "type": "uint8"
            }
          ],
          "stateMutability": "pure",
          "type": "function"
        },
        {
          "inputs": [
            {
              "internalType": "uint256",
              "name": "upStake",
              "type": "uint256"
            },
            {
              "internalType": "uint256",
              "name": "downStake",
              "type": "uint256"
            },
            {
              "internalType": "uint256",
              "name": "poolUp",
              "type": "uint256"
            },
            {
              "internalType": "uint256",
              "name": "poolDown",
              "type": "uint256"
            }
          ],
          "name": "calculateTokenReward",
          "outputs": [
            {
              "internalType": "uint256",
              "name": "",
              "type": "uint256"
            }
          ],
          "stateMutability": "view",
          "type": "function"
        },
        {
          "inputs": [
            {
              "internalType": "uint256",
              "name": "windowSize",
              "type": "uint256"
            }
          ],
          "name": "changeWindowSize",
          "outputs": [],
          "stateMutability": "nonpayable",
          "type": "function"
        },
        {
          "inputs": [
            {
              "internalType": "uint256",
              "name": "value",
              "type": "uint256"
            },
            {
              "internalType": "uint256",
              "name": "_fee",
              "type": "uint256"
            }
          ],
          "name": "computeFee",
          "outputs": [
            {
              "internalType": "uint256",
              "name": "betFee",
              "type": "uint256"
            }
          ],
          "stateMutability": "pure",
          "type": "function"
        },
        {
          "inputs": [],
          "name": "fee",
          "outputs": [
            {
              "internalType": "uint256",
              "name": "",
              "type": "uint256"
            }
          ],
          "stateMutability": "view",
          "type": "function"
        },
        {
          "inputs": [],
          "name": "firstBlock",
          "outputs": [
            {
              "internalType": "uint256",
              "name": "",
              "type": "uint256"
            }
          ],
          "stateMutability": "view",
          "type": "function"
        },
        {
          "inputs": [],
          "name": "firstWindow",
          "outputs": [
            {
              "internalType": "uint256",
              "name": "",
              "type": "uint256"
            }
          ],
          "stateMutability": "view",
          "type": "function"
        },
        {
          "inputs": [
            {
              "internalType": "uint256",
              "name": "windowNumber",
              "type": "uint256"
            }
          ],
          "name": "getPoolValues",
          "outputs": [
            {
              "internalType": "uint256",
              "name": "",
              "type": "uint256"
            },
            {
              "internalType": "uint256",
              "name": "",
              "type": "uint256"
            }
          ],
          "stateMutability": "view",
          "type": "function"
        },
        {
          "inputs": [
            {
              "internalType": "address",
              "name": "_user",
              "type": "address"
            },
            {
              "internalType": "uint256",
              "name": "index",
              "type": "uint256"
            }
          ],
          "name": "getUserBetList",
          "outputs": [
            {
              "internalType": "uint256",
              "name": "",
              "type": "uint256"
            }
          ],
          "stateMutability": "view",
          "type": "function"
        },
        {
          "inputs": [
            {
              "internalType": "uint256",
              "name": "windowNumber",
              "type": "uint256"
            },
            {
              "internalType": "address",
              "name": "_user",
              "type": "address"
            }
          ],
          "name": "getUserStake",
          "outputs": [
            {
              "internalType": "uint256",
              "name": "",
              "type": "uint256"
            },
            {
              "internalType": "uint256",
              "name": "",
              "type": "uint256"
            }
          ],
          "stateMutability": "view",
          "type": "function"
        },
        {
          "inputs": [
            {
              "internalType": "uint256",
              "name": "window",
              "type": "uint256"
            }
          ],
          "name": "getWindowBetPrices",
          "outputs": [
            {
              "internalType": "uint256",
              "name": "",
              "type": "uint256"
            },
            {
              "internalType": "uint256",
              "name": "",
              "type": "uint256"
            }
          ],
          "stateMutability": "view",
          "type": "function"
        },
        {
          "inputs": [
            {
              "internalType": "uint256",
              "name": "currentBlock",
              "type": "uint256"
            },
            {
              "internalType": "uint256",
              "name": "_windowDuration",
              "type": "uint256"
            },
            {
              "internalType": "uint256",
              "name": "_firstBlock",
              "type": "uint256"
            },
            {
              "internalType": "uint256",
              "name": "_windowOffset",
              "type": "uint256"
            },
            {
              "internalType": "uint256",
              "name": "_firstWindow",
              "type": "uint256"
            }
          ],
          "name": "getWindowNumber",
          "outputs": [
            {
              "internalType": "uint256",
              "name": "windowNumber",
              "type": "uint256"
            }
          ],
          "stateMutability": "pure",
          "type": "function"
        },
        {
          "inputs": [
            {
              "internalType": "uint256",
              "name": "windowNumber",
              "type": "uint256"
            },
            {
              "internalType": "uint256",
              "name": "_windowDuration",
              "type": "uint256"
            },
            {
              "internalType": "uint256",
              "name": "_firstBlock",
              "type": "uint256"
            },
            {
              "internalType": "uint256",
              "name": "_windowOffset",
              "type": "uint256"
            }
          ],
          "name": "getWindowStartingBlock",
          "outputs": [
            {
              "internalType": "uint256",
              "name": "startingBlock",
              "type": "uint256"
            }
          ],
          "stateMutability": "pure",
          "type": "function"
        },
        {
          "inputs": [],
          "name": "owner",
          "outputs": [
            {
              "internalType": "address",
              "name": "",
              "type": "address"
            }
          ],
          "stateMutability": "view",
          "type": "function"
        },
        {
          "inputs": [
            {
              "internalType": "uint8",
              "name": "side",
              "type": "uint8"
            }
          ],
          "name": "placeBet",
          "outputs": [],
          "stateMutability": "payable",
          "type": "function"
        },
        {
          "inputs": [
            {
              "internalType": "uint256",
              "name": "",
              "type": "uint256"
            }
          ],
          "name": "pools",
          "outputs": [
            {
              "internalType": "uint64",
              "name": "downValue",
              "type": "uint64"
            },
            {
              "internalType": "uint64",
              "name": "upValue",
              "type": "uint64"
            }
          ],
          "stateMutability": "view",
          "type": "function"
        },
        {
          "inputs": [],
          "name": "renounceOwnership",
          "outputs": [],
          "stateMutability": "nonpayable",
          "type": "function"
        },
        {
          "inputs": [
            {
              "internalType": "uint256",
              "name": "upStake",
              "type": "uint256"
            },
            {
              "internalType": "uint256",
              "name": "downStake",
              "type": "uint256"
            },
            {
              "internalType": "uint256",
              "name": "poolUp",
              "type": "uint256"
            },
            {
              "internalType": "uint256",
              "name": "poolDown",
              "type": "uint256"
            },
            {
              "internalType": "uint8",
              "name": "res",
              "type": "uint8"
            }
          ],
          "name": "settleBet",
          "outputs": [
            {
              "internalType": "uint256",
              "name": "gain",
              "type": "uint256"
            },
            {
              "internalType": "uint256",
              "name": "fees",
              "type": "uint256"
            }
          ],
          "stateMutability": "pure",
          "type": "function"
        },
        {
          "inputs": [
            {
              "internalType": "address",
              "name": "newOwner",
              "type": "address"
            }
          ],
          "name": "transferOwnership",
          "outputs": [],
          "stateMutability": "nonpayable",
          "type": "function"
        },
        {
          "inputs": [
            {
              "internalType": "address",
              "name": "_user",
              "type": "address"
            }
          ],
          "name": "updateBalance",
          "outputs": [],
          "stateMutability": "nonpayable",
          "type": "function"
        },
        {
          "inputs": [
            {
              "internalType": "uint64",
              "name": "downValue",
              "type": "uint64"
            },
            {
              "internalType": "uint64",
              "name": "upValue",
              "type": "uint64"
            },
            {
              "internalType": "uint8",
              "name": "side",
              "type": "uint8"
            },
            {
              "internalType": "uint64",
              "name": "value",
              "type": "uint64"
            }
          ],
          "name": "updatePool",
          "outputs": [
            {
              "internalType": "uint64",
              "name": "",
              "type": "uint64"
            },
            {
              "internalType": "uint64",
              "name": "",
              "type": "uint64"
            }
          ],
          "stateMutability": "pure",
          "type": "function"
        },
        {
          "inputs": [],
          "name": "updatePrice",
          "outputs": [],
          "stateMutability": "nonpayable",
          "type": "function"
        },
        {
          "inputs": [],
          "name": "windowDuration",
          "outputs": [
            {
              "internalType": "uint256",
              "name": "",
              "type": "uint256"
            }
          ],
          "stateMutability": "view",
          "type": "function"
        },
        {
          "inputs": [],
          "name": "windowOffset",
          "outputs": [
            {
              "internalType": "uint256",
              "name": "",
              "type": "uint256"
            }
          ],
          "stateMutability": "view",
          "type": "function"
        },
        {
          "inputs": [
            {
              "internalType": "uint256",
              "name": "",
              "type": "uint256"
            }
          ],
          "name": "windowPrice",
          "outputs": [
            {
              "internalType": "uint256",
              "name": "",
              "type": "uint256"
            }
          ],
          "stateMutability": "view",
          "type": "function"
        },
        {
          "inputs": [
            {
              "internalType": "uint256",
              "name": "window",
              "type": "uint256"
            },
            {
              "internalType": "uint256",
              "name": "currentWindow",
              "type": "uint256"
            },
            {
              "internalType": "uint256",
              "name": "initialPrice",
              "type": "uint256"
            },
            {
              "internalType": "uint256",
              "name": "finalPrice",
              "type": "uint256"
            }
          ],
          "name": "windowStatus",
          "outputs": [
            {
              "internalType": "enum BinaryBet.WindowStatus",
              "name": "status",
              "type": "uint8"
            }
          ],
          "stateMutability": "pure",
          "type": "function"
        }
      ],
      "devdoc": {
        "kind": "dev",
        "methods": {
          "owner()": {
            "details": "Returns the address of the current owner."
          },
          "renounceOwnership()": {
            "details": "Leaves the contract without owner. It will not be possible to call `onlyOwner` functions anymore. Can only be called by the current owner. NOTE: Renouncing ownership will leave the contract without an owner, thereby removing any functionality that is only available to the owner."
          },
          "transferOwnership(address)": {
            "details": "Transfers ownership of the contract to a new account (`newOwner`). Can only be called by the current owner."
          }
        },
        "version": 1
      },
      "evm": {
        "bytecode": {
          "linkReferences": {},
          "object": "60a06040526001600b553480156200001657600080fd5b5060405162001bcf38038062001bcf833981016040819052620000399162000141565b6200004433620000d4565b60648511156200005357600080fd5b600180546001600160a01b038087166001600160a01b03199283161783554360085560098990556007889055600b9290925560048054868416908316811790915560038054831690911790556002805492851692909116919091179055620000c481670de0b6b3a7640000620001a7565b60805250620001d5945050505050565b600080546001600160a01b038381166001600160a01b0319831681178455604051919092169283917f8be0079c531659141344cd1fd0a4f28419497f9722a3daafe3b4186f6b6457e09190a35050565b80516001600160a01b03811681146200013c57600080fd5b919050565b60008060008060008060c087890312156200015b57600080fd5b8651955060208701519450620001746040880162000124565b9350620001846060880162000124565b9250620001946080880162000124565b915060a087015190509295509295509295565b6000816000190483118215151615620001d057634e487b7160e01b600052601160045260246000fd5b500290565b6080516119d7620001f86000396000818161036c0152610fd001526119d76000f3fe6080604052600436106101c25760003560e01c806389b808a7116100f7578063ca055e5311610095578063e0d65d8711610064578063e0d65d87146105cb578063f2fde38b146105f8578063f52818f014610618578063f83b35fb1461063857600080fd5b8063ca055e531461055f578063daaac9d21461057f578063ddca3f431461059f578063e0a5cee3146105b557600080fd5b8063a671bd6e116100d1578063a671bd6e1461048f578063ac4afa38146104d0578063b134894e14610512578063b47a35661461053f57600080fd5b806389b808a7146103c45780638da5cb5b146103fd5780639626a2301461042557600080fd5b8063587f5ed711610164578063715018a61161013e578063715018a61461034557806371a422071461035a578063809626681461038e578063849cd1c7146103a457600080fd5b8063587f5ed7146103045780635c11ff7a1461031a578063673a7e281461033057600080fd5b80632ff284c2116101a05780632ff284c21461028f57806340b8405a146102af57806343046844146102d1578063576fe42f146102e457600080fd5b80630eff4d88146101c75780631bb5abf914610239578063231b02681461026b575b600080fd5b3480156101d357600080fd5b5061021f6101e23660046115bf565b60009081526005602090815260409182902082518084019093525467ffffffffffffffff808216808552600160401b909204169290910182905291565b604080519283526020830191909152015b60405180910390f35b34801561024557600080fd5b506102596102543660046115d8565b610658565b60405160ff9091168152602001610230565b34801561027757600080fd5b5061028160085481565b604051908152602001610230565b34801561029b57600080fd5b506102816102aa3660046115d8565b610684565b3480156102bb57600080fd5b506102cf6102ca366004611616565b6106a3565b005b6102cf6102df366004611642565b6109e2565b3480156102f057600080fd5b506102816102ff36600461165d565b610c8e565b34801561031057600080fd5b5061028160065481565b34801561032657600080fd5b5061028160095481565b34801561033c57600080fd5b506102cf610cd6565b34801561035157600080fd5b506102cf610d5b565b34801561036657600080fd5b506102817f000000000000000000000000000000000000000000000000000000000000000081565b34801561039a57600080fd5b50610281600c5481565b3480156103b057600080fd5b506102816103bf366004611698565b610dc1565b3480156103d057600080fd5b506102816103df366004611616565b6001600160a01b03166000908152600d602052604090206001015490565b34801561040957600080fd5b506000546040516001600160a01b039091168152602001610230565b34801561043157600080fd5b5061021f6104403660046116ca565b6001600160a01b03166000908152600d602090815260408083209383529281529082902082518084019093525467ffffffffffffffff808216808552600160401b909204169290910182905291565b34801561049b57600080fd5b506104af6104aa36600461170e565b610dee565b6040805167ffffffffffffffff938416815292909116602083015201610230565b3480156104dc57600080fd5b506104af6104eb3660046115bf565b60056020526000908152604090205467ffffffffffffffff80821691600160401b90041682565b34801561051e57600080fd5b5061053261052d366004611698565b610e53565b6040516102309190611778565b34801561054b57600080fd5b5061028161055a3660046117a0565b610eb7565b34801561056b57600080fd5b5061021f61057a3660046117ca565b610ef7565b34801561058b57600080fd5b5061028161059a366004611698565b610fc9565b3480156105ab57600080fd5b5061028160075481565b3480156105c157600080fd5b50610281600b5481565b3480156105d757600080fd5b506102816105e63660046115bf565b600a6020526000908152604090205481565b34801561060457600080fd5b506102cf610613366004611616565b611008565b34801561062457600080fd5b506102cf6106333660046115bf565b6110e7565b34801561064457600080fd5b5061021f6106533660046115bf565b6111fc565b60008282101561066a5750600061067e565b8282111561067a5750600161067e565b5060025b92915050565b600060646106928385611829565b61069c9190611848565b9392505050565b6001600160a01b0381166000908152600d6020526040902060018101546106c8575050565b60018101546000905b80156109a4576000836001016001836106ea919061186a565b815481106106fa576106fa611881565b90600052602060002001549050600061071e43600954600854600c54600b54610c8e565b905060008061072c846111fc565b91509150600061073e85858585610e53565b9050600081600381111561075457610754611762565b14806107715750600181600381111561076f5761076f611762565b145b15610780575050505050610992565b6000600382600381111561079657610796611762565b14156107ad576107a68484610658565b90506107cb565b60028260038111156107c1576107c1611762565b14156107cb575060025b6001808a01805490916107dd9161186a565b815481106107ed576107ed611881565b906000526020600020015489600101600189610809919061186a565b8154811061081957610819611881565b6000918252602090912001556001890180548061083857610838611897565b6000828152602080822083016000199081018390559092019092558782528a8152604080832081518083018352905467ffffffffffffffff8082168352600160401b9182900481168386019081528c87526005865284872085518087019096525480831680875293900482169585018690525183519396949585946108c39492841693169189610ef7565b90925090506108d2828d6118ad565b9b50806006546108e291906118ad565b600681905550600061092e856020015167ffffffffffffffff16866000015167ffffffffffffffff16866020015167ffffffffffffffff16876000015167ffffffffffffffff16610fc9565b905061093a8f82611245565b610942611433565b8e6001600160a01b03168b7f6f277b50171c654e40c771d9c2bbf19e070eeb21cce6f8e9a80334564279e3958560405161097e91815260200190565b60405180910390a350505050505050505050505b8061099c816118c5565b9150506106d1565b506040516001600160a01b0384169082156108fc029083906000818181858888f193505050501580156109db573d6000803e3d6000fd5b505b505050565b60003411610a375760405162461bcd60e51b815260206004820152601d60248201527f4f6e6c79207374726963746c7920706f7369746976652076616c75657300000060448201526064015b60405180910390fd5b610a3f610cd6565b610a48336106a3565b6000610a5634600754610684565b905080600654610a6691906118ad565b6006556000610a75823461186a565b90506000610a8e43600954600854600c54600b54610c8e565b600081815260056020908152604080832081518083019092525467ffffffffffffffff808216808452600160401b90920416928201839052939450928291610ad891908988610dee565b60408051808201825267ffffffffffffffff8085168252808416602080840191825260008b8152600582528581209451855493518516600160401b026fffffffffffffffffffffffffffffffff1990941694169390931791909117909255338152600d909152206001810154929450909250901580610b835750600180820180549091610b649161186a565b81548110610b7457610b74611881565b90600052602060002001548514155b15610ba257600180820180549182018155600090815260209020018590555b600085815260208290526040902054610bd19067ffffffffffffffff80821691600160401b9004168a89610dee565b60408051808201825267ffffffffffffffff8085168252808416602080840191825260008c8152908890528490209251835491518316600160401b026fffffffffffffffffffffffffffffffff19909216921691909117179055519194509250859033907f85ff162f60a0eab11e1e0d3d9cfa18a46d7038a29751af4130dbaeeadbd37ed490610c7c908a908d9067ffffffffffffffff92909216825260ff16602082015260400190565b60405180910390a35050505050505050565b600083861015610c9f575080610ccd565b8285610cab868961186a565b610cb59190611848565b610cbf91906118ad565b610cca9060016118ad565b90505b95945050505050565b6000610ced43600954600854600c54600b54610c8e565b6000818152600a6020526040902054909150610d5857610d0b6114ac565b6000828152600a6020526040908190208290555182917f945c1c4e99aa89f648fbfe3df471b916f719e16d960fcec0737d4d56bd69683891610d4f91815260200190565b60405180910390a25b50565b6000546001600160a01b03163314610db55760405162461bcd60e51b815260206004820181905260248201527f4f776e61626c653a2063616c6c6572206973206e6f7420746865206f776e65726044820152606401610a2e565b610dbf6000611540565b565b60008382610dd060018861186a565b610dda919061186a565b610de49190611829565b610ccd90846118ad565b60008060008460ff166001811115610e0857610e08611762565b90506000816001811115610e1e57610e1e611762565b1415610e3957610e2e84886118dc565b869250925050610e4a565b86610e4485886118dc565b92509250505b94509492505050565b6000610e608560026118ad565b841015610e6f57506000610eaf565b610e7a8560036118ad565b84108015610e86575081155b15610e9357506001610eaf565b821580610e9e575081155b15610eab57506002610eaf565b5060035b949350505050565b6001600160a01b0382166000908152600d60205260408120600101805483908110610ee457610ee4611881565b9060005260206000200154905092915050565b60008060008360ff166002811115610f1157610f11611762565b90506000610f1f86886118ad565b90506001826002811115610f3557610f35611762565b148015610f4157508615155b15610f5857610f51818a896115a8565b9350610fbd565b6000826002811115610f6c57610f6c611762565b148015610f7857508515155b15610f8857610f518189886115a8565b6002826002811115610f9c57610f9c611762565b1415610fac57610f51888a6118ad565b60009350610fba888a6118ad565b92505b50509550959350505050565b6000610ccd7f0000000000000000000000000000000000000000000000000000000000000000610ff986886118ad565b61100385876118ad565b6115a8565b6000546001600160a01b031633146110625760405162461bcd60e51b815260206004820181905260248201527f4f776e61626c653a2063616c6c6572206973206e6f7420746865206f776e65726044820152606401610a2e565b6001600160a01b0381166110de5760405162461bcd60e51b815260206004820152602660248201527f4f776e61626c653a206e6577206f776e657220697320746865207a65726f206160448201527f64647265737300000000000000000000000000000000000000000000000000006064820152608401610a2e565b610d5881611540565b6000546001600160a01b031633146111415760405162461bcd60e51b815260206004820181905260248201527f4f776e61626c653a2063616c6c6572206973206e6f7420746865206f776e65726044820152606401610a2e565b600081116111b75760405162461bcd60e51b815260206004820152602760248201527f77696e646f772073697a652073686f756c64206265207374726963746c79207060448201527f6f736974697665000000000000000000000000000000000000000000000000006064820152608401610a2e565b60006111ce43600954600854600c54600b54610c8e565b90506111ec6111de8260016118ad565b600954600854600c54610dc1565b600855600c819055600b55600955565b600080600a8161120d8560016118ad565b815260200190815260200160002054600a600085600261122d91906118ad565b81526020019081526020016000205491509150915091565b6002546040516370a0823160e01b815230600482015282916001600160a01b0316906370a082319060240160206040518083038186803b15801561128857600080fd5b505afa15801561129c573d6000803e3d6000fd5b505050506040513d601f19601f820116820180604052508101906112c09190611908565b10611365576002546040517fa9059cbb0000000000000000000000000000000000000000000000000000000081526001600160a01b038481166004830152602482018490529091169063a9059cbb906044015b602060405180830381600087803b15801561132d57600080fd5b505af1158015611341573d6000803e3d6000fd5b505050506040513d601f19601f820116820180604052508101906109dd9190611921565b6002546040516370a0823160e01b81523060048201526001600160a01b039091169063a9059cbb90849083906370a082319060240160206040518083038186803b1580156113b257600080fd5b505afa1580156113c6573d6000803e3d6000fd5b505050506040513d601f19601f820116820180604052508101906113ea9190611908565b6040517fffffffff0000000000000000000000000000000000000000000000000000000060e085901b1681526001600160a01b0390921660048301526024820152604401611313565b60065415610dbf57600360009054906101000a90046001600160a01b03166001600160a01b0316625c33e16006546040518263ffffffff1660e01b81526004016000604051808303818588803b15801561148c57600080fd5b505af11580156114a0573d6000803e3d6000fd5b50506000600655505050565b600080600160009054906101000a90046001600160a01b03166001600160a01b031663feaf968c6040518163ffffffff1660e01b815260040160a06040518083038186803b1580156114fd57600080fd5b505afa158015611511573d6000803e3d6000fd5b505050506040513d601f19601f82011682018060405250810190611535919061195d565b509195945050505050565b600080546001600160a01b038381167fffffffffffffffffffffffff0000000000000000000000000000000000000000831681178455604051919092169283917f8be0079c531659141344cd1fd0a4f28419497f9722a3daafe3b4186f6b6457e09190a35050565b6000816115b58585611829565b610eaf9190611848565b6000602082840312156115d157600080fd5b5035919050565b600080604083850312156115eb57600080fd5b50508035926020909101359150565b80356001600160a01b038116811461161157600080fd5b919050565b60006020828403121561162857600080fd5b61069c826115fa565b803560ff8116811461161157600080fd5b60006020828403121561165457600080fd5b61069c82611631565b600080600080600060a0868803121561167557600080fd5b505083359560208501359550604085013594606081013594506080013592509050565b600080600080608085870312156116ae57600080fd5b5050823594602084013594506040840135936060013592509050565b600080604083850312156116dd57600080fd5b823591506116ed602084016115fa565b90509250929050565b803567ffffffffffffffff8116811461161157600080fd5b6000806000806080858703121561172457600080fd5b61172d856116f6565b935061173b602086016116f6565b925061174960408601611631565b9150611757606086016116f6565b905092959194509250565b634e487b7160e01b600052602160045260246000fd5b602081016004831061179a57634e487b7160e01b600052602160045260246000fd5b91905290565b600080604083850312156117b357600080fd5b6117bc836115fa565b946020939093013593505050565b600080600080600060a086880312156117e257600080fd5b8535945060208601359350604086013592506060860135915061180760808701611631565b90509295509295909350565b634e487b7160e01b600052601160045260246000fd5b600081600019048311821515161561184357611843611813565b500290565b60008261186557634e487b7160e01b600052601260045260246000fd5b500490565b60008282101561187c5761187c611813565b500390565b634e487b7160e01b600052603260045260246000fd5b634e487b7160e01b600052603160045260246000fd5b600082198211156118c0576118c0611813565b500190565b6000816118d4576118d4611813565b506000190190565b600067ffffffffffffffff8083168185168083038211156118ff576118ff611813565b01949350505050565b60006020828403121561191a57600080fd5b5051919050565b60006020828403121561193357600080fd5b8151801515811461069c57600080fd5b805169ffffffffffffffffffff8116811461161157600080fd5b600080600080600060a0868803121561197557600080fd5b61197e86611943565b94506020860151935060408601519250606086015191506118076080870161194356fea264697066735822122021941ba02b473d4a32c7b89b879238355199964bc373a0b545ed44c6385d6c4f64736f6c63430008080033",
          "opcodes": "PUSH1 0xA0 PUSH1 0x40 MSTORE PUSH1 0x1 PUSH1 0xB SSTORE CALLVALUE DUP1 ISZERO PUSH3 0x16 JUMPI PUSH1 0x0 DUP1 REVERT JUMPDEST POP PUSH1 0x40 MLOAD PUSH3 0x1BCF CODESIZE SUB DUP1 PUSH3 0x1BCF DUP4 CODECOPY DUP2 ADD PUSH1 0x40 DUP2 SWAP1 MSTORE PUSH3 0x39 SWAP2 PUSH3 0x141 JUMP JUMPDEST PUSH3 0x44 CALLER PUSH3 0xD4 JUMP JUMPDEST PUSH1 0x64 DUP6 GT ISZERO PUSH3 0x53 JUMPI PUSH1 0x0 DUP1 REVERT JUMPDEST PUSH1 0x1 DUP1 SLOAD PUSH1 0x1 PUSH1 0x1 PUSH1 0xA0 SHL SUB DUP1 DUP8 AND PUSH1 0x1 PUSH1 0x1 PUSH1 0xA0 SHL SUB NOT SWAP3 DUP4 AND OR DUP4 SSTORE NUMBER PUSH1 0x8 SSTORE PUSH1 0x9 DUP10 SWAP1 SSTORE PUSH1 0x7 DUP9 SWAP1 SSTORE PUSH1 0xB SWAP3 SWAP1 SWAP3 SSTORE PUSH1 0x4 DUP1 SLOAD DUP7 DUP5 AND SWAP1 DUP4 AND DUP2 OR SWAP1 SWAP2 SSTORE PUSH1 0x3 DUP1 SLOAD DUP4 AND SWAP1 SWAP2 OR SWAP1 SSTORE PUSH1 0x2 DUP1 SLOAD SWAP3 DUP6 AND SWAP3 SWAP1 SWAP2 AND SWAP2 SWAP1 SWAP2 OR SWAP1 SSTORE PUSH3 0xC4 DUP2 PUSH8 0xDE0B6B3A7640000 PUSH3 0x1A7 JUMP JUMPDEST PUSH1 0x80 MSTORE POP PUSH3 0x1D5 SWAP5 POP POP POP POP POP JUMP JUMPDEST PUSH1 0x0 DUP1 SLOAD PUSH1 0x1 PUSH1 0x1 PUSH1 0xA0 SHL SUB DUP4 DUP2 AND PUSH1 0x1 PUSH1 0x1 PUSH1 0xA0 SHL SUB NOT DUP4 AND DUP2 OR DUP5 SSTORE PUSH1 0x40 MLOAD SWAP2 SWAP1 SWAP3 AND SWAP3 DUP4 SWAP2 PUSH32 0x8BE0079C531659141344CD1FD0A4F28419497F9722A3DAAFE3B4186F6B6457E0 SWAP2 SWAP1 LOG3 POP POP JUMP JUMPDEST DUP1 MLOAD PUSH1 0x1 PUSH1 0x1 PUSH1 0xA0 SHL SUB DUP2 AND DUP2 EQ PUSH3 0x13C JUMPI PUSH1 0x0 DUP1 REVERT JUMPDEST SWAP2 SWAP1 POP JUMP JUMPDEST PUSH1 0x0 DUP1 PUSH1 0x0 DUP1 PUSH1 0x0 DUP1 PUSH1 0xC0 DUP8 DUP10 SUB SLT ISZERO PUSH3 0x15B JUMPI PUSH1 0x0 DUP1 REVERT JUMPDEST DUP7 MLOAD SWAP6 POP PUSH1 0x20 DUP8 ADD MLOAD SWAP5 POP PUSH3 0x174 PUSH1 0x40 DUP9 ADD PUSH3 0x124 JUMP JUMPDEST SWAP4 POP PUSH3 0x184 PUSH1 0x60 DUP9 ADD PUSH3 0x124 JUMP JUMPDEST SWAP3 POP PUSH3 0x194 PUSH1 0x80 DUP9 ADD PUSH3 0x124 JUMP JUMPDEST SWAP2 POP PUSH1 0xA0 DUP8 ADD MLOAD SWAP1 POP SWAP3 SWAP6 POP SWAP3 SWAP6 POP SWAP3 SWAP6 JUMP JUMPDEST PUSH1 0x0 DUP2 PUSH1 0x0 NOT DIV DUP4 GT DUP3 ISZERO ISZERO AND ISZERO PUSH3 0x1D0 JUMPI PUSH4 0x4E487B71 PUSH1 0xE0 SHL PUSH1 0x0 MSTORE PUSH1 0x11 PUSH1 0x4 MSTORE PUSH1 0x24 PUSH1 0x0 REVERT JUMPDEST POP MUL SWAP1 JUMP JUMPDEST PUSH1 0x80 MLOAD PUSH2 0x19D7 PUSH3 0x1F8 PUSH1 0x0 CODECOPY PUSH1 0x0 DUP2 DUP2 PUSH2 0x36C ADD MSTORE PUSH2 0xFD0 ADD MSTORE PUSH2 0x19D7 PUSH1 0x0 RETURN INVALID PUSH1 0x80 PUSH1 0x40 MSTORE PUSH1 0x4 CALLDATASIZE LT PUSH2 0x1C2 JUMPI PUSH1 0x0 CALLDATALOAD PUSH1 0xE0 SHR DUP1 PUSH4 0x89B808A7 GT PUSH2 0xF7 JUMPI DUP1 PUSH4 0xCA055E53 GT PUSH2 0x95 JUMPI DUP1 PUSH4 0xE0D65D87 GT PUSH2 0x64 JUMPI DUP1 PUSH4 0xE0D65D87 EQ PUSH2 0x5CB JUMPI DUP1 PUSH4 0xF2FDE38B EQ PUSH2 0x5F8 JUMPI DUP1 PUSH4 0xF52818F0 EQ PUSH2 0x618 JUMPI DUP1 PUSH4 0xF83B35FB EQ PUSH2 0x638 JUMPI PUSH1 0x0 DUP1 REVERT JUMPDEST DUP1 PUSH4 0xCA055E53 EQ PUSH2 0x55F JUMPI DUP1 PUSH4 0xDAAAC9D2 EQ PUSH2 0x57F JUMPI DUP1 PUSH4 0xDDCA3F43 EQ PUSH2 0x59F JUMPI DUP1 PUSH4 0xE0A5CEE3 EQ PUSH2 0x5B5 JUMPI PUSH1 0x0 DUP1 REVERT JUMPDEST DUP1 PUSH4 0xA671BD6E GT PUSH2 0xD1 JUMPI DUP1 PUSH4 0xA671BD6E EQ PUSH2 0x48F JUMPI DUP1 PUSH4 0xAC4AFA38 EQ PUSH2 0x4D0 JUMPI DUP1 PUSH4 0xB134894E EQ PUSH2 0x512 JUMPI DUP1 PUSH4 0xB47A3566 EQ PUSH2 0x53F JUMPI PUSH1 0x0 DUP1 REVERT JUMPDEST DUP1 PUSH4 0x89B808A7 EQ PUSH2 0x3C4 JUMPI DUP1 PUSH4 0x8DA5CB5B EQ PUSH2 0x3FD JUMPI DUP1 PUSH4 0x9626A230 EQ PUSH2 0x425 JUMPI PUSH1 0x0 DUP1 REVERT JUMPDEST DUP1 PUSH4 0x587F5ED7 GT PUSH2 0x164 JUMPI DUP1 PUSH4 0x715018A6 GT PUSH2 0x13E JUMPI DUP1 PUSH4 0x715018A6 EQ PUSH2 0x345 JUMPI DUP1 PUSH4 0x71A42207 EQ PUSH2 0x35A JUMPI DUP1 PUSH4 0x80962668 EQ PUSH2 0x38E JUMPI DUP1 PUSH4 0x849CD1C7 EQ PUSH2 0x3A4 JUMPI PUSH1 0x0 DUP1 REVERT JUMPDEST DUP1 PUSH4 0x587F5ED7 EQ PUSH2 0x304 JUMPI DUP1 PUSH4 0x5C11FF7A EQ PUSH2 0x31A JUMPI DUP1 PUSH4 0x673A7E28 EQ PUSH2 0x330 JUMPI PUSH1 0x0 DUP1 REVERT JUMPDEST DUP1 PUSH4 0x2FF284C2 GT PUSH2 0x1A0 JUMPI DUP1 PUSH4 0x2FF284C2 EQ PUSH2 0x28F JUMPI DUP1 PUSH4 0x40B8405A EQ PUSH2 0x2AF JUMPI DUP1 PUSH4 0x43046844 EQ PUSH2 0x2D1 JUMPI DUP1 PUSH4 0x576FE42F EQ PUSH2 0x2E4 JUMPI PUSH1 0x0 DUP1 REVERT JUMPDEST DUP1 PUSH4 0xEFF4D88 EQ PUSH2 0x1C7 JUMPI DUP1 PUSH4 0x1BB5ABF9 EQ PUSH2 0x239 JUMPI DUP1 PUSH4 0x231B0268 EQ PUSH2 0x26B JUMPI JUMPDEST PUSH1 0x0 DUP1 REVERT JUMPDEST CALLVALUE DUP1 ISZERO PUSH2 0x1D3 JUMPI PUSH1 0x0 DUP1 REVERT JUMPDEST POP PUSH2 0x21F PUSH2 0x1E2 CALLDATASIZE PUSH1 0x4 PUSH2 0x15BF JUMP JUMPDEST PUSH1 0x0 SWAP1 DUP2 MSTORE PUSH1 0x5 PUSH1 0x20 SWAP1 DUP2 MSTORE PUSH1 0x40 SWAP2 DUP3 SWAP1 KECCAK256 DUP3 MLOAD DUP1 DUP5 ADD SWAP1 SWAP4 MSTORE SLOAD PUSH8 0xFFFFFFFFFFFFFFFF DUP1 DUP3 AND DUP1 DUP6 MSTORE PUSH1 0x1 PUSH1 0x40 SHL SWAP1 SWAP3 DIV AND SWAP3 SWAP1 SWAP2 ADD DUP3 SWAP1 MSTORE SWAP2 JUMP JUMPDEST PUSH1 0x40 DUP1 MLOAD SWAP3 DUP4 MSTORE PUSH1 0x20 DUP4 ADD SWAP2 SWAP1 SWAP2 MSTORE ADD JUMPDEST PUSH1 0x40 MLOAD DUP1 SWAP2 SUB SWAP1 RETURN JUMPDEST CALLVALUE DUP1 ISZERO PUSH2 0x245 JUMPI PUSH1 0x0 DUP1 REVERT JUMPDEST POP PUSH2 0x259 PUSH2 0x254 CALLDATASIZE PUSH1 0x4 PUSH2 0x15D8 JUMP JUMPDEST PUSH2 0x658 JUMP JUMPDEST PUSH1 0x40 MLOAD PUSH1 0xFF SWAP1 SWAP2 AND DUP2 MSTORE PUSH1 0x20 ADD PUSH2 0x230 JUMP JUMPDEST CALLVALUE DUP1 ISZERO PUSH2 0x277 JUMPI PUSH1 0x0 DUP1 REVERT JUMPDEST POP PUSH2 0x281 PUSH1 0x8 SLOAD DUP2 JUMP JUMPDEST PUSH1 0x40 MLOAD SWAP1 DUP2 MSTORE PUSH1 0x20 ADD PUSH2 0x230 JUMP JUMPDEST CALLVALUE DUP1 ISZERO PUSH2 0x29B JUMPI PUSH1 0x0 DUP1 REVERT JUMPDEST POP PUSH2 0x281 PUSH2 0x2AA CALLDATASIZE PUSH1 0x4 PUSH2 0x15D8 JUMP JUMPDEST PUSH2 0x684 JUMP JUMPDEST CALLVALUE DUP1 ISZERO PUSH2 0x2BB JUMPI PUSH1 0x0 DUP1 REVERT JUMPDEST POP PUSH2 0x2CF PUSH2 0x2CA CALLDATASIZE PUSH1 0x4 PUSH2 0x1616 JUMP JUMPDEST PUSH2 0x6A3 JUMP JUMPDEST STOP JUMPDEST PUSH2 0x2CF PUSH2 0x2DF CALLDATASIZE PUSH1 0x4 PUSH2 0x1642 JUMP JUMPDEST PUSH2 0x9E2 JUMP JUMPDEST CALLVALUE DUP1 ISZERO PUSH2 0x2F0 JUMPI PUSH1 0x0 DUP1 REVERT JUMPDEST POP PUSH2 0x281 PUSH2 0x2FF CALLDATASIZE PUSH1 0x4 PUSH2 0x165D JUMP JUMPDEST PUSH2 0xC8E JUMP JUMPDEST CALLVALUE DUP1 ISZERO PUSH2 0x310 JUMPI PUSH1 0x0 DUP1 REVERT JUMPDEST POP PUSH2 0x281 PUSH1 0x6 SLOAD DUP2 JUMP JUMPDEST CALLVALUE DUP1 ISZERO PUSH2 0x326 JUMPI PUSH1 0x0 DUP1 REVERT JUMPDEST POP PUSH2 0x281 PUSH1 0x9 SLOAD DUP2 JUMP JUMPDEST CALLVALUE DUP1 ISZERO PUSH2 0x33C JUMPI PUSH1 0x0 DUP1 REVERT JUMPDEST POP PUSH2 0x2CF PUSH2 0xCD6 JUMP JUMPDEST CALLVALUE DUP1 ISZERO PUSH2 0x351 JUMPI PUSH1 0x0 DUP1 REVERT JUMPDEST POP PUSH2 0x2CF PUSH2 0xD5B JUMP JUMPDEST CALLVALUE DUP1 ISZERO PUSH2 0x366 JUMPI PUSH1 0x0 DUP1 REVERT JUMPDEST POP PUSH2 0x281 PUSH32 0x0 DUP2 JUMP JUMPDEST CALLVALUE DUP1 ISZERO PUSH2 0x39A JUMPI PUSH1 0x0 DUP1 REVERT JUMPDEST POP PUSH2 0x281 PUSH1 0xC SLOAD DUP2 JUMP JUMPDEST CALLVALUE DUP1 ISZERO PUSH2 0x3B0 JUMPI PUSH1 0x0 DUP1 REVERT JUMPDEST POP PUSH2 0x281 PUSH2 0x3BF CALLDATASIZE PUSH1 0x4 PUSH2 0x1698 JUMP JUMPDEST PUSH2 0xDC1 JUMP JUMPDEST CALLVALUE DUP1 ISZERO PUSH2 0x3D0 JUMPI PUSH1 0x0 DUP1 REVERT JUMPDEST POP PUSH2 0x281 PUSH2 0x3DF CALLDATASIZE PUSH1 0x4 PUSH2 0x1616 JUMP JUMPDEST PUSH1 0x1 PUSH1 0x1 PUSH1 0xA0 SHL SUB AND PUSH1 0x0 SWAP1 DUP2 MSTORE PUSH1 0xD PUSH1 0x20 MSTORE PUSH1 0x40 SWAP1 KECCAK256 PUSH1 0x1 ADD SLOAD SWAP1 JUMP JUMPDEST CALLVALUE DUP1 ISZERO PUSH2 0x409 JUMPI PUSH1 0x0 DUP1 REVERT JUMPDEST POP PUSH1 0x0 SLOAD PUSH1 0x40 MLOAD PUSH1 0x1 PUSH1 0x1 PUSH1 0xA0 SHL SUB SWAP1 SWAP2 AND DUP2 MSTORE PUSH1 0x20 ADD PUSH2 0x230 JUMP JUMPDEST CALLVALUE DUP1 ISZERO PUSH2 0x431 JUMPI PUSH1 0x0 DUP1 REVERT JUMPDEST POP PUSH2 0x21F PUSH2 0x440 CALLDATASIZE PUSH1 0x4 PUSH2 0x16CA JUMP JUMPDEST PUSH1 0x1 PUSH1 0x1 PUSH1 0xA0 SHL SUB AND PUSH1 0x0 SWAP1 DUP2 MSTORE PUSH1 0xD PUSH1 0x20 SWAP1 DUP2 MSTORE PUSH1 0x40 DUP1 DUP4 KECCAK256 SWAP4 DUP4 MSTORE SWAP3 DUP2 MSTORE SWAP1 DUP3 SWAP1 KECCAK256 DUP3 MLOAD DUP1 DUP5 ADD SWAP1 SWAP4 MSTORE SLOAD PUSH8 0xFFFFFFFFFFFFFFFF DUP1 DUP3 AND DUP1 DUP6 MSTORE PUSH1 0x1 PUSH1 0x40 SHL SWAP1 SWAP3 DIV AND SWAP3 SWAP1 SWAP2 ADD DUP3 SWAP1 MSTORE SWAP2 JUMP JUMPDEST CALLVALUE DUP1 ISZERO PUSH2 0x49B JUMPI PUSH1 0x0 DUP1 REVERT JUMPDEST POP PUSH2 0x4AF PUSH2 0x4AA CALLDATASIZE PUSH1 0x4 PUSH2 0x170E JUMP JUMPDEST PUSH2 0xDEE JUMP JUMPDEST PUSH1 0x40 DUP1 MLOAD PUSH8 0xFFFFFFFFFFFFFFFF SWAP4 DUP5 AND DUP2 MSTORE SWAP3 SWAP1 SWAP2 AND PUSH1 0x20 DUP4 ADD MSTORE ADD PUSH2 0x230 JUMP JUMPDEST CALLVALUE DUP1 ISZERO PUSH2 0x4DC JUMPI PUSH1 0x0 DUP1 REVERT JUMPDEST POP PUSH2 0x4AF PUSH2 0x4EB CALLDATASIZE PUSH1 0x4 PUSH2 0x15BF JUMP JUMPDEST PUSH1 0x5 PUSH1 0x20 MSTORE PUSH1 0x0 SWAP1 DUP2 MSTORE PUSH1 0x40 SWAP1 KECCAK256 SLOAD PUSH8 0xFFFFFFFFFFFFFFFF DUP1 DUP3 AND SWAP2 PUSH1 0x1 PUSH1 0x40 SHL SWAP1 DIV AND DUP3 JUMP JUMPDEST CALLVALUE DUP1 ISZERO PUSH2 0x51E JUMPI PUSH1 0x0 DUP1 REVERT JUMPDEST POP PUSH2 0x532 PUSH2 0x52D CALLDATASIZE PUSH1 0x4 PUSH2 0x1698 JUMP JUMPDEST PUSH2 0xE53 JUMP JUMPDEST PUSH1 0x40 MLOAD PUSH2 0x230 SWAP2 SWAP1 PUSH2 0x1778 JUMP JUMPDEST CALLVALUE DUP1 ISZERO PUSH2 0x54B JUMPI PUSH1 0x0 DUP1 REVERT JUMPDEST POP PUSH2 0x281 PUSH2 0x55A CALLDATASIZE PUSH1 0x4 PUSH2 0x17A0 JUMP JUMPDEST PUSH2 0xEB7 JUMP JUMPDEST CALLVALUE DUP1 ISZERO PUSH2 0x56B JUMPI PUSH1 0x0 DUP1 REVERT JUMPDEST POP PUSH2 0x21F PUSH2 0x57A CALLDATASIZE PUSH1 0x4 PUSH2 0x17CA JUMP JUMPDEST PUSH2 0xEF7 JUMP JUMPDEST CALLVALUE DUP1 ISZERO PUSH2 0x58B JUMPI PUSH1 0x0 DUP1 REVERT JUMPDEST POP PUSH2 0x281 PUSH2 0x59A CALLDATASIZE PUSH1 0x4 PUSH2 0x1698 JUMP JUMPDEST PUSH2 0xFC9 JUMP JUMPDEST CALLVALUE DUP1 ISZERO PUSH2 0x5AB JUMPI PUSH1 0x0 DUP1 REVERT JUMPDEST POP PUSH2 0x281 PUSH1 0x7 SLOAD DUP2 JUMP JUMPDEST CALLVALUE DUP1 ISZERO PUSH2 0x5C1 JUMPI PUSH1 0x0 DUP1 REVERT JUMPDEST POP PUSH2 0x281 PUSH1 0xB SLOAD DUP2 JUMP JUMPDEST CALLVALUE DUP1 ISZERO PUSH2 0x5D7 JUMPI PUSH1 0x0 DUP1 REVERT JUMPDEST POP PUSH2 0x281 PUSH2 0x5E6 CALLDATASIZE PUSH1 0x4 PUSH2 0x15BF JUMP JUMPDEST PUSH1 0xA PUSH1 0x20 MSTORE PUSH1 0x0 SWAP1 DUP2 MSTORE PUSH1 0x40 SWAP1 KECCAK256 SLOAD DUP2 JUMP JUMPDEST CALLVALUE DUP1 ISZERO PUSH2 0x604 JUMPI PUSH1 0x0 DUP1 REVERT JUMPDEST POP PUSH2 0x2CF PUSH2 0x613 CALLDATASIZE PUSH1 0x4 PUSH2 0x1616 JUMP JUMPDEST PUSH2 0x1008 JUMP JUMPDEST CALLVALUE DUP1 ISZERO PUSH2 0x624 JUMPI PUSH1 0x0 DUP1 REVERT JUMPDEST POP PUSH2 0x2CF PUSH2 0x633 CALLDATASIZE PUSH1 0x4 PUSH2 0x15BF JUMP JUMPDEST PUSH2 0x10E7 JUMP JUMPDEST CALLVALUE DUP1 ISZERO PUSH2 0x644 JUMPI PUSH1 0x0 DUP1 REVERT JUMPDEST POP PUSH2 0x21F PUSH2 0x653 CALLDATASIZE PUSH1 0x4 PUSH2 0x15BF JUMP JUMPDEST PUSH2 0x11FC JUMP JUMPDEST PUSH1 0x0 DUP3 DUP3 LT ISZERO PUSH2 0x66A JUMPI POP PUSH1 0x0 PUSH2 0x67E JUMP JUMPDEST DUP3 DUP3 GT ISZERO PUSH2 0x67A JUMPI POP PUSH1 0x1 PUSH2 0x67E JUMP JUMPDEST POP PUSH1 0x2 JUMPDEST SWAP3 SWAP2 POP POP JUMP JUMPDEST PUSH1 0x0 PUSH1 0x64 PUSH2 0x692 DUP4 DUP6 PUSH2 0x1829 JUMP JUMPDEST PUSH2 0x69C SWAP2 SWAP1 PUSH2 0x1848 JUMP JUMPDEST SWAP4 SWAP3 POP POP POP JUMP JUMPDEST PUSH1 0x1 PUSH1 0x1 PUSH1 0xA0 SHL SUB DUP2 AND PUSH1 0x0 SWAP1 DUP2 MSTORE PUSH1 0xD PUSH1 0x20 MSTORE PUSH1 0x40 SWAP1 KECCAK256 PUSH1 0x1 DUP2 ADD SLOAD PUSH2 0x6C8 JUMPI POP POP JUMP JUMPDEST PUSH1 0x1 DUP2 ADD SLOAD PUSH1 0x0 SWAP1 JUMPDEST DUP1 ISZERO PUSH2 0x9A4 JUMPI PUSH1 0x0 DUP4 PUSH1 0x1 ADD PUSH1 0x1 DUP4 PUSH2 0x6EA SWAP2 SWAP1 PUSH2 0x186A JUMP JUMPDEST DUP2 SLOAD DUP2 LT PUSH2 0x6FA JUMPI PUSH2 0x6FA PUSH2 0x1881 JUMP JUMPDEST SWAP1 PUSH1 0x0 MSTORE PUSH1 0x20 PUSH1 0x0 KECCAK256 ADD SLOAD SWAP1 POP PUSH1 0x0 PUSH2 0x71E NUMBER PUSH1 0x9 SLOAD PUSH1 0x8 SLOAD PUSH1 0xC SLOAD PUSH1 0xB SLOAD PUSH2 0xC8E JUMP JUMPDEST SWAP1 POP PUSH1 0x0 DUP1 PUSH2 0x72C DUP5 PUSH2 0x11FC JUMP JUMPDEST SWAP2 POP SWAP2 POP PUSH1 0x0 PUSH2 0x73E DUP6 DUP6 DUP6 DUP6 PUSH2 0xE53 JUMP JUMPDEST SWAP1 POP PUSH1 0x0 DUP2 PUSH1 0x3 DUP2 GT ISZERO PUSH2 0x754 JUMPI PUSH2 0x754 PUSH2 0x1762 JUMP JUMPDEST EQ DUP1 PUSH2 0x771 JUMPI POP PUSH1 0x1 DUP2 PUSH1 0x3 DUP2 GT ISZERO PUSH2 0x76F JUMPI PUSH2 0x76F PUSH2 0x1762 JUMP JUMPDEST EQ JUMPDEST ISZERO PUSH2 0x780 JUMPI POP POP POP POP POP PUSH2 0x992 JUMP JUMPDEST PUSH1 0x0 PUSH1 0x3 DUP3 PUSH1 0x3 DUP2 GT ISZERO PUSH2 0x796 JUMPI PUSH2 0x796 PUSH2 0x1762 JUMP JUMPDEST EQ ISZERO PUSH2 0x7AD JUMPI PUSH2 0x7A6 DUP5 DUP5 PUSH2 0x658 JUMP JUMPDEST SWAP1 POP PUSH2 0x7CB JUMP JUMPDEST PUSH1 0x2 DUP3 PUSH1 0x3 DUP2 GT ISZERO PUSH2 0x7C1 JUMPI PUSH2 0x7C1 PUSH2 0x1762 JUMP JUMPDEST EQ ISZERO PUSH2 0x7CB JUMPI POP PUSH1 0x2 JUMPDEST PUSH1 0x1 DUP1 DUP11 ADD DUP1 SLOAD SWAP1 SWAP2 PUSH2 0x7DD SWAP2 PUSH2 0x186A JUMP JUMPDEST DUP2 SLOAD DUP2 LT PUSH2 0x7ED JUMPI PUSH2 0x7ED PUSH2 0x1881 JUMP JUMPDEST SWAP1 PUSH1 0x0 MSTORE PUSH1 0x20 PUSH1 0x0 KECCAK256 ADD SLOAD DUP10 PUSH1 0x1 ADD PUSH1 0x1 DUP10 PUSH2 0x809 SWAP2 SWAP1 PUSH2 0x186A JUMP JUMPDEST DUP2 SLOAD DUP2 LT PUSH2 0x819 JUMPI PUSH2 0x819 PUSH2 0x1881 JUMP JUMPDEST PUSH1 0x0 SWAP2 DUP3 MSTORE PUSH1 0x20 SWAP1 SWAP2 KECCAK256 ADD SSTORE PUSH1 0x1 DUP10 ADD DUP1 SLOAD DUP1 PUSH2 0x838 JUMPI PUSH2 0x838 PUSH2 0x1897 JUMP JUMPDEST PUSH1 0x0 DUP3 DUP2 MSTORE PUSH1 0x20 DUP1 DUP3 KECCAK256 DUP4 ADD PUSH1 0x0 NOT SWAP1 DUP2 ADD DUP4 SWAP1 SSTORE SWAP1 SWAP3 ADD SWAP1 SWAP3 SSTORE DUP8 DUP3 MSTORE DUP11 DUP2 MSTORE PUSH1 0x40 DUP1 DUP4 KECCAK256 DUP2 MLOAD DUP1 DUP4 ADD DUP4 MSTORE SWAP1 SLOAD PUSH8 0xFFFFFFFFFFFFFFFF DUP1 DUP3 AND DUP4 MSTORE PUSH1 0x1 PUSH1 0x40 SHL SWAP2 DUP3 SWAP1 DIV DUP2 AND DUP4 DUP7 ADD SWAP1 DUP2 MSTORE DUP13 DUP8 MSTORE PUSH1 0x5 DUP7 MSTORE DUP5 DUP8 KECCAK256 DUP6 MLOAD DUP1 DUP8 ADD SWAP1 SWAP7 MSTORE SLOAD DUP1 DUP4 AND DUP1 DUP8 MSTORE SWAP4 SWAP1 DIV DUP3 AND SWAP6 DUP6 ADD DUP7 SWAP1 MSTORE MLOAD DUP4 MLOAD SWAP4 SWAP7 SWAP5 SWAP6 DUP6 SWAP5 PUSH2 0x8C3 SWAP5 SWAP3 DUP5 AND SWAP4 AND SWAP2 DUP10 PUSH2 0xEF7 JUMP JUMPDEST SWAP1 SWAP3 POP SWAP1 POP PUSH2 0x8D2 DUP3 DUP14 PUSH2 0x18AD JUMP JUMPDEST SWAP12 POP DUP1 PUSH1 0x6 SLOAD PUSH2 0x8E2 SWAP2 SWAP1 PUSH2 0x18AD JUMP JUMPDEST PUSH1 0x6 DUP2 SWAP1 SSTORE POP PUSH1 0x0 PUSH2 0x92E DUP6 PUSH1 0x20 ADD MLOAD PUSH8 0xFFFFFFFFFFFFFFFF AND DUP7 PUSH1 0x0 ADD MLOAD PUSH8 0xFFFFFFFFFFFFFFFF AND DUP7 PUSH1 0x20 ADD MLOAD PUSH8 0xFFFFFFFFFFFFFFFF AND DUP8 PUSH1 0x0 ADD MLOAD PUSH8 0xFFFFFFFFFFFFFFFF AND PUSH2 0xFC9 JUMP JUMPDEST SWAP1 POP PUSH2 0x93A DUP16 DUP3 PUSH2 0x1245 JUMP JUMPDEST PUSH2 0x942 PUSH2 0x1433 JUMP JUMPDEST DUP15 PUSH1 0x1 PUSH1 0x1 PUSH1 0xA0 SHL SUB AND DUP12 PUSH32 0x6F277B50171C654E40C771D9C2BBF19E070EEB21CCE6F8E9A80334564279E395 DUP6 PUSH1 0x40 MLOAD PUSH2 0x97E SWAP2 DUP2 MSTORE PUSH1 0x20 ADD SWAP1 JUMP JUMPDEST PUSH1 0x40 MLOAD DUP1 SWAP2 SUB SWAP1 LOG3 POP POP POP POP POP POP POP POP POP POP POP JUMPDEST DUP1 PUSH2 0x99C DUP2 PUSH2 0x18C5 JUMP JUMPDEST SWAP2 POP POP PUSH2 0x6D1 JUMP JUMPDEST POP PUSH1 0x40 MLOAD PUSH1 0x1 PUSH1 0x1 PUSH1 0xA0 SHL SUB DUP5 AND SWAP1 DUP3 ISZERO PUSH2 0x8FC MUL SWAP1 DUP4 SWAP1 PUSH1 0x0 DUP2 DUP2 DUP2 DUP6 DUP9 DUP9 CALL SWAP4 POP POP POP POP ISZERO DUP1 ISZERO PUSH2 0x9DB JUMPI RETURNDATASIZE PUSH1 0x0 DUP1 RETURNDATACOPY RETURNDATASIZE PUSH1 0x0 REVERT JUMPDEST POP JUMPDEST POP POP POP JUMP JUMPDEST PUSH1 0x0 CALLVALUE GT PUSH2 0xA37 JUMPI PUSH1 0x40 MLOAD PUSH3 0x461BCD PUSH1 0xE5 SHL DUP2 MSTORE PUSH1 0x20 PUSH1 0x4 DUP3 ADD MSTORE PUSH1 0x1D PUSH1 0x24 DUP3 ADD MSTORE PUSH32 0x4F6E6C79207374726963746C7920706F7369746976652076616C756573000000 PUSH1 0x44 DUP3 ADD MSTORE PUSH1 0x64 ADD JUMPDEST PUSH1 0x40 MLOAD DUP1 SWAP2 SUB SWAP1 REVERT JUMPDEST PUSH2 0xA3F PUSH2 0xCD6 JUMP JUMPDEST PUSH2 0xA48 CALLER PUSH2 0x6A3 JUMP JUMPDEST PUSH1 0x0 PUSH2 0xA56 CALLVALUE PUSH1 0x7 SLOAD PUSH2 0x684 JUMP JUMPDEST SWAP1 POP DUP1 PUSH1 0x6 SLOAD PUSH2 0xA66 SWAP2 SWAP1 PUSH2 0x18AD JUMP JUMPDEST PUSH1 0x6 SSTORE PUSH1 0x0 PUSH2 0xA75 DUP3 CALLVALUE PUSH2 0x186A JUMP JUMPDEST SWAP1 POP PUSH1 0x0 PUSH2 0xA8E NUMBER PUSH1 0x9 SLOAD PUSH1 0x8 SLOAD PUSH1 0xC SLOAD PUSH1 0xB SLOAD PUSH2 0xC8E JUMP JUMPDEST PUSH1 0x0 DUP2 DUP2 MSTORE PUSH1 0x5 PUSH1 0x20 SWAP1 DUP2 MSTORE PUSH1 0x40 DUP1 DUP4 KECCAK256 DUP2 MLOAD DUP1 DUP4 ADD SWAP1 SWAP3 MSTORE SLOAD PUSH8 0xFFFFFFFFFFFFFFFF DUP1 DUP3 AND DUP1 DUP5 MSTORE PUSH1 0x1 PUSH1 0x40 SHL SWAP1 SWAP3 DIV AND SWAP3 DUP3 ADD DUP4 SWAP1 MSTORE SWAP4 SWAP5 POP SWAP3 DUP3 SWAP2 PUSH2 0xAD8 SWAP2 SWAP1 DUP10 DUP9 PUSH2 0xDEE JUMP JUMPDEST PUSH1 0x40 DUP1 MLOAD DUP1 DUP3 ADD DUP3 MSTORE PUSH8 0xFFFFFFFFFFFFFFFF DUP1 DUP6 AND DUP3 MSTORE DUP1 DUP5 AND PUSH1 0x20 DUP1 DUP5 ADD SWAP2 DUP3 MSTORE PUSH1 0x0 DUP12 DUP2 MSTORE PUSH1 0x5 DUP3 MSTORE DUP6 DUP2 KECCAK256 SWAP5 MLOAD DUP6 SLOAD SWAP4 MLOAD DUP6 AND PUSH1 0x1 PUSH1 0x40 SHL MUL PUSH16 0xFFFFFFFFFFFFFFFFFFFFFFFFFFFFFFFF NOT SWAP1 SWAP5 AND SWAP5 AND SWAP4 SWAP1 SWAP4 OR SWAP2 SWAP1 SWAP2 OR SWAP1 SWAP3 SSTORE CALLER DUP2 MSTORE PUSH1 0xD SWAP1 SWAP2 MSTORE KECCAK256 PUSH1 0x1 DUP2 ADD SLOAD SWAP3 SWAP5 POP SWAP1 SWAP3 POP SWAP1 ISZERO DUP1 PUSH2 0xB83 JUMPI POP PUSH1 0x1 DUP1 DUP3 ADD DUP1 SLOAD SWAP1 SWAP2 PUSH2 0xB64 SWAP2 PUSH2 0x186A JUMP JUMPDEST DUP2 SLOAD DUP2 LT PUSH2 0xB74 JUMPI PUSH2 0xB74 PUSH2 0x1881 JUMP JUMPDEST SWAP1 PUSH1 0x0 MSTORE PUSH1 0x20 PUSH1 0x0 KECCAK256 ADD SLOAD DUP6 EQ ISZERO JUMPDEST ISZERO PUSH2 0xBA2 JUMPI PUSH1 0x1 DUP1 DUP3 ADD DUP1 SLOAD SWAP2 DUP3 ADD DUP2 SSTORE PUSH1 0x0 SWAP1 DUP2 MSTORE PUSH1 0x20 SWAP1 KECCAK256 ADD DUP6 SWAP1 SSTORE JUMPDEST PUSH1 0x0 DUP6 DUP2 MSTORE PUSH1 0x20 DUP3 SWAP1 MSTORE PUSH1 0x40 SWAP1 KECCAK256 SLOAD PUSH2 0xBD1 SWAP1 PUSH8 0xFFFFFFFFFFFFFFFF DUP1 DUP3 AND SWAP2 PUSH1 0x1 PUSH1 0x40 SHL SWAP1 DIV AND DUP11 DUP10 PUSH2 0xDEE JUMP JUMPDEST PUSH1 0x40 DUP1 MLOAD DUP1 DUP3 ADD DUP3 MSTORE PUSH8 0xFFFFFFFFFFFFFFFF DUP1 DUP6 AND DUP3 MSTORE DUP1 DUP5 AND PUSH1 0x20 DUP1 DUP5 ADD SWAP2 DUP3 MSTORE PUSH1 0x0 DUP13 DUP2 MSTORE SWAP1 DUP9 SWAP1 MSTORE DUP5 SWAP1 KECCAK256 SWAP3 MLOAD DUP4 SLOAD SWAP2 MLOAD DUP4 AND PUSH1 0x1 PUSH1 0x40 SHL MUL PUSH16 0xFFFFFFFFFFFFFFFFFFFFFFFFFFFFFFFF NOT SWAP1 SWAP3 AND SWAP3 AND SWAP2 SWAP1 SWAP2 OR OR SWAP1 SSTORE MLOAD SWAP2 SWAP5 POP SWAP3 POP DUP6 SWAP1 CALLER SWAP1 PUSH32 0x85FF162F60A0EAB11E1E0D3D9CFA18A46D7038A29751AF4130DBAEEADBD37ED4 SWAP1 PUSH2 0xC7C SWAP1 DUP11 SWAP1 DUP14 SWAP1 PUSH8 0xFFFFFFFFFFFFFFFF SWAP3 SWAP1 SWAP3 AND DUP3 MSTORE PUSH1 0xFF AND PUSH1 0x20 DUP3 ADD MSTORE PUSH1 0x40 ADD SWAP1 JUMP JUMPDEST PUSH1 0x40 MLOAD DUP1 SWAP2 SUB SWAP1 LOG3 POP POP POP POP POP POP POP POP JUMP JUMPDEST PUSH1 0x0 DUP4 DUP7 LT ISZERO PUSH2 0xC9F JUMPI POP DUP1 PUSH2 0xCCD JUMP JUMPDEST DUP3 DUP6 PUSH2 0xCAB DUP7 DUP10 PUSH2 0x186A JUMP JUMPDEST PUSH2 0xCB5 SWAP2 SWAP1 PUSH2 0x1848 JUMP JUMPDEST PUSH2 0xCBF SWAP2 SWAP1 PUSH2 0x18AD JUMP JUMPDEST PUSH2 0xCCA SWAP1 PUSH1 0x1 PUSH2 0x18AD JUMP JUMPDEST SWAP1 POP JUMPDEST SWAP6 SWAP5 POP POP POP POP POP JUMP JUMPDEST PUSH1 0x0 PUSH2 0xCED NUMBER PUSH1 0x9 SLOAD PUSH1 0x8 SLOAD PUSH1 0xC SLOAD PUSH1 0xB SLOAD PUSH2 0xC8E JUMP JUMPDEST PUSH1 0x0 DUP2 DUP2 MSTORE PUSH1 0xA PUSH1 0x20 MSTORE PUSH1 0x40 SWAP1 KECCAK256 SLOAD SWAP1 SWAP2 POP PUSH2 0xD58 JUMPI PUSH2 0xD0B PUSH2 0x14AC JUMP JUMPDEST PUSH1 0x0 DUP3 DUP2 MSTORE PUSH1 0xA PUSH1 0x20 MSTORE PUSH1 0x40 SWAP1 DUP2 SWAP1 KECCAK256 DUP3 SWAP1 SSTORE MLOAD DUP3 SWAP2 PUSH32 0x945C1C4E99AA89F648FBFE3DF471B916F719E16D960FCEC0737D4D56BD696838 SWAP2 PUSH2 0xD4F SWAP2 DUP2 MSTORE PUSH1 0x20 ADD SWAP1 JUMP JUMPDEST PUSH1 0x40 MLOAD DUP1 SWAP2 SUB SWAP1 LOG2 JUMPDEST POP JUMP JUMPDEST PUSH1 0x0 SLOAD PUSH1 0x1 PUSH1 0x1 PUSH1 0xA0 SHL SUB AND CALLER EQ PUSH2 0xDB5 JUMPI PUSH1 0x40 MLOAD PUSH3 0x461BCD PUSH1 0xE5 SHL DUP2 MSTORE PUSH1 0x20 PUSH1 0x4 DUP3 ADD DUP2 SWAP1 MSTORE PUSH1 0x24 DUP3 ADD MSTORE PUSH32 0x4F776E61626C653A2063616C6C6572206973206E6F7420746865206F776E6572 PUSH1 0x44 DUP3 ADD MSTORE PUSH1 0x64 ADD PUSH2 0xA2E JUMP JUMPDEST PUSH2 0xDBF PUSH1 0x0 PUSH2 0x1540 JUMP JUMPDEST JUMP JUMPDEST PUSH1 0x0 DUP4 DUP3 PUSH2 0xDD0 PUSH1 0x1 DUP9 PUSH2 0x186A JUMP JUMPDEST PUSH2 0xDDA SWAP2 SWAP1 PUSH2 0x186A JUMP JUMPDEST PUSH2 0xDE4 SWAP2 SWAP1 PUSH2 0x1829 JUMP JUMPDEST PUSH2 0xCCD SWAP1 DUP5 PUSH2 0x18AD JUMP JUMPDEST PUSH1 0x0 DUP1 PUSH1 0x0 DUP5 PUSH1 0xFF AND PUSH1 0x1 DUP2 GT ISZERO PUSH2 0xE08 JUMPI PUSH2 0xE08 PUSH2 0x1762 JUMP JUMPDEST SWAP1 POP PUSH1 0x0 DUP2 PUSH1 0x1 DUP2 GT ISZERO PUSH2 0xE1E JUMPI PUSH2 0xE1E PUSH2 0x1762 JUMP JUMPDEST EQ ISZERO PUSH2 0xE39 JUMPI PUSH2 0xE2E DUP5 DUP9 PUSH2 0x18DC JUMP JUMPDEST DUP7 SWAP3 POP SWAP3 POP POP PUSH2 0xE4A JUMP JUMPDEST DUP7 PUSH2 0xE44 DUP6 DUP9 PUSH2 0x18DC JUMP JUMPDEST SWAP3 POP SWAP3 POP POP JUMPDEST SWAP5 POP SWAP5 SWAP3 POP POP POP JUMP JUMPDEST PUSH1 0x0 PUSH2 0xE60 DUP6 PUSH1 0x2 PUSH2 0x18AD JUMP JUMPDEST DUP5 LT ISZERO PUSH2 0xE6F JUMPI POP PUSH1 0x0 PUSH2 0xEAF JUMP JUMPDEST PUSH2 0xE7A DUP6 PUSH1 0x3 PUSH2 0x18AD JUMP JUMPDEST DUP5 LT DUP1 ISZERO PUSH2 0xE86 JUMPI POP DUP2 ISZERO JUMPDEST ISZERO PUSH2 0xE93 JUMPI POP PUSH1 0x1 PUSH2 0xEAF JUMP JUMPDEST DUP3 ISZERO DUP1 PUSH2 0xE9E JUMPI POP DUP2 ISZERO JUMPDEST ISZERO PUSH2 0xEAB JUMPI POP PUSH1 0x2 PUSH2 0xEAF JUMP JUMPDEST POP PUSH1 0x3 JUMPDEST SWAP5 SWAP4 POP POP POP POP JUMP JUMPDEST PUSH1 0x1 PUSH1 0x1 PUSH1 0xA0 SHL SUB DUP3 AND PUSH1 0x0 SWAP1 DUP2 MSTORE PUSH1 0xD PUSH1 0x20 MSTORE PUSH1 0x40 DUP2 KECCAK256 PUSH1 0x1 ADD DUP1 SLOAD DUP4 SWAP1 DUP2 LT PUSH2 0xEE4 JUMPI PUSH2 0xEE4 PUSH2 0x1881 JUMP JUMPDEST SWAP1 PUSH1 0x0 MSTORE PUSH1 0x20 PUSH1 0x0 KECCAK256 ADD SLOAD SWAP1 POP SWAP3 SWAP2 POP POP JUMP JUMPDEST PUSH1 0x0 DUP1 PUSH1 0x0 DUP4 PUSH1 0xFF AND PUSH1 0x2 DUP2 GT ISZERO PUSH2 0xF11 JUMPI PUSH2 0xF11 PUSH2 0x1762 JUMP JUMPDEST SWAP1 POP PUSH1 0x0 PUSH2 0xF1F DUP7 DUP9 PUSH2 0x18AD JUMP JUMPDEST SWAP1 POP PUSH1 0x1 DUP3 PUSH1 0x2 DUP2 GT ISZERO PUSH2 0xF35 JUMPI PUSH2 0xF35 PUSH2 0x1762 JUMP JUMPDEST EQ DUP1 ISZERO PUSH2 0xF41 JUMPI POP DUP7 ISZERO ISZERO JUMPDEST ISZERO PUSH2 0xF58 JUMPI PUSH2 0xF51 DUP2 DUP11 DUP10 PUSH2 0x15A8 JUMP JUMPDEST SWAP4 POP PUSH2 0xFBD JUMP JUMPDEST PUSH1 0x0 DUP3 PUSH1 0x2 DUP2 GT ISZERO PUSH2 0xF6C JUMPI PUSH2 0xF6C PUSH2 0x1762 JUMP JUMPDEST EQ DUP1 ISZERO PUSH2 0xF78 JUMPI POP DUP6 ISZERO ISZERO JUMPDEST ISZERO PUSH2 0xF88 JUMPI PUSH2 0xF51 DUP2 DUP10 DUP9 PUSH2 0x15A8 JUMP JUMPDEST PUSH1 0x2 DUP3 PUSH1 0x2 DUP2 GT ISZERO PUSH2 0xF9C JUMPI PUSH2 0xF9C PUSH2 0x1762 JUMP JUMPDEST EQ ISZERO PUSH2 0xFAC JUMPI PUSH2 0xF51 DUP9 DUP11 PUSH2 0x18AD JUMP JUMPDEST PUSH1 0x0 SWAP4 POP PUSH2 0xFBA DUP9 DUP11 PUSH2 0x18AD JUMP JUMPDEST SWAP3 POP JUMPDEST POP POP SWAP6 POP SWAP6 SWAP4 POP POP POP POP JUMP JUMPDEST PUSH1 0x0 PUSH2 0xCCD PUSH32 0x0 PUSH2 0xFF9 DUP7 DUP9 PUSH2 0x18AD JUMP JUMPDEST PUSH2 0x1003 DUP6 DUP8 PUSH2 0x18AD JUMP JUMPDEST PUSH2 0x15A8 JUMP JUMPDEST PUSH1 0x0 SLOAD PUSH1 0x1 PUSH1 0x1 PUSH1 0xA0 SHL SUB AND CALLER EQ PUSH2 0x1062 JUMPI PUSH1 0x40 MLOAD PUSH3 0x461BCD PUSH1 0xE5 SHL DUP2 MSTORE PUSH1 0x20 PUSH1 0x4 DUP3 ADD DUP2 SWAP1 MSTORE PUSH1 0x24 DUP3 ADD MSTORE PUSH32 0x4F776E61626C653A2063616C6C6572206973206E6F7420746865206F776E6572 PUSH1 0x44 DUP3 ADD MSTORE PUSH1 0x64 ADD PUSH2 0xA2E JUMP JUMPDEST PUSH1 0x1 PUSH1 0x1 PUSH1 0xA0 SHL SUB DUP2 AND PUSH2 0x10DE JUMPI PUSH1 0x40 MLOAD PUSH3 0x461BCD PUSH1 0xE5 SHL DUP2 MSTORE PUSH1 0x20 PUSH1 0x4 DUP3 ADD MSTORE PUSH1 0x26 PUSH1 0x24 DUP3 ADD MSTORE PUSH32 0x4F776E61626C653A206E6577206F776E657220697320746865207A65726F2061 PUSH1 0x44 DUP3 ADD MSTORE PUSH32 0x6464726573730000000000000000000000000000000000000000000000000000 PUSH1 0x64 DUP3 ADD MSTORE PUSH1 0x84 ADD PUSH2 0xA2E JUMP JUMPDEST PUSH2 0xD58 DUP2 PUSH2 0x1540 JUMP JUMPDEST PUSH1 0x0 SLOAD PUSH1 0x1 PUSH1 0x1 PUSH1 0xA0 SHL SUB AND CALLER EQ PUSH2 0x1141 JUMPI PUSH1 0x40 MLOAD PUSH3 0x461BCD PUSH1 0xE5 SHL DUP2 MSTORE PUSH1 0x20 PUSH1 0x4 DUP3 ADD DUP2 SWAP1 MSTORE PUSH1 0x24 DUP3 ADD MSTORE PUSH32 0x4F776E61626C653A2063616C6C6572206973206E6F7420746865206F776E6572 PUSH1 0x44 DUP3 ADD MSTORE PUSH1 0x64 ADD PUSH2 0xA2E JUMP JUMPDEST PUSH1 0x0 DUP2 GT PUSH2 0x11B7 JUMPI PUSH1 0x40 MLOAD PUSH3 0x461BCD PUSH1 0xE5 SHL DUP2 MSTORE PUSH1 0x20 PUSH1 0x4 DUP3 ADD MSTORE PUSH1 0x27 PUSH1 0x24 DUP3 ADD MSTORE PUSH32 0x77696E646F772073697A652073686F756C64206265207374726963746C792070 PUSH1 0x44 DUP3 ADD MSTORE PUSH32 0x6F73697469766500000000000000000000000000000000000000000000000000 PUSH1 0x64 DUP3 ADD MSTORE PUSH1 0x84 ADD PUSH2 0xA2E JUMP JUMPDEST PUSH1 0x0 PUSH2 0x11CE NUMBER PUSH1 0x9 SLOAD PUSH1 0x8 SLOAD PUSH1 0xC SLOAD PUSH1 0xB SLOAD PUSH2 0xC8E JUMP JUMPDEST SWAP1 POP PUSH2 0x11EC PUSH2 0x11DE DUP3 PUSH1 0x1 PUSH2 0x18AD JUMP JUMPDEST PUSH1 0x9 SLOAD PUSH1 0x8 SLOAD PUSH1 0xC SLOAD PUSH2 0xDC1 JUMP JUMPDEST PUSH1 0x8 SSTORE PUSH1 0xC DUP2 SWAP1 SSTORE PUSH1 0xB SSTORE PUSH1 0x9 SSTORE JUMP JUMPDEST PUSH1 0x0 DUP1 PUSH1 0xA DUP2 PUSH2 0x120D DUP6 PUSH1 0x1 PUSH2 0x18AD JUMP JUMPDEST DUP2 MSTORE PUSH1 0x20 ADD SWAP1 DUP2 MSTORE PUSH1 0x20 ADD PUSH1 0x0 KECCAK256 SLOAD PUSH1 0xA PUSH1 0x0 DUP6 PUSH1 0x2 PUSH2 0x122D SWAP2 SWAP1 PUSH2 0x18AD JUMP JUMPDEST DUP2 MSTORE PUSH1 0x20 ADD SWAP1 DUP2 MSTORE PUSH1 0x20 ADD PUSH1 0x0 KECCAK256 SLOAD SWAP2 POP SWAP2 POP SWAP2 POP SWAP2 JUMP JUMPDEST PUSH1 0x2 SLOAD PUSH1 0x40 MLOAD PUSH4 0x70A08231 PUSH1 0xE0 SHL DUP2 MSTORE ADDRESS PUSH1 0x4 DUP3 ADD MSTORE DUP3 SWAP2 PUSH1 0x1 PUSH1 0x1 PUSH1 0xA0 SHL SUB AND SWAP1 PUSH4 0x70A08231 SWAP1 PUSH1 0x24 ADD PUSH1 0x20 PUSH1 0x40 MLOAD DUP1 DUP4 SUB DUP2 DUP7 DUP1 EXTCODESIZE ISZERO DUP1 ISZERO PUSH2 0x1288 JUMPI PUSH1 0x0 DUP1 REVERT JUMPDEST POP GAS STATICCALL ISZERO DUP1 ISZERO PUSH2 0x129C JUMPI RETURNDATASIZE PUSH1 0x0 DUP1 RETURNDATACOPY RETURNDATASIZE PUSH1 0x0 REVERT JUMPDEST POP POP POP POP PUSH1 0x40 MLOAD RETURNDATASIZE PUSH1 0x1F NOT PUSH1 0x1F DUP3 ADD AND DUP3 ADD DUP1 PUSH1 0x40 MSTORE POP DUP2 ADD SWAP1 PUSH2 0x12C0 SWAP2 SWAP1 PUSH2 0x1908 JUMP JUMPDEST LT PUSH2 0x1365 JUMPI PUSH1 0x2 SLOAD PUSH1 0x40 MLOAD PUSH32 0xA9059CBB00000000000000000000000000000000000000000000000000000000 DUP2 MSTORE PUSH1 0x1 PUSH1 0x1 PUSH1 0xA0 SHL SUB DUP5 DUP2 AND PUSH1 0x4 DUP4 ADD MSTORE PUSH1 0x24 DUP3 ADD DUP5 SWAP1 MSTORE SWAP1 SWAP2 AND SWAP1 PUSH4 0xA9059CBB SWAP1 PUSH1 0x44 ADD JUMPDEST PUSH1 0x20 PUSH1 0x40 MLOAD DUP1 DUP4 SUB DUP2 PUSH1 0x0 DUP8 DUP1 EXTCODESIZE ISZERO DUP1 ISZERO PUSH2 0x132D JUMPI PUSH1 0x0 DUP1 REVERT JUMPDEST POP GAS CALL ISZERO DUP1 ISZERO PUSH2 0x1341 JUMPI RETURNDATASIZE PUSH1 0x0 DUP1 RETURNDATACOPY RETURNDATASIZE PUSH1 0x0 REVERT JUMPDEST POP POP POP POP PUSH1 0x40 MLOAD RETURNDATASIZE PUSH1 0x1F NOT PUSH1 0x1F DUP3 ADD AND DUP3 ADD DUP1 PUSH1 0x40 MSTORE POP DUP2 ADD SWAP1 PUSH2 0x9DD SWAP2 SWAP1 PUSH2 0x1921 JUMP JUMPDEST PUSH1 0x2 SLOAD PUSH1 0x40 MLOAD PUSH4 0x70A08231 PUSH1 0xE0 SHL DUP2 MSTORE ADDRESS PUSH1 0x4 DUP3 ADD MSTORE PUSH1 0x1 PUSH1 0x1 PUSH1 0xA0 SHL SUB SWAP1 SWAP2 AND SWAP1 PUSH4 0xA9059CBB SWAP1 DUP5 SWAP1 DUP4 SWAP1 PUSH4 0x70A08231 SWAP1 PUSH1 0x24 ADD PUSH1 0x20 PUSH1 0x40 MLOAD DUP1 DUP4 SUB DUP2 DUP7 DUP1 EXTCODESIZE ISZERO DUP1 ISZERO PUSH2 0x13B2 JUMPI PUSH1 0x0 DUP1 REVERT JUMPDEST POP GAS STATICCALL ISZERO DUP1 ISZERO PUSH2 0x13C6 JUMPI RETURNDATASIZE PUSH1 0x0 DUP1 RETURNDATACOPY RETURNDATASIZE PUSH1 0x0 REVERT JUMPDEST POP POP POP POP PUSH1 0x40 MLOAD RETURNDATASIZE PUSH1 0x1F NOT PUSH1 0x1F DUP3 ADD AND DUP3 ADD DUP1 PUSH1 0x40 MSTORE POP DUP2 ADD SWAP1 PUSH2 0x13EA SWAP2 SWAP1 PUSH2 0x1908 JUMP JUMPDEST PUSH1 0x40 MLOAD PUSH32 0xFFFFFFFF00000000000000000000000000000000000000000000000000000000 PUSH1 0xE0 DUP6 SWAP1 SHL AND DUP2 MSTORE PUSH1 0x1 PUSH1 0x1 PUSH1 0xA0 SHL SUB SWAP1 SWAP3 AND PUSH1 0x4 DUP4 ADD MSTORE PUSH1 0x24 DUP3 ADD MSTORE PUSH1 0x44 ADD PUSH2 0x1313 JUMP JUMPDEST PUSH1 0x6 SLOAD ISZERO PUSH2 0xDBF JUMPI PUSH1 0x3 PUSH1 0x0 SWAP1 SLOAD SWAP1 PUSH2 0x100 EXP SWAP1 DIV PUSH1 0x1 PUSH1 0x1 PUSH1 0xA0 SHL SUB AND PUSH1 0x1 PUSH1 0x1 PUSH1 0xA0 SHL SUB AND PUSH3 0x5C33E1 PUSH1 0x6 SLOAD PUSH1 0x40 MLOAD DUP3 PUSH4 0xFFFFFFFF AND PUSH1 0xE0 SHL DUP2 MSTORE PUSH1 0x4 ADD PUSH1 0x0 PUSH1 0x40 MLOAD DUP1 DUP4 SUB DUP2 DUP6 DUP9 DUP1 EXTCODESIZE ISZERO DUP1 ISZERO PUSH2 0x148C JUMPI PUSH1 0x0 DUP1 REVERT JUMPDEST POP GAS CALL ISZERO DUP1 ISZERO PUSH2 0x14A0 JUMPI RETURNDATASIZE PUSH1 0x0 DUP1 RETURNDATACOPY RETURNDATASIZE PUSH1 0x0 REVERT JUMPDEST POP POP PUSH1 0x0 PUSH1 0x6 SSTORE POP POP POP JUMP JUMPDEST PUSH1 0x0 DUP1 PUSH1 0x1 PUSH1 0x0 SWAP1 SLOAD SWAP1 PUSH2 0x100 EXP SWAP1 DIV PUSH1 0x1 PUSH1 0x1 PUSH1 0xA0 SHL SUB AND PUSH1 0x1 PUSH1 0x1 PUSH1 0xA0 SHL SUB AND PUSH4 0xFEAF968C PUSH1 0x40 MLOAD DUP2 PUSH4 0xFFFFFFFF AND PUSH1 0xE0 SHL DUP2 MSTORE PUSH1 0x4 ADD PUSH1 0xA0 PUSH1 0x40 MLOAD DUP1 DUP4 SUB DUP2 DUP7 DUP1 EXTCODESIZE ISZERO DUP1 ISZERO PUSH2 0x14FD JUMPI PUSH1 0x0 DUP1 REVERT JUMPDEST POP GAS STATICCALL ISZERO DUP1 ISZERO PUSH2 0x1511 JUMPI RETURNDATASIZE PUSH1 0x0 DUP1 RETURNDATACOPY RETURNDATASIZE PUSH1 0x0 REVERT JUMPDEST POP POP POP POP PUSH1 0x40 MLOAD RETURNDATASIZE PUSH1 0x1F NOT PUSH1 0x1F DUP3 ADD AND DUP3 ADD DUP1 PUSH1 0x40 MSTORE POP DUP2 ADD SWAP1 PUSH2 0x1535 SWAP2 SWAP1 PUSH2 0x195D JUMP JUMPDEST POP SWAP2 SWAP6 SWAP5 POP POP POP POP POP JUMP JUMPDEST PUSH1 0x0 DUP1 SLOAD PUSH1 0x1 PUSH1 0x1 PUSH1 0xA0 SHL SUB DUP4 DUP2 AND PUSH32 0xFFFFFFFFFFFFFFFFFFFFFFFF0000000000000000000000000000000000000000 DUP4 AND DUP2 OR DUP5 SSTORE PUSH1 0x40 MLOAD SWAP2 SWAP1 SWAP3 AND SWAP3 DUP4 SWAP2 PUSH32 0x8BE0079C531659141344CD1FD0A4F28419497F9722A3DAAFE3B4186F6B6457E0 SWAP2 SWAP1 LOG3 POP POP JUMP JUMPDEST PUSH1 0x0 DUP2 PUSH2 0x15B5 DUP6 DUP6 PUSH2 0x1829 JUMP JUMPDEST PUSH2 0xEAF SWAP2 SWAP1 PUSH2 0x1848 JUMP JUMPDEST PUSH1 0x0 PUSH1 0x20 DUP3 DUP5 SUB SLT ISZERO PUSH2 0x15D1 JUMPI PUSH1 0x0 DUP1 REVERT JUMPDEST POP CALLDATALOAD SWAP2 SWAP1 POP JUMP JUMPDEST PUSH1 0x0 DUP1 PUSH1 0x40 DUP4 DUP6 SUB SLT ISZERO PUSH2 0x15EB JUMPI PUSH1 0x0 DUP1 REVERT JUMPDEST POP POP DUP1 CALLDATALOAD SWAP3 PUSH1 0x20 SWAP1 SWAP2 ADD CALLDATALOAD SWAP2 POP JUMP JUMPDEST DUP1 CALLDATALOAD PUSH1 0x1 PUSH1 0x1 PUSH1 0xA0 SHL SUB DUP2 AND DUP2 EQ PUSH2 0x1611 JUMPI PUSH1 0x0 DUP1 REVERT JUMPDEST SWAP2 SWAP1 POP JUMP JUMPDEST PUSH1 0x0 PUSH1 0x20 DUP3 DUP5 SUB SLT ISZERO PUSH2 0x1628 JUMPI PUSH1 0x0 DUP1 REVERT JUMPDEST PUSH2 0x69C DUP3 PUSH2 0x15FA JUMP JUMPDEST DUP1 CALLDATALOAD PUSH1 0xFF DUP2 AND DUP2 EQ PUSH2 0x1611 JUMPI PUSH1 0x0 DUP1 REVERT JUMPDEST PUSH1 0x0 PUSH1 0x20 DUP3 DUP5 SUB SLT ISZERO PUSH2 0x1654 JUMPI PUSH1 0x0 DUP1 REVERT JUMPDEST PUSH2 0x69C DUP3 PUSH2 0x1631 JUMP JUMPDEST PUSH1 0x0 DUP1 PUSH1 0x0 DUP1 PUSH1 0x0 PUSH1 0xA0 DUP7 DUP9 SUB SLT ISZERO PUSH2 0x1675 JUMPI PUSH1 0x0 DUP1 REVERT JUMPDEST POP POP DUP4 CALLDATALOAD SWAP6 PUSH1 0x20 DUP6 ADD CALLDATALOAD SWAP6 POP PUSH1 0x40 DUP6 ADD CALLDATALOAD SWAP5 PUSH1 0x60 DUP2 ADD CALLDATALOAD SWAP5 POP PUSH1 0x80 ADD CALLDATALOAD SWAP3 POP SWAP1 POP JUMP JUMPDEST PUSH1 0x0 DUP1 PUSH1 0x0 DUP1 PUSH1 0x80 DUP6 DUP8 SUB SLT ISZERO PUSH2 0x16AE JUMPI PUSH1 0x0 DUP1 REVERT JUMPDEST POP POP DUP3 CALLDATALOAD SWAP5 PUSH1 0x20 DUP5 ADD CALLDATALOAD SWAP5 POP PUSH1 0x40 DUP5 ADD CALLDATALOAD SWAP4 PUSH1 0x60 ADD CALLDATALOAD SWAP3 POP SWAP1 POP JUMP JUMPDEST PUSH1 0x0 DUP1 PUSH1 0x40 DUP4 DUP6 SUB SLT ISZERO PUSH2 0x16DD JUMPI PUSH1 0x0 DUP1 REVERT JUMPDEST DUP3 CALLDATALOAD SWAP2 POP PUSH2 0x16ED PUSH1 0x20 DUP5 ADD PUSH2 0x15FA JUMP JUMPDEST SWAP1 POP SWAP3 POP SWAP3 SWAP1 POP JUMP JUMPDEST DUP1 CALLDATALOAD PUSH8 0xFFFFFFFFFFFFFFFF DUP2 AND DUP2 EQ PUSH2 0x1611 JUMPI PUSH1 0x0 DUP1 REVERT JUMPDEST PUSH1 0x0 DUP1 PUSH1 0x0 DUP1 PUSH1 0x80 DUP6 DUP8 SUB SLT ISZERO PUSH2 0x1724 JUMPI PUSH1 0x0 DUP1 REVERT JUMPDEST PUSH2 0x172D DUP6 PUSH2 0x16F6 JUMP JUMPDEST SWAP4 POP PUSH2 0x173B PUSH1 0x20 DUP7 ADD PUSH2 0x16F6 JUMP JUMPDEST SWAP3 POP PUSH2 0x1749 PUSH1 0x40 DUP7 ADD PUSH2 0x1631 JUMP JUMPDEST SWAP2 POP PUSH2 0x1757 PUSH1 0x60 DUP7 ADD PUSH2 0x16F6 JUMP JUMPDEST SWAP1 POP SWAP3 SWAP6 SWAP2 SWAP5 POP SWAP3 POP JUMP JUMPDEST PUSH4 0x4E487B71 PUSH1 0xE0 SHL PUSH1 0x0 MSTORE PUSH1 0x21 PUSH1 0x4 MSTORE PUSH1 0x24 PUSH1 0x0 REVERT JUMPDEST PUSH1 0x20 DUP2 ADD PUSH1 0x4 DUP4 LT PUSH2 0x179A JUMPI PUSH4 0x4E487B71 PUSH1 0xE0 SHL PUSH1 0x0 MSTORE PUSH1 0x21 PUSH1 0x4 MSTORE PUSH1 0x24 PUSH1 0x0 REVERT JUMPDEST SWAP2 SWAP1 MSTORE SWAP1 JUMP JUMPDEST PUSH1 0x0 DUP1 PUSH1 0x40 DUP4 DUP6 SUB SLT ISZERO PUSH2 0x17B3 JUMPI PUSH1 0x0 DUP1 REVERT JUMPDEST PUSH2 0x17BC DUP4 PUSH2 0x15FA JUMP JUMPDEST SWAP5 PUSH1 0x20 SWAP4 SWAP1 SWAP4 ADD CALLDATALOAD SWAP4 POP POP POP JUMP JUMPDEST PUSH1 0x0 DUP1 PUSH1 0x0 DUP1 PUSH1 0x0 PUSH1 0xA0 DUP7 DUP9 SUB SLT ISZERO PUSH2 0x17E2 JUMPI PUSH1 0x0 DUP1 REVERT JUMPDEST DUP6 CALLDATALOAD SWAP5 POP PUSH1 0x20 DUP7 ADD CALLDATALOAD SWAP4 POP PUSH1 0x40 DUP7 ADD CALLDATALOAD SWAP3 POP PUSH1 0x60 DUP7 ADD CALLDATALOAD SWAP2 POP PUSH2 0x1807 PUSH1 0x80 DUP8 ADD PUSH2 0x1631 JUMP JUMPDEST SWAP1 POP SWAP3 SWAP6 POP SWAP3 SWAP6 SWAP1 SWAP4 POP JUMP JUMPDEST PUSH4 0x4E487B71 PUSH1 0xE0 SHL PUSH1 0x0 MSTORE PUSH1 0x11 PUSH1 0x4 MSTORE PUSH1 0x24 PUSH1 0x0 REVERT JUMPDEST PUSH1 0x0 DUP2 PUSH1 0x0 NOT DIV DUP4 GT DUP3 ISZERO ISZERO AND ISZERO PUSH2 0x1843 JUMPI PUSH2 0x1843 PUSH2 0x1813 JUMP JUMPDEST POP MUL SWAP1 JUMP JUMPDEST PUSH1 0x0 DUP3 PUSH2 0x1865 JUMPI PUSH4 0x4E487B71 PUSH1 0xE0 SHL PUSH1 0x0 MSTORE PUSH1 0x12 PUSH1 0x4 MSTORE PUSH1 0x24 PUSH1 0x0 REVERT JUMPDEST POP DIV SWAP1 JUMP JUMPDEST PUSH1 0x0 DUP3 DUP3 LT ISZERO PUSH2 0x187C JUMPI PUSH2 0x187C PUSH2 0x1813 JUMP JUMPDEST POP SUB SWAP1 JUMP JUMPDEST PUSH4 0x4E487B71 PUSH1 0xE0 SHL PUSH1 0x0 MSTORE PUSH1 0x32 PUSH1 0x4 MSTORE PUSH1 0x24 PUSH1 0x0 REVERT JUMPDEST PUSH4 0x4E487B71 PUSH1 0xE0 SHL PUSH1 0x0 MSTORE PUSH1 0x31 PUSH1 0x4 MSTORE PUSH1 0x24 PUSH1 0x0 REVERT JUMPDEST PUSH1 0x0 DUP3 NOT DUP3 GT ISZERO PUSH2 0x18C0 JUMPI PUSH2 0x18C0 PUSH2 0x1813 JUMP JUMPDEST POP ADD SWAP1 JUMP JUMPDEST PUSH1 0x0 DUP2 PUSH2 0x18D4 JUMPI PUSH2 0x18D4 PUSH2 0x1813 JUMP JUMPDEST POP PUSH1 0x0 NOT ADD SWAP1 JUMP JUMPDEST PUSH1 0x0 PUSH8 0xFFFFFFFFFFFFFFFF DUP1 DUP4 AND DUP2 DUP6 AND DUP1 DUP4 SUB DUP3 GT ISZERO PUSH2 0x18FF JUMPI PUSH2 0x18FF PUSH2 0x1813 JUMP JUMPDEST ADD SWAP5 SWAP4 POP POP POP POP JUMP JUMPDEST PUSH1 0x0 PUSH1 0x20 DUP3 DUP5 SUB SLT ISZERO PUSH2 0x191A JUMPI PUSH1 0x0 DUP1 REVERT JUMPDEST POP MLOAD SWAP2 SWAP1 POP JUMP JUMPDEST PUSH1 0x0 PUSH1 0x20 DUP3 DUP5 SUB SLT ISZERO PUSH2 0x1933 JUMPI PUSH1 0x0 DUP1 REVERT JUMPDEST DUP2 MLOAD DUP1 ISZERO ISZERO DUP2 EQ PUSH2 0x69C JUMPI PUSH1 0x0 DUP1 REVERT JUMPDEST DUP1 MLOAD PUSH10 0xFFFFFFFFFFFFFFFFFFFF DUP2 AND DUP2 EQ PUSH2 0x1611 JUMPI PUSH1 0x0 DUP1 REVERT JUMPDEST PUSH1 0x0 DUP1 PUSH1 0x0 DUP1 PUSH1 0x0 PUSH1 0xA0 DUP7 DUP9 SUB SLT ISZERO PUSH2 0x1975 JUMPI PUSH1 0x0 DUP1 REVERT JUMPDEST PUSH2 0x197E DUP7 PUSH2 0x1943 JUMP JUMPDEST SWAP5 POP PUSH1 0x20 DUP7 ADD MLOAD SWAP4 POP PUSH1 0x40 DUP7 ADD MLOAD SWAP3 POP PUSH1 0x60 DUP7 ADD MLOAD SWAP2 POP PUSH2 0x1807 PUSH1 0x80 DUP8 ADD PUSH2 0x1943 JUMP INVALID LOG2 PUSH5 0x6970667358 0x22 SLT KECCAK256 0x21 SWAP5 SHL LOG0 0x2B SELFBALANCE RETURNDATASIZE 0x4A ORIGIN 0xC7 0xB8 SWAP12 DUP8 SWAP3 CODESIZE CALLDATALOAD MLOAD SWAP10 SWAP7 0x4B 0xC3 PUSH20 0xA0B545ED44C6385D6C4F64736F6C634300080800 CALLER "
        },
        "gasEstimates": {
          "creation": {
            "codeDepositCost": "1323000",
            "executionCost": "infinite",
            "totalCost": "infinite"
          },
          "external": {
            "REWARD_PER_WINDOW()": "infinite",
            "accumulatedFees()": "2341",
            "betListLen(address)": "2589",
            "betResult(uint256,uint256)": "460",
            "calculateTokenReward(uint256,uint256,uint256,uint256)": "infinite",
            "changeWindowSize(uint256)": "infinite",
            "computeFee(uint256,uint256)": "517",
            "fee()": "2384",
            "firstBlock()": "2386",
            "firstWindow()": "2406",
            "getPoolValues(uint256)": "2605",
            "getUserBetList(address,uint256)": "4885",
            "getUserStake(uint256,address)": "2839",
            "getWindowBetPrices(uint256)": "infinite",
            "getWindowNumber(uint256,uint256,uint256,uint256,uint256)": "infinite",
            "getWindowStartingBlock(uint256,uint256,uint256,uint256)": "infinite",
            "owner()": "2369",
            "placeBet(uint8)": "infinite",
            "pools(uint256)": "2576",
            "renounceOwnership()": "28144",
            "settleBet(uint256,uint256,uint256,uint256,uint8)": "infinite",
            "transferOwnership(address)": "28360",
            "updateBalance(address)": "infinite",
            "updatePool(uint64,uint64,uint8,uint64)": "infinite",
            "updatePrice()": "infinite",
            "windowDuration()": "2363",
            "windowOffset()": "2384",
            "windowPrice(uint256)": "2482",
            "windowStatus(uint256,uint256,uint256,uint256)": "infinite"
          },
          "internal": {
            "priceOracle()": "infinite",
            "sharePool(uint256,uint256,uint256)": "181",
            "transferFees()": "infinite",
            "transferRewards(address,uint256)": "infinite"
          }
        },
        "methodIdentifiers": {
          "REWARD_PER_WINDOW()": "71a42207",
          "accumulatedFees()": "587f5ed7",
          "betListLen(address)": "89b808a7",
          "betResult(uint256,uint256)": "1bb5abf9",
          "calculateTokenReward(uint256,uint256,uint256,uint256)": "daaac9d2",
          "changeWindowSize(uint256)": "f52818f0",
          "computeFee(uint256,uint256)": "2ff284c2",
          "fee()": "ddca3f43",
          "firstBlock()": "231b0268",
          "firstWindow()": "e0a5cee3",
          "getPoolValues(uint256)": "0eff4d88",
          "getUserBetList(address,uint256)": "b47a3566",
          "getUserStake(uint256,address)": "9626a230",
          "getWindowBetPrices(uint256)": "f83b35fb",
          "getWindowNumber(uint256,uint256,uint256,uint256,uint256)": "576fe42f",
          "getWindowStartingBlock(uint256,uint256,uint256,uint256)": "849cd1c7",
          "owner()": "8da5cb5b",
          "placeBet(uint8)": "43046844",
          "pools(uint256)": "ac4afa38",
          "renounceOwnership()": "715018a6",
          "settleBet(uint256,uint256,uint256,uint256,uint8)": "ca055e53",
          "transferOwnership(address)": "f2fde38b",
          "updateBalance(address)": "40b8405a",
          "updatePool(uint64,uint64,uint8,uint64)": "a671bd6e",
          "updatePrice()": "673a7e28",
          "windowDuration()": "5c11ff7a",
          "windowOffset()": "80962668",
          "windowPrice(uint256)": "e0d65d87",
          "windowStatus(uint256,uint256,uint256,uint256)": "b134894e"
        }
      },
      "storageLayout": {
        "storage": [
          {
            "astId": 53,
            "contract": "contracts/BinaryBet.sol:BinaryBet",
            "label": "_owner",
            "offset": 0,
            "slot": "0",
            "type": "t_address"
          },
          {
            "astId": 896,
            "contract": "contracts/BinaryBet.sol:BinaryBet",
            "label": "priceFeed",
            "offset": 0,
            "slot": "1",
            "type": "t_contract(AggregatorV3Interface)45"
          },
          {
            "astId": 899,
            "contract": "contracts/BinaryBet.sol:BinaryBet",
            "label": "token",
            "offset": 0,
            "slot": "2",
            "type": "t_contract(BinToken)866"
          },
          {
            "astId": 902,
            "contract": "contracts/BinaryBet.sol:BinaryBet",
            "label": "staking",
            "offset": 0,
            "slot": "3",
            "type": "t_contract(BinaryStaking)2316"
          },
          {
            "astId": 904,
            "contract": "contracts/BinaryBet.sol:BinaryBet",
            "label": "stakingAddress",
            "offset": 0,
            "slot": "4",
            "type": "t_address_payable"
          },
          {
            "astId": 911,
            "contract": "contracts/BinaryBet.sol:BinaryBet",
            "label": "pools",
            "offset": 0,
            "slot": "5",
            "type": "t_mapping(t_uint256,t_struct(Pool)893_storage)"
          },
          {
            "astId": 913,
            "contract": "contracts/BinaryBet.sol:BinaryBet",
            "label": "accumulatedFees",
            "offset": 0,
            "slot": "6",
            "type": "t_uint256"
          },
          {
            "astId": 915,
            "contract": "contracts/BinaryBet.sol:BinaryBet",
            "label": "fee",
            "offset": 0,
            "slot": "7",
            "type": "t_uint256"
          },
          {
            "astId": 917,
            "contract": "contracts/BinaryBet.sol:BinaryBet",
            "label": "firstBlock",
            "offset": 0,
            "slot": "8",
            "type": "t_uint256"
          },
          {
            "astId": 919,
            "contract": "contracts/BinaryBet.sol:BinaryBet",
            "label": "windowDuration",
            "offset": 0,
            "slot": "9",
            "type": "t_uint256"
          },
          {
            "astId": 923,
            "contract": "contracts/BinaryBet.sol:BinaryBet",
            "label": "windowPrice",
            "offset": 0,
            "slot": "10",
            "type": "t_mapping(t_uint256,t_uint256)"
          },
          {
            "astId": 926,
            "contract": "contracts/BinaryBet.sol:BinaryBet",
            "label": "firstWindow",
            "offset": 0,
            "slot": "11",
            "type": "t_uint256"
          },
          {
            "astId": 928,
            "contract": "contracts/BinaryBet.sol:BinaryBet",
            "label": "windowOffset",
            "offset": 0,
            "slot": "12",
            "type": "t_uint256"
          },
          {
            "astId": 942,
            "contract": "contracts/BinaryBet.sol:BinaryBet",
            "label": "user",
            "offset": 0,
            "slot": "13",
            "type": "t_mapping(t_address,t_struct(User)937_storage)"
          }
        ],
        "types": {
          "t_address": {
            "encoding": "inplace",
            "label": "address",
            "numberOfBytes": "20"
          },
          "t_address_payable": {
            "encoding": "inplace",
            "label": "address payable",
            "numberOfBytes": "20"
          },
          "t_array(t_uint256)dyn_storage": {
            "base": "t_uint256",
            "encoding": "dynamic_array",
            "label": "uint256[]",
            "numberOfBytes": "32"
          },
          "t_contract(AggregatorV3Interface)45": {
            "encoding": "inplace",
            "label": "contract AggregatorV3Interface",
            "numberOfBytes": "20"
          },
          "t_contract(BinToken)866": {
            "encoding": "inplace",
            "label": "contract BinToken",
            "numberOfBytes": "20"
          },
          "t_contract(BinaryStaking)2316": {
            "encoding": "inplace",
            "label": "contract BinaryStaking",
            "numberOfBytes": "20"
          },
          "t_mapping(t_address,t_struct(User)937_storage)": {
            "encoding": "mapping",
            "key": "t_address",
            "label": "mapping(address => struct BinaryBet.User)",
            "numberOfBytes": "32",
            "value": "t_struct(User)937_storage"
          },
          "t_mapping(t_uint256,t_struct(Pool)893_storage)": {
            "encoding": "mapping",
            "key": "t_uint256",
            "label": "mapping(uint256 => struct BinaryBet.Pool)",
            "numberOfBytes": "32",
            "value": "t_struct(Pool)893_storage"
          },
          "t_mapping(t_uint256,t_uint256)": {
            "encoding": "mapping",
            "key": "t_uint256",
            "label": "mapping(uint256 => uint256)",
            "numberOfBytes": "32",
            "value": "t_uint256"
          },
          "t_struct(Pool)893_storage": {
            "encoding": "inplace",
            "label": "struct BinaryBet.Pool",
            "members": [
              {
                "astId": 890,
                "contract": "contracts/BinaryBet.sol:BinaryBet",
                "label": "downValue",
                "offset": 0,
                "slot": "0",
                "type": "t_uint64"
              },
              {
                "astId": 892,
                "contract": "contracts/BinaryBet.sol:BinaryBet",
                "label": "upValue",
                "offset": 8,
                "slot": "0",
                "type": "t_uint64"
              }
            ],
            "numberOfBytes": "32"
          },
          "t_struct(User)937_storage": {
            "encoding": "inplace",
            "label": "struct BinaryBet.User",
            "members": [
              {
                "astId": 933,
                "contract": "contracts/BinaryBet.sol:BinaryBet",
                "label": "stake",
                "offset": 0,
                "slot": "0",
                "type": "t_mapping(t_uint256,t_struct(Pool)893_storage)"
              },
              {
                "astId": 936,
                "contract": "contracts/BinaryBet.sol:BinaryBet",
                "label": "bets",
                "offset": 0,
                "slot": "1",
                "type": "t_array(t_uint256)dyn_storage"
              }
            ],
            "numberOfBytes": "64"
          },
          "t_uint256": {
            "encoding": "inplace",
            "label": "uint256",
            "numberOfBytes": "32"
          },
          "t_uint64": {
            "encoding": "inplace",
            "label": "uint64",
            "numberOfBytes": "8"
          }
        }
      },
      "userdoc": {
        "kind": "user",
        "methods": {},
        "version": 1
      }
    }
  }
}