{
  "contracts/BinaryBet.sol": {
    "BinaryBet": {
      "abi": [
        {
          "inputs": [
            {
              "internalType": "uint256",
              "name": "_windowDuration",
              "type": "uint256"
            },
            {
              "internalType": "uint256",
              "name": "_fee",
              "type": "uint256"
            },
            {
              "internalType": "address",
              "name": "aggregator",
              "type": "address"
            }
          ],
          "stateMutability": "nonpayable",
          "type": "constructor"
        },
        {
          "anonymous": false,
          "inputs": [
            {
              "indexed": true,
              "internalType": "uint256",
              "name": "windowNumber",
              "type": "uint256"
            },
            {
              "indexed": true,
              "internalType": "address",
              "name": "user",
              "type": "address"
            },
            {
              "indexed": false,
              "internalType": "uint256",
              "name": "gain",
              "type": "uint256"
            }
          ],
          "name": "betSettled",
          "type": "event"
        },
        {
          "anonymous": false,
          "inputs": [
            {
              "indexed": true,
              "internalType": "address",
              "name": "user",
              "type": "address"
            },
            {
              "indexed": true,
              "internalType": "uint256",
              "name": "windowNumber",
              "type": "uint256"
            },
            {
              "indexed": false,
              "internalType": "uint256",
              "name": "value",
              "type": "uint256"
            },
            {
              "indexed": false,
              "internalType": "uint8",
              "name": "side",
              "type": "uint8"
            }
          ],
          "name": "newBet",
          "type": "event"
        },
        {
          "anonymous": false,
          "inputs": [
            {
              "indexed": true,
              "internalType": "uint256",
              "name": "windowNumber",
              "type": "uint256"
            },
            {
              "indexed": false,
              "internalType": "uint256",
              "name": "price",
              "type": "uint256"
            }
          ],
          "name": "priceUpdated",
          "type": "event"
        },
        {
          "inputs": [],
          "name": "REWARD_PER_WINDOW",
          "outputs": [
            {
              "internalType": "uint256",
              "name": "",
              "type": "uint256"
            }
          ],
          "stateMutability": "view",
          "type": "function"
        },
        {
          "inputs": [],
          "name": "accumulatedFees",
          "outputs": [
            {
              "internalType": "uint256",
              "name": "",
              "type": "uint256"
            }
          ],
          "stateMutability": "view",
          "type": "function"
        },
        {
          "inputs": [
            {
              "internalType": "address",
              "name": "user",
              "type": "address"
            }
          ],
          "name": "betListLen",
          "outputs": [
            {
              "internalType": "uint256",
              "name": "",
              "type": "uint256"
            }
          ],
          "stateMutability": "view",
          "type": "function"
        },
        {
          "inputs": [
            {
              "internalType": "uint256",
              "name": "referencePrice",
              "type": "uint256"
            },
            {
              "internalType": "uint256",
              "name": "settlementPrice",
              "type": "uint256"
            }
          ],
          "name": "betResult",
          "outputs": [
            {
              "internalType": "uint8",
              "name": "",
              "type": "uint8"
            }
          ],
          "stateMutability": "pure",
          "type": "function"
        },
        {
          "inputs": [
            {
              "internalType": "uint256",
              "name": "upStake",
              "type": "uint256"
            },
            {
              "internalType": "uint256",
              "name": "downStake",
              "type": "uint256"
            },
            {
              "internalType": "uint256",
              "name": "poolUp",
              "type": "uint256"
            },
            {
              "internalType": "uint256",
              "name": "poolDown",
              "type": "uint256"
            }
          ],
          "name": "calculateTokenReward",
          "outputs": [
            {
              "internalType": "uint256",
              "name": "",
              "type": "uint256"
            }
          ],
          "stateMutability": "pure",
          "type": "function"
        },
        {
          "inputs": [
            {
              "internalType": "address",
              "name": "newGovernance",
              "type": "address"
            }
          ],
          "name": "changeGovernance",
          "outputs": [],
          "stateMutability": "nonpayable",
          "type": "function"
        },
        {
          "inputs": [
            {
              "internalType": "uint256",
              "name": "windowSize",
              "type": "uint256"
            }
          ],
          "name": "changeWindowSize",
          "outputs": [],
          "stateMutability": "nonpayable",
          "type": "function"
        },
        {
          "inputs": [
            {
              "internalType": "uint256",
              "name": "value",
              "type": "uint256"
            },
            {
              "internalType": "uint256",
              "name": "_fee",
              "type": "uint256"
            }
          ],
          "name": "computeFee",
          "outputs": [
            {
              "internalType": "uint256",
              "name": "betFee",
              "type": "uint256"
            }
          ],
          "stateMutability": "pure",
          "type": "function"
        },
        {
          "inputs": [],
          "name": "fee",
          "outputs": [
            {
              "internalType": "uint256",
              "name": "",
              "type": "uint256"
            }
          ],
          "stateMutability": "view",
          "type": "function"
        },
        {
          "inputs": [],
          "name": "firstBlock",
          "outputs": [
            {
              "internalType": "uint256",
              "name": "",
              "type": "uint256"
            }
          ],
          "stateMutability": "view",
          "type": "function"
        },
        {
          "inputs": [],
          "name": "firstWindow",
          "outputs": [
            {
              "internalType": "uint256",
              "name": "",
              "type": "uint256"
            }
          ],
          "stateMutability": "view",
          "type": "function"
        },
        {
          "inputs": [
            {
              "internalType": "uint256",
              "name": "windowNumber",
              "type": "uint256"
            }
          ],
          "name": "getPoolValues",
          "outputs": [
            {
              "internalType": "uint256",
              "name": "",
              "type": "uint256"
            },
            {
              "internalType": "uint256",
              "name": "",
              "type": "uint256"
            }
          ],
          "stateMutability": "view",
          "type": "function"
        },
        {
          "inputs": [
            {
              "internalType": "address",
              "name": "user",
              "type": "address"
            },
            {
              "internalType": "uint256",
              "name": "index",
              "type": "uint256"
            }
          ],
          "name": "getUserBetList",
          "outputs": [
            {
              "internalType": "uint256",
              "name": "",
              "type": "uint256"
            }
          ],
          "stateMutability": "view",
          "type": "function"
        },
        {
          "inputs": [
            {
              "internalType": "uint256",
              "name": "windowNumber",
              "type": "uint256"
            },
            {
              "internalType": "address",
              "name": "user",
              "type": "address"
            }
          ],
          "name": "getUserStake",
          "outputs": [
            {
              "internalType": "uint256",
              "name": "",
              "type": "uint256"
            },
            {
              "internalType": "uint256",
              "name": "",
              "type": "uint256"
            }
          ],
          "stateMutability": "view",
          "type": "function"
        },
        {
          "inputs": [
            {
              "internalType": "uint256",
              "name": "window",
              "type": "uint256"
            }
          ],
          "name": "getWindowBetPrices",
          "outputs": [
            {
              "internalType": "uint256",
              "name": "",
              "type": "uint256"
            },
            {
              "internalType": "uint256",
              "name": "",
              "type": "uint256"
            }
          ],
          "stateMutability": "view",
          "type": "function"
        },
        {
          "inputs": [
            {
              "internalType": "uint256",
              "name": "currentBlock",
              "type": "uint256"
            },
            {
              "internalType": "uint256",
              "name": "_windowDuration",
              "type": "uint256"
            },
            {
              "internalType": "uint256",
              "name": "_firstBlock",
              "type": "uint256"
            },
            {
              "internalType": "uint256",
              "name": "_windowOffset",
              "type": "uint256"
            },
            {
              "internalType": "uint256",
              "name": "_firstWindow",
              "type": "uint256"
            }
          ],
          "name": "getWindowNumber",
          "outputs": [
            {
              "internalType": "uint256",
              "name": "windowNumber",
              "type": "uint256"
            }
          ],
          "stateMutability": "pure",
          "type": "function"
        },
        {
          "inputs": [
            {
              "internalType": "uint256",
              "name": "windowNumber",
              "type": "uint256"
            },
            {
              "internalType": "uint256",
              "name": "_windowDuration",
              "type": "uint256"
            },
            {
              "internalType": "uint256",
              "name": "_firstBlock",
              "type": "uint256"
            },
            {
              "internalType": "uint256",
              "name": "_windowOffset",
              "type": "uint256"
            }
          ],
          "name": "getWindowStartingBlock",
          "outputs": [
            {
              "internalType": "uint256",
              "name": "startingBlock",
              "type": "uint256"
            }
          ],
          "stateMutability": "pure",
          "type": "function"
        },
        {
          "inputs": [
            {
              "internalType": "uint8",
              "name": "side",
              "type": "uint8"
            }
          ],
          "name": "placeBet",
          "outputs": [],
          "stateMutability": "payable",
          "type": "function"
        },
        {
          "inputs": [
            {
              "internalType": "uint256",
              "name": "",
              "type": "uint256"
            }
          ],
          "name": "pools",
          "outputs": [
            {
              "internalType": "uint256",
              "name": "downValue",
              "type": "uint256"
            },
            {
              "internalType": "uint256",
              "name": "upValue",
              "type": "uint256"
            }
          ],
          "stateMutability": "view",
          "type": "function"
        },
        {
          "inputs": [
            {
              "internalType": "address",
              "name": "stakingContract",
              "type": "address"
            }
          ],
          "name": "setStakingAddress",
          "outputs": [],
          "stateMutability": "nonpayable",
          "type": "function"
        },
        {
          "inputs": [
            {
              "internalType": "address",
              "name": "tokenContract",
              "type": "address"
            }
          ],
          "name": "setTokenAddress",
          "outputs": [],
          "stateMutability": "nonpayable",
          "type": "function"
        },
        {
          "inputs": [
            {
              "internalType": "uint256",
              "name": "upStake",
              "type": "uint256"
            },
            {
              "internalType": "uint256",
              "name": "downStake",
              "type": "uint256"
            },
            {
              "internalType": "uint256",
              "name": "poolUp",
              "type": "uint256"
            },
            {
              "internalType": "uint256",
              "name": "poolDown",
              "type": "uint256"
            },
            {
              "internalType": "uint8",
              "name": "betResult",
              "type": "uint8"
            }
          ],
          "name": "settleBet",
          "outputs": [
            {
              "internalType": "uint256",
              "name": "gain",
              "type": "uint256"
            },
            {
              "internalType": "uint256",
              "name": "fees",
              "type": "uint256"
            }
          ],
          "stateMutability": "pure",
          "type": "function"
        },
        {
          "inputs": [
            {
              "internalType": "address",
              "name": "user",
              "type": "address"
            }
          ],
          "name": "updateBalance",
          "outputs": [],
          "stateMutability": "nonpayable",
          "type": "function"
        },
        {
          "inputs": [
            {
              "internalType": "uint256",
              "name": "downValue",
              "type": "uint256"
            },
            {
              "internalType": "uint256",
              "name": "upValue",
              "type": "uint256"
            },
            {
              "internalType": "uint8",
              "name": "side",
              "type": "uint8"
            },
            {
              "internalType": "uint256",
              "name": "value",
              "type": "uint256"
            }
          ],
          "name": "updatePool",
          "outputs": [
            {
              "internalType": "uint256",
              "name": "",
              "type": "uint256"
            },
            {
              "internalType": "uint256",
              "name": "",
              "type": "uint256"
            }
          ],
          "stateMutability": "pure",
          "type": "function"
        },
        {
          "inputs": [],
          "name": "updatePrice",
          "outputs": [],
          "stateMutability": "nonpayable",
          "type": "function"
        },
        {
          "inputs": [
            {
              "internalType": "address",
              "name": "",
              "type": "address"
            },
            {
              "internalType": "uint256",
              "name": "",
              "type": "uint256"
            }
          ],
          "name": "userBets",
          "outputs": [
            {
              "internalType": "uint256",
              "name": "",
              "type": "uint256"
            }
          ],
          "stateMutability": "view",
          "type": "function"
        },
        {
          "inputs": [
            {
              "internalType": "address",
              "name": "",
              "type": "address"
            },
            {
              "internalType": "uint256",
              "name": "",
              "type": "uint256"
            }
          ],
          "name": "userStake",
          "outputs": [
            {
              "internalType": "uint256",
              "name": "downValue",
              "type": "uint256"
            },
            {
              "internalType": "uint256",
              "name": "upValue",
              "type": "uint256"
            }
          ],
          "stateMutability": "view",
          "type": "function"
        },
        {
          "inputs": [],
          "name": "windowDuration",
          "outputs": [
            {
              "internalType": "uint256",
              "name": "",
              "type": "uint256"
            }
          ],
          "stateMutability": "view",
          "type": "function"
        },
        {
          "inputs": [],
          "name": "windowOffset",
          "outputs": [
            {
              "internalType": "uint256",
              "name": "",
              "type": "uint256"
            }
          ],
          "stateMutability": "view",
          "type": "function"
        },
        {
          "inputs": [
            {
              "internalType": "uint256",
              "name": "",
              "type": "uint256"
            }
          ],
          "name": "windowPrice",
          "outputs": [
            {
              "internalType": "uint256",
              "name": "",
              "type": "uint256"
            }
          ],
          "stateMutability": "view",
          "type": "function"
        }
      ],
      "devdoc": {
        "kind": "dev",
        "methods": {},
        "version": 1
      },
      "evm": {
        "bytecode": {
          "linkReferences": {},
          "object": "60806040526001600b553480156200001657600080fd5b5060405162002ca538038062002ca583398181016040528101906200003c919062000120565b60648211156200004b57600080fd5b806000806101000a81548173ffffffffffffffffffffffffffffffffffffffff021916908373ffffffffffffffffffffffffffffffffffffffff16021790555043600481905550826003819055508160028190555033600160006101000a81548173ffffffffffffffffffffffffffffffffffffffff021916908373ffffffffffffffffffffffffffffffffffffffff1602179055506001600b81905550505050620001e8565b6000815190506200010381620001b4565b92915050565b6000815190506200011a81620001ce565b92915050565b6000806000606084860312156200013657600080fd5b6000620001468682870162000109565b9350506020620001598682870162000109565b92505060406200016c86828701620000f2565b9150509250925092565b600062000183826200018a565b9050919050565b600073ffffffffffffffffffffffffffffffffffffffff82169050919050565b6000819050919050565b620001bf8162000176565b8114620001cb57600080fd5b50565b620001d981620001aa565b8114620001e557600080fd5b50565b612aad80620001f86000396000f3fe6080604052600436106101cd5760003560e01c806380962668116100f7578063ca055e5311610095578063e0d65d8711610064578063e0d65d8714610709578063f4e0d9ac14610746578063f52818f01461076f578063f83b35fb14610798576101cd565b8063ca055e5314610638578063daaac9d214610676578063ddca3f43146106b3578063e0a5cee3146106de576101cd565b80639626a230116100d15780639626a2301461055657806399572d6f14610594578063ac4afa38146105bd578063b47a3566146105fb576101cd565b806380962668146104b1578063849cd1c7146104dc57806389b808a714610519576101cd565b806340b8405a1161016f5780635c11ff7a1161013e5780635c11ff7a14610407578063673a7e281461043257806371a42207146104495780638068aa6814610474576101cd565b806340b8405a1461035a5780634304684414610383578063576fe42f1461039f578063587f5ed7146103dc576101cd565b8063231b0268116101ab578063231b02681461028b57806326a4e8d2146102b65780632ff284c2146102df5780633937ea4f1461031c576101cd565b80630ed6ca29146101d25780630eff4d88146102105780631bb5abf91461024e575b600080fd5b3480156101de57600080fd5b506101f960048036038101906101f491906123a2565b6107d6565b60405161020792919061275d565b60405180910390f35b34801561021c57600080fd5b5061023760048036038101906102329190612187565b610943565b60405161024592919061275d565b60405180910390f35b34801561025a57600080fd5b5061027560048036038101906102709190612215565b610990565b60405161028291906127af565b60405180910390f35b34801561029757600080fd5b506102a06109bf565b6040516102ad9190612742565b60405180910390f35b3480156102c257600080fd5b506102dd60048036038101906102d891906120f9565b6109c5565b005b3480156102eb57600080fd5b5061030660048036038101906103019190612215565b610afd565b6040516103139190612742565b60405180910390f35b34801561032857600080fd5b50610343600480360381019061033e9190612122565b610b1f565b60405161035192919061275d565b60405180910390f35b34801561036657600080fd5b50610381600480360381019061037c91906120f9565b610b50565b005b61039d60048036038101906103989190612405565b6112c2565b005b3480156103ab57600080fd5b506103c660048036038101906103c191906122b4565b61168b565b6040516103d39190612742565b60405180910390f35b3480156103e857600080fd5b506103f16116d7565b6040516103fe9190612742565b60405180910390f35b34801561041357600080fd5b5061041c6116dd565b6040516104299190612742565b60405180910390f35b34801561043e57600080fd5b506104476116e3565b005b34801561045557600080fd5b5061045e611786565b60405161046b9190612742565b60405180910390f35b34801561048057600080fd5b5061049b60048036038101906104969190612122565b611793565b6040516104a89190612742565b60405180910390f35b3480156104bd57600080fd5b506104c66117c4565b6040516104d39190612742565b60405180910390f35b3480156104e857600080fd5b5061050360048036038101906104fe9190612251565b6117ca565b6040516105109190612742565b60405180910390f35b34801561052557600080fd5b50610540600480360381019061053b91906120f9565b611804565b60405161054d9190612742565b60405180910390f35b34801561056257600080fd5b5061057d600480360381019061057891906121d9565b611850565b60405161058b92919061275d565b60405180910390f35b3480156105a057600080fd5b506105bb60048036038101906105b691906120f9565b6118dc565b005b3480156105c957600080fd5b506105e460048036038101906105df9190612187565b6119b0565b6040516105f292919061275d565b60405180910390f35b34801561060757600080fd5b50610622600480360381019061061d9190612122565b6119d4565b60405161062f9190612742565b60405180910390f35b34801561064457600080fd5b5061065f600480360381019061065a919061232b565b611a60565b60405161066d92919061275d565b60405180910390f35b34801561068257600080fd5b5061069d60048036038101906106989190612251565b611c8f565b6040516106aa9190612742565b60405180910390f35b3480156106bf57600080fd5b506106c8611cc5565b6040516106d59190612742565b60405180910390f35b3480156106ea57600080fd5b506106f3611ccb565b6040516107009190612742565b60405180910390f35b34801561071557600080fd5b50610730600480360381019061072b9190612187565b611cd1565b60405161073d9190612742565b60405180910390f35b34801561075257600080fd5b5061076d600480360381019061076891906120f9565b611ce9565b005b34801561077b57600080fd5b5061079660048036038101906107919190612187565b611e21565b005b3480156107a457600080fd5b506107bf60048036038101906107ba9190612187565b611f4a565b6040516107cd92919061275d565b60405180910390f35b60008060008460ff166001811115610817577f4e487b7100000000000000000000000000000000000000000000000000000000600052602160045260246000fd5b905060006001811115610853577f4e487b7100000000000000000000000000000000000000000000000000000000600052602160045260246000fd5b81600181111561088c577f4e487b7100000000000000000000000000000000000000000000000000000000600052602160045260246000fd5b14156108a957838761089e91906127db565b86925092505061093a565b6001808111156108e2577f4e487b7100000000000000000000000000000000000000000000000000000000600052602160045260246000fd5b81600181111561091b577f4e487b7100000000000000000000000000000000000000000000000000000000600052602160045260246000fd5b14156109385786848761092e91906127db565b925092505061093a565b505b94509492505050565b600080600060096000858152602001908152602001600020604051806040016040529081600082015481526020016001820154815250509050806000015181602001519250925050915091565b6000828210156109a357600090506109b9565b828211156109b457600190506109b9565b600290505b92915050565b60045481565b600073ffffffffffffffffffffffffffffffffffffffff16600860009054906101000a900473ffffffffffffffffffffffffffffffffffffffff1673ffffffffffffffffffffffffffffffffffffffff1614610a56576040517f08c379a0000000000000000000000000000000000000000000000000000000008152600401610a4d906126a2565b60405180910390fd5b80600860006101000a81548173ffffffffffffffffffffffffffffffffffffffff021916908373ffffffffffffffffffffffffffffffffffffffff160217905550600860009054906101000a900473ffffffffffffffffffffffffffffffffffffffff16600760006101000a81548173ffffffffffffffffffffffffffffffffffffffff021916908373ffffffffffffffffffffffffffffffffffffffff16021790555050565b600060648284610b0d9190612862565b610b179190612831565b905092915050565b600e602052816000526040600020602052806000526040600020600091509150508060000154908060010154905082565b6000600f60008373ffffffffffffffffffffffffffffffffffffffff1673ffffffffffffffffffffffffffffffffffffffff1681526020019081526020016000209050600081805490501415610ba657506112bf565b600080828054905090505b60008111156111d357600083600183610bca91906128bc565b81548110610c01577f4e487b7100000000000000000000000000000000000000000000000000000000600052603260045260246000fd5b906000526020600020015490506000610c2543600354600454600c54600b5461168b565b9050600282610c3491906127db565b811015610c425750506111c0565b600080610c4e84611f4a565b91509150600081148015610c6d5750600384610c6a91906127db565b83105b15610c7b57505050506111c0565b6000610c878383610990565b90506000831480610c985750600082145b15610ca257600290505b8760018980549050610cb491906128bc565b81548110610ceb577f4e487b7100000000000000000000000000000000000000000000000000000000600052603260045260246000fd5b906000526020600020015488600188610d0491906128bc565b81548110610d3b577f4e487b7100000000000000000000000000000000000000000000000000000000600052603260045260246000fd5b906000526020600020018190555087805480610d80577f4e487b7100000000000000000000000000000000000000000000000000000000600052603160045260246000fd5b600190038181906000526020600020016000905590556000600e60008b73ffffffffffffffffffffffffffffffffffffffff1673ffffffffffffffffffffffffffffffffffffffff1681526020019081526020016000206000878152602001908152602001600020604051806040016040529081600082015481526020016001820154815250509050600060096000888152602001908152602001600020604051806040016040529081600082015481526020016001820154815250509050600080610e5f846020015185600001518560200151866000015189611a60565b91509150818b610e6f91906127db565b9a5080600d54610e7f91906127db565b600d819055506000610ea38560200151866000015186602001518760000151611c8f565b905080600760009054906101000a900473ffffffffffffffffffffffffffffffffffffffff1673ffffffffffffffffffffffffffffffffffffffff166370a08231306040518263ffffffff1660e01b8152600401610f01919061265e565b60206040518083038186803b158015610f1957600080fd5b505afa158015610f2d573d6000803e3d6000fd5b505050506040513d601f19601f82011682018060405250810190610f5191906121b0565b1061100b57600760009054906101000a900473ffffffffffffffffffffffffffffffffffffffff1673ffffffffffffffffffffffffffffffffffffffff1663a9059cbb8f836040518363ffffffff1660e01b8152600401610fb3929190612679565b602060405180830381600087803b158015610fcd57600080fd5b505af1158015610fe1573d6000803e3d6000fd5b505050506040513d601f19601f82011682018060405250810190611005919061215e565b50611166565b600760009054906101000a900473ffffffffffffffffffffffffffffffffffffffff1673ffffffffffffffffffffffffffffffffffffffff1663a9059cbb8f600760009054906101000a900473ffffffffffffffffffffffffffffffffffffffff1673ffffffffffffffffffffffffffffffffffffffff166370a08231306040518263ffffffff1660e01b81526004016110a5919061265e565b60206040518083038186803b1580156110bd57600080fd5b505afa1580156110d1573d6000803e3d6000fd5b505050506040513d601f19601f820116820180604052508101906110f591906121b0565b6040518363ffffffff1660e01b8152600401611112929190612679565b602060405180830381600087803b15801561112c57600080fd5b505af1158015611140573d6000803e3d6000fd5b505050506040513d601f19601f82011682018060405250810190611164919061215e565b505b8d73ffffffffffffffffffffffffffffffffffffffff168a7f1a82fd78981b9465af4b8bd67f27607df5d873b7a978cc8cee1a65b85c2990fc856040516111ad9190612742565b60405180910390a3505050505050505050505b80806111cb90612965565b915050610bb1565b5060008110611224578273ffffffffffffffffffffffffffffffffffffffff166108fc829081150290604051600060405180830381858888f19350505050158015611222573d6000803e3d6000fd5b505b6000600d5411156112bc57600560009054906101000a900473ffffffffffffffffffffffffffffffffffffffff1673ffffffffffffffffffffffffffffffffffffffff16625c33e1600d546040518263ffffffff1660e01b81526004016000604051808303818588803b15801561129a57600080fd5b505af11580156112ae573d6000803e3d6000fd5b50505050506000600d819055505b50505b50565b60003411611305576040517f08c379a00000000000000000000000000000000000000000000000000000000081526004016112fc906126c2565b60405180910390fd5b61130d6116e3565b61131633610b50565b600061132434600254610afd565b905080600d5461133491906127db565b600d819055506000813461134891906128bc565b9050600061136143600354600454600c54600b5461168b565b9050601060003373ffffffffffffffffffffffffffffffffffffffff1673ffffffffffffffffffffffffffffffffffffffff168152602001908152602001600020600082815260200190815260200160002060009054906101000a900460ff1661149557600f60003373ffffffffffffffffffffffffffffffffffffffff1673ffffffffffffffffffffffffffffffffffffffff1681526020019081526020016000208190806001815401808255809150506001900390600052602060002001600090919091909150556001601060003373ffffffffffffffffffffffffffffffffffffffff1673ffffffffffffffffffffffffffffffffffffffff168152602001908152602001600020600083815260200190815260200160002060006101000a81548160ff0219169083151502179055505b6000600960008381526020019081526020016000206040518060400160405290816000820154815260200160018201548152505090506000806114e28360000151846020015189886107d6565b915091506040518060400160405280838152602001828152506009600086815260200190815260200160002060008201518160000155602082015181600101559050506000600e60003373ffffffffffffffffffffffffffffffffffffffff1673ffffffffffffffffffffffffffffffffffffffff16815260200190815260200160002060008681526020019081526020016000206040518060400160405290816000820154815260200160018201548152505090506115ac816000015182602001518a896107d6565b8093508194505050604051806040016040528084815260200183815250600e60003373ffffffffffffffffffffffffffffffffffffffff1673ffffffffffffffffffffffffffffffffffffffff16815260200190815260200160002060008781526020019081526020016000206000820151816000015560208201518160010155905050843373ffffffffffffffffffffffffffffffffffffffff167f560e32e4934b84f33b228f40ddc5b9fa690426ee087005a7d979d7921d24a02b888b604051611679929190612786565b60405180910390a35050505050505050565b60008386101561169d578190506116ce565b6001838686896116ad91906128bc565b6116b79190612831565b6116c191906127db565b6116cb91906127db565b90505b95945050505050565b600d5481565b60035481565b60006116fa43600354600454600c54600b5461168b565b90506000600a600083815260200190815260200160002054141561178357611720611f96565b600a600083815260200190815260200160002081905550807f7a3325b9d11ddc18edd3dff130141b6ce951061520c6b933a604bf701f3d8052600a60008481526020019081526020016000205460405161177a9190612742565b60405180910390a25b50565b68240cba98add2c4000081565b600f60205281600052604060002081815481106117af57600080fd5b90600052602060002001600091509150505481565b600c5481565b600083826001876117db91906128bc565b6117e591906128bc565b6117ef9190612862565b836117fa91906127db565b9050949350505050565b6000600f60008373ffffffffffffffffffffffffffffffffffffffff1673ffffffffffffffffffffffffffffffffffffffff168152602001908152602001600020805490509050919050565b6000806000600e60008573ffffffffffffffffffffffffffffffffffffffff1673ffffffffffffffffffffffffffffffffffffffff16815260200190815260200160002060008681526020019081526020016000206040518060400160405290816000820154815260200160018201548152505090508060000151816020015192509250509250929050565b600160009054906101000a900473ffffffffffffffffffffffffffffffffffffffff1673ffffffffffffffffffffffffffffffffffffffff163373ffffffffffffffffffffffffffffffffffffffff161461196c576040517f08c379a000000000000000000000000000000000000000000000000000000000815260040161196390612702565b60405180910390fd5b80600160006101000a81548173ffffffffffffffffffffffffffffffffffffffff021916908373ffffffffffffffffffffffffffffffffffffffff16021790555050565b60096020528060005260406000206000915090508060000154908060010154905082565b6000600f60008473ffffffffffffffffffffffffffffffffffffffff1673ffffffffffffffffffffffffffffffffffffffff1681526020019081526020016000208281548110611a4d577f4e487b7100000000000000000000000000000000000000000000000000000000600052603260045260246000fd5b9060005260206000200154905092915050565b60008060008360ff166002811115611aa1577f4e487b7100000000000000000000000000000000000000000000000000000000600052602160045260246000fd5b905060008587611ab191906127db565b905060016002811115611aed577f4e487b7100000000000000000000000000000000000000000000000000000000600052602160045260246000fd5b826002811115611b26577f4e487b7100000000000000000000000000000000000000000000000000000000600052602160045260246000fd5b148015611b34575060008714155b15611b4b57611b44818a89612044565b9350611c83565b60006002811115611b85577f4e487b7100000000000000000000000000000000000000000000000000000000600052602160045260246000fd5b826002811115611bbe577f4e487b7100000000000000000000000000000000000000000000000000000000600052602160045260246000fd5b148015611bcc575060008614155b15611be357611bdc818988612044565b9350611c82565b600280811115611c1c577f4e487b7100000000000000000000000000000000000000000000000000000000600052602160045260246000fd5b826002811115611c55577f4e487b7100000000000000000000000000000000000000000000000000000000600052602160045260246000fd5b1415611c6e578789611c6791906127db565b9350611c81565b600093508789611c7e91906127db565b92505b5b5b50509550959350505050565b6000611cbb68240cba98add2c400008587611caa91906127db565b8486611cb691906127db565b612044565b9050949350505050565b60025481565b600b5481565b600a6020528060005260406000206000915090505481565b600073ffffffffffffffffffffffffffffffffffffffff16600660009054906101000a900473ffffffffffffffffffffffffffffffffffffffff1673ffffffffffffffffffffffffffffffffffffffff1614611d7a576040517f08c379a0000000000000000000000000000000000000000000000000000000008152600401611d71906126e2565b60405180910390fd5b80600660006101000a81548173ffffffffffffffffffffffffffffffffffffffff021916908373ffffffffffffffffffffffffffffffffffffffff160217905550600660009054906101000a900473ffffffffffffffffffffffffffffffffffffffff16600560006101000a81548173ffffffffffffffffffffffffffffffffffffffff021916908373ffffffffffffffffffffffffffffffffffffffff16021790555050565b600160009054906101000a900473ffffffffffffffffffffffffffffffffffffffff1673ffffffffffffffffffffffffffffffffffffffff163373ffffffffffffffffffffffffffffffffffffffff1614611eb1576040517f08c379a0000000000000000000000000000000000000000000000000000000008152600401611ea890612702565b60405180910390fd5b60008111611ef4576040517f08c379a0000000000000000000000000000000000000000000000000000000008152600401611eeb90612722565b60405180910390fd5b6000611f0b43600354600454600c54600b5461168b565b9050611f2b600182611f1d91906127db565b600354600454600c546117ca565b60048190555080600c8190555080600b81905550816003819055505050565b600080600a6000600185611f5e91906127db565b815260200190815260200160002054600a6000600286611f7e91906127db565b81526020019081526020016000205491509150915091565b60008060008054906101000a900473ffffffffffffffffffffffffffffffffffffffff1673ffffffffffffffffffffffffffffffffffffffff1663feaf968c6040518163ffffffff1660e01b815260040160a06040518083038186803b158015611fff57600080fd5b505afa158015612013573d6000803e3d6000fd5b505050506040513d601f19601f82011682018060405250810190612037919061242e565b5050509150508091505090565b60008184846120539190612862565b61205d9190612831565b90509392505050565b600081359050612075816129ed565b92915050565b60008151905061208a81612a04565b92915050565b60008151905061209f81612a1b565b92915050565b6000813590506120b481612a32565b92915050565b6000815190506120c981612a32565b92915050565b6000813590506120de81612a49565b92915050565b6000815190506120f381612a60565b92915050565b60006020828403121561210b57600080fd5b600061211984828501612066565b91505092915050565b6000806040838503121561213557600080fd5b600061214385828601612066565b9250506020612154858286016120a5565b9150509250929050565b60006020828403121561217057600080fd5b600061217e8482850161207b565b91505092915050565b60006020828403121561219957600080fd5b60006121a7848285016120a5565b91505092915050565b6000602082840312156121c257600080fd5b60006121d0848285016120ba565b91505092915050565b600080604083850312156121ec57600080fd5b60006121fa858286016120a5565b925050602061220b85828601612066565b9150509250929050565b6000806040838503121561222857600080fd5b6000612236858286016120a5565b9250506020612247858286016120a5565b9150509250929050565b6000806000806080858703121561226757600080fd5b6000612275878288016120a5565b9450506020612286878288016120a5565b9350506040612297878288016120a5565b92505060606122a8878288016120a5565b91505092959194509250565b600080600080600060a086880312156122cc57600080fd5b60006122da888289016120a5565b95505060206122eb888289016120a5565b94505060406122fc888289016120a5565b935050606061230d888289016120a5565b925050608061231e888289016120a5565b9150509295509295909350565b600080600080600060a0868803121561234357600080fd5b6000612351888289016120a5565b9550506020612362888289016120a5565b9450506040612373888289016120a5565b9350506060612384888289016120a5565b9250506080612395888289016120cf565b9150509295509295909350565b600080600080608085870312156123b857600080fd5b60006123c6878288016120a5565b94505060206123d7878288016120a5565b93505060406123e8878288016120cf565b92505060606123f9878288016120a5565b91505092959194509250565b60006020828403121561241757600080fd5b6000612425848285016120cf565b91505092915050565b600080600080600060a0868803121561244657600080fd5b6000612454888289016120e4565b955050602061246588828901612090565b9450506040612476888289016120ba565b9350506060612487888289016120ba565b9250506080612498888289016120e4565b9150509295509295909350565b6124ae816128f0565b82525050565b60006124c16019836127ca565b91507f746f6b656e206164647265737320616c726561647920736574000000000000006000830152602082019050919050565b6000612501601d836127ca565b91507f4f6e6c79207374726963746c7920706f7369746976652076616c7565730000006000830152602082019050919050565b6000612541601b836127ca565b91507f7374616b696e67206164647265737320616c72656164792073657400000000006000830152602082019050919050565b60006125816024836127ca565b91507f6f6e6c7920676f7665726e616e63652063616e2063616c6c2074686973206d6560008301527f74686f64000000000000000000000000000000000000000000000000000000006020830152604082019050919050565b60006125e76027836127ca565b91507f77696e646f772073697a652073686f756c64206265207374726963746c79207060008301527f6f736974697665000000000000000000000000000000000000000000000000006020830152604082019050919050565b61264981612938565b82525050565b61265881612942565b82525050565b600060208201905061267360008301846124a5565b92915050565b600060408201905061268e60008301856124a5565b61269b6020830184612640565b9392505050565b600060208201905081810360008301526126bb816124b4565b9050919050565b600060208201905081810360008301526126db816124f4565b9050919050565b600060208201905081810360008301526126fb81612534565b9050919050565b6000602082019050818103600083015261271b81612574565b9050919050565b6000602082019050818103600083015261273b816125da565b9050919050565b60006020820190506127576000830184612640565b92915050565b60006040820190506127726000830185612640565b61277f6020830184612640565b9392505050565b600060408201905061279b6000830185612640565b6127a8602083018461264f565b9392505050565b60006020820190506127c4600083018461264f565b92915050565b600082825260208201905092915050565b60006127e682612938565b91506127f183612938565b9250827fffffffffffffffffffffffffffffffffffffffffffffffffffffffffffffffff038211156128265761282561298f565b5b828201905092915050565b600061283c82612938565b915061284783612938565b925082612857576128566129be565b5b828204905092915050565b600061286d82612938565b915061287883612938565b9250817fffffffffffffffffffffffffffffffffffffffffffffffffffffffffffffffff04831182151516156128b1576128b061298f565b5b828202905092915050565b60006128c782612938565b91506128d283612938565b9250828210156128e5576128e461298f565b5b828203905092915050565b60006128fb82612918565b9050919050565b60008115159050919050565b6000819050919050565b600073ffffffffffffffffffffffffffffffffffffffff82169050919050565b6000819050919050565b600060ff82169050919050565b600069ffffffffffffffffffff82169050919050565b600061297082612938565b915060008214156129845761298361298f565b5b600182039050919050565b7f4e487b7100000000000000000000000000000000000000000000000000000000600052601160045260246000fd5b7f4e487b7100000000000000000000000000000000000000000000000000000000600052601260045260246000fd5b6129f6816128f0565b8114612a0157600080fd5b50565b612a0d81612902565b8114612a1857600080fd5b50565b612a248161290e565b8114612a2f57600080fd5b50565b612a3b81612938565b8114612a4657600080fd5b50565b612a5281612942565b8114612a5d57600080fd5b50565b612a698161294f565b8114612a7457600080fd5b5056fea2646970667358221220563dace16d7443e5b079ae4826cc9b2f9f0b7d951f5fb72406f55564daee376e64736f6c63430008000033",
          "opcodes": "PUSH1 0x80 PUSH1 0x40 MSTORE PUSH1 0x1 PUSH1 0xB SSTORE CALLVALUE DUP1 ISZERO PUSH3 0x16 JUMPI PUSH1 0x0 DUP1 REVERT JUMPDEST POP PUSH1 0x40 MLOAD PUSH3 0x2CA5 CODESIZE SUB DUP1 PUSH3 0x2CA5 DUP4 CODECOPY DUP2 DUP2 ADD PUSH1 0x40 MSTORE DUP2 ADD SWAP1 PUSH3 0x3C SWAP2 SWAP1 PUSH3 0x120 JUMP JUMPDEST PUSH1 0x64 DUP3 GT ISZERO PUSH3 0x4B JUMPI PUSH1 0x0 DUP1 REVERT JUMPDEST DUP1 PUSH1 0x0 DUP1 PUSH2 0x100 EXP DUP2 SLOAD DUP2 PUSH20 0xFFFFFFFFFFFFFFFFFFFFFFFFFFFFFFFFFFFFFFFF MUL NOT AND SWAP1 DUP4 PUSH20 0xFFFFFFFFFFFFFFFFFFFFFFFFFFFFFFFFFFFFFFFF AND MUL OR SWAP1 SSTORE POP NUMBER PUSH1 0x4 DUP2 SWAP1 SSTORE POP DUP3 PUSH1 0x3 DUP2 SWAP1 SSTORE POP DUP2 PUSH1 0x2 DUP2 SWAP1 SSTORE POP CALLER PUSH1 0x1 PUSH1 0x0 PUSH2 0x100 EXP DUP2 SLOAD DUP2 PUSH20 0xFFFFFFFFFFFFFFFFFFFFFFFFFFFFFFFFFFFFFFFF MUL NOT AND SWAP1 DUP4 PUSH20 0xFFFFFFFFFFFFFFFFFFFFFFFFFFFFFFFFFFFFFFFF AND MUL OR SWAP1 SSTORE POP PUSH1 0x1 PUSH1 0xB DUP2 SWAP1 SSTORE POP POP POP POP PUSH3 0x1E8 JUMP JUMPDEST PUSH1 0x0 DUP2 MLOAD SWAP1 POP PUSH3 0x103 DUP2 PUSH3 0x1B4 JUMP JUMPDEST SWAP3 SWAP2 POP POP JUMP JUMPDEST PUSH1 0x0 DUP2 MLOAD SWAP1 POP PUSH3 0x11A DUP2 PUSH3 0x1CE JUMP JUMPDEST SWAP3 SWAP2 POP POP JUMP JUMPDEST PUSH1 0x0 DUP1 PUSH1 0x0 PUSH1 0x60 DUP5 DUP7 SUB SLT ISZERO PUSH3 0x136 JUMPI PUSH1 0x0 DUP1 REVERT JUMPDEST PUSH1 0x0 PUSH3 0x146 DUP7 DUP3 DUP8 ADD PUSH3 0x109 JUMP JUMPDEST SWAP4 POP POP PUSH1 0x20 PUSH3 0x159 DUP7 DUP3 DUP8 ADD PUSH3 0x109 JUMP JUMPDEST SWAP3 POP POP PUSH1 0x40 PUSH3 0x16C DUP7 DUP3 DUP8 ADD PUSH3 0xF2 JUMP JUMPDEST SWAP2 POP POP SWAP3 POP SWAP3 POP SWAP3 JUMP JUMPDEST PUSH1 0x0 PUSH3 0x183 DUP3 PUSH3 0x18A JUMP JUMPDEST SWAP1 POP SWAP2 SWAP1 POP JUMP JUMPDEST PUSH1 0x0 PUSH20 0xFFFFFFFFFFFFFFFFFFFFFFFFFFFFFFFFFFFFFFFF DUP3 AND SWAP1 POP SWAP2 SWAP1 POP JUMP JUMPDEST PUSH1 0x0 DUP2 SWAP1 POP SWAP2 SWAP1 POP JUMP JUMPDEST PUSH3 0x1BF DUP2 PUSH3 0x176 JUMP JUMPDEST DUP2 EQ PUSH3 0x1CB JUMPI PUSH1 0x0 DUP1 REVERT JUMPDEST POP JUMP JUMPDEST PUSH3 0x1D9 DUP2 PUSH3 0x1AA JUMP JUMPDEST DUP2 EQ PUSH3 0x1E5 JUMPI PUSH1 0x0 DUP1 REVERT JUMPDEST POP JUMP JUMPDEST PUSH2 0x2AAD DUP1 PUSH3 0x1F8 PUSH1 0x0 CODECOPY PUSH1 0x0 RETURN INVALID PUSH1 0x80 PUSH1 0x40 MSTORE PUSH1 0x4 CALLDATASIZE LT PUSH2 0x1CD JUMPI PUSH1 0x0 CALLDATALOAD PUSH1 0xE0 SHR DUP1 PUSH4 0x80962668 GT PUSH2 0xF7 JUMPI DUP1 PUSH4 0xCA055E53 GT PUSH2 0x95 JUMPI DUP1 PUSH4 0xE0D65D87 GT PUSH2 0x64 JUMPI DUP1 PUSH4 0xE0D65D87 EQ PUSH2 0x709 JUMPI DUP1 PUSH4 0xF4E0D9AC EQ PUSH2 0x746 JUMPI DUP1 PUSH4 0xF52818F0 EQ PUSH2 0x76F JUMPI DUP1 PUSH4 0xF83B35FB EQ PUSH2 0x798 JUMPI PUSH2 0x1CD JUMP JUMPDEST DUP1 PUSH4 0xCA055E53 EQ PUSH2 0x638 JUMPI DUP1 PUSH4 0xDAAAC9D2 EQ PUSH2 0x676 JUMPI DUP1 PUSH4 0xDDCA3F43 EQ PUSH2 0x6B3 JUMPI DUP1 PUSH4 0xE0A5CEE3 EQ PUSH2 0x6DE JUMPI PUSH2 0x1CD JUMP JUMPDEST DUP1 PUSH4 0x9626A230 GT PUSH2 0xD1 JUMPI DUP1 PUSH4 0x9626A230 EQ PUSH2 0x556 JUMPI DUP1 PUSH4 0x99572D6F EQ PUSH2 0x594 JUMPI DUP1 PUSH4 0xAC4AFA38 EQ PUSH2 0x5BD JUMPI DUP1 PUSH4 0xB47A3566 EQ PUSH2 0x5FB JUMPI PUSH2 0x1CD JUMP JUMPDEST DUP1 PUSH4 0x80962668 EQ PUSH2 0x4B1 JUMPI DUP1 PUSH4 0x849CD1C7 EQ PUSH2 0x4DC JUMPI DUP1 PUSH4 0x89B808A7 EQ PUSH2 0x519 JUMPI PUSH2 0x1CD JUMP JUMPDEST DUP1 PUSH4 0x40B8405A GT PUSH2 0x16F JUMPI DUP1 PUSH4 0x5C11FF7A GT PUSH2 0x13E JUMPI DUP1 PUSH4 0x5C11FF7A EQ PUSH2 0x407 JUMPI DUP1 PUSH4 0x673A7E28 EQ PUSH2 0x432 JUMPI DUP1 PUSH4 0x71A42207 EQ PUSH2 0x449 JUMPI DUP1 PUSH4 0x8068AA68 EQ PUSH2 0x474 JUMPI PUSH2 0x1CD JUMP JUMPDEST DUP1 PUSH4 0x40B8405A EQ PUSH2 0x35A JUMPI DUP1 PUSH4 0x43046844 EQ PUSH2 0x383 JUMPI DUP1 PUSH4 0x576FE42F EQ PUSH2 0x39F JUMPI DUP1 PUSH4 0x587F5ED7 EQ PUSH2 0x3DC JUMPI PUSH2 0x1CD JUMP JUMPDEST DUP1 PUSH4 0x231B0268 GT PUSH2 0x1AB JUMPI DUP1 PUSH4 0x231B0268 EQ PUSH2 0x28B JUMPI DUP1 PUSH4 0x26A4E8D2 EQ PUSH2 0x2B6 JUMPI DUP1 PUSH4 0x2FF284C2 EQ PUSH2 0x2DF JUMPI DUP1 PUSH4 0x3937EA4F EQ PUSH2 0x31C JUMPI PUSH2 0x1CD JUMP JUMPDEST DUP1 PUSH4 0xED6CA29 EQ PUSH2 0x1D2 JUMPI DUP1 PUSH4 0xEFF4D88 EQ PUSH2 0x210 JUMPI DUP1 PUSH4 0x1BB5ABF9 EQ PUSH2 0x24E JUMPI JUMPDEST PUSH1 0x0 DUP1 REVERT JUMPDEST CALLVALUE DUP1 ISZERO PUSH2 0x1DE JUMPI PUSH1 0x0 DUP1 REVERT JUMPDEST POP PUSH2 0x1F9 PUSH1 0x4 DUP1 CALLDATASIZE SUB DUP2 ADD SWAP1 PUSH2 0x1F4 SWAP2 SWAP1 PUSH2 0x23A2 JUMP JUMPDEST PUSH2 0x7D6 JUMP JUMPDEST PUSH1 0x40 MLOAD PUSH2 0x207 SWAP3 SWAP2 SWAP1 PUSH2 0x275D JUMP JUMPDEST PUSH1 0x40 MLOAD DUP1 SWAP2 SUB SWAP1 RETURN JUMPDEST CALLVALUE DUP1 ISZERO PUSH2 0x21C JUMPI PUSH1 0x0 DUP1 REVERT JUMPDEST POP PUSH2 0x237 PUSH1 0x4 DUP1 CALLDATASIZE SUB DUP2 ADD SWAP1 PUSH2 0x232 SWAP2 SWAP1 PUSH2 0x2187 JUMP JUMPDEST PUSH2 0x943 JUMP JUMPDEST PUSH1 0x40 MLOAD PUSH2 0x245 SWAP3 SWAP2 SWAP1 PUSH2 0x275D JUMP JUMPDEST PUSH1 0x40 MLOAD DUP1 SWAP2 SUB SWAP1 RETURN JUMPDEST CALLVALUE DUP1 ISZERO PUSH2 0x25A JUMPI PUSH1 0x0 DUP1 REVERT JUMPDEST POP PUSH2 0x275 PUSH1 0x4 DUP1 CALLDATASIZE SUB DUP2 ADD SWAP1 PUSH2 0x270 SWAP2 SWAP1 PUSH2 0x2215 JUMP JUMPDEST PUSH2 0x990 JUMP JUMPDEST PUSH1 0x40 MLOAD PUSH2 0x282 SWAP2 SWAP1 PUSH2 0x27AF JUMP JUMPDEST PUSH1 0x40 MLOAD DUP1 SWAP2 SUB SWAP1 RETURN JUMPDEST CALLVALUE DUP1 ISZERO PUSH2 0x297 JUMPI PUSH1 0x0 DUP1 REVERT JUMPDEST POP PUSH2 0x2A0 PUSH2 0x9BF JUMP JUMPDEST PUSH1 0x40 MLOAD PUSH2 0x2AD SWAP2 SWAP1 PUSH2 0x2742 JUMP JUMPDEST PUSH1 0x40 MLOAD DUP1 SWAP2 SUB SWAP1 RETURN JUMPDEST CALLVALUE DUP1 ISZERO PUSH2 0x2C2 JUMPI PUSH1 0x0 DUP1 REVERT JUMPDEST POP PUSH2 0x2DD PUSH1 0x4 DUP1 CALLDATASIZE SUB DUP2 ADD SWAP1 PUSH2 0x2D8 SWAP2 SWAP1 PUSH2 0x20F9 JUMP JUMPDEST PUSH2 0x9C5 JUMP JUMPDEST STOP JUMPDEST CALLVALUE DUP1 ISZERO PUSH2 0x2EB JUMPI PUSH1 0x0 DUP1 REVERT JUMPDEST POP PUSH2 0x306 PUSH1 0x4 DUP1 CALLDATASIZE SUB DUP2 ADD SWAP1 PUSH2 0x301 SWAP2 SWAP1 PUSH2 0x2215 JUMP JUMPDEST PUSH2 0xAFD JUMP JUMPDEST PUSH1 0x40 MLOAD PUSH2 0x313 SWAP2 SWAP1 PUSH2 0x2742 JUMP JUMPDEST PUSH1 0x40 MLOAD DUP1 SWAP2 SUB SWAP1 RETURN JUMPDEST CALLVALUE DUP1 ISZERO PUSH2 0x328 JUMPI PUSH1 0x0 DUP1 REVERT JUMPDEST POP PUSH2 0x343 PUSH1 0x4 DUP1 CALLDATASIZE SUB DUP2 ADD SWAP1 PUSH2 0x33E SWAP2 SWAP1 PUSH2 0x2122 JUMP JUMPDEST PUSH2 0xB1F JUMP JUMPDEST PUSH1 0x40 MLOAD PUSH2 0x351 SWAP3 SWAP2 SWAP1 PUSH2 0x275D JUMP JUMPDEST PUSH1 0x40 MLOAD DUP1 SWAP2 SUB SWAP1 RETURN JUMPDEST CALLVALUE DUP1 ISZERO PUSH2 0x366 JUMPI PUSH1 0x0 DUP1 REVERT JUMPDEST POP PUSH2 0x381 PUSH1 0x4 DUP1 CALLDATASIZE SUB DUP2 ADD SWAP1 PUSH2 0x37C SWAP2 SWAP1 PUSH2 0x20F9 JUMP JUMPDEST PUSH2 0xB50 JUMP JUMPDEST STOP JUMPDEST PUSH2 0x39D PUSH1 0x4 DUP1 CALLDATASIZE SUB DUP2 ADD SWAP1 PUSH2 0x398 SWAP2 SWAP1 PUSH2 0x2405 JUMP JUMPDEST PUSH2 0x12C2 JUMP JUMPDEST STOP JUMPDEST CALLVALUE DUP1 ISZERO PUSH2 0x3AB JUMPI PUSH1 0x0 DUP1 REVERT JUMPDEST POP PUSH2 0x3C6 PUSH1 0x4 DUP1 CALLDATASIZE SUB DUP2 ADD SWAP1 PUSH2 0x3C1 SWAP2 SWAP1 PUSH2 0x22B4 JUMP JUMPDEST PUSH2 0x168B JUMP JUMPDEST PUSH1 0x40 MLOAD PUSH2 0x3D3 SWAP2 SWAP1 PUSH2 0x2742 JUMP JUMPDEST PUSH1 0x40 MLOAD DUP1 SWAP2 SUB SWAP1 RETURN JUMPDEST CALLVALUE DUP1 ISZERO PUSH2 0x3E8 JUMPI PUSH1 0x0 DUP1 REVERT JUMPDEST POP PUSH2 0x3F1 PUSH2 0x16D7 JUMP JUMPDEST PUSH1 0x40 MLOAD PUSH2 0x3FE SWAP2 SWAP1 PUSH2 0x2742 JUMP JUMPDEST PUSH1 0x40 MLOAD DUP1 SWAP2 SUB SWAP1 RETURN JUMPDEST CALLVALUE DUP1 ISZERO PUSH2 0x413 JUMPI PUSH1 0x0 DUP1 REVERT JUMPDEST POP PUSH2 0x41C PUSH2 0x16DD JUMP JUMPDEST PUSH1 0x40 MLOAD PUSH2 0x429 SWAP2 SWAP1 PUSH2 0x2742 JUMP JUMPDEST PUSH1 0x40 MLOAD DUP1 SWAP2 SUB SWAP1 RETURN JUMPDEST CALLVALUE DUP1 ISZERO PUSH2 0x43E JUMPI PUSH1 0x0 DUP1 REVERT JUMPDEST POP PUSH2 0x447 PUSH2 0x16E3 JUMP JUMPDEST STOP JUMPDEST CALLVALUE DUP1 ISZERO PUSH2 0x455 JUMPI PUSH1 0x0 DUP1 REVERT JUMPDEST POP PUSH2 0x45E PUSH2 0x1786 JUMP JUMPDEST PUSH1 0x40 MLOAD PUSH2 0x46B SWAP2 SWAP1 PUSH2 0x2742 JUMP JUMPDEST PUSH1 0x40 MLOAD DUP1 SWAP2 SUB SWAP1 RETURN JUMPDEST CALLVALUE DUP1 ISZERO PUSH2 0x480 JUMPI PUSH1 0x0 DUP1 REVERT JUMPDEST POP PUSH2 0x49B PUSH1 0x4 DUP1 CALLDATASIZE SUB DUP2 ADD SWAP1 PUSH2 0x496 SWAP2 SWAP1 PUSH2 0x2122 JUMP JUMPDEST PUSH2 0x1793 JUMP JUMPDEST PUSH1 0x40 MLOAD PUSH2 0x4A8 SWAP2 SWAP1 PUSH2 0x2742 JUMP JUMPDEST PUSH1 0x40 MLOAD DUP1 SWAP2 SUB SWAP1 RETURN JUMPDEST CALLVALUE DUP1 ISZERO PUSH2 0x4BD JUMPI PUSH1 0x0 DUP1 REVERT JUMPDEST POP PUSH2 0x4C6 PUSH2 0x17C4 JUMP JUMPDEST PUSH1 0x40 MLOAD PUSH2 0x4D3 SWAP2 SWAP1 PUSH2 0x2742 JUMP JUMPDEST PUSH1 0x40 MLOAD DUP1 SWAP2 SUB SWAP1 RETURN JUMPDEST CALLVALUE DUP1 ISZERO PUSH2 0x4E8 JUMPI PUSH1 0x0 DUP1 REVERT JUMPDEST POP PUSH2 0x503 PUSH1 0x4 DUP1 CALLDATASIZE SUB DUP2 ADD SWAP1 PUSH2 0x4FE SWAP2 SWAP1 PUSH2 0x2251 JUMP JUMPDEST PUSH2 0x17CA JUMP JUMPDEST PUSH1 0x40 MLOAD PUSH2 0x510 SWAP2 SWAP1 PUSH2 0x2742 JUMP JUMPDEST PUSH1 0x40 MLOAD DUP1 SWAP2 SUB SWAP1 RETURN JUMPDEST CALLVALUE DUP1 ISZERO PUSH2 0x525 JUMPI PUSH1 0x0 DUP1 REVERT JUMPDEST POP PUSH2 0x540 PUSH1 0x4 DUP1 CALLDATASIZE SUB DUP2 ADD SWAP1 PUSH2 0x53B SWAP2 SWAP1 PUSH2 0x20F9 JUMP JUMPDEST PUSH2 0x1804 JUMP JUMPDEST PUSH1 0x40 MLOAD PUSH2 0x54D SWAP2 SWAP1 PUSH2 0x2742 JUMP JUMPDEST PUSH1 0x40 MLOAD DUP1 SWAP2 SUB SWAP1 RETURN JUMPDEST CALLVALUE DUP1 ISZERO PUSH2 0x562 JUMPI PUSH1 0x0 DUP1 REVERT JUMPDEST POP PUSH2 0x57D PUSH1 0x4 DUP1 CALLDATASIZE SUB DUP2 ADD SWAP1 PUSH2 0x578 SWAP2 SWAP1 PUSH2 0x21D9 JUMP JUMPDEST PUSH2 0x1850 JUMP JUMPDEST PUSH1 0x40 MLOAD PUSH2 0x58B SWAP3 SWAP2 SWAP1 PUSH2 0x275D JUMP JUMPDEST PUSH1 0x40 MLOAD DUP1 SWAP2 SUB SWAP1 RETURN JUMPDEST CALLVALUE DUP1 ISZERO PUSH2 0x5A0 JUMPI PUSH1 0x0 DUP1 REVERT JUMPDEST POP PUSH2 0x5BB PUSH1 0x4 DUP1 CALLDATASIZE SUB DUP2 ADD SWAP1 PUSH2 0x5B6 SWAP2 SWAP1 PUSH2 0x20F9 JUMP JUMPDEST PUSH2 0x18DC JUMP JUMPDEST STOP JUMPDEST CALLVALUE DUP1 ISZERO PUSH2 0x5C9 JUMPI PUSH1 0x0 DUP1 REVERT JUMPDEST POP PUSH2 0x5E4 PUSH1 0x4 DUP1 CALLDATASIZE SUB DUP2 ADD SWAP1 PUSH2 0x5DF SWAP2 SWAP1 PUSH2 0x2187 JUMP JUMPDEST PUSH2 0x19B0 JUMP JUMPDEST PUSH1 0x40 MLOAD PUSH2 0x5F2 SWAP3 SWAP2 SWAP1 PUSH2 0x275D JUMP JUMPDEST PUSH1 0x40 MLOAD DUP1 SWAP2 SUB SWAP1 RETURN JUMPDEST CALLVALUE DUP1 ISZERO PUSH2 0x607 JUMPI PUSH1 0x0 DUP1 REVERT JUMPDEST POP PUSH2 0x622 PUSH1 0x4 DUP1 CALLDATASIZE SUB DUP2 ADD SWAP1 PUSH2 0x61D SWAP2 SWAP1 PUSH2 0x2122 JUMP JUMPDEST PUSH2 0x19D4 JUMP JUMPDEST PUSH1 0x40 MLOAD PUSH2 0x62F SWAP2 SWAP1 PUSH2 0x2742 JUMP JUMPDEST PUSH1 0x40 MLOAD DUP1 SWAP2 SUB SWAP1 RETURN JUMPDEST CALLVALUE DUP1 ISZERO PUSH2 0x644 JUMPI PUSH1 0x0 DUP1 REVERT JUMPDEST POP PUSH2 0x65F PUSH1 0x4 DUP1 CALLDATASIZE SUB DUP2 ADD SWAP1 PUSH2 0x65A SWAP2 SWAP1 PUSH2 0x232B JUMP JUMPDEST PUSH2 0x1A60 JUMP JUMPDEST PUSH1 0x40 MLOAD PUSH2 0x66D SWAP3 SWAP2 SWAP1 PUSH2 0x275D JUMP JUMPDEST PUSH1 0x40 MLOAD DUP1 SWAP2 SUB SWAP1 RETURN JUMPDEST CALLVALUE DUP1 ISZERO PUSH2 0x682 JUMPI PUSH1 0x0 DUP1 REVERT JUMPDEST POP PUSH2 0x69D PUSH1 0x4 DUP1 CALLDATASIZE SUB DUP2 ADD SWAP1 PUSH2 0x698 SWAP2 SWAP1 PUSH2 0x2251 JUMP JUMPDEST PUSH2 0x1C8F JUMP JUMPDEST PUSH1 0x40 MLOAD PUSH2 0x6AA SWAP2 SWAP1 PUSH2 0x2742 JUMP JUMPDEST PUSH1 0x40 MLOAD DUP1 SWAP2 SUB SWAP1 RETURN JUMPDEST CALLVALUE DUP1 ISZERO PUSH2 0x6BF JUMPI PUSH1 0x0 DUP1 REVERT JUMPDEST POP PUSH2 0x6C8 PUSH2 0x1CC5 JUMP JUMPDEST PUSH1 0x40 MLOAD PUSH2 0x6D5 SWAP2 SWAP1 PUSH2 0x2742 JUMP JUMPDEST PUSH1 0x40 MLOAD DUP1 SWAP2 SUB SWAP1 RETURN JUMPDEST CALLVALUE DUP1 ISZERO PUSH2 0x6EA JUMPI PUSH1 0x0 DUP1 REVERT JUMPDEST POP PUSH2 0x6F3 PUSH2 0x1CCB JUMP JUMPDEST PUSH1 0x40 MLOAD PUSH2 0x700 SWAP2 SWAP1 PUSH2 0x2742 JUMP JUMPDEST PUSH1 0x40 MLOAD DUP1 SWAP2 SUB SWAP1 RETURN JUMPDEST CALLVALUE DUP1 ISZERO PUSH2 0x715 JUMPI PUSH1 0x0 DUP1 REVERT JUMPDEST POP PUSH2 0x730 PUSH1 0x4 DUP1 CALLDATASIZE SUB DUP2 ADD SWAP1 PUSH2 0x72B SWAP2 SWAP1 PUSH2 0x2187 JUMP JUMPDEST PUSH2 0x1CD1 JUMP JUMPDEST PUSH1 0x40 MLOAD PUSH2 0x73D SWAP2 SWAP1 PUSH2 0x2742 JUMP JUMPDEST PUSH1 0x40 MLOAD DUP1 SWAP2 SUB SWAP1 RETURN JUMPDEST CALLVALUE DUP1 ISZERO PUSH2 0x752 JUMPI PUSH1 0x0 DUP1 REVERT JUMPDEST POP PUSH2 0x76D PUSH1 0x4 DUP1 CALLDATASIZE SUB DUP2 ADD SWAP1 PUSH2 0x768 SWAP2 SWAP1 PUSH2 0x20F9 JUMP JUMPDEST PUSH2 0x1CE9 JUMP JUMPDEST STOP JUMPDEST CALLVALUE DUP1 ISZERO PUSH2 0x77B JUMPI PUSH1 0x0 DUP1 REVERT JUMPDEST POP PUSH2 0x796 PUSH1 0x4 DUP1 CALLDATASIZE SUB DUP2 ADD SWAP1 PUSH2 0x791 SWAP2 SWAP1 PUSH2 0x2187 JUMP JUMPDEST PUSH2 0x1E21 JUMP JUMPDEST STOP JUMPDEST CALLVALUE DUP1 ISZERO PUSH2 0x7A4 JUMPI PUSH1 0x0 DUP1 REVERT JUMPDEST POP PUSH2 0x7BF PUSH1 0x4 DUP1 CALLDATASIZE SUB DUP2 ADD SWAP1 PUSH2 0x7BA SWAP2 SWAP1 PUSH2 0x2187 JUMP JUMPDEST PUSH2 0x1F4A JUMP JUMPDEST PUSH1 0x40 MLOAD PUSH2 0x7CD SWAP3 SWAP2 SWAP1 PUSH2 0x275D JUMP JUMPDEST PUSH1 0x40 MLOAD DUP1 SWAP2 SUB SWAP1 RETURN JUMPDEST PUSH1 0x0 DUP1 PUSH1 0x0 DUP5 PUSH1 0xFF AND PUSH1 0x1 DUP2 GT ISZERO PUSH2 0x817 JUMPI PUSH32 0x4E487B7100000000000000000000000000000000000000000000000000000000 PUSH1 0x0 MSTORE PUSH1 0x21 PUSH1 0x4 MSTORE PUSH1 0x24 PUSH1 0x0 REVERT JUMPDEST SWAP1 POP PUSH1 0x0 PUSH1 0x1 DUP2 GT ISZERO PUSH2 0x853 JUMPI PUSH32 0x4E487B7100000000000000000000000000000000000000000000000000000000 PUSH1 0x0 MSTORE PUSH1 0x21 PUSH1 0x4 MSTORE PUSH1 0x24 PUSH1 0x0 REVERT JUMPDEST DUP2 PUSH1 0x1 DUP2 GT ISZERO PUSH2 0x88C JUMPI PUSH32 0x4E487B7100000000000000000000000000000000000000000000000000000000 PUSH1 0x0 MSTORE PUSH1 0x21 PUSH1 0x4 MSTORE PUSH1 0x24 PUSH1 0x0 REVERT JUMPDEST EQ ISZERO PUSH2 0x8A9 JUMPI DUP4 DUP8 PUSH2 0x89E SWAP2 SWAP1 PUSH2 0x27DB JUMP JUMPDEST DUP7 SWAP3 POP SWAP3 POP POP PUSH2 0x93A JUMP JUMPDEST PUSH1 0x1 DUP1 DUP2 GT ISZERO PUSH2 0x8E2 JUMPI PUSH32 0x4E487B7100000000000000000000000000000000000000000000000000000000 PUSH1 0x0 MSTORE PUSH1 0x21 PUSH1 0x4 MSTORE PUSH1 0x24 PUSH1 0x0 REVERT JUMPDEST DUP2 PUSH1 0x1 DUP2 GT ISZERO PUSH2 0x91B JUMPI PUSH32 0x4E487B7100000000000000000000000000000000000000000000000000000000 PUSH1 0x0 MSTORE PUSH1 0x21 PUSH1 0x4 MSTORE PUSH1 0x24 PUSH1 0x0 REVERT JUMPDEST EQ ISZERO PUSH2 0x938 JUMPI DUP7 DUP5 DUP8 PUSH2 0x92E SWAP2 SWAP1 PUSH2 0x27DB JUMP JUMPDEST SWAP3 POP SWAP3 POP POP PUSH2 0x93A JUMP JUMPDEST POP JUMPDEST SWAP5 POP SWAP5 SWAP3 POP POP POP JUMP JUMPDEST PUSH1 0x0 DUP1 PUSH1 0x0 PUSH1 0x9 PUSH1 0x0 DUP6 DUP2 MSTORE PUSH1 0x20 ADD SWAP1 DUP2 MSTORE PUSH1 0x20 ADD PUSH1 0x0 KECCAK256 PUSH1 0x40 MLOAD DUP1 PUSH1 0x40 ADD PUSH1 0x40 MSTORE SWAP1 DUP2 PUSH1 0x0 DUP3 ADD SLOAD DUP2 MSTORE PUSH1 0x20 ADD PUSH1 0x1 DUP3 ADD SLOAD DUP2 MSTORE POP POP SWAP1 POP DUP1 PUSH1 0x0 ADD MLOAD DUP2 PUSH1 0x20 ADD MLOAD SWAP3 POP SWAP3 POP POP SWAP2 POP SWAP2 JUMP JUMPDEST PUSH1 0x0 DUP3 DUP3 LT ISZERO PUSH2 0x9A3 JUMPI PUSH1 0x0 SWAP1 POP PUSH2 0x9B9 JUMP JUMPDEST DUP3 DUP3 GT ISZERO PUSH2 0x9B4 JUMPI PUSH1 0x1 SWAP1 POP PUSH2 0x9B9 JUMP JUMPDEST PUSH1 0x2 SWAP1 POP JUMPDEST SWAP3 SWAP2 POP POP JUMP JUMPDEST PUSH1 0x4 SLOAD DUP2 JUMP JUMPDEST PUSH1 0x0 PUSH20 0xFFFFFFFFFFFFFFFFFFFFFFFFFFFFFFFFFFFFFFFF AND PUSH1 0x8 PUSH1 0x0 SWAP1 SLOAD SWAP1 PUSH2 0x100 EXP SWAP1 DIV PUSH20 0xFFFFFFFFFFFFFFFFFFFFFFFFFFFFFFFFFFFFFFFF AND PUSH20 0xFFFFFFFFFFFFFFFFFFFFFFFFFFFFFFFFFFFFFFFF AND EQ PUSH2 0xA56 JUMPI PUSH1 0x40 MLOAD PUSH32 0x8C379A000000000000000000000000000000000000000000000000000000000 DUP2 MSTORE PUSH1 0x4 ADD PUSH2 0xA4D SWAP1 PUSH2 0x26A2 JUMP JUMPDEST PUSH1 0x40 MLOAD DUP1 SWAP2 SUB SWAP1 REVERT JUMPDEST DUP1 PUSH1 0x8 PUSH1 0x0 PUSH2 0x100 EXP DUP2 SLOAD DUP2 PUSH20 0xFFFFFFFFFFFFFFFFFFFFFFFFFFFFFFFFFFFFFFFF MUL NOT AND SWAP1 DUP4 PUSH20 0xFFFFFFFFFFFFFFFFFFFFFFFFFFFFFFFFFFFFFFFF AND MUL OR SWAP1 SSTORE POP PUSH1 0x8 PUSH1 0x0 SWAP1 SLOAD SWAP1 PUSH2 0x100 EXP SWAP1 DIV PUSH20 0xFFFFFFFFFFFFFFFFFFFFFFFFFFFFFFFFFFFFFFFF AND PUSH1 0x7 PUSH1 0x0 PUSH2 0x100 EXP DUP2 SLOAD DUP2 PUSH20 0xFFFFFFFFFFFFFFFFFFFFFFFFFFFFFFFFFFFFFFFF MUL NOT AND SWAP1 DUP4 PUSH20 0xFFFFFFFFFFFFFFFFFFFFFFFFFFFFFFFFFFFFFFFF AND MUL OR SWAP1 SSTORE POP POP JUMP JUMPDEST PUSH1 0x0 PUSH1 0x64 DUP3 DUP5 PUSH2 0xB0D SWAP2 SWAP1 PUSH2 0x2862 JUMP JUMPDEST PUSH2 0xB17 SWAP2 SWAP1 PUSH2 0x2831 JUMP JUMPDEST SWAP1 POP SWAP3 SWAP2 POP POP JUMP JUMPDEST PUSH1 0xE PUSH1 0x20 MSTORE DUP2 PUSH1 0x0 MSTORE PUSH1 0x40 PUSH1 0x0 KECCAK256 PUSH1 0x20 MSTORE DUP1 PUSH1 0x0 MSTORE PUSH1 0x40 PUSH1 0x0 KECCAK256 PUSH1 0x0 SWAP2 POP SWAP2 POP POP DUP1 PUSH1 0x0 ADD SLOAD SWAP1 DUP1 PUSH1 0x1 ADD SLOAD SWAP1 POP DUP3 JUMP JUMPDEST PUSH1 0x0 PUSH1 0xF PUSH1 0x0 DUP4 PUSH20 0xFFFFFFFFFFFFFFFFFFFFFFFFFFFFFFFFFFFFFFFF AND PUSH20 0xFFFFFFFFFFFFFFFFFFFFFFFFFFFFFFFFFFFFFFFF AND DUP2 MSTORE PUSH1 0x20 ADD SWAP1 DUP2 MSTORE PUSH1 0x20 ADD PUSH1 0x0 KECCAK256 SWAP1 POP PUSH1 0x0 DUP2 DUP1 SLOAD SWAP1 POP EQ ISZERO PUSH2 0xBA6 JUMPI POP PUSH2 0x12BF JUMP JUMPDEST PUSH1 0x0 DUP1 DUP3 DUP1 SLOAD SWAP1 POP SWAP1 POP JUMPDEST PUSH1 0x0 DUP2 GT ISZERO PUSH2 0x11D3 JUMPI PUSH1 0x0 DUP4 PUSH1 0x1 DUP4 PUSH2 0xBCA SWAP2 SWAP1 PUSH2 0x28BC JUMP JUMPDEST DUP2 SLOAD DUP2 LT PUSH2 0xC01 JUMPI PUSH32 0x4E487B7100000000000000000000000000000000000000000000000000000000 PUSH1 0x0 MSTORE PUSH1 0x32 PUSH1 0x4 MSTORE PUSH1 0x24 PUSH1 0x0 REVERT JUMPDEST SWAP1 PUSH1 0x0 MSTORE PUSH1 0x20 PUSH1 0x0 KECCAK256 ADD SLOAD SWAP1 POP PUSH1 0x0 PUSH2 0xC25 NUMBER PUSH1 0x3 SLOAD PUSH1 0x4 SLOAD PUSH1 0xC SLOAD PUSH1 0xB SLOAD PUSH2 0x168B JUMP JUMPDEST SWAP1 POP PUSH1 0x2 DUP3 PUSH2 0xC34 SWAP2 SWAP1 PUSH2 0x27DB JUMP JUMPDEST DUP2 LT ISZERO PUSH2 0xC42 JUMPI POP POP PUSH2 0x11C0 JUMP JUMPDEST PUSH1 0x0 DUP1 PUSH2 0xC4E DUP5 PUSH2 0x1F4A JUMP JUMPDEST SWAP2 POP SWAP2 POP PUSH1 0x0 DUP2 EQ DUP1 ISZERO PUSH2 0xC6D JUMPI POP PUSH1 0x3 DUP5 PUSH2 0xC6A SWAP2 SWAP1 PUSH2 0x27DB JUMP JUMPDEST DUP4 LT JUMPDEST ISZERO PUSH2 0xC7B JUMPI POP POP POP POP PUSH2 0x11C0 JUMP JUMPDEST PUSH1 0x0 PUSH2 0xC87 DUP4 DUP4 PUSH2 0x990 JUMP JUMPDEST SWAP1 POP PUSH1 0x0 DUP4 EQ DUP1 PUSH2 0xC98 JUMPI POP PUSH1 0x0 DUP3 EQ JUMPDEST ISZERO PUSH2 0xCA2 JUMPI PUSH1 0x2 SWAP1 POP JUMPDEST DUP8 PUSH1 0x1 DUP10 DUP1 SLOAD SWAP1 POP PUSH2 0xCB4 SWAP2 SWAP1 PUSH2 0x28BC JUMP JUMPDEST DUP2 SLOAD DUP2 LT PUSH2 0xCEB JUMPI PUSH32 0x4E487B7100000000000000000000000000000000000000000000000000000000 PUSH1 0x0 MSTORE PUSH1 0x32 PUSH1 0x4 MSTORE PUSH1 0x24 PUSH1 0x0 REVERT JUMPDEST SWAP1 PUSH1 0x0 MSTORE PUSH1 0x20 PUSH1 0x0 KECCAK256 ADD SLOAD DUP9 PUSH1 0x1 DUP9 PUSH2 0xD04 SWAP2 SWAP1 PUSH2 0x28BC JUMP JUMPDEST DUP2 SLOAD DUP2 LT PUSH2 0xD3B JUMPI PUSH32 0x4E487B7100000000000000000000000000000000000000000000000000000000 PUSH1 0x0 MSTORE PUSH1 0x32 PUSH1 0x4 MSTORE PUSH1 0x24 PUSH1 0x0 REVERT JUMPDEST SWAP1 PUSH1 0x0 MSTORE PUSH1 0x20 PUSH1 0x0 KECCAK256 ADD DUP2 SWAP1 SSTORE POP DUP8 DUP1 SLOAD DUP1 PUSH2 0xD80 JUMPI PUSH32 0x4E487B7100000000000000000000000000000000000000000000000000000000 PUSH1 0x0 MSTORE PUSH1 0x31 PUSH1 0x4 MSTORE PUSH1 0x24 PUSH1 0x0 REVERT JUMPDEST PUSH1 0x1 SWAP1 SUB DUP2 DUP2 SWAP1 PUSH1 0x0 MSTORE PUSH1 0x20 PUSH1 0x0 KECCAK256 ADD PUSH1 0x0 SWAP1 SSTORE SWAP1 SSTORE PUSH1 0x0 PUSH1 0xE PUSH1 0x0 DUP12 PUSH20 0xFFFFFFFFFFFFFFFFFFFFFFFFFFFFFFFFFFFFFFFF AND PUSH20 0xFFFFFFFFFFFFFFFFFFFFFFFFFFFFFFFFFFFFFFFF AND DUP2 MSTORE PUSH1 0x20 ADD SWAP1 DUP2 MSTORE PUSH1 0x20 ADD PUSH1 0x0 KECCAK256 PUSH1 0x0 DUP8 DUP2 MSTORE PUSH1 0x20 ADD SWAP1 DUP2 MSTORE PUSH1 0x20 ADD PUSH1 0x0 KECCAK256 PUSH1 0x40 MLOAD DUP1 PUSH1 0x40 ADD PUSH1 0x40 MSTORE SWAP1 DUP2 PUSH1 0x0 DUP3 ADD SLOAD DUP2 MSTORE PUSH1 0x20 ADD PUSH1 0x1 DUP3 ADD SLOAD DUP2 MSTORE POP POP SWAP1 POP PUSH1 0x0 PUSH1 0x9 PUSH1 0x0 DUP9 DUP2 MSTORE PUSH1 0x20 ADD SWAP1 DUP2 MSTORE PUSH1 0x20 ADD PUSH1 0x0 KECCAK256 PUSH1 0x40 MLOAD DUP1 PUSH1 0x40 ADD PUSH1 0x40 MSTORE SWAP1 DUP2 PUSH1 0x0 DUP3 ADD SLOAD DUP2 MSTORE PUSH1 0x20 ADD PUSH1 0x1 DUP3 ADD SLOAD DUP2 MSTORE POP POP SWAP1 POP PUSH1 0x0 DUP1 PUSH2 0xE5F DUP5 PUSH1 0x20 ADD MLOAD DUP6 PUSH1 0x0 ADD MLOAD DUP6 PUSH1 0x20 ADD MLOAD DUP7 PUSH1 0x0 ADD MLOAD DUP10 PUSH2 0x1A60 JUMP JUMPDEST SWAP2 POP SWAP2 POP DUP2 DUP12 PUSH2 0xE6F SWAP2 SWAP1 PUSH2 0x27DB JUMP JUMPDEST SWAP11 POP DUP1 PUSH1 0xD SLOAD PUSH2 0xE7F SWAP2 SWAP1 PUSH2 0x27DB JUMP JUMPDEST PUSH1 0xD DUP2 SWAP1 SSTORE POP PUSH1 0x0 PUSH2 0xEA3 DUP6 PUSH1 0x20 ADD MLOAD DUP7 PUSH1 0x0 ADD MLOAD DUP7 PUSH1 0x20 ADD MLOAD DUP8 PUSH1 0x0 ADD MLOAD PUSH2 0x1C8F JUMP JUMPDEST SWAP1 POP DUP1 PUSH1 0x7 PUSH1 0x0 SWAP1 SLOAD SWAP1 PUSH2 0x100 EXP SWAP1 DIV PUSH20 0xFFFFFFFFFFFFFFFFFFFFFFFFFFFFFFFFFFFFFFFF AND PUSH20 0xFFFFFFFFFFFFFFFFFFFFFFFFFFFFFFFFFFFFFFFF AND PUSH4 0x70A08231 ADDRESS PUSH1 0x40 MLOAD DUP3 PUSH4 0xFFFFFFFF AND PUSH1 0xE0 SHL DUP2 MSTORE PUSH1 0x4 ADD PUSH2 0xF01 SWAP2 SWAP1 PUSH2 0x265E JUMP JUMPDEST PUSH1 0x20 PUSH1 0x40 MLOAD DUP1 DUP4 SUB DUP2 DUP7 DUP1 EXTCODESIZE ISZERO DUP1 ISZERO PUSH2 0xF19 JUMPI PUSH1 0x0 DUP1 REVERT JUMPDEST POP GAS STATICCALL ISZERO DUP1 ISZERO PUSH2 0xF2D JUMPI RETURNDATASIZE PUSH1 0x0 DUP1 RETURNDATACOPY RETURNDATASIZE PUSH1 0x0 REVERT JUMPDEST POP POP POP POP PUSH1 0x40 MLOAD RETURNDATASIZE PUSH1 0x1F NOT PUSH1 0x1F DUP3 ADD AND DUP3 ADD DUP1 PUSH1 0x40 MSTORE POP DUP2 ADD SWAP1 PUSH2 0xF51 SWAP2 SWAP1 PUSH2 0x21B0 JUMP JUMPDEST LT PUSH2 0x100B JUMPI PUSH1 0x7 PUSH1 0x0 SWAP1 SLOAD SWAP1 PUSH2 0x100 EXP SWAP1 DIV PUSH20 0xFFFFFFFFFFFFFFFFFFFFFFFFFFFFFFFFFFFFFFFF AND PUSH20 0xFFFFFFFFFFFFFFFFFFFFFFFFFFFFFFFFFFFFFFFF AND PUSH4 0xA9059CBB DUP16 DUP4 PUSH1 0x40 MLOAD DUP4 PUSH4 0xFFFFFFFF AND PUSH1 0xE0 SHL DUP2 MSTORE PUSH1 0x4 ADD PUSH2 0xFB3 SWAP3 SWAP2 SWAP1 PUSH2 0x2679 JUMP JUMPDEST PUSH1 0x20 PUSH1 0x40 MLOAD DUP1 DUP4 SUB DUP2 PUSH1 0x0 DUP8 DUP1 EXTCODESIZE ISZERO DUP1 ISZERO PUSH2 0xFCD JUMPI PUSH1 0x0 DUP1 REVERT JUMPDEST POP GAS CALL ISZERO DUP1 ISZERO PUSH2 0xFE1 JUMPI RETURNDATASIZE PUSH1 0x0 DUP1 RETURNDATACOPY RETURNDATASIZE PUSH1 0x0 REVERT JUMPDEST POP POP POP POP PUSH1 0x40 MLOAD RETURNDATASIZE PUSH1 0x1F NOT PUSH1 0x1F DUP3 ADD AND DUP3 ADD DUP1 PUSH1 0x40 MSTORE POP DUP2 ADD SWAP1 PUSH2 0x1005 SWAP2 SWAP1 PUSH2 0x215E JUMP JUMPDEST POP PUSH2 0x1166 JUMP JUMPDEST PUSH1 0x7 PUSH1 0x0 SWAP1 SLOAD SWAP1 PUSH2 0x100 EXP SWAP1 DIV PUSH20 0xFFFFFFFFFFFFFFFFFFFFFFFFFFFFFFFFFFFFFFFF AND PUSH20 0xFFFFFFFFFFFFFFFFFFFFFFFFFFFFFFFFFFFFFFFF AND PUSH4 0xA9059CBB DUP16 PUSH1 0x7 PUSH1 0x0 SWAP1 SLOAD SWAP1 PUSH2 0x100 EXP SWAP1 DIV PUSH20 0xFFFFFFFFFFFFFFFFFFFFFFFFFFFFFFFFFFFFFFFF AND PUSH20 0xFFFFFFFFFFFFFFFFFFFFFFFFFFFFFFFFFFFFFFFF AND PUSH4 0x70A08231 ADDRESS PUSH1 0x40 MLOAD DUP3 PUSH4 0xFFFFFFFF AND PUSH1 0xE0 SHL DUP2 MSTORE PUSH1 0x4 ADD PUSH2 0x10A5 SWAP2 SWAP1 PUSH2 0x265E JUMP JUMPDEST PUSH1 0x20 PUSH1 0x40 MLOAD DUP1 DUP4 SUB DUP2 DUP7 DUP1 EXTCODESIZE ISZERO DUP1 ISZERO PUSH2 0x10BD JUMPI PUSH1 0x0 DUP1 REVERT JUMPDEST POP GAS STATICCALL ISZERO DUP1 ISZERO PUSH2 0x10D1 JUMPI RETURNDATASIZE PUSH1 0x0 DUP1 RETURNDATACOPY RETURNDATASIZE PUSH1 0x0 REVERT JUMPDEST POP POP POP POP PUSH1 0x40 MLOAD RETURNDATASIZE PUSH1 0x1F NOT PUSH1 0x1F DUP3 ADD AND DUP3 ADD DUP1 PUSH1 0x40 MSTORE POP DUP2 ADD SWAP1 PUSH2 0x10F5 SWAP2 SWAP1 PUSH2 0x21B0 JUMP JUMPDEST PUSH1 0x40 MLOAD DUP4 PUSH4 0xFFFFFFFF AND PUSH1 0xE0 SHL DUP2 MSTORE PUSH1 0x4 ADD PUSH2 0x1112 SWAP3 SWAP2 SWAP1 PUSH2 0x2679 JUMP JUMPDEST PUSH1 0x20 PUSH1 0x40 MLOAD DUP1 DUP4 SUB DUP2 PUSH1 0x0 DUP8 DUP1 EXTCODESIZE ISZERO DUP1 ISZERO PUSH2 0x112C JUMPI PUSH1 0x0 DUP1 REVERT JUMPDEST POP GAS CALL ISZERO DUP1 ISZERO PUSH2 0x1140 JUMPI RETURNDATASIZE PUSH1 0x0 DUP1 RETURNDATACOPY RETURNDATASIZE PUSH1 0x0 REVERT JUMPDEST POP POP POP POP PUSH1 0x40 MLOAD RETURNDATASIZE PUSH1 0x1F NOT PUSH1 0x1F DUP3 ADD AND DUP3 ADD DUP1 PUSH1 0x40 MSTORE POP DUP2 ADD SWAP1 PUSH2 0x1164 SWAP2 SWAP1 PUSH2 0x215E JUMP JUMPDEST POP JUMPDEST DUP14 PUSH20 0xFFFFFFFFFFFFFFFFFFFFFFFFFFFFFFFFFFFFFFFF AND DUP11 PUSH32 0x1A82FD78981B9465AF4B8BD67F27607DF5D873B7A978CC8CEE1A65B85C2990FC DUP6 PUSH1 0x40 MLOAD PUSH2 0x11AD SWAP2 SWAP1 PUSH2 0x2742 JUMP JUMPDEST PUSH1 0x40 MLOAD DUP1 SWAP2 SUB SWAP1 LOG3 POP POP POP POP POP POP POP POP POP POP JUMPDEST DUP1 DUP1 PUSH2 0x11CB SWAP1 PUSH2 0x2965 JUMP JUMPDEST SWAP2 POP POP PUSH2 0xBB1 JUMP JUMPDEST POP PUSH1 0x0 DUP2 LT PUSH2 0x1224 JUMPI DUP3 PUSH20 0xFFFFFFFFFFFFFFFFFFFFFFFFFFFFFFFFFFFFFFFF AND PUSH2 0x8FC DUP3 SWAP1 DUP2 ISZERO MUL SWAP1 PUSH1 0x40 MLOAD PUSH1 0x0 PUSH1 0x40 MLOAD DUP1 DUP4 SUB DUP2 DUP6 DUP9 DUP9 CALL SWAP4 POP POP POP POP ISZERO DUP1 ISZERO PUSH2 0x1222 JUMPI RETURNDATASIZE PUSH1 0x0 DUP1 RETURNDATACOPY RETURNDATASIZE PUSH1 0x0 REVERT JUMPDEST POP JUMPDEST PUSH1 0x0 PUSH1 0xD SLOAD GT ISZERO PUSH2 0x12BC JUMPI PUSH1 0x5 PUSH1 0x0 SWAP1 SLOAD SWAP1 PUSH2 0x100 EXP SWAP1 DIV PUSH20 0xFFFFFFFFFFFFFFFFFFFFFFFFFFFFFFFFFFFFFFFF AND PUSH20 0xFFFFFFFFFFFFFFFFFFFFFFFFFFFFFFFFFFFFFFFF AND PUSH3 0x5C33E1 PUSH1 0xD SLOAD PUSH1 0x40 MLOAD DUP3 PUSH4 0xFFFFFFFF AND PUSH1 0xE0 SHL DUP2 MSTORE PUSH1 0x4 ADD PUSH1 0x0 PUSH1 0x40 MLOAD DUP1 DUP4 SUB DUP2 DUP6 DUP9 DUP1 EXTCODESIZE ISZERO DUP1 ISZERO PUSH2 0x129A JUMPI PUSH1 0x0 DUP1 REVERT JUMPDEST POP GAS CALL ISZERO DUP1 ISZERO PUSH2 0x12AE JUMPI RETURNDATASIZE PUSH1 0x0 DUP1 RETURNDATACOPY RETURNDATASIZE PUSH1 0x0 REVERT JUMPDEST POP POP POP POP POP PUSH1 0x0 PUSH1 0xD DUP2 SWAP1 SSTORE POP JUMPDEST POP POP JUMPDEST POP JUMP JUMPDEST PUSH1 0x0 CALLVALUE GT PUSH2 0x1305 JUMPI PUSH1 0x40 MLOAD PUSH32 0x8C379A000000000000000000000000000000000000000000000000000000000 DUP2 MSTORE PUSH1 0x4 ADD PUSH2 0x12FC SWAP1 PUSH2 0x26C2 JUMP JUMPDEST PUSH1 0x40 MLOAD DUP1 SWAP2 SUB SWAP1 REVERT JUMPDEST PUSH2 0x130D PUSH2 0x16E3 JUMP JUMPDEST PUSH2 0x1316 CALLER PUSH2 0xB50 JUMP JUMPDEST PUSH1 0x0 PUSH2 0x1324 CALLVALUE PUSH1 0x2 SLOAD PUSH2 0xAFD JUMP JUMPDEST SWAP1 POP DUP1 PUSH1 0xD SLOAD PUSH2 0x1334 SWAP2 SWAP1 PUSH2 0x27DB JUMP JUMPDEST PUSH1 0xD DUP2 SWAP1 SSTORE POP PUSH1 0x0 DUP2 CALLVALUE PUSH2 0x1348 SWAP2 SWAP1 PUSH2 0x28BC JUMP JUMPDEST SWAP1 POP PUSH1 0x0 PUSH2 0x1361 NUMBER PUSH1 0x3 SLOAD PUSH1 0x4 SLOAD PUSH1 0xC SLOAD PUSH1 0xB SLOAD PUSH2 0x168B JUMP JUMPDEST SWAP1 POP PUSH1 0x10 PUSH1 0x0 CALLER PUSH20 0xFFFFFFFFFFFFFFFFFFFFFFFFFFFFFFFFFFFFFFFF AND PUSH20 0xFFFFFFFFFFFFFFFFFFFFFFFFFFFFFFFFFFFFFFFF AND DUP2 MSTORE PUSH1 0x20 ADD SWAP1 DUP2 MSTORE PUSH1 0x20 ADD PUSH1 0x0 KECCAK256 PUSH1 0x0 DUP3 DUP2 MSTORE PUSH1 0x20 ADD SWAP1 DUP2 MSTORE PUSH1 0x20 ADD PUSH1 0x0 KECCAK256 PUSH1 0x0 SWAP1 SLOAD SWAP1 PUSH2 0x100 EXP SWAP1 DIV PUSH1 0xFF AND PUSH2 0x1495 JUMPI PUSH1 0xF PUSH1 0x0 CALLER PUSH20 0xFFFFFFFFFFFFFFFFFFFFFFFFFFFFFFFFFFFFFFFF AND PUSH20 0xFFFFFFFFFFFFFFFFFFFFFFFFFFFFFFFFFFFFFFFF AND DUP2 MSTORE PUSH1 0x20 ADD SWAP1 DUP2 MSTORE PUSH1 0x20 ADD PUSH1 0x0 KECCAK256 DUP2 SWAP1 DUP1 PUSH1 0x1 DUP2 SLOAD ADD DUP1 DUP3 SSTORE DUP1 SWAP2 POP POP PUSH1 0x1 SWAP1 SUB SWAP1 PUSH1 0x0 MSTORE PUSH1 0x20 PUSH1 0x0 KECCAK256 ADD PUSH1 0x0 SWAP1 SWAP2 SWAP1 SWAP2 SWAP1 SWAP2 POP SSTORE PUSH1 0x1 PUSH1 0x10 PUSH1 0x0 CALLER PUSH20 0xFFFFFFFFFFFFFFFFFFFFFFFFFFFFFFFFFFFFFFFF AND PUSH20 0xFFFFFFFFFFFFFFFFFFFFFFFFFFFFFFFFFFFFFFFF AND DUP2 MSTORE PUSH1 0x20 ADD SWAP1 DUP2 MSTORE PUSH1 0x20 ADD PUSH1 0x0 KECCAK256 PUSH1 0x0 DUP4 DUP2 MSTORE PUSH1 0x20 ADD SWAP1 DUP2 MSTORE PUSH1 0x20 ADD PUSH1 0x0 KECCAK256 PUSH1 0x0 PUSH2 0x100 EXP DUP2 SLOAD DUP2 PUSH1 0xFF MUL NOT AND SWAP1 DUP4 ISZERO ISZERO MUL OR SWAP1 SSTORE POP JUMPDEST PUSH1 0x0 PUSH1 0x9 PUSH1 0x0 DUP4 DUP2 MSTORE PUSH1 0x20 ADD SWAP1 DUP2 MSTORE PUSH1 0x20 ADD PUSH1 0x0 KECCAK256 PUSH1 0x40 MLOAD DUP1 PUSH1 0x40 ADD PUSH1 0x40 MSTORE SWAP1 DUP2 PUSH1 0x0 DUP3 ADD SLOAD DUP2 MSTORE PUSH1 0x20 ADD PUSH1 0x1 DUP3 ADD SLOAD DUP2 MSTORE POP POP SWAP1 POP PUSH1 0x0 DUP1 PUSH2 0x14E2 DUP4 PUSH1 0x0 ADD MLOAD DUP5 PUSH1 0x20 ADD MLOAD DUP10 DUP9 PUSH2 0x7D6 JUMP JUMPDEST SWAP2 POP SWAP2 POP PUSH1 0x40 MLOAD DUP1 PUSH1 0x40 ADD PUSH1 0x40 MSTORE DUP1 DUP4 DUP2 MSTORE PUSH1 0x20 ADD DUP3 DUP2 MSTORE POP PUSH1 0x9 PUSH1 0x0 DUP7 DUP2 MSTORE PUSH1 0x20 ADD SWAP1 DUP2 MSTORE PUSH1 0x20 ADD PUSH1 0x0 KECCAK256 PUSH1 0x0 DUP3 ADD MLOAD DUP2 PUSH1 0x0 ADD SSTORE PUSH1 0x20 DUP3 ADD MLOAD DUP2 PUSH1 0x1 ADD SSTORE SWAP1 POP POP PUSH1 0x0 PUSH1 0xE PUSH1 0x0 CALLER PUSH20 0xFFFFFFFFFFFFFFFFFFFFFFFFFFFFFFFFFFFFFFFF AND PUSH20 0xFFFFFFFFFFFFFFFFFFFFFFFFFFFFFFFFFFFFFFFF AND DUP2 MSTORE PUSH1 0x20 ADD SWAP1 DUP2 MSTORE PUSH1 0x20 ADD PUSH1 0x0 KECCAK256 PUSH1 0x0 DUP7 DUP2 MSTORE PUSH1 0x20 ADD SWAP1 DUP2 MSTORE PUSH1 0x20 ADD PUSH1 0x0 KECCAK256 PUSH1 0x40 MLOAD DUP1 PUSH1 0x40 ADD PUSH1 0x40 MSTORE SWAP1 DUP2 PUSH1 0x0 DUP3 ADD SLOAD DUP2 MSTORE PUSH1 0x20 ADD PUSH1 0x1 DUP3 ADD SLOAD DUP2 MSTORE POP POP SWAP1 POP PUSH2 0x15AC DUP2 PUSH1 0x0 ADD MLOAD DUP3 PUSH1 0x20 ADD MLOAD DUP11 DUP10 PUSH2 0x7D6 JUMP JUMPDEST DUP1 SWAP4 POP DUP2 SWAP5 POP POP POP PUSH1 0x40 MLOAD DUP1 PUSH1 0x40 ADD PUSH1 0x40 MSTORE DUP1 DUP5 DUP2 MSTORE PUSH1 0x20 ADD DUP4 DUP2 MSTORE POP PUSH1 0xE PUSH1 0x0 CALLER PUSH20 0xFFFFFFFFFFFFFFFFFFFFFFFFFFFFFFFFFFFFFFFF AND PUSH20 0xFFFFFFFFFFFFFFFFFFFFFFFFFFFFFFFFFFFFFFFF AND DUP2 MSTORE PUSH1 0x20 ADD SWAP1 DUP2 MSTORE PUSH1 0x20 ADD PUSH1 0x0 KECCAK256 PUSH1 0x0 DUP8 DUP2 MSTORE PUSH1 0x20 ADD SWAP1 DUP2 MSTORE PUSH1 0x20 ADD PUSH1 0x0 KECCAK256 PUSH1 0x0 DUP3 ADD MLOAD DUP2 PUSH1 0x0 ADD SSTORE PUSH1 0x20 DUP3 ADD MLOAD DUP2 PUSH1 0x1 ADD SSTORE SWAP1 POP POP DUP5 CALLER PUSH20 0xFFFFFFFFFFFFFFFFFFFFFFFFFFFFFFFFFFFFFFFF AND PUSH32 0x560E32E4934B84F33B228F40DDC5B9FA690426EE087005A7D979D7921D24A02B DUP9 DUP12 PUSH1 0x40 MLOAD PUSH2 0x1679 SWAP3 SWAP2 SWAP1 PUSH2 0x2786 JUMP JUMPDEST PUSH1 0x40 MLOAD DUP1 SWAP2 SUB SWAP1 LOG3 POP POP POP POP POP POP POP POP JUMP JUMPDEST PUSH1 0x0 DUP4 DUP7 LT ISZERO PUSH2 0x169D JUMPI DUP2 SWAP1 POP PUSH2 0x16CE JUMP JUMPDEST PUSH1 0x1 DUP4 DUP7 DUP7 DUP10 PUSH2 0x16AD SWAP2 SWAP1 PUSH2 0x28BC JUMP JUMPDEST PUSH2 0x16B7 SWAP2 SWAP1 PUSH2 0x2831 JUMP JUMPDEST PUSH2 0x16C1 SWAP2 SWAP1 PUSH2 0x27DB JUMP JUMPDEST PUSH2 0x16CB SWAP2 SWAP1 PUSH2 0x27DB JUMP JUMPDEST SWAP1 POP JUMPDEST SWAP6 SWAP5 POP POP POP POP POP JUMP JUMPDEST PUSH1 0xD SLOAD DUP2 JUMP JUMPDEST PUSH1 0x3 SLOAD DUP2 JUMP JUMPDEST PUSH1 0x0 PUSH2 0x16FA NUMBER PUSH1 0x3 SLOAD PUSH1 0x4 SLOAD PUSH1 0xC SLOAD PUSH1 0xB SLOAD PUSH2 0x168B JUMP JUMPDEST SWAP1 POP PUSH1 0x0 PUSH1 0xA PUSH1 0x0 DUP4 DUP2 MSTORE PUSH1 0x20 ADD SWAP1 DUP2 MSTORE PUSH1 0x20 ADD PUSH1 0x0 KECCAK256 SLOAD EQ ISZERO PUSH2 0x1783 JUMPI PUSH2 0x1720 PUSH2 0x1F96 JUMP JUMPDEST PUSH1 0xA PUSH1 0x0 DUP4 DUP2 MSTORE PUSH1 0x20 ADD SWAP1 DUP2 MSTORE PUSH1 0x20 ADD PUSH1 0x0 KECCAK256 DUP2 SWAP1 SSTORE POP DUP1 PUSH32 0x7A3325B9D11DDC18EDD3DFF130141B6CE951061520C6B933A604BF701F3D8052 PUSH1 0xA PUSH1 0x0 DUP5 DUP2 MSTORE PUSH1 0x20 ADD SWAP1 DUP2 MSTORE PUSH1 0x20 ADD PUSH1 0x0 KECCAK256 SLOAD PUSH1 0x40 MLOAD PUSH2 0x177A SWAP2 SWAP1 PUSH2 0x2742 JUMP JUMPDEST PUSH1 0x40 MLOAD DUP1 SWAP2 SUB SWAP1 LOG2 JUMPDEST POP JUMP JUMPDEST PUSH9 0x240CBA98ADD2C40000 DUP2 JUMP JUMPDEST PUSH1 0xF PUSH1 0x20 MSTORE DUP2 PUSH1 0x0 MSTORE PUSH1 0x40 PUSH1 0x0 KECCAK256 DUP2 DUP2 SLOAD DUP2 LT PUSH2 0x17AF JUMPI PUSH1 0x0 DUP1 REVERT JUMPDEST SWAP1 PUSH1 0x0 MSTORE PUSH1 0x20 PUSH1 0x0 KECCAK256 ADD PUSH1 0x0 SWAP2 POP SWAP2 POP POP SLOAD DUP2 JUMP JUMPDEST PUSH1 0xC SLOAD DUP2 JUMP JUMPDEST PUSH1 0x0 DUP4 DUP3 PUSH1 0x1 DUP8 PUSH2 0x17DB SWAP2 SWAP1 PUSH2 0x28BC JUMP JUMPDEST PUSH2 0x17E5 SWAP2 SWAP1 PUSH2 0x28BC JUMP JUMPDEST PUSH2 0x17EF SWAP2 SWAP1 PUSH2 0x2862 JUMP JUMPDEST DUP4 PUSH2 0x17FA SWAP2 SWAP1 PUSH2 0x27DB JUMP JUMPDEST SWAP1 POP SWAP5 SWAP4 POP POP POP POP JUMP JUMPDEST PUSH1 0x0 PUSH1 0xF PUSH1 0x0 DUP4 PUSH20 0xFFFFFFFFFFFFFFFFFFFFFFFFFFFFFFFFFFFFFFFF AND PUSH20 0xFFFFFFFFFFFFFFFFFFFFFFFFFFFFFFFFFFFFFFFF AND DUP2 MSTORE PUSH1 0x20 ADD SWAP1 DUP2 MSTORE PUSH1 0x20 ADD PUSH1 0x0 KECCAK256 DUP1 SLOAD SWAP1 POP SWAP1 POP SWAP2 SWAP1 POP JUMP JUMPDEST PUSH1 0x0 DUP1 PUSH1 0x0 PUSH1 0xE PUSH1 0x0 DUP6 PUSH20 0xFFFFFFFFFFFFFFFFFFFFFFFFFFFFFFFFFFFFFFFF AND PUSH20 0xFFFFFFFFFFFFFFFFFFFFFFFFFFFFFFFFFFFFFFFF AND DUP2 MSTORE PUSH1 0x20 ADD SWAP1 DUP2 MSTORE PUSH1 0x20 ADD PUSH1 0x0 KECCAK256 PUSH1 0x0 DUP7 DUP2 MSTORE PUSH1 0x20 ADD SWAP1 DUP2 MSTORE PUSH1 0x20 ADD PUSH1 0x0 KECCAK256 PUSH1 0x40 MLOAD DUP1 PUSH1 0x40 ADD PUSH1 0x40 MSTORE SWAP1 DUP2 PUSH1 0x0 DUP3 ADD SLOAD DUP2 MSTORE PUSH1 0x20 ADD PUSH1 0x1 DUP3 ADD SLOAD DUP2 MSTORE POP POP SWAP1 POP DUP1 PUSH1 0x0 ADD MLOAD DUP2 PUSH1 0x20 ADD MLOAD SWAP3 POP SWAP3 POP POP SWAP3 POP SWAP3 SWAP1 POP JUMP JUMPDEST PUSH1 0x1 PUSH1 0x0 SWAP1 SLOAD SWAP1 PUSH2 0x100 EXP SWAP1 DIV PUSH20 0xFFFFFFFFFFFFFFFFFFFFFFFFFFFFFFFFFFFFFFFF AND PUSH20 0xFFFFFFFFFFFFFFFFFFFFFFFFFFFFFFFFFFFFFFFF AND CALLER PUSH20 0xFFFFFFFFFFFFFFFFFFFFFFFFFFFFFFFFFFFFFFFF AND EQ PUSH2 0x196C JUMPI PUSH1 0x40 MLOAD PUSH32 0x8C379A000000000000000000000000000000000000000000000000000000000 DUP2 MSTORE PUSH1 0x4 ADD PUSH2 0x1963 SWAP1 PUSH2 0x2702 JUMP JUMPDEST PUSH1 0x40 MLOAD DUP1 SWAP2 SUB SWAP1 REVERT JUMPDEST DUP1 PUSH1 0x1 PUSH1 0x0 PUSH2 0x100 EXP DUP2 SLOAD DUP2 PUSH20 0xFFFFFFFFFFFFFFFFFFFFFFFFFFFFFFFFFFFFFFFF MUL NOT AND SWAP1 DUP4 PUSH20 0xFFFFFFFFFFFFFFFFFFFFFFFFFFFFFFFFFFFFFFFF AND MUL OR SWAP1 SSTORE POP POP JUMP JUMPDEST PUSH1 0x9 PUSH1 0x20 MSTORE DUP1 PUSH1 0x0 MSTORE PUSH1 0x40 PUSH1 0x0 KECCAK256 PUSH1 0x0 SWAP2 POP SWAP1 POP DUP1 PUSH1 0x0 ADD SLOAD SWAP1 DUP1 PUSH1 0x1 ADD SLOAD SWAP1 POP DUP3 JUMP JUMPDEST PUSH1 0x0 PUSH1 0xF PUSH1 0x0 DUP5 PUSH20 0xFFFFFFFFFFFFFFFFFFFFFFFFFFFFFFFFFFFFFFFF AND PUSH20 0xFFFFFFFFFFFFFFFFFFFFFFFFFFFFFFFFFFFFFFFF AND DUP2 MSTORE PUSH1 0x20 ADD SWAP1 DUP2 MSTORE PUSH1 0x20 ADD PUSH1 0x0 KECCAK256 DUP3 DUP2 SLOAD DUP2 LT PUSH2 0x1A4D JUMPI PUSH32 0x4E487B7100000000000000000000000000000000000000000000000000000000 PUSH1 0x0 MSTORE PUSH1 0x32 PUSH1 0x4 MSTORE PUSH1 0x24 PUSH1 0x0 REVERT JUMPDEST SWAP1 PUSH1 0x0 MSTORE PUSH1 0x20 PUSH1 0x0 KECCAK256 ADD SLOAD SWAP1 POP SWAP3 SWAP2 POP POP JUMP JUMPDEST PUSH1 0x0 DUP1 PUSH1 0x0 DUP4 PUSH1 0xFF AND PUSH1 0x2 DUP2 GT ISZERO PUSH2 0x1AA1 JUMPI PUSH32 0x4E487B7100000000000000000000000000000000000000000000000000000000 PUSH1 0x0 MSTORE PUSH1 0x21 PUSH1 0x4 MSTORE PUSH1 0x24 PUSH1 0x0 REVERT JUMPDEST SWAP1 POP PUSH1 0x0 DUP6 DUP8 PUSH2 0x1AB1 SWAP2 SWAP1 PUSH2 0x27DB JUMP JUMPDEST SWAP1 POP PUSH1 0x1 PUSH1 0x2 DUP2 GT ISZERO PUSH2 0x1AED JUMPI PUSH32 0x4E487B7100000000000000000000000000000000000000000000000000000000 PUSH1 0x0 MSTORE PUSH1 0x21 PUSH1 0x4 MSTORE PUSH1 0x24 PUSH1 0x0 REVERT JUMPDEST DUP3 PUSH1 0x2 DUP2 GT ISZERO PUSH2 0x1B26 JUMPI PUSH32 0x4E487B7100000000000000000000000000000000000000000000000000000000 PUSH1 0x0 MSTORE PUSH1 0x21 PUSH1 0x4 MSTORE PUSH1 0x24 PUSH1 0x0 REVERT JUMPDEST EQ DUP1 ISZERO PUSH2 0x1B34 JUMPI POP PUSH1 0x0 DUP8 EQ ISZERO JUMPDEST ISZERO PUSH2 0x1B4B JUMPI PUSH2 0x1B44 DUP2 DUP11 DUP10 PUSH2 0x2044 JUMP JUMPDEST SWAP4 POP PUSH2 0x1C83 JUMP JUMPDEST PUSH1 0x0 PUSH1 0x2 DUP2 GT ISZERO PUSH2 0x1B85 JUMPI PUSH32 0x4E487B7100000000000000000000000000000000000000000000000000000000 PUSH1 0x0 MSTORE PUSH1 0x21 PUSH1 0x4 MSTORE PUSH1 0x24 PUSH1 0x0 REVERT JUMPDEST DUP3 PUSH1 0x2 DUP2 GT ISZERO PUSH2 0x1BBE JUMPI PUSH32 0x4E487B7100000000000000000000000000000000000000000000000000000000 PUSH1 0x0 MSTORE PUSH1 0x21 PUSH1 0x4 MSTORE PUSH1 0x24 PUSH1 0x0 REVERT JUMPDEST EQ DUP1 ISZERO PUSH2 0x1BCC JUMPI POP PUSH1 0x0 DUP7 EQ ISZERO JUMPDEST ISZERO PUSH2 0x1BE3 JUMPI PUSH2 0x1BDC DUP2 DUP10 DUP9 PUSH2 0x2044 JUMP JUMPDEST SWAP4 POP PUSH2 0x1C82 JUMP JUMPDEST PUSH1 0x2 DUP1 DUP2 GT ISZERO PUSH2 0x1C1C JUMPI PUSH32 0x4E487B7100000000000000000000000000000000000000000000000000000000 PUSH1 0x0 MSTORE PUSH1 0x21 PUSH1 0x4 MSTORE PUSH1 0x24 PUSH1 0x0 REVERT JUMPDEST DUP3 PUSH1 0x2 DUP2 GT ISZERO PUSH2 0x1C55 JUMPI PUSH32 0x4E487B7100000000000000000000000000000000000000000000000000000000 PUSH1 0x0 MSTORE PUSH1 0x21 PUSH1 0x4 MSTORE PUSH1 0x24 PUSH1 0x0 REVERT JUMPDEST EQ ISZERO PUSH2 0x1C6E JUMPI DUP8 DUP10 PUSH2 0x1C67 SWAP2 SWAP1 PUSH2 0x27DB JUMP JUMPDEST SWAP4 POP PUSH2 0x1C81 JUMP JUMPDEST PUSH1 0x0 SWAP4 POP DUP8 DUP10 PUSH2 0x1C7E SWAP2 SWAP1 PUSH2 0x27DB JUMP JUMPDEST SWAP3 POP JUMPDEST JUMPDEST JUMPDEST POP POP SWAP6 POP SWAP6 SWAP4 POP POP POP POP JUMP JUMPDEST PUSH1 0x0 PUSH2 0x1CBB PUSH9 0x240CBA98ADD2C40000 DUP6 DUP8 PUSH2 0x1CAA SWAP2 SWAP1 PUSH2 0x27DB JUMP JUMPDEST DUP5 DUP7 PUSH2 0x1CB6 SWAP2 SWAP1 PUSH2 0x27DB JUMP JUMPDEST PUSH2 0x2044 JUMP JUMPDEST SWAP1 POP SWAP5 SWAP4 POP POP POP POP JUMP JUMPDEST PUSH1 0x2 SLOAD DUP2 JUMP JUMPDEST PUSH1 0xB SLOAD DUP2 JUMP JUMPDEST PUSH1 0xA PUSH1 0x20 MSTORE DUP1 PUSH1 0x0 MSTORE PUSH1 0x40 PUSH1 0x0 KECCAK256 PUSH1 0x0 SWAP2 POP SWAP1 POP SLOAD DUP2 JUMP JUMPDEST PUSH1 0x0 PUSH20 0xFFFFFFFFFFFFFFFFFFFFFFFFFFFFFFFFFFFFFFFF AND PUSH1 0x6 PUSH1 0x0 SWAP1 SLOAD SWAP1 PUSH2 0x100 EXP SWAP1 DIV PUSH20 0xFFFFFFFFFFFFFFFFFFFFFFFFFFFFFFFFFFFFFFFF AND PUSH20 0xFFFFFFFFFFFFFFFFFFFFFFFFFFFFFFFFFFFFFFFF AND EQ PUSH2 0x1D7A JUMPI PUSH1 0x40 MLOAD PUSH32 0x8C379A000000000000000000000000000000000000000000000000000000000 DUP2 MSTORE PUSH1 0x4 ADD PUSH2 0x1D71 SWAP1 PUSH2 0x26E2 JUMP JUMPDEST PUSH1 0x40 MLOAD DUP1 SWAP2 SUB SWAP1 REVERT JUMPDEST DUP1 PUSH1 0x6 PUSH1 0x0 PUSH2 0x100 EXP DUP2 SLOAD DUP2 PUSH20 0xFFFFFFFFFFFFFFFFFFFFFFFFFFFFFFFFFFFFFFFF MUL NOT AND SWAP1 DUP4 PUSH20 0xFFFFFFFFFFFFFFFFFFFFFFFFFFFFFFFFFFFFFFFF AND MUL OR SWAP1 SSTORE POP PUSH1 0x6 PUSH1 0x0 SWAP1 SLOAD SWAP1 PUSH2 0x100 EXP SWAP1 DIV PUSH20 0xFFFFFFFFFFFFFFFFFFFFFFFFFFFFFFFFFFFFFFFF AND PUSH1 0x5 PUSH1 0x0 PUSH2 0x100 EXP DUP2 SLOAD DUP2 PUSH20 0xFFFFFFFFFFFFFFFFFFFFFFFFFFFFFFFFFFFFFFFF MUL NOT AND SWAP1 DUP4 PUSH20 0xFFFFFFFFFFFFFFFFFFFFFFFFFFFFFFFFFFFFFFFF AND MUL OR SWAP1 SSTORE POP POP JUMP JUMPDEST PUSH1 0x1 PUSH1 0x0 SWAP1 SLOAD SWAP1 PUSH2 0x100 EXP SWAP1 DIV PUSH20 0xFFFFFFFFFFFFFFFFFFFFFFFFFFFFFFFFFFFFFFFF AND PUSH20 0xFFFFFFFFFFFFFFFFFFFFFFFFFFFFFFFFFFFFFFFF AND CALLER PUSH20 0xFFFFFFFFFFFFFFFFFFFFFFFFFFFFFFFFFFFFFFFF AND EQ PUSH2 0x1EB1 JUMPI PUSH1 0x40 MLOAD PUSH32 0x8C379A000000000000000000000000000000000000000000000000000000000 DUP2 MSTORE PUSH1 0x4 ADD PUSH2 0x1EA8 SWAP1 PUSH2 0x2702 JUMP JUMPDEST PUSH1 0x40 MLOAD DUP1 SWAP2 SUB SWAP1 REVERT JUMPDEST PUSH1 0x0 DUP2 GT PUSH2 0x1EF4 JUMPI PUSH1 0x40 MLOAD PUSH32 0x8C379A000000000000000000000000000000000000000000000000000000000 DUP2 MSTORE PUSH1 0x4 ADD PUSH2 0x1EEB SWAP1 PUSH2 0x2722 JUMP JUMPDEST PUSH1 0x40 MLOAD DUP1 SWAP2 SUB SWAP1 REVERT JUMPDEST PUSH1 0x0 PUSH2 0x1F0B NUMBER PUSH1 0x3 SLOAD PUSH1 0x4 SLOAD PUSH1 0xC SLOAD PUSH1 0xB SLOAD PUSH2 0x168B JUMP JUMPDEST SWAP1 POP PUSH2 0x1F2B PUSH1 0x1 DUP3 PUSH2 0x1F1D SWAP2 SWAP1 PUSH2 0x27DB JUMP JUMPDEST PUSH1 0x3 SLOAD PUSH1 0x4 SLOAD PUSH1 0xC SLOAD PUSH2 0x17CA JUMP JUMPDEST PUSH1 0x4 DUP2 SWAP1 SSTORE POP DUP1 PUSH1 0xC DUP2 SWAP1 SSTORE POP DUP1 PUSH1 0xB DUP2 SWAP1 SSTORE POP DUP2 PUSH1 0x3 DUP2 SWAP1 SSTORE POP POP POP JUMP JUMPDEST PUSH1 0x0 DUP1 PUSH1 0xA PUSH1 0x0 PUSH1 0x1 DUP6 PUSH2 0x1F5E SWAP2 SWAP1 PUSH2 0x27DB JUMP JUMPDEST DUP2 MSTORE PUSH1 0x20 ADD SWAP1 DUP2 MSTORE PUSH1 0x20 ADD PUSH1 0x0 KECCAK256 SLOAD PUSH1 0xA PUSH1 0x0 PUSH1 0x2 DUP7 PUSH2 0x1F7E SWAP2 SWAP1 PUSH2 0x27DB JUMP JUMPDEST DUP2 MSTORE PUSH1 0x20 ADD SWAP1 DUP2 MSTORE PUSH1 0x20 ADD PUSH1 0x0 KECCAK256 SLOAD SWAP2 POP SWAP2 POP SWAP2 POP SWAP2 JUMP JUMPDEST PUSH1 0x0 DUP1 PUSH1 0x0 DUP1 SLOAD SWAP1 PUSH2 0x100 EXP SWAP1 DIV PUSH20 0xFFFFFFFFFFFFFFFFFFFFFFFFFFFFFFFFFFFFFFFF AND PUSH20 0xFFFFFFFFFFFFFFFFFFFFFFFFFFFFFFFFFFFFFFFF AND PUSH4 0xFEAF968C PUSH1 0x40 MLOAD DUP2 PUSH4 0xFFFFFFFF AND PUSH1 0xE0 SHL DUP2 MSTORE PUSH1 0x4 ADD PUSH1 0xA0 PUSH1 0x40 MLOAD DUP1 DUP4 SUB DUP2 DUP7 DUP1 EXTCODESIZE ISZERO DUP1 ISZERO PUSH2 0x1FFF JUMPI PUSH1 0x0 DUP1 REVERT JUMPDEST POP GAS STATICCALL ISZERO DUP1 ISZERO PUSH2 0x2013 JUMPI RETURNDATASIZE PUSH1 0x0 DUP1 RETURNDATACOPY RETURNDATASIZE PUSH1 0x0 REVERT JUMPDEST POP POP POP POP PUSH1 0x40 MLOAD RETURNDATASIZE PUSH1 0x1F NOT PUSH1 0x1F DUP3 ADD AND DUP3 ADD DUP1 PUSH1 0x40 MSTORE POP DUP2 ADD SWAP1 PUSH2 0x2037 SWAP2 SWAP1 PUSH2 0x242E JUMP JUMPDEST POP POP POP SWAP2 POP POP DUP1 SWAP2 POP POP SWAP1 JUMP JUMPDEST PUSH1 0x0 DUP2 DUP5 DUP5 PUSH2 0x2053 SWAP2 SWAP1 PUSH2 0x2862 JUMP JUMPDEST PUSH2 0x205D SWAP2 SWAP1 PUSH2 0x2831 JUMP JUMPDEST SWAP1 POP SWAP4 SWAP3 POP POP POP JUMP JUMPDEST PUSH1 0x0 DUP2 CALLDATALOAD SWAP1 POP PUSH2 0x2075 DUP2 PUSH2 0x29ED JUMP JUMPDEST SWAP3 SWAP2 POP POP JUMP JUMPDEST PUSH1 0x0 DUP2 MLOAD SWAP1 POP PUSH2 0x208A DUP2 PUSH2 0x2A04 JUMP JUMPDEST SWAP3 SWAP2 POP POP JUMP JUMPDEST PUSH1 0x0 DUP2 MLOAD SWAP1 POP PUSH2 0x209F DUP2 PUSH2 0x2A1B JUMP JUMPDEST SWAP3 SWAP2 POP POP JUMP JUMPDEST PUSH1 0x0 DUP2 CALLDATALOAD SWAP1 POP PUSH2 0x20B4 DUP2 PUSH2 0x2A32 JUMP JUMPDEST SWAP3 SWAP2 POP POP JUMP JUMPDEST PUSH1 0x0 DUP2 MLOAD SWAP1 POP PUSH2 0x20C9 DUP2 PUSH2 0x2A32 JUMP JUMPDEST SWAP3 SWAP2 POP POP JUMP JUMPDEST PUSH1 0x0 DUP2 CALLDATALOAD SWAP1 POP PUSH2 0x20DE DUP2 PUSH2 0x2A49 JUMP JUMPDEST SWAP3 SWAP2 POP POP JUMP JUMPDEST PUSH1 0x0 DUP2 MLOAD SWAP1 POP PUSH2 0x20F3 DUP2 PUSH2 0x2A60 JUMP JUMPDEST SWAP3 SWAP2 POP POP JUMP JUMPDEST PUSH1 0x0 PUSH1 0x20 DUP3 DUP5 SUB SLT ISZERO PUSH2 0x210B JUMPI PUSH1 0x0 DUP1 REVERT JUMPDEST PUSH1 0x0 PUSH2 0x2119 DUP5 DUP3 DUP6 ADD PUSH2 0x2066 JUMP JUMPDEST SWAP2 POP POP SWAP3 SWAP2 POP POP JUMP JUMPDEST PUSH1 0x0 DUP1 PUSH1 0x40 DUP4 DUP6 SUB SLT ISZERO PUSH2 0x2135 JUMPI PUSH1 0x0 DUP1 REVERT JUMPDEST PUSH1 0x0 PUSH2 0x2143 DUP6 DUP3 DUP7 ADD PUSH2 0x2066 JUMP JUMPDEST SWAP3 POP POP PUSH1 0x20 PUSH2 0x2154 DUP6 DUP3 DUP7 ADD PUSH2 0x20A5 JUMP JUMPDEST SWAP2 POP POP SWAP3 POP SWAP3 SWAP1 POP JUMP JUMPDEST PUSH1 0x0 PUSH1 0x20 DUP3 DUP5 SUB SLT ISZERO PUSH2 0x2170 JUMPI PUSH1 0x0 DUP1 REVERT JUMPDEST PUSH1 0x0 PUSH2 0x217E DUP5 DUP3 DUP6 ADD PUSH2 0x207B JUMP JUMPDEST SWAP2 POP POP SWAP3 SWAP2 POP POP JUMP JUMPDEST PUSH1 0x0 PUSH1 0x20 DUP3 DUP5 SUB SLT ISZERO PUSH2 0x2199 JUMPI PUSH1 0x0 DUP1 REVERT JUMPDEST PUSH1 0x0 PUSH2 0x21A7 DUP5 DUP3 DUP6 ADD PUSH2 0x20A5 JUMP JUMPDEST SWAP2 POP POP SWAP3 SWAP2 POP POP JUMP JUMPDEST PUSH1 0x0 PUSH1 0x20 DUP3 DUP5 SUB SLT ISZERO PUSH2 0x21C2 JUMPI PUSH1 0x0 DUP1 REVERT JUMPDEST PUSH1 0x0 PUSH2 0x21D0 DUP5 DUP3 DUP6 ADD PUSH2 0x20BA JUMP JUMPDEST SWAP2 POP POP SWAP3 SWAP2 POP POP JUMP JUMPDEST PUSH1 0x0 DUP1 PUSH1 0x40 DUP4 DUP6 SUB SLT ISZERO PUSH2 0x21EC JUMPI PUSH1 0x0 DUP1 REVERT JUMPDEST PUSH1 0x0 PUSH2 0x21FA DUP6 DUP3 DUP7 ADD PUSH2 0x20A5 JUMP JUMPDEST SWAP3 POP POP PUSH1 0x20 PUSH2 0x220B DUP6 DUP3 DUP7 ADD PUSH2 0x2066 JUMP JUMPDEST SWAP2 POP POP SWAP3 POP SWAP3 SWAP1 POP JUMP JUMPDEST PUSH1 0x0 DUP1 PUSH1 0x40 DUP4 DUP6 SUB SLT ISZERO PUSH2 0x2228 JUMPI PUSH1 0x0 DUP1 REVERT JUMPDEST PUSH1 0x0 PUSH2 0x2236 DUP6 DUP3 DUP7 ADD PUSH2 0x20A5 JUMP JUMPDEST SWAP3 POP POP PUSH1 0x20 PUSH2 0x2247 DUP6 DUP3 DUP7 ADD PUSH2 0x20A5 JUMP JUMPDEST SWAP2 POP POP SWAP3 POP SWAP3 SWAP1 POP JUMP JUMPDEST PUSH1 0x0 DUP1 PUSH1 0x0 DUP1 PUSH1 0x80 DUP6 DUP8 SUB SLT ISZERO PUSH2 0x2267 JUMPI PUSH1 0x0 DUP1 REVERT JUMPDEST PUSH1 0x0 PUSH2 0x2275 DUP8 DUP3 DUP9 ADD PUSH2 0x20A5 JUMP JUMPDEST SWAP5 POP POP PUSH1 0x20 PUSH2 0x2286 DUP8 DUP3 DUP9 ADD PUSH2 0x20A5 JUMP JUMPDEST SWAP4 POP POP PUSH1 0x40 PUSH2 0x2297 DUP8 DUP3 DUP9 ADD PUSH2 0x20A5 JUMP JUMPDEST SWAP3 POP POP PUSH1 0x60 PUSH2 0x22A8 DUP8 DUP3 DUP9 ADD PUSH2 0x20A5 JUMP JUMPDEST SWAP2 POP POP SWAP3 SWAP6 SWAP2 SWAP5 POP SWAP3 POP JUMP JUMPDEST PUSH1 0x0 DUP1 PUSH1 0x0 DUP1 PUSH1 0x0 PUSH1 0xA0 DUP7 DUP9 SUB SLT ISZERO PUSH2 0x22CC JUMPI PUSH1 0x0 DUP1 REVERT JUMPDEST PUSH1 0x0 PUSH2 0x22DA DUP9 DUP3 DUP10 ADD PUSH2 0x20A5 JUMP JUMPDEST SWAP6 POP POP PUSH1 0x20 PUSH2 0x22EB DUP9 DUP3 DUP10 ADD PUSH2 0x20A5 JUMP JUMPDEST SWAP5 POP POP PUSH1 0x40 PUSH2 0x22FC DUP9 DUP3 DUP10 ADD PUSH2 0x20A5 JUMP JUMPDEST SWAP4 POP POP PUSH1 0x60 PUSH2 0x230D DUP9 DUP3 DUP10 ADD PUSH2 0x20A5 JUMP JUMPDEST SWAP3 POP POP PUSH1 0x80 PUSH2 0x231E DUP9 DUP3 DUP10 ADD PUSH2 0x20A5 JUMP JUMPDEST SWAP2 POP POP SWAP3 SWAP6 POP SWAP3 SWAP6 SWAP1 SWAP4 POP JUMP JUMPDEST PUSH1 0x0 DUP1 PUSH1 0x0 DUP1 PUSH1 0x0 PUSH1 0xA0 DUP7 DUP9 SUB SLT ISZERO PUSH2 0x2343 JUMPI PUSH1 0x0 DUP1 REVERT JUMPDEST PUSH1 0x0 PUSH2 0x2351 DUP9 DUP3 DUP10 ADD PUSH2 0x20A5 JUMP JUMPDEST SWAP6 POP POP PUSH1 0x20 PUSH2 0x2362 DUP9 DUP3 DUP10 ADD PUSH2 0x20A5 JUMP JUMPDEST SWAP5 POP POP PUSH1 0x40 PUSH2 0x2373 DUP9 DUP3 DUP10 ADD PUSH2 0x20A5 JUMP JUMPDEST SWAP4 POP POP PUSH1 0x60 PUSH2 0x2384 DUP9 DUP3 DUP10 ADD PUSH2 0x20A5 JUMP JUMPDEST SWAP3 POP POP PUSH1 0x80 PUSH2 0x2395 DUP9 DUP3 DUP10 ADD PUSH2 0x20CF JUMP JUMPDEST SWAP2 POP POP SWAP3 SWAP6 POP SWAP3 SWAP6 SWAP1 SWAP4 POP JUMP JUMPDEST PUSH1 0x0 DUP1 PUSH1 0x0 DUP1 PUSH1 0x80 DUP6 DUP8 SUB SLT ISZERO PUSH2 0x23B8 JUMPI PUSH1 0x0 DUP1 REVERT JUMPDEST PUSH1 0x0 PUSH2 0x23C6 DUP8 DUP3 DUP9 ADD PUSH2 0x20A5 JUMP JUMPDEST SWAP5 POP POP PUSH1 0x20 PUSH2 0x23D7 DUP8 DUP3 DUP9 ADD PUSH2 0x20A5 JUMP JUMPDEST SWAP4 POP POP PUSH1 0x40 PUSH2 0x23E8 DUP8 DUP3 DUP9 ADD PUSH2 0x20CF JUMP JUMPDEST SWAP3 POP POP PUSH1 0x60 PUSH2 0x23F9 DUP8 DUP3 DUP9 ADD PUSH2 0x20A5 JUMP JUMPDEST SWAP2 POP POP SWAP3 SWAP6 SWAP2 SWAP5 POP SWAP3 POP JUMP JUMPDEST PUSH1 0x0 PUSH1 0x20 DUP3 DUP5 SUB SLT ISZERO PUSH2 0x2417 JUMPI PUSH1 0x0 DUP1 REVERT JUMPDEST PUSH1 0x0 PUSH2 0x2425 DUP5 DUP3 DUP6 ADD PUSH2 0x20CF JUMP JUMPDEST SWAP2 POP POP SWAP3 SWAP2 POP POP JUMP JUMPDEST PUSH1 0x0 DUP1 PUSH1 0x0 DUP1 PUSH1 0x0 PUSH1 0xA0 DUP7 DUP9 SUB SLT ISZERO PUSH2 0x2446 JUMPI PUSH1 0x0 DUP1 REVERT JUMPDEST PUSH1 0x0 PUSH2 0x2454 DUP9 DUP3 DUP10 ADD PUSH2 0x20E4 JUMP JUMPDEST SWAP6 POP POP PUSH1 0x20 PUSH2 0x2465 DUP9 DUP3 DUP10 ADD PUSH2 0x2090 JUMP JUMPDEST SWAP5 POP POP PUSH1 0x40 PUSH2 0x2476 DUP9 DUP3 DUP10 ADD PUSH2 0x20BA JUMP JUMPDEST SWAP4 POP POP PUSH1 0x60 PUSH2 0x2487 DUP9 DUP3 DUP10 ADD PUSH2 0x20BA JUMP JUMPDEST SWAP3 POP POP PUSH1 0x80 PUSH2 0x2498 DUP9 DUP3 DUP10 ADD PUSH2 0x20E4 JUMP JUMPDEST SWAP2 POP POP SWAP3 SWAP6 POP SWAP3 SWAP6 SWAP1 SWAP4 POP JUMP JUMPDEST PUSH2 0x24AE DUP2 PUSH2 0x28F0 JUMP JUMPDEST DUP3 MSTORE POP POP JUMP JUMPDEST PUSH1 0x0 PUSH2 0x24C1 PUSH1 0x19 DUP4 PUSH2 0x27CA JUMP JUMPDEST SWAP2 POP PUSH32 0x746F6B656E206164647265737320616C72656164792073657400000000000000 PUSH1 0x0 DUP4 ADD MSTORE PUSH1 0x20 DUP3 ADD SWAP1 POP SWAP2 SWAP1 POP JUMP JUMPDEST PUSH1 0x0 PUSH2 0x2501 PUSH1 0x1D DUP4 PUSH2 0x27CA JUMP JUMPDEST SWAP2 POP PUSH32 0x4F6E6C79207374726963746C7920706F7369746976652076616C756573000000 PUSH1 0x0 DUP4 ADD MSTORE PUSH1 0x20 DUP3 ADD SWAP1 POP SWAP2 SWAP1 POP JUMP JUMPDEST PUSH1 0x0 PUSH2 0x2541 PUSH1 0x1B DUP4 PUSH2 0x27CA JUMP JUMPDEST SWAP2 POP PUSH32 0x7374616B696E67206164647265737320616C7265616479207365740000000000 PUSH1 0x0 DUP4 ADD MSTORE PUSH1 0x20 DUP3 ADD SWAP1 POP SWAP2 SWAP1 POP JUMP JUMPDEST PUSH1 0x0 PUSH2 0x2581 PUSH1 0x24 DUP4 PUSH2 0x27CA JUMP JUMPDEST SWAP2 POP PUSH32 0x6F6E6C7920676F7665726E616E63652063616E2063616C6C2074686973206D65 PUSH1 0x0 DUP4 ADD MSTORE PUSH32 0x74686F6400000000000000000000000000000000000000000000000000000000 PUSH1 0x20 DUP4 ADD MSTORE PUSH1 0x40 DUP3 ADD SWAP1 POP SWAP2 SWAP1 POP JUMP JUMPDEST PUSH1 0x0 PUSH2 0x25E7 PUSH1 0x27 DUP4 PUSH2 0x27CA JUMP JUMPDEST SWAP2 POP PUSH32 0x77696E646F772073697A652073686F756C64206265207374726963746C792070 PUSH1 0x0 DUP4 ADD MSTORE PUSH32 0x6F73697469766500000000000000000000000000000000000000000000000000 PUSH1 0x20 DUP4 ADD MSTORE PUSH1 0x40 DUP3 ADD SWAP1 POP SWAP2 SWAP1 POP JUMP JUMPDEST PUSH2 0x2649 DUP2 PUSH2 0x2938 JUMP JUMPDEST DUP3 MSTORE POP POP JUMP JUMPDEST PUSH2 0x2658 DUP2 PUSH2 0x2942 JUMP JUMPDEST DUP3 MSTORE POP POP JUMP JUMPDEST PUSH1 0x0 PUSH1 0x20 DUP3 ADD SWAP1 POP PUSH2 0x2673 PUSH1 0x0 DUP4 ADD DUP5 PUSH2 0x24A5 JUMP JUMPDEST SWAP3 SWAP2 POP POP JUMP JUMPDEST PUSH1 0x0 PUSH1 0x40 DUP3 ADD SWAP1 POP PUSH2 0x268E PUSH1 0x0 DUP4 ADD DUP6 PUSH2 0x24A5 JUMP JUMPDEST PUSH2 0x269B PUSH1 0x20 DUP4 ADD DUP5 PUSH2 0x2640 JUMP JUMPDEST SWAP4 SWAP3 POP POP POP JUMP JUMPDEST PUSH1 0x0 PUSH1 0x20 DUP3 ADD SWAP1 POP DUP2 DUP2 SUB PUSH1 0x0 DUP4 ADD MSTORE PUSH2 0x26BB DUP2 PUSH2 0x24B4 JUMP JUMPDEST SWAP1 POP SWAP2 SWAP1 POP JUMP JUMPDEST PUSH1 0x0 PUSH1 0x20 DUP3 ADD SWAP1 POP DUP2 DUP2 SUB PUSH1 0x0 DUP4 ADD MSTORE PUSH2 0x26DB DUP2 PUSH2 0x24F4 JUMP JUMPDEST SWAP1 POP SWAP2 SWAP1 POP JUMP JUMPDEST PUSH1 0x0 PUSH1 0x20 DUP3 ADD SWAP1 POP DUP2 DUP2 SUB PUSH1 0x0 DUP4 ADD MSTORE PUSH2 0x26FB DUP2 PUSH2 0x2534 JUMP JUMPDEST SWAP1 POP SWAP2 SWAP1 POP JUMP JUMPDEST PUSH1 0x0 PUSH1 0x20 DUP3 ADD SWAP1 POP DUP2 DUP2 SUB PUSH1 0x0 DUP4 ADD MSTORE PUSH2 0x271B DUP2 PUSH2 0x2574 JUMP JUMPDEST SWAP1 POP SWAP2 SWAP1 POP JUMP JUMPDEST PUSH1 0x0 PUSH1 0x20 DUP3 ADD SWAP1 POP DUP2 DUP2 SUB PUSH1 0x0 DUP4 ADD MSTORE PUSH2 0x273B DUP2 PUSH2 0x25DA JUMP JUMPDEST SWAP1 POP SWAP2 SWAP1 POP JUMP JUMPDEST PUSH1 0x0 PUSH1 0x20 DUP3 ADD SWAP1 POP PUSH2 0x2757 PUSH1 0x0 DUP4 ADD DUP5 PUSH2 0x2640 JUMP JUMPDEST SWAP3 SWAP2 POP POP JUMP JUMPDEST PUSH1 0x0 PUSH1 0x40 DUP3 ADD SWAP1 POP PUSH2 0x2772 PUSH1 0x0 DUP4 ADD DUP6 PUSH2 0x2640 JUMP JUMPDEST PUSH2 0x277F PUSH1 0x20 DUP4 ADD DUP5 PUSH2 0x2640 JUMP JUMPDEST SWAP4 SWAP3 POP POP POP JUMP JUMPDEST PUSH1 0x0 PUSH1 0x40 DUP3 ADD SWAP1 POP PUSH2 0x279B PUSH1 0x0 DUP4 ADD DUP6 PUSH2 0x2640 JUMP JUMPDEST PUSH2 0x27A8 PUSH1 0x20 DUP4 ADD DUP5 PUSH2 0x264F JUMP JUMPDEST SWAP4 SWAP3 POP POP POP JUMP JUMPDEST PUSH1 0x0 PUSH1 0x20 DUP3 ADD SWAP1 POP PUSH2 0x27C4 PUSH1 0x0 DUP4 ADD DUP5 PUSH2 0x264F JUMP JUMPDEST SWAP3 SWAP2 POP POP JUMP JUMPDEST PUSH1 0x0 DUP3 DUP3 MSTORE PUSH1 0x20 DUP3 ADD SWAP1 POP SWAP3 SWAP2 POP POP JUMP JUMPDEST PUSH1 0x0 PUSH2 0x27E6 DUP3 PUSH2 0x2938 JUMP JUMPDEST SWAP2 POP PUSH2 0x27F1 DUP4 PUSH2 0x2938 JUMP JUMPDEST SWAP3 POP DUP3 PUSH32 0xFFFFFFFFFFFFFFFFFFFFFFFFFFFFFFFFFFFFFFFFFFFFFFFFFFFFFFFFFFFFFFFF SUB DUP3 GT ISZERO PUSH2 0x2826 JUMPI PUSH2 0x2825 PUSH2 0x298F JUMP JUMPDEST JUMPDEST DUP3 DUP3 ADD SWAP1 POP SWAP3 SWAP2 POP POP JUMP JUMPDEST PUSH1 0x0 PUSH2 0x283C DUP3 PUSH2 0x2938 JUMP JUMPDEST SWAP2 POP PUSH2 0x2847 DUP4 PUSH2 0x2938 JUMP JUMPDEST SWAP3 POP DUP3 PUSH2 0x2857 JUMPI PUSH2 0x2856 PUSH2 0x29BE JUMP JUMPDEST JUMPDEST DUP3 DUP3 DIV SWAP1 POP SWAP3 SWAP2 POP POP JUMP JUMPDEST PUSH1 0x0 PUSH2 0x286D DUP3 PUSH2 0x2938 JUMP JUMPDEST SWAP2 POP PUSH2 0x2878 DUP4 PUSH2 0x2938 JUMP JUMPDEST SWAP3 POP DUP2 PUSH32 0xFFFFFFFFFFFFFFFFFFFFFFFFFFFFFFFFFFFFFFFFFFFFFFFFFFFFFFFFFFFFFFFF DIV DUP4 GT DUP3 ISZERO ISZERO AND ISZERO PUSH2 0x28B1 JUMPI PUSH2 0x28B0 PUSH2 0x298F JUMP JUMPDEST JUMPDEST DUP3 DUP3 MUL SWAP1 POP SWAP3 SWAP2 POP POP JUMP JUMPDEST PUSH1 0x0 PUSH2 0x28C7 DUP3 PUSH2 0x2938 JUMP JUMPDEST SWAP2 POP PUSH2 0x28D2 DUP4 PUSH2 0x2938 JUMP JUMPDEST SWAP3 POP DUP3 DUP3 LT ISZERO PUSH2 0x28E5 JUMPI PUSH2 0x28E4 PUSH2 0x298F JUMP JUMPDEST JUMPDEST DUP3 DUP3 SUB SWAP1 POP SWAP3 SWAP2 POP POP JUMP JUMPDEST PUSH1 0x0 PUSH2 0x28FB DUP3 PUSH2 0x2918 JUMP JUMPDEST SWAP1 POP SWAP2 SWAP1 POP JUMP JUMPDEST PUSH1 0x0 DUP2 ISZERO ISZERO SWAP1 POP SWAP2 SWAP1 POP JUMP JUMPDEST PUSH1 0x0 DUP2 SWAP1 POP SWAP2 SWAP1 POP JUMP JUMPDEST PUSH1 0x0 PUSH20 0xFFFFFFFFFFFFFFFFFFFFFFFFFFFFFFFFFFFFFFFF DUP3 AND SWAP1 POP SWAP2 SWAP1 POP JUMP JUMPDEST PUSH1 0x0 DUP2 SWAP1 POP SWAP2 SWAP1 POP JUMP JUMPDEST PUSH1 0x0 PUSH1 0xFF DUP3 AND SWAP1 POP SWAP2 SWAP1 POP JUMP JUMPDEST PUSH1 0x0 PUSH10 0xFFFFFFFFFFFFFFFFFFFF DUP3 AND SWAP1 POP SWAP2 SWAP1 POP JUMP JUMPDEST PUSH1 0x0 PUSH2 0x2970 DUP3 PUSH2 0x2938 JUMP JUMPDEST SWAP2 POP PUSH1 0x0 DUP3 EQ ISZERO PUSH2 0x2984 JUMPI PUSH2 0x2983 PUSH2 0x298F JUMP JUMPDEST JUMPDEST PUSH1 0x1 DUP3 SUB SWAP1 POP SWAP2 SWAP1 POP JUMP JUMPDEST PUSH32 0x4E487B7100000000000000000000000000000000000000000000000000000000 PUSH1 0x0 MSTORE PUSH1 0x11 PUSH1 0x4 MSTORE PUSH1 0x24 PUSH1 0x0 REVERT JUMPDEST PUSH32 0x4E487B7100000000000000000000000000000000000000000000000000000000 PUSH1 0x0 MSTORE PUSH1 0x12 PUSH1 0x4 MSTORE PUSH1 0x24 PUSH1 0x0 REVERT JUMPDEST PUSH2 0x29F6 DUP2 PUSH2 0x28F0 JUMP JUMPDEST DUP2 EQ PUSH2 0x2A01 JUMPI PUSH1 0x0 DUP1 REVERT JUMPDEST POP JUMP JUMPDEST PUSH2 0x2A0D DUP2 PUSH2 0x2902 JUMP JUMPDEST DUP2 EQ PUSH2 0x2A18 JUMPI PUSH1 0x0 DUP1 REVERT JUMPDEST POP JUMP JUMPDEST PUSH2 0x2A24 DUP2 PUSH2 0x290E JUMP JUMPDEST DUP2 EQ PUSH2 0x2A2F JUMPI PUSH1 0x0 DUP1 REVERT JUMPDEST POP JUMP JUMPDEST PUSH2 0x2A3B DUP2 PUSH2 0x2938 JUMP JUMPDEST DUP2 EQ PUSH2 0x2A46 JUMPI PUSH1 0x0 DUP1 REVERT JUMPDEST POP JUMP JUMPDEST PUSH2 0x2A52 DUP2 PUSH2 0x2942 JUMP JUMPDEST DUP2 EQ PUSH2 0x2A5D JUMPI PUSH1 0x0 DUP1 REVERT JUMPDEST POP JUMP JUMPDEST PUSH2 0x2A69 DUP2 PUSH2 0x294F JUMP JUMPDEST DUP2 EQ PUSH2 0x2A74 JUMPI PUSH1 0x0 DUP1 REVERT JUMPDEST POP JUMP INVALID LOG2 PUSH5 0x6970667358 0x22 SLT KECCAK256 JUMP RETURNDATASIZE 0xAC 0xE1 PUSH14 0x7443E5B079AE4826CC9B2F9F0B7D SWAP6 0x1F 0x5F 0xB7 0x24 MOD CREATE2 SSTORE PUSH5 0xDAEE376E64 PUSH20 0x6F6C634300080000330000000000000000000000 "
        },
        "gasEstimates": {
          "creation": {
            "codeDepositCost": "2185000",
            "executionCost": "infinite",
            "totalCost": "infinite"
          },
          "external": {
            "REWARD_PER_WINDOW()": "418",
            "accumulatedFees()": "1241",
            "betListLen(address)": "1639",
            "betResult(uint256,uint256)": "infinite",
            "calculateTokenReward(uint256,uint256,uint256,uint256)": "infinite",
            "changeGovernance(address)": "22259",
            "changeWindowSize(uint256)": "infinite",
            "computeFee(uint256,uint256)": "infinite",
            "fee()": "1218",
            "firstBlock()": "1175",
            "firstWindow()": "1240",
            "getPoolValues(uint256)": "infinite",
            "getUserBetList(address,uint256)": "infinite",
            "getUserStake(uint256,address)": "infinite",
            "getWindowBetPrices(uint256)": "infinite",
            "getWindowNumber(uint256,uint256,uint256,uint256,uint256)": "infinite",
            "getWindowStartingBlock(uint256,uint256,uint256,uint256)": "infinite",
            "placeBet(uint8)": "infinite",
            "pools(uint256)": "infinite",
            "setStakingAddress(address)": "43962",
            "setTokenAddress(address)": "43964",
            "settleBet(uint256,uint256,uint256,uint256,uint8)": "infinite",
            "updateBalance(address)": "infinite",
            "updatePool(uint256,uint256,uint8,uint256)": "infinite",
            "updatePrice()": "infinite",
            "userBets(address,uint256)": "infinite",
            "userStake(address,uint256)": "infinite",
            "windowDuration()": "1174",
            "windowOffset()": "1175",
            "windowPrice(uint256)": "infinite"
          },
          "internal": {
            "priceOracle()": "infinite",
            "sharePool(uint256,uint256,uint256)": "infinite"
          }
        },
        "methodIdentifiers": {
          "REWARD_PER_WINDOW()": "71a42207",
          "accumulatedFees()": "587f5ed7",
          "betListLen(address)": "89b808a7",
          "betResult(uint256,uint256)": "1bb5abf9",
          "calculateTokenReward(uint256,uint256,uint256,uint256)": "daaac9d2",
          "changeGovernance(address)": "99572d6f",
          "changeWindowSize(uint256)": "f52818f0",
          "computeFee(uint256,uint256)": "2ff284c2",
          "fee()": "ddca3f43",
          "firstBlock()": "231b0268",
          "firstWindow()": "e0a5cee3",
          "getPoolValues(uint256)": "0eff4d88",
          "getUserBetList(address,uint256)": "b47a3566",
          "getUserStake(uint256,address)": "9626a230",
          "getWindowBetPrices(uint256)": "f83b35fb",
          "getWindowNumber(uint256,uint256,uint256,uint256,uint256)": "576fe42f",
          "getWindowStartingBlock(uint256,uint256,uint256,uint256)": "849cd1c7",
          "placeBet(uint8)": "43046844",
          "pools(uint256)": "ac4afa38",
          "setStakingAddress(address)": "f4e0d9ac",
          "setTokenAddress(address)": "26a4e8d2",
          "settleBet(uint256,uint256,uint256,uint256,uint8)": "ca055e53",
          "updateBalance(address)": "40b8405a",
          "updatePool(uint256,uint256,uint8,uint256)": "0ed6ca29",
          "updatePrice()": "673a7e28",
          "userBets(address,uint256)": "8068aa68",
          "userStake(address,uint256)": "3937ea4f",
          "windowDuration()": "5c11ff7a",
          "windowOffset()": "80962668",
          "windowPrice(uint256)": "e0d65d87"
        }
      },
      "storageLayout": {
        "storage": [
          {
            "astId": 784,
            "contract": "contracts/BinaryBet.sol:BinaryBet",
            "label": "priceFeed",
            "offset": 0,
            "slot": "0",
            "type": "t_contract(AggregatorV3Interface)45"
          },
          {
            "astId": 786,
            "contract": "contracts/BinaryBet.sol:BinaryBet",
            "label": "governance",
            "offset": 0,
            "slot": "1",
            "type": "t_address"
          },
          {
            "astId": 791,
            "contract": "contracts/BinaryBet.sol:BinaryBet",
            "label": "fee",
            "offset": 0,
            "slot": "2",
            "type": "t_uint256"
          },
          {
            "astId": 793,
            "contract": "contracts/BinaryBet.sol:BinaryBet",
            "label": "windowDuration",
            "offset": 0,
            "slot": "3",
            "type": "t_uint256"
          },
          {
            "astId": 795,
            "contract": "contracts/BinaryBet.sol:BinaryBet",
            "label": "firstBlock",
            "offset": 0,
            "slot": "4",
            "type": "t_uint256"
          },
          {
            "astId": 798,
            "contract": "contracts/BinaryBet.sol:BinaryBet",
            "label": "staking",
            "offset": 0,
            "slot": "5",
            "type": "t_contract(BinaryStaking)2164"
          },
          {
            "astId": 800,
            "contract": "contracts/BinaryBet.sol:BinaryBet",
            "label": "stakingAddress",
            "offset": 0,
            "slot": "6",
            "type": "t_address_payable"
          },
          {
            "astId": 803,
            "contract": "contracts/BinaryBet.sol:BinaryBet",
            "label": "token",
            "offset": 0,
            "slot": "7",
            "type": "t_contract(BinToken)762"
          },
          {
            "astId": 805,
            "contract": "contracts/BinaryBet.sol:BinaryBet",
            "label": "tokenAddress",
            "offset": 0,
            "slot": "8",
            "type": "t_address"
          },
          {
            "astId": 810,
            "contract": "contracts/BinaryBet.sol:BinaryBet",
            "label": "pools",
            "offset": 0,
            "slot": "9",
            "type": "t_mapping(t_uint256,t_struct(Pool)781_storage)"
          },
          {
            "astId": 814,
            "contract": "contracts/BinaryBet.sol:BinaryBet",
            "label": "windowPrice",
            "offset": 0,
            "slot": "10",
            "type": "t_mapping(t_uint256,t_uint256)"
          },
          {
            "astId": 817,
            "contract": "contracts/BinaryBet.sol:BinaryBet",
            "label": "firstWindow",
            "offset": 0,
            "slot": "11",
            "type": "t_uint256"
          },
          {
            "astId": 819,
            "contract": "contracts/BinaryBet.sol:BinaryBet",
            "label": "windowOffset",
            "offset": 0,
            "slot": "12",
            "type": "t_uint256"
          },
          {
            "astId": 821,
            "contract": "contracts/BinaryBet.sol:BinaryBet",
            "label": "accumulatedFees",
            "offset": 0,
            "slot": "13",
            "type": "t_uint256"
          },
          {
            "astId": 828,
            "contract": "contracts/BinaryBet.sol:BinaryBet",
            "label": "userStake",
            "offset": 0,
            "slot": "14",
            "type": "t_mapping(t_address,t_mapping(t_uint256,t_struct(Pool)781_storage))"
          },
          {
            "astId": 833,
            "contract": "contracts/BinaryBet.sol:BinaryBet",
            "label": "userBets",
            "offset": 0,
            "slot": "15",
            "type": "t_mapping(t_address,t_array(t_uint256)dyn_storage)"
          },
          {
            "astId": 839,
            "contract": "contracts/BinaryBet.sol:BinaryBet",
            "label": "userBetted",
            "offset": 0,
            "slot": "16",
            "type": "t_mapping(t_address,t_mapping(t_uint256,t_bool))"
          }
        ],
        "types": {
          "t_address": {
            "encoding": "inplace",
            "label": "address",
            "numberOfBytes": "20"
          },
          "t_address_payable": {
            "encoding": "inplace",
            "label": "address payable",
            "numberOfBytes": "20"
          },
          "t_array(t_uint256)dyn_storage": {
            "base": "t_uint256",
            "encoding": "dynamic_array",
            "label": "uint256[]",
            "numberOfBytes": "32"
          },
          "t_bool": {
            "encoding": "inplace",
            "label": "bool",
            "numberOfBytes": "1"
          },
          "t_contract(AggregatorV3Interface)45": {
            "encoding": "inplace",
            "label": "contract AggregatorV3Interface",
            "numberOfBytes": "20"
          },
          "t_contract(BinToken)762": {
            "encoding": "inplace",
            "label": "contract BinToken",
            "numberOfBytes": "20"
          },
          "t_contract(BinaryStaking)2164": {
            "encoding": "inplace",
            "label": "contract BinaryStaking",
            "numberOfBytes": "20"
          },
          "t_mapping(t_address,t_array(t_uint256)dyn_storage)": {
            "encoding": "mapping",
            "key": "t_address",
            "label": "mapping(address => uint256[])",
            "numberOfBytes": "32",
            "value": "t_array(t_uint256)dyn_storage"
          },
          "t_mapping(t_address,t_mapping(t_uint256,t_bool))": {
            "encoding": "mapping",
            "key": "t_address",
            "label": "mapping(address => mapping(uint256 => bool))",
            "numberOfBytes": "32",
            "value": "t_mapping(t_uint256,t_bool)"
          },
          "t_mapping(t_address,t_mapping(t_uint256,t_struct(Pool)781_storage))": {
            "encoding": "mapping",
            "key": "t_address",
            "label": "mapping(address => mapping(uint256 => struct BinaryBet.Pool))",
            "numberOfBytes": "32",
            "value": "t_mapping(t_uint256,t_struct(Pool)781_storage)"
          },
          "t_mapping(t_uint256,t_bool)": {
            "encoding": "mapping",
            "key": "t_uint256",
            "label": "mapping(uint256 => bool)",
            "numberOfBytes": "32",
            "value": "t_bool"
          },
          "t_mapping(t_uint256,t_struct(Pool)781_storage)": {
            "encoding": "mapping",
            "key": "t_uint256",
            "label": "mapping(uint256 => struct BinaryBet.Pool)",
            "numberOfBytes": "32",
            "value": "t_struct(Pool)781_storage"
          },
          "t_mapping(t_uint256,t_uint256)": {
            "encoding": "mapping",
            "key": "t_uint256",
            "label": "mapping(uint256 => uint256)",
            "numberOfBytes": "32",
            "value": "t_uint256"
          },
          "t_struct(Pool)781_storage": {
            "encoding": "inplace",
            "label": "struct BinaryBet.Pool",
            "members": [
              {
                "astId": 778,
                "contract": "contracts/BinaryBet.sol:BinaryBet",
                "label": "downValue",
                "offset": 0,
                "slot": "0",
                "type": "t_uint256"
              },
              {
                "astId": 780,
                "contract": "contracts/BinaryBet.sol:BinaryBet",
                "label": "upValue",
                "offset": 0,
                "slot": "1",
                "type": "t_uint256"
              }
            ],
            "numberOfBytes": "64"
          },
          "t_uint256": {
            "encoding": "inplace",
            "label": "uint256",
            "numberOfBytes": "32"
          }
        }
      },
      "userdoc": {
        "kind": "user",
        "methods": {},
        "version": 1
      }
    }
  }
}