{
  "_format": "hh-sol-artifact-1",
  "contractName": "Migrations",
  "sourceName": "contracts/Migrations.sol",
  "abi": [
    {
      "inputs": [],
      "stateMutability": "nonpayable",
      "type": "constructor"
    },
    {
      "inputs": [
        {
          "internalType": "bytes32",
          "name": "c__0x94389633",
          "type": "bytes32"
        }
      ],
      "name": "c_0x94389633",
      "outputs": [],
      "stateMutability": "pure",
      "type": "function"
    },
    {
      "inputs": [],
      "name": "last_completed_migration",
      "outputs": [
        {
          "internalType": "uint256",
          "name": "",
          "type": "uint256"
        }
      ],
      "stateMutability": "view",
      "type": "function"
    },
    {
      "inputs": [],
      "name": "owner",
      "outputs": [
        {
          "internalType": "address",
          "name": "",
          "type": "address"
        }
      ],
      "stateMutability": "view",
      "type": "function"
    },
    {
      "inputs": [
        {
          "internalType": "uint256",
          "name": "completed",
          "type": "uint256"
        }
      ],
      "name": "setCompleted",
      "outputs": [],
      "stateMutability": "nonpayable",
      "type": "function"
    },
    {
      "inputs": [
        {
          "internalType": "address",
          "name": "new_address",
          "type": "address"
        }
      ],
      "name": "upgrade",
      "outputs": [],
      "stateMutability": "nonpayable",
      "type": "function"
    }
  ],
  "bytecode": "0x608060405234801561001057600080fd5b506100437fcbc45cbcc6f7db0895df0b12617520656d0abccf25e08b81b8e6307dc791ba2f60001b6100ec60201b60201c565b6100757f8c71208c80d80a848e818a86d89932753a72101695f8ba7b7ebf06085b52357860001b6100ec60201b60201c565b6100a77fe231b58fe4bd6659e6ac920cab76c0a5c3ae7ab3762123b55210e42f2108361660001b6100ec60201b60201c565b336000806101000a81548173ffffffffffffffffffffffffffffffffffffffff021916908373ffffffffffffffffffffffffffffffffffffffff1602179055506100ef565b50565b610734806100fe6000396000f3fe608060405234801561001057600080fd5b50600436106100575760003560e01c80630900f0101461005c578063445df0ac146100785780638896fc56146100965780638da5cb5b146100b2578063fdacd576146100d0575b600080fd5b610076600480360381019061007191906105a4565b6100ec565b005b610080610374565b60405161008d9190610658565b60405180910390f35b6100b060048036038101906100ab91906105cd565b61037a565b005b6100ba61037d565b6040516100c7919061063d565b60405180910390f35b6100ea60048036038101906100e591906105f6565b6103a1565b005b6101187f74fc60240e31b89eba817cb07eab8bda4babf52bdc3de9fbc3e41179c26731a660001b61037a565b6101447fde2b211c8288547b1f3ea8f3ca0cb0e58b76b530452c1e8c5c31e487b4980c6e60001b61037a565b6101707f2258038c96f8f882ec682abc647a038f92ed9a0933aaf34848cd59969159e68360001b61037a565b60008054906101000a900473ffffffffffffffffffffffffffffffffffffffff1673ffffffffffffffffffffffffffffffffffffffff163373ffffffffffffffffffffffffffffffffffffffff161415610344576101f07fbdbc748db2f1950036ae946575c3c1a478b16b5ddff2565f69ddb5c1cc0fe2d560001b61037a565b61021c7fac787e90b567ce10dae3918caf0e53f8a40b9848118fe09345a00846fa67343960001b61037a565b6102487f5dbb099c9287be3aa0c73513c52c3151d1ac852632f83b37fd299cb425646c0160001b61037a565b6102747fa7f2de8aa456ff4a8205eb8e8c5143cc80559c83e00517ab8c1149821b077b2a60001b61037a565b60008190506102a57f1c3ebdba39c31da71c8663079559d74ad0e5423e74859333b1c72217bd95167360001b61037a565b6102d17fadd168865ff66c303b173f6e051d819f8fa33e473c8e1741d7b427e4a6dc676060001b61037a565b8073ffffffffffffffffffffffffffffffffffffffff1663fdacd5766001546040518263ffffffff1660e01b815260040161030c9190610658565b600060405180830381600087803b15801561032657600080fd5b505af115801561033a573d6000803e3d6000fd5b5050505050610371565b6103707fb3b5b1dddb5c75bbbfba8cc5f9ca66a7c64550051f2558de0122f4b9c6bd215260001b61037a565b5b50565b60015481565b50565b60008054906101000a900473ffffffffffffffffffffffffffffffffffffffff1681565b6103cd7f74fc60240e31b89eba817cb07eab8bda4babf52bdc3de9fbc3e41179c26731a660001b61037a565b6103f97fde2b211c8288547b1f3ea8f3ca0cb0e58b76b530452c1e8c5c31e487b4980c6e60001b61037a565b6104257f2258038c96f8f882ec682abc647a038f92ed9a0933aaf34848cd59969159e68360001b61037a565b60008054906101000a900473ffffffffffffffffffffffffffffffffffffffff1673ffffffffffffffffffffffffffffffffffffffff163373ffffffffffffffffffffffffffffffffffffffff161415610535576104a57fbdbc748db2f1950036ae946575c3c1a478b16b5ddff2565f69ddb5c1cc0fe2d560001b61037a565b6104d17f9c761523ea99182b1b8a52d2dab5df3b86bb796cf6222af5d530e96a99bb64fa60001b61037a565b6104fd7ff23b787df65788b01707d5b79234a62efd7c88854bf747ad094ebbdf5be62ba760001b61037a565b6105297ff65194cd4536526f720f280aabd090386d6389540304b4928592ec22930b840760001b61037a565b80600181905550610562565b6105617fb3b5b1dddb5c75bbbfba8cc5f9ca66a7c64550051f2558de0122f4b9c6bd215260001b61037a565b5b50565b600081359050610574816106b9565b92915050565b600081359050610589816106d0565b92915050565b60008135905061059e816106e7565b92915050565b6000602082840312156105b657600080fd5b60006105c484828501610565565b91505092915050565b6000602082840312156105df57600080fd5b60006105ed8482850161057a565b91505092915050565b60006020828403121561060857600080fd5b60006106168482850161058f565b91505092915050565b61062881610673565b82525050565b610637816106af565b82525050565b6000602082019050610652600083018461061f565b92915050565b600060208201905061066d600083018461062e565b92915050565b600061067e8261068f565b9050919050565b6000819050919050565b600073ffffffffffffffffffffffffffffffffffffffff82169050919050565b6000819050919050565b6106c281610673565b81146106cd57600080fd5b50565b6106d981610685565b81146106e457600080fd5b50565b6106f0816106af565b81146106fb57600080fd5b5056fea2646970667358221220dae5c8cb2bfa7f625281c2fc3b4b7ab633a5a23efb29115561ef771c40952c7064736f6c63430008000033",
  "linkReferences": {},
  "deployedLinkReferences": {}
}