{
  "_format": "hh-sol-artifact-1",
  "contractName": "BinToken",
  "sourceName": "contracts/BinToken.sol",
  "abi": [
    {
      "inputs": [],
      "stateMutability": "nonpayable",
      "type": "constructor"
    },
    {
      "anonymous": false,
      "inputs": [
        {
          "indexed": true,
          "internalType": "address",
          "name": "owner",
          "type": "address"
        },
        {
          "indexed": true,
          "internalType": "address",
          "name": "spender",
          "type": "address"
        },
        {
          "indexed": false,
          "internalType": "uint256",
          "name": "value",
          "type": "uint256"
        }
      ],
      "name": "Approval",
      "type": "event"
    },
    {
      "anonymous": false,
      "inputs": [
        {
          "indexed": true,
          "internalType": "address",
          "name": "from",
          "type": "address"
        },
        {
          "indexed": true,
          "internalType": "address",
          "name": "to",
          "type": "address"
        },
        {
          "indexed": false,
          "internalType": "uint256",
          "name": "value",
          "type": "uint256"
        }
      ],
      "name": "Transfer",
      "type": "event"
    },
    {
      "inputs": [],
      "name": "DECIMALS",
      "outputs": [
        {
          "internalType": "uint8",
          "name": "",
          "type": "uint8"
        }
      ],
      "stateMutability": "view",
      "type": "function"
    },
    {
      "inputs": [],
      "name": "INITIAL_SUPPLY",
      "outputs": [
        {
          "internalType": "uint256",
          "name": "",
          "type": "uint256"
        }
      ],
      "stateMutability": "view",
      "type": "function"
    },
    {
      "inputs": [],
      "name": "NAME",
      "outputs": [
        {
          "internalType": "string",
          "name": "",
          "type": "string"
        }
      ],
      "stateMutability": "view",
      "type": "function"
    },
    {
      "inputs": [],
      "name": "SYMBOL",
      "outputs": [
        {
          "internalType": "string",
          "name": "",
          "type": "string"
        }
      ],
      "stateMutability": "view",
      "type": "function"
    },
    {
      "inputs": [
        {
          "internalType": "address",
          "name": "owner",
          "type": "address"
        },
        {
          "internalType": "address",
          "name": "spender",
          "type": "address"
        }
      ],
      "name": "allowance",
      "outputs": [
        {
          "internalType": "uint256",
          "name": "",
          "type": "uint256"
        }
      ],
      "stateMutability": "view",
      "type": "function"
    },
    {
      "inputs": [
        {
          "internalType": "address",
          "name": "spender",
          "type": "address"
        },
        {
          "internalType": "uint256",
          "name": "amount",
          "type": "uint256"
        }
      ],
      "name": "approve",
      "outputs": [
        {
          "internalType": "bool",
          "name": "",
          "type": "bool"
        }
      ],
      "stateMutability": "nonpayable",
      "type": "function"
    },
    {
      "inputs": [
        {
          "internalType": "address",
          "name": "account",
          "type": "address"
        }
      ],
      "name": "balanceOf",
      "outputs": [
        {
          "internalType": "uint256",
          "name": "",
          "type": "uint256"
        }
      ],
      "stateMutability": "view",
      "type": "function"
    },
    {
      "inputs": [
        {
          "internalType": "bytes32",
          "name": "c__0x3558e5cd",
          "type": "bytes32"
        }
      ],
      "name": "c_0x3558e5cd",
      "outputs": [],
      "stateMutability": "pure",
      "type": "function"
    },
    {
      "inputs": [],
      "name": "decimals",
      "outputs": [
        {
          "internalType": "uint8",
          "name": "",
          "type": "uint8"
        }
      ],
      "stateMutability": "view",
      "type": "function"
    },
    {
      "inputs": [
        {
          "internalType": "address",
          "name": "spender",
          "type": "address"
        },
        {
          "internalType": "uint256",
          "name": "subtractedValue",
          "type": "uint256"
        }
      ],
      "name": "decreaseAllowance",
      "outputs": [
        {
          "internalType": "bool",
          "name": "",
          "type": "bool"
        }
      ],
      "stateMutability": "nonpayable",
      "type": "function"
    },
    {
      "inputs": [
        {
          "internalType": "address",
          "name": "spender",
          "type": "address"
        },
        {
          "internalType": "uint256",
          "name": "addedValue",
          "type": "uint256"
        }
      ],
      "name": "increaseAllowance",
      "outputs": [
        {
          "internalType": "bool",
          "name": "",
          "type": "bool"
        }
      ],
      "stateMutability": "nonpayable",
      "type": "function"
    },
    {
      "inputs": [],
      "name": "name",
      "outputs": [
        {
          "internalType": "string",
          "name": "",
          "type": "string"
        }
      ],
      "stateMutability": "view",
      "type": "function"
    },
    {
      "inputs": [],
      "name": "symbol",
      "outputs": [
        {
          "internalType": "string",
          "name": "",
          "type": "string"
        }
      ],
      "stateMutability": "view",
      "type": "function"
    },
    {
      "inputs": [],
      "name": "totalSupply",
      "outputs": [
        {
          "internalType": "uint256",
          "name": "",
          "type": "uint256"
        }
      ],
      "stateMutability": "view",
      "type": "function"
    },
    {
      "inputs": [
        {
          "internalType": "address",
          "name": "recipient",
          "type": "address"
        },
        {
          "internalType": "uint256",
          "name": "amount",
          "type": "uint256"
        }
      ],
      "name": "transfer",
      "outputs": [
        {
          "internalType": "bool",
          "name": "",
          "type": "bool"
        }
      ],
      "stateMutability": "nonpayable",
      "type": "function"
    },
    {
      "inputs": [
        {
          "internalType": "address",
          "name": "sender",
          "type": "address"
        },
        {
          "internalType": "address",
          "name": "recipient",
          "type": "address"
        },
        {
          "internalType": "uint256",
          "name": "amount",
          "type": "uint256"
        }
      ],
      "name": "transferFrom",
      "outputs": [
        {
          "internalType": "bool",
          "name": "",
          "type": "bool"
        }
      ],
      "stateMutability": "nonpayable",
      "type": "function"
    }
  ],
  "bytecode": "0x60806040523480156200001157600080fd5b506040518060400160405280600581526020017f4b495454590000000000000000000000000000000000000000000000000000008152506040518060400160405280600581526020017f4b495454590000000000000000000000000000000000000000000000000000008152508160039080519060200190620000969291906200030f565b508060049080519060200190620000af9291906200030f565b505050620000e67ffa5d4a6d9236238846e3d5d1f900cffb080fd85f893946cf777a4d8691076be760001b6200018960201b60201c565b6200011a7fbb1a1a93f97eb3ab3789f2185d73bba229f449d138e10e67a422d1860e6afcaa60001b6200018960201b60201c565b6200014e7f3cece5174beedd43bb246f12d37f5268c350d97f430ad06595cb24bf8fb2e94b60001b6200018960201b60201c565b6200018333601260ff16600a6200016691906200051a565b6305f5e10062000177919062000657565b6200018c60201b60201c565b62000763565b50565b600073ffffffffffffffffffffffffffffffffffffffff168273ffffffffffffffffffffffffffffffffffffffff161415620001ff576040517f08c379a0000000000000000000000000000000000000000000000000000000008152600401620001f69062000412565b60405180910390fd5b62000213600083836200030560201b60201c565b806002600082825462000227919062000462565b92505081905550806000808473ffffffffffffffffffffffffffffffffffffffff1673ffffffffffffffffffffffffffffffffffffffff16815260200190815260200160002060008282546200027e919062000462565b925050819055508173ffffffffffffffffffffffffffffffffffffffff16600073ffffffffffffffffffffffffffffffffffffffff167fddf252ad1be2c89b69c2b068fc378daa952ba7f163c4a11628f55a4df523b3ef83604051620002e5919062000434565b60405180910390a362000301600083836200030a60201b60201c565b5050565b505050565b505050565b8280546200031d90620006c2565b90600052602060002090601f0160209004810192826200034157600085556200038d565b82601f106200035c57805160ff19168380011785556200038d565b828001600101855582156200038d579182015b828111156200038c5782518255916020019190600101906200036f565b5b5090506200039c9190620003a0565b5090565b5b80821115620003bb576000816000905550600101620003a1565b5090565b6000620003ce601f8362000451565b91507f45524332303a206d696e7420746f20746865207a65726f2061646472657373006000830152602082019050919050565b6200040c81620006b8565b82525050565b600060208201905081810360008301526200042d81620003bf565b9050919050565b60006020820190506200044b600083018462000401565b92915050565b600082825260208201905092915050565b60006200046f82620006b8565b91506200047c83620006b8565b9250827fffffffffffffffffffffffffffffffffffffffffffffffffffffffffffffffff03821115620004b457620004b3620006f8565b5b828201905092915050565b6000808291508390505b60018511156200051157808604811115620004e957620004e8620006f8565b5b6001851615620004f95780820291505b8081029050620005098562000756565b9450620004c9565b94509492505050565b60006200052782620006b8565b91506200053483620006b8565b9250620005637fffffffffffffffffffffffffffffffffffffffffffffffffffffffffffffffff84846200056b565b905092915050565b6000826200057d576001905062000650565b816200058d576000905062000650565b8160018114620005a65760028114620005b157620005e7565b600191505062000650565b60ff841115620005c657620005c5620006f8565b5b8360020a915084821115620005e057620005df620006f8565b5b5062000650565b5060208310610133831016604e8410600b8410161715620006215782820a9050838111156200061b576200061a620006f8565b5b62000650565b620006308484846001620004bf565b925090508184048111156200064a5762000649620006f8565b5b81810290505b9392505050565b60006200066482620006b8565b91506200067183620006b8565b9250817fffffffffffffffffffffffffffffffffffffffffffffffffffffffffffffffff0483118215151615620006ad57620006ac620006f8565b5b828202905092915050565b6000819050919050565b60006002820490506001821680620006db57607f821691505b60208210811415620006f257620006f162000727565b5b50919050565b7f4e487b7100000000000000000000000000000000000000000000000000000000600052601160045260246000fd5b7f4e487b7100000000000000000000000000000000000000000000000000000000600052602260045260246000fd5b60008160011c9050919050565b61170080620007736000396000f3fe608060405234801561001057600080fd5b50600436106101005760003560e01c80636aa71e6511610097578063a457c2d711610066578063a457c2d7146102b3578063a9059cbb146102e3578063dd62ed3e14610313578063f76f8d781461034357610100565b80636aa71e651461022b57806370a082311461024757806395d89b4114610277578063a3f4df7e1461029557610100565b80632e0f2625116100d35780632e0f2625146101a15780632ff2e9dc146101bf578063313ce567146101dd57806339509351146101fb57610100565b806306fdde0314610105578063095ea7b31461012357806318160ddd1461015357806323b872dd14610171575b600080fd5b61010d610361565b60405161011a91906111d0565b60405180910390f35b61013d60048036038101906101389190610e20565b6103f3565b60405161014a91906111b5565b60405180910390f35b61015b610411565b60405161016891906112d2565b60405180910390f35b61018b60048036038101906101869190610dd1565b61041b565b60405161019891906111b5565b60405180910390f35b6101a9610513565b6040516101b691906112ed565b60405180910390f35b6101c7610518565b6040516101d491906112d2565b60405180910390f35b6101e561053b565b6040516101f291906112ed565b60405180910390f35b61021560048036038101906102109190610e20565b610544565b60405161022291906111b5565b60405180910390f35b61024560048036038101906102409190610e5c565b6105f0565b005b610261600480360381019061025c9190610d6c565b6105f3565b60405161026e91906112d2565b60405180910390f35b61027f61063b565b60405161028c91906111d0565b60405180910390f35b61029d6106cd565b6040516102aa91906111d0565b60405180910390f35b6102cd60048036038101906102c89190610e20565b610706565b6040516102da91906111b5565b60405180910390f35b6102fd60048036038101906102f89190610e20565b6107f1565b60405161030a91906111b5565b60405180910390f35b61032d60048036038101906103289190610d95565b61080f565b60405161033a91906112d2565b60405180910390f35b61034b610896565b60405161035891906111d0565b60405180910390f35b606060038054610370906115d7565b80601f016020809104026020016040519081016040528092919081815260200182805461039c906115d7565b80156103e95780601f106103be576101008083540402835291602001916103e9565b820191906000526020600020905b8154815290600101906020018083116103cc57829003601f168201915b5050505050905090565b60006104076104006108cf565b84846108d7565b6001905092915050565b6000600254905090565b6000610428848484610aa2565b6000600160008673ffffffffffffffffffffffffffffffffffffffff1673ffffffffffffffffffffffffffffffffffffffff16815260200190815260200160002060006104736108cf565b73ffffffffffffffffffffffffffffffffffffffff1673ffffffffffffffffffffffffffffffffffffffff168152602001908152602001600020549050828110156104f3576040517f08c379a00000000000000000000000000000000000000000000000000000000081526004016104ea90611252565b60405180910390fd5b610507856104ff6108cf565b8584036108d7565b60019150509392505050565b601281565b601260ff16600a61052991906113cd565b6305f5e10061053891906114eb565b81565b60006012905090565b60006105e66105516108cf565b84846001600061055f6108cf565b73ffffffffffffffffffffffffffffffffffffffff1673ffffffffffffffffffffffffffffffffffffffff16815260200190815260200160002060008873ffffffffffffffffffffffffffffffffffffffff1673ffffffffffffffffffffffffffffffffffffffff168152602001908152602001600020546105e19190611324565b6108d7565b6001905092915050565b50565b60008060008373ffffffffffffffffffffffffffffffffffffffff1673ffffffffffffffffffffffffffffffffffffffff168152602001908152602001600020549050919050565b60606004805461064a906115d7565b80601f0160208091040260200160405190810160405280929190818152602001828054610676906115d7565b80156106c35780601f10610698576101008083540402835291602001916106c3565b820191906000526020600020905b8154815290600101906020018083116106a657829003601f168201915b5050505050905090565b6040518060400160405280600581526020017f4b4954545900000000000000000000000000000000000000000000000000000081525081565b600080600160006107156108cf565b73ffffffffffffffffffffffffffffffffffffffff1673ffffffffffffffffffffffffffffffffffffffff16815260200190815260200160002060008573ffffffffffffffffffffffffffffffffffffffff1673ffffffffffffffffffffffffffffffffffffffff168152602001908152602001600020549050828110156107d2576040517f08c379a00000000000000000000000000000000000000000000000000000000081526004016107c9906112b2565b60405180910390fd5b6107e66107dd6108cf565b858584036108d7565b600191505092915050565b60006108056107fe6108cf565b8484610aa2565b6001905092915050565b6000600160008473ffffffffffffffffffffffffffffffffffffffff1673ffffffffffffffffffffffffffffffffffffffff16815260200190815260200160002060008373ffffffffffffffffffffffffffffffffffffffff1673ffffffffffffffffffffffffffffffffffffffff16815260200190815260200160002054905092915050565b6040518060400160405280600581526020017f4b4954545900000000000000000000000000000000000000000000000000000081525081565b600033905090565b600073ffffffffffffffffffffffffffffffffffffffff168373ffffffffffffffffffffffffffffffffffffffff161415610947576040517f08c379a000000000000000000000000000000000000000000000000000000000815260040161093e90611292565b60405180910390fd5b600073ffffffffffffffffffffffffffffffffffffffff168273ffffffffffffffffffffffffffffffffffffffff1614156109b7576040517f08c379a00000000000000000000000000000000000000000000000000000000081526004016109ae90611212565b60405180910390fd5b80600160008573ffffffffffffffffffffffffffffffffffffffff1673ffffffffffffffffffffffffffffffffffffffff16815260200190815260200160002060008473ffffffffffffffffffffffffffffffffffffffff1673ffffffffffffffffffffffffffffffffffffffff168152602001908152602001600020819055508173ffffffffffffffffffffffffffffffffffffffff168373ffffffffffffffffffffffffffffffffffffffff167f8c5be1e5ebec7d5bd14f71427d1e84f3dd0314c0f7b2291e5b200ac8c7c3b92583604051610a9591906112d2565b60405180910390a3505050565b600073ffffffffffffffffffffffffffffffffffffffff168373ffffffffffffffffffffffffffffffffffffffff161415610b12576040517f08c379a0000000000000000000000000000000000000000000000000000000008152600401610b0990611272565b60405180910390fd5b600073ffffffffffffffffffffffffffffffffffffffff168273ffffffffffffffffffffffffffffffffffffffff161415610b82576040517f08c379a0000000000000000000000000000000000000000000000000000000008152600401610b79906111f2565b60405180910390fd5b610b8d838383610d23565b60008060008573ffffffffffffffffffffffffffffffffffffffff1673ffffffffffffffffffffffffffffffffffffffff16815260200190815260200160002054905081811015610c13576040517f08c379a0000000000000000000000000000000000000000000000000000000008152600401610c0a90611232565b60405180910390fd5b8181036000808673ffffffffffffffffffffffffffffffffffffffff1673ffffffffffffffffffffffffffffffffffffffff16815260200190815260200160002081905550816000808573ffffffffffffffffffffffffffffffffffffffff1673ffffffffffffffffffffffffffffffffffffffff1681526020019081526020016000206000828254610ca69190611324565b925050819055508273ffffffffffffffffffffffffffffffffffffffff168473ffffffffffffffffffffffffffffffffffffffff167fddf252ad1be2c89b69c2b068fc378daa952ba7f163c4a11628f55a4df523b3ef84604051610d0a91906112d2565b60405180910390a3610d1d848484610d28565b50505050565b505050565b505050565b600081359050610d3c81611685565b92915050565b600081359050610d518161169c565b92915050565b600081359050610d66816116b3565b92915050565b600060208284031215610d7e57600080fd5b6000610d8c84828501610d2d565b91505092915050565b60008060408385031215610da857600080fd5b6000610db685828601610d2d565b9250506020610dc785828601610d2d565b9150509250929050565b600080600060608486031215610de657600080fd5b6000610df486828701610d2d565b9350506020610e0586828701610d2d565b9250506040610e1686828701610d57565b9150509250925092565b60008060408385031215610e3357600080fd5b6000610e4185828601610d2d565b9250506020610e5285828601610d57565b9150509250929050565b600060208284031215610e6e57600080fd5b6000610e7c84828501610d42565b91505092915050565b610e8e81611557565b82525050565b6000610e9f82611308565b610ea98185611313565b9350610eb98185602086016115a4565b610ec281611667565b840191505092915050565b6000610eda602383611313565b91507f45524332303a207472616e7366657220746f20746865207a65726f206164647260008301527f65737300000000000000000000000000000000000000000000000000000000006020830152604082019050919050565b6000610f40602283611313565b91507f45524332303a20617070726f766520746f20746865207a65726f20616464726560008301527f73730000000000000000000000000000000000000000000000000000000000006020830152604082019050919050565b6000610fa6602683611313565b91507f45524332303a207472616e7366657220616d6f756e742065786365656473206260008301527f616c616e636500000000000000000000000000000000000000000000000000006020830152604082019050919050565b600061100c602883611313565b91507f45524332303a207472616e7366657220616d6f756e742065786365656473206160008301527f6c6c6f77616e63650000000000000000000000000000000000000000000000006020830152604082019050919050565b6000611072602583611313565b91507f45524332303a207472616e736665722066726f6d20746865207a65726f20616460008301527f64726573730000000000000000000000000000000000000000000000000000006020830152604082019050919050565b60006110d8602483611313565b91507f45524332303a20617070726f76652066726f6d20746865207a65726f2061646460008301527f72657373000000000000000000000000000000000000000000000000000000006020830152604082019050919050565b600061113e602583611313565b91507f45524332303a2064656372656173656420616c6c6f77616e63652062656c6f7760008301527f207a65726f0000000000000000000000000000000000000000000000000000006020830152604082019050919050565b6111a08161158d565b82525050565b6111af81611597565b82525050565b60006020820190506111ca6000830184610e85565b92915050565b600060208201905081810360008301526111ea8184610e94565b905092915050565b6000602082019050818103600083015261120b81610ecd565b9050919050565b6000602082019050818103600083015261122b81610f33565b9050919050565b6000602082019050818103600083015261124b81610f99565b9050919050565b6000602082019050818103600083015261126b81610fff565b9050919050565b6000602082019050818103600083015261128b81611065565b9050919050565b600060208201905081810360008301526112ab816110cb565b9050919050565b600060208201905081810360008301526112cb81611131565b9050919050565b60006020820190506112e76000830184611197565b92915050565b600060208201905061130260008301846111a6565b92915050565b600081519050919050565b600082825260208201905092915050565b600061132f8261158d565b915061133a8361158d565b9250827fffffffffffffffffffffffffffffffffffffffffffffffffffffffffffffffff0382111561136f5761136e611609565b5b828201905092915050565b6000808291508390505b60018511156113c4578086048111156113a05761139f611609565b5b60018516156113af5780820291505b80810290506113bd85611678565b9450611384565b94509492505050565b60006113d88261158d565b91506113e38361158d565b92506114107fffffffffffffffffffffffffffffffffffffffffffffffffffffffffffffffff8484611418565b905092915050565b60008261142857600190506114e4565b8161143657600090506114e4565b816001811461144c576002811461145657611485565b60019150506114e4565b60ff84111561146857611467611609565b5b8360020a91508482111561147f5761147e611609565b5b506114e4565b5060208310610133831016604e8410600b84101617156114ba5782820a9050838111156114b5576114b4611609565b5b6114e4565b6114c7848484600161137a565b925090508184048111156114de576114dd611609565b5b81810290505b9392505050565b60006114f68261158d565b91506115018361158d565b9250817fffffffffffffffffffffffffffffffffffffffffffffffffffffffffffffffff048311821515161561153a57611539611609565b5b828202905092915050565b60006115508261156d565b9050919050565b60008115159050919050565b6000819050919050565b600073ffffffffffffffffffffffffffffffffffffffff82169050919050565b6000819050919050565b600060ff82169050919050565b60005b838110156115c25780820151818401526020810190506115a7565b838111156115d1576000848401525b50505050565b600060028204905060018216806115ef57607f821691505b6020821081141561160357611602611638565b5b50919050565b7f4e487b7100000000000000000000000000000000000000000000000000000000600052601160045260246000fd5b7f4e487b7100000000000000000000000000000000000000000000000000000000600052602260045260246000fd5b6000601f19601f8301169050919050565b60008160011c9050919050565b61168e81611545565b811461169957600080fd5b50565b6116a581611563565b81146116b057600080fd5b50565b6116bc8161158d565b81146116c757600080fd5b5056fea26469706673582212208125adb91bece03df14d4ec6bacc8ee843f92adcc734b1928dfcf552a367933b64736f6c63430008000033",
  "linkReferences": {},
  "deployedLinkReferences": {}
}