{
  "address": "0x7F1Dc399558D731Ade3935dD3c1ad9A6f128606A",
  "abi": [
    {
      "inputs": [
        {
          "internalType": "uint256",
          "name": "_windowDuration",
          "type": "uint256"
        },
        {
          "internalType": "uint256",
          "name": "_fee",
          "type": "uint256"
        },
        {
          "internalType": "address",
          "name": "aggregator1",
          "type": "address"
        },
        {
          "internalType": "address",
          "name": "aggregator2",
          "type": "address"
        },
        {
          "internalType": "address",
          "name": "stakingContract",
          "type": "address"
        },
        {
          "internalType": "address",
          "name": "tokenContract",
          "type": "address"
        },
        {
          "internalType": "uint256",
          "name": "reward",
          "type": "uint256"
        }
      ],
      "stateMutability": "nonpayable",
      "type": "constructor"
    },
    {
      "anonymous": false,
      "inputs": [
        {
          "indexed": true,
          "internalType": "uint256",
          "name": "windowNumber",
          "type": "uint256"
        },
        {
          "indexed": true,
          "internalType": "address",
          "name": "user",
          "type": "address"
        },
        {
          "indexed": false,
          "internalType": "uint256",
          "name": "gain",
          "type": "uint256"
        }
      ],
      "name": "BetSettled",
      "type": "event"
    },
    {
      "anonymous": false,
      "inputs": [
        {
          "indexed": true,
          "internalType": "address",
          "name": "user",
          "type": "address"
        },
        {
          "indexed": true,
          "internalType": "uint256",
          "name": "windowNumber",
          "type": "uint256"
        },
        {
          "indexed": false,
          "internalType": "uint256",
          "name": "value",
          "type": "uint256"
        },
        {
          "indexed": false,
          "internalType": "uint8",
          "name": "side",
          "type": "uint8"
        }
      ],
      "name": "NewBet",
      "type": "event"
    },
    {
      "anonymous": false,
      "inputs": [
        {
          "indexed": true,
          "internalType": "uint256",
          "name": "windowNumber",
          "type": "uint256"
        },
        {
          "indexed": false,
          "internalType": "uint256",
          "name": "price",
          "type": "uint256"
        }
      ],
      "name": "PriceUpdated",
      "type": "event"
    },
    {
      "inputs": [],
      "name": "PRECISION_CONSTANT",
      "outputs": [
        {
          "internalType": "int256",
          "name": "",
          "type": "int256"
        }
      ],
      "stateMutability": "view",
      "type": "function"
    },
    {
      "inputs": [],
      "name": "REWARD_PER_WINDOW",
      "outputs": [
        {
          "internalType": "uint256",
          "name": "",
          "type": "uint256"
        }
      ],
      "stateMutability": "view",
      "type": "function"
    },
    {
      "inputs": [
        {
          "internalType": "address",
          "name": "_user",
          "type": "address"
        }
      ],
      "name": "betListLen",
      "outputs": [
        {
          "internalType": "uint256",
          "name": "",
          "type": "uint256"
        }
      ],
      "stateMutability": "view",
      "type": "function"
    },
    {
      "inputs": [
        {
          "internalType": "uint256",
          "name": "upStake",
          "type": "uint256"
        },
        {
          "internalType": "uint256",
          "name": "downStake",
          "type": "uint256"
        },
        {
          "internalType": "uint256",
          "name": "poolUp",
          "type": "uint256"
        },
        {
          "internalType": "uint256",
          "name": "poolDown",
          "type": "uint256"
        }
      ],
      "name": "calculateTokenReward",
      "outputs": [
        {
          "internalType": "uint256",
          "name": "",
          "type": "uint256"
        }
      ],
      "stateMutability": "view",
      "type": "function"
    },
    {
      "inputs": [],
      "name": "deployTimestamp",
      "outputs": [
        {
          "internalType": "uint256",
          "name": "",
          "type": "uint256"
        }
      ],
      "stateMutability": "view",
      "type": "function"
    },
    {
      "inputs": [],
      "name": "fee",
      "outputs": [
        {
          "internalType": "uint256",
          "name": "",
          "type": "uint256"
        }
      ],
      "stateMutability": "view",
      "type": "function"
    },
    {
      "inputs": [
        {
          "internalType": "uint256",
          "name": "windowNumber",
          "type": "uint256"
        }
      ],
      "name": "getPoolValues",
      "outputs": [
        {
          "internalType": "uint256",
          "name": "",
          "type": "uint256"
        },
        {
          "internalType": "uint256",
          "name": "",
          "type": "uint256"
        }
      ],
      "stateMutability": "view",
      "type": "function"
    },
    {
      "inputs": [
        {
          "internalType": "address",
          "name": "_user",
          "type": "address"
        },
        {
          "internalType": "uint256",
          "name": "index",
          "type": "uint256"
        }
      ],
      "name": "getUserBetList",
      "outputs": [
        {
          "internalType": "uint256",
          "name": "",
          "type": "uint256"
        }
      ],
      "stateMutability": "view",
      "type": "function"
    },
    {
      "inputs": [
        {
          "internalType": "uint256",
          "name": "windowNumber",
          "type": "uint256"
        },
        {
          "internalType": "address",
          "name": "_user",
          "type": "address"
        }
      ],
      "name": "getUserStake",
      "outputs": [
        {
          "internalType": "uint256",
          "name": "",
          "type": "uint256"
        },
        {
          "internalType": "uint256",
          "name": "",
          "type": "uint256"
        }
      ],
      "stateMutability": "view",
      "type": "function"
    },
    {
      "inputs": [
        {
          "internalType": "uint256",
          "name": "window",
          "type": "uint256"
        }
      ],
      "name": "getWindowBetPrices",
      "outputs": [
        {
          "internalType": "uint256",
          "name": "",
          "type": "uint256"
        },
        {
          "internalType": "uint256",
          "name": "",
          "type": "uint256"
        }
      ],
      "stateMutability": "view",
      "type": "function"
    },
    {
      "inputs": [
        {
          "internalType": "uint8",
          "name": "side",
          "type": "uint8"
        }
      ],
      "name": "placeBet",
      "outputs": [],
      "stateMutability": "payable",
      "type": "function"
    },
    {
      "inputs": [
        {
          "internalType": "uint256",
          "name": "",
          "type": "uint256"
        }
      ],
      "name": "pools",
      "outputs": [
        {
          "internalType": "uint256",
          "name": "downValue",
          "type": "uint256"
        },
        {
          "internalType": "uint256",
          "name": "upValue",
          "type": "uint256"
        }
      ],
      "stateMutability": "view",
      "type": "function"
    },
    {
      "inputs": [
        {
          "internalType": "uint256",
          "name": "upStake",
          "type": "uint256"
        },
        {
          "internalType": "uint256",
          "name": "downStake",
          "type": "uint256"
        },
        {
          "internalType": "uint256",
          "name": "poolUp",
          "type": "uint256"
        },
        {
          "internalType": "uint256",
          "name": "poolDown",
          "type": "uint256"
        },
        {
          "internalType": "uint8",
          "name": "res",
          "type": "uint8"
        }
      ],
      "name": "settleBet",
      "outputs": [
        {
          "internalType": "uint256",
          "name": "gain",
          "type": "uint256"
        },
        {
          "internalType": "uint256",
          "name": "fees",
          "type": "uint256"
        }
      ],
      "stateMutability": "view",
      "type": "function"
    },
    {
      "inputs": [
        {
          "internalType": "address",
          "name": "_user",
          "type": "address"
        }
      ],
      "name": "updateBalance",
      "outputs": [],
      "stateMutability": "nonpayable",
      "type": "function"
    },
    {
      "inputs": [],
      "name": "updatePrice",
      "outputs": [],
      "stateMutability": "nonpayable",
      "type": "function"
    },
    {
      "inputs": [],
      "name": "windowDuration",
      "outputs": [
        {
          "internalType": "uint256",
          "name": "",
          "type": "uint256"
        }
      ],
      "stateMutability": "view",
      "type": "function"
    },
    {
      "inputs": [
        {
          "internalType": "uint256",
          "name": "",
          "type": "uint256"
        }
      ],
      "name": "windowPrice",
      "outputs": [
        {
          "internalType": "uint256",
          "name": "",
          "type": "uint256"
        }
      ],
      "stateMutability": "view",
      "type": "function"
    }
  ],
  "transactionHash": "0x0c2bf530942624192f5601fe04c052817da0ad6d5242a97ff2f7d09e017d1aa3",
  "args": [
    86400,
    2,
    "0x13e3Ee699D1909E989722E753853AE30b17e08c5",
    "0xD702DD976Fb76Fffc2D3963D037dfDae5b04E593",
    "0xedC0aD36Cd0501ADAD7bE9A39dAA824af3590320",
    "0x165DBb08de0476271714952C3C1F068693bd60D7",
    5000
  ],
  "solcInputHash": "bc724065de7df2143a09f3584d1b636a",
  "bytecode": "0x6101606040526b033b2e3c9fd0803ce80000006000553480156200002257600080fd5b5060405162001cae38038062001cae8339810160408190526200004591620000f6565b60648611156200005457600080fd5b600180546001600160a01b038088166001600160a01b031992831617909255600280549287169290911691909117905542610120526101408790526101008690526001600160601b0319606084811b821660c081905260a05283901b16608052620000c881670de0b6b3a764000062000170565b60e052506200019e95505050505050565b80516001600160a01b0381168114620000f157600080fd5b919050565b600080600080600080600060e0888a0312156200011257600080fd5b87519650602088015195506200012b60408901620000d9565b94506200013b60608901620000d9565b93506200014b60808901620000d9565b92506200015b60a08901620000d9565b915060c0880151905092959891949750929550565b60008160001904831182151516156200019957634e487b7160e01b600052601160045260246000fd5b500290565b60805160601c60a05160601c60c05160601c60e051610100516101205161014051611a6962000245600039600081816101e2015281816104e601528181610ad60152610d3a0152600081816102160152818161050c01528181610afc0152610d600152600081816103d60152610f3c01526000818161025f015261105e01526000505060006109a3015260008181611118015281816111f801526112a80152611a696000f3fe60806040526004361061010e5760003560e01c806389b808a7116100a5578063ca055e5311610074578063ddca3f4311610059578063ddca3f43146103c4578063e0d65d87146103f8578063f83b35fb1461042557600080fd5b8063ca055e5314610384578063daaac9d2146103a457600080fd5b806389b808a7146102815780639626a230146102c7578063ac4afa3814610330578063b47a35661461036457600080fd5b80635c11ff7a116100e15780635c11ff7a146101d0578063607ad0d714610204578063673a7e281461023857806371a422071461024d57600080fd5b80630eff4d88146101135780633f63e7631461017757806340b8405a1461019b57806343046844146101bd575b600080fd5b34801561011f57600080fd5b5061015d61012e366004611527565b600090815260036020908152604091829020825180840190935280548084526001909101549290910182905291565b604080519283526020830191909152015b60405180910390f35b34801561018357600080fd5b5061018d60005481565b60405190815260200161016e565b3480156101a757600080fd5b506101bb6101b6366004611569565b610445565b005b6101bb6101cb36600461159a565b610a29565b3480156101dc57600080fd5b5061018d7f000000000000000000000000000000000000000000000000000000000000000081565b34801561021057600080fd5b5061018d7f000000000000000000000000000000000000000000000000000000000000000081565b34801561024457600080fd5b506101bb610d0c565b34801561025957600080fd5b5061018d7f000000000000000000000000000000000000000000000000000000000000000081565b34801561028d57600080fd5b5061018d61029c366004611569565b73ffffffffffffffffffffffffffffffffffffffff1660009081526004602052604090206001015490565b3480156102d357600080fd5b5061015d6102e23660046115b7565b73ffffffffffffffffffffffffffffffffffffffff16600090815260046020908152604080832093835292815290829020825180840190935280548084526001909101549290910182905291565b34801561033c57600080fd5b5061015d61034b366004611527565b6003602052600090815260409020805460019091015482565b34801561037057600080fd5b5061018d61037f3660046115e3565b610e64565b34801561039057600080fd5b5061015d61039f36600461160d565b610eb1565b3480156103b057600080fd5b5061018d6103bf36600461165a565b611057565b3480156103d057600080fd5b5061018d7f000000000000000000000000000000000000000000000000000000000000000081565b34801561040457600080fd5b5061018d610413366004611527565b60056020526000908152604090205481565b34801561043157600080fd5b5061015d610440366004611527565b61109f565b73ffffffffffffffffffffffffffffffffffffffff811660009081526004602052604090206001810154610477575050565b6001810154600090819081905b801561093f5760008560010160018361049d91906116bb565b815481106104ad576104ad6116d2565b60009182526020822001546040517f508ba0bd0000000000000000000000000000000000000000000000000000000081524260048201527f000000000000000000000000000000000000000000000000000000000000000060248201527f00000000000000000000000000000000000000000000000000000000000000006044820152909250734FD485BDe06220397Ce775A4f5029d384aa03B3E9063508ba0bd9060640160206040518083038186803b15801561056a57600080fd5b505af415801561057e573d6000803e3d6000fd5b505050506040513d601f19601f820116820180604052508101906105a29190611701565b90506000806105b08461109f565b6040517fb134894e000000000000000000000000000000000000000000000000000000008152600481018790526024810186905260448101839052606481018290529193509150600090734FD485BDe06220397Ce775A4f5029d384aa03B3E9063b134894e9060840160206040518083038186803b15801561063157600080fd5b505af4158015610645573d6000803e3d6000fd5b505050506040513d601f19601f82011682018060405250810190610669919061171a565b9050600081600381111561067f5761067f61173b565b148061069c5750600181600381111561069a5761069a61173b565b145b156106ab57505050505061092d565b600060038260038111156106c1576106c161173b565b1415610771576040517fc886d8a40000000000000000000000000000000000000000000000000000000081526004810185905260248101849052734FD485BDe06220397Ce775A4f5029d384aa03B3E9063c886d8a49060440160206040518083038186803b15801561073257600080fd5b505af4158015610746573d6000803e3d6000fd5b505050506040513d601f19601f8201168201806040525081019061076a919061176a565b905061078f565b60028260038111156107855761078561173b565b141561078f575060025b6001808c01805490916107a1916116bb565b815481106107b1576107b16116d2565b90600052602060002001548b6001016001896107cd91906116bb565b815481106107dd576107dd6116d2565b60009182526020909120015560018b018054806107fc576107fc611787565b6000828152602080822083017fffffffffffffffffffffffffffffffffffffffffffffffffffffffffffffffff9081018390559092019092558782528c8152604080832081518083018352815481526001918201548185019081528b8652600385528386208451808601909552805480865293015494840185905251815191959394849361088c93919089610eb1565b909250905061089b828f6117b6565b9d506108a7818d6117b6565b9b506108c58460200151856000015185602001518660000151611057565b6108cf908e6117b6565b9c508f73ffffffffffffffffffffffffffffffffffffffff168a7f6f277b50171c654e40c771d9c2bbf19e070eeb21cce6f8e9a80334564279e3958460405161091a91815260200190565b60405180910390a3505050505050505050505b80610937816117ce565b915050610484565b50821561098b5760405173ffffffffffffffffffffffffffffffffffffffff86169084156108fc029085906000818181858888f19350505050158015610989573d6000803e3d6000fd5b505b811561099b5761099b85836110e8565b8015610a22577f000000000000000000000000000000000000000000000000000000000000000073ffffffffffffffffffffffffffffffffffffffff16625c33e1826040518263ffffffff1660e01b81526004016000604051808303818588803b158015610a0857600080fd5b505af1158015610a1c573d6000803e3d6000fd5b50505050505b5050505050565b60003411610a97576040517f08c379a000000000000000000000000000000000000000000000000000000000815260206004820152601d60248201527f4f6e6c79207374726963746c7920706f7369746976652076616c756573000000604482015260640160405180910390fd5b610a9f610d0c565b610aa833610445565b6040517f508ba0bd0000000000000000000000000000000000000000000000000000000081524260048201527f000000000000000000000000000000000000000000000000000000000000000060248201527f00000000000000000000000000000000000000000000000000000000000000006044820152600090734FD485BDe06220397Ce775A4f5029d384aa03B3E9063508ba0bd9060640160206040518083038186803b158015610b5a57600080fd5b505af4158015610b6e573d6000803e3d6000fd5b505050506040513d601f19601f82011682018060405250810190610b929190611701565b3360009081526004602052604090206001810154919250901580610be25750600180820180549091610bc3916116bb565b81548110610bd357610bd36116d2565b90600052602060002001548214155b15610c0157600180820180549182018155600090815260209020018290555b60018360ff166001811115610c1857610c1861173b565b6001811115610c2957610c2961173b565b1415610c815760008281526020829052604081206001018054349290610c509084906117b6565b909155505060008281526003602052604081206001018054349290610c769084906117b6565b90915550610cc89050565b60008281526020829052604081208054349290610c9f9084906117b6565b909155505060008281526003602052604081208054349290610cc29084906117b6565b90915550505b6040805134815260ff85166020820152839133917f85ff162f60a0eab11e1e0d3d9cfa18a46d7038a29751af4130dbaeeadbd37ed4910160405180910390a3505050565b6040517f508ba0bd0000000000000000000000000000000000000000000000000000000081524260048201527f000000000000000000000000000000000000000000000000000000000000000060248201527f00000000000000000000000000000000000000000000000000000000000000006044820152600090734FD485BDe06220397Ce775A4f5029d384aa03B3E9063508ba0bd9060640160206040518083038186803b158015610dbe57600080fd5b505af4158015610dd2573d6000803e3d6000fd5b505050506040513d601f19601f82011682018060405250810190610df69190611701565b600081815260056020526040902054909150610e6157610e14611397565b600082815260056020526040908190208290555182917f945c1c4e99aa89f648fbfe3df471b916f719e16d960fcec0737d4d56bd69683891610e5891815260200190565b60405180910390a25b50565b73ffffffffffffffffffffffffffffffffffffffff82166000908152600460205260408120600101805483908110610e9e57610e9e6116d2565b9060005260206000200154905092915050565b60008060008360ff166002811115610ecb57610ecb61173b565b90506000610ed986886117b6565b905060006001836002811115610ef157610ef161173b565b148015610efd57508715155b15610fe557610f0d828b8a611508565b6040517f2ff284c2000000000000000000000000000000000000000000000000000000008152600481018290527f00000000000000000000000000000000000000000000000000000000000000006024820152909150734FD485BDe06220397Ce775A4f5029d384aa03B3E90632ff284c29060440160206040518083038186803b158015610f9a57600080fd5b505af4158015610fae573d6000803e3d6000fd5b505050506040513d601f19601f82011682018060405250810190610fd29190611701565b9350610fde84826116bb565b945061104a565b6000836002811115610ff957610ff961173b565b14801561100557508615155b1561101557610f0d828a89611508565b60028360028111156110295761102961173b565b141561103957610fde898b6117b6565b60009450611047898b6117b6565b93505b5050509550959350505050565b60006110967f000000000000000000000000000000000000000000000000000000000000000061108786886117b6565b61109185876117b6565b611508565b95945050505050565b6000806005816110b08560016117b6565b815260200190815260200160002054600560008560026110d091906117b6565b81526020019081526020016000205491509150915091565b6040517f70a0823100000000000000000000000000000000000000000000000000000000815230600482015281907f000000000000000000000000000000000000000000000000000000000000000073ffffffffffffffffffffffffffffffffffffffff16906370a082319060240160206040518083038186803b15801561116f57600080fd5b505afa158015611183573d6000803e3d6000fd5b505050506040513d601f19601f820116820180604052508101906111a79190611701565b1061127a576040517fa9059cbb00000000000000000000000000000000000000000000000000000000815273ffffffffffffffffffffffffffffffffffffffff8381166004830152602482018390527f0000000000000000000000000000000000000000000000000000000000000000169063a9059cbb906044015b602060405180830381600087803b15801561123d57600080fd5b505af1158015611251573d6000803e3d6000fd5b505050506040513d601f19601f820116820180604052508101906112759190611803565b505050565b6040517f70a082310000000000000000000000000000000000000000000000000000000081523060048201527f000000000000000000000000000000000000000000000000000000000000000073ffffffffffffffffffffffffffffffffffffffff169063a9059cbb90849083906370a082319060240160206040518083038186803b15801561130957600080fd5b505afa15801561131d573d6000803e3d6000fd5b505050506040513d601f19601f820116820180604052508101906113419190611701565b6040517fffffffff0000000000000000000000000000000000000000000000000000000060e085901b16815273ffffffffffffffffffffffffffffffffffffffff90921660048301526024820152604401611223565b600080600160009054906101000a900473ffffffffffffffffffffffffffffffffffffffff1673ffffffffffffffffffffffffffffffffffffffff1663feaf968c6040518163ffffffff1660e01b815260040160a06040518083038186803b15801561140257600080fd5b505afa158015611416573d6000803e3d6000fd5b505050506040513d601f19601f8201168201806040525081019061143a919061183f565b5050509150506000600260009054906101000a900473ffffffffffffffffffffffffffffffffffffffff1673ffffffffffffffffffffffffffffffffffffffff1663feaf968c6040518163ffffffff1660e01b815260040160a06040518083038186803b1580156114aa57600080fd5b505afa1580156114be573d6000803e3d6000fd5b505050506040513d601f19601f820116820180604052508101906114e2919061183f565b50505091505080600054836114f7919061188f565b611501919061197a565b9250505090565b60008161151585856119e2565b61151f9190611a1f565b949350505050565b60006020828403121561153957600080fd5b5035919050565b803573ffffffffffffffffffffffffffffffffffffffff8116811461156457600080fd5b919050565b60006020828403121561157b57600080fd5b61158482611540565b9392505050565b60ff81168114610e6157600080fd5b6000602082840312156115ac57600080fd5b81356115848161158b565b600080604083850312156115ca57600080fd5b823591506115da60208401611540565b90509250929050565b600080604083850312156115f657600080fd5b6115ff83611540565b946020939093013593505050565b600080600080600060a0868803121561162557600080fd5b85359450602086013593506040860135925060608601359150608086013561164c8161158b565b809150509295509295909350565b6000806000806080858703121561167057600080fd5b5050823594602084013594506040840135936060013592509050565b7f4e487b7100000000000000000000000000000000000000000000000000000000600052601160045260246000fd5b6000828210156116cd576116cd61168c565b500390565b7f4e487b7100000000000000000000000000000000000000000000000000000000600052603260045260246000fd5b60006020828403121561171357600080fd5b5051919050565b60006020828403121561172c57600080fd5b81516004811061158457600080fd5b7f4e487b7100000000000000000000000000000000000000000000000000000000600052602160045260246000fd5b60006020828403121561177c57600080fd5b81516115848161158b565b7f4e487b7100000000000000000000000000000000000000000000000000000000600052603160045260246000fd5b600082198211156117c9576117c961168c565b500190565b6000816117dd576117dd61168c565b507fffffffffffffffffffffffffffffffffffffffffffffffffffffffffffffffff0190565b60006020828403121561181557600080fd5b8151801515811461158457600080fd5b805169ffffffffffffffffffff8116811461156457600080fd5b600080600080600060a0868803121561185757600080fd5b61186086611825565b945060208601519350604086015192506060860151915061188360808701611825565b90509295509295909350565b60007f7fffffffffffffffffffffffffffffffffffffffffffffffffffffffffffffff6000841360008413858304851182821616156118d0576118d061168c565b7f8000000000000000000000000000000000000000000000000000000000000000600087128682058812818416161561190b5761190b61168c565b600087129250878205871284841616156119275761192761168c565b8785058712818416161561193d5761193d61168c565b505050929093029392505050565b7f4e487b7100000000000000000000000000000000000000000000000000000000600052601260045260246000fd5b6000826119895761198961194b565b7fffffffffffffffffffffffffffffffffffffffffffffffffffffffffffffffff83147f8000000000000000000000000000000000000000000000000000000000000000831416156119dd576119dd61168c565b500590565b6000817fffffffffffffffffffffffffffffffffffffffffffffffffffffffffffffffff0483118215151615611a1a57611a1a61168c565b500290565b600082611a2e57611a2e61194b565b50049056fea2646970667358221220e8e779dc0a98b1cc3ff1c3f31ed0abc3cf5623b5b84f07d54d3486ef08aeab6964736f6c63430008080033",
  "deployedBytecode": "0x60806040526004361061010e5760003560e01c806389b808a7116100a5578063ca055e5311610074578063ddca3f4311610059578063ddca3f43146103c4578063e0d65d87146103f8578063f83b35fb1461042557600080fd5b8063ca055e5314610384578063daaac9d2146103a457600080fd5b806389b808a7146102815780639626a230146102c7578063ac4afa3814610330578063b47a35661461036457600080fd5b80635c11ff7a116100e15780635c11ff7a146101d0578063607ad0d714610204578063673a7e281461023857806371a422071461024d57600080fd5b80630eff4d88146101135780633f63e7631461017757806340b8405a1461019b57806343046844146101bd575b600080fd5b34801561011f57600080fd5b5061015d61012e366004611527565b600090815260036020908152604091829020825180840190935280548084526001909101549290910182905291565b604080519283526020830191909152015b60405180910390f35b34801561018357600080fd5b5061018d60005481565b60405190815260200161016e565b3480156101a757600080fd5b506101bb6101b6366004611569565b610445565b005b6101bb6101cb36600461159a565b610a29565b3480156101dc57600080fd5b5061018d7f000000000000000000000000000000000000000000000000000000000000000081565b34801561021057600080fd5b5061018d7f000000000000000000000000000000000000000000000000000000000000000081565b34801561024457600080fd5b506101bb610d0c565b34801561025957600080fd5b5061018d7f000000000000000000000000000000000000000000000000000000000000000081565b34801561028d57600080fd5b5061018d61029c366004611569565b73ffffffffffffffffffffffffffffffffffffffff1660009081526004602052604090206001015490565b3480156102d357600080fd5b5061015d6102e23660046115b7565b73ffffffffffffffffffffffffffffffffffffffff16600090815260046020908152604080832093835292815290829020825180840190935280548084526001909101549290910182905291565b34801561033c57600080fd5b5061015d61034b366004611527565b6003602052600090815260409020805460019091015482565b34801561037057600080fd5b5061018d61037f3660046115e3565b610e64565b34801561039057600080fd5b5061015d61039f36600461160d565b610eb1565b3480156103b057600080fd5b5061018d6103bf36600461165a565b611057565b3480156103d057600080fd5b5061018d7f000000000000000000000000000000000000000000000000000000000000000081565b34801561040457600080fd5b5061018d610413366004611527565b60056020526000908152604090205481565b34801561043157600080fd5b5061015d610440366004611527565b61109f565b73ffffffffffffffffffffffffffffffffffffffff811660009081526004602052604090206001810154610477575050565b6001810154600090819081905b801561093f5760008560010160018361049d91906116bb565b815481106104ad576104ad6116d2565b60009182526020822001546040517f508ba0bd0000000000000000000000000000000000000000000000000000000081524260048201527f000000000000000000000000000000000000000000000000000000000000000060248201527f0000000000000000000000000000000000000000000000000000000000000000604482015290925073__$686c523504a9e378bd393220b2fc4a35a6$__9063508ba0bd9060640160206040518083038186803b15801561056a57600080fd5b505af415801561057e573d6000803e3d6000fd5b505050506040513d601f19601f820116820180604052508101906105a29190611701565b90506000806105b08461109f565b6040517fb134894e00000000000000000000000000000000000000000000000000000000815260048101879052602481018690526044810183905260648101829052919350915060009073__$686c523504a9e378bd393220b2fc4a35a6$__9063b134894e9060840160206040518083038186803b15801561063157600080fd5b505af4158015610645573d6000803e3d6000fd5b505050506040513d601f19601f82011682018060405250810190610669919061171a565b9050600081600381111561067f5761067f61173b565b148061069c5750600181600381111561069a5761069a61173b565b145b156106ab57505050505061092d565b600060038260038111156106c1576106c161173b565b1415610771576040517fc886d8a4000000000000000000000000000000000000000000000000000000008152600481018590526024810184905273__$686c523504a9e378bd393220b2fc4a35a6$__9063c886d8a49060440160206040518083038186803b15801561073257600080fd5b505af4158015610746573d6000803e3d6000fd5b505050506040513d601f19601f8201168201806040525081019061076a919061176a565b905061078f565b60028260038111156107855761078561173b565b141561078f575060025b6001808c01805490916107a1916116bb565b815481106107b1576107b16116d2565b90600052602060002001548b6001016001896107cd91906116bb565b815481106107dd576107dd6116d2565b60009182526020909120015560018b018054806107fc576107fc611787565b6000828152602080822083017fffffffffffffffffffffffffffffffffffffffffffffffffffffffffffffffff9081018390559092019092558782528c8152604080832081518083018352815481526001918201548185019081528b8652600385528386208451808601909552805480865293015494840185905251815191959394849361088c93919089610eb1565b909250905061089b828f6117b6565b9d506108a7818d6117b6565b9b506108c58460200151856000015185602001518660000151611057565b6108cf908e6117b6565b9c508f73ffffffffffffffffffffffffffffffffffffffff168a7f6f277b50171c654e40c771d9c2bbf19e070eeb21cce6f8e9a80334564279e3958460405161091a91815260200190565b60405180910390a3505050505050505050505b80610937816117ce565b915050610484565b50821561098b5760405173ffffffffffffffffffffffffffffffffffffffff86169084156108fc029085906000818181858888f19350505050158015610989573d6000803e3d6000fd5b505b811561099b5761099b85836110e8565b8015610a22577f000000000000000000000000000000000000000000000000000000000000000073ffffffffffffffffffffffffffffffffffffffff16625c33e1826040518263ffffffff1660e01b81526004016000604051808303818588803b158015610a0857600080fd5b505af1158015610a1c573d6000803e3d6000fd5b50505050505b5050505050565b60003411610a97576040517f08c379a000000000000000000000000000000000000000000000000000000000815260206004820152601d60248201527f4f6e6c79207374726963746c7920706f7369746976652076616c756573000000604482015260640160405180910390fd5b610a9f610d0c565b610aa833610445565b6040517f508ba0bd0000000000000000000000000000000000000000000000000000000081524260048201527f000000000000000000000000000000000000000000000000000000000000000060248201527f0000000000000000000000000000000000000000000000000000000000000000604482015260009073__$686c523504a9e378bd393220b2fc4a35a6$__9063508ba0bd9060640160206040518083038186803b158015610b5a57600080fd5b505af4158015610b6e573d6000803e3d6000fd5b505050506040513d601f19601f82011682018060405250810190610b929190611701565b3360009081526004602052604090206001810154919250901580610be25750600180820180549091610bc3916116bb565b81548110610bd357610bd36116d2565b90600052602060002001548214155b15610c0157600180820180549182018155600090815260209020018290555b60018360ff166001811115610c1857610c1861173b565b6001811115610c2957610c2961173b565b1415610c815760008281526020829052604081206001018054349290610c509084906117b6565b909155505060008281526003602052604081206001018054349290610c769084906117b6565b90915550610cc89050565b60008281526020829052604081208054349290610c9f9084906117b6565b909155505060008281526003602052604081208054349290610cc29084906117b6565b90915550505b6040805134815260ff85166020820152839133917f85ff162f60a0eab11e1e0d3d9cfa18a46d7038a29751af4130dbaeeadbd37ed4910160405180910390a3505050565b6040517f508ba0bd0000000000000000000000000000000000000000000000000000000081524260048201527f000000000000000000000000000000000000000000000000000000000000000060248201527f0000000000000000000000000000000000000000000000000000000000000000604482015260009073__$686c523504a9e378bd393220b2fc4a35a6$__9063508ba0bd9060640160206040518083038186803b158015610dbe57600080fd5b505af4158015610dd2573d6000803e3d6000fd5b505050506040513d601f19601f82011682018060405250810190610df69190611701565b600081815260056020526040902054909150610e6157610e14611397565b600082815260056020526040908190208290555182917f945c1c4e99aa89f648fbfe3df471b916f719e16d960fcec0737d4d56bd69683891610e5891815260200190565b60405180910390a25b50565b73ffffffffffffffffffffffffffffffffffffffff82166000908152600460205260408120600101805483908110610e9e57610e9e6116d2565b9060005260206000200154905092915050565b60008060008360ff166002811115610ecb57610ecb61173b565b90506000610ed986886117b6565b905060006001836002811115610ef157610ef161173b565b148015610efd57508715155b15610fe557610f0d828b8a611508565b6040517f2ff284c2000000000000000000000000000000000000000000000000000000008152600481018290527f0000000000000000000000000000000000000000000000000000000000000000602482015290915073__$686c523504a9e378bd393220b2fc4a35a6$__90632ff284c29060440160206040518083038186803b158015610f9a57600080fd5b505af4158015610fae573d6000803e3d6000fd5b505050506040513d601f19601f82011682018060405250810190610fd29190611701565b9350610fde84826116bb565b945061104a565b6000836002811115610ff957610ff961173b565b14801561100557508615155b1561101557610f0d828a89611508565b60028360028111156110295761102961173b565b141561103957610fde898b6117b6565b60009450611047898b6117b6565b93505b5050509550959350505050565b60006110967f000000000000000000000000000000000000000000000000000000000000000061108786886117b6565b61109185876117b6565b611508565b95945050505050565b6000806005816110b08560016117b6565b815260200190815260200160002054600560008560026110d091906117b6565b81526020019081526020016000205491509150915091565b6040517f70a0823100000000000000000000000000000000000000000000000000000000815230600482015281907f000000000000000000000000000000000000000000000000000000000000000073ffffffffffffffffffffffffffffffffffffffff16906370a082319060240160206040518083038186803b15801561116f57600080fd5b505afa158015611183573d6000803e3d6000fd5b505050506040513d601f19601f820116820180604052508101906111a79190611701565b1061127a576040517fa9059cbb00000000000000000000000000000000000000000000000000000000815273ffffffffffffffffffffffffffffffffffffffff8381166004830152602482018390527f0000000000000000000000000000000000000000000000000000000000000000169063a9059cbb906044015b602060405180830381600087803b15801561123d57600080fd5b505af1158015611251573d6000803e3d6000fd5b505050506040513d601f19601f820116820180604052508101906112759190611803565b505050565b6040517f70a082310000000000000000000000000000000000000000000000000000000081523060048201527f000000000000000000000000000000000000000000000000000000000000000073ffffffffffffffffffffffffffffffffffffffff169063a9059cbb90849083906370a082319060240160206040518083038186803b15801561130957600080fd5b505afa15801561131d573d6000803e3d6000fd5b505050506040513d601f19601f820116820180604052508101906113419190611701565b6040517fffffffff0000000000000000000000000000000000000000000000000000000060e085901b16815273ffffffffffffffffffffffffffffffffffffffff90921660048301526024820152604401611223565b600080600160009054906101000a900473ffffffffffffffffffffffffffffffffffffffff1673ffffffffffffffffffffffffffffffffffffffff1663feaf968c6040518163ffffffff1660e01b815260040160a06040518083038186803b15801561140257600080fd5b505afa158015611416573d6000803e3d6000fd5b505050506040513d601f19601f8201168201806040525081019061143a919061183f565b5050509150506000600260009054906101000a900473ffffffffffffffffffffffffffffffffffffffff1673ffffffffffffffffffffffffffffffffffffffff1663feaf968c6040518163ffffffff1660e01b815260040160a06040518083038186803b1580156114aa57600080fd5b505afa1580156114be573d6000803e3d6000fd5b505050506040513d601f19601f820116820180604052508101906114e2919061183f565b50505091505080600054836114f7919061188f565b611501919061197a565b9250505090565b60008161151585856119e2565b61151f9190611a1f565b949350505050565b60006020828403121561153957600080fd5b5035919050565b803573ffffffffffffffffffffffffffffffffffffffff8116811461156457600080fd5b919050565b60006020828403121561157b57600080fd5b61158482611540565b9392505050565b60ff81168114610e6157600080fd5b6000602082840312156115ac57600080fd5b81356115848161158b565b600080604083850312156115ca57600080fd5b823591506115da60208401611540565b90509250929050565b600080604083850312156115f657600080fd5b6115ff83611540565b946020939093013593505050565b600080600080600060a0868803121561162557600080fd5b85359450602086013593506040860135925060608601359150608086013561164c8161158b565b809150509295509295909350565b6000806000806080858703121561167057600080fd5b5050823594602084013594506040840135936060013592509050565b7f4e487b7100000000000000000000000000000000000000000000000000000000600052601160045260246000fd5b6000828210156116cd576116cd61168c565b500390565b7f4e487b7100000000000000000000000000000000000000000000000000000000600052603260045260246000fd5b60006020828403121561171357600080fd5b5051919050565b60006020828403121561172c57600080fd5b81516004811061158457600080fd5b7f4e487b7100000000000000000000000000000000000000000000000000000000600052602160045260246000fd5b60006020828403121561177c57600080fd5b81516115848161158b565b7f4e487b7100000000000000000000000000000000000000000000000000000000600052603160045260246000fd5b600082198211156117c9576117c961168c565b500190565b6000816117dd576117dd61168c565b507fffffffffffffffffffffffffffffffffffffffffffffffffffffffffffffffff0190565b60006020828403121561181557600080fd5b8151801515811461158457600080fd5b805169ffffffffffffffffffff8116811461156457600080fd5b600080600080600060a0868803121561185757600080fd5b61186086611825565b945060208601519350604086015192506060860151915061188360808701611825565b90509295509295909350565b60007f7fffffffffffffffffffffffffffffffffffffffffffffffffffffffffffffff6000841360008413858304851182821616156118d0576118d061168c565b7f8000000000000000000000000000000000000000000000000000000000000000600087128682058812818416161561190b5761190b61168c565b600087129250878205871284841616156119275761192761168c565b8785058712818416161561193d5761193d61168c565b505050929093029392505050565b7f4e487b7100000000000000000000000000000000000000000000000000000000600052601260045260246000fd5b6000826119895761198961194b565b7fffffffffffffffffffffffffffffffffffffffffffffffffffffffffffffffff83147f8000000000000000000000000000000000000000000000000000000000000000831416156119dd576119dd61168c565b500590565b6000817fffffffffffffffffffffffffffffffffffffffffffffffffffffffffffffffff0483118215151615611a1a57611a1a61168c565b500290565b600082611a2e57611a2e61194b565b50049056fea2646970667358221220e8e779dc0a98b1cc3ff1c3f31ed0abc3cf5623b5b84f07d54d3486ef08aeab6964736f6c63430008080033",
  "libraries": {
    "BetLibrary": "0x4FD485BDe06220397Ce775A4f5029d384aa03B3E"
  },
  "devdoc": {
    "kind": "dev",
    "methods": {},
    "version": 1
  },
  "userdoc": {
    "kind": "user",
    "methods": {},
    "version": 1
  },
  "storageLayout": {
    "storage": [
      {
        "astId": 3780,
        "contract": "contracts/Flip.sol:Flip",
        "label": "PRECISION_CONSTANT",
        "offset": 0,
        "slot": "0",
        "type": "t_int256"
      },
      {
        "astId": 3783,
        "contract": "contracts/Flip.sol:Flip",
        "label": "priceFeed1",
        "offset": 0,
        "slot": "1",
        "type": "t_contract(AggregatorV3Interface)45"
      },
      {
        "astId": 3786,
        "contract": "contracts/Flip.sol:Flip",
        "label": "priceFeed2",
        "offset": 0,
        "slot": "2",
        "type": "t_contract(AggregatorV3Interface)45"
      },
      {
        "astId": 3801,
        "contract": "contracts/Flip.sol:Flip",
        "label": "pools",
        "offset": 0,
        "slot": "3",
        "type": "t_mapping(t_uint256,t_struct(Pool)1503_storage)"
      },
      {
        "astId": 3810,
        "contract": "contracts/Flip.sol:Flip",
        "label": "user",
        "offset": 0,
        "slot": "4",
        "type": "t_mapping(t_address,t_struct(User)1512_storage)"
      },
      {
        "astId": 3816,
        "contract": "contracts/Flip.sol:Flip",
        "label": "windowPrice",
        "offset": 0,
        "slot": "5",
        "type": "t_mapping(t_uint256,t_uint256)"
      }
    ],
    "types": {
      "t_address": {
        "encoding": "inplace",
        "label": "address",
        "numberOfBytes": "20"
      },
      "t_array(t_uint256)dyn_storage": {
        "base": "t_uint256",
        "encoding": "dynamic_array",
        "label": "uint256[]",
        "numberOfBytes": "32"
      },
      "t_contract(AggregatorV3Interface)45": {
        "encoding": "inplace",
        "label": "contract AggregatorV3Interface",
        "numberOfBytes": "20"
      },
      "t_int256": {
        "encoding": "inplace",
        "label": "int256",
        "numberOfBytes": "32"
      },
      "t_mapping(t_address,t_struct(User)1512_storage)": {
        "encoding": "mapping",
        "key": "t_address",
        "label": "mapping(address => struct BetLibrary.User)",
        "numberOfBytes": "32",
        "value": "t_struct(User)1512_storage"
      },
      "t_mapping(t_uint256,t_struct(Pool)1503_storage)": {
        "encoding": "mapping",
        "key": "t_uint256",
        "label": "mapping(uint256 => struct BetLibrary.Pool)",
        "numberOfBytes": "32",
        "value": "t_struct(Pool)1503_storage"
      },
      "t_mapping(t_uint256,t_uint256)": {
        "encoding": "mapping",
        "key": "t_uint256",
        "label": "mapping(uint256 => uint256)",
        "numberOfBytes": "32",
        "value": "t_uint256"
      },
      "t_struct(Pool)1503_storage": {
        "encoding": "inplace",
        "label": "struct BetLibrary.Pool",
        "members": [
          {
            "astId": 1500,
            "contract": "contracts/Flip.sol:Flip",
            "label": "downValue",
            "offset": 0,
            "slot": "0",
            "type": "t_uint256"
          },
          {
            "astId": 1502,
            "contract": "contracts/Flip.sol:Flip",
            "label": "upValue",
            "offset": 0,
            "slot": "1",
            "type": "t_uint256"
          }
        ],
        "numberOfBytes": "64"
      },
      "t_struct(User)1512_storage": {
        "encoding": "inplace",
        "label": "struct BetLibrary.User",
        "members": [
          {
            "astId": 1508,
            "contract": "contracts/Flip.sol:Flip",
            "label": "stake",
            "offset": 0,
            "slot": "0",
            "type": "t_mapping(t_uint256,t_struct(Pool)1503_storage)"
          },
          {
            "astId": 1511,
            "contract": "contracts/Flip.sol:Flip",
            "label": "bets",
            "offset": 0,
            "slot": "1",
            "type": "t_array(t_uint256)dyn_storage"
          }
        ],
        "numberOfBytes": "64"
      },
      "t_uint256": {
        "encoding": "inplace",
        "label": "uint256",
        "numberOfBytes": "32"
      }
    }
  }
}