{
  "address": "0x2B0953cbc22695e43aE271681450adBf87dd7669",
  "abi": [
    {
      "inputs": [
        {
          "internalType": "uint256",
          "name": "_windowDuration",
          "type": "uint256"
        },
        {
          "internalType": "uint256",
          "name": "_fee",
          "type": "uint256"
        },
        {
          "internalType": "address",
          "name": "aggregator",
          "type": "address"
        }
      ],
      "stateMutability": "nonpayable",
      "type": "constructor"
    },
    {
      "anonymous": false,
      "inputs": [
        {
          "indexed": true,
          "internalType": "uint256",
          "name": "windowNumber",
          "type": "uint256"
        },
        {
          "indexed": true,
          "internalType": "address",
          "name": "user",
          "type": "address"
        },
        {
          "indexed": false,
          "internalType": "uint256",
          "name": "gain",
          "type": "uint256"
        }
      ],
      "name": "betSettled",
      "type": "event"
    },
    {
      "anonymous": false,
      "inputs": [
        {
          "indexed": true,
          "internalType": "address",
          "name": "user",
          "type": "address"
        },
        {
          "indexed": true,
          "internalType": "uint256",
          "name": "windowNumber",
          "type": "uint256"
        },
        {
          "indexed": false,
          "internalType": "uint256",
          "name": "value",
          "type": "uint256"
        },
        {
          "indexed": false,
          "internalType": "uint8",
          "name": "side",
          "type": "uint8"
        }
      ],
      "name": "newBet",
      "type": "event"
    },
    {
      "anonymous": false,
      "inputs": [
        {
          "indexed": true,
          "internalType": "uint256",
          "name": "windowNumber",
          "type": "uint256"
        },
        {
          "indexed": false,
          "internalType": "uint256",
          "name": "price",
          "type": "uint256"
        }
      ],
      "name": "priceUpdated",
      "type": "event"
    },
    {
      "inputs": [],
      "name": "accumulatedFees",
      "outputs": [
        {
          "internalType": "uint256",
          "name": "",
          "type": "uint256"
        }
      ],
      "stateMutability": "view",
      "type": "function"
    },
    {
      "inputs": [
        {
          "internalType": "address",
          "name": "user",
          "type": "address"
        }
      ],
      "name": "betListLen",
      "outputs": [
        {
          "internalType": "uint256",
          "name": "",
          "type": "uint256"
        }
      ],
      "stateMutability": "view",
      "type": "function"
    },
    {
      "inputs": [
        {
          "internalType": "uint256",
          "name": "referencePrice",
          "type": "uint256"
        },
        {
          "internalType": "uint256",
          "name": "settlementPrice",
          "type": "uint256"
        }
      ],
      "name": "betResult",
      "outputs": [
        {
          "internalType": "uint8",
          "name": "",
          "type": "uint8"
        }
      ],
      "stateMutability": "pure",
      "type": "function"
    },
    {
      "inputs": [
        {
          "internalType": "uint256",
          "name": "upStake",
          "type": "uint256"
        },
        {
          "internalType": "uint256",
          "name": "downStake",
          "type": "uint256"
        },
        {
          "internalType": "uint256",
          "name": "poolUp",
          "type": "uint256"
        },
        {
          "internalType": "uint256",
          "name": "poolDown",
          "type": "uint256"
        }
      ],
      "name": "calculateTokenReward",
      "outputs": [
        {
          "internalType": "uint256",
          "name": "",
          "type": "uint256"
        }
      ],
      "stateMutability": "pure",
      "type": "function"
    },
    {
      "inputs": [
        {
          "internalType": "address",
          "name": "newGovernance",
          "type": "address"
        }
      ],
      "name": "changeGovernance",
      "outputs": [],
      "stateMutability": "nonpayable",
      "type": "function"
    },
    {
      "inputs": [
        {
          "internalType": "uint256",
          "name": "windowSize",
          "type": "uint256"
        }
      ],
      "name": "changeWindowSize",
      "outputs": [],
      "stateMutability": "nonpayable",
      "type": "function"
    },
    {
      "inputs": [
        {
          "internalType": "uint256",
          "name": "value",
          "type": "uint256"
        },
        {
          "internalType": "uint256",
          "name": "_fee",
          "type": "uint256"
        }
      ],
      "name": "computeFee",
      "outputs": [
        {
          "internalType": "uint256",
          "name": "betFee",
          "type": "uint256"
        }
      ],
      "stateMutability": "pure",
      "type": "function"
    },
    {
      "inputs": [],
      "name": "fee",
      "outputs": [
        {
          "internalType": "uint256",
          "name": "",
          "type": "uint256"
        }
      ],
      "stateMutability": "view",
      "type": "function"
    },
    {
      "inputs": [],
      "name": "firstBlock",
      "outputs": [
        {
          "internalType": "uint256",
          "name": "",
          "type": "uint256"
        }
      ],
      "stateMutability": "view",
      "type": "function"
    },
    {
      "inputs": [],
      "name": "firstWindow",
      "outputs": [
        {
          "internalType": "uint256",
          "name": "",
          "type": "uint256"
        }
      ],
      "stateMutability": "view",
      "type": "function"
    },
    {
      "inputs": [
        {
          "internalType": "uint256",
          "name": "windowNumber",
          "type": "uint256"
        }
      ],
      "name": "getPoolValues",
      "outputs": [
        {
          "internalType": "uint256",
          "name": "",
          "type": "uint256"
        },
        {
          "internalType": "uint256",
          "name": "",
          "type": "uint256"
        }
      ],
      "stateMutability": "view",
      "type": "function"
    },
    {
      "inputs": [
        {
          "internalType": "address",
          "name": "user",
          "type": "address"
        },
        {
          "internalType": "uint256",
          "name": "index",
          "type": "uint256"
        }
      ],
      "name": "getUserBetList",
      "outputs": [
        {
          "internalType": "uint256",
          "name": "",
          "type": "uint256"
        }
      ],
      "stateMutability": "view",
      "type": "function"
    },
    {
      "inputs": [
        {
          "internalType": "uint256",
          "name": "windowNumber",
          "type": "uint256"
        },
        {
          "internalType": "address",
          "name": "user",
          "type": "address"
        }
      ],
      "name": "getUserStake",
      "outputs": [
        {
          "internalType": "uint256",
          "name": "",
          "type": "uint256"
        },
        {
          "internalType": "uint256",
          "name": "",
          "type": "uint256"
        }
      ],
      "stateMutability": "view",
      "type": "function"
    },
    {
      "inputs": [
        {
          "internalType": "uint256",
          "name": "window",
          "type": "uint256"
        }
      ],
      "name": "getWindowBetPrices",
      "outputs": [
        {
          "internalType": "uint256",
          "name": "",
          "type": "uint256"
        },
        {
          "internalType": "uint256",
          "name": "",
          "type": "uint256"
        }
      ],
      "stateMutability": "view",
      "type": "function"
    },
    {
      "inputs": [
        {
          "internalType": "uint256",
          "name": "currentBlock",
          "type": "uint256"
        },
        {
          "internalType": "uint256",
          "name": "_windowDuration",
          "type": "uint256"
        },
        {
          "internalType": "uint256",
          "name": "_firstBlock",
          "type": "uint256"
        },
        {
          "internalType": "uint256",
          "name": "_windowOffset",
          "type": "uint256"
        },
        {
          "internalType": "uint256",
          "name": "_firstWindow",
          "type": "uint256"
        }
      ],
      "name": "getWindowNumber",
      "outputs": [
        {
          "internalType": "uint256",
          "name": "windowNumber",
          "type": "uint256"
        }
      ],
      "stateMutability": "pure",
      "type": "function"
    },
    {
      "inputs": [
        {
          "internalType": "uint256",
          "name": "windowNumber",
          "type": "uint256"
        },
        {
          "internalType": "uint256",
          "name": "_windowDuration",
          "type": "uint256"
        },
        {
          "internalType": "uint256",
          "name": "_firstBlock",
          "type": "uint256"
        },
        {
          "internalType": "uint256",
          "name": "_windowOffset",
          "type": "uint256"
        }
      ],
      "name": "getWindowStartingBlock",
      "outputs": [
        {
          "internalType": "uint256",
          "name": "startingBlock",
          "type": "uint256"
        }
      ],
      "stateMutability": "pure",
      "type": "function"
    },
    {
      "inputs": [
        {
          "internalType": "uint8",
          "name": "side",
          "type": "uint8"
        }
      ],
      "name": "placeBet",
      "outputs": [],
      "stateMutability": "payable",
      "type": "function"
    },
    {
      "inputs": [
        {
          "internalType": "uint256",
          "name": "",
          "type": "uint256"
        }
      ],
      "name": "pools",
      "outputs": [
        {
          "internalType": "uint256",
          "name": "downValue",
          "type": "uint256"
        },
        {
          "internalType": "uint256",
          "name": "upValue",
          "type": "uint256"
        }
      ],
      "stateMutability": "view",
      "type": "function"
    },
    {
      "inputs": [
        {
          "internalType": "address",
          "name": "stakingContract",
          "type": "address"
        }
      ],
      "name": "setStakingAddress",
      "outputs": [],
      "stateMutability": "nonpayable",
      "type": "function"
    },
    {
      "inputs": [
        {
          "internalType": "address",
          "name": "tokenContract",
          "type": "address"
        }
      ],
      "name": "setTokenAddress",
      "outputs": [],
      "stateMutability": "nonpayable",
      "type": "function"
    },
    {
      "inputs": [
        {
          "internalType": "uint256",
          "name": "upStake",
          "type": "uint256"
        },
        {
          "internalType": "uint256",
          "name": "downStake",
          "type": "uint256"
        },
        {
          "internalType": "uint256",
          "name": "poolUp",
          "type": "uint256"
        },
        {
          "internalType": "uint256",
          "name": "poolDown",
          "type": "uint256"
        },
        {
          "internalType": "uint8",
          "name": "betResult",
          "type": "uint8"
        }
      ],
      "name": "settleBet",
      "outputs": [
        {
          "internalType": "uint256",
          "name": "gain",
          "type": "uint256"
        },
        {
          "internalType": "uint256",
          "name": "fees",
          "type": "uint256"
        }
      ],
      "stateMutability": "pure",
      "type": "function"
    },
    {
      "inputs": [],
      "name": "updateBalance",
      "outputs": [],
      "stateMutability": "nonpayable",
      "type": "function"
    },
    {
      "inputs": [
        {
          "internalType": "uint256",
          "name": "downValue",
          "type": "uint256"
        },
        {
          "internalType": "uint256",
          "name": "upValue",
          "type": "uint256"
        },
        {
          "internalType": "uint8",
          "name": "side",
          "type": "uint8"
        },
        {
          "internalType": "uint256",
          "name": "value",
          "type": "uint256"
        }
      ],
      "name": "updatePool",
      "outputs": [
        {
          "internalType": "uint256",
          "name": "",
          "type": "uint256"
        },
        {
          "internalType": "uint256",
          "name": "",
          "type": "uint256"
        }
      ],
      "stateMutability": "pure",
      "type": "function"
    },
    {
      "inputs": [],
      "name": "updatePrice",
      "outputs": [],
      "stateMutability": "nonpayable",
      "type": "function"
    },
    {
      "inputs": [
        {
          "internalType": "address",
          "name": "",
          "type": "address"
        },
        {
          "internalType": "uint256",
          "name": "",
          "type": "uint256"
        }
      ],
      "name": "userBets",
      "outputs": [
        {
          "internalType": "uint256",
          "name": "",
          "type": "uint256"
        }
      ],
      "stateMutability": "view",
      "type": "function"
    },
    {
      "inputs": [
        {
          "internalType": "address",
          "name": "",
          "type": "address"
        },
        {
          "internalType": "uint256",
          "name": "",
          "type": "uint256"
        }
      ],
      "name": "userStake",
      "outputs": [
        {
          "internalType": "uint256",
          "name": "downValue",
          "type": "uint256"
        },
        {
          "internalType": "uint256",
          "name": "upValue",
          "type": "uint256"
        }
      ],
      "stateMutability": "view",
      "type": "function"
    },
    {
      "inputs": [],
      "name": "windowDuration",
      "outputs": [
        {
          "internalType": "uint256",
          "name": "",
          "type": "uint256"
        }
      ],
      "stateMutability": "view",
      "type": "function"
    },
    {
      "inputs": [],
      "name": "windowOffset",
      "outputs": [
        {
          "internalType": "uint256",
          "name": "",
          "type": "uint256"
        }
      ],
      "stateMutability": "view",
      "type": "function"
    },
    {
      "inputs": [
        {
          "internalType": "uint256",
          "name": "",
          "type": "uint256"
        }
      ],
      "name": "windowPrice",
      "outputs": [
        {
          "internalType": "uint256",
          "name": "",
          "type": "uint256"
        }
      ],
      "stateMutability": "view",
      "type": "function"
    }
  ],
  "transactionHash": "0xf03cc8845533ba904c743e2dc5b568e3f3182ba9de14741f487026f574118a83",
  "args": [
    300,
    2,
    "0x0715A7794a1dc8e42615F059dD6e406A6594651A"
  ],
  "solcInputHash": "be8d984fdfa999b06241b744de3c32e3",
  "bytecode": "0x60806040526001600b553480156200001657600080fd5b5060405162002d5238038062002d5283398181016040528101906200003c919062000120565b60648211156200004b57600080fd5b806000806101000a81548173ffffffffffffffffffffffffffffffffffffffff021916908373ffffffffffffffffffffffffffffffffffffffff16021790555043600481905550826003819055508160028190555033600160006101000a81548173ffffffffffffffffffffffffffffffffffffffff021916908373ffffffffffffffffffffffffffffffffffffffff1602179055506001600b81905550505050620001e8565b6000815190506200010381620001b4565b92915050565b6000815190506200011a81620001ce565b92915050565b6000806000606084860312156200013657600080fd5b6000620001468682870162000109565b9350506020620001598682870162000109565b92505060406200016c86828701620000f2565b9150509250925092565b600062000183826200018a565b9050919050565b600073ffffffffffffffffffffffffffffffffffffffff82169050919050565b6000819050919050565b620001bf8162000176565b8114620001cb57600080fd5b50565b620001d981620001aa565b8114620001e557600080fd5b50565b612b5a80620001f86000396000f3fe6080604052600436106101c25760003560e01c8063849cd1c7116100f7578063ca055e5311610095578063e0d65d8711610064578063e0d65d87146106c1578063f4e0d9ac146106fe578063f52818f014610727578063f83b35fb14610750576101c2565b8063ca055e53146105f0578063daaac9d21461062e578063ddca3f431461066b578063e0a5cee314610696576101c2565b806399572d6f116100d157806399572d6f14610535578063a9559dd71461055e578063ac4afa3814610575578063b47a3566146105b3576101c2565b8063849cd1c71461047d57806389b808a7146104ba5780639626a230146104f7576101c2565b806343046844116101645780635c11ff7a1161013e5780635c11ff7a146103d3578063673a7e28146103fe5780638068aa68146104155780638096266814610452576101c2565b8063430468441461034f578063576fe42f1461036b578063587f5ed7146103a8576101c2565b8063231b0268116101a0578063231b02681461028057806326a4e8d2146102ab5780632ff284c2146102d45780633937ea4f14610311576101c2565b80630ed6ca29146101c75780630eff4d88146102055780631bb5abf914610243575b600080fd5b3480156101d357600080fd5b506101ee60048036038101906101e991906123e2565b61078e565b6040516101fc9291906127cf565b60405180910390f35b34801561021157600080fd5b5061022c600480360381019061022791906121c7565b6108fb565b60405161023a9291906127cf565b60405180910390f35b34801561024f57600080fd5b5061026a60048036038101906102659190612255565b610948565b6040516102779190612821565b60405180910390f35b34801561028c57600080fd5b50610295610977565b6040516102a291906127b4565b60405180910390f35b3480156102b757600080fd5b506102d260048036038101906102cd9190612139565b61097d565b005b3480156102e057600080fd5b506102fb60048036038101906102f69190612255565b610ab5565b60405161030891906127b4565b60405180910390f35b34801561031d57600080fd5b5061033860048036038101906103339190612162565b610ad7565b6040516103469291906127cf565b60405180910390f35b61036960048036038101906103649190612445565b610b08565b005b34801561037757600080fd5b50610392600480360381019061038d91906122f4565b610ed0565b60405161039f91906127b4565b60405180910390f35b3480156103b457600080fd5b506103bd610f1c565b6040516103ca91906127b4565b60405180910390f35b3480156103df57600080fd5b506103e8610f22565b6040516103f591906127b4565b60405180910390f35b34801561040a57600080fd5b50610413610f28565b005b34801561042157600080fd5b5061043c60048036038101906104379190612162565b61105d565b60405161044991906127b4565b60405180910390f35b34801561045e57600080fd5b5061046761108e565b60405161047491906127b4565b60405180910390f35b34801561048957600080fd5b506104a4600480360381019061049f9190612291565b611094565b6040516104b191906127b4565b60405180910390f35b3480156104c657600080fd5b506104e160048036038101906104dc9190612139565b6110ce565b6040516104ee91906127b4565b60405180910390f35b34801561050357600080fd5b5061051e60048036038101906105199190612219565b61111a565b60405161052c9291906127cf565b60405180910390f35b34801561054157600080fd5b5061055c60048036038101906105579190612139565b6111a6565b005b34801561056a57600080fd5b5061057361127a565b005b34801561058157600080fd5b5061059c600480360381019061059791906121c7565b6119eb565b6040516105aa9291906127cf565b60405180910390f35b3480156105bf57600080fd5b506105da60048036038101906105d59190612162565b611a0f565b6040516105e791906127b4565b60405180910390f35b3480156105fc57600080fd5b506106176004803603810190610612919061236b565b611a9b565b6040516106259291906127cf565b60405180910390f35b34801561063a57600080fd5b5061065560048036038101906106509190612291565b611cca565b60405161066291906127b4565b60405180910390f35b34801561067757600080fd5b50610680611d05565b60405161068d91906127b4565b60405180910390f35b3480156106a257600080fd5b506106ab611d0b565b6040516106b891906127b4565b60405180910390f35b3480156106cd57600080fd5b506106e860048036038101906106e391906121c7565b611d11565b6040516106f591906127b4565b60405180910390f35b34801561070a57600080fd5b5061072560048036038101906107209190612139565b611d29565b005b34801561073357600080fd5b5061074e600480360381019061074991906121c7565b611e61565b005b34801561075c57600080fd5b50610777600480360381019061077291906121c7565b611f8a565b6040516107859291906127cf565b60405180910390f35b60008060008460ff1660018111156107cf577f4e487b7100000000000000000000000000000000000000000000000000000000600052602160045260246000fd5b90506000600181111561080b577f4e487b7100000000000000000000000000000000000000000000000000000000600052602160045260246000fd5b816001811115610844577f4e487b7100000000000000000000000000000000000000000000000000000000600052602160045260246000fd5b1415610861578387610856919061284d565b8692509250506108f2565b60018081111561089a577f4e487b7100000000000000000000000000000000000000000000000000000000600052602160045260246000fd5b8160018111156108d3577f4e487b7100000000000000000000000000000000000000000000000000000000600052602160045260246000fd5b14156108f0578684876108e6919061284d565b92509250506108f2565b505b94509492505050565b600080600060096000858152602001908152602001600020604051806040016040529081600082015481526020016001820154815250509050806000015181602001519250925050915091565b60008282101561095b5760009050610971565b8282111561096c5760019050610971565b600290505b92915050565b60045481565b600073ffffffffffffffffffffffffffffffffffffffff16600860009054906101000a900473ffffffffffffffffffffffffffffffffffffffff1673ffffffffffffffffffffffffffffffffffffffff1614610a0e576040517f08c379a0000000000000000000000000000000000000000000000000000000008152600401610a0590612714565b60405180910390fd5b80600860006101000a81548173ffffffffffffffffffffffffffffffffffffffff021916908373ffffffffffffffffffffffffffffffffffffffff160217905550600860009054906101000a900473ffffffffffffffffffffffffffffffffffffffff16600760006101000a81548173ffffffffffffffffffffffffffffffffffffffff021916908373ffffffffffffffffffffffffffffffffffffffff16021790555050565b600060648284610ac591906128d4565b610acf91906128a3565b905092915050565b600e602052816000526040600020602052806000526040600020600091509150508060000154908060010154905082565b60003411610b4b576040517f08c379a0000000000000000000000000000000000000000000000000000000008152600401610b4290612734565b60405180910390fd5b610b53610f28565b610b5b61127a565b6000610b6934600254610ab5565b905080600d54610b79919061284d565b600d8190555060008134610b8d919061292e565b90506000610ba643600354600454600c54600b54610ed0565b9050601060003373ffffffffffffffffffffffffffffffffffffffff1673ffffffffffffffffffffffffffffffffffffffff168152602001908152602001600020600082815260200190815260200160002060009054906101000a900460ff16610cda57600f60003373ffffffffffffffffffffffffffffffffffffffff1673ffffffffffffffffffffffffffffffffffffffff1681526020019081526020016000208190806001815401808255809150506001900390600052602060002001600090919091909150556001601060003373ffffffffffffffffffffffffffffffffffffffff1673ffffffffffffffffffffffffffffffffffffffff168152602001908152602001600020600083815260200190815260200160002060006101000a81548160ff0219169083151502179055505b600060096000838152602001908152602001600020604051806040016040529081600082015481526020016001820154815250509050600080610d2783600001518460200151898861078e565b915091506040518060400160405280838152602001828152506009600086815260200190815260200160002060008201518160000155602082015181600101559050506000600e60003373ffffffffffffffffffffffffffffffffffffffff1673ffffffffffffffffffffffffffffffffffffffff1681526020019081526020016000206000868152602001908152602001600020604051806040016040529081600082015481526020016001820154815250509050610df1816000015182602001518a8961078e565b8093508194505050604051806040016040528084815260200183815250600e60003373ffffffffffffffffffffffffffffffffffffffff1673ffffffffffffffffffffffffffffffffffffffff16815260200190815260200160002060008781526020019081526020016000206000820151816000015560208201518160010155905050843373ffffffffffffffffffffffffffffffffffffffff167f560e32e4934b84f33b228f40ddc5b9fa690426ee087005a7d979d7921d24a02b888b604051610ebe9291906127f8565b60405180910390a35050505050505050565b600083861015610ee257819050610f13565b600183868689610ef2919061292e565b610efc91906128a3565b610f06919061284d565b610f10919061284d565b90505b95945050505050565b600d5481565b60035481565b6000610f3f43600354600454600c54600b54610ed0565b90506000600a600083815260200190815260200160002054141561105a576305f5e100600342604051602001610f7591906126b5565b6040516020818303038152906040528051906020012060001c610f989190612a0b565b610fa291906128d4565b6305f5e10042604051602001610fb891906126b5565b6040516020818303038152906040528051906020012060001c610fdb9190612a0b565b610fe3611fd6565b610fed919061284d565b610ff7919061284d565b600a600083815260200190815260200160002081905550807f7a3325b9d11ddc18edd3dff130141b6ce951061520c6b933a604bf701f3d8052600a60008481526020019081526020016000205460405161105191906127b4565b60405180910390a25b50565b600f602052816000526040600020818154811061107957600080fd5b90600052602060002001600091509150505481565b600c5481565b600083826001876110a5919061292e565b6110af919061292e565b6110b991906128d4565b836110c4919061284d565b9050949350505050565b6000600f60008373ffffffffffffffffffffffffffffffffffffffff1673ffffffffffffffffffffffffffffffffffffffff168152602001908152602001600020805490509050919050565b6000806000600e60008573ffffffffffffffffffffffffffffffffffffffff1673ffffffffffffffffffffffffffffffffffffffff16815260200190815260200160002060008681526020019081526020016000206040518060400160405290816000820154815260200160018201548152505090508060000151816020015192509250509250929050565b600160009054906101000a900473ffffffffffffffffffffffffffffffffffffffff1673ffffffffffffffffffffffffffffffffffffffff163373ffffffffffffffffffffffffffffffffffffffff1614611236576040517f08c379a000000000000000000000000000000000000000000000000000000000815260040161122d90612774565b60405180910390fd5b80600160006101000a81548173ffffffffffffffffffffffffffffffffffffffff021916908373ffffffffffffffffffffffffffffffffffffffff16021790555050565b6000600f60003373ffffffffffffffffffffffffffffffffffffffff1673ffffffffffffffffffffffffffffffffffffffff16815260200190815260200160002090506000818054905014156112d057506119e9565b600080828054905090505b60008111156118fd576000836001836112f4919061292e565b8154811061132b577f4e487b7100000000000000000000000000000000000000000000000000000000600052603260045260246000fd5b90600052602060002001549050600061134f43600354600454600c54600b54610ed0565b905060028261135e919061284d565b81101561136c5750506118ea565b60008061137884611f8a565b915091506000811480156113975750600384611394919061284d565b83105b156113a557505050506118ea565b60006113b18383610948565b905060008314806113c25750600082145b156113cc57600290505b87600189805490506113de919061292e565b81548110611415577f4e487b7100000000000000000000000000000000000000000000000000000000600052603260045260246000fd5b90600052602060002001548860018861142e919061292e565b81548110611465577f4e487b7100000000000000000000000000000000000000000000000000000000600052603260045260246000fd5b9060005260206000200181905550878054806114aa577f4e487b7100000000000000000000000000000000000000000000000000000000600052603160045260246000fd5b600190038181906000526020600020016000905590556000600e60003373ffffffffffffffffffffffffffffffffffffffff1673ffffffffffffffffffffffffffffffffffffffff1681526020019081526020016000206000878152602001908152602001600020604051806040016040529081600082015481526020016001820154815250509050600060096000888152602001908152602001600020604051806040016040529081600082015481526020016001820154815250509050600080611589846020015185600001518560200151866000015189611a9b565b91509150818b611599919061284d565b9a5080600d546115a9919061284d565b600d8190555060006115cd8560200151866000015186602001518760000151611cca565b905080600760009054906101000a900473ffffffffffffffffffffffffffffffffffffffff1673ffffffffffffffffffffffffffffffffffffffff166370a08231306040518263ffffffff1660e01b815260040161162b91906126d0565b60206040518083038186803b15801561164357600080fd5b505afa158015611657573d6000803e3d6000fd5b505050506040513d601f19601f8201168201806040525081019061167b91906121f0565b1061173557600760009054906101000a900473ffffffffffffffffffffffffffffffffffffffff1673ffffffffffffffffffffffffffffffffffffffff1663a9059cbb33836040518363ffffffff1660e01b81526004016116dd9291906126eb565b602060405180830381600087803b1580156116f757600080fd5b505af115801561170b573d6000803e3d6000fd5b505050506040513d601f19601f8201168201806040525081019061172f919061219e565b50611890565b600760009054906101000a900473ffffffffffffffffffffffffffffffffffffffff1673ffffffffffffffffffffffffffffffffffffffff1663a9059cbb33600760009054906101000a900473ffffffffffffffffffffffffffffffffffffffff1673ffffffffffffffffffffffffffffffffffffffff166370a08231306040518263ffffffff1660e01b81526004016117cf91906126d0565b60206040518083038186803b1580156117e757600080fd5b505afa1580156117fb573d6000803e3d6000fd5b505050506040513d601f19601f8201168201806040525081019061181f91906121f0565b6040518363ffffffff1660e01b815260040161183c9291906126eb565b602060405180830381600087803b15801561185657600080fd5b505af115801561186a573d6000803e3d6000fd5b505050506040513d601f19601f8201168201806040525081019061188e919061219e565b505b3373ffffffffffffffffffffffffffffffffffffffff168a7f1a82fd78981b9465af4b8bd67f27607df5d873b7a978cc8cee1a65b85c2990fc856040516118d791906127b4565b60405180910390a3505050505050505050505b80806118f5906129d7565b9150506112db565b506000811061194e573373ffffffffffffffffffffffffffffffffffffffff166108fc829081150290604051600060405180830381858888f1935050505015801561194c573d6000803e3d6000fd5b505b6000600d5411156119e657600560009054906101000a900473ffffffffffffffffffffffffffffffffffffffff1673ffffffffffffffffffffffffffffffffffffffff16625c33e1600d546040518263ffffffff1660e01b81526004016000604051808303818588803b1580156119c457600080fd5b505af11580156119d8573d6000803e3d6000fd5b50505050506000600d819055505b50505b565b60096020528060005260406000206000915090508060000154908060010154905082565b6000600f60008473ffffffffffffffffffffffffffffffffffffffff1673ffffffffffffffffffffffffffffffffffffffff1681526020019081526020016000208281548110611a88577f4e487b7100000000000000000000000000000000000000000000000000000000600052603260045260246000fd5b9060005260206000200154905092915050565b60008060008360ff166002811115611adc577f4e487b7100000000000000000000000000000000000000000000000000000000600052602160045260246000fd5b905060008587611aec919061284d565b905060016002811115611b28577f4e487b7100000000000000000000000000000000000000000000000000000000600052602160045260246000fd5b826002811115611b61577f4e487b7100000000000000000000000000000000000000000000000000000000600052602160045260246000fd5b148015611b6f575060008714155b15611b8657611b7f818a89612084565b9350611cbe565b60006002811115611bc0577f4e487b7100000000000000000000000000000000000000000000000000000000600052602160045260246000fd5b826002811115611bf9577f4e487b7100000000000000000000000000000000000000000000000000000000600052602160045260246000fd5b148015611c07575060008614155b15611c1e57611c17818988612084565b9350611cbd565b600280811115611c57577f4e487b7100000000000000000000000000000000000000000000000000000000600052602160045260246000fd5b826002811115611c90577f4e487b7100000000000000000000000000000000000000000000000000000000600052602160045260246000fd5b1415611ca9578789611ca2919061284d565b9350611cbc565b600093508789611cb9919061284d565b92505b5b5b50509550959350505050565b60008068240cba98add2c400009050611cfa818688611ce9919061284d565b8587611cf5919061284d565b612084565b915050949350505050565b60025481565b600b5481565b600a6020528060005260406000206000915090505481565b600073ffffffffffffffffffffffffffffffffffffffff16600660009054906101000a900473ffffffffffffffffffffffffffffffffffffffff1673ffffffffffffffffffffffffffffffffffffffff1614611dba576040517f08c379a0000000000000000000000000000000000000000000000000000000008152600401611db190612754565b60405180910390fd5b80600660006101000a81548173ffffffffffffffffffffffffffffffffffffffff021916908373ffffffffffffffffffffffffffffffffffffffff160217905550600660009054906101000a900473ffffffffffffffffffffffffffffffffffffffff16600560006101000a81548173ffffffffffffffffffffffffffffffffffffffff021916908373ffffffffffffffffffffffffffffffffffffffff16021790555050565b600160009054906101000a900473ffffffffffffffffffffffffffffffffffffffff1673ffffffffffffffffffffffffffffffffffffffff163373ffffffffffffffffffffffffffffffffffffffff1614611ef1576040517f08c379a0000000000000000000000000000000000000000000000000000000008152600401611ee890612774565b60405180910390fd5b60008111611f34576040517f08c379a0000000000000000000000000000000000000000000000000000000008152600401611f2b90612794565b60405180910390fd5b6000611f4b43600354600454600c54600b54610ed0565b9050611f6b600182611f5d919061284d565b600354600454600c54611094565b60048190555080600c8190555080600b81905550816003819055505050565b600080600a6000600185611f9e919061284d565b815260200190815260200160002054600a6000600286611fbe919061284d565b81526020019081526020016000205491509150915091565b60008060008054906101000a900473ffffffffffffffffffffffffffffffffffffffff1673ffffffffffffffffffffffffffffffffffffffff1663feaf968c6040518163ffffffff1660e01b815260040160a06040518083038186803b15801561203f57600080fd5b505afa158015612053573d6000803e3d6000fd5b505050506040513d601f19601f82011682018060405250810190612077919061246e565b5050509150508091505090565b600081848461209391906128d4565b61209d91906128a3565b90509392505050565b6000813590506120b581612a9a565b92915050565b6000815190506120ca81612ab1565b92915050565b6000815190506120df81612ac8565b92915050565b6000813590506120f481612adf565b92915050565b60008151905061210981612adf565b92915050565b60008135905061211e81612af6565b92915050565b60008151905061213381612b0d565b92915050565b60006020828403121561214b57600080fd5b6000612159848285016120a6565b91505092915050565b6000806040838503121561217557600080fd5b6000612183858286016120a6565b9250506020612194858286016120e5565b9150509250929050565b6000602082840312156121b057600080fd5b60006121be848285016120bb565b91505092915050565b6000602082840312156121d957600080fd5b60006121e7848285016120e5565b91505092915050565b60006020828403121561220257600080fd5b6000612210848285016120fa565b91505092915050565b6000806040838503121561222c57600080fd5b600061223a858286016120e5565b925050602061224b858286016120a6565b9150509250929050565b6000806040838503121561226857600080fd5b6000612276858286016120e5565b9250506020612287858286016120e5565b9150509250929050565b600080600080608085870312156122a757600080fd5b60006122b5878288016120e5565b94505060206122c6878288016120e5565b93505060406122d7878288016120e5565b92505060606122e8878288016120e5565b91505092959194509250565b600080600080600060a0868803121561230c57600080fd5b600061231a888289016120e5565b955050602061232b888289016120e5565b945050604061233c888289016120e5565b935050606061234d888289016120e5565b925050608061235e888289016120e5565b9150509295509295909350565b600080600080600060a0868803121561238357600080fd5b6000612391888289016120e5565b95505060206123a2888289016120e5565b94505060406123b3888289016120e5565b93505060606123c4888289016120e5565b92505060806123d58882890161210f565b9150509295509295909350565b600080600080608085870312156123f857600080fd5b6000612406878288016120e5565b9450506020612417878288016120e5565b93505060406124288782880161210f565b9250506060612439878288016120e5565b91505092959194509250565b60006020828403121561245757600080fd5b60006124658482850161210f565b91505092915050565b600080600080600060a0868803121561248657600080fd5b600061249488828901612124565b95505060206124a5888289016120d0565b94505060406124b6888289016120fa565b93505060606124c7888289016120fa565b92505060806124d888828901612124565b9150509295509295909350565b6124ee81612962565b82525050565b600061250160198361283c565b91507f746f6b656e206164647265737320616c726561647920736574000000000000006000830152602082019050919050565b6000612541601d8361283c565b91507f4f6e6c79207374726963746c7920706f7369746976652076616c7565730000006000830152602082019050919050565b6000612581601b8361283c565b91507f7374616b696e67206164647265737320616c72656164792073657400000000006000830152602082019050919050565b60006125c160248361283c565b91507f6f6e6c7920676f7665726e616e63652063616e2063616c6c2074686973206d6560008301527f74686f64000000000000000000000000000000000000000000000000000000006020830152604082019050919050565b600061262760278361283c565b91507f77696e646f772073697a652073686f756c64206265207374726963746c79207060008301527f6f736974697665000000000000000000000000000000000000000000000000006020830152604082019050919050565b612689816129aa565b82525050565b6126a061269b826129aa565b612a01565b82525050565b6126af816129b4565b82525050565b60006126c1828461268f565b60208201915081905092915050565b60006020820190506126e560008301846124e5565b92915050565b600060408201905061270060008301856124e5565b61270d6020830184612680565b9392505050565b6000602082019050818103600083015261272d816124f4565b9050919050565b6000602082019050818103600083015261274d81612534565b9050919050565b6000602082019050818103600083015261276d81612574565b9050919050565b6000602082019050818103600083015261278d816125b4565b9050919050565b600060208201905081810360008301526127ad8161261a565b9050919050565b60006020820190506127c96000830184612680565b92915050565b60006040820190506127e46000830185612680565b6127f16020830184612680565b9392505050565b600060408201905061280d6000830185612680565b61281a60208301846126a6565b9392505050565b600060208201905061283660008301846126a6565b92915050565b600082825260208201905092915050565b6000612858826129aa565b9150612863836129aa565b9250827fffffffffffffffffffffffffffffffffffffffffffffffffffffffffffffffff0382111561289857612897612a3c565b5b828201905092915050565b60006128ae826129aa565b91506128b9836129aa565b9250826128c9576128c8612a6b565b5b828204905092915050565b60006128df826129aa565b91506128ea836129aa565b9250817fffffffffffffffffffffffffffffffffffffffffffffffffffffffffffffffff048311821515161561292357612922612a3c565b5b828202905092915050565b6000612939826129aa565b9150612944836129aa565b92508282101561295757612956612a3c565b5b828203905092915050565b600061296d8261298a565b9050919050565b60008115159050919050565b6000819050919050565b600073ffffffffffffffffffffffffffffffffffffffff82169050919050565b6000819050919050565b600060ff82169050919050565b600069ffffffffffffffffffff82169050919050565b60006129e2826129aa565b915060008214156129f6576129f5612a3c565b5b600182039050919050565b6000819050919050565b6000612a16826129aa565b9150612a21836129aa565b925082612a3157612a30612a6b565b5b828206905092915050565b7f4e487b7100000000000000000000000000000000000000000000000000000000600052601160045260246000fd5b7f4e487b7100000000000000000000000000000000000000000000000000000000600052601260045260246000fd5b612aa381612962565b8114612aae57600080fd5b50565b612aba81612974565b8114612ac557600080fd5b50565b612ad181612980565b8114612adc57600080fd5b50565b612ae8816129aa565b8114612af357600080fd5b50565b612aff816129b4565b8114612b0a57600080fd5b50565b612b16816129c1565b8114612b2157600080fd5b5056fea26469706673582212203a3dac1c050b41f77050732a7d4b011ce9b7139d3afbf7218006b7642b8de29c64736f6c63430008000033",
  "devdoc": {
    "kind": "dev",
    "methods": {},
    "version": 1
  },
  "userdoc": {
    "kind": "user",
    "methods": {},
    "version": 1
  },
  "storageLayout": {
    "storage": [
      {
        "astId": 783,
        "contract": "contracts/BinaryBet.sol:BinaryBet",
        "label": "priceFeed",
        "offset": 0,
        "slot": "0",
        "type": "t_contract(AggregatorV3Interface)45"
      },
      {
        "astId": 785,
        "contract": "contracts/BinaryBet.sol:BinaryBet",
        "label": "governance",
        "offset": 0,
        "slot": "1",
        "type": "t_address"
      },
      {
        "astId": 787,
        "contract": "contracts/BinaryBet.sol:BinaryBet",
        "label": "fee",
        "offset": 0,
        "slot": "2",
        "type": "t_uint256"
      },
      {
        "astId": 789,
        "contract": "contracts/BinaryBet.sol:BinaryBet",
        "label": "windowDuration",
        "offset": 0,
        "slot": "3",
        "type": "t_uint256"
      },
      {
        "astId": 791,
        "contract": "contracts/BinaryBet.sol:BinaryBet",
        "label": "firstBlock",
        "offset": 0,
        "slot": "4",
        "type": "t_uint256"
      },
      {
        "astId": 794,
        "contract": "contracts/BinaryBet.sol:BinaryBet",
        "label": "staking",
        "offset": 0,
        "slot": "5",
        "type": "t_contract(BinaryStaking)2195"
      },
      {
        "astId": 796,
        "contract": "contracts/BinaryBet.sol:BinaryBet",
        "label": "stakingAddress",
        "offset": 0,
        "slot": "6",
        "type": "t_address_payable"
      },
      {
        "astId": 799,
        "contract": "contracts/BinaryBet.sol:BinaryBet",
        "label": "token",
        "offset": 0,
        "slot": "7",
        "type": "t_contract(BinToken)761"
      },
      {
        "astId": 801,
        "contract": "contracts/BinaryBet.sol:BinaryBet",
        "label": "tokenAddress",
        "offset": 0,
        "slot": "8",
        "type": "t_address"
      },
      {
        "astId": 806,
        "contract": "contracts/BinaryBet.sol:BinaryBet",
        "label": "pools",
        "offset": 0,
        "slot": "9",
        "type": "t_mapping(t_uint256,t_struct(Pool)780_storage)"
      },
      {
        "astId": 810,
        "contract": "contracts/BinaryBet.sol:BinaryBet",
        "label": "windowPrice",
        "offset": 0,
        "slot": "10",
        "type": "t_mapping(t_uint256,t_uint256)"
      },
      {
        "astId": 813,
        "contract": "contracts/BinaryBet.sol:BinaryBet",
        "label": "firstWindow",
        "offset": 0,
        "slot": "11",
        "type": "t_uint256"
      },
      {
        "astId": 815,
        "contract": "contracts/BinaryBet.sol:BinaryBet",
        "label": "windowOffset",
        "offset": 0,
        "slot": "12",
        "type": "t_uint256"
      },
      {
        "astId": 817,
        "contract": "contracts/BinaryBet.sol:BinaryBet",
        "label": "accumulatedFees",
        "offset": 0,
        "slot": "13",
        "type": "t_uint256"
      },
      {
        "astId": 824,
        "contract": "contracts/BinaryBet.sol:BinaryBet",
        "label": "userStake",
        "offset": 0,
        "slot": "14",
        "type": "t_mapping(t_address,t_mapping(t_uint256,t_struct(Pool)780_storage))"
      },
      {
        "astId": 829,
        "contract": "contracts/BinaryBet.sol:BinaryBet",
        "label": "userBets",
        "offset": 0,
        "slot": "15",
        "type": "t_mapping(t_address,t_array(t_uint256)dyn_storage)"
      },
      {
        "astId": 835,
        "contract": "contracts/BinaryBet.sol:BinaryBet",
        "label": "userBetted",
        "offset": 0,
        "slot": "16",
        "type": "t_mapping(t_address,t_mapping(t_uint256,t_bool))"
      }
    ],
    "types": {
      "t_address": {
        "encoding": "inplace",
        "label": "address",
        "numberOfBytes": "20"
      },
      "t_address_payable": {
        "encoding": "inplace",
        "label": "address payable",
        "numberOfBytes": "20"
      },
      "t_array(t_uint256)dyn_storage": {
        "base": "t_uint256",
        "encoding": "dynamic_array",
        "label": "uint256[]",
        "numberOfBytes": "32"
      },
      "t_bool": {
        "encoding": "inplace",
        "label": "bool",
        "numberOfBytes": "1"
      },
      "t_contract(AggregatorV3Interface)45": {
        "encoding": "inplace",
        "label": "contract AggregatorV3Interface",
        "numberOfBytes": "20"
      },
      "t_contract(BinToken)761": {
        "encoding": "inplace",
        "label": "contract BinToken",
        "numberOfBytes": "20"
      },
      "t_contract(BinaryStaking)2195": {
        "encoding": "inplace",
        "label": "contract BinaryStaking",
        "numberOfBytes": "20"
      },
      "t_mapping(t_address,t_array(t_uint256)dyn_storage)": {
        "encoding": "mapping",
        "key": "t_address",
        "label": "mapping(address => uint256[])",
        "numberOfBytes": "32",
        "value": "t_array(t_uint256)dyn_storage"
      },
      "t_mapping(t_address,t_mapping(t_uint256,t_bool))": {
        "encoding": "mapping",
        "key": "t_address",
        "label": "mapping(address => mapping(uint256 => bool))",
        "numberOfBytes": "32",
        "value": "t_mapping(t_uint256,t_bool)"
      },
      "t_mapping(t_address,t_mapping(t_uint256,t_struct(Pool)780_storage))": {
        "encoding": "mapping",
        "key": "t_address",
        "label": "mapping(address => mapping(uint256 => struct BinaryBet.Pool))",
        "numberOfBytes": "32",
        "value": "t_mapping(t_uint256,t_struct(Pool)780_storage)"
      },
      "t_mapping(t_uint256,t_bool)": {
        "encoding": "mapping",
        "key": "t_uint256",
        "label": "mapping(uint256 => bool)",
        "numberOfBytes": "32",
        "value": "t_bool"
      },
      "t_mapping(t_uint256,t_struct(Pool)780_storage)": {
        "encoding": "mapping",
        "key": "t_uint256",
        "label": "mapping(uint256 => struct BinaryBet.Pool)",
        "numberOfBytes": "32",
        "value": "t_struct(Pool)780_storage"
      },
      "t_mapping(t_uint256,t_uint256)": {
        "encoding": "mapping",
        "key": "t_uint256",
        "label": "mapping(uint256 => uint256)",
        "numberOfBytes": "32",
        "value": "t_uint256"
      },
      "t_struct(Pool)780_storage": {
        "encoding": "inplace",
        "label": "struct BinaryBet.Pool",
        "members": [
          {
            "astId": 777,
            "contract": "contracts/BinaryBet.sol:BinaryBet",
            "label": "downValue",
            "offset": 0,
            "slot": "0",
            "type": "t_uint256"
          },
          {
            "astId": 779,
            "contract": "contracts/BinaryBet.sol:BinaryBet",
            "label": "upValue",
            "offset": 0,
            "slot": "1",
            "type": "t_uint256"
          }
        ],
        "numberOfBytes": "64"
      },
      "t_uint256": {
        "encoding": "inplace",
        "label": "uint256",
        "numberOfBytes": "32"
      }
    }
  }
}