{
  "_format": "hh-sol-artifact-1",
  "contractName": "BinaryBet",
  "sourceName": "contracts/BinaryBet.sol",
  "abi": [
    {
      "inputs": [
        {
          "internalType": "uint256",
          "name": "_windowDuration",
          "type": "uint256"
        },
        {
          "internalType": "uint256",
          "name": "_fee",
          "type": "uint256"
        },
        {
          "internalType": "address",
          "name": "aggregator",
          "type": "address"
        }
      ],
      "stateMutability": "nonpayable",
      "type": "constructor"
    },
    {
      "anonymous": false,
      "inputs": [
        {
          "indexed": true,
          "internalType": "uint256",
          "name": "windowNumber",
          "type": "uint256"
        },
        {
          "indexed": true,
          "internalType": "address",
          "name": "user",
          "type": "address"
        },
        {
          "indexed": false,
          "internalType": "uint256",
          "name": "gain",
          "type": "uint256"
        }
      ],
      "name": "betSettled",
      "type": "event"
    },
    {
      "anonymous": false,
      "inputs": [
        {
          "indexed": true,
          "internalType": "address",
          "name": "user",
          "type": "address"
        },
        {
          "indexed": true,
          "internalType": "uint256",
          "name": "windowNumber",
          "type": "uint256"
        },
        {
          "indexed": false,
          "internalType": "uint256",
          "name": "value",
          "type": "uint256"
        },
        {
          "indexed": false,
          "internalType": "uint8",
          "name": "side",
          "type": "uint8"
        }
      ],
      "name": "newBet",
      "type": "event"
    },
    {
      "anonymous": false,
      "inputs": [
        {
          "indexed": true,
          "internalType": "uint256",
          "name": "windowNumber",
          "type": "uint256"
        },
        {
          "indexed": false,
          "internalType": "uint256",
          "name": "price",
          "type": "uint256"
        }
      ],
      "name": "priceUpdated",
      "type": "event"
    },
    {
      "inputs": [],
      "name": "REWARD_PER_WINDOW",
      "outputs": [
        {
          "internalType": "uint256",
          "name": "",
          "type": "uint256"
        }
      ],
      "stateMutability": "view",
      "type": "function"
    },
    {
      "inputs": [],
      "name": "accumulatedFees",
      "outputs": [
        {
          "internalType": "uint256",
          "name": "",
          "type": "uint256"
        }
      ],
      "stateMutability": "view",
      "type": "function"
    },
    {
      "inputs": [
        {
          "internalType": "address",
          "name": "user",
          "type": "address"
        }
      ],
      "name": "betListLen",
      "outputs": [
        {
          "internalType": "uint256",
          "name": "",
          "type": "uint256"
        }
      ],
      "stateMutability": "view",
      "type": "function"
    },
    {
      "inputs": [
        {
          "internalType": "uint256",
          "name": "referencePrice",
          "type": "uint256"
        },
        {
          "internalType": "uint256",
          "name": "settlementPrice",
          "type": "uint256"
        }
      ],
      "name": "betResult",
      "outputs": [
        {
          "internalType": "uint8",
          "name": "",
          "type": "uint8"
        }
      ],
      "stateMutability": "pure",
      "type": "function"
    },
    {
      "inputs": [
        {
          "internalType": "uint256",
          "name": "upStake",
          "type": "uint256"
        },
        {
          "internalType": "uint256",
          "name": "downStake",
          "type": "uint256"
        },
        {
          "internalType": "uint256",
          "name": "poolUp",
          "type": "uint256"
        },
        {
          "internalType": "uint256",
          "name": "poolDown",
          "type": "uint256"
        }
      ],
      "name": "calculateTokenReward",
      "outputs": [
        {
          "internalType": "uint256",
          "name": "",
          "type": "uint256"
        }
      ],
      "stateMutability": "pure",
      "type": "function"
    },
    {
      "inputs": [
        {
          "internalType": "address",
          "name": "newGovernance",
          "type": "address"
        }
      ],
      "name": "changeGovernance",
      "outputs": [],
      "stateMutability": "nonpayable",
      "type": "function"
    },
    {
      "inputs": [
        {
          "internalType": "uint256",
          "name": "windowSize",
          "type": "uint256"
        }
      ],
      "name": "changeWindowSize",
      "outputs": [],
      "stateMutability": "nonpayable",
      "type": "function"
    },
    {
      "inputs": [
        {
          "internalType": "uint256",
          "name": "value",
          "type": "uint256"
        },
        {
          "internalType": "uint256",
          "name": "_fee",
          "type": "uint256"
        }
      ],
      "name": "computeFee",
      "outputs": [
        {
          "internalType": "uint256",
          "name": "betFee",
          "type": "uint256"
        }
      ],
      "stateMutability": "pure",
      "type": "function"
    },
    {
      "inputs": [],
      "name": "fee",
      "outputs": [
        {
          "internalType": "uint256",
          "name": "",
          "type": "uint256"
        }
      ],
      "stateMutability": "view",
      "type": "function"
    },
    {
      "inputs": [],
      "name": "firstBlock",
      "outputs": [
        {
          "internalType": "uint256",
          "name": "",
          "type": "uint256"
        }
      ],
      "stateMutability": "view",
      "type": "function"
    },
    {
      "inputs": [],
      "name": "firstWindow",
      "outputs": [
        {
          "internalType": "uint256",
          "name": "",
          "type": "uint256"
        }
      ],
      "stateMutability": "view",
      "type": "function"
    },
    {
      "inputs": [
        {
          "internalType": "uint256",
          "name": "windowNumber",
          "type": "uint256"
        }
      ],
      "name": "getPoolValues",
      "outputs": [
        {
          "internalType": "uint256",
          "name": "",
          "type": "uint256"
        },
        {
          "internalType": "uint256",
          "name": "",
          "type": "uint256"
        }
      ],
      "stateMutability": "view",
      "type": "function"
    },
    {
      "inputs": [
        {
          "internalType": "address",
          "name": "user",
          "type": "address"
        },
        {
          "internalType": "uint256",
          "name": "index",
          "type": "uint256"
        }
      ],
      "name": "getUserBetList",
      "outputs": [
        {
          "internalType": "uint256",
          "name": "",
          "type": "uint256"
        }
      ],
      "stateMutability": "view",
      "type": "function"
    },
    {
      "inputs": [
        {
          "internalType": "uint256",
          "name": "windowNumber",
          "type": "uint256"
        },
        {
          "internalType": "address",
          "name": "user",
          "type": "address"
        }
      ],
      "name": "getUserStake",
      "outputs": [
        {
          "internalType": "uint256",
          "name": "",
          "type": "uint256"
        },
        {
          "internalType": "uint256",
          "name": "",
          "type": "uint256"
        }
      ],
      "stateMutability": "view",
      "type": "function"
    },
    {
      "inputs": [
        {
          "internalType": "uint256",
          "name": "window",
          "type": "uint256"
        }
      ],
      "name": "getWindowBetPrices",
      "outputs": [
        {
          "internalType": "uint256",
          "name": "",
          "type": "uint256"
        },
        {
          "internalType": "uint256",
          "name": "",
          "type": "uint256"
        }
      ],
      "stateMutability": "view",
      "type": "function"
    },
    {
      "inputs": [
        {
          "internalType": "uint256",
          "name": "currentBlock",
          "type": "uint256"
        },
        {
          "internalType": "uint256",
          "name": "_windowDuration",
          "type": "uint256"
        },
        {
          "internalType": "uint256",
          "name": "_firstBlock",
          "type": "uint256"
        },
        {
          "internalType": "uint256",
          "name": "_windowOffset",
          "type": "uint256"
        },
        {
          "internalType": "uint256",
          "name": "_firstWindow",
          "type": "uint256"
        }
      ],
      "name": "getWindowNumber",
      "outputs": [
        {
          "internalType": "uint256",
          "name": "windowNumber",
          "type": "uint256"
        }
      ],
      "stateMutability": "pure",
      "type": "function"
    },
    {
      "inputs": [
        {
          "internalType": "uint256",
          "name": "windowNumber",
          "type": "uint256"
        },
        {
          "internalType": "uint256",
          "name": "_windowDuration",
          "type": "uint256"
        },
        {
          "internalType": "uint256",
          "name": "_firstBlock",
          "type": "uint256"
        },
        {
          "internalType": "uint256",
          "name": "_windowOffset",
          "type": "uint256"
        }
      ],
      "name": "getWindowStartingBlock",
      "outputs": [
        {
          "internalType": "uint256",
          "name": "startingBlock",
          "type": "uint256"
        }
      ],
      "stateMutability": "pure",
      "type": "function"
    },
    {
      "inputs": [
        {
          "internalType": "uint8",
          "name": "side",
          "type": "uint8"
        }
      ],
      "name": "placeBet",
      "outputs": [],
      "stateMutability": "payable",
      "type": "function"
    },
    {
      "inputs": [
        {
          "internalType": "uint256",
          "name": "",
          "type": "uint256"
        }
      ],
      "name": "pools",
      "outputs": [
        {
          "internalType": "uint256",
          "name": "downValue",
          "type": "uint256"
        },
        {
          "internalType": "uint256",
          "name": "upValue",
          "type": "uint256"
        }
      ],
      "stateMutability": "view",
      "type": "function"
    },
    {
      "inputs": [
        {
          "internalType": "address",
          "name": "stakingContract",
          "type": "address"
        }
      ],
      "name": "setStakingAddress",
      "outputs": [],
      "stateMutability": "nonpayable",
      "type": "function"
    },
    {
      "inputs": [
        {
          "internalType": "address",
          "name": "tokenContract",
          "type": "address"
        }
      ],
      "name": "setTokenAddress",
      "outputs": [],
      "stateMutability": "nonpayable",
      "type": "function"
    },
    {
      "inputs": [
        {
          "internalType": "uint256",
          "name": "upStake",
          "type": "uint256"
        },
        {
          "internalType": "uint256",
          "name": "downStake",
          "type": "uint256"
        },
        {
          "internalType": "uint256",
          "name": "poolUp",
          "type": "uint256"
        },
        {
          "internalType": "uint256",
          "name": "poolDown",
          "type": "uint256"
        },
        {
          "internalType": "uint8",
          "name": "betResult",
          "type": "uint8"
        }
      ],
      "name": "settleBet",
      "outputs": [
        {
          "internalType": "uint256",
          "name": "gain",
          "type": "uint256"
        },
        {
          "internalType": "uint256",
          "name": "fees",
          "type": "uint256"
        }
      ],
      "stateMutability": "pure",
      "type": "function"
    },
    {
      "inputs": [
        {
          "internalType": "address",
          "name": "user",
          "type": "address"
        }
      ],
      "name": "updateBalance",
      "outputs": [],
      "stateMutability": "nonpayable",
      "type": "function"
    },
    {
      "inputs": [
        {
          "internalType": "uint256",
          "name": "downValue",
          "type": "uint256"
        },
        {
          "internalType": "uint256",
          "name": "upValue",
          "type": "uint256"
        },
        {
          "internalType": "uint8",
          "name": "side",
          "type": "uint8"
        },
        {
          "internalType": "uint256",
          "name": "value",
          "type": "uint256"
        }
      ],
      "name": "updatePool",
      "outputs": [
        {
          "internalType": "uint256",
          "name": "",
          "type": "uint256"
        },
        {
          "internalType": "uint256",
          "name": "",
          "type": "uint256"
        }
      ],
      "stateMutability": "pure",
      "type": "function"
    },
    {
      "inputs": [],
      "name": "updatePrice",
      "outputs": [],
      "stateMutability": "nonpayable",
      "type": "function"
    },
    {
      "inputs": [
        {
          "internalType": "address",
          "name": "",
          "type": "address"
        },
        {
          "internalType": "uint256",
          "name": "",
          "type": "uint256"
        }
      ],
      "name": "userBets",
      "outputs": [
        {
          "internalType": "uint256",
          "name": "",
          "type": "uint256"
        }
      ],
      "stateMutability": "view",
      "type": "function"
    },
    {
      "inputs": [
        {
          "internalType": "address",
          "name": "",
          "type": "address"
        },
        {
          "internalType": "uint256",
          "name": "",
          "type": "uint256"
        }
      ],
      "name": "userStake",
      "outputs": [
        {
          "internalType": "uint256",
          "name": "downValue",
          "type": "uint256"
        },
        {
          "internalType": "uint256",
          "name": "upValue",
          "type": "uint256"
        }
      ],
      "stateMutability": "view",
      "type": "function"
    },
    {
      "inputs": [],
      "name": "windowDuration",
      "outputs": [
        {
          "internalType": "uint256",
          "name": "",
          "type": "uint256"
        }
      ],
      "stateMutability": "view",
      "type": "function"
    },
    {
      "inputs": [],
      "name": "windowOffset",
      "outputs": [
        {
          "internalType": "uint256",
          "name": "",
          "type": "uint256"
        }
      ],
      "stateMutability": "view",
      "type": "function"
    },
    {
      "inputs": [
        {
          "internalType": "uint256",
          "name": "",
          "type": "uint256"
        }
      ],
      "name": "windowPrice",
      "outputs": [
        {
          "internalType": "uint256",
          "name": "",
          "type": "uint256"
        }
      ],
      "stateMutability": "view",
      "type": "function"
    }
  ],
  "bytecode": "0x60806040526001600b553480156200001657600080fd5b5060405162002ca538038062002ca583398181016040528101906200003c919062000120565b60648211156200004b57600080fd5b806000806101000a81548173ffffffffffffffffffffffffffffffffffffffff021916908373ffffffffffffffffffffffffffffffffffffffff16021790555043600481905550826003819055508160028190555033600160006101000a81548173ffffffffffffffffffffffffffffffffffffffff021916908373ffffffffffffffffffffffffffffffffffffffff1602179055506001600b81905550505050620001e8565b6000815190506200010381620001b4565b92915050565b6000815190506200011a81620001ce565b92915050565b6000806000606084860312156200013657600080fd5b6000620001468682870162000109565b9350506020620001598682870162000109565b92505060406200016c86828701620000f2565b9150509250925092565b600062000183826200018a565b9050919050565b600073ffffffffffffffffffffffffffffffffffffffff82169050919050565b6000819050919050565b620001bf8162000176565b8114620001cb57600080fd5b50565b620001d981620001aa565b8114620001e557600080fd5b50565b612aad80620001f86000396000f3fe6080604052600436106101cd5760003560e01c806380962668116100f7578063ca055e5311610095578063e0d65d8711610064578063e0d65d8714610709578063f4e0d9ac14610746578063f52818f01461076f578063f83b35fb14610798576101cd565b8063ca055e5314610638578063daaac9d214610676578063ddca3f43146106b3578063e0a5cee3146106de576101cd565b80639626a230116100d15780639626a2301461055657806399572d6f14610594578063ac4afa38146105bd578063b47a3566146105fb576101cd565b806380962668146104b1578063849cd1c7146104dc57806389b808a714610519576101cd565b806340b8405a1161016f5780635c11ff7a1161013e5780635c11ff7a14610407578063673a7e281461043257806371a42207146104495780638068aa6814610474576101cd565b806340b8405a1461035a5780634304684414610383578063576fe42f1461039f578063587f5ed7146103dc576101cd565b8063231b0268116101ab578063231b02681461028b57806326a4e8d2146102b65780632ff284c2146102df5780633937ea4f1461031c576101cd565b80630ed6ca29146101d25780630eff4d88146102105780631bb5abf91461024e575b600080fd5b3480156101de57600080fd5b506101f960048036038101906101f491906123a2565b6107d6565b60405161020792919061275d565b60405180910390f35b34801561021c57600080fd5b5061023760048036038101906102329190612187565b610943565b60405161024592919061275d565b60405180910390f35b34801561025a57600080fd5b5061027560048036038101906102709190612215565b610990565b60405161028291906127af565b60405180910390f35b34801561029757600080fd5b506102a06109bf565b6040516102ad9190612742565b60405180910390f35b3480156102c257600080fd5b506102dd60048036038101906102d891906120f9565b6109c5565b005b3480156102eb57600080fd5b5061030660048036038101906103019190612215565b610afd565b6040516103139190612742565b60405180910390f35b34801561032857600080fd5b50610343600480360381019061033e9190612122565b610b1f565b60405161035192919061275d565b60405180910390f35b34801561036657600080fd5b50610381600480360381019061037c91906120f9565b610b50565b005b61039d60048036038101906103989190612405565b6112c2565b005b3480156103ab57600080fd5b506103c660048036038101906103c191906122b4565b61168b565b6040516103d39190612742565b60405180910390f35b3480156103e857600080fd5b506103f16116d7565b6040516103fe9190612742565b60405180910390f35b34801561041357600080fd5b5061041c6116dd565b6040516104299190612742565b60405180910390f35b34801561043e57600080fd5b506104476116e3565b005b34801561045557600080fd5b5061045e611786565b60405161046b9190612742565b60405180910390f35b34801561048057600080fd5b5061049b60048036038101906104969190612122565b611793565b6040516104a89190612742565b60405180910390f35b3480156104bd57600080fd5b506104c66117c4565b6040516104d39190612742565b60405180910390f35b3480156104e857600080fd5b5061050360048036038101906104fe9190612251565b6117ca565b6040516105109190612742565b60405180910390f35b34801561052557600080fd5b50610540600480360381019061053b91906120f9565b611804565b60405161054d9190612742565b60405180910390f35b34801561056257600080fd5b5061057d600480360381019061057891906121d9565b611850565b60405161058b92919061275d565b60405180910390f35b3480156105a057600080fd5b506105bb60048036038101906105b691906120f9565b6118dc565b005b3480156105c957600080fd5b506105e460048036038101906105df9190612187565b6119b0565b6040516105f292919061275d565b60405180910390f35b34801561060757600080fd5b50610622600480360381019061061d9190612122565b6119d4565b60405161062f9190612742565b60405180910390f35b34801561064457600080fd5b5061065f600480360381019061065a919061232b565b611a60565b60405161066d92919061275d565b60405180910390f35b34801561068257600080fd5b5061069d60048036038101906106989190612251565b611c8f565b6040516106aa9190612742565b60405180910390f35b3480156106bf57600080fd5b506106c8611cc5565b6040516106d59190612742565b60405180910390f35b3480156106ea57600080fd5b506106f3611ccb565b6040516107009190612742565b60405180910390f35b34801561071557600080fd5b50610730600480360381019061072b9190612187565b611cd1565b60405161073d9190612742565b60405180910390f35b34801561075257600080fd5b5061076d600480360381019061076891906120f9565b611ce9565b005b34801561077b57600080fd5b5061079660048036038101906107919190612187565b611e21565b005b3480156107a457600080fd5b506107bf60048036038101906107ba9190612187565b611f4a565b6040516107cd92919061275d565b60405180910390f35b60008060008460ff166001811115610817577f4e487b7100000000000000000000000000000000000000000000000000000000600052602160045260246000fd5b905060006001811115610853577f4e487b7100000000000000000000000000000000000000000000000000000000600052602160045260246000fd5b81600181111561088c577f4e487b7100000000000000000000000000000000000000000000000000000000600052602160045260246000fd5b14156108a957838761089e91906127db565b86925092505061093a565b6001808111156108e2577f4e487b7100000000000000000000000000000000000000000000000000000000600052602160045260246000fd5b81600181111561091b577f4e487b7100000000000000000000000000000000000000000000000000000000600052602160045260246000fd5b14156109385786848761092e91906127db565b925092505061093a565b505b94509492505050565b600080600060096000858152602001908152602001600020604051806040016040529081600082015481526020016001820154815250509050806000015181602001519250925050915091565b6000828210156109a357600090506109b9565b828211156109b457600190506109b9565b600290505b92915050565b60045481565b600073ffffffffffffffffffffffffffffffffffffffff16600860009054906101000a900473ffffffffffffffffffffffffffffffffffffffff1673ffffffffffffffffffffffffffffffffffffffff1614610a56576040517f08c379a0000000000000000000000000000000000000000000000000000000008152600401610a4d906126a2565b60405180910390fd5b80600860006101000a81548173ffffffffffffffffffffffffffffffffffffffff021916908373ffffffffffffffffffffffffffffffffffffffff160217905550600860009054906101000a900473ffffffffffffffffffffffffffffffffffffffff16600760006101000a81548173ffffffffffffffffffffffffffffffffffffffff021916908373ffffffffffffffffffffffffffffffffffffffff16021790555050565b600060648284610b0d9190612862565b610b179190612831565b905092915050565b600e602052816000526040600020602052806000526040600020600091509150508060000154908060010154905082565b6000600f60008373ffffffffffffffffffffffffffffffffffffffff1673ffffffffffffffffffffffffffffffffffffffff1681526020019081526020016000209050600081805490501415610ba657506112bf565b600080828054905090505b60008111156111d357600083600183610bca91906128bc565b81548110610c01577f4e487b7100000000000000000000000000000000000000000000000000000000600052603260045260246000fd5b906000526020600020015490506000610c2543600354600454600c54600b5461168b565b9050600282610c3491906127db565b811015610c425750506111c0565b600080610c4e84611f4a565b91509150600081148015610c6d5750600384610c6a91906127db565b83105b15610c7b57505050506111c0565b6000610c878383610990565b90506000831480610c985750600082145b15610ca257600290505b8760018980549050610cb491906128bc565b81548110610ceb577f4e487b7100000000000000000000000000000000000000000000000000000000600052603260045260246000fd5b906000526020600020015488600188610d0491906128bc565b81548110610d3b577f4e487b7100000000000000000000000000000000000000000000000000000000600052603260045260246000fd5b906000526020600020018190555087805480610d80577f4e487b7100000000000000000000000000000000000000000000000000000000600052603160045260246000fd5b600190038181906000526020600020016000905590556000600e60008b73ffffffffffffffffffffffffffffffffffffffff1673ffffffffffffffffffffffffffffffffffffffff1681526020019081526020016000206000878152602001908152602001600020604051806040016040529081600082015481526020016001820154815250509050600060096000888152602001908152602001600020604051806040016040529081600082015481526020016001820154815250509050600080610e5f846020015185600001518560200151866000015189611a60565b91509150818b610e6f91906127db565b9a5080600d54610e7f91906127db565b600d819055506000610ea38560200151866000015186602001518760000151611c8f565b905080600760009054906101000a900473ffffffffffffffffffffffffffffffffffffffff1673ffffffffffffffffffffffffffffffffffffffff166370a08231306040518263ffffffff1660e01b8152600401610f01919061265e565b60206040518083038186803b158015610f1957600080fd5b505afa158015610f2d573d6000803e3d6000fd5b505050506040513d601f19601f82011682018060405250810190610f5191906121b0565b1061100b57600760009054906101000a900473ffffffffffffffffffffffffffffffffffffffff1673ffffffffffffffffffffffffffffffffffffffff1663a9059cbb8f836040518363ffffffff1660e01b8152600401610fb3929190612679565b602060405180830381600087803b158015610fcd57600080fd5b505af1158015610fe1573d6000803e3d6000fd5b505050506040513d601f19601f82011682018060405250810190611005919061215e565b50611166565b600760009054906101000a900473ffffffffffffffffffffffffffffffffffffffff1673ffffffffffffffffffffffffffffffffffffffff1663a9059cbb8f600760009054906101000a900473ffffffffffffffffffffffffffffffffffffffff1673ffffffffffffffffffffffffffffffffffffffff166370a08231306040518263ffffffff1660e01b81526004016110a5919061265e565b60206040518083038186803b1580156110bd57600080fd5b505afa1580156110d1573d6000803e3d6000fd5b505050506040513d601f19601f820116820180604052508101906110f591906121b0565b6040518363ffffffff1660e01b8152600401611112929190612679565b602060405180830381600087803b15801561112c57600080fd5b505af1158015611140573d6000803e3d6000fd5b505050506040513d601f19601f82011682018060405250810190611164919061215e565b505b8d73ffffffffffffffffffffffffffffffffffffffff168a7f1a82fd78981b9465af4b8bd67f27607df5d873b7a978cc8cee1a65b85c2990fc856040516111ad9190612742565b60405180910390a3505050505050505050505b80806111cb90612965565b915050610bb1565b5060008110611224578273ffffffffffffffffffffffffffffffffffffffff166108fc829081150290604051600060405180830381858888f19350505050158015611222573d6000803e3d6000fd5b505b6000600d5411156112bc57600560009054906101000a900473ffffffffffffffffffffffffffffffffffffffff1673ffffffffffffffffffffffffffffffffffffffff16625c33e1600d546040518263ffffffff1660e01b81526004016000604051808303818588803b15801561129a57600080fd5b505af11580156112ae573d6000803e3d6000fd5b50505050506000600d819055505b50505b50565b60003411611305576040517f08c379a00000000000000000000000000000000000000000000000000000000081526004016112fc906126c2565b60405180910390fd5b61130d6116e3565b61131633610b50565b600061132434600254610afd565b905080600d5461133491906127db565b600d819055506000813461134891906128bc565b9050600061136143600354600454600c54600b5461168b565b9050601060003373ffffffffffffffffffffffffffffffffffffffff1673ffffffffffffffffffffffffffffffffffffffff168152602001908152602001600020600082815260200190815260200160002060009054906101000a900460ff1661149557600f60003373ffffffffffffffffffffffffffffffffffffffff1673ffffffffffffffffffffffffffffffffffffffff1681526020019081526020016000208190806001815401808255809150506001900390600052602060002001600090919091909150556001601060003373ffffffffffffffffffffffffffffffffffffffff1673ffffffffffffffffffffffffffffffffffffffff168152602001908152602001600020600083815260200190815260200160002060006101000a81548160ff0219169083151502179055505b6000600960008381526020019081526020016000206040518060400160405290816000820154815260200160018201548152505090506000806114e28360000151846020015189886107d6565b915091506040518060400160405280838152602001828152506009600086815260200190815260200160002060008201518160000155602082015181600101559050506000600e60003373ffffffffffffffffffffffffffffffffffffffff1673ffffffffffffffffffffffffffffffffffffffff16815260200190815260200160002060008681526020019081526020016000206040518060400160405290816000820154815260200160018201548152505090506115ac816000015182602001518a896107d6565b8093508194505050604051806040016040528084815260200183815250600e60003373ffffffffffffffffffffffffffffffffffffffff1673ffffffffffffffffffffffffffffffffffffffff16815260200190815260200160002060008781526020019081526020016000206000820151816000015560208201518160010155905050843373ffffffffffffffffffffffffffffffffffffffff167f560e32e4934b84f33b228f40ddc5b9fa690426ee087005a7d979d7921d24a02b888b604051611679929190612786565b60405180910390a35050505050505050565b60008386101561169d578190506116ce565b6001838686896116ad91906128bc565b6116b79190612831565b6116c191906127db565b6116cb91906127db565b90505b95945050505050565b600d5481565b60035481565b60006116fa43600354600454600c54600b5461168b565b90506000600a600083815260200190815260200160002054141561178357611720611f96565b600a600083815260200190815260200160002081905550807f7a3325b9d11ddc18edd3dff130141b6ce951061520c6b933a604bf701f3d8052600a60008481526020019081526020016000205460405161177a9190612742565b60405180910390a25b50565b68240cba98add2c4000081565b600f60205281600052604060002081815481106117af57600080fd5b90600052602060002001600091509150505481565b600c5481565b600083826001876117db91906128bc565b6117e591906128bc565b6117ef9190612862565b836117fa91906127db565b9050949350505050565b6000600f60008373ffffffffffffffffffffffffffffffffffffffff1673ffffffffffffffffffffffffffffffffffffffff168152602001908152602001600020805490509050919050565b6000806000600e60008573ffffffffffffffffffffffffffffffffffffffff1673ffffffffffffffffffffffffffffffffffffffff16815260200190815260200160002060008681526020019081526020016000206040518060400160405290816000820154815260200160018201548152505090508060000151816020015192509250509250929050565b600160009054906101000a900473ffffffffffffffffffffffffffffffffffffffff1673ffffffffffffffffffffffffffffffffffffffff163373ffffffffffffffffffffffffffffffffffffffff161461196c576040517f08c379a000000000000000000000000000000000000000000000000000000000815260040161196390612702565b60405180910390fd5b80600160006101000a81548173ffffffffffffffffffffffffffffffffffffffff021916908373ffffffffffffffffffffffffffffffffffffffff16021790555050565b60096020528060005260406000206000915090508060000154908060010154905082565b6000600f60008473ffffffffffffffffffffffffffffffffffffffff1673ffffffffffffffffffffffffffffffffffffffff1681526020019081526020016000208281548110611a4d577f4e487b7100000000000000000000000000000000000000000000000000000000600052603260045260246000fd5b9060005260206000200154905092915050565b60008060008360ff166002811115611aa1577f4e487b7100000000000000000000000000000000000000000000000000000000600052602160045260246000fd5b905060008587611ab191906127db565b905060016002811115611aed577f4e487b7100000000000000000000000000000000000000000000000000000000600052602160045260246000fd5b826002811115611b26577f4e487b7100000000000000000000000000000000000000000000000000000000600052602160045260246000fd5b148015611b34575060008714155b15611b4b57611b44818a89612044565b9350611c83565b60006002811115611b85577f4e487b7100000000000000000000000000000000000000000000000000000000600052602160045260246000fd5b826002811115611bbe577f4e487b7100000000000000000000000000000000000000000000000000000000600052602160045260246000fd5b148015611bcc575060008614155b15611be357611bdc818988612044565b9350611c82565b600280811115611c1c577f4e487b7100000000000000000000000000000000000000000000000000000000600052602160045260246000fd5b826002811115611c55577f4e487b7100000000000000000000000000000000000000000000000000000000600052602160045260246000fd5b1415611c6e578789611c6791906127db565b9350611c81565b600093508789611c7e91906127db565b92505b5b5b50509550959350505050565b6000611cbb68240cba98add2c400008587611caa91906127db565b8486611cb691906127db565b612044565b9050949350505050565b60025481565b600b5481565b600a6020528060005260406000206000915090505481565b600073ffffffffffffffffffffffffffffffffffffffff16600660009054906101000a900473ffffffffffffffffffffffffffffffffffffffff1673ffffffffffffffffffffffffffffffffffffffff1614611d7a576040517f08c379a0000000000000000000000000000000000000000000000000000000008152600401611d71906126e2565b60405180910390fd5b80600660006101000a81548173ffffffffffffffffffffffffffffffffffffffff021916908373ffffffffffffffffffffffffffffffffffffffff160217905550600660009054906101000a900473ffffffffffffffffffffffffffffffffffffffff16600560006101000a81548173ffffffffffffffffffffffffffffffffffffffff021916908373ffffffffffffffffffffffffffffffffffffffff16021790555050565b600160009054906101000a900473ffffffffffffffffffffffffffffffffffffffff1673ffffffffffffffffffffffffffffffffffffffff163373ffffffffffffffffffffffffffffffffffffffff1614611eb1576040517f08c379a0000000000000000000000000000000000000000000000000000000008152600401611ea890612702565b60405180910390fd5b60008111611ef4576040517f08c379a0000000000000000000000000000000000000000000000000000000008152600401611eeb90612722565b60405180910390fd5b6000611f0b43600354600454600c54600b5461168b565b9050611f2b600182611f1d91906127db565b600354600454600c546117ca565b60048190555080600c8190555080600b81905550816003819055505050565b600080600a6000600185611f5e91906127db565b815260200190815260200160002054600a6000600286611f7e91906127db565b81526020019081526020016000205491509150915091565b60008060008054906101000a900473ffffffffffffffffffffffffffffffffffffffff1673ffffffffffffffffffffffffffffffffffffffff1663feaf968c6040518163ffffffff1660e01b815260040160a06040518083038186803b158015611fff57600080fd5b505afa158015612013573d6000803e3d6000fd5b505050506040513d601f19601f82011682018060405250810190612037919061242e565b5050509150508091505090565b60008184846120539190612862565b61205d9190612831565b90509392505050565b600081359050612075816129ed565b92915050565b60008151905061208a81612a04565b92915050565b60008151905061209f81612a1b565b92915050565b6000813590506120b481612a32565b92915050565b6000815190506120c981612a32565b92915050565b6000813590506120de81612a49565b92915050565b6000815190506120f381612a60565b92915050565b60006020828403121561210b57600080fd5b600061211984828501612066565b91505092915050565b6000806040838503121561213557600080fd5b600061214385828601612066565b9250506020612154858286016120a5565b9150509250929050565b60006020828403121561217057600080fd5b600061217e8482850161207b565b91505092915050565b60006020828403121561219957600080fd5b60006121a7848285016120a5565b91505092915050565b6000602082840312156121c257600080fd5b60006121d0848285016120ba565b91505092915050565b600080604083850312156121ec57600080fd5b60006121fa858286016120a5565b925050602061220b85828601612066565b9150509250929050565b6000806040838503121561222857600080fd5b6000612236858286016120a5565b9250506020612247858286016120a5565b9150509250929050565b6000806000806080858703121561226757600080fd5b6000612275878288016120a5565b9450506020612286878288016120a5565b9350506040612297878288016120a5565b92505060606122a8878288016120a5565b91505092959194509250565b600080600080600060a086880312156122cc57600080fd5b60006122da888289016120a5565b95505060206122eb888289016120a5565b94505060406122fc888289016120a5565b935050606061230d888289016120a5565b925050608061231e888289016120a5565b9150509295509295909350565b600080600080600060a0868803121561234357600080fd5b6000612351888289016120a5565b9550506020612362888289016120a5565b9450506040612373888289016120a5565b9350506060612384888289016120a5565b9250506080612395888289016120cf565b9150509295509295909350565b600080600080608085870312156123b857600080fd5b60006123c6878288016120a5565b94505060206123d7878288016120a5565b93505060406123e8878288016120cf565b92505060606123f9878288016120a5565b91505092959194509250565b60006020828403121561241757600080fd5b6000612425848285016120cf565b91505092915050565b600080600080600060a0868803121561244657600080fd5b6000612454888289016120e4565b955050602061246588828901612090565b9450506040612476888289016120ba565b9350506060612487888289016120ba565b9250506080612498888289016120e4565b9150509295509295909350565b6124ae816128f0565b82525050565b60006124c16019836127ca565b91507f746f6b656e206164647265737320616c726561647920736574000000000000006000830152602082019050919050565b6000612501601d836127ca565b91507f4f6e6c79207374726963746c7920706f7369746976652076616c7565730000006000830152602082019050919050565b6000612541601b836127ca565b91507f7374616b696e67206164647265737320616c72656164792073657400000000006000830152602082019050919050565b60006125816024836127ca565b91507f6f6e6c7920676f7665726e616e63652063616e2063616c6c2074686973206d6560008301527f74686f64000000000000000000000000000000000000000000000000000000006020830152604082019050919050565b60006125e76027836127ca565b91507f77696e646f772073697a652073686f756c64206265207374726963746c79207060008301527f6f736974697665000000000000000000000000000000000000000000000000006020830152604082019050919050565b61264981612938565b82525050565b61265881612942565b82525050565b600060208201905061267360008301846124a5565b92915050565b600060408201905061268e60008301856124a5565b61269b6020830184612640565b9392505050565b600060208201905081810360008301526126bb816124b4565b9050919050565b600060208201905081810360008301526126db816124f4565b9050919050565b600060208201905081810360008301526126fb81612534565b9050919050565b6000602082019050818103600083015261271b81612574565b9050919050565b6000602082019050818103600083015261273b816125da565b9050919050565b60006020820190506127576000830184612640565b92915050565b60006040820190506127726000830185612640565b61277f6020830184612640565b9392505050565b600060408201905061279b6000830185612640565b6127a8602083018461264f565b9392505050565b60006020820190506127c4600083018461264f565b92915050565b600082825260208201905092915050565b60006127e682612938565b91506127f183612938565b9250827fffffffffffffffffffffffffffffffffffffffffffffffffffffffffffffffff038211156128265761282561298f565b5b828201905092915050565b600061283c82612938565b915061284783612938565b925082612857576128566129be565b5b828204905092915050565b600061286d82612938565b915061287883612938565b9250817fffffffffffffffffffffffffffffffffffffffffffffffffffffffffffffffff04831182151516156128b1576128b061298f565b5b828202905092915050565b60006128c782612938565b91506128d283612938565b9250828210156128e5576128e461298f565b5b828203905092915050565b60006128fb82612918565b9050919050565b60008115159050919050565b6000819050919050565b600073ffffffffffffffffffffffffffffffffffffffff82169050919050565b6000819050919050565b600060ff82169050919050565b600069ffffffffffffffffffff82169050919050565b600061297082612938565b915060008214156129845761298361298f565b5b600182039050919050565b7f4e487b7100000000000000000000000000000000000000000000000000000000600052601160045260246000fd5b7f4e487b7100000000000000000000000000000000000000000000000000000000600052601260045260246000fd5b6129f6816128f0565b8114612a0157600080fd5b50565b612a0d81612902565b8114612a1857600080fd5b50565b612a248161290e565b8114612a2f57600080fd5b50565b612a3b81612938565b8114612a4657600080fd5b50565b612a5281612942565b8114612a5d57600080fd5b50565b612a698161294f565b8114612a7457600080fd5b5056fea2646970667358221220563dace16d7443e5b079ae4826cc9b2f9f0b7d951f5fb72406f55564daee376e64736f6c63430008000033",
  "linkReferences": {},
  "deployedLinkReferences": {}
}