{
  "_format": "hh-sol-artifact-1",
  "contractName": "BinaryBet",
  "sourceName": "contracts/BinaryBet.sol",
  "abi": [
    {
      "inputs": [
        {
          "internalType": "uint256",
          "name": "_windowDuration",
          "type": "uint256"
        },
        {
          "internalType": "uint256",
          "name": "_fee",
          "type": "uint256"
        },
        {
          "internalType": "address",
          "name": "aggregator",
          "type": "address"
        },
        {
          "internalType": "address",
          "name": "stakingContract",
          "type": "address"
        },
        {
          "internalType": "address",
          "name": "tokenContract",
          "type": "address"
        }
      ],
      "stateMutability": "nonpayable",
      "type": "constructor"
    },
    {
      "anonymous": false,
      "inputs": [
        {
          "indexed": true,
          "internalType": "uint256",
          "name": "windowNumber",
          "type": "uint256"
        },
        {
          "indexed": true,
          "internalType": "address",
          "name": "user",
          "type": "address"
        },
        {
          "indexed": false,
          "internalType": "uint256",
          "name": "gain",
          "type": "uint256"
        }
      ],
      "name": "betSettled",
      "type": "event"
    },
    {
      "anonymous": false,
      "inputs": [
        {
          "indexed": true,
          "internalType": "address",
          "name": "user",
          "type": "address"
        },
        {
          "indexed": true,
          "internalType": "uint256",
          "name": "windowNumber",
          "type": "uint256"
        },
        {
          "indexed": false,
          "internalType": "uint256",
          "name": "value",
          "type": "uint256"
        },
        {
          "indexed": false,
          "internalType": "uint8",
          "name": "side",
          "type": "uint8"
        }
      ],
      "name": "newBet",
      "type": "event"
    },
    {
      "anonymous": false,
      "inputs": [
        {
          "indexed": true,
          "internalType": "uint256",
          "name": "windowNumber",
          "type": "uint256"
        },
        {
          "indexed": false,
          "internalType": "uint256",
          "name": "price",
          "type": "uint256"
        }
      ],
      "name": "priceUpdated",
      "type": "event"
    },
    {
      "inputs": [],
      "name": "REWARD_PER_WINDOW",
      "outputs": [
        {
          "internalType": "uint256",
          "name": "",
          "type": "uint256"
        }
      ],
      "stateMutability": "view",
      "type": "function"
    },
    {
      "inputs": [],
      "name": "accumulatedFees",
      "outputs": [
        {
          "internalType": "uint256",
          "name": "",
          "type": "uint256"
        }
      ],
      "stateMutability": "view",
      "type": "function"
    },
    {
      "inputs": [
        {
          "internalType": "address",
          "name": "user",
          "type": "address"
        }
      ],
      "name": "betListLen",
      "outputs": [
        {
          "internalType": "uint256",
          "name": "",
          "type": "uint256"
        }
      ],
      "stateMutability": "view",
      "type": "function"
    },
    {
      "inputs": [
        {
          "internalType": "uint256",
          "name": "referencePrice",
          "type": "uint256"
        },
        {
          "internalType": "uint256",
          "name": "settlementPrice",
          "type": "uint256"
        }
      ],
      "name": "betResult",
      "outputs": [
        {
          "internalType": "uint8",
          "name": "",
          "type": "uint8"
        }
      ],
      "stateMutability": "pure",
      "type": "function"
    },
    {
      "inputs": [
        {
          "internalType": "uint256",
          "name": "upStake",
          "type": "uint256"
        },
        {
          "internalType": "uint256",
          "name": "downStake",
          "type": "uint256"
        },
        {
          "internalType": "uint256",
          "name": "poolUp",
          "type": "uint256"
        },
        {
          "internalType": "uint256",
          "name": "poolDown",
          "type": "uint256"
        }
      ],
      "name": "calculateTokenReward",
      "outputs": [
        {
          "internalType": "uint256",
          "name": "",
          "type": "uint256"
        }
      ],
      "stateMutability": "pure",
      "type": "function"
    },
    {
      "inputs": [
        {
          "internalType": "address",
          "name": "newGovernance",
          "type": "address"
        }
      ],
      "name": "changeGovernance",
      "outputs": [],
      "stateMutability": "nonpayable",
      "type": "function"
    },
    {
      "inputs": [
        {
          "internalType": "uint256",
          "name": "windowSize",
          "type": "uint256"
        }
      ],
      "name": "changeWindowSize",
      "outputs": [],
      "stateMutability": "nonpayable",
      "type": "function"
    },
    {
      "inputs": [
        {
          "internalType": "uint256",
          "name": "value",
          "type": "uint256"
        },
        {
          "internalType": "uint256",
          "name": "_fee",
          "type": "uint256"
        }
      ],
      "name": "computeFee",
      "outputs": [
        {
          "internalType": "uint256",
          "name": "betFee",
          "type": "uint256"
        }
      ],
      "stateMutability": "pure",
      "type": "function"
    },
    {
      "inputs": [],
      "name": "fee",
      "outputs": [
        {
          "internalType": "uint256",
          "name": "",
          "type": "uint256"
        }
      ],
      "stateMutability": "view",
      "type": "function"
    },
    {
      "inputs": [],
      "name": "firstBlock",
      "outputs": [
        {
          "internalType": "uint256",
          "name": "",
          "type": "uint256"
        }
      ],
      "stateMutability": "view",
      "type": "function"
    },
    {
      "inputs": [],
      "name": "firstWindow",
      "outputs": [
        {
          "internalType": "uint256",
          "name": "",
          "type": "uint256"
        }
      ],
      "stateMutability": "view",
      "type": "function"
    },
    {
      "inputs": [
        {
          "internalType": "uint256",
          "name": "windowNumber",
          "type": "uint256"
        }
      ],
      "name": "getPoolValues",
      "outputs": [
        {
          "internalType": "uint256",
          "name": "",
          "type": "uint256"
        },
        {
          "internalType": "uint256",
          "name": "",
          "type": "uint256"
        }
      ],
      "stateMutability": "view",
      "type": "function"
    },
    {
      "inputs": [
        {
          "internalType": "address",
          "name": "user",
          "type": "address"
        },
        {
          "internalType": "uint256",
          "name": "index",
          "type": "uint256"
        }
      ],
      "name": "getUserBetList",
      "outputs": [
        {
          "internalType": "uint256",
          "name": "",
          "type": "uint256"
        }
      ],
      "stateMutability": "view",
      "type": "function"
    },
    {
      "inputs": [
        {
          "internalType": "uint256",
          "name": "windowNumber",
          "type": "uint256"
        },
        {
          "internalType": "address",
          "name": "user",
          "type": "address"
        }
      ],
      "name": "getUserStake",
      "outputs": [
        {
          "internalType": "uint256",
          "name": "",
          "type": "uint256"
        },
        {
          "internalType": "uint256",
          "name": "",
          "type": "uint256"
        }
      ],
      "stateMutability": "view",
      "type": "function"
    },
    {
      "inputs": [
        {
          "internalType": "uint256",
          "name": "window",
          "type": "uint256"
        }
      ],
      "name": "getWindowBetPrices",
      "outputs": [
        {
          "internalType": "uint256",
          "name": "",
          "type": "uint256"
        },
        {
          "internalType": "uint256",
          "name": "",
          "type": "uint256"
        }
      ],
      "stateMutability": "view",
      "type": "function"
    },
    {
      "inputs": [
        {
          "internalType": "uint256",
          "name": "currentBlock",
          "type": "uint256"
        },
        {
          "internalType": "uint256",
          "name": "_windowDuration",
          "type": "uint256"
        },
        {
          "internalType": "uint256",
          "name": "_firstBlock",
          "type": "uint256"
        },
        {
          "internalType": "uint256",
          "name": "_windowOffset",
          "type": "uint256"
        },
        {
          "internalType": "uint256",
          "name": "_firstWindow",
          "type": "uint256"
        }
      ],
      "name": "getWindowNumber",
      "outputs": [
        {
          "internalType": "uint256",
          "name": "windowNumber",
          "type": "uint256"
        }
      ],
      "stateMutability": "pure",
      "type": "function"
    },
    {
      "inputs": [
        {
          "internalType": "uint256",
          "name": "windowNumber",
          "type": "uint256"
        },
        {
          "internalType": "uint256",
          "name": "_windowDuration",
          "type": "uint256"
        },
        {
          "internalType": "uint256",
          "name": "_firstBlock",
          "type": "uint256"
        },
        {
          "internalType": "uint256",
          "name": "_windowOffset",
          "type": "uint256"
        }
      ],
      "name": "getWindowStartingBlock",
      "outputs": [
        {
          "internalType": "uint256",
          "name": "startingBlock",
          "type": "uint256"
        }
      ],
      "stateMutability": "pure",
      "type": "function"
    },
    {
      "inputs": [
        {
          "internalType": "uint8",
          "name": "side",
          "type": "uint8"
        }
      ],
      "name": "placeBet",
      "outputs": [],
      "stateMutability": "payable",
      "type": "function"
    },
    {
      "inputs": [
        {
          "internalType": "uint256",
          "name": "",
          "type": "uint256"
        }
      ],
      "name": "pools",
      "outputs": [
        {
          "internalType": "uint256",
          "name": "downValue",
          "type": "uint256"
        },
        {
          "internalType": "uint256",
          "name": "upValue",
          "type": "uint256"
        }
      ],
      "stateMutability": "view",
      "type": "function"
    },
    {
      "inputs": [
        {
          "internalType": "uint256",
          "name": "upStake",
          "type": "uint256"
        },
        {
          "internalType": "uint256",
          "name": "downStake",
          "type": "uint256"
        },
        {
          "internalType": "uint256",
          "name": "poolUp",
          "type": "uint256"
        },
        {
          "internalType": "uint256",
          "name": "poolDown",
          "type": "uint256"
        },
        {
          "internalType": "uint8",
          "name": "betResult",
          "type": "uint8"
        }
      ],
      "name": "settleBet",
      "outputs": [
        {
          "internalType": "uint256",
          "name": "gain",
          "type": "uint256"
        },
        {
          "internalType": "uint256",
          "name": "fees",
          "type": "uint256"
        }
      ],
      "stateMutability": "pure",
      "type": "function"
    },
    {
      "inputs": [
        {
          "internalType": "address",
          "name": "user",
          "type": "address"
        }
      ],
      "name": "updateBalance",
      "outputs": [],
      "stateMutability": "nonpayable",
      "type": "function"
    },
    {
      "inputs": [
        {
          "internalType": "uint256",
          "name": "downValue",
          "type": "uint256"
        },
        {
          "internalType": "uint256",
          "name": "upValue",
          "type": "uint256"
        },
        {
          "internalType": "uint8",
          "name": "side",
          "type": "uint8"
        },
        {
          "internalType": "uint256",
          "name": "value",
          "type": "uint256"
        }
      ],
      "name": "updatePool",
      "outputs": [
        {
          "internalType": "uint256",
          "name": "",
          "type": "uint256"
        },
        {
          "internalType": "uint256",
          "name": "",
          "type": "uint256"
        }
      ],
      "stateMutability": "pure",
      "type": "function"
    },
    {
      "inputs": [],
      "name": "updatePrice",
      "outputs": [],
      "stateMutability": "nonpayable",
      "type": "function"
    },
    {
      "inputs": [
        {
          "internalType": "address",
          "name": "",
          "type": "address"
        },
        {
          "internalType": "uint256",
          "name": "",
          "type": "uint256"
        }
      ],
      "name": "userBets",
      "outputs": [
        {
          "internalType": "uint256",
          "name": "",
          "type": "uint256"
        }
      ],
      "stateMutability": "view",
      "type": "function"
    },
    {
      "inputs": [
        {
          "internalType": "address",
          "name": "",
          "type": "address"
        },
        {
          "internalType": "uint256",
          "name": "",
          "type": "uint256"
        }
      ],
      "name": "userStake",
      "outputs": [
        {
          "internalType": "uint256",
          "name": "downValue",
          "type": "uint256"
        },
        {
          "internalType": "uint256",
          "name": "upValue",
          "type": "uint256"
        }
      ],
      "stateMutability": "view",
      "type": "function"
    },
    {
      "inputs": [],
      "name": "windowDuration",
      "outputs": [
        {
          "internalType": "uint256",
          "name": "",
          "type": "uint256"
        }
      ],
      "stateMutability": "view",
      "type": "function"
    },
    {
      "inputs": [],
      "name": "windowOffset",
      "outputs": [
        {
          "internalType": "uint256",
          "name": "",
          "type": "uint256"
        }
      ],
      "stateMutability": "view",
      "type": "function"
    },
    {
      "inputs": [
        {
          "internalType": "uint256",
          "name": "",
          "type": "uint256"
        }
      ],
      "name": "windowPrice",
      "outputs": [
        {
          "internalType": "uint256",
          "name": "",
          "type": "uint256"
        }
      ],
      "stateMutability": "view",
      "type": "function"
    }
  ],
  "bytecode": "0x60806040526001600b553480156200001657600080fd5b50604051620029df380380620029df83398181016040528101906200003c9190620001c6565b60648411156200004b57600080fd5b826000806101000a81548173ffffffffffffffffffffffffffffffffffffffff021916908373ffffffffffffffffffffffffffffffffffffffff16021790555043600481905550846003819055508360028190555033600160006101000a81548173ffffffffffffffffffffffffffffffffffffffff021916908373ffffffffffffffffffffffffffffffffffffffff1602179055506001600b8190555081600660006101000a81548173ffffffffffffffffffffffffffffffffffffffff021916908373ffffffffffffffffffffffffffffffffffffffff160217905550600860009054906101000a900473ffffffffffffffffffffffffffffffffffffffff16600760006101000a81548173ffffffffffffffffffffffffffffffffffffffff021916908373ffffffffffffffffffffffffffffffffffffffff1602179055505050505050620002ba565b600081519050620001a98162000286565b92915050565b600081519050620001c081620002a0565b92915050565b600080600080600060a08688031215620001df57600080fd5b6000620001ef88828901620001af565b95505060206200020288828901620001af565b9450506040620002158882890162000198565b9350506060620002288882890162000198565b92505060806200023b8882890162000198565b9150509295509295909350565b600062000255826200025c565b9050919050565b600073ffffffffffffffffffffffffffffffffffffffff82169050919050565b6000819050919050565b620002918162000248565b81146200029d57600080fd5b50565b620002ab816200027c565b8114620002b757600080fd5b50565b61271580620002ca6000396000f3fe6080604052600436106101b75760003560e01c806380962668116100ec578063ca055e531161008a578063e0a5cee311610064578063e0a5cee31461069f578063e0d65d87146106ca578063f52818f014610707578063f83b35fb14610730576101b7565b8063ca055e53146105f9578063daaac9d214610637578063ddca3f4314610674576101b7565b80639626a230116100c65780639626a2301461051757806399572d6f14610555578063ac4afa381461057e578063b47a3566146105bc576101b7565b80638096266814610472578063849cd1c71461049d57806389b808a7146104da576101b7565b806343046844116101595780635c11ff7a116101335780635c11ff7a146103c8578063673a7e28146103f357806371a422071461040a5780638068aa6814610435576101b7565b80634304684414610344578063576fe42f14610360578063587f5ed71461039d576101b7565b8063231b026811610195578063231b0268146102755780632ff284c2146102a05780633937ea4f146102dd57806340b8405a1461031b576101b7565b80630ed6ca29146101bc5780630eff4d88146101fa5780631bb5abf914610238575b600080fd5b3480156101c857600080fd5b506101e360048036038101906101de91906120ca565b61076e565b6040516101f19291906123c5565b60405180910390f35b34801561020657600080fd5b50610221600480360381019061021c9190611eaf565b6108db565b60405161022f9291906123c5565b60405180910390f35b34801561024457600080fd5b5061025f600480360381019061025a9190611f3d565b610928565b60405161026c9190612417565b60405180910390f35b34801561028157600080fd5b5061028a610957565b60405161029791906123aa565b60405180910390f35b3480156102ac57600080fd5b506102c760048036038101906102c29190611f3d565b61095d565b6040516102d491906123aa565b60405180910390f35b3480156102e957600080fd5b5061030460048036038101906102ff9190611e4a565b61097f565b6040516103129291906123c5565b60405180910390f35b34801561032757600080fd5b50610342600480360381019061033d9190611e21565b6109b0565b005b61035e6004803603810190610359919061212d565b611122565b005b34801561036c57600080fd5b5061038760048036038101906103829190611fdc565b6114eb565b60405161039491906123aa565b60405180910390f35b3480156103a957600080fd5b506103b2611537565b6040516103bf91906123aa565b60405180910390f35b3480156103d457600080fd5b506103dd61153d565b6040516103ea91906123aa565b60405180910390f35b3480156103ff57600080fd5b50610408611543565b005b34801561041657600080fd5b5061041f6115e6565b60405161042c91906123aa565b60405180910390f35b34801561044157600080fd5b5061045c60048036038101906104579190611e4a565b6115f3565b60405161046991906123aa565b60405180910390f35b34801561047e57600080fd5b50610487611624565b60405161049491906123aa565b60405180910390f35b3480156104a957600080fd5b506104c460048036038101906104bf9190611f79565b61162a565b6040516104d191906123aa565b60405180910390f35b3480156104e657600080fd5b5061050160048036038101906104fc9190611e21565b611664565b60405161050e91906123aa565b60405180910390f35b34801561052357600080fd5b5061053e60048036038101906105399190611f01565b6116b0565b60405161054c9291906123c5565b60405180910390f35b34801561056157600080fd5b5061057c60048036038101906105779190611e21565b61173c565b005b34801561058a57600080fd5b506105a560048036038101906105a09190611eaf565b611810565b6040516105b39291906123c5565b60405180910390f35b3480156105c857600080fd5b506105e360048036038101906105de9190611e4a565b611834565b6040516105f091906123aa565b60405180910390f35b34801561060557600080fd5b50610620600480360381019061061b9190612053565b6118c0565b60405161062e9291906123c5565b60405180910390f35b34801561064357600080fd5b5061065e60048036038101906106599190611f79565b611aef565b60405161066b91906123aa565b60405180910390f35b34801561068057600080fd5b50610689611b25565b60405161069691906123aa565b60405180910390f35b3480156106ab57600080fd5b506106b4611b2b565b6040516106c191906123aa565b60405180910390f35b3480156106d657600080fd5b506106f160048036038101906106ec9190611eaf565b611b31565b6040516106fe91906123aa565b60405180910390f35b34801561071357600080fd5b5061072e60048036038101906107299190611eaf565b611b49565b005b34801561073c57600080fd5b5061075760048036038101906107529190611eaf565b611c72565b6040516107659291906123c5565b60405180910390f35b60008060008460ff1660018111156107af577f4e487b7100000000000000000000000000000000000000000000000000000000600052602160045260246000fd5b9050600060018111156107eb577f4e487b7100000000000000000000000000000000000000000000000000000000600052602160045260246000fd5b816001811115610824577f4e487b7100000000000000000000000000000000000000000000000000000000600052602160045260246000fd5b14156108415783876108369190612443565b8692509250506108d2565b60018081111561087a577f4e487b7100000000000000000000000000000000000000000000000000000000600052602160045260246000fd5b8160018111156108b3577f4e487b7100000000000000000000000000000000000000000000000000000000600052602160045260246000fd5b14156108d0578684876108c69190612443565b92509250506108d2565b505b94509492505050565b600080600060096000858152602001908152602001600020604051806040016040529081600082015481526020016001820154815250509050806000015181602001519250925050915091565b60008282101561093b5760009050610951565b8282111561094c5760019050610951565b600290505b92915050565b60045481565b60006064828461096d91906124ca565b6109779190612499565b905092915050565b600e602052816000526040600020602052806000526040600020600091509150508060000154908060010154905082565b6000600f60008373ffffffffffffffffffffffffffffffffffffffff1673ffffffffffffffffffffffffffffffffffffffff1681526020019081526020016000209050600081805490501415610a06575061111f565b600080828054905090505b600081111561103357600083600183610a2a9190612524565b81548110610a61577f4e487b7100000000000000000000000000000000000000000000000000000000600052603260045260246000fd5b906000526020600020015490506000610a8543600354600454600c54600b546114eb565b9050600282610a949190612443565b811015610aa2575050611020565b600080610aae84611c72565b91509150600081148015610acd5750600384610aca9190612443565b83105b15610adb5750505050611020565b6000610ae78383610928565b90506000831480610af85750600082145b15610b0257600290505b8760018980549050610b149190612524565b81548110610b4b577f4e487b7100000000000000000000000000000000000000000000000000000000600052603260045260246000fd5b906000526020600020015488600188610b649190612524565b81548110610b9b577f4e487b7100000000000000000000000000000000000000000000000000000000600052603260045260246000fd5b906000526020600020018190555087805480610be0577f4e487b7100000000000000000000000000000000000000000000000000000000600052603160045260246000fd5b600190038181906000526020600020016000905590556000600e60008b73ffffffffffffffffffffffffffffffffffffffff1673ffffffffffffffffffffffffffffffffffffffff1681526020019081526020016000206000878152602001908152602001600020604051806040016040529081600082015481526020016001820154815250509050600060096000888152602001908152602001600020604051806040016040529081600082015481526020016001820154815250509050600080610cbf8460200151856000015185602001518660000151896118c0565b91509150818b610ccf9190612443565b9a5080600d54610cdf9190612443565b600d819055506000610d038560200151866000015186602001518760000151611aef565b905080600760009054906101000a900473ffffffffffffffffffffffffffffffffffffffff1673ffffffffffffffffffffffffffffffffffffffff166370a08231306040518263ffffffff1660e01b8152600401610d619190612306565b60206040518083038186803b158015610d7957600080fd5b505afa158015610d8d573d6000803e3d6000fd5b505050506040513d601f19601f82011682018060405250810190610db19190611ed8565b10610e6b57600760009054906101000a900473ffffffffffffffffffffffffffffffffffffffff1673ffffffffffffffffffffffffffffffffffffffff1663a9059cbb8f836040518363ffffffff1660e01b8152600401610e13929190612321565b602060405180830381600087803b158015610e2d57600080fd5b505af1158015610e41573d6000803e3d6000fd5b505050506040513d601f19601f82011682018060405250810190610e659190611e86565b50610fc6565b600760009054906101000a900473ffffffffffffffffffffffffffffffffffffffff1673ffffffffffffffffffffffffffffffffffffffff1663a9059cbb8f600760009054906101000a900473ffffffffffffffffffffffffffffffffffffffff1673ffffffffffffffffffffffffffffffffffffffff166370a08231306040518263ffffffff1660e01b8152600401610f059190612306565b60206040518083038186803b158015610f1d57600080fd5b505afa158015610f31573d6000803e3d6000fd5b505050506040513d601f19601f82011682018060405250810190610f559190611ed8565b6040518363ffffffff1660e01b8152600401610f72929190612321565b602060405180830381600087803b158015610f8c57600080fd5b505af1158015610fa0573d6000803e3d6000fd5b505050506040513d601f19601f82011682018060405250810190610fc49190611e86565b505b8d73ffffffffffffffffffffffffffffffffffffffff168a7f1a82fd78981b9465af4b8bd67f27607df5d873b7a978cc8cee1a65b85c2990fc8560405161100d91906123aa565b60405180910390a3505050505050505050505b808061102b906125cd565b915050610a11565b5060008110611084578273ffffffffffffffffffffffffffffffffffffffff166108fc829081150290604051600060405180830381858888f19350505050158015611082573d6000803e3d6000fd5b505b6000600d54111561111c57600560009054906101000a900473ffffffffffffffffffffffffffffffffffffffff1673ffffffffffffffffffffffffffffffffffffffff16625c33e1600d546040518263ffffffff1660e01b81526004016000604051808303818588803b1580156110fa57600080fd5b505af115801561110e573d6000803e3d6000fd5b50505050506000600d819055505b50505b50565b60003411611165576040517f08c379a000000000000000000000000000000000000000000000000000000000815260040161115c9061234a565b60405180910390fd5b61116d611543565b611176336109b0565b60006111843460025461095d565b905080600d546111949190612443565b600d81905550600081346111a89190612524565b905060006111c143600354600454600c54600b546114eb565b9050601060003373ffffffffffffffffffffffffffffffffffffffff1673ffffffffffffffffffffffffffffffffffffffff168152602001908152602001600020600082815260200190815260200160002060009054906101000a900460ff166112f557600f60003373ffffffffffffffffffffffffffffffffffffffff1673ffffffffffffffffffffffffffffffffffffffff1681526020019081526020016000208190806001815401808255809150506001900390600052602060002001600090919091909150556001601060003373ffffffffffffffffffffffffffffffffffffffff1673ffffffffffffffffffffffffffffffffffffffff168152602001908152602001600020600083815260200190815260200160002060006101000a81548160ff0219169083151502179055505b60006009600083815260200190815260200160002060405180604001604052908160008201548152602001600182015481525050905060008061134283600001518460200151898861076e565b915091506040518060400160405280838152602001828152506009600086815260200190815260200160002060008201518160000155602082015181600101559050506000600e60003373ffffffffffffffffffffffffffffffffffffffff1673ffffffffffffffffffffffffffffffffffffffff168152602001908152602001600020600086815260200190815260200160002060405180604001604052908160008201548152602001600182015481525050905061140c816000015182602001518a8961076e565b8093508194505050604051806040016040528084815260200183815250600e60003373ffffffffffffffffffffffffffffffffffffffff1673ffffffffffffffffffffffffffffffffffffffff16815260200190815260200160002060008781526020019081526020016000206000820151816000015560208201518160010155905050843373ffffffffffffffffffffffffffffffffffffffff167f560e32e4934b84f33b228f40ddc5b9fa690426ee087005a7d979d7921d24a02b888b6040516114d99291906123ee565b60405180910390a35050505050505050565b6000838610156114fd5781905061152e565b60018386868961150d9190612524565b6115179190612499565b6115219190612443565b61152b9190612443565b90505b95945050505050565b600d5481565b60035481565b600061155a43600354600454600c54600b546114eb565b90506000600a60008381526020019081526020016000205414156115e357611580611cbe565b600a600083815260200190815260200160002081905550807f7a3325b9d11ddc18edd3dff130141b6ce951061520c6b933a604bf701f3d8052600a6000848152602001908152602001600020546040516115da91906123aa565b60405180910390a25b50565b68240cba98add2c4000081565b600f602052816000526040600020818154811061160f57600080fd5b90600052602060002001600091509150505481565b600c5481565b6000838260018761163b9190612524565b6116459190612524565b61164f91906124ca565b8361165a9190612443565b9050949350505050565b6000600f60008373ffffffffffffffffffffffffffffffffffffffff1673ffffffffffffffffffffffffffffffffffffffff168152602001908152602001600020805490509050919050565b6000806000600e60008573ffffffffffffffffffffffffffffffffffffffff1673ffffffffffffffffffffffffffffffffffffffff16815260200190815260200160002060008681526020019081526020016000206040518060400160405290816000820154815260200160018201548152505090508060000151816020015192509250509250929050565b600160009054906101000a900473ffffffffffffffffffffffffffffffffffffffff1673ffffffffffffffffffffffffffffffffffffffff163373ffffffffffffffffffffffffffffffffffffffff16146117cc576040517f08c379a00000000000000000000000000000000000000000000000000000000081526004016117c39061236a565b60405180910390fd5b80600160006101000a81548173ffffffffffffffffffffffffffffffffffffffff021916908373ffffffffffffffffffffffffffffffffffffffff16021790555050565b60096020528060005260406000206000915090508060000154908060010154905082565b6000600f60008473ffffffffffffffffffffffffffffffffffffffff1673ffffffffffffffffffffffffffffffffffffffff16815260200190815260200160002082815481106118ad577f4e487b7100000000000000000000000000000000000000000000000000000000600052603260045260246000fd5b9060005260206000200154905092915050565b60008060008360ff166002811115611901577f4e487b7100000000000000000000000000000000000000000000000000000000600052602160045260246000fd5b9050600085876119119190612443565b90506001600281111561194d577f4e487b7100000000000000000000000000000000000000000000000000000000600052602160045260246000fd5b826002811115611986577f4e487b7100000000000000000000000000000000000000000000000000000000600052602160045260246000fd5b148015611994575060008714155b156119ab576119a4818a89611d6c565b9350611ae3565b600060028111156119e5577f4e487b7100000000000000000000000000000000000000000000000000000000600052602160045260246000fd5b826002811115611a1e577f4e487b7100000000000000000000000000000000000000000000000000000000600052602160045260246000fd5b148015611a2c575060008614155b15611a4357611a3c818988611d6c565b9350611ae2565b600280811115611a7c577f4e487b7100000000000000000000000000000000000000000000000000000000600052602160045260246000fd5b826002811115611ab5577f4e487b7100000000000000000000000000000000000000000000000000000000600052602160045260246000fd5b1415611ace578789611ac79190612443565b9350611ae1565b600093508789611ade9190612443565b92505b5b5b50509550959350505050565b6000611b1b68240cba98add2c400008587611b0a9190612443565b8486611b169190612443565b611d6c565b9050949350505050565b60025481565b600b5481565b600a6020528060005260406000206000915090505481565b600160009054906101000a900473ffffffffffffffffffffffffffffffffffffffff1673ffffffffffffffffffffffffffffffffffffffff163373ffffffffffffffffffffffffffffffffffffffff1614611bd9576040517f08c379a0000000000000000000000000000000000000000000000000000000008152600401611bd09061236a565b60405180910390fd5b60008111611c1c576040517f08c379a0000000000000000000000000000000000000000000000000000000008152600401611c139061238a565b60405180910390fd5b6000611c3343600354600454600c54600b546114eb565b9050611c53600182611c459190612443565b600354600454600c5461162a565b60048190555080600c8190555080600b81905550816003819055505050565b600080600a6000600185611c869190612443565b815260200190815260200160002054600a6000600286611ca69190612443565b81526020019081526020016000205491509150915091565b60008060008054906101000a900473ffffffffffffffffffffffffffffffffffffffff1673ffffffffffffffffffffffffffffffffffffffff1663feaf968c6040518163ffffffff1660e01b815260040160a06040518083038186803b158015611d2757600080fd5b505afa158015611d3b573d6000803e3d6000fd5b505050506040513d601f19601f82011682018060405250810190611d5f9190612156565b5050509150508091505090565b6000818484611d7b91906124ca565b611d859190612499565b90509392505050565b600081359050611d9d81612655565b92915050565b600081519050611db28161266c565b92915050565b600081519050611dc781612683565b92915050565b600081359050611ddc8161269a565b92915050565b600081519050611df18161269a565b92915050565b600081359050611e06816126b1565b92915050565b600081519050611e1b816126c8565b92915050565b600060208284031215611e3357600080fd5b6000611e4184828501611d8e565b91505092915050565b60008060408385031215611e5d57600080fd5b6000611e6b85828601611d8e565b9250506020611e7c85828601611dcd565b9150509250929050565b600060208284031215611e9857600080fd5b6000611ea684828501611da3565b91505092915050565b600060208284031215611ec157600080fd5b6000611ecf84828501611dcd565b91505092915050565b600060208284031215611eea57600080fd5b6000611ef884828501611de2565b91505092915050565b60008060408385031215611f1457600080fd5b6000611f2285828601611dcd565b9250506020611f3385828601611d8e565b9150509250929050565b60008060408385031215611f5057600080fd5b6000611f5e85828601611dcd565b9250506020611f6f85828601611dcd565b9150509250929050565b60008060008060808587031215611f8f57600080fd5b6000611f9d87828801611dcd565b9450506020611fae87828801611dcd565b9350506040611fbf87828801611dcd565b9250506060611fd087828801611dcd565b91505092959194509250565b600080600080600060a08688031215611ff457600080fd5b600061200288828901611dcd565b955050602061201388828901611dcd565b945050604061202488828901611dcd565b935050606061203588828901611dcd565b925050608061204688828901611dcd565b9150509295509295909350565b600080600080600060a0868803121561206b57600080fd5b600061207988828901611dcd565b955050602061208a88828901611dcd565b945050604061209b88828901611dcd565b93505060606120ac88828901611dcd565b92505060806120bd88828901611df7565b9150509295509295909350565b600080600080608085870312156120e057600080fd5b60006120ee87828801611dcd565b94505060206120ff87828801611dcd565b935050604061211087828801611df7565b925050606061212187828801611dcd565b91505092959194509250565b60006020828403121561213f57600080fd5b600061214d84828501611df7565b91505092915050565b600080600080600060a0868803121561216e57600080fd5b600061217c88828901611e0c565b955050602061218d88828901611db8565b945050604061219e88828901611de2565b93505060606121af88828901611de2565b92505060806121c088828901611e0c565b9150509295509295909350565b6121d681612558565b82525050565b60006121e9601d83612432565b91507f4f6e6c79207374726963746c7920706f7369746976652076616c7565730000006000830152602082019050919050565b6000612229602483612432565b91507f6f6e6c7920676f7665726e616e63652063616e2063616c6c2074686973206d6560008301527f74686f64000000000000000000000000000000000000000000000000000000006020830152604082019050919050565b600061228f602783612432565b91507f77696e646f772073697a652073686f756c64206265207374726963746c79207060008301527f6f736974697665000000000000000000000000000000000000000000000000006020830152604082019050919050565b6122f1816125a0565b82525050565b612300816125aa565b82525050565b600060208201905061231b60008301846121cd565b92915050565b600060408201905061233660008301856121cd565b61234360208301846122e8565b9392505050565b60006020820190508181036000830152612363816121dc565b9050919050565b600060208201905081810360008301526123838161221c565b9050919050565b600060208201905081810360008301526123a381612282565b9050919050565b60006020820190506123bf60008301846122e8565b92915050565b60006040820190506123da60008301856122e8565b6123e760208301846122e8565b9392505050565b600060408201905061240360008301856122e8565b61241060208301846122f7565b9392505050565b600060208201905061242c60008301846122f7565b92915050565b600082825260208201905092915050565b600061244e826125a0565b9150612459836125a0565b9250827fffffffffffffffffffffffffffffffffffffffffffffffffffffffffffffffff0382111561248e5761248d6125f7565b5b828201905092915050565b60006124a4826125a0565b91506124af836125a0565b9250826124bf576124be612626565b5b828204905092915050565b60006124d5826125a0565b91506124e0836125a0565b9250817fffffffffffffffffffffffffffffffffffffffffffffffffffffffffffffffff0483118215151615612519576125186125f7565b5b828202905092915050565b600061252f826125a0565b915061253a836125a0565b92508282101561254d5761254c6125f7565b5b828203905092915050565b600061256382612580565b9050919050565b60008115159050919050565b6000819050919050565b600073ffffffffffffffffffffffffffffffffffffffff82169050919050565b6000819050919050565b600060ff82169050919050565b600069ffffffffffffffffffff82169050919050565b60006125d8826125a0565b915060008214156125ec576125eb6125f7565b5b600182039050919050565b7f4e487b7100000000000000000000000000000000000000000000000000000000600052601160045260246000fd5b7f4e487b7100000000000000000000000000000000000000000000000000000000600052601260045260246000fd5b61265e81612558565b811461266957600080fd5b50565b6126758161256a565b811461268057600080fd5b50565b61268c81612576565b811461269757600080fd5b50565b6126a3816125a0565b81146126ae57600080fd5b50565b6126ba816125aa565b81146126c557600080fd5b50565b6126d1816125b7565b81146126dc57600080fd5b5056fea2646970667358221220aa5aef56bd6e1a509e597fc4a434b2b41496cc42f000898b15f355fa3fb5deeb64736f6c63430008000033",
  "linkReferences": {},
  "deployedLinkReferences": {}
}