{
  "_format": "hh-sol-artifact-1",
  "contractName": "BinaryBet",
  "sourceName": "contracts/BinaryBet.sol",
  "abi": [
    {
      "inputs": [
        {
          "internalType": "uint256",
          "name": "_windowDuration",
          "type": "uint256"
        },
        {
          "internalType": "uint256",
          "name": "_fee",
          "type": "uint256"
        },
        {
          "internalType": "address",
          "name": "aggregator",
          "type": "address"
        },
        {
          "internalType": "address",
          "name": "stakingContract",
          "type": "address"
        },
        {
          "internalType": "address",
          "name": "tokenContract",
          "type": "address"
        },
        {
          "internalType": "uint256",
          "name": "reward",
          "type": "uint256"
        }
      ],
      "stateMutability": "nonpayable",
      "type": "constructor"
    },
    {
      "anonymous": false,
      "inputs": [
        {
          "indexed": true,
          "internalType": "uint256",
          "name": "windowNumber",
          "type": "uint256"
        },
        {
          "indexed": true,
          "internalType": "address",
          "name": "user",
          "type": "address"
        },
        {
          "indexed": false,
          "internalType": "uint256",
          "name": "gain",
          "type": "uint256"
        }
      ],
      "name": "BetSettled",
      "type": "event"
    },
    {
      "anonymous": false,
      "inputs": [
        {
          "indexed": true,
          "internalType": "address",
          "name": "user",
          "type": "address"
        },
        {
          "indexed": true,
          "internalType": "uint256",
          "name": "windowNumber",
          "type": "uint256"
        },
        {
          "indexed": false,
          "internalType": "uint256",
          "name": "value",
          "type": "uint256"
        },
        {
          "indexed": false,
          "internalType": "uint8",
          "name": "side",
          "type": "uint8"
        }
      ],
      "name": "NewBet",
      "type": "event"
    },
    {
      "anonymous": false,
      "inputs": [
        {
          "indexed": true,
          "internalType": "address",
          "name": "previousOwner",
          "type": "address"
        },
        {
          "indexed": true,
          "internalType": "address",
          "name": "newOwner",
          "type": "address"
        }
      ],
      "name": "OwnershipTransferred",
      "type": "event"
    },
    {
      "anonymous": false,
      "inputs": [
        {
          "indexed": true,
          "internalType": "uint256",
          "name": "windowNumber",
          "type": "uint256"
        },
        {
          "indexed": false,
          "internalType": "uint256",
          "name": "price",
          "type": "uint256"
        }
      ],
      "name": "PriceUpdated",
      "type": "event"
    },
    {
      "inputs": [],
      "name": "REWARD_PER_WINDOW",
      "outputs": [
        {
          "internalType": "uint256",
          "name": "",
          "type": "uint256"
        }
      ],
      "stateMutability": "view",
      "type": "function"
    },
    {
      "inputs": [],
      "name": "accumulatedFees",
      "outputs": [
        {
          "internalType": "uint256",
          "name": "",
          "type": "uint256"
        }
      ],
      "stateMutability": "view",
      "type": "function"
    },
    {
      "inputs": [
        {
          "internalType": "address",
          "name": "_user",
          "type": "address"
        }
      ],
      "name": "betListLen",
      "outputs": [
        {
          "internalType": "uint256",
          "name": "",
          "type": "uint256"
        }
      ],
      "stateMutability": "view",
      "type": "function"
    },
    {
      "inputs": [
        {
          "internalType": "uint256",
          "name": "referencePrice",
          "type": "uint256"
        },
        {
          "internalType": "uint256",
          "name": "settlementPrice",
          "type": "uint256"
        }
      ],
      "name": "betResult",
      "outputs": [
        {
          "internalType": "uint8",
          "name": "",
          "type": "uint8"
        }
      ],
      "stateMutability": "pure",
      "type": "function"
    },
    {
      "inputs": [
        {
          "internalType": "uint256",
          "name": "upStake",
          "type": "uint256"
        },
        {
          "internalType": "uint256",
          "name": "downStake",
          "type": "uint256"
        },
        {
          "internalType": "uint256",
          "name": "poolUp",
          "type": "uint256"
        },
        {
          "internalType": "uint256",
          "name": "poolDown",
          "type": "uint256"
        }
      ],
      "name": "calculateTokenReward",
      "outputs": [
        {
          "internalType": "uint256",
          "name": "",
          "type": "uint256"
        }
      ],
      "stateMutability": "view",
      "type": "function"
    },
    {
      "inputs": [
        {
          "internalType": "uint256",
          "name": "windowSize",
          "type": "uint256"
        }
      ],
      "name": "changeWindowSize",
      "outputs": [],
      "stateMutability": "nonpayable",
      "type": "function"
    },
    {
      "inputs": [
        {
          "internalType": "uint256",
          "name": "value",
          "type": "uint256"
        },
        {
          "internalType": "uint256",
          "name": "_fee",
          "type": "uint256"
        }
      ],
      "name": "computeFee",
      "outputs": [
        {
          "internalType": "uint256",
          "name": "betFee",
          "type": "uint256"
        }
      ],
      "stateMutability": "pure",
      "type": "function"
    },
    {
      "inputs": [],
      "name": "fee",
      "outputs": [
        {
          "internalType": "uint256",
          "name": "",
          "type": "uint256"
        }
      ],
      "stateMutability": "view",
      "type": "function"
    },
    {
      "inputs": [],
      "name": "firstBlock",
      "outputs": [
        {
          "internalType": "uint256",
          "name": "",
          "type": "uint256"
        }
      ],
      "stateMutability": "view",
      "type": "function"
    },
    {
      "inputs": [],
      "name": "firstWindow",
      "outputs": [
        {
          "internalType": "uint256",
          "name": "",
          "type": "uint256"
        }
      ],
      "stateMutability": "view",
      "type": "function"
    },
    {
      "inputs": [
        {
          "internalType": "uint256",
          "name": "windowNumber",
          "type": "uint256"
        }
      ],
      "name": "getPoolValues",
      "outputs": [
        {
          "internalType": "uint256",
          "name": "",
          "type": "uint256"
        },
        {
          "internalType": "uint256",
          "name": "",
          "type": "uint256"
        }
      ],
      "stateMutability": "view",
      "type": "function"
    },
    {
      "inputs": [
        {
          "internalType": "address",
          "name": "_user",
          "type": "address"
        },
        {
          "internalType": "uint256",
          "name": "index",
          "type": "uint256"
        }
      ],
      "name": "getUserBetList",
      "outputs": [
        {
          "internalType": "uint256",
          "name": "",
          "type": "uint256"
        }
      ],
      "stateMutability": "view",
      "type": "function"
    },
    {
      "inputs": [
        {
          "internalType": "uint256",
          "name": "windowNumber",
          "type": "uint256"
        },
        {
          "internalType": "address",
          "name": "_user",
          "type": "address"
        }
      ],
      "name": "getUserStake",
      "outputs": [
        {
          "internalType": "uint256",
          "name": "",
          "type": "uint256"
        },
        {
          "internalType": "uint256",
          "name": "",
          "type": "uint256"
        }
      ],
      "stateMutability": "view",
      "type": "function"
    },
    {
      "inputs": [
        {
          "internalType": "uint256",
          "name": "window",
          "type": "uint256"
        }
      ],
      "name": "getWindowBetPrices",
      "outputs": [
        {
          "internalType": "uint256",
          "name": "",
          "type": "uint256"
        },
        {
          "internalType": "uint256",
          "name": "",
          "type": "uint256"
        }
      ],
      "stateMutability": "view",
      "type": "function"
    },
    {
      "inputs": [
        {
          "internalType": "uint256",
          "name": "currentBlock",
          "type": "uint256"
        },
        {
          "internalType": "uint256",
          "name": "_windowDuration",
          "type": "uint256"
        },
        {
          "internalType": "uint256",
          "name": "_firstBlock",
          "type": "uint256"
        },
        {
          "internalType": "uint256",
          "name": "_windowOffset",
          "type": "uint256"
        },
        {
          "internalType": "uint256",
          "name": "_firstWindow",
          "type": "uint256"
        }
      ],
      "name": "getWindowNumber",
      "outputs": [
        {
          "internalType": "uint256",
          "name": "windowNumber",
          "type": "uint256"
        }
      ],
      "stateMutability": "pure",
      "type": "function"
    },
    {
      "inputs": [
        {
          "internalType": "uint256",
          "name": "windowNumber",
          "type": "uint256"
        },
        {
          "internalType": "uint256",
          "name": "_windowDuration",
          "type": "uint256"
        },
        {
          "internalType": "uint256",
          "name": "_firstBlock",
          "type": "uint256"
        },
        {
          "internalType": "uint256",
          "name": "_windowOffset",
          "type": "uint256"
        }
      ],
      "name": "getWindowStartingBlock",
      "outputs": [
        {
          "internalType": "uint256",
          "name": "startingBlock",
          "type": "uint256"
        }
      ],
      "stateMutability": "pure",
      "type": "function"
    },
    {
      "inputs": [],
      "name": "owner",
      "outputs": [
        {
          "internalType": "address",
          "name": "",
          "type": "address"
        }
      ],
      "stateMutability": "view",
      "type": "function"
    },
    {
      "inputs": [
        {
          "internalType": "uint8",
          "name": "side",
          "type": "uint8"
        }
      ],
      "name": "placeBet",
      "outputs": [],
      "stateMutability": "payable",
      "type": "function"
    },
    {
      "inputs": [
        {
          "internalType": "uint256",
          "name": "",
          "type": "uint256"
        }
      ],
      "name": "pools",
      "outputs": [
        {
          "internalType": "uint64",
          "name": "downValue",
          "type": "uint64"
        },
        {
          "internalType": "uint64",
          "name": "upValue",
          "type": "uint64"
        }
      ],
      "stateMutability": "view",
      "type": "function"
    },
    {
      "inputs": [],
      "name": "renounceOwnership",
      "outputs": [],
      "stateMutability": "nonpayable",
      "type": "function"
    },
    {
      "inputs": [
        {
          "internalType": "uint256",
          "name": "upStake",
          "type": "uint256"
        },
        {
          "internalType": "uint256",
          "name": "downStake",
          "type": "uint256"
        },
        {
          "internalType": "uint256",
          "name": "poolUp",
          "type": "uint256"
        },
        {
          "internalType": "uint256",
          "name": "poolDown",
          "type": "uint256"
        },
        {
          "internalType": "uint8",
          "name": "res",
          "type": "uint8"
        }
      ],
      "name": "settleBet",
      "outputs": [
        {
          "internalType": "uint256",
          "name": "gain",
          "type": "uint256"
        },
        {
          "internalType": "uint256",
          "name": "fees",
          "type": "uint256"
        }
      ],
      "stateMutability": "pure",
      "type": "function"
    },
    {
      "inputs": [
        {
          "internalType": "address",
          "name": "newOwner",
          "type": "address"
        }
      ],
      "name": "transferOwnership",
      "outputs": [],
      "stateMutability": "nonpayable",
      "type": "function"
    },
    {
      "inputs": [
        {
          "internalType": "address",
          "name": "_user",
          "type": "address"
        }
      ],
      "name": "updateBalance",
      "outputs": [],
      "stateMutability": "nonpayable",
      "type": "function"
    },
    {
      "inputs": [
        {
          "internalType": "uint64",
          "name": "downValue",
          "type": "uint64"
        },
        {
          "internalType": "uint64",
          "name": "upValue",
          "type": "uint64"
        },
        {
          "internalType": "uint8",
          "name": "side",
          "type": "uint8"
        },
        {
          "internalType": "uint64",
          "name": "value",
          "type": "uint64"
        }
      ],
      "name": "updatePool",
      "outputs": [
        {
          "internalType": "uint64",
          "name": "",
          "type": "uint64"
        },
        {
          "internalType": "uint64",
          "name": "",
          "type": "uint64"
        }
      ],
      "stateMutability": "pure",
      "type": "function"
    },
    {
      "inputs": [],
      "name": "updatePrice",
      "outputs": [],
      "stateMutability": "nonpayable",
      "type": "function"
    },
    {
      "inputs": [],
      "name": "windowDuration",
      "outputs": [
        {
          "internalType": "uint256",
          "name": "",
          "type": "uint256"
        }
      ],
      "stateMutability": "view",
      "type": "function"
    },
    {
      "inputs": [],
      "name": "windowOffset",
      "outputs": [
        {
          "internalType": "uint256",
          "name": "",
          "type": "uint256"
        }
      ],
      "stateMutability": "view",
      "type": "function"
    },
    {
      "inputs": [
        {
          "internalType": "uint256",
          "name": "",
          "type": "uint256"
        }
      ],
      "name": "windowPrice",
      "outputs": [
        {
          "internalType": "uint256",
          "name": "",
          "type": "uint256"
        }
      ],
      "stateMutability": "view",
      "type": "function"
    },
    {
      "inputs": [
        {
          "internalType": "uint256",
          "name": "window",
          "type": "uint256"
        },
        {
          "internalType": "uint256",
          "name": "currentWindow",
          "type": "uint256"
        },
        {
          "internalType": "uint256",
          "name": "initialPrice",
          "type": "uint256"
        },
        {
          "internalType": "uint256",
          "name": "finalPrice",
          "type": "uint256"
        }
      ],
      "name": "windowStatus",
      "outputs": [
        {
          "internalType": "enum BinaryBet.WindowStatus",
          "name": "status",
          "type": "uint8"
        }
      ],
      "stateMutability": "pure",
      "type": "function"
    }
  ],
  "bytecode": "0x60a06040526001600b553480156200001657600080fd5b5060405162001bcf38038062001bcf833981016040819052620000399162000141565b6200004433620000d4565b60648511156200005357600080fd5b600180546001600160a01b038087166001600160a01b03199283161783554360085560098990556007889055600b9290925560048054868416908316811790915560038054831690911790556002805492851692909116919091179055620000c481670de0b6b3a7640000620001a7565b60805250620001d5945050505050565b600080546001600160a01b038381166001600160a01b0319831681178455604051919092169283917f8be0079c531659141344cd1fd0a4f28419497f9722a3daafe3b4186f6b6457e09190a35050565b80516001600160a01b03811681146200013c57600080fd5b919050565b60008060008060008060c087890312156200015b57600080fd5b8651955060208701519450620001746040880162000124565b9350620001846060880162000124565b9250620001946080880162000124565b915060a087015190509295509295509295565b6000816000190483118215151615620001d057634e487b7160e01b600052601160045260246000fd5b500290565b6080516119d7620001f86000396000818161036c0152610fd001526119d76000f3fe6080604052600436106101c25760003560e01c806389b808a7116100f7578063ca055e5311610095578063e0d65d8711610064578063e0d65d87146105cb578063f2fde38b146105f8578063f52818f014610618578063f83b35fb1461063857600080fd5b8063ca055e531461055f578063daaac9d21461057f578063ddca3f431461059f578063e0a5cee3146105b557600080fd5b8063a671bd6e116100d1578063a671bd6e1461048f578063ac4afa38146104d0578063b134894e14610512578063b47a35661461053f57600080fd5b806389b808a7146103c45780638da5cb5b146103fd5780639626a2301461042557600080fd5b8063587f5ed711610164578063715018a61161013e578063715018a61461034557806371a422071461035a578063809626681461038e578063849cd1c7146103a457600080fd5b8063587f5ed7146103045780635c11ff7a1461031a578063673a7e281461033057600080fd5b80632ff284c2116101a05780632ff284c21461028f57806340b8405a146102af57806343046844146102d1578063576fe42f146102e457600080fd5b80630eff4d88146101c75780631bb5abf914610239578063231b02681461026b575b600080fd5b3480156101d357600080fd5b5061021f6101e23660046115bf565b60009081526005602090815260409182902082518084019093525467ffffffffffffffff808216808552600160401b909204169290910182905291565b604080519283526020830191909152015b60405180910390f35b34801561024557600080fd5b506102596102543660046115d8565b610658565b60405160ff9091168152602001610230565b34801561027757600080fd5b5061028160085481565b604051908152602001610230565b34801561029b57600080fd5b506102816102aa3660046115d8565b610684565b3480156102bb57600080fd5b506102cf6102ca366004611616565b6106a3565b005b6102cf6102df366004611642565b6109e2565b3480156102f057600080fd5b506102816102ff36600461165d565b610c8e565b34801561031057600080fd5b5061028160065481565b34801561032657600080fd5b5061028160095481565b34801561033c57600080fd5b506102cf610cd6565b34801561035157600080fd5b506102cf610d5b565b34801561036657600080fd5b506102817f000000000000000000000000000000000000000000000000000000000000000081565b34801561039a57600080fd5b50610281600c5481565b3480156103b057600080fd5b506102816103bf366004611698565b610dc1565b3480156103d057600080fd5b506102816103df366004611616565b6001600160a01b03166000908152600d602052604090206001015490565b34801561040957600080fd5b506000546040516001600160a01b039091168152602001610230565b34801561043157600080fd5b5061021f6104403660046116ca565b6001600160a01b03166000908152600d602090815260408083209383529281529082902082518084019093525467ffffffffffffffff808216808552600160401b909204169290910182905291565b34801561049b57600080fd5b506104af6104aa36600461170e565b610dee565b6040805167ffffffffffffffff938416815292909116602083015201610230565b3480156104dc57600080fd5b506104af6104eb3660046115bf565b60056020526000908152604090205467ffffffffffffffff80821691600160401b90041682565b34801561051e57600080fd5b5061053261052d366004611698565b610e53565b6040516102309190611778565b34801561054b57600080fd5b5061028161055a3660046117a0565b610eb7565b34801561056b57600080fd5b5061021f61057a3660046117ca565b610ef7565b34801561058b57600080fd5b5061028161059a366004611698565b610fc9565b3480156105ab57600080fd5b5061028160075481565b3480156105c157600080fd5b50610281600b5481565b3480156105d757600080fd5b506102816105e63660046115bf565b600a6020526000908152604090205481565b34801561060457600080fd5b506102cf610613366004611616565b611008565b34801561062457600080fd5b506102cf6106333660046115bf565b6110e7565b34801561064457600080fd5b5061021f6106533660046115bf565b6111fc565b60008282101561066a5750600061067e565b8282111561067a5750600161067e565b5060025b92915050565b600060646106928385611829565b61069c9190611848565b9392505050565b6001600160a01b0381166000908152600d6020526040902060018101546106c8575050565b60018101546000905b80156109a4576000836001016001836106ea919061186a565b815481106106fa576106fa611881565b90600052602060002001549050600061071e43600954600854600c54600b54610c8e565b905060008061072c846111fc565b91509150600061073e85858585610e53565b9050600081600381111561075457610754611762565b14806107715750600181600381111561076f5761076f611762565b145b15610780575050505050610992565b6000600382600381111561079657610796611762565b14156107ad576107a68484610658565b90506107cb565b60028260038111156107c1576107c1611762565b14156107cb575060025b6001808a01805490916107dd9161186a565b815481106107ed576107ed611881565b906000526020600020015489600101600189610809919061186a565b8154811061081957610819611881565b6000918252602090912001556001890180548061083857610838611897565b6000828152602080822083016000199081018390559092019092558782528a8152604080832081518083018352905467ffffffffffffffff8082168352600160401b9182900481168386019081528c87526005865284872085518087019096525480831680875293900482169585018690525183519396949585946108c39492841693169189610ef7565b90925090506108d2828d6118ad565b9b50806006546108e291906118ad565b600681905550600061092e856020015167ffffffffffffffff16866000015167ffffffffffffffff16866020015167ffffffffffffffff16876000015167ffffffffffffffff16610fc9565b905061093a8f82611245565b610942611433565b8e6001600160a01b03168b7f6f277b50171c654e40c771d9c2bbf19e070eeb21cce6f8e9a80334564279e3958560405161097e91815260200190565b60405180910390a350505050505050505050505b8061099c816118c5565b9150506106d1565b506040516001600160a01b0384169082156108fc029083906000818181858888f193505050501580156109db573d6000803e3d6000fd5b505b505050565b60003411610a375760405162461bcd60e51b815260206004820152601d60248201527f4f6e6c79207374726963746c7920706f7369746976652076616c75657300000060448201526064015b60405180910390fd5b610a3f610cd6565b610a48336106a3565b6000610a5634600754610684565b905080600654610a6691906118ad565b6006556000610a75823461186a565b90506000610a8e43600954600854600c54600b54610c8e565b600081815260056020908152604080832081518083019092525467ffffffffffffffff808216808452600160401b90920416928201839052939450928291610ad891908988610dee565b60408051808201825267ffffffffffffffff8085168252808416602080840191825260008b8152600582528581209451855493518516600160401b026fffffffffffffffffffffffffffffffff1990941694169390931791909117909255338152600d909152206001810154929450909250901580610b835750600180820180549091610b649161186a565b81548110610b7457610b74611881565b90600052602060002001548514155b15610ba257600180820180549182018155600090815260209020018590555b600085815260208290526040902054610bd19067ffffffffffffffff80821691600160401b9004168a89610dee565b60408051808201825267ffffffffffffffff8085168252808416602080840191825260008c8152908890528490209251835491518316600160401b026fffffffffffffffffffffffffffffffff19909216921691909117179055519194509250859033907f85ff162f60a0eab11e1e0d3d9cfa18a46d7038a29751af4130dbaeeadbd37ed490610c7c908a908d9067ffffffffffffffff92909216825260ff16602082015260400190565b60405180910390a35050505050505050565b600083861015610c9f575080610ccd565b8285610cab868961186a565b610cb59190611848565b610cbf91906118ad565b610cca9060016118ad565b90505b95945050505050565b6000610ced43600954600854600c54600b54610c8e565b6000818152600a6020526040902054909150610d5857610d0b6114ac565b6000828152600a6020526040908190208290555182917f945c1c4e99aa89f648fbfe3df471b916f719e16d960fcec0737d4d56bd69683891610d4f91815260200190565b60405180910390a25b50565b6000546001600160a01b03163314610db55760405162461bcd60e51b815260206004820181905260248201527f4f776e61626c653a2063616c6c6572206973206e6f7420746865206f776e65726044820152606401610a2e565b610dbf6000611540565b565b60008382610dd060018861186a565b610dda919061186a565b610de49190611829565b610ccd90846118ad565b60008060008460ff166001811115610e0857610e08611762565b90506000816001811115610e1e57610e1e611762565b1415610e3957610e2e84886118dc565b869250925050610e4a565b86610e4485886118dc565b92509250505b94509492505050565b6000610e608560026118ad565b841015610e6f57506000610eaf565b610e7a8560036118ad565b84108015610e86575081155b15610e9357506001610eaf565b821580610e9e575081155b15610eab57506002610eaf565b5060035b949350505050565b6001600160a01b0382166000908152600d60205260408120600101805483908110610ee457610ee4611881565b9060005260206000200154905092915050565b60008060008360ff166002811115610f1157610f11611762565b90506000610f1f86886118ad565b90506001826002811115610f3557610f35611762565b148015610f4157508615155b15610f5857610f51818a896115a8565b9350610fbd565b6000826002811115610f6c57610f6c611762565b148015610f7857508515155b15610f8857610f518189886115a8565b6002826002811115610f9c57610f9c611762565b1415610fac57610f51888a6118ad565b60009350610fba888a6118ad565b92505b50509550959350505050565b6000610ccd7f0000000000000000000000000000000000000000000000000000000000000000610ff986886118ad565b61100385876118ad565b6115a8565b6000546001600160a01b031633146110625760405162461bcd60e51b815260206004820181905260248201527f4f776e61626c653a2063616c6c6572206973206e6f7420746865206f776e65726044820152606401610a2e565b6001600160a01b0381166110de5760405162461bcd60e51b815260206004820152602660248201527f4f776e61626c653a206e6577206f776e657220697320746865207a65726f206160448201527f64647265737300000000000000000000000000000000000000000000000000006064820152608401610a2e565b610d5881611540565b6000546001600160a01b031633146111415760405162461bcd60e51b815260206004820181905260248201527f4f776e61626c653a2063616c6c6572206973206e6f7420746865206f776e65726044820152606401610a2e565b600081116111b75760405162461bcd60e51b815260206004820152602760248201527f77696e646f772073697a652073686f756c64206265207374726963746c79207060448201527f6f736974697665000000000000000000000000000000000000000000000000006064820152608401610a2e565b60006111ce43600954600854600c54600b54610c8e565b90506111ec6111de8260016118ad565b600954600854600c54610dc1565b600855600c819055600b55600955565b600080600a8161120d8560016118ad565b815260200190815260200160002054600a600085600261122d91906118ad565b81526020019081526020016000205491509150915091565b6002546040516370a0823160e01b815230600482015282916001600160a01b0316906370a082319060240160206040518083038186803b15801561128857600080fd5b505afa15801561129c573d6000803e3d6000fd5b505050506040513d601f19601f820116820180604052508101906112c09190611908565b10611365576002546040517fa9059cbb0000000000000000000000000000000000000000000000000000000081526001600160a01b038481166004830152602482018490529091169063a9059cbb906044015b602060405180830381600087803b15801561132d57600080fd5b505af1158015611341573d6000803e3d6000fd5b505050506040513d601f19601f820116820180604052508101906109dd9190611921565b6002546040516370a0823160e01b81523060048201526001600160a01b039091169063a9059cbb90849083906370a082319060240160206040518083038186803b1580156113b257600080fd5b505afa1580156113c6573d6000803e3d6000fd5b505050506040513d601f19601f820116820180604052508101906113ea9190611908565b6040517fffffffff0000000000000000000000000000000000000000000000000000000060e085901b1681526001600160a01b0390921660048301526024820152604401611313565b60065415610dbf57600360009054906101000a90046001600160a01b03166001600160a01b0316625c33e16006546040518263ffffffff1660e01b81526004016000604051808303818588803b15801561148c57600080fd5b505af11580156114a0573d6000803e3d6000fd5b50506000600655505050565b600080600160009054906101000a90046001600160a01b03166001600160a01b031663feaf968c6040518163ffffffff1660e01b815260040160a06040518083038186803b1580156114fd57600080fd5b505afa158015611511573d6000803e3d6000fd5b505050506040513d601f19601f82011682018060405250810190611535919061195d565b509195945050505050565b600080546001600160a01b038381167fffffffffffffffffffffffff0000000000000000000000000000000000000000831681178455604051919092169283917f8be0079c531659141344cd1fd0a4f28419497f9722a3daafe3b4186f6b6457e09190a35050565b6000816115b58585611829565b610eaf9190611848565b6000602082840312156115d157600080fd5b5035919050565b600080604083850312156115eb57600080fd5b50508035926020909101359150565b80356001600160a01b038116811461161157600080fd5b919050565b60006020828403121561162857600080fd5b61069c826115fa565b803560ff8116811461161157600080fd5b60006020828403121561165457600080fd5b61069c82611631565b600080600080600060a0868803121561167557600080fd5b505083359560208501359550604085013594606081013594506080013592509050565b600080600080608085870312156116ae57600080fd5b5050823594602084013594506040840135936060013592509050565b600080604083850312156116dd57600080fd5b823591506116ed602084016115fa565b90509250929050565b803567ffffffffffffffff8116811461161157600080fd5b6000806000806080858703121561172457600080fd5b61172d856116f6565b935061173b602086016116f6565b925061174960408601611631565b9150611757606086016116f6565b905092959194509250565b634e487b7160e01b600052602160045260246000fd5b602081016004831061179a57634e487b7160e01b600052602160045260246000fd5b91905290565b600080604083850312156117b357600080fd5b6117bc836115fa565b946020939093013593505050565b600080600080600060a086880312156117e257600080fd5b8535945060208601359350604086013592506060860135915061180760808701611631565b90509295509295909350565b634e487b7160e01b600052601160045260246000fd5b600081600019048311821515161561184357611843611813565b500290565b60008261186557634e487b7160e01b600052601260045260246000fd5b500490565b60008282101561187c5761187c611813565b500390565b634e487b7160e01b600052603260045260246000fd5b634e487b7160e01b600052603160045260246000fd5b600082198211156118c0576118c0611813565b500190565b6000816118d4576118d4611813565b506000190190565b600067ffffffffffffffff8083168185168083038211156118ff576118ff611813565b01949350505050565b60006020828403121561191a57600080fd5b5051919050565b60006020828403121561193357600080fd5b8151801515811461069c57600080fd5b805169ffffffffffffffffffff8116811461161157600080fd5b600080600080600060a0868803121561197557600080fd5b61197e86611943565b94506020860151935060408601519250606086015191506118076080870161194356fea264697066735822122021941ba02b473d4a32c7b89b879238355199964bc373a0b545ed44c6385d6c4f64736f6c63430008080033",
  "linkReferences": {},
  "deployedLinkReferences": {}
}