{
  "_format": "hh-sol-artifact-1",
  "contractName": "BinaryBet",
  "sourceName": "contracts/BinaryBet.sol",
  "abi": [
    {
      "inputs": [
        {
          "internalType": "uint256",
          "name": "_windowDuration",
          "type": "uint256"
        },
        {
          "internalType": "uint256",
          "name": "_fee",
          "type": "uint256"
        },
        {
          "internalType": "address",
          "name": "aggregator",
          "type": "address"
        },
        {
          "internalType": "address",
          "name": "stakingContract",
          "type": "address"
        },
        {
          "internalType": "address",
          "name": "tokenContract",
          "type": "address"
        },
        {
          "internalType": "uint256",
          "name": "reward",
          "type": "uint256"
        }
      ],
      "stateMutability": "nonpayable",
      "type": "constructor"
    },
    {
      "anonymous": false,
      "inputs": [
        {
          "indexed": true,
          "internalType": "address",
          "name": "previousOwner",
          "type": "address"
        },
        {
          "indexed": true,
          "internalType": "address",
          "name": "newOwner",
          "type": "address"
        }
      ],
      "name": "OwnershipTransferred",
      "type": "event"
    },
    {
      "anonymous": false,
      "inputs": [
        {
          "indexed": true,
          "internalType": "uint256",
          "name": "windowNumber",
          "type": "uint256"
        },
        {
          "indexed": true,
          "internalType": "address",
          "name": "user",
          "type": "address"
        },
        {
          "indexed": false,
          "internalType": "uint256",
          "name": "gain",
          "type": "uint256"
        }
      ],
      "name": "betSettled",
      "type": "event"
    },
    {
      "anonymous": false,
      "inputs": [
        {
          "indexed": true,
          "internalType": "address",
          "name": "user",
          "type": "address"
        },
        {
          "indexed": true,
          "internalType": "uint256",
          "name": "windowNumber",
          "type": "uint256"
        },
        {
          "indexed": false,
          "internalType": "uint256",
          "name": "value",
          "type": "uint256"
        },
        {
          "indexed": false,
          "internalType": "uint8",
          "name": "side",
          "type": "uint8"
        }
      ],
      "name": "newBet",
      "type": "event"
    },
    {
      "anonymous": false,
      "inputs": [
        {
          "indexed": true,
          "internalType": "uint256",
          "name": "windowNumber",
          "type": "uint256"
        },
        {
          "indexed": false,
          "internalType": "uint256",
          "name": "price",
          "type": "uint256"
        }
      ],
      "name": "priceUpdated",
      "type": "event"
    },
    {
      "inputs": [],
      "name": "REWARD_PER_WINDOW",
      "outputs": [
        {
          "internalType": "uint256",
          "name": "",
          "type": "uint256"
        }
      ],
      "stateMutability": "view",
      "type": "function"
    },
    {
      "inputs": [],
      "name": "accumulatedFees",
      "outputs": [
        {
          "internalType": "uint256",
          "name": "",
          "type": "uint256"
        }
      ],
      "stateMutability": "view",
      "type": "function"
    },
    {
      "inputs": [
        {
          "internalType": "address",
          "name": "user",
          "type": "address"
        }
      ],
      "name": "betListLen",
      "outputs": [
        {
          "internalType": "uint256",
          "name": "",
          "type": "uint256"
        }
      ],
      "stateMutability": "view",
      "type": "function"
    },
    {
      "inputs": [
        {
          "internalType": "uint256",
          "name": "referencePrice",
          "type": "uint256"
        },
        {
          "internalType": "uint256",
          "name": "settlementPrice",
          "type": "uint256"
        }
      ],
      "name": "betResult",
      "outputs": [
        {
          "internalType": "uint8",
          "name": "",
          "type": "uint8"
        }
      ],
      "stateMutability": "pure",
      "type": "function"
    },
    {
      "inputs": [
        {
          "internalType": "bytes32",
          "name": "c__0x8ded5f03",
          "type": "bytes32"
        }
      ],
      "name": "c_0x8ded5f03",
      "outputs": [],
      "stateMutability": "pure",
      "type": "function"
    },
    {
      "inputs": [
        {
          "internalType": "uint256",
          "name": "upStake",
          "type": "uint256"
        },
        {
          "internalType": "uint256",
          "name": "downStake",
          "type": "uint256"
        },
        {
          "internalType": "uint256",
          "name": "poolUp",
          "type": "uint256"
        },
        {
          "internalType": "uint256",
          "name": "poolDown",
          "type": "uint256"
        }
      ],
      "name": "calculateTokenReward",
      "outputs": [
        {
          "internalType": "uint256",
          "name": "",
          "type": "uint256"
        }
      ],
      "stateMutability": "view",
      "type": "function"
    },
    {
      "inputs": [
        {
          "internalType": "uint256",
          "name": "windowSize",
          "type": "uint256"
        }
      ],
      "name": "changeWindowSize",
      "outputs": [],
      "stateMutability": "nonpayable",
      "type": "function"
    },
    {
      "inputs": [
        {
          "internalType": "uint256",
          "name": "value",
          "type": "uint256"
        },
        {
          "internalType": "uint256",
          "name": "_fee",
          "type": "uint256"
        }
      ],
      "name": "computeFee",
      "outputs": [
        {
          "internalType": "uint256",
          "name": "betFee",
          "type": "uint256"
        }
      ],
      "stateMutability": "pure",
      "type": "function"
    },
    {
      "inputs": [],
      "name": "fee",
      "outputs": [
        {
          "internalType": "uint256",
          "name": "",
          "type": "uint256"
        }
      ],
      "stateMutability": "view",
      "type": "function"
    },
    {
      "inputs": [],
      "name": "firstBlock",
      "outputs": [
        {
          "internalType": "uint256",
          "name": "",
          "type": "uint256"
        }
      ],
      "stateMutability": "view",
      "type": "function"
    },
    {
      "inputs": [],
      "name": "firstWindow",
      "outputs": [
        {
          "internalType": "uint256",
          "name": "",
          "type": "uint256"
        }
      ],
      "stateMutability": "view",
      "type": "function"
    },
    {
      "inputs": [
        {
          "internalType": "uint256",
          "name": "windowNumber",
          "type": "uint256"
        }
      ],
      "name": "getPoolValues",
      "outputs": [
        {
          "internalType": "uint256",
          "name": "",
          "type": "uint256"
        },
        {
          "internalType": "uint256",
          "name": "",
          "type": "uint256"
        }
      ],
      "stateMutability": "view",
      "type": "function"
    },
    {
      "inputs": [
        {
          "internalType": "address",
          "name": "user",
          "type": "address"
        },
        {
          "internalType": "uint256",
          "name": "index",
          "type": "uint256"
        }
      ],
      "name": "getUserBetList",
      "outputs": [
        {
          "internalType": "uint256",
          "name": "",
          "type": "uint256"
        }
      ],
      "stateMutability": "view",
      "type": "function"
    },
    {
      "inputs": [
        {
          "internalType": "uint256",
          "name": "windowNumber",
          "type": "uint256"
        },
        {
          "internalType": "address",
          "name": "user",
          "type": "address"
        }
      ],
      "name": "getUserStake",
      "outputs": [
        {
          "internalType": "uint256",
          "name": "",
          "type": "uint256"
        },
        {
          "internalType": "uint256",
          "name": "",
          "type": "uint256"
        }
      ],
      "stateMutability": "view",
      "type": "function"
    },
    {
      "inputs": [
        {
          "internalType": "uint256",
          "name": "window",
          "type": "uint256"
        }
      ],
      "name": "getWindowBetPrices",
      "outputs": [
        {
          "internalType": "uint256",
          "name": "",
          "type": "uint256"
        },
        {
          "internalType": "uint256",
          "name": "",
          "type": "uint256"
        }
      ],
      "stateMutability": "view",
      "type": "function"
    },
    {
      "inputs": [
        {
          "internalType": "uint256",
          "name": "currentBlock",
          "type": "uint256"
        },
        {
          "internalType": "uint256",
          "name": "_windowDuration",
          "type": "uint256"
        },
        {
          "internalType": "uint256",
          "name": "_firstBlock",
          "type": "uint256"
        },
        {
          "internalType": "uint256",
          "name": "_windowOffset",
          "type": "uint256"
        },
        {
          "internalType": "uint256",
          "name": "_firstWindow",
          "type": "uint256"
        }
      ],
      "name": "getWindowNumber",
      "outputs": [
        {
          "internalType": "uint256",
          "name": "windowNumber",
          "type": "uint256"
        }
      ],
      "stateMutability": "pure",
      "type": "function"
    },
    {
      "inputs": [
        {
          "internalType": "uint256",
          "name": "windowNumber",
          "type": "uint256"
        },
        {
          "internalType": "uint256",
          "name": "_windowDuration",
          "type": "uint256"
        },
        {
          "internalType": "uint256",
          "name": "_firstBlock",
          "type": "uint256"
        },
        {
          "internalType": "uint256",
          "name": "_windowOffset",
          "type": "uint256"
        }
      ],
      "name": "getWindowStartingBlock",
      "outputs": [
        {
          "internalType": "uint256",
          "name": "startingBlock",
          "type": "uint256"
        }
      ],
      "stateMutability": "pure",
      "type": "function"
    },
    {
      "inputs": [],
      "name": "owner",
      "outputs": [
        {
          "internalType": "address",
          "name": "",
          "type": "address"
        }
      ],
      "stateMutability": "view",
      "type": "function"
    },
    {
      "inputs": [
        {
          "internalType": "uint8",
          "name": "side",
          "type": "uint8"
        }
      ],
      "name": "placeBet",
      "outputs": [],
      "stateMutability": "payable",
      "type": "function"
    },
    {
      "inputs": [
        {
          "internalType": "uint256",
          "name": "",
          "type": "uint256"
        }
      ],
      "name": "pools",
      "outputs": [
        {
          "internalType": "uint256",
          "name": "downValue",
          "type": "uint256"
        },
        {
          "internalType": "uint256",
          "name": "upValue",
          "type": "uint256"
        }
      ],
      "stateMutability": "view",
      "type": "function"
    },
    {
      "inputs": [],
      "name": "renounceOwnership",
      "outputs": [],
      "stateMutability": "nonpayable",
      "type": "function"
    },
    {
      "inputs": [
        {
          "internalType": "uint256",
          "name": "upStake",
          "type": "uint256"
        },
        {
          "internalType": "uint256",
          "name": "downStake",
          "type": "uint256"
        },
        {
          "internalType": "uint256",
          "name": "poolUp",
          "type": "uint256"
        },
        {
          "internalType": "uint256",
          "name": "poolDown",
          "type": "uint256"
        },
        {
          "internalType": "uint8",
          "name": "res",
          "type": "uint8"
        }
      ],
      "name": "settleBet",
      "outputs": [
        {
          "internalType": "uint256",
          "name": "gain",
          "type": "uint256"
        },
        {
          "internalType": "uint256",
          "name": "fees",
          "type": "uint256"
        }
      ],
      "stateMutability": "pure",
      "type": "function"
    },
    {
      "inputs": [
        {
          "internalType": "address",
          "name": "newOwner",
          "type": "address"
        }
      ],
      "name": "transferOwnership",
      "outputs": [],
      "stateMutability": "nonpayable",
      "type": "function"
    },
    {
      "inputs": [
        {
          "internalType": "address",
          "name": "user",
          "type": "address"
        }
      ],
      "name": "updateBalance",
      "outputs": [],
      "stateMutability": "nonpayable",
      "type": "function"
    },
    {
      "inputs": [
        {
          "internalType": "uint256",
          "name": "downValue",
          "type": "uint256"
        },
        {
          "internalType": "uint256",
          "name": "upValue",
          "type": "uint256"
        },
        {
          "internalType": "uint8",
          "name": "side",
          "type": "uint8"
        },
        {
          "internalType": "uint256",
          "name": "value",
          "type": "uint256"
        }
      ],
      "name": "updatePool",
      "outputs": [
        {
          "internalType": "uint256",
          "name": "",
          "type": "uint256"
        },
        {
          "internalType": "uint256",
          "name": "",
          "type": "uint256"
        }
      ],
      "stateMutability": "pure",
      "type": "function"
    },
    {
      "inputs": [],
      "name": "updatePrice",
      "outputs": [],
      "stateMutability": "nonpayable",
      "type": "function"
    },
    {
      "inputs": [
        {
          "internalType": "address",
          "name": "",
          "type": "address"
        },
        {
          "internalType": "uint256",
          "name": "",
          "type": "uint256"
        }
      ],
      "name": "userBets",
      "outputs": [
        {
          "internalType": "uint256",
          "name": "",
          "type": "uint256"
        }
      ],
      "stateMutability": "view",
      "type": "function"
    },
    {
      "inputs": [
        {
          "internalType": "address",
          "name": "",
          "type": "address"
        },
        {
          "internalType": "uint256",
          "name": "",
          "type": "uint256"
        }
      ],
      "name": "userStake",
      "outputs": [
        {
          "internalType": "uint256",
          "name": "downValue",
          "type": "uint256"
        },
        {
          "internalType": "uint256",
          "name": "upValue",
          "type": "uint256"
        }
      ],
      "stateMutability": "view",
      "type": "function"
    },
    {
      "inputs": [],
      "name": "windowDuration",
      "outputs": [
        {
          "internalType": "uint256",
          "name": "",
          "type": "uint256"
        }
      ],
      "stateMutability": "view",
      "type": "function"
    },
    {
      "inputs": [],
      "name": "windowOffset",
      "outputs": [
        {
          "internalType": "uint256",
          "name": "",
          "type": "uint256"
        }
      ],
      "stateMutability": "view",
      "type": "function"
    },
    {
      "inputs": [
        {
          "internalType": "uint256",
          "name": "",
          "type": "uint256"
        }
      ],
      "name": "windowPrice",
      "outputs": [
        {
          "internalType": "uint256",
          "name": "",
          "type": "uint256"
        }
      ],
      "stateMutability": "view",
      "type": "function"
    },
    {
      "inputs": [
        {
          "internalType": "uint256",
          "name": "window",
          "type": "uint256"
        },
        {
          "internalType": "uint256",
          "name": "currentWindow",
          "type": "uint256"
        },
        {
          "internalType": "uint256",
          "name": "initialPrice",
          "type": "uint256"
        },
        {
          "internalType": "uint256",
          "name": "finalPrice",
          "type": "uint256"
        }
      ],
      "name": "windowStatus",
      "outputs": [
        {
          "internalType": "enum BinaryBet.WindowStatus",
          "name": "status",
          "type": "uint8"
        }
      ],
      "stateMutability": "pure",
      "type": "function"
    }
  ],
  "bytecode": "0x60a06040526001600a553480156200001657600080fd5b50604051620063693803806200636983398181016040528101906200003c919062000780565b6200005c620000506200068360201b60201c565b6200068b60201b60201c565b620000907f21c9358c3700f8b2441d66dab83ecde182d6be0ec89ca1317db826a5b609f12760001b6200074f60201b60201c565b620000c47f628d50e730c3251ff9eadc15a68939fab9ff89c05c435eef5fe458707552218760001b6200074f60201b60201c565b620000f87f7b169cb675730262e1c9a5243f54f4b68cc5ec202aa59c47c97921693b9f3a8660001b6200074f60201b60201c565b6200012c7fa4c8f603c23e8a5f97a39071ed79edda8519ceb00847092bb9d9dff49107f95460001b6200074f60201b60201c565b60648511156200013b57600080fd5b6200016f7f760e206a16fbbf3771f2a7f95c199ba32b97ec723710bcda39f42b08bcc7ac3e60001b6200074f60201b60201c565b620001a37f9fef895362ceede58825c09d3ae30905cba7ce55e4aae08e58cd274dfcdd731260001b6200074f60201b60201c565b620001d77fd65e8e6240d602a4400aa02f83d46cec03528878ca8aeed4867363a49a309adb60001b6200074f60201b60201c565b83600160006101000a81548173ffffffffffffffffffffffffffffffffffffffff021916908373ffffffffffffffffffffffffffffffffffffffff1602179055506200024c7f7c30847082a33008240ce7051acf5d66618805c99b37c37a814d68cd69fb52e860001b6200074f60201b60201c565b620002807fc640fedc6024e7a469803c54511dcfd1761978e64adfcb6c06e8f4c28023a89760001b6200074f60201b60201c565b43600481905550620002bb7f2e68fa288d7c7000e1569fe7f46517502f10555806cff6077517cd581b37928d60001b6200074f60201b60201c565b620002ef7ffd21c4778c29689df50b518c0d791a6dc65bd0cb9fde55b2abeab0e2eee5871860001b6200074f60201b60201c565b856003819055506200032a7f1cac632a3d26fc92aba8e0c1a0c72328447b8bf5cfe11af0a196dea9c021eddf60001b6200074f60201b60201c565b6200035e7f2a61ef60b4b319513c240e3ce1da171e754e8d790cd4d5be722cf7705c01286260001b6200074f60201b60201c565b84600281905550620003997f4b38ee6b3de7e051cc917e217fbbc8b23a741bc0ad7bc87fc52e93d6b7fd8eba60001b6200074f60201b60201c565b620003cd7fb9fb88217c1ae58818f3e8b8c99a21f25c91bea9d1dbc44145c984b28610eb0e60001b6200074f60201b60201c565b6001600a81905550620004097f9de201683029873d8114980196045ef1140e2ef806b76d63343a84f41db8e87860001b6200074f60201b60201c565b6200043d7fc484fb992606efacf94a9f9225ce7f1710539af7db8bbbdfbb28a5f3cd23897f60001b6200074f60201b60201c565b82600660006101000a81548173ffffffffffffffffffffffffffffffffffffffff021916908373ffffffffffffffffffffffffffffffffffffffff160217905550620004b27f3ea6cf5d46e241414a1cf3f93e619d322512d3367688f620c4f8fb9860ed102b60001b6200074f60201b60201c565b620004e67fc173ec666777dd7d20c01301ae8b8542542b4a37477b38adc75c5eed0cb7ca2960001b6200074f60201b60201c565b600660009054906101000a900473ffffffffffffffffffffffffffffffffffffffff16600560006101000a81548173ffffffffffffffffffffffffffffffffffffffff021916908373ffffffffffffffffffffffffffffffffffffffff1602179055506200057d7f974d938b49b8e0605439afaad2b39e717770054d9ba295fa4c87d71d2e5ce17760001b6200074f60201b60201c565b620005b17f5ee43ec1334733b37231b97a202fc01bbc117dfc7ec95cb94c42eeb1ce9c2bfe60001b6200074f60201b60201c565b81600760006101000a81548173ffffffffffffffffffffffffffffffffffffffff021916908373ffffffffffffffffffffffffffffffffffffffff160217905550620006267fb44eaee38768fb86ebf3a415cccd726c7cc8a1be2751ccd3d31623473d09faf860001b6200074f60201b60201c565b6200065a7ff9d94bc78d1a758649c7e5527ff3c850ae08ef80a4210de5838cfe38b691e5d760001b6200074f60201b60201c565b670de0b6b3a76400008162000670919062000816565b6080818152505050505050505062000918565b600033905090565b60008060009054906101000a900473ffffffffffffffffffffffffffffffffffffffff169050816000806101000a81548173ffffffffffffffffffffffffffffffffffffffff021916908373ffffffffffffffffffffffffffffffffffffffff1602179055508173ffffffffffffffffffffffffffffffffffffffff168173ffffffffffffffffffffffffffffffffffffffff167f8be0079c531659141344cd1fd0a4f28419497f9722a3daafe3b4186f6b6457e060405160405180910390a35050565b50565b6000815190506200076381620008e4565b92915050565b6000815190506200077a81620008fe565b92915050565b60008060008060008060c087890312156200079a57600080fd5b6000620007aa89828a0162000769565b9650506020620007bd89828a0162000769565b9550506040620007d089828a0162000752565b9450506060620007e389828a0162000752565b9350506080620007f689828a0162000752565b92505060a06200080989828a0162000769565b9150509295509295509295565b60006200082382620008ab565b91506200083083620008ab565b9250817fffffffffffffffffffffffffffffffffffffffffffffffffffffffffffffffff04831182151516156200086c576200086b620008b5565b5b828202905092915050565b600062000884826200088b565b9050919050565b600073ffffffffffffffffffffffffffffffffffffffff82169050919050565b6000819050919050565b7f4e487b7100000000000000000000000000000000000000000000000000000000600052601160045260246000fd5b620008ef8162000877565b8114620008fb57600080fd5b50565b6200090981620008ab565b81146200091557600080fd5b50565b608051615a2e6200093b6000396000818161309901526140000152615a2e6000f3fe6080604052600436106101e35760003560e01c80638096266811610102578063ca055e5311610095578063e0d65d8711610064578063e0d65d8714610775578063f2fde38b146107b2578063f52818f0146107db578063f83b35fb14610804576101e3565b8063ca055e53146106a4578063daaac9d2146106e2578063ddca3f431461071f578063e0a5cee31461074a576101e3565b80639626a230116100d15780639626a230146105ae578063ac4afa38146105ec578063b134894e1461062a578063b47a356614610667576101e3565b806380962668146104de578063849cd1c71461050957806389b808a7146105465780638da5cb5b14610583576101e3565b806354f4730b1161017a578063673a7e2811610149578063673a7e2814610448578063715018a61461045f57806371a42207146104765780638068aa68146104a1576101e3565b806354f4730b1461038c578063576fe42f146103b5578063587f5ed7146103f25780635c11ff7a1461041d576101e3565b80632ff284c2116101b65780632ff284c2146102cc5780633937ea4f1461030957806340b8405a146103475780634304684414610370576101e3565b80630ed6ca29146101e85780630eff4d88146102265780631bb5abf914610264578063231b0268146102a1575b600080fd5b3480156101f457600080fd5b5061020f600480360381019061020a91906152d0565b610842565b60405161021d929190615655565b60405180910390f35b34801561023257600080fd5b5061024d600480360381019061024891906150b5565b610b15565b60405161025b929190615655565b60405180910390f35b34801561027057600080fd5b5061028b60048036038101906102869190615143565b610c3e565b60405161029891906156a7565b60405180910390f35b3480156102ad57600080fd5b506102b6610ed5565b6040516102c3919061563a565b60405180910390f35b3480156102d857600080fd5b506102f360048036038101906102ee9190615143565b610edb565b604051610300919061563a565b60405180910390f35b34801561031557600080fd5b50610330600480360381019061032b9190615027565b610f81565b60405161033e929190615655565b60405180910390f35b34801561035357600080fd5b5061036e60048036038101906103699190614ffe565b610fb2565b005b61038a60048036038101906103859190615333565b61211a565b005b34801561039857600080fd5b506103b360048036038101906103ae919061508c565b612b9c565b005b3480156103c157600080fd5b506103dc60048036038101906103d791906151e2565b612b9f565b6040516103e9919061563a565b60405180910390f35b3480156103fe57600080fd5b50610407612d77565b604051610414919061563a565b60405180910390f35b34801561042957600080fd5b50610432612d7d565b60405161043f919061563a565b60405180910390f35b34801561045457600080fd5b5061045d612d83565b005b34801561046b57600080fd5b5061047461300f565b005b34801561048257600080fd5b5061048b613097565b604051610498919061563a565b60405180910390f35b3480156104ad57600080fd5b506104c860048036038101906104c39190615027565b6130bb565b6040516104d5919061563a565b60405180910390f35b3480156104ea57600080fd5b506104f36130ec565b604051610500919061563a565b60405180910390f35b34801561051557600080fd5b50610530600480360381019061052b919061517f565b6130f2565b60405161053d919061563a565b60405180910390f35b34801561055257600080fd5b5061056d60048036038101906105689190614ffe565b6131b0565b60405161057a919061563a565b60405180910390f35b34801561058f57600080fd5b50610598613280565b6040516105a5919061555b565b60405180910390f35b3480156105ba57600080fd5b506105d560048036038101906105d09190615107565b6132a9565b6040516105e3929190615655565b60405180910390f35b3480156105f857600080fd5b50610613600480360381019061060e91906150b5565b613411565b604051610621929190615655565b60405180910390f35b34801561063657600080fd5b50610651600480360381019061064c919061517f565b613435565b60405161065e919061559f565b60405180910390f35b34801561067357600080fd5b5061068e60048036038101906106899190615027565b6137ea565b60405161069b919061563a565b60405180910390f35b3480156106b057600080fd5b506106cb60048036038101906106c69190615259565b6138fa565b6040516106d9929190615655565b60405180910390f35b3480156106ee57600080fd5b506107096004803603810190610704919061517f565b613f75565b604051610716919061563a565b60405180910390f35b34801561072b57600080fd5b50610734614046565b604051610741919061563a565b60405180910390f35b34801561075657600080fd5b5061075f61404c565b60405161076c919061563a565b60405180910390f35b34801561078157600080fd5b5061079c600480360381019061079791906150b5565b614052565b6040516107a9919061563a565b60405180910390f35b3480156107be57600080fd5b506107d960048036038101906107d49190614ffe565b61406a565b005b3480156107e757600080fd5b5061080260048036038101906107fd91906150b5565b614162565b005b34801561081057600080fd5b5061082b600480360381019061082691906150b5565b61450b565b604051610839929190615655565b60405180910390f35b6000806108717f67047b07199606c477ce63c531eb517f9bdb40f469d7bdcef2c98f3d93fff44a60001b612b9c565b61089d7fc134b6240d6dca29321f981f4b9ee1bbd930303dcb223d80046642bc982fc3cc60001b612b9c565b6108c97fefe21fd6114892285939218699d13c02538eacf5a7ff5e03df44b4e58e7f5f8d60001b612b9c565b60008460ff166001811115610907577f4e487b7100000000000000000000000000000000000000000000000000000000600052602160045260246000fd5b90506109357f9e29b9c9bc28f89a08ef7539041bf40cd910c7de57f51f95a80103cd6c4a9ac160001b612b9c565b6109617f4bfd02a242630dabb7f0620d638b6c0f145cd4a004fa4775bb995063710292fa60001b612b9c565b6000600181111561099b577f4e487b7100000000000000000000000000000000000000000000000000000000600052602160045260246000fd5b8160018111156109d4577f4e487b7100000000000000000000000000000000000000000000000000000000600052602160045260246000fd5b1415610a7557610a067f45c68e40d4df13d6c37d8a21ae44a45e7f31a150c5f9e920d997438fa4a7239660001b612b9c565b610a327f070ae2bbd03bac4f67bb673a53595bf870570c84c4de332d12e7d031438100a260001b612b9c565b610a5e7f157c4cc91066e3c779534cb9d9a4a0daea9a61d4ebbd7c3dec807d3169c6b43960001b612b9c565b8387610a6a91906156d3565b869250925050610b0c565b610aa17ff608fab0ddc28970cc8fc9a654537cf2e3cc51349953058771c5c38c06f007db60001b612b9c565b610acd7f0b50c47541d654ae5e2109851aa2c110ec6d90de3e7c6bbc21a718ebb037c14160001b612b9c565b610af97f7c53f3f7aa7b1d0b76440335dba236c140306caa66eafd2d73811e188f4a14b460001b612b9c565b868487610b0691906156d3565b92509250505b94509492505050565b600080610b447f7c450566120545cf4fd6b1ede914279abf01efa96c47b49bcaf69efc02285b4a60001b612b9c565b610b707f07bb7673626d3ef85b8cce5665bcddcabf0ae58105aeb9ff7a5620edd46d726260001b612b9c565b610b9c7f64031cde2e51f884a03cf549b41f9d2cdf90e0d5863d674140041ac1fd8c605960001b612b9c565b600060086000858152602001908152602001600020604051806040016040529081600082015481526020016001820154815250509050610bfe7f2a1e0f4673ebcc4c1a8e4af15ac580d46a2079d1620933e31b1b90ac454928d860001b612b9c565b610c2a7f1b7a6cbe287d9fae1d35eb38d69d0d5bfad1b08d77cb0cc89461eaa9070d797060001b612b9c565b806000015181602001519250925050915091565b6000610c6c7f94410641c04d71a7755fda149317fac834fbc4bf1b68bc69a488904f4fb7660660001b612b9c565b610c987fa47337d7970fca0bcf67dd34d77546e1a49d7eb84c542951a044368696ee86bb60001b612b9c565b610cc47f07fa95b5d3e5b7bf8facd7a998b066dece7be06ce80f002b59f5438a6d82310e60001b612b9c565b82821015610d5957610cf87ffa48d64275705acf5fe719ba81b223947b383ea43e486087b88ccdf58b722f7960001b612b9c565b610d247f282a7f464eec959579d837846f872e133e29bcfbd70f106e31efc3dcfd7e3e4760001b612b9c565b610d507f54f964c009570ce973d9ecddd74ce61b3b157ffd4fa5bd740c514af7e54cb71560001b612b9c565b60009050610ecf565b610d857f7a0a56483825cc6105d6a9d2ad9677aa2b3505add18f9b9da318ada9e2daa28b60001b612b9c565b610db17fa92be5b24398b1ce2862edb28803e04e679aa0af38d0e7e736d9d268d5bba64e60001b612b9c565b82821115610e4657610de57fb2ef9480b5d5d605f3b34df3230e72097a2ca26f0055b79af5b84a41824c41f360001b612b9c565b610e117f7523c9cebc30f11f2749d81c8c0823571bb3501524a4ddb847f9fa681e1d321660001b612b9c565b610e3d7fee58d039a6e41b7d2b5afe7456fd98ebb2619e2e50c80c7849f9a8bcee438ebb60001b612b9c565b60019050610ecf565b610e727f5b5e16b5b5a7446af328781f2359228e4f9a651e63f8d70d731dadfe7fbd169660001b612b9c565b610e9e7f6f731246f6e3a4a0ed01e973c6283e8eaf4b66486aba46dadb592b157f30603760001b612b9c565b610eca7ffea7bdbb4e506c8b16c758f3eaf7c308f7a8ea1b1e43f9dd362bd3de093f886d60001b612b9c565b600290505b92915050565b60045481565b6000610f097fa22ed2972c85af5e282bf5ab25ec96f59a71f7a4397c7daaad3053fe3fd150a060001b612b9c565b610f357f4adae215207bd175f99d0a5e7e20f01fcd5c7e5e1c6b54d662d898f3bb09948260001b612b9c565b610f617fff8a452f1c73f913e063aab0423dea12b13c34ba6047f5deff9f8e6e80790f4d60001b612b9c565b60648284610f6f919061575a565b610f799190615729565b905092915050565b600d602052816000526040600020602052806000526040600020600091509150508060000154908060010154905082565b610fde7fa44ecfc1183ebd993c69e03955a9eb5b40ee3e95c094df74e4c7aaa1fe441e3f60001b612b9c565b61100a7fafa55c8f4cd8b2f8bcddf152756a020d9efced9abcb7434fa6251907abc21a1160001b612b9c565b6110367fad9936429c6bdf4848f94acc369671324c14eeb9a3a81892b1a5706a6b2507aa60001b612b9c565b6000600e60008373ffffffffffffffffffffffffffffffffffffffff1673ffffffffffffffffffffffffffffffffffffffff16815260200190815260200160002090506110a57f8d7948e874672017f698d9fd38270d94586a556e1c149f322ef1cd111045581f60001b612b9c565b6110d17fe08d8bd08c769c50508d0fbd172003cc78a0329a0b2c7e8045cb48525286da2b60001b612b9c565b6000818054905014156111685761110a7f7b8065c3ca6a275d2454d8fb27479d656ec08d716145a49ee170cf13fddb157760001b612b9c565b6111367fb55cfe0e81526da24598724480103538935990a075820124c6509c93cd6af4e260001b612b9c565b6111627f8ab09aa01c75a6da43f9798fb382d525c3b312d48feafa82fb9d8b502d128cff60001b612b9c565b50612117565b6111947f5dc341e01dea20fe315cfd47727129b05ea836b65d1386894086246781d4dd3760001b612b9c565b6111c07fbc936631e7666a9d8f37d80680af44ff2da56a56672b734621c35f22bde3fd8760001b612b9c565b6111ec7fd03c20b6c0c56a8f6ea3cf16e28214981ac5801ea5a5f6f7575fa6398538efd960001b612b9c565b600061121a7f21ad43edac69a444732244b2959536912e268bf32d36da37893a6a53f967844260001b612b9c565b6112467fd9d340ee5ec782ee99229a0f7fcf02f580ddfe0e257886b308d14abb94c29d1a60001b612b9c565b6000828054905090505b6000811115611fb6576112857f535e2fadb904026253dee24492127bea954fa36733f3b4ece15c112f04f109dc60001b612b9c565b6112b17fcdf46a932fc6bd613a0d0d2c0509c19f618b9a55c9785ecc9ad0923cd9d266d460001b612b9c565b6000836001836112c191906157b4565b815481106112f8577f4e487b7100000000000000000000000000000000000000000000000000000000600052603260045260246000fd5b906000526020600020015490506113317f1b8a310ce00566fb1771f28ac03e0b047cc7197662337c505f8cad14b09649d460001b612b9c565b61135d7f2603a854384d3297e15e298ec8ea4147a479786ffbcc086972dc4325b0068ebc60001b612b9c565b600061137443600354600454600b54600a54612b9f565b90506113a27f642fdd759147c4c3837c50f758838d3de3c18749972bd7ece8051dc6d0fd02c160001b612b9c565b6113ce7f5a145e749e5701be614e8c2f6237e91056b20b097581e5d28e9a463f35f6b33d60001b612b9c565b6000806113da8461450b565b9150915061140a7f313fcb4144954eb1c2fb5ad37e7cbc913c34bf2e9485f06bcf314001324b8b9960001b612b9c565b6114367f8100e176fcd658998bd00d707d93f773e976dcce469da295bf415d8e6573739a60001b612b9c565b600061144485858585613435565b90506114727f2703b66f0bfab07cd178deba3e2f74a451eadc786062adca1f98f1c02dcaa08a60001b612b9c565b61149e7f889c7ab95abbd31a1905d135bd993f9ff7c8c841da22bdcc18ee519b60d514bc60001b612b9c565b600060038111156114d8577f4e487b7100000000000000000000000000000000000000000000000000000000600052602160045260246000fd5b816003811115611511577f4e487b7100000000000000000000000000000000000000000000000000000000600052602160045260246000fd5b148061158d575060016003811115611552577f4e487b7100000000000000000000000000000000000000000000000000000000600052602160045260246000fd5b81600381111561158b577f4e487b7100000000000000000000000000000000000000000000000000000000600052602160045260246000fd5b145b156115f4576115be7ffd2a6083746bd60aac7e21cfcc07acbba209b00a66cff16a7faa95a291bc0b4f60001b612b9c565b6115ea7ff456dd23b3c75d063521fc0eba2b26a2dfb78adf9fb070886241958d6709722d60001b612b9c565b5050505050611fa3565b6116207f5da0bc96d0e44b9180264f4ee6df2a51960bf760ecc9e4304d9d7519b9b6599860001b612b9c565b61164c7fe413ff8e9ec0dcbf8ef22d5df87c71b64880d9cb8ec3052267fd771b6099824260001b612b9c565b6116787fb206094d0fda5c6148572c86c7deff6aaee1b261a97e8c9409c989b30b22f38a60001b612b9c565b60006116a67f40809a0e71c5bf047d355183e5e2ef036f506a4278450a28c6e70c072ef632bd60001b612b9c565b6116d27f1f1cdb88440b49ddcdd9f62eaea58690bb68bbf1bcf4d381b9a5adb30de0386160001b612b9c565b60038081111561170b577f4e487b7100000000000000000000000000000000000000000000000000000000600052602160045260246000fd5b826003811115611744577f4e487b7100000000000000000000000000000000000000000000000000000000600052602160045260246000fd5b14156117df576117767f3c68627e0179c244381d36343bed760fb3330b6ff39b833aef4678132d1b83ed60001b612b9c565b6117a27fb694cfe85d6ab121443893d398e31758bb8ea3a62de5b0e2cfd8742fd789cb2e60001b612b9c565b6117ce7ff5e0c96288f066e63e97132731147b7f6be9ef70c7ce2c71393b78761682155a60001b612b9c565b6117d88484610c3e565b905061196b565b61180b7fb1675a853356ffd90ea256dadc78328e7ed0d51cd72b4b45d2f52bfe4967271260001b612b9c565b6118377f0db57b44d323e7159d05b168758b79029864a0bf0db00d00d877e165055c40ed60001b612b9c565b60026003811115611871577f4e487b7100000000000000000000000000000000000000000000000000000000600052602160045260246000fd5b8260038111156118aa577f4e487b7100000000000000000000000000000000000000000000000000000000600052602160045260246000fd5b141561193d576118dc7f5a4278fe491bb8dba5c369325609d8b22fa53a2894e6c22f50692e07fbe1e28660001b612b9c565b6119087f473fb55be8309155e825473a7492666a76d097f2564ad5d61f721d6e5d6c039560001b612b9c565b6119347f74eee0996111a7570d8ea521b4383a484f9060606ca4dad1ebbb173dd25402ea60001b612b9c565b6002905061196a565b6119697fbf1b9a1c5f84c213096bb5acc2e5186e47e49eecba719ee609c19327bf92cd8660001b612b9c565b5b5b6119977f4f60cfd21fe0628cfb70e9cc6aa3474aaca769ff2dc68776d3ddea639d2f713d60001b612b9c565b6119c37f67a3fc381c9a5765ae4493fca97ebd8ecfe19c3096929486580997736cc86a0460001b612b9c565b8860018a805490506119d591906157b4565b81548110611a0c577f4e487b7100000000000000000000000000000000000000000000000000000000600052603260045260246000fd5b906000526020600020015489600189611a2591906157b4565b81548110611a5c577f4e487b7100000000000000000000000000000000000000000000000000000000600052603260045260246000fd5b9060005260206000200181905550611a967f4d1e4cda8b6e04ff90f04408191ff4610a0addf4839a6d88b5ab9fcdbfbfa8f260001b612b9c565b611ac27fcfb8ede751370010db82e444571e9bad1d2323e78240ab1c4c76c0400143152960001b612b9c565b88805480611af9577f4e487b7100000000000000000000000000000000000000000000000000000000600052603160045260246000fd5b60019003818190600052602060002001600090559055611b3b7f314f57aa0f2f8b6fef1d8d061f0e5339a8fb4302461448bf8b35695c82fd039c60001b612b9c565b611b677fd50fe355a2a246d5ce4452d4c6a352a0a162b09285b576059117a4e9844dd0f260001b612b9c565b6000600d60008c73ffffffffffffffffffffffffffffffffffffffff1673ffffffffffffffffffffffffffffffffffffffff1681526020019081526020016000206000888152602001908152602001600020604051806040016040529081600082015481526020016001820154815250509050611c067fbedee07f9e0a410b302487a631b350cedcd4deccab284a42fd61fee63b71a51160001b612b9c565b611c327f31f3d7ed4ba52d721681ac8cc4b93e67c246fd02c2aa05e3a5ed9c359261cdc860001b612b9c565b600060086000898152602001908152602001600020604051806040016040529081600082015481526020016001820154815250509050611c947f5b3f02d4d1559d1eb339b9803eff12b0088b98b5062842524b746a529edec98760001b612b9c565b611cc07f25fb8c86a1412e282f2cb5dc89bb943d03c5f54437f241edf350966aeaac727660001b612b9c565b600080611ce08460200151856000015185602001518660000151896138fa565b91509150611d107fbed51e7d35c0ca85212a369c293320d0cb6040599d2c61763d58d86e6e50358d60001b612b9c565b611d3c7f524479df1e9af81e533e2d755d1cfdeea1e203de9e224edf330a59565924bdb860001b612b9c565b818c611d4891906156d3565b9b50611d767f488d1ec5ba59779d2d645a6ff1cb6dc1d7891653818a3c1b0730996c6adb151a60001b612b9c565b611da27f9a4d5d211e64b5f7bb2813a5f6968e3c7738a483f5ed9c55ab6c3dcaf1ee463f60001b612b9c565b80600c54611db091906156d3565b600c81905550611de27f4e5588e13a627bc317296a3accfa6d7836dfb07be0ebba2b48ac4c3d390a206760001b612b9c565b611e0e7fad4dac243fdee6027e71784d85d40c03fb46655570fb82523ed77d7d83556fc760001b612b9c565b6000611e2c8560200151866000015186602001518760000151613f75565b9050611e5a7fe6763788fa81230e48d5243f78a22b541b2ca474dc8addb6f9fdc2d4acef70cc60001b612b9c565b611e867f3e45f50f0546a0f6e3e642f01ad9ea8867fdc779d0777bae3d3ad26097e969d960001b612b9c565b611e908f826145db565b611ebc7f329560d259fd9d12d2066385d5c2140b0237b4ac7340bdc4f50e65eb9ce4753d60001b612b9c565b611ee87fa5bc3434591c570964381748520d1763670af548c282a6e6e5fe6a20b1ce85d960001b612b9c565b611ef0614a2c565b611f1c7f0564a5a496210702fee33e4a11468537098553ad2848bd3ab21fc6e4e063790a60001b612b9c565b611f487ff4b25a1e3939f56ae07457b051f928c5d88e7707f16159d7e63ca5a5682c050a60001b612b9c565b8e73ffffffffffffffffffffffffffffffffffffffff168b7f1a82fd78981b9465af4b8bd67f27607df5d873b7a978cc8cee1a65b85c2990fc85604051611f8f919061563a565b60405180910390a350505050505050505050505b8080611fae9061588c565b915050611250565b50611fe37facf0560a2e6150add94f7729020f480c9f8a77ae25cd8802699d09b7440137c960001b612b9c565b61200f7f9fbe7d22d9fb1e11f877dad32ac4f95812b08764c438e8122f33928fa913de2060001b612b9c565b600081106120e7576120437f29c201c9aea43bff53ef51195cab77b1d47145896140356714e04c03eb47d0a960001b612b9c565b61206f7f16647dc59a2f45b28e04b0c46e00550f91a0449ce69158ce8dc4ff22b6002aa960001b612b9c565b61209b7ff6540219338a777d2ddabca2986812379cd61464e2c01a99db1a6606bbe33db460001b612b9c565b8273ffffffffffffffffffffffffffffffffffffffff166108fc829081150290604051600060405180830381858888f193505050501580156120e1573d6000803e3d6000fd5b50612114565b6121137fe9fcd3ac6687d6ef07805b7f55af6a160ef4c9963497d594bc0f45fc4b07d62760001b612b9c565b5b50505b50565b6121467f59d4eb30c2b16feeef6f6682939fd943d4f06c8d21c96f489b584dd36856949160001b612b9c565b6121727f07cc27f74d5cdd280047f69ce118943c63974ebcc118c164f3c86a7538bc6ee060001b612b9c565b61219e7f4858636665754ce70fb25e9d32e3b30962c48a60be37b48f37ac32eb4ac1ab5960001b612b9c565b6121ca7f6cf6058b7d595b917dc77b6474efe847102c9767a120d9468f77343e42da271860001b612b9c565b6000341161220d576040517f08c379a0000000000000000000000000000000000000000000000000000000008152600401612204906155ba565b60405180910390fd5b6122397f0317bb28777b1fdfef738e7415407cf722cc7a4d23893fe1851bf4b0d39b438260001b612b9c565b6122657fa7c8d614a23c371e76184a5a330242307b642ff5495559c4033f4b2b5710956b60001b612b9c565b6122917f07575b56c813cd94f3b44387791e92672036be53fceaec0a3f4cbcc12332ae4f60001b612b9c565b612299612d83565b6122c57fbc7a8b6208588a07ba14307a1e87ad8cef1287904e44d46d19946dd02e5629e860001b612b9c565b6122f17f139da1b6f0bbd681fdb9384c3c46f85be0b547ee0cf44b2c55221f61023da95e60001b612b9c565b6122fa33610fb2565b6123267fb7207040eb027ce997baa315dac45f14a96c2e08ed3ad81ba1a46300ec70552e60001b612b9c565b6123527f5a442df0c4fee6e649310049cc62e53112a33ea9eaed49df39d4c2ef260a15dc60001b612b9c565b600061236034600254610edb565b905061238e7fa61966e2d454a83f868a65c477f4a1e335a48a0db032cf3e173429a4d2f7c20760001b612b9c565b6123ba7ff4b30d14f4873a05c17c8023fa650a4f4602b31619ce80dc8c13a195d779799b60001b612b9c565b80600c546123c891906156d3565b600c819055506123fa7fa11cae0e71bfb3de0ea27b8aa20fb24b0555246047e0d8ec6b704955a49ca47360001b612b9c565b6124267f6f5b4b652f4a3cbe0fa303a8bbf0f032dc239b0555f4c45e884a7d0a42516e0b60001b612b9c565b6000813461243491906157b4565b90506124627f3f3ace9453511d8f5cd1b0242517613eabfea130cb5af45ef593cce6c248288460001b612b9c565b61248e7feb58d9915368ae9e6043daa2a4d957fc66f949161c4243b5edd26fcccdbc956a60001b612b9c565b60006124a543600354600454600b54600a54612b9f565b90506124d37f3973a125afa87110da43fb1d52442a5364cce8a0f62d630b8a423939eb34bd4760001b612b9c565b6124ff7f9963ba573f10048c466870d01fa77866a4aaffe74d5efd7336a216f4d1deb71660001b612b9c565b600f60003373ffffffffffffffffffffffffffffffffffffffff1673ffffffffffffffffffffffffffffffffffffffff168152602001908152602001600020600082815260200190815260200160002060009054906101000a900460ff166127115761258d7faf05095fa915e80a5c5577a3f67e6c89f4061865936a53b2767c4afdb1d2ab7060001b612b9c565b6125b97f61f529d214246b28fc7a20958d875b46f24aff53e89ead7a4215136663d8a9c860001b612b9c565b6125e57f167472d9c5ca230b89d0aab9963010398702ca47e7b8d8043eed65e6e050737860001b612b9c565b600e60003373ffffffffffffffffffffffffffffffffffffffff1673ffffffffffffffffffffffffffffffffffffffff1681526020019081526020016000208190806001815401808255809150506001900390600052602060002001600090919091909150556126777f03d50a883a62341139ef4a7ae881da505b335e8ab28dc5cc37406bdb8d36c22a60001b612b9c565b6126a37f564893ec99012dec2c79d3c28415ec9b98220bb1553e82c738adeee4a50f3c4260001b612b9c565b6001600f60003373ffffffffffffffffffffffffffffffffffffffff1673ffffffffffffffffffffffffffffffffffffffff168152602001908152602001600020600083815260200190815260200160002060006101000a81548160ff02191690831515021790555061273e565b61273d7f3c21782397c0c5ec305c612770a2de54b3166866de0dea3dfeac90f352d37e1760001b612b9c565b5b61276a7f0fc87168b6f1b6c30ab7bfe616b42c15d1f5302db545d1e12e026cbe9d882de760001b612b9c565b6127967fe5be3c409439f825a69f9fcf9090c0a12ea47b8406829b7b259f132d4e873f9460001b612b9c565b6000600860008381526020019081526020016000206040518060400160405290816000820154815260200160018201548152505090506127f87f5c77ffb1be7b12c04aaf40caea97ba6266ab6c8ec61e8bd81f2ec121015ac7a460001b612b9c565b6128247fd04182303b978b0b2115281f4d23dd9833f02056ad72cf3feafae2ce12fab67860001b612b9c565b60008061283b836000015184602001518988610842565b9150915061286b7fb9adc455511f517c810c9ee519ea745522a11861b7219517c655ce2dc7cf0ee860001b612b9c565b6128977f26289aceba8f5f74b2141d60284d49f274a63d5a48bcefa17b05cb15e7f89d2d60001b612b9c565b6040518060400160405280838152602001828152506008600086815260200190815260200160002060008201518160000155602082015181600101559050506129027f4e6e8f782e1829352b1d02ab696d9d37b956f0c935056831a875ee43437e594760001b612b9c565b61292e7f26debbb4731942696e750cf799ddd74493c9d8902a86d95a41c4eeba62206dd560001b612b9c565b6000600d60003373ffffffffffffffffffffffffffffffffffffffff1673ffffffffffffffffffffffffffffffffffffffff16815260200190815260200160002060008681526020019081526020016000206040518060400160405290816000820154815260200160018201548152505090506129cd7f06725e7f6a3da105b720ec35001847801c27e2da2f8f98d50e56a2c77f8146ba60001b612b9c565b6129f97faec1ff5536b012fc37acaa66a3a2dfc6fd242e9035b2e8245df9e19151accb7060001b612b9c565b612a0d816000015182602001518a89610842565b8093508194505050612a417fd045ca4abb59d3785443b6ee6ba1c156176148b9ac1047fb4d232bbd5fa4ef9e60001b612b9c565b612a6d7fdfe4957597abcbde68bf34adf3c18afb801f389880c8ac541dffaed68057400960001b612b9c565b604051806040016040528084815260200183815250600d60003373ffffffffffffffffffffffffffffffffffffffff1673ffffffffffffffffffffffffffffffffffffffff16815260200190815260200160002060008781526020019081526020016000206000820151816000015560208201518160010155905050612b157fb7da7682187972234969c7da70ad2ca5886a1856f6fa61845c34e465af76d18f60001b612b9c565b612b417f748efe880fbc3b558dfcbafde8b03cbbd7d0d6c4ec58dac58f50b7c0cef33f7c60001b612b9c565b843373ffffffffffffffffffffffffffffffffffffffff167f560e32e4934b84f33b228f40ddc5b9fa690426ee087005a7d979d7921d24a02b888b604051612b8a92919061567e565b60405180910390a35050505050505050565b50565b6000612bcd7f4e0b5ccc2d8566e3233be0e80a8834b0fe5a9b9ea4b421e6c3948054fa65536260001b612b9c565b612bf97f66ff1c752af217c7b35a11d554712ab356f6500d392325a699fa9d26861ebac160001b612b9c565b612c257fe0ca2988b30e55be5f8db9eab65ad5b383c2638a76aae85a96830fd32fe2921360001b612b9c565b83861015612cb957612c597f56981d9cf1d2781b7dfb7b1ac83eeb7fe1705c9bca3fb81537f6e29e93e7457260001b612b9c565b612c857fffc7016bade655b7b02d360e8a4577838a074ed576eda8a469aa017c7d35ffa460001b612b9c565b612cb17f1eda6e244d4b928674f1c82fbeec5c578e38ed1bdc5ccdb8a61d686f01bc0edf60001b612b9c565b819050612d6e565b612ce57f631e321f3adaaf12e74249adc6a337d0c640d53b9e251ccb3b9241f49a66f1e660001b612b9c565b612d117f279d1996c99738521058b9f4ee4e1574d2fae4d583a2a7450d36ca119cc83bdc60001b612b9c565b612d3d7fd42736f61a0e5dc3cb2e614e9d558483ef626471a9a29c340337291d752c51ce60001b612b9c565b600183868689612d4d91906157b4565b612d579190615729565b612d6191906156d3565b612d6b91906156d3565b90505b95945050505050565b600c5481565b60035481565b612daf7f6a12472ce63cdfd8147a5328c697c164c3400b2e4f6c92ec7c82017ea845f07160001b612b9c565b612ddb7f3882b992fa43478cea9eab2db03c495097d597b7a44d7f96e7ee1ab9adc1a81960001b612b9c565b612e077f544c3075fe402de575c05b506b0c6fec3bb26c837e1745a7e81fb6a1a67a5b8160001b612b9c565b6000612e1e43600354600454600b54600a54612b9f565b9050612e4c7ffe92401087daf8de23d0bf71f4eadc293d265a9ece821f7b38026eb442d42ee560001b612b9c565b612e787f91a409006a3c5938e839fc06e4e175474e45e5ca5ad800ff4a4366d33935540360001b612b9c565b600060096000838152602001908152602001600020541415612fdf57612ec07f377ca3af20fd6c7c21944b42d23b45ff33b2ad53c0f8395aa10e302eb0ad103460001b612b9c565b612eec7f5d5f5eed3c2f3287eafb170ca3d93ee1b3e5904a5af208310da2d1d829f4c05160001b612b9c565b612f187fcbf12c206328bb353015575eaef5ab59557d0cca66ba1dde84d67c150872c93160001b612b9c565b612f20614c57565b6009600083815260200190815260200160002081905550612f637f0a0dc1badfd87ec95aa6779587a896aac7f29cfebc768b23da44bc6b45d5094e60001b612b9c565b612f8f7febd33b5153f7396ebb6b7e5b88900e80532e0c11989d8889668252ed1a0bf6aa60001b612b9c565b807f7a3325b9d11ddc18edd3dff130141b6ce951061520c6b933a604bf701f3d80526009600084815260200190815260200160002054604051612fd2919061563a565b60405180910390a261300c565b61300b7fe6c28b14e5e9370e309d582c27bbb6e0aa76bf96b919c9d079ce2ba6eb8aeade60001b612b9c565b5b50565b613017614de4565b73ffffffffffffffffffffffffffffffffffffffff16613035613280565b73ffffffffffffffffffffffffffffffffffffffff161461308b576040517f08c379a0000000000000000000000000000000000000000000000000000000008152600401613082906155fa565b60405180910390fd5b6130956000614dec565b565b7f000000000000000000000000000000000000000000000000000000000000000081565b600e60205281600052604060002081815481106130d757600080fd5b90600052602060002001600091509150505481565b600b5481565b60006131207f1d6f7e1cfe3487e6d8347874612ec08f61a0d868f731f0a69d973b425243cdd360001b612b9c565b61314c7f7095e2ed6ae3240a6f41ea2c703b23877af5fa0fe3b0f0097a3c771e478e4f6760001b612b9c565b6131787fab2a04bcbc8c6c8caa948cd5d40c1022d9ffab880d1dae1be096d4ed63696a0f60001b612b9c565b838260018761318791906157b4565b61319191906157b4565b61319b919061575a565b836131a691906156d3565b9050949350505050565b60006131de7ffc5975b0f19afbd86b43581ba3abc4a897889feb0d8e43932b5cf4a76716e08260001b612b9c565b61320a7f1dfe765fb937d4a26b25d759ba830518358fb8f6e2abffba4c629713047287d260001b612b9c565b6132367f9f7ec7a30ca36f99df163a17f2302a8d423ba18aecb109d8acba23c19404cae460001b612b9c565b600e60008373ffffffffffffffffffffffffffffffffffffffff1673ffffffffffffffffffffffffffffffffffffffff168152602001908152602001600020805490509050919050565b60008060009054906101000a900473ffffffffffffffffffffffffffffffffffffffff16905090565b6000806132d87f9fe6f9444fb11d94b97b0c47012f714aefdd084a635e324df55b3fef231fc5fd60001b612b9c565b6133047f36ab62a2c5ef42beff7aaec68cf88a1a0259560422d78e24d12926a9511aa31560001b612b9c565b6133307fc2e852ef74c6928d0ea039dd1fa5d40c98e8ffa974affe72995e7c48052d6da660001b612b9c565b6000600d60008573ffffffffffffffffffffffffffffffffffffffff1673ffffffffffffffffffffffffffffffffffffffff16815260200190815260200160002060008681526020019081526020016000206040518060400160405290816000820154815260200160018201548152505090506133cf7fe4814fb9dbbb6ce4c51839f95d6cbad0d4ef6c363afc1068226725db48e2a97760001b612b9c565b6133fb7f69af8501da59fa7a703c16cf403ce185fbaae40339a264876eb60554ee3e8c2960001b612b9c565b8060000151816020015192509250509250929050565b60086020528060005260406000206000915090508060000154908060010154905082565b60006134637f75c4daf115792cbed849a6083eec6502a91a7bbf8f3eed8f0e02004489201e0460001b612b9c565b61348f7f342335badb1ca2abb3f15169c1ad3423c10291d61c48843d41845831ec2cead860001b612b9c565b6134bb7f740cafb1e0a73c3a1016240927bdff5220c2b2a098ffa11ea3d48c6f1ec69ce260001b612b9c565b6002856134c891906156d3565b84101561355c576134fb7f9d1f383a2c4107f551d83412239ee7c3027de6bb6ca2feabed5dc33d6737f13b60001b612b9c565b6135277f826e64782a6b828700a8d6b246e1cb7038fa332d09ebfead2a38fc112ad7e88760001b612b9c565b6135537f14a8f7afd76e8b94ea3647882e39732eb5299991e7c0229a2a7902a6230e002660001b612b9c565b600090506137e2565b6135887f5a34aacc6333182c651dbaa522d2ce422dd611344f1408a1e44526a5ea98ab3f60001b612b9c565b6135b47f45594d7cfbbff05d5fb1fdf376027bf1ea6a4b9045aca4fecdc1f98aa65b24f560001b612b9c565b6003856135c191906156d3565b841080156135cf5750600082145b15613661576136007f800654e2e0146238dea1489f931c6bc4af02c3e2684b922a3bc892e41d7d650860001b612b9c565b61362c7fcc681b55006fa379fd68bf8976511169e05aabb0dd31bce8166d4666ca85b61d60001b612b9c565b6136587f09703d8a81533ce1d4acdb99c9836543bab5e65c1a9b1efa6a1063199a4053b260001b612b9c565b600190506137e2565b61368c7e7c69782ef612cd22e8ee6ed359d28860fe1eca84d0554bf0e8d3388fb73a6060001b612b9c565b6136b87f3b66b40f1b75bc4efd9ac1361edafc0ab6651ce59545ae6184f6cb82c5dca60e60001b612b9c565b60008314806136c75750600082145b15613759576136f87fb9415b24d6440d33d2a5aa28569a46b76467811d08472970d2e0234b18a9a12660001b612b9c565b6137247f7a7dd2b8ed55d8e9d03491551451da5c82237c1715a2c6f414c3a48b2aaf7ca160001b612b9c565b6137507f1b434549a6557be266912befd9c49966ddfc32fe07c6d4646880beb3155566b160001b612b9c565b600290506137e2565b6137857faf702e5605e72a00cfe8f80a68488b33dee9a3b442071aab362a958937be3f2960001b612b9c565b6137b17fc54d9513ca80110706736eedb17058773959f438749919a34ba1db05a7fc8f8f60001b612b9c565b6137dd7fb2eb2412e5e6acdacdc8832226e8eb1fae0d951b3b0cb910104749943d64a3c760001b612b9c565b600390505b949350505050565b60006138187f736e4c79521d4c7e9a05ad8d18896126ddd558ec24f881bdbe73da215583278f60001b612b9c565b6138447f97e935396effc80ede903b59f388bafdf2d8b82736c74396902cb936c2f47af060001b612b9c565b6138707f7d8e5a9361a8074e09bfc18391d1bc31d0668e5b265cc2d752da090f6d5fcaad60001b612b9c565b600e60008473ffffffffffffffffffffffffffffffffffffffff1673ffffffffffffffffffffffffffffffffffffffff16815260200190815260200160002082815481106138e7577f4e487b7100000000000000000000000000000000000000000000000000000000600052603260045260246000fd5b9060005260206000200154905092915050565b6000806139297f9d9499a508cdddc6cd3d55f6f0dcc5e961f2ecaf7b3f2228efcae9d33c5e288860001b612b9c565b6139557fd34f737385820ab6c8dfa35ae3e3ddd4f122743fe01fe015d9cf2c1308fae40360001b612b9c565b6139817f094e2cfe1e01ed3f99dde9e6f9f1fa666d249e79d4ee9b6df5de916407c3f69960001b612b9c565b60008360ff1660028111156139bf577f4e487b7100000000000000000000000000000000000000000000000000000000600052602160045260246000fd5b90506139ed7f6825ea8644b44b956685b6363d95739d6b9a4f5fc68bd5b13c560f006aec9c6360001b612b9c565b613a197f90efcc3c1c12f7cbe55483e56302308d09ee03d8c825c3237cd4c4b9ee8ceaa160001b612b9c565b60008587613a2791906156d3565b9050613a557ff6732d4521ccbb5e67672ccaf5ac8e11cd7f7cffd2365b88e88c1990cb24c16c60001b612b9c565b613a817f15769bb0bdc618cb88620d45bb235b17e2bc8c56692f6c1d5c0fb4b532ee78e460001b612b9c565b60016002811115613abb577f4e487b7100000000000000000000000000000000000000000000000000000000600052602160045260246000fd5b826002811115613af4577f4e487b7100000000000000000000000000000000000000000000000000000000600052602160045260246000fd5b148015613b02575060008714155b15613b9d57613b337f215e15f5eb409cc5c7140a223ed4d632d6b0adaf21adc60b5a51b599fd8f756d60001b612b9c565b613b5f7f3c78efd5ae30da1ce81615419aa195cccf2aeb122ca3be8dc61cbc925b3c08bd60001b612b9c565b613b8b7f262d071ebb7b8954ace2e407f70155ee19a618fed6e54e4750db7e0d757fca7960001b612b9c565b613b96818a89614eb0565b9350613f69565b613bc97fe1bd69d9bb7855ed0e0c494ca257025d8dc875b36ad15400a7223b4892a360ab60001b612b9c565b613bf57f2ee88e5f1a02ee01c5150c7c38718efe5d4b87fc2a0a2db697d85a0e8af6bfa460001b612b9c565b60006002811115613c2f577f4e487b7100000000000000000000000000000000000000000000000000000000600052602160045260246000fd5b826002811115613c68577f4e487b7100000000000000000000000000000000000000000000000000000000600052602160045260246000fd5b148015613c76575060008614155b15613d1157613ca77feaf901484b92559b9c88234587989139b6a5fc38d76de32672aa27629a9f44e260001b612b9c565b613cd37ff9e2a6194e5d44bacec5438c25d9be86dac743caf5108c6f5b512ba4a9dab21b60001b612b9c565b613cff7fe5774b0ed312c478308d4810679a1f08f1f91b8764f00d538ac45182c3800b1a60001b612b9c565b613d0a818988614eb0565b9350613f68565b613d3d7fd20e5a1b397720479cbf334a0940b3dcc5598fd1aa0a6c779ca6780210feb11360001b612b9c565b613d697ff1b97d1e0921b503248584a008c3abea08dbbc199f066796d66b76b02b7350a960001b612b9c565b600280811115613da2577f4e487b7100000000000000000000000000000000000000000000000000000000600052602160045260246000fd5b826002811115613ddb577f4e487b7100000000000000000000000000000000000000000000000000000000600052602160045260246000fd5b1415613e7857613e0d7f89808ef51d75d5696c75e12315fdaca7d351e50874e9f925237aa86d34bc880e60001b612b9c565b613e397f55af0fc3fbdadac4db17bd446a76ae7adfb0cb828b4936d2bfe37ad121af031b60001b612b9c565b613e657f544d521cdf7823777b885a6335eaaade2713514a660bae9a785900acb5b5341660001b612b9c565b8789613e7191906156d3565b9350613f67565b613ea47fba1ac58ed42a89d5fb196d0e5575e7384dac5f213ee172316afa1b5bc0cc97af60001b612b9c565b613ed07f426468cb5cc3b1b3fed678caed2ef0e83d94176d2ce196791a14698bc91dc2df60001b612b9c565b613efc7f126ce70c603b2a4e7d181ee7a86b55cfd54c52a7008e6a8852ec1e16caefd6d460001b612b9c565b60009350613f2c7f7c940cf4d09d8fba40112aa7b64f2b341b35f4c4058d8f3c8734a44503e304b560001b612b9c565b613f587fb5c3df90979f6ce0129fcbde88558d619e04726d9f26e53e6b40d1025dd227df60001b612b9c565b8789613f6491906156d3565b92505b5b5b50509550959350505050565b6000613fa37f88c0eec49eb1f76bde33d2f2b25e796140e075700ce66e4c031aeae3751d1d3e60001b612b9c565b613fcf7f52b1cb5bb9eaf04af49bbfe1436cb93a9e535fa0070d3e0f67a9fe7a267998e860001b612b9c565b613ffb7f5332b582ed40a71a9294e23b6b4b3896b3029b568a102a06b59c3ff4886a171560001b612b9c565b61403c7f0000000000000000000000000000000000000000000000000000000000000000858761402b91906156d3565b848661403791906156d3565b614eb0565b9050949350505050565b60025481565b600a5481565b60096020528060005260406000206000915090505481565b614072614de4565b73ffffffffffffffffffffffffffffffffffffffff16614090613280565b73ffffffffffffffffffffffffffffffffffffffff16146140e6576040517f08c379a00000000000000000000000000000000000000000000000000000000081526004016140dd906155fa565b60405180910390fd5b600073ffffffffffffffffffffffffffffffffffffffff168173ffffffffffffffffffffffffffffffffffffffff161415614156576040517f08c379a000000000000000000000000000000000000000000000000000000000815260040161414d906155da565b60405180910390fd5b61415f81614dec565b50565b61416a614de4565b73ffffffffffffffffffffffffffffffffffffffff16614188613280565b73ffffffffffffffffffffffffffffffffffffffff16146141de576040517f08c379a00000000000000000000000000000000000000000000000000000000081526004016141d5906155fa565b60405180910390fd5b61420a7f3f2796343d5be98e0dc526a2b97d40e203bee73afa635470980bc28aa6a1283860001b612b9c565b6142367faa67ff27a294a525da9d1d06d3f790857dd46986df29dae3b2589ac6f8f3288f60001b612b9c565b6142627fb6de48b010e218325cf093520adf23bd2bb4931880bf903759547bb76521c5d560001b612b9c565b61428e7f7d73515c74597db8fa67cafb3e0d7d43c357fdbc6789061dfbd4d2454394a6a260001b612b9c565b600081116142d1576040517f08c379a00000000000000000000000000000000000000000000000000000000081526004016142c89061561a565b60405180910390fd5b6142fd7ffbc8d7311205617adf17dc090df123a3783a7b99921079a1521b3e8be2f0db1260001b612b9c565b6143297fc993a0e6d486fc8f0469ee70c2df962d6270a409b60f917f937ed7a3e3a1096c60001b612b9c565b6143557f3f862dc48dc4b0675b3496cf1d3f2184d82f425f2d2a525602cc6e8616a1a11e60001b612b9c565b600061436c43600354600454600b54600a54612b9f565b905061439a7f9fe1729833a04e66ccdedca568afe539707426182a39fd35795f5464b00b5f7e60001b612b9c565b6143c67ffbebe0c07841b0ad3af06c0658efeb873de94eb1314ec15f96ce1c8fbd3b3c9360001b612b9c565b6143e46001826143d691906156d3565b600354600454600b546130f2565b6004819055506144167f1d971f385fb96fd9ba6cb17a998fcae778c19517eadb9195e9a914093d2ee12660001b612b9c565b6144427fba426e033021ea89d2fe3a77d6c4756652cbfd4e04fc4107b64f1f551ee0a15560001b612b9c565b80600b819055506144757f36d1c2dda3741ece2a14dba5563baaa682e86f51640b8f42562223735af141b960001b612b9c565b6144a17fdff2e2e73959a43af74cf19da97427420d0415c7558356bea846fd617ef91dbc60001b612b9c565b80600a819055506144d47f868c66fbf86aa5e26460a024c99d2c141d5ee33e0b8961b26fa6d6e0cc1a68f160001b612b9c565b6145007fae26526705420eb243f65d13320f99e3819a65cda483ac8e1e5187ebee8c170860001b612b9c565b816003819055505050565b60008061453a7f7fa8629338c050f1fb93501c4ef2c2215dcaf94cdd8fd113154527d774c0c5c560001b612b9c565b6145667fff2663c6bf11e8ba9225b2d3d0d99054b54dc09dda72ae0011965bbb9dc459e260001b612b9c565b6145927fe1121899d59f0eda9683bf247241d4f2ec221c8e0ec514f95f5f513ac65f3f8260001b612b9c565b600960006001856145a391906156d3565b815260200190815260200160002054600960006002866145c391906156d3565b81526020019081526020016000205491509150915091565b6146077fcc9480c7f87ada6154d4251a258ca9e7ea0cea76ff7ce211066b46af9348138c60001b612b9c565b6146337fee233b5ae0f6b17fe5194852f0feaf1634bcdbf84957a29bc91ded4a53411db360001b612b9c565b61465f7fb43fe79683866fa7cdeb41708b19a996bf0d85ea7a48ad87df0e7a2924f0477060001b612b9c565b80600760009054906101000a900473ffffffffffffffffffffffffffffffffffffffff1673ffffffffffffffffffffffffffffffffffffffff166370a08231306040518263ffffffff1660e01b81526004016146bb919061555b565b60206040518083038186803b1580156146d357600080fd5b505afa1580156146e7573d6000803e3d6000fd5b505050506040513d601f19601f8201168201806040525081019061470b91906150de565b106148495761473c7fc15b78c947177627a021a5c8bd82f9fe9618062ce0b7da694f6ce096a789c7dc60001b612b9c565b6147687fbea2a4af1a17d6f5f8c47284f274d4aa859d620388b42baa4f4d49504860d0c060001b612b9c565b6147947f9e4078a429ee02c385b280ba700fc8acd6fac60cb69800bb541bb263a86f71c760001b612b9c565b600760009054906101000a900473ffffffffffffffffffffffffffffffffffffffff1673ffffffffffffffffffffffffffffffffffffffff1663a9059cbb83836040518363ffffffff1660e01b81526004016147f1929190615576565b602060405180830381600087803b15801561480b57600080fd5b505af115801561481f573d6000803e3d6000fd5b505050506040513d601f19601f820116820180604052508101906148439190615063565b50614a28565b6148757f3ef947d8ba61316600e14fad9bf3a850af3a19c0f03acd278e9e1e2a28e63fef60001b612b9c565b6148a17f42e03fe90aa029bf8593256876aee8d967055b1533eb950ee8afcfbe27f70bdc60001b612b9c565b6148cd7fe85eccf1c1627a3edc0c8f847b8629282a048f75b93802e98abc6f8ed9ed680e60001b612b9c565b600760009054906101000a900473ffffffffffffffffffffffffffffffffffffffff1673ffffffffffffffffffffffffffffffffffffffff1663a9059cbb83600760009054906101000a900473ffffffffffffffffffffffffffffffffffffffff1673ffffffffffffffffffffffffffffffffffffffff166370a08231306040518263ffffffff1660e01b8152600401614967919061555b565b60206040518083038186803b15801561497f57600080fd5b505afa158015614993573d6000803e3d6000fd5b505050506040513d601f19601f820116820180604052508101906149b791906150de565b6040518363ffffffff1660e01b81526004016149d4929190615576565b602060405180830381600087803b1580156149ee57600080fd5b505af1158015614a02573d6000803e3d6000fd5b505050506040513d601f19601f82011682018060405250810190614a269190615063565b505b5050565b614a587f30737244086b9d58eec1b0c4b327e3425af20b7a66d3de5aa9d22d1f8dfca77960001b612b9c565b614a847f36f4133b40645bd54eca559a731dfaeaa47fab68c080362c29f52fc2cdd8c85760001b612b9c565b614ab07fb9df5ea39d711acf0f54acc3cbc69c0e012f230a628fe1833d65b8629ee1d5cf60001b612b9c565b6000600c541115614c2857614ae77fabedb28b75b6de92e5ae9659c294b239705b8f5cb32ee45ecc0f884471cff88f60001b612b9c565b614b137f454d790e2da239245edb82ec633354ebd20992b35fd50f59e5320c261815a85860001b612b9c565b614b3f7f3b1da148a4e2785fff385e23c7d5bc948f4e9d46d0ea63317bb3eb36811599df60001b612b9c565b600560009054906101000a900473ffffffffffffffffffffffffffffffffffffffff1673ffffffffffffffffffffffffffffffffffffffff16625c33e1600c546040518263ffffffff1660e01b81526004016000604051808303818588803b158015614baa57600080fd5b505af1158015614bbe573d6000803e3d6000fd5b5050505050614bef7f12bd5582623ac0d14e2f8169efc5c94d613376c236e95daa58a42e3c0b94bfab60001b612b9c565b614c1b7fb54270e96052bdded032b0c0dcddf9821b972e4adc1346a0baf6c4f04088be4b60001b612b9c565b6000600c81905550614c55565b614c547f9f6d284245260a39b5580ac487683f4d64640538eeb5f7a874ac4cbdce6afada60001b612b9c565b5b565b6000614c857f579ea3aace39d0ee0f969cd3b1ed92e83ff0de6c36f1f3fac95b8d92d62533b760001b612b9c565b614cb17f42f5ff1fa1888b416ae91d6dbfd46dbfdbb648b820ddea483f3c458bf7d608dc60001b612b9c565b614cdd7f0daddafb45650c1bf81069b70a06d9de3a5cf93b89d0aedaaf35b70b9254764260001b612b9c565b6000600160009054906101000a900473ffffffffffffffffffffffffffffffffffffffff1673ffffffffffffffffffffffffffffffffffffffff1663feaf968c6040518163ffffffff1660e01b815260040160a06040518083038186803b158015614d4757600080fd5b505afa158015614d5b573d6000803e3d6000fd5b505050506040513d601f19601f82011682018060405250810190614d7f919061535c565b505050915050614db17ffac2d3b6d3361657133329171b930410eb492bef1021402c45119232b1f5e52e60001b612b9c565b614ddd7f794b514b139f100a9568ddaf047c1800d372a90e769eb396a6a0170b58087d5860001b612b9c565b8091505090565b600033905090565b60008060009054906101000a900473ffffffffffffffffffffffffffffffffffffffff169050816000806101000a81548173ffffffffffffffffffffffffffffffffffffffff021916908373ffffffffffffffffffffffffffffffffffffffff1602179055508173ffffffffffffffffffffffffffffffffffffffff168173ffffffffffffffffffffffffffffffffffffffff167f8be0079c531659141344cd1fd0a4f28419497f9722a3daafe3b4186f6b6457e060405160405180910390a35050565b6000614ede7f867fc8bd997ddd7a0fb79c5de261e6bdb8359465ede6d1584a2362ee0f86ea8660001b612b9c565b614f0a7fd3a0d9b604155c8eb48016f4fa56fc2989e62ac9d1d11f1f931942ee45f3fecf60001b612b9c565b614f367fbc556a4bf1b231b5b5452ba2bb6cf0aedfe978649e57c1bb17d19ff4f02d536260001b612b9c565b818484614f43919061575a565b614f4d9190615729565b90509392505050565b600081359050614f6581615957565b92915050565b600081519050614f7a8161596e565b92915050565b600081359050614f8f81615985565b92915050565b600081519050614fa48161599c565b92915050565b600081359050614fb9816159b3565b92915050565b600081519050614fce816159b3565b92915050565b600081359050614fe3816159ca565b92915050565b600081519050614ff8816159e1565b92915050565b60006020828403121561501057600080fd5b600061501e84828501614f56565b91505092915050565b6000806040838503121561503a57600080fd5b600061504885828601614f56565b925050602061505985828601614faa565b9150509250929050565b60006020828403121561507557600080fd5b600061508384828501614f6b565b91505092915050565b60006020828403121561509e57600080fd5b60006150ac84828501614f80565b91505092915050565b6000602082840312156150c757600080fd5b60006150d584828501614faa565b91505092915050565b6000602082840312156150f057600080fd5b60006150fe84828501614fbf565b91505092915050565b6000806040838503121561511a57600080fd5b600061512885828601614faa565b925050602061513985828601614f56565b9150509250929050565b6000806040838503121561515657600080fd5b600061516485828601614faa565b925050602061517585828601614faa565b9150509250929050565b6000806000806080858703121561519557600080fd5b60006151a387828801614faa565b94505060206151b487828801614faa565b93505060406151c587828801614faa565b92505060606151d687828801614faa565b91505092959194509250565b600080600080600060a086880312156151fa57600080fd5b600061520888828901614faa565b955050602061521988828901614faa565b945050604061522a88828901614faa565b935050606061523b88828901614faa565b925050608061524c88828901614faa565b9150509295509295909350565b600080600080600060a0868803121561527157600080fd5b600061527f88828901614faa565b955050602061529088828901614faa565b94505060406152a188828901614faa565b93505060606152b288828901614faa565b92505060806152c388828901614fd4565b9150509295509295909350565b600080600080608085870312156152e657600080fd5b60006152f487828801614faa565b945050602061530587828801614faa565b935050604061531687828801614fd4565b925050606061532787828801614faa565b91505092959194509250565b60006020828403121561534557600080fd5b600061535384828501614fd4565b91505092915050565b600080600080600060a0868803121561537457600080fd5b600061538288828901614fe9565b955050602061539388828901614f95565b94505060406153a488828901614fbf565b93505060606153b588828901614fbf565b92505060806153c688828901614fe9565b9150509295509295909350565b6153dc816157e8565b82525050565b6153eb8161587a565b82525050565b60006153fe601d836156c2565b91507f4f6e6c79207374726963746c7920706f7369746976652076616c7565730000006000830152602082019050919050565b600061543e6026836156c2565b91507f4f776e61626c653a206e6577206f776e657220697320746865207a65726f206160008301527f64647265737300000000000000000000000000000000000000000000000000006020830152604082019050919050565b60006154a46020836156c2565b91507f4f776e61626c653a2063616c6c6572206973206e6f7420746865206f776e65726000830152602082019050919050565b60006154e46027836156c2565b91507f77696e646f772073697a652073686f756c64206265207374726963746c79207060008301527f6f736974697665000000000000000000000000000000000000000000000000006020830152604082019050919050565b6155468161584d565b82525050565b61555581615857565b82525050565b600060208201905061557060008301846153d3565b92915050565b600060408201905061558b60008301856153d3565b615598602083018461553d565b9392505050565b60006020820190506155b460008301846153e2565b92915050565b600060208201905081810360008301526155d3816153f1565b9050919050565b600060208201905081810360008301526155f381615431565b9050919050565b6000602082019050818103600083015261561381615497565b9050919050565b60006020820190508181036000830152615633816154d7565b9050919050565b600060208201905061564f600083018461553d565b92915050565b600060408201905061566a600083018561553d565b615677602083018461553d565b9392505050565b6000604082019050615693600083018561553d565b6156a0602083018461554c565b9392505050565b60006020820190506156bc600083018461554c565b92915050565b600082825260208201905092915050565b60006156de8261584d565b91506156e98361584d565b9250827fffffffffffffffffffffffffffffffffffffffffffffffffffffffffffffffff0382111561571e5761571d6158b6565b5b828201905092915050565b60006157348261584d565b915061573f8361584d565b92508261574f5761574e6158e5565b5b828204905092915050565b60006157658261584d565b91506157708361584d565b9250817fffffffffffffffffffffffffffffffffffffffffffffffffffffffffffffffff04831182151516156157a9576157a86158b6565b5b828202905092915050565b60006157bf8261584d565b91506157ca8361584d565b9250828210156157dd576157dc6158b6565b5b828203905092915050565b60006157f38261582d565b9050919050565b60008115159050919050565b6000819050919050565b600081905061581e82615943565b919050565b6000819050919050565b600073ffffffffffffffffffffffffffffffffffffffff82169050919050565b6000819050919050565b600060ff82169050919050565b600069ffffffffffffffffffff82169050919050565b600061588582615810565b9050919050565b60006158978261584d565b915060008214156158ab576158aa6158b6565b5b600182039050919050565b7f4e487b7100000000000000000000000000000000000000000000000000000000600052601160045260246000fd5b7f4e487b7100000000000000000000000000000000000000000000000000000000600052601260045260246000fd5b7f4e487b7100000000000000000000000000000000000000000000000000000000600052602160045260246000fd5b6004811061595457615953615914565b5b50565b615960816157e8565b811461596b57600080fd5b50565b615977816157fa565b811461598257600080fd5b50565b61598e81615806565b811461599957600080fd5b50565b6159a581615823565b81146159b057600080fd5b50565b6159bc8161584d565b81146159c757600080fd5b50565b6159d381615857565b81146159de57600080fd5b50565b6159ea81615864565b81146159f557600080fd5b5056fea2646970667358221220b60d774422e210ccf252fb9428e63eab7e5af576582a44a257731cd650d2ee9564736f6c63430008000033",
  "linkReferences": {},
  "deployedLinkReferences": {}
}