{
  "_format": "hh-sol-artifact-1",
  "contractName": "BinaryBet",
  "sourceName": "contracts/BinaryBet.sol",
  "abi": [
    {
      "inputs": [
        {
          "internalType": "uint256",
          "name": "_windowDuration",
          "type": "uint256"
        },
        {
          "internalType": "uint256",
          "name": "_fee",
          "type": "uint256"
        },
        {
          "internalType": "address",
          "name": "aggregator",
          "type": "address"
        },
        {
          "internalType": "address",
          "name": "stakingContract",
          "type": "address"
        },
        {
          "internalType": "address",
          "name": "tokenContract",
          "type": "address"
        },
        {
          "internalType": "uint256",
          "name": "reward",
          "type": "uint256"
        }
      ],
      "stateMutability": "nonpayable",
      "type": "constructor"
    },
    {
      "anonymous": false,
      "inputs": [
        {
          "indexed": true,
          "internalType": "address",
          "name": "previousOwner",
          "type": "address"
        },
        {
          "indexed": true,
          "internalType": "address",
          "name": "newOwner",
          "type": "address"
        }
      ],
      "name": "OwnershipTransferred",
      "type": "event"
    },
    {
      "anonymous": false,
      "inputs": [
        {
          "indexed": true,
          "internalType": "uint256",
          "name": "windowNumber",
          "type": "uint256"
        },
        {
          "indexed": true,
          "internalType": "address",
          "name": "user",
          "type": "address"
        },
        {
          "indexed": false,
          "internalType": "uint256",
          "name": "gain",
          "type": "uint256"
        }
      ],
      "name": "betSettled",
      "type": "event"
    },
    {
      "anonymous": false,
      "inputs": [
        {
          "indexed": true,
          "internalType": "address",
          "name": "user",
          "type": "address"
        },
        {
          "indexed": true,
          "internalType": "uint256",
          "name": "windowNumber",
          "type": "uint256"
        },
        {
          "indexed": false,
          "internalType": "uint256",
          "name": "value",
          "type": "uint256"
        },
        {
          "indexed": false,
          "internalType": "uint8",
          "name": "side",
          "type": "uint8"
        }
      ],
      "name": "newBet",
      "type": "event"
    },
    {
      "anonymous": false,
      "inputs": [
        {
          "indexed": true,
          "internalType": "uint256",
          "name": "windowNumber",
          "type": "uint256"
        },
        {
          "indexed": false,
          "internalType": "uint256",
          "name": "price",
          "type": "uint256"
        }
      ],
      "name": "priceUpdated",
      "type": "event"
    },
    {
      "inputs": [],
      "name": "REWARD_PER_WINDOW",
      "outputs": [
        {
          "internalType": "uint256",
          "name": "",
          "type": "uint256"
        }
      ],
      "stateMutability": "view",
      "type": "function"
    },
    {
      "inputs": [],
      "name": "accumulatedFees",
      "outputs": [
        {
          "internalType": "uint256",
          "name": "",
          "type": "uint256"
        }
      ],
      "stateMutability": "view",
      "type": "function"
    },
    {
      "inputs": [
        {
          "internalType": "address",
          "name": "user",
          "type": "address"
        }
      ],
      "name": "betListLen",
      "outputs": [
        {
          "internalType": "uint256",
          "name": "",
          "type": "uint256"
        }
      ],
      "stateMutability": "view",
      "type": "function"
    },
    {
      "inputs": [
        {
          "internalType": "uint256",
          "name": "referencePrice",
          "type": "uint256"
        },
        {
          "internalType": "uint256",
          "name": "settlementPrice",
          "type": "uint256"
        }
      ],
      "name": "betResult",
      "outputs": [
        {
          "internalType": "uint8",
          "name": "",
          "type": "uint8"
        }
      ],
      "stateMutability": "pure",
      "type": "function"
    },
    {
      "inputs": [
        {
          "internalType": "uint256",
          "name": "upStake",
          "type": "uint256"
        },
        {
          "internalType": "uint256",
          "name": "downStake",
          "type": "uint256"
        },
        {
          "internalType": "uint256",
          "name": "poolUp",
          "type": "uint256"
        },
        {
          "internalType": "uint256",
          "name": "poolDown",
          "type": "uint256"
        }
      ],
      "name": "calculateTokenReward",
      "outputs": [
        {
          "internalType": "uint256",
          "name": "",
          "type": "uint256"
        }
      ],
      "stateMutability": "view",
      "type": "function"
    },
    {
      "inputs": [
        {
          "internalType": "uint256",
          "name": "windowSize",
          "type": "uint256"
        }
      ],
      "name": "changeWindowSize",
      "outputs": [],
      "stateMutability": "nonpayable",
      "type": "function"
    },
    {
      "inputs": [
        {
          "internalType": "uint256",
          "name": "value",
          "type": "uint256"
        },
        {
          "internalType": "uint256",
          "name": "_fee",
          "type": "uint256"
        }
      ],
      "name": "computeFee",
      "outputs": [
        {
          "internalType": "uint256",
          "name": "betFee",
          "type": "uint256"
        }
      ],
      "stateMutability": "pure",
      "type": "function"
    },
    {
      "inputs": [],
      "name": "fee",
      "outputs": [
        {
          "internalType": "uint256",
          "name": "",
          "type": "uint256"
        }
      ],
      "stateMutability": "view",
      "type": "function"
    },
    {
      "inputs": [],
      "name": "firstBlock",
      "outputs": [
        {
          "internalType": "uint256",
          "name": "",
          "type": "uint256"
        }
      ],
      "stateMutability": "view",
      "type": "function"
    },
    {
      "inputs": [],
      "name": "firstWindow",
      "outputs": [
        {
          "internalType": "uint256",
          "name": "",
          "type": "uint256"
        }
      ],
      "stateMutability": "view",
      "type": "function"
    },
    {
      "inputs": [
        {
          "internalType": "uint256",
          "name": "windowNumber",
          "type": "uint256"
        }
      ],
      "name": "getPoolValues",
      "outputs": [
        {
          "internalType": "uint256",
          "name": "",
          "type": "uint256"
        },
        {
          "internalType": "uint256",
          "name": "",
          "type": "uint256"
        }
      ],
      "stateMutability": "view",
      "type": "function"
    },
    {
      "inputs": [
        {
          "internalType": "address",
          "name": "user",
          "type": "address"
        },
        {
          "internalType": "uint256",
          "name": "index",
          "type": "uint256"
        }
      ],
      "name": "getUserBetList",
      "outputs": [
        {
          "internalType": "uint256",
          "name": "",
          "type": "uint256"
        }
      ],
      "stateMutability": "view",
      "type": "function"
    },
    {
      "inputs": [
        {
          "internalType": "uint256",
          "name": "windowNumber",
          "type": "uint256"
        },
        {
          "internalType": "address",
          "name": "user",
          "type": "address"
        }
      ],
      "name": "getUserStake",
      "outputs": [
        {
          "internalType": "uint256",
          "name": "",
          "type": "uint256"
        },
        {
          "internalType": "uint256",
          "name": "",
          "type": "uint256"
        }
      ],
      "stateMutability": "view",
      "type": "function"
    },
    {
      "inputs": [
        {
          "internalType": "uint256",
          "name": "window",
          "type": "uint256"
        }
      ],
      "name": "getWindowBetPrices",
      "outputs": [
        {
          "internalType": "uint256",
          "name": "",
          "type": "uint256"
        },
        {
          "internalType": "uint256",
          "name": "",
          "type": "uint256"
        }
      ],
      "stateMutability": "view",
      "type": "function"
    },
    {
      "inputs": [
        {
          "internalType": "uint256",
          "name": "currentBlock",
          "type": "uint256"
        },
        {
          "internalType": "uint256",
          "name": "_windowDuration",
          "type": "uint256"
        },
        {
          "internalType": "uint256",
          "name": "_firstBlock",
          "type": "uint256"
        },
        {
          "internalType": "uint256",
          "name": "_windowOffset",
          "type": "uint256"
        },
        {
          "internalType": "uint256",
          "name": "_firstWindow",
          "type": "uint256"
        }
      ],
      "name": "getWindowNumber",
      "outputs": [
        {
          "internalType": "uint256",
          "name": "windowNumber",
          "type": "uint256"
        }
      ],
      "stateMutability": "pure",
      "type": "function"
    },
    {
      "inputs": [
        {
          "internalType": "uint256",
          "name": "windowNumber",
          "type": "uint256"
        },
        {
          "internalType": "uint256",
          "name": "_windowDuration",
          "type": "uint256"
        },
        {
          "internalType": "uint256",
          "name": "_firstBlock",
          "type": "uint256"
        },
        {
          "internalType": "uint256",
          "name": "_windowOffset",
          "type": "uint256"
        }
      ],
      "name": "getWindowStartingBlock",
      "outputs": [
        {
          "internalType": "uint256",
          "name": "startingBlock",
          "type": "uint256"
        }
      ],
      "stateMutability": "pure",
      "type": "function"
    },
    {
      "inputs": [],
      "name": "owner",
      "outputs": [
        {
          "internalType": "address",
          "name": "",
          "type": "address"
        }
      ],
      "stateMutability": "view",
      "type": "function"
    },
    {
      "inputs": [
        {
          "internalType": "uint8",
          "name": "side",
          "type": "uint8"
        }
      ],
      "name": "placeBet",
      "outputs": [],
      "stateMutability": "payable",
      "type": "function"
    },
    {
      "inputs": [
        {
          "internalType": "uint256",
          "name": "",
          "type": "uint256"
        }
      ],
      "name": "pools",
      "outputs": [
        {
          "internalType": "uint64",
          "name": "downValue",
          "type": "uint64"
        },
        {
          "internalType": "uint64",
          "name": "upValue",
          "type": "uint64"
        }
      ],
      "stateMutability": "view",
      "type": "function"
    },
    {
      "inputs": [],
      "name": "renounceOwnership",
      "outputs": [],
      "stateMutability": "nonpayable",
      "type": "function"
    },
    {
      "inputs": [
        {
          "internalType": "uint256",
          "name": "upStake",
          "type": "uint256"
        },
        {
          "internalType": "uint256",
          "name": "downStake",
          "type": "uint256"
        },
        {
          "internalType": "uint256",
          "name": "poolUp",
          "type": "uint256"
        },
        {
          "internalType": "uint256",
          "name": "poolDown",
          "type": "uint256"
        },
        {
          "internalType": "uint8",
          "name": "res",
          "type": "uint8"
        }
      ],
      "name": "settleBet",
      "outputs": [
        {
          "internalType": "uint256",
          "name": "gain",
          "type": "uint256"
        },
        {
          "internalType": "uint256",
          "name": "fees",
          "type": "uint256"
        }
      ],
      "stateMutability": "pure",
      "type": "function"
    },
    {
      "inputs": [
        {
          "internalType": "address",
          "name": "newOwner",
          "type": "address"
        }
      ],
      "name": "transferOwnership",
      "outputs": [],
      "stateMutability": "nonpayable",
      "type": "function"
    },
    {
      "inputs": [
        {
          "internalType": "address",
          "name": "user",
          "type": "address"
        }
      ],
      "name": "updateBalance",
      "outputs": [],
      "stateMutability": "nonpayable",
      "type": "function"
    },
    {
      "inputs": [
        {
          "internalType": "uint64",
          "name": "downValue",
          "type": "uint64"
        },
        {
          "internalType": "uint64",
          "name": "upValue",
          "type": "uint64"
        },
        {
          "internalType": "uint8",
          "name": "side",
          "type": "uint8"
        },
        {
          "internalType": "uint64",
          "name": "value",
          "type": "uint64"
        }
      ],
      "name": "updatePool",
      "outputs": [
        {
          "internalType": "uint64",
          "name": "",
          "type": "uint64"
        },
        {
          "internalType": "uint64",
          "name": "",
          "type": "uint64"
        }
      ],
      "stateMutability": "pure",
      "type": "function"
    },
    {
      "inputs": [],
      "name": "updatePrice",
      "outputs": [],
      "stateMutability": "nonpayable",
      "type": "function"
    },
    {
      "inputs": [
        {
          "internalType": "address",
          "name": "",
          "type": "address"
        },
        {
          "internalType": "uint256",
          "name": "",
          "type": "uint256"
        }
      ],
      "name": "userBets",
      "outputs": [
        {
          "internalType": "uint256",
          "name": "",
          "type": "uint256"
        }
      ],
      "stateMutability": "view",
      "type": "function"
    },
    {
      "inputs": [
        {
          "internalType": "address",
          "name": "",
          "type": "address"
        },
        {
          "internalType": "uint256",
          "name": "",
          "type": "uint256"
        }
      ],
      "name": "userStake",
      "outputs": [
        {
          "internalType": "uint64",
          "name": "downValue",
          "type": "uint64"
        },
        {
          "internalType": "uint64",
          "name": "upValue",
          "type": "uint64"
        }
      ],
      "stateMutability": "view",
      "type": "function"
    },
    {
      "inputs": [],
      "name": "windowDuration",
      "outputs": [
        {
          "internalType": "uint256",
          "name": "",
          "type": "uint256"
        }
      ],
      "stateMutability": "view",
      "type": "function"
    },
    {
      "inputs": [],
      "name": "windowOffset",
      "outputs": [
        {
          "internalType": "uint256",
          "name": "",
          "type": "uint256"
        }
      ],
      "stateMutability": "view",
      "type": "function"
    },
    {
      "inputs": [
        {
          "internalType": "uint256",
          "name": "",
          "type": "uint256"
        }
      ],
      "name": "windowPrice",
      "outputs": [
        {
          "internalType": "uint256",
          "name": "",
          "type": "uint256"
        }
      ],
      "stateMutability": "view",
      "type": "function"
    },
    {
      "inputs": [
        {
          "internalType": "uint256",
          "name": "window",
          "type": "uint256"
        },
        {
          "internalType": "uint256",
          "name": "currentWindow",
          "type": "uint256"
        },
        {
          "internalType": "uint256",
          "name": "initialPrice",
          "type": "uint256"
        },
        {
          "internalType": "uint256",
          "name": "finalPrice",
          "type": "uint256"
        }
      ],
      "name": "windowStatus",
      "outputs": [
        {
          "internalType": "enum BinaryBet.WindowStatus",
          "name": "status",
          "type": "uint8"
        }
      ],
      "stateMutability": "pure",
      "type": "function"
    }
  ],
  "bytecode": "0x60a06040526001600a553480156200001657600080fd5b50604051620032733803806200327383398181016040528101906200003c919062000348565b6200005c62000050620001d760201b60201c565b620001df60201b60201c565b60648511156200006b57600080fd5b83600160006101000a81548173ffffffffffffffffffffffffffffffffffffffff021916908373ffffffffffffffffffffffffffffffffffffffff1602179055504360048190555085600381905550846002819055506001600a8190555082600660006101000a81548173ffffffffffffffffffffffffffffffffffffffff021916908373ffffffffffffffffffffffffffffffffffffffff160217905550600660009054906101000a900473ffffffffffffffffffffffffffffffffffffffff16600560006101000a81548173ffffffffffffffffffffffffffffffffffffffff021916908373ffffffffffffffffffffffffffffffffffffffff16021790555081600760006101000a81548173ffffffffffffffffffffffffffffffffffffffff021916908373ffffffffffffffffffffffffffffffffffffffff160217905550670de0b6b3a764000081620001c4919062000413565b6080818152505050505050505062000474565b600033905090565b60008060009054906101000a900473ffffffffffffffffffffffffffffffffffffffff169050816000806101000a81548173ffffffffffffffffffffffffffffffffffffffff021916908373ffffffffffffffffffffffffffffffffffffffff1602179055508173ffffffffffffffffffffffffffffffffffffffff168173ffffffffffffffffffffffffffffffffffffffff167f8be0079c531659141344cd1fd0a4f28419497f9722a3daafe3b4186f6b6457e060405160405180910390a35050565b600080fd5b6000819050919050565b620002bd81620002a8565b8114620002c957600080fd5b50565b600081519050620002dd81620002b2565b92915050565b600073ffffffffffffffffffffffffffffffffffffffff82169050919050565b60006200031082620002e3565b9050919050565b620003228162000303565b81146200032e57600080fd5b50565b600081519050620003428162000317565b92915050565b60008060008060008060c08789031215620003685762000367620002a3565b5b60006200037889828a01620002cc565b96505060206200038b89828a01620002cc565b95505060406200039e89828a0162000331565b9450506060620003b189828a0162000331565b9350506080620003c489828a0162000331565b92505060a0620003d789828a01620002cc565b9150509295509295509295565b7f4e487b7100000000000000000000000000000000000000000000000000000000600052601160045260246000fd5b60006200042082620002a8565b91506200042d83620002a8565b9250817fffffffffffffffffffffffffffffffffffffffffffffffffffffffffffffffff0483118215151615620004695762000468620003e4565b5b828202905092915050565b608051612ddc620004976000396000818161152001526119eb0152612ddc6000f3fe6080604052600436106101d85760003560e01c8063849cd1c711610102578063ca055e5311610095578063e0d65d8711610064578063e0d65d8714610741578063f2fde38b1461077e578063f52818f0146107a7578063f83b35fb146107d0576101d8565b8063ca055e5314610670578063daaac9d2146106ae578063ddca3f43146106eb578063e0a5cee314610716576101d8565b8063a671bd6e116100d1578063a671bd6e1461057a578063ac4afa38146105b8578063b134894e146105f6578063b47a356614610633576101d8565b8063849cd1c71461049757806389b808a7146104d45780638da5cb5b146105115780639626a2301461053c576101d8565b8063576fe42f1161017a578063715018a611610149578063715018a6146103ed57806371a42207146104045780638068aa681461042f578063809626681461046c576101d8565b8063576fe42f14610343578063587f5ed7146103805780635c11ff7a146103ab578063673a7e28146103d6576101d8565b80632ff284c2116101b65780632ff284c2146102835780633937ea4f146102c057806340b8405a146102fe5780634304684414610327576101d8565b80630eff4d88146101dd5780631bb5abf91461021b578063231b026814610258575b600080fd5b3480156101e957600080fd5b5061020460048036038101906101ff91906121e6565b61080e565b604051610212929190612222565b60405180910390f35b34801561022757600080fd5b50610242600480360381019061023d919061224b565b6108c5565b60405161024f91906122a7565b60405180910390f35b34801561026457600080fd5b5061026d6108f4565b60405161027a91906122c2565b60405180910390f35b34801561028f57600080fd5b506102aa60048036038101906102a5919061224b565b6108fa565b6040516102b791906122c2565b60405180910390f35b3480156102cc57600080fd5b506102e760048036038101906102e2919061233b565b61091c565b6040516102f592919061239e565b60405180910390f35b34801561030a57600080fd5b50610325600480360381019061032091906123c7565b610975565b005b610341600480360381019061033c9190612420565b610e76565b005b34801561034f57600080fd5b5061036a6004803603810190610365919061244d565b61139b565b60405161037791906122c2565b60405180910390f35b34801561038c57600080fd5b506103956113e7565b6040516103a291906122c2565b60405180910390f35b3480156103b757600080fd5b506103c06113ed565b6040516103cd91906122c2565b60405180910390f35b3480156103e257600080fd5b506103eb6113f3565b005b3480156103f957600080fd5b50610402611496565b005b34801561041057600080fd5b5061041961151e565b60405161042691906122c2565b60405180910390f35b34801561043b57600080fd5b506104566004803603810190610451919061233b565b611542565b60405161046391906122c2565b60405180910390f35b34801561047857600080fd5b50610481611573565b60405161048e91906122c2565b60405180910390f35b3480156104a357600080fd5b506104be60048036038101906104b991906124c8565b611579565b6040516104cb91906122c2565b60405180910390f35b3480156104e057600080fd5b506104fb60048036038101906104f691906123c7565b6115b3565b60405161050891906122c2565b60405180910390f35b34801561051d57600080fd5b506105266115ff565b604051610533919061253e565b60405180910390f35b34801561054857600080fd5b50610563600480360381019061055e9190612559565b611628565b604051610571929190612222565b60405180910390f35b34801561058657600080fd5b506105a1600480360381019061059c91906125c5565b61171e565b6040516105af92919061239e565b60405180910390f35b3480156105c457600080fd5b506105df60048036038101906105da91906121e6565b61179b565b6040516105ed92919061239e565b60405180910390f35b34801561060257600080fd5b5061061d600480360381019061061891906124c8565b6117e7565b60405161062a91906126a3565b60405180910390f35b34801561063f57600080fd5b5061065a6004803603810190610655919061233b565b611859565b60405161066791906122c2565b60405180910390f35b34801561067c57600080fd5b50610697600480360381019061069291906126be565b6118bf565b6040516106a5929190612222565b60405180910390f35b3480156106ba57600080fd5b506106d560048036038101906106d091906124c8565b6119e4565b6040516106e291906122c2565b60405180910390f35b3480156106f757600080fd5b50610700611a31565b60405161070d91906122c2565b60405180910390f35b34801561072257600080fd5b5061072b611a37565b60405161073891906122c2565b60405180910390f35b34801561074d57600080fd5b50610768600480360381019061076391906121e6565b611a3d565b60405161077591906122c2565b60405180910390f35b34801561078a57600080fd5b506107a560048036038101906107a091906123c7565b611a55565b005b3480156107b357600080fd5b506107ce60048036038101906107c991906121e6565b611b4d565b005b3480156107dc57600080fd5b506107f760048036038101906107f291906121e6565b611c62565b604051610805929190612222565b60405180910390f35b6000806000600860008581526020019081526020016000206040518060400160405290816000820160009054906101000a900467ffffffffffffffff1667ffffffffffffffff1667ffffffffffffffff1681526020016000820160089054906101000a900467ffffffffffffffff1667ffffffffffffffff1667ffffffffffffffff16815250509050806000015181602001518167ffffffffffffffff1691508067ffffffffffffffff1690509250925050915091565b6000828210156108d857600090506108ee565b828211156108e957600190506108ee565b600290505b92915050565b60045481565b60006064828461090a9190612768565b61091491906127f1565b905092915050565b600d602052816000526040600020602052806000526040600020600091509150508060000160009054906101000a900467ffffffffffffffff16908060000160089054906101000a900467ffffffffffffffff16905082565b6000600e60008373ffffffffffffffffffffffffffffffffffffffff1673ffffffffffffffffffffffffffffffffffffffff16815260200190815260200160002090506000818054905014156109cb5750610e73565b600080828054905090505b6000811115610e1f576000836001836109ef9190612822565b81548110610a00576109ff612856565b5b906000526020600020015490506000610a2443600354600454600b54600a5461139b565b9050600080610a3284611c62565b915091506000610a44858585856117e7565b905060006003811115610a5a57610a5961262c565b5b816003811115610a6d57610a6c61262c565b5b1480610a9d575060016003811115610a8857610a8761262c565b5b816003811115610a9b57610a9a61262c565b5b145b15610aac575050505050610e0c565b6000600380811115610ac157610ac061262c565b5b826003811115610ad457610ad361262c565b5b1415610aeb57610ae484846108c5565b9050610b1e565b60026003811115610aff57610afe61262c565b5b826003811115610b1257610b1161262c565b5b1415610b1d57600290505b5b8860018a80549050610b309190612822565b81548110610b4157610b40612856565b5b906000526020600020015489600189610b5a9190612822565b81548110610b6b57610b6a612856565b5b906000526020600020018190555088805480610b8a57610b89612885565b5b600190038181906000526020600020016000905590556000600d60008c73ffffffffffffffffffffffffffffffffffffffff1673ffffffffffffffffffffffffffffffffffffffff16815260200190815260200160002060008881526020019081526020016000206040518060400160405290816000820160009054906101000a900467ffffffffffffffff1667ffffffffffffffff1667ffffffffffffffff1681526020016000820160089054906101000a900467ffffffffffffffff1667ffffffffffffffff1667ffffffffffffffff168152505090506000600860008981526020019081526020016000206040518060400160405290816000820160009054906101000a900467ffffffffffffffff1667ffffffffffffffff1667ffffffffffffffff1681526020016000820160089054906101000a900467ffffffffffffffff1667ffffffffffffffff1667ffffffffffffffff16815250509050600080610d31846020015167ffffffffffffffff16856000015167ffffffffffffffff16856020015167ffffffffffffffff16866000015167ffffffffffffffff16896118bf565b91509150818c610d4191906128b4565b9b5080600c54610d5191906128b4565b600c819055506000610d9d856020015167ffffffffffffffff16866000015167ffffffffffffffff16866020015167ffffffffffffffff16876000015167ffffffffffffffff166119e4565b9050610da98f82611cae565b610db1611f73565b8e73ffffffffffffffffffffffffffffffffffffffff168b7f1a82fd78981b9465af4b8bd67f27607df5d873b7a978cc8cee1a65b85c2990fc85604051610df891906122c2565b60405180910390a350505050505050505050505b8080610e179061290a565b9150506109d6565b5060008110610e70578273ffffffffffffffffffffffffffffffffffffffff166108fc829081150290604051600060405180830381858888f19350505050158015610e6e573d6000803e3d6000fd5b505b50505b50565b60003411610eb9576040517f08c379a0000000000000000000000000000000000000000000000000000000008152600401610eb090612991565b60405180910390fd5b610ec16113f3565b610eca33610975565b6000610ed8346002546108fa565b905080600c54610ee891906128b4565b600c8190555060008134610efc9190612822565b90506000610f1543600354600454600b54600a5461139b565b9050600f60003373ffffffffffffffffffffffffffffffffffffffff1673ffffffffffffffffffffffffffffffffffffffff168152602001908152602001600020600082815260200190815260200160002060009054906101000a900460ff1661104957600e60003373ffffffffffffffffffffffffffffffffffffffff1673ffffffffffffffffffffffffffffffffffffffff1681526020019081526020016000208190806001815401808255809150506001900390600052602060002001600090919091909150556001600f60003373ffffffffffffffffffffffffffffffffffffffff1673ffffffffffffffffffffffffffffffffffffffff168152602001908152602001600020600083815260200190815260200160002060006101000a81548160ff0219169083151502179055505b6000600860008381526020019081526020016000206040518060400160405290816000820160009054906101000a900467ffffffffffffffff1667ffffffffffffffff1667ffffffffffffffff1681526020016000820160089054906101000a900467ffffffffffffffff1667ffffffffffffffff1667ffffffffffffffff168152505090506000806110e683600001518460200151898861171e565b9150915060405180604001604052808367ffffffffffffffff1681526020018267ffffffffffffffff168152506008600086815260200190815260200160002060008201518160000160006101000a81548167ffffffffffffffff021916908367ffffffffffffffff16021790555060208201518160000160086101000a81548167ffffffffffffffff021916908367ffffffffffffffff1602179055509050506000600d60003373ffffffffffffffffffffffffffffffffffffffff1673ffffffffffffffffffffffffffffffffffffffff16815260200190815260200160002060008681526020019081526020016000206040518060400160405290816000820160009054906101000a900467ffffffffffffffff1667ffffffffffffffff1667ffffffffffffffff1681526020016000820160089054906101000a900467ffffffffffffffff1667ffffffffffffffff1667ffffffffffffffff1681525050905061125e816000015182602001518a8961171e565b809350819450505060405180604001604052808467ffffffffffffffff1681526020018367ffffffffffffffff16815250600d60003373ffffffffffffffffffffffffffffffffffffffff1673ffffffffffffffffffffffffffffffffffffffff168152602001908152602001600020600087815260200190815260200160002060008201518160000160006101000a81548167ffffffffffffffff021916908367ffffffffffffffff16021790555060208201518160000160086101000a81548167ffffffffffffffff021916908367ffffffffffffffff160217905550905050843373ffffffffffffffffffffffffffffffffffffffff167f560e32e4934b84f33b228f40ddc5b9fa690426ee087005a7d979d7921d24a02b888b6040516113899291906129ec565b60405180910390a35050505050505050565b6000838610156113ad578190506113de565b6001838686896113bd9190612822565b6113c791906127f1565b6113d191906128b4565b6113db91906128b4565b90505b95945050505050565b600c5481565b60035481565b600061140a43600354600454600b54600a5461139b565b90506000600960008381526020019081526020016000205414156114935761143061200d565b6009600083815260200190815260200160002081905550807f7a3325b9d11ddc18edd3dff130141b6ce951061520c6b933a604bf701f3d8052600960008481526020019081526020016000205460405161148a91906122c2565b60405180910390a25b50565b61149e6120bd565b73ffffffffffffffffffffffffffffffffffffffff166114bc6115ff565b73ffffffffffffffffffffffffffffffffffffffff1614611512576040517f08c379a000000000000000000000000000000000000000000000000000000000815260040161150990612a61565b60405180910390fd5b61151c60006120c5565b565b7f000000000000000000000000000000000000000000000000000000000000000081565b600e602052816000526040600020818154811061155e57600080fd5b90600052602060002001600091509150505481565b600b5481565b6000838260018761158a9190612822565b6115949190612822565b61159e9190612768565b836115a991906128b4565b9050949350505050565b6000600e60008373ffffffffffffffffffffffffffffffffffffffff1673ffffffffffffffffffffffffffffffffffffffff168152602001908152602001600020805490509050919050565b60008060009054906101000a900473ffffffffffffffffffffffffffffffffffffffff16905090565b6000806000600d60008573ffffffffffffffffffffffffffffffffffffffff1673ffffffffffffffffffffffffffffffffffffffff16815260200190815260200160002060008681526020019081526020016000206040518060400160405290816000820160009054906101000a900467ffffffffffffffff1667ffffffffffffffff1667ffffffffffffffff1681526020016000820160089054906101000a900467ffffffffffffffff1667ffffffffffffffff1667ffffffffffffffff16815250509050806000015181602001518167ffffffffffffffff1691508067ffffffffffffffff16905092509250509250929050565b60008060008460ff1660018111156117395761173861262c565b5b90506000600181111561174f5761174e61262c565b5b8160018111156117625761176161262c565b5b141561177f5783876117749190612a81565b869250925050611792565b86848761178c9190612a81565b92509250505b94509492505050565b60086020528060005260406000206000915090508060000160009054906101000a900467ffffffffffffffff16908060000160089054906101000a900467ffffffffffffffff16905082565b60006002856117f691906128b4565b8410156118065760009050611851565b60038561181391906128b4565b841080156118215750600082145b1561182f5760019050611851565b600083148061183e5750600082145b1561184c5760029050611851565b600390505b949350505050565b6000600e60008473ffffffffffffffffffffffffffffffffffffffff1673ffffffffffffffffffffffffffffffffffffffff16815260200190815260200160002082815481106118ac576118ab612856565b5b9060005260206000200154905092915050565b60008060008360ff1660028111156118da576118d961262c565b5b9050600085876118ea91906128b4565b905060016002811115611900576118ff61262c565b5b8260028111156119135761191261262c565b5b148015611921575060008714155b1561193857611931818a89612189565b93506119d8565b6000600281111561194c5761194b61262c565b5b82600281111561195f5761195e61262c565b5b14801561196d575060008614155b156119845761197d818988612189565b93506119d7565b6002808111156119975761199661262c565b5b8260028111156119aa576119a961262c565b5b14156119c35787896119bc91906128b4565b93506119d6565b6000935087896119d391906128b4565b92505b5b5b50509550959350505050565b6000611a277f00000000000000000000000000000000000000000000000000000000000000008587611a1691906128b4565b8486611a2291906128b4565b612189565b9050949350505050565b60025481565b600a5481565b60096020528060005260406000206000915090505481565b611a5d6120bd565b73ffffffffffffffffffffffffffffffffffffffff16611a7b6115ff565b73ffffffffffffffffffffffffffffffffffffffff1614611ad1576040517f08c379a0000000000000000000000000000000000000000000000000000000008152600401611ac890612a61565b60405180910390fd5b600073ffffffffffffffffffffffffffffffffffffffff168173ffffffffffffffffffffffffffffffffffffffff161415611b41576040517f08c379a0000000000000000000000000000000000000000000000000000000008152600401611b3890612b31565b60405180910390fd5b611b4a816120c5565b50565b611b556120bd565b73ffffffffffffffffffffffffffffffffffffffff16611b736115ff565b73ffffffffffffffffffffffffffffffffffffffff1614611bc9576040517f08c379a0000000000000000000000000000000000000000000000000000000008152600401611bc090612a61565b60405180910390fd5b60008111611c0c576040517f08c379a0000000000000000000000000000000000000000000000000000000008152600401611c0390612bc3565b60405180910390fd5b6000611c2343600354600454600b54600a5461139b565b9050611c43600182611c3591906128b4565b600354600454600b54611579565b60048190555080600b8190555080600a81905550816003819055505050565b60008060096000600185611c7691906128b4565b81526020019081526020016000205460096000600286611c9691906128b4565b81526020019081526020016000205491509150915091565b80600760009054906101000a900473ffffffffffffffffffffffffffffffffffffffff1673ffffffffffffffffffffffffffffffffffffffff166370a08231306040518263ffffffff1660e01b8152600401611d0a919061253e565b60206040518083038186803b158015611d2257600080fd5b505afa158015611d36573d6000803e3d6000fd5b505050506040513d601f19601f82011682018060405250810190611d5a9190612bf8565b10611e1457600760009054906101000a900473ffffffffffffffffffffffffffffffffffffffff1673ffffffffffffffffffffffffffffffffffffffff1663a9059cbb83836040518363ffffffff1660e01b8152600401611dbc929190612c25565b602060405180830381600087803b158015611dd657600080fd5b505af1158015611dea573d6000803e3d6000fd5b505050506040513d601f19601f82011682018060405250810190611e0e9190612c86565b50611f6f565b600760009054906101000a900473ffffffffffffffffffffffffffffffffffffffff1673ffffffffffffffffffffffffffffffffffffffff1663a9059cbb83600760009054906101000a900473ffffffffffffffffffffffffffffffffffffffff1673ffffffffffffffffffffffffffffffffffffffff166370a08231306040518263ffffffff1660e01b8152600401611eae919061253e565b60206040518083038186803b158015611ec657600080fd5b505afa158015611eda573d6000803e3d6000fd5b505050506040513d601f19601f82011682018060405250810190611efe9190612bf8565b6040518363ffffffff1660e01b8152600401611f1b929190612c25565b602060405180830381600087803b158015611f3557600080fd5b505af1158015611f49573d6000803e3d6000fd5b505050506040513d601f19601f82011682018060405250810190611f6d9190612c86565b505b5050565b6000600c54111561200b57600560009054906101000a900473ffffffffffffffffffffffffffffffffffffffff1673ffffffffffffffffffffffffffffffffffffffff16625c33e1600c546040518263ffffffff1660e01b81526004016000604051808303818588803b158015611fe957600080fd5b505af1158015611ffd573d6000803e3d6000fd5b50505050506000600c819055505b565b600080600160009054906101000a900473ffffffffffffffffffffffffffffffffffffffff1673ffffffffffffffffffffffffffffffffffffffff1663feaf968c6040518163ffffffff1660e01b815260040160a06040518083038186803b15801561207857600080fd5b505afa15801561208c573d6000803e3d6000fd5b505050506040513d601f19601f820116820180604052508101906120b09190612d2b565b5050509150508091505090565b600033905090565b60008060009054906101000a900473ffffffffffffffffffffffffffffffffffffffff169050816000806101000a81548173ffffffffffffffffffffffffffffffffffffffff021916908373ffffffffffffffffffffffffffffffffffffffff1602179055508173ffffffffffffffffffffffffffffffffffffffff168173ffffffffffffffffffffffffffffffffffffffff167f8be0079c531659141344cd1fd0a4f28419497f9722a3daafe3b4186f6b6457e060405160405180910390a35050565b60008184846121989190612768565b6121a291906127f1565b90509392505050565b600080fd5b6000819050919050565b6121c3816121b0565b81146121ce57600080fd5b50565b6000813590506121e0816121ba565b92915050565b6000602082840312156121fc576121fb6121ab565b5b600061220a848285016121d1565b91505092915050565b61221c816121b0565b82525050565b60006040820190506122376000830185612213565b6122446020830184612213565b9392505050565b60008060408385031215612262576122616121ab565b5b6000612270858286016121d1565b9250506020612281858286016121d1565b9150509250929050565b600060ff82169050919050565b6122a18161228b565b82525050565b60006020820190506122bc6000830184612298565b92915050565b60006020820190506122d76000830184612213565b92915050565b600073ffffffffffffffffffffffffffffffffffffffff82169050919050565b6000612308826122dd565b9050919050565b612318816122fd565b811461232357600080fd5b50565b6000813590506123358161230f565b92915050565b60008060408385031215612352576123516121ab565b5b600061236085828601612326565b9250506020612371858286016121d1565b9150509250929050565b600067ffffffffffffffff82169050919050565b6123988161237b565b82525050565b60006040820190506123b3600083018561238f565b6123c0602083018461238f565b9392505050565b6000602082840312156123dd576123dc6121ab565b5b60006123eb84828501612326565b91505092915050565b6123fd8161228b565b811461240857600080fd5b50565b60008135905061241a816123f4565b92915050565b600060208284031215612436576124356121ab565b5b60006124448482850161240b565b91505092915050565b600080600080600060a08688031215612469576124686121ab565b5b6000612477888289016121d1565b9550506020612488888289016121d1565b9450506040612499888289016121d1565b93505060606124aa888289016121d1565b92505060806124bb888289016121d1565b9150509295509295909350565b600080600080608085870312156124e2576124e16121ab565b5b60006124f0878288016121d1565b9450506020612501878288016121d1565b9350506040612512878288016121d1565b9250506060612523878288016121d1565b91505092959194509250565b612538816122fd565b82525050565b6000602082019050612553600083018461252f565b92915050565b600080604083850312156125705761256f6121ab565b5b600061257e858286016121d1565b925050602061258f85828601612326565b9150509250929050565b6125a28161237b565b81146125ad57600080fd5b50565b6000813590506125bf81612599565b92915050565b600080600080608085870312156125df576125de6121ab565b5b60006125ed878288016125b0565b94505060206125fe878288016125b0565b935050604061260f8782880161240b565b9250506060612620878288016125b0565b91505092959194509250565b7f4e487b7100000000000000000000000000000000000000000000000000000000600052602160045260246000fd5b6004811061266c5761266b61262c565b5b50565b600081905061267d8261265b565b919050565b600061268d8261266f565b9050919050565b61269d81612682565b82525050565b60006020820190506126b86000830184612694565b92915050565b600080600080600060a086880312156126da576126d96121ab565b5b60006126e8888289016121d1565b95505060206126f9888289016121d1565b945050604061270a888289016121d1565b935050606061271b888289016121d1565b925050608061272c8882890161240b565b9150509295509295909350565b7f4e487b7100000000000000000000000000000000000000000000000000000000600052601160045260246000fd5b6000612773826121b0565b915061277e836121b0565b9250817fffffffffffffffffffffffffffffffffffffffffffffffffffffffffffffffff04831182151516156127b7576127b6612739565b5b828202905092915050565b7f4e487b7100000000000000000000000000000000000000000000000000000000600052601260045260246000fd5b60006127fc826121b0565b9150612807836121b0565b925082612817576128166127c2565b5b828204905092915050565b600061282d826121b0565b9150612838836121b0565b92508282101561284b5761284a612739565b5b828203905092915050565b7f4e487b7100000000000000000000000000000000000000000000000000000000600052603260045260246000fd5b7f4e487b7100000000000000000000000000000000000000000000000000000000600052603160045260246000fd5b60006128bf826121b0565b91506128ca836121b0565b9250827fffffffffffffffffffffffffffffffffffffffffffffffffffffffffffffffff038211156128ff576128fe612739565b5b828201905092915050565b6000612915826121b0565b9150600082141561292957612928612739565b5b600182039050919050565b600082825260208201905092915050565b7f4f6e6c79207374726963746c7920706f7369746976652076616c756573000000600082015250565b600061297b601d83612934565b915061298682612945565b602082019050919050565b600060208201905081810360008301526129aa8161296e565b9050919050565b6000819050919050565b60006129d66129d16129cc8461237b565b6129b1565b6121b0565b9050919050565b6129e6816129bb565b82525050565b6000604082019050612a0160008301856129dd565b612a0e6020830184612298565b9392505050565b7f4f776e61626c653a2063616c6c6572206973206e6f7420746865206f776e6572600082015250565b6000612a4b602083612934565b9150612a5682612a15565b602082019050919050565b60006020820190508181036000830152612a7a81612a3e565b9050919050565b6000612a8c8261237b565b9150612a978361237b565b92508267ffffffffffffffff03821115612ab457612ab3612739565b5b828201905092915050565b7f4f776e61626c653a206e6577206f776e657220697320746865207a65726f206160008201527f6464726573730000000000000000000000000000000000000000000000000000602082015250565b6000612b1b602683612934565b9150612b2682612abf565b604082019050919050565b60006020820190508181036000830152612b4a81612b0e565b9050919050565b7f77696e646f772073697a652073686f756c64206265207374726963746c79207060008201527f6f73697469766500000000000000000000000000000000000000000000000000602082015250565b6000612bad602783612934565b9150612bb882612b51565b604082019050919050565b60006020820190508181036000830152612bdc81612ba0565b9050919050565b600081519050612bf2816121ba565b92915050565b600060208284031215612c0e57612c0d6121ab565b5b6000612c1c84828501612be3565b91505092915050565b6000604082019050612c3a600083018561252f565b612c476020830184612213565b9392505050565b60008115159050919050565b612c6381612c4e565b8114612c6e57600080fd5b50565b600081519050612c8081612c5a565b92915050565b600060208284031215612c9c57612c9b6121ab565b5b6000612caa84828501612c71565b91505092915050565b600069ffffffffffffffffffff82169050919050565b612cd281612cb3565b8114612cdd57600080fd5b50565b600081519050612cef81612cc9565b92915050565b6000819050919050565b612d0881612cf5565b8114612d1357600080fd5b50565b600081519050612d2581612cff565b92915050565b600080600080600060a08688031215612d4757612d466121ab565b5b6000612d5588828901612ce0565b9550506020612d6688828901612d16565b9450506040612d7788828901612be3565b9350506060612d8888828901612be3565b9250506080612d9988828901612ce0565b915050929550929590935056fea26469706673582212208a653aadee280444a040a2493975f1f12a6fa1c64b83f7466873353167faf47164736f6c63430008080033",
  "linkReferences": {},
  "deployedLinkReferences": {}
}