{
  "_format": "hh-sol-artifact-1",
  "contractName": "BinaryBet",
  "sourceName": "contracts/BinaryBet.sol",
  "abi": [
    {
      "inputs": [
        {
          "internalType": "uint256",
          "name": "_windowDuration",
          "type": "uint256"
        },
        {
          "internalType": "uint256",
          "name": "_fee",
          "type": "uint256"
        },
        {
          "internalType": "address",
          "name": "aggregator",
          "type": "address"
        }
      ],
      "stateMutability": "nonpayable",
      "type": "constructor"
    },
    {
      "anonymous": false,
      "inputs": [
        {
          "indexed": true,
          "internalType": "uint256",
          "name": "windowNumber",
          "type": "uint256"
        },
        {
          "indexed": true,
          "internalType": "address",
          "name": "user",
          "type": "address"
        },
        {
          "indexed": false,
          "internalType": "uint256",
          "name": "gain",
          "type": "uint256"
        }
      ],
      "name": "betSettled",
      "type": "event"
    },
    {
      "anonymous": false,
      "inputs": [
        {
          "indexed": true,
          "internalType": "address",
          "name": "user",
          "type": "address"
        },
        {
          "indexed": true,
          "internalType": "uint256",
          "name": "windowNumber",
          "type": "uint256"
        },
        {
          "indexed": false,
          "internalType": "uint256",
          "name": "value",
          "type": "uint256"
        },
        {
          "indexed": false,
          "internalType": "uint8",
          "name": "side",
          "type": "uint8"
        }
      ],
      "name": "newBet",
      "type": "event"
    },
    {
      "anonymous": false,
      "inputs": [
        {
          "indexed": true,
          "internalType": "address",
          "name": "user",
          "type": "address"
        },
        {
          "indexed": false,
          "internalType": "uint256",
          "name": "value",
          "type": "uint256"
        }
      ],
      "name": "newDeposit",
      "type": "event"
    },
    {
      "anonymous": false,
      "inputs": [
        {
          "indexed": true,
          "internalType": "address",
          "name": "user",
          "type": "address"
        },
        {
          "indexed": false,
          "internalType": "uint256",
          "name": "value",
          "type": "uint256"
        }
      ],
      "name": "newWithdraw",
      "type": "event"
    },
    {
      "anonymous": false,
      "inputs": [
        {
          "indexed": true,
          "internalType": "uint256",
          "name": "windowNumber",
          "type": "uint256"
        },
        {
          "indexed": false,
          "internalType": "uint256",
          "name": "price",
          "type": "uint256"
        }
      ],
      "name": "priceUpdated",
      "type": "event"
    },
    {
      "inputs": [],
      "name": "accumulatedFees",
      "outputs": [
        {
          "internalType": "uint256",
          "name": "",
          "type": "uint256"
        }
      ],
      "stateMutability": "view",
      "type": "function"
    },
    {
      "inputs": [
        {
          "internalType": "address",
          "name": "",
          "type": "address"
        }
      ],
      "name": "balance",
      "outputs": [
        {
          "internalType": "uint256",
          "name": "",
          "type": "uint256"
        }
      ],
      "stateMutability": "view",
      "type": "function"
    },
    {
      "inputs": [
        {
          "internalType": "address",
          "name": "user",
          "type": "address"
        }
      ],
      "name": "betListLen",
      "outputs": [
        {
          "internalType": "uint256",
          "name": "",
          "type": "uint256"
        }
      ],
      "stateMutability": "view",
      "type": "function"
    },
    {
      "inputs": [
        {
          "internalType": "uint256",
          "name": "referencePrice",
          "type": "uint256"
        },
        {
          "internalType": "uint256",
          "name": "settlementPrice",
          "type": "uint256"
        }
      ],
      "name": "betResult",
      "outputs": [
        {
          "internalType": "uint8",
          "name": "",
          "type": "uint8"
        }
      ],
      "stateMutability": "pure",
      "type": "function"
    },
    {
      "inputs": [
        {
          "internalType": "uint256",
          "name": "upStake",
          "type": "uint256"
        },
        {
          "internalType": "uint256",
          "name": "downStake",
          "type": "uint256"
        },
        {
          "internalType": "uint256",
          "name": "poolUp",
          "type": "uint256"
        },
        {
          "internalType": "uint256",
          "name": "poolDown",
          "type": "uint256"
        }
      ],
      "name": "calculateTokenReward",
      "outputs": [
        {
          "internalType": "uint256",
          "name": "",
          "type": "uint256"
        }
      ],
      "stateMutability": "pure",
      "type": "function"
    },
    {
      "inputs": [
        {
          "internalType": "address",
          "name": "newGovernance",
          "type": "address"
        }
      ],
      "name": "changeGovernance",
      "outputs": [],
      "stateMutability": "nonpayable",
      "type": "function"
    },
    {
      "inputs": [
        {
          "internalType": "uint256",
          "name": "windowSize",
          "type": "uint256"
        }
      ],
      "name": "changeWindowSize",
      "outputs": [],
      "stateMutability": "nonpayable",
      "type": "function"
    },
    {
      "inputs": [
        {
          "internalType": "uint256",
          "name": "value",
          "type": "uint256"
        },
        {
          "internalType": "uint256",
          "name": "_fee",
          "type": "uint256"
        }
      ],
      "name": "computeFee",
      "outputs": [
        {
          "internalType": "uint256",
          "name": "betFee",
          "type": "uint256"
        }
      ],
      "stateMutability": "pure",
      "type": "function"
    },
    {
      "inputs": [],
      "name": "deposit",
      "outputs": [],
      "stateMutability": "payable",
      "type": "function"
    },
    {
      "inputs": [],
      "name": "fee",
      "outputs": [
        {
          "internalType": "uint256",
          "name": "",
          "type": "uint256"
        }
      ],
      "stateMutability": "view",
      "type": "function"
    },
    {
      "inputs": [],
      "name": "firstBlock",
      "outputs": [
        {
          "internalType": "uint256",
          "name": "",
          "type": "uint256"
        }
      ],
      "stateMutability": "view",
      "type": "function"
    },
    {
      "inputs": [],
      "name": "firstWindow",
      "outputs": [
        {
          "internalType": "uint256",
          "name": "",
          "type": "uint256"
        }
      ],
      "stateMutability": "view",
      "type": "function"
    },
    {
      "inputs": [
        {
          "internalType": "address",
          "name": "user",
          "type": "address"
        }
      ],
      "name": "getBalance",
      "outputs": [
        {
          "internalType": "uint256",
          "name": "",
          "type": "uint256"
        }
      ],
      "stateMutability": "view",
      "type": "function"
    },
    {
      "inputs": [
        {
          "internalType": "uint256",
          "name": "windowNumber",
          "type": "uint256"
        }
      ],
      "name": "getPoolValues",
      "outputs": [
        {
          "internalType": "uint256",
          "name": "",
          "type": "uint256"
        },
        {
          "internalType": "uint256",
          "name": "",
          "type": "uint256"
        }
      ],
      "stateMutability": "view",
      "type": "function"
    },
    {
      "inputs": [
        {
          "internalType": "address",
          "name": "user",
          "type": "address"
        },
        {
          "internalType": "uint256",
          "name": "index",
          "type": "uint256"
        }
      ],
      "name": "getUserBetList",
      "outputs": [
        {
          "internalType": "uint256",
          "name": "",
          "type": "uint256"
        }
      ],
      "stateMutability": "view",
      "type": "function"
    },
    {
      "inputs": [
        {
          "internalType": "uint256",
          "name": "windowNumber",
          "type": "uint256"
        },
        {
          "internalType": "address",
          "name": "user",
          "type": "address"
        }
      ],
      "name": "getUserStake",
      "outputs": [
        {
          "internalType": "uint256",
          "name": "",
          "type": "uint256"
        },
        {
          "internalType": "uint256",
          "name": "",
          "type": "uint256"
        }
      ],
      "stateMutability": "view",
      "type": "function"
    },
    {
      "inputs": [
        {
          "internalType": "uint256",
          "name": "window",
          "type": "uint256"
        }
      ],
      "name": "getWindowBetPrices",
      "outputs": [
        {
          "internalType": "uint256",
          "name": "",
          "type": "uint256"
        },
        {
          "internalType": "uint256",
          "name": "",
          "type": "uint256"
        }
      ],
      "stateMutability": "view",
      "type": "function"
    },
    {
      "inputs": [
        {
          "internalType": "uint256",
          "name": "currentBlock",
          "type": "uint256"
        },
        {
          "internalType": "uint256",
          "name": "_windowDuration",
          "type": "uint256"
        },
        {
          "internalType": "uint256",
          "name": "_firstBlock",
          "type": "uint256"
        },
        {
          "internalType": "uint256",
          "name": "_windowOffset",
          "type": "uint256"
        },
        {
          "internalType": "uint256",
          "name": "_firstWindow",
          "type": "uint256"
        }
      ],
      "name": "getWindowNumber",
      "outputs": [
        {
          "internalType": "uint256",
          "name": "windowNumber",
          "type": "uint256"
        }
      ],
      "stateMutability": "pure",
      "type": "function"
    },
    {
      "inputs": [
        {
          "internalType": "uint256",
          "name": "windowNumber",
          "type": "uint256"
        },
        {
          "internalType": "uint256",
          "name": "_windowDuration",
          "type": "uint256"
        },
        {
          "internalType": "uint256",
          "name": "_firstBlock",
          "type": "uint256"
        },
        {
          "internalType": "uint256",
          "name": "_windowOffset",
          "type": "uint256"
        }
      ],
      "name": "getWindowStartingBlock",
      "outputs": [
        {
          "internalType": "uint256",
          "name": "startingBlock",
          "type": "uint256"
        }
      ],
      "stateMutability": "pure",
      "type": "function"
    },
    {
      "inputs": [
        {
          "internalType": "uint256",
          "name": "betValue",
          "type": "uint256"
        },
        {
          "internalType": "uint8",
          "name": "side",
          "type": "uint8"
        }
      ],
      "name": "placeBet",
      "outputs": [],
      "stateMutability": "payable",
      "type": "function"
    },
    {
      "inputs": [
        {
          "internalType": "uint256",
          "name": "",
          "type": "uint256"
        }
      ],
      "name": "pools",
      "outputs": [
        {
          "internalType": "uint256",
          "name": "downValue",
          "type": "uint256"
        },
        {
          "internalType": "uint256",
          "name": "upValue",
          "type": "uint256"
        }
      ],
      "stateMutability": "view",
      "type": "function"
    },
    {
      "inputs": [
        {
          "internalType": "address",
          "name": "stakingContract",
          "type": "address"
        }
      ],
      "name": "setStakingAddress",
      "outputs": [],
      "stateMutability": "nonpayable",
      "type": "function"
    },
    {
      "inputs": [
        {
          "internalType": "address",
          "name": "tokenContract",
          "type": "address"
        }
      ],
      "name": "setTokenAddress",
      "outputs": [],
      "stateMutability": "nonpayable",
      "type": "function"
    },
    {
      "inputs": [
        {
          "internalType": "uint256",
          "name": "upStake",
          "type": "uint256"
        },
        {
          "internalType": "uint256",
          "name": "downStake",
          "type": "uint256"
        },
        {
          "internalType": "uint256",
          "name": "poolUp",
          "type": "uint256"
        },
        {
          "internalType": "uint256",
          "name": "poolDown",
          "type": "uint256"
        },
        {
          "internalType": "uint8",
          "name": "betResult",
          "type": "uint8"
        }
      ],
      "name": "settleBet",
      "outputs": [
        {
          "internalType": "uint256",
          "name": "gain",
          "type": "uint256"
        },
        {
          "internalType": "uint256",
          "name": "fees",
          "type": "uint256"
        }
      ],
      "stateMutability": "pure",
      "type": "function"
    },
    {
      "inputs": [
        {
          "internalType": "address",
          "name": "user",
          "type": "address"
        }
      ],
      "name": "updateBalance",
      "outputs": [],
      "stateMutability": "nonpayable",
      "type": "function"
    },
    {
      "inputs": [
        {
          "internalType": "uint256",
          "name": "downValue",
          "type": "uint256"
        },
        {
          "internalType": "uint256",
          "name": "upValue",
          "type": "uint256"
        },
        {
          "internalType": "uint8",
          "name": "side",
          "type": "uint8"
        },
        {
          "internalType": "uint256",
          "name": "value",
          "type": "uint256"
        }
      ],
      "name": "updatePool",
      "outputs": [
        {
          "internalType": "uint256",
          "name": "",
          "type": "uint256"
        },
        {
          "internalType": "uint256",
          "name": "",
          "type": "uint256"
        }
      ],
      "stateMutability": "pure",
      "type": "function"
    },
    {
      "inputs": [],
      "name": "updatePrice",
      "outputs": [],
      "stateMutability": "nonpayable",
      "type": "function"
    },
    {
      "inputs": [
        {
          "internalType": "address",
          "name": "",
          "type": "address"
        },
        {
          "internalType": "uint256",
          "name": "",
          "type": "uint256"
        }
      ],
      "name": "userBets",
      "outputs": [
        {
          "internalType": "uint256",
          "name": "",
          "type": "uint256"
        }
      ],
      "stateMutability": "view",
      "type": "function"
    },
    {
      "inputs": [
        {
          "internalType": "address",
          "name": "",
          "type": "address"
        },
        {
          "internalType": "uint256",
          "name": "",
          "type": "uint256"
        }
      ],
      "name": "userStake",
      "outputs": [
        {
          "internalType": "uint256",
          "name": "downValue",
          "type": "uint256"
        },
        {
          "internalType": "uint256",
          "name": "upValue",
          "type": "uint256"
        }
      ],
      "stateMutability": "view",
      "type": "function"
    },
    {
      "inputs": [],
      "name": "windowDuration",
      "outputs": [
        {
          "internalType": "uint256",
          "name": "",
          "type": "uint256"
        }
      ],
      "stateMutability": "view",
      "type": "function"
    },
    {
      "inputs": [],
      "name": "windowOffset",
      "outputs": [
        {
          "internalType": "uint256",
          "name": "",
          "type": "uint256"
        }
      ],
      "stateMutability": "view",
      "type": "function"
    },
    {
      "inputs": [
        {
          "internalType": "uint256",
          "name": "",
          "type": "uint256"
        }
      ],
      "name": "windowPrice",
      "outputs": [
        {
          "internalType": "uint256",
          "name": "",
          "type": "uint256"
        }
      ],
      "stateMutability": "view",
      "type": "function"
    },
    {
      "inputs": [
        {
          "internalType": "uint256",
          "name": "value",
          "type": "uint256"
        }
      ],
      "name": "withdraw",
      "outputs": [],
      "stateMutability": "nonpayable",
      "type": "function"
    }
  ],
  "bytecode": "0x60806040526001600b553480156200001657600080fd5b50604051620031eb380380620031eb83398181016040528101906200003c919062000120565b60648211156200004b57600080fd5b806000806101000a81548173ffffffffffffffffffffffffffffffffffffffff021916908373ffffffffffffffffffffffffffffffffffffffff16021790555043600481905550826003819055508160028190555033600160006101000a81548173ffffffffffffffffffffffffffffffffffffffff021916908373ffffffffffffffffffffffffffffffffffffffff1602179055506001600b81905550505050620001e8565b6000815190506200010381620001b4565b92915050565b6000815190506200011a81620001ce565b92915050565b6000806000606084860312156200013657600080fd5b6000620001468682870162000109565b9350506020620001598682870162000109565b92505060406200016c86828701620000f2565b9150509250925092565b600062000183826200018a565b9050919050565b600073ffffffffffffffffffffffffffffffffffffffff82169050919050565b6000819050919050565b620001bf8162000176565b8114620001cb57600080fd5b50565b620001d981620001aa565b8114620001e557600080fd5b50565b612ff380620001f86000396000f3fe6080604052600436106101ee5760003560e01c8063849cd1c71161010d578063daaac9d2116100a0578063e3d670d71161006f578063e3d670d71461076f578063f4e0d9ac146107ac578063f52818f0146107d5578063f83b35fb146107fe578063f8b2cb4f1461083c576101ee565b8063daaac9d21461069f578063ddca3f43146106dc578063e0a5cee314610707578063e0d65d8714610732576101ee565b8063ac4afa38116100dc578063ac4afa38146105dc578063b47a35661461061a578063ca055e5314610657578063d0e30db014610695576101ee565b8063849cd1c7146104fb57806389b808a7146105385780639626a2301461057557806399572d6f146105b3576101ee565b80633937ea4f116101855780635c11ff7a116101545780635c11ff7a14610451578063673a7e281461047c5780638068aa681461049357806380962668146104d0576101ee565b80633937ea4f1461038257806340b8405a146103c0578063576fe42f146103e9578063587f5ed714610426576101ee565b8063231b0268116101c1578063231b0268146102c857806326a4e8d2146102f35780632e1a7d4d1461031c5780632ff284c214610345576101ee565b806303edf914146101f35780630ed6ca291461020f5780630eff4d881461024d5780631bb5abf91461028b575b600080fd5b61020d600480360381019061020891906128b2565b610879565b005b34801561021b57600080fd5b506102366004803603810190610231919061284f565b610d26565b604051610244929190612ca3565b60405180910390f35b34801561025957600080fd5b50610274600480360381019061026f9190612634565b610e93565b604051610282929190612ca3565b60405180910390f35b34801561029757600080fd5b506102b260048036038101906102ad91906126c2565b610ee0565b6040516102bf9190612cf5565b60405180910390f35b3480156102d457600080fd5b506102dd610f0f565b6040516102ea9190612c88565b60405180910390f35b3480156102ff57600080fd5b5061031a600480360381019061031591906125a6565b610f15565b005b34801561032857600080fd5b50610343600480360381019061033e9190612634565b61104d565b005b34801561035157600080fd5b5061036c600480360381019061036791906126c2565b611206565b6040516103799190612c88565b60405180910390f35b34801561038e57600080fd5b506103a960048036038101906103a491906125cf565b611228565b6040516103b7929190612ca3565b60405180910390f35b3480156103cc57600080fd5b506103e760048036038101906103e291906125a6565b611259565b005b3480156103f557600080fd5b50610410600480360381019061040b9190612761565b6119f9565b60405161041d9190612c88565b60405180910390f35b34801561043257600080fd5b5061043b611a45565b6040516104489190612c88565b60405180910390f35b34801561045d57600080fd5b50610466611a4b565b6040516104739190612c88565b60405180910390f35b34801561048857600080fd5b50610491611a51565b005b34801561049f57600080fd5b506104ba60048036038101906104b591906125cf565b611af4565b6040516104c79190612c88565b60405180910390f35b3480156104dc57600080fd5b506104e5611b25565b6040516104f29190612c88565b60405180910390f35b34801561050757600080fd5b50610522600480360381019061051d91906126fe565b611b2b565b60405161052f9190612c88565b60405180910390f35b34801561054457600080fd5b5061055f600480360381019061055a91906125a6565b611b65565b60405161056c9190612c88565b60405180910390f35b34801561058157600080fd5b5061059c60048036038101906105979190612686565b611bb1565b6040516105aa929190612ca3565b60405180910390f35b3480156105bf57600080fd5b506105da60048036038101906105d591906125a6565b611c3d565b005b3480156105e857600080fd5b5061060360048036038101906105fe9190612634565b611d11565b604051610611929190612ca3565b60405180910390f35b34801561062657600080fd5b50610641600480360381019061063c91906125cf565b611d35565b60405161064e9190612c88565b60405180910390f35b34801561066357600080fd5b5061067e600480360381019061067991906127d8565b611dc1565b60405161068c929190612ca3565b60405180910390f35b61069d611ff0565b005b3480156106ab57600080fd5b506106c660048036038101906106c191906126fe565b6120d6565b6040516106d39190612c88565b60405180910390f35b3480156106e857600080fd5b506106f1612111565b6040516106fe9190612c88565b60405180910390f35b34801561071357600080fd5b5061071c612117565b6040516107299190612c88565b60405180910390f35b34801561073e57600080fd5b5061075960048036038101906107549190612634565b61211d565b6040516107669190612c88565b60405180910390f35b34801561077b57600080fd5b50610796600480360381019061079191906125a6565b612135565b6040516107a39190612c88565b60405180910390f35b3480156107b857600080fd5b506107d360048036038101906107ce91906125a6565b61214d565b005b3480156107e157600080fd5b506107fc60048036038101906107f79190612634565b612285565b005b34801561080a57600080fd5b5061082560048036038101906108209190612634565b6123ae565b604051610833929190612ca3565b60405180910390f35b34801561084857600080fd5b50610863600480360381019061085e91906125a6565b6123fa565b6040516108709190612c88565b60405180910390f35b610881611a51565b61088a33611259565b34600e60003373ffffffffffffffffffffffffffffffffffffffff1673ffffffffffffffffffffffffffffffffffffffff168152602001908152602001600020546108d59190612d21565b821115610917576040517f08c379a000000000000000000000000000000000000000000000000000000000815260040161090e90612c28565b60405180910390fd5b8134600e60003373ffffffffffffffffffffffffffffffffffffffff1673ffffffffffffffffffffffffffffffffffffffff168152602001908152602001600020546109639190612d21565b61096d9190612e02565b600e60003373ffffffffffffffffffffffffffffffffffffffff1673ffffffffffffffffffffffffffffffffffffffff1681526020019081526020016000208190555060006109be83600254611206565b905080600d546109ce9190612d21565b600d81905550600081846109e29190612e02565b905060006109fb43600354600454600c54600b546119f9565b9050601160003373ffffffffffffffffffffffffffffffffffffffff1673ffffffffffffffffffffffffffffffffffffffff168152602001908152602001600020600082815260200190815260200160002060009054906101000a900460ff16610b2f57601060003373ffffffffffffffffffffffffffffffffffffffff1673ffffffffffffffffffffffffffffffffffffffff1681526020019081526020016000208190806001815401808255809150506001900390600052602060002001600090919091909150556001601160003373ffffffffffffffffffffffffffffffffffffffff1673ffffffffffffffffffffffffffffffffffffffff168152602001908152602001600020600083815260200190815260200160002060006101000a81548160ff0219169083151502179055505b600060096000838152602001908152602001600020604051806040016040529081600082015481526020016001820154815250509050600080610b7c836000015184602001518988610d26565b915091506040518060400160405280838152602001828152506009600086815260200190815260200160002060008201518160000155602082015181600101559050506000600f60003373ffffffffffffffffffffffffffffffffffffffff1673ffffffffffffffffffffffffffffffffffffffff1681526020019081526020016000206000868152602001908152602001600020604051806040016040529081600082015481526020016001820154815250509050610c46816000015182602001518a89610d26565b8093508194505050604051806040016040528084815260200183815250600f60003373ffffffffffffffffffffffffffffffffffffffff1673ffffffffffffffffffffffffffffffffffffffff16815260200190815260200160002060008781526020019081526020016000206000820151816000015560208201518160010155905050843373ffffffffffffffffffffffffffffffffffffffff167f560e32e4934b84f33b228f40ddc5b9fa690426ee087005a7d979d7921d24a02b888b604051610d13929190612ccc565b60405180910390a3505050505050505050565b60008060008460ff166001811115610d67577f4e487b7100000000000000000000000000000000000000000000000000000000600052602160045260246000fd5b905060006001811115610da3577f4e487b7100000000000000000000000000000000000000000000000000000000600052602160045260246000fd5b816001811115610ddc577f4e487b7100000000000000000000000000000000000000000000000000000000600052602160045260246000fd5b1415610df9578387610dee9190612d21565b869250925050610e8a565b600180811115610e32577f4e487b7100000000000000000000000000000000000000000000000000000000600052602160045260246000fd5b816001811115610e6b577f4e487b7100000000000000000000000000000000000000000000000000000000600052602160045260246000fd5b1415610e8857868487610e7e9190612d21565b9250925050610e8a565b505b94509492505050565b600080600060096000858152602001908152602001600020604051806040016040529081600082015481526020016001820154815250509050806000015181602001519250925050915091565b600082821015610ef35760009050610f09565b82821115610f045760019050610f09565b600290505b92915050565b60045481565b600073ffffffffffffffffffffffffffffffffffffffff16600860009054906101000a900473ffffffffffffffffffffffffffffffffffffffff1673ffffffffffffffffffffffffffffffffffffffff1614610fa6576040517f08c379a0000000000000000000000000000000000000000000000000000000008152600401610f9d90612bc8565b60405180910390fd5b80600860006101000a81548173ffffffffffffffffffffffffffffffffffffffff021916908373ffffffffffffffffffffffffffffffffffffffff160217905550600860009054906101000a900473ffffffffffffffffffffffffffffffffffffffff16600760006101000a81548173ffffffffffffffffffffffffffffffffffffffff021916908373ffffffffffffffffffffffffffffffffffffffff16021790555050565b611055611a51565b61105e33611259565b600e60003373ffffffffffffffffffffffffffffffffffffffff1673ffffffffffffffffffffffffffffffffffffffff168152602001908152602001600020548111156110e0576040517f08c379a00000000000000000000000000000000000000000000000000000000081526004016110d790612c68565b60405180910390fd5b80600e60003373ffffffffffffffffffffffffffffffffffffffff1673ffffffffffffffffffffffffffffffffffffffff1681526020019081526020016000205461112b9190612e02565b600e60003373ffffffffffffffffffffffffffffffffffffffff1673ffffffffffffffffffffffffffffffffffffffff168152602001908152602001600020819055503373ffffffffffffffffffffffffffffffffffffffff166108fc829081150290604051600060405180830381858888f193505050501580156111b4573d6000803e3d6000fd5b503373ffffffffffffffffffffffffffffffffffffffff167f056f1f5cdd8662230b94b7f88e06d95549d18e77cb2959933db3849d36df790a826040516111fb9190612c88565b60405180910390a250565b6000606482846112169190612da8565b6112209190612d77565b905092915050565b600f602052816000526040600020602052806000526040600020600091509150508060000154908060010154905082565b6000601060008373ffffffffffffffffffffffffffffffffffffffff1673ffffffffffffffffffffffffffffffffffffffff16815260200190815260200160002090506000818054905014156112af57506119f6565b6000818054905090505b600081111561195b576000826001836112d29190612e02565b81548110611309577f4e487b7100000000000000000000000000000000000000000000000000000000600052603260045260246000fd5b90600052602060002001549050600061132d43600354600454600c54600b546119f9565b905060028261133c9190612d21565b81101561134a575050611948565b600080611356846123ae565b9150915060008114801561137557506003846113729190612d21565b83105b156113835750505050611948565b600061138f8383610ee0565b905060008314806113a05750600082145b156113aa57600290505b86600188805490506113bc9190612e02565b815481106113f3577f4e487b7100000000000000000000000000000000000000000000000000000000600052603260045260246000fd5b90600052602060002001548760018861140c9190612e02565b81548110611443577f4e487b7100000000000000000000000000000000000000000000000000000000600052603260045260246000fd5b906000526020600020018190555086805480611488577f4e487b7100000000000000000000000000000000000000000000000000000000600052603160045260246000fd5b600190038181906000526020600020016000905590556000600f60008a73ffffffffffffffffffffffffffffffffffffffff1673ffffffffffffffffffffffffffffffffffffffff1681526020019081526020016000206000878152602001908152602001600020604051806040016040529081600082015481526020016001820154815250509050600060096000888152602001908152602001600020604051806040016040529081600082015481526020016001820154815250509050600080611567846020015185600001518560200151866000015189611dc1565b9150915081600e60008e73ffffffffffffffffffffffffffffffffffffffff1673ffffffffffffffffffffffffffffffffffffffff168152602001908152602001600020546115b69190612d21565b600e60008e73ffffffffffffffffffffffffffffffffffffffff1673ffffffffffffffffffffffffffffffffffffffff1681526020019081526020016000208190555080600d546116079190612d21565b600d81905550600061162b85602001518660000151866020015187600001516120d6565b905080600760009054906101000a900473ffffffffffffffffffffffffffffffffffffffff1673ffffffffffffffffffffffffffffffffffffffff166370a08231306040518263ffffffff1660e01b81526004016116899190612b84565b60206040518083038186803b1580156116a157600080fd5b505afa1580156116b5573d6000803e3d6000fd5b505050506040513d601f19601f820116820180604052508101906116d9919061265d565b1061179357600760009054906101000a900473ffffffffffffffffffffffffffffffffffffffff1673ffffffffffffffffffffffffffffffffffffffff1663a9059cbb8e836040518363ffffffff1660e01b815260040161173b929190612b9f565b602060405180830381600087803b15801561175557600080fd5b505af1158015611769573d6000803e3d6000fd5b505050506040513d601f19601f8201168201806040525081019061178d919061260b565b506118ee565b600760009054906101000a900473ffffffffffffffffffffffffffffffffffffffff1673ffffffffffffffffffffffffffffffffffffffff1663a9059cbb8e600760009054906101000a900473ffffffffffffffffffffffffffffffffffffffff1673ffffffffffffffffffffffffffffffffffffffff166370a08231306040518263ffffffff1660e01b815260040161182d9190612b84565b60206040518083038186803b15801561184557600080fd5b505afa158015611859573d6000803e3d6000fd5b505050506040513d601f19601f8201168201806040525081019061187d919061265d565b6040518363ffffffff1660e01b815260040161189a929190612b9f565b602060405180830381600087803b1580156118b457600080fd5b505af11580156118c8573d6000803e3d6000fd5b505050506040513d601f19601f820116820180604052508101906118ec919061260b565b505b8c73ffffffffffffffffffffffffffffffffffffffff168a7f1a82fd78981b9465af4b8bd67f27607df5d873b7a978cc8cee1a65b85c2990fc856040516119359190612c88565b60405180910390a3505050505050505050505b808061195390612eab565b9150506112b9565b506000600d5411156119f457600560009054906101000a900473ffffffffffffffffffffffffffffffffffffffff1673ffffffffffffffffffffffffffffffffffffffff16625c33e1600d546040518263ffffffff1660e01b81526004016000604051808303818588803b1580156119d257600080fd5b505af11580156119e6573d6000803e3d6000fd5b50505050506000600d819055505b505b50565b600083861015611a0b57819050611a3c565b600183868689611a1b9190612e02565b611a259190612d77565b611a2f9190612d21565b611a399190612d21565b90505b95945050505050565b600d5481565b60035481565b6000611a6843600354600454600c54600b546119f9565b90506000600a6000838152602001908152602001600020541415611af157611a8e612443565b600a600083815260200190815260200160002081905550807f7a3325b9d11ddc18edd3dff130141b6ce951061520c6b933a604bf701f3d8052600a600084815260200190815260200160002054604051611ae89190612c88565b60405180910390a25b50565b60106020528160005260406000208181548110611b1057600080fd5b90600052602060002001600091509150505481565b600c5481565b60008382600187611b3c9190612e02565b611b469190612e02565b611b509190612da8565b83611b5b9190612d21565b9050949350505050565b6000601060008373ffffffffffffffffffffffffffffffffffffffff1673ffffffffffffffffffffffffffffffffffffffff168152602001908152602001600020805490509050919050565b6000806000600f60008573ffffffffffffffffffffffffffffffffffffffff1673ffffffffffffffffffffffffffffffffffffffff16815260200190815260200160002060008681526020019081526020016000206040518060400160405290816000820154815260200160018201548152505090508060000151816020015192509250509250929050565b600160009054906101000a900473ffffffffffffffffffffffffffffffffffffffff1673ffffffffffffffffffffffffffffffffffffffff163373ffffffffffffffffffffffffffffffffffffffff1614611ccd576040517f08c379a0000000000000000000000000000000000000000000000000000000008152600401611cc490612c08565b60405180910390fd5b80600160006101000a81548173ffffffffffffffffffffffffffffffffffffffff021916908373ffffffffffffffffffffffffffffffffffffffff16021790555050565b60096020528060005260406000206000915090508060000154908060010154905082565b6000601060008473ffffffffffffffffffffffffffffffffffffffff1673ffffffffffffffffffffffffffffffffffffffff1681526020019081526020016000208281548110611dae577f4e487b7100000000000000000000000000000000000000000000000000000000600052603260045260246000fd5b9060005260206000200154905092915050565b60008060008360ff166002811115611e02577f4e487b7100000000000000000000000000000000000000000000000000000000600052602160045260246000fd5b905060008587611e129190612d21565b905060016002811115611e4e577f4e487b7100000000000000000000000000000000000000000000000000000000600052602160045260246000fd5b826002811115611e87577f4e487b7100000000000000000000000000000000000000000000000000000000600052602160045260246000fd5b148015611e95575060008714155b15611eac57611ea5818a896124f1565b9350611fe4565b60006002811115611ee6577f4e487b7100000000000000000000000000000000000000000000000000000000600052602160045260246000fd5b826002811115611f1f577f4e487b7100000000000000000000000000000000000000000000000000000000600052602160045260246000fd5b148015611f2d575060008614155b15611f4457611f3d8189886124f1565b9350611fe3565b600280811115611f7d577f4e487b7100000000000000000000000000000000000000000000000000000000600052602160045260246000fd5b826002811115611fb6577f4e487b7100000000000000000000000000000000000000000000000000000000600052602160045260246000fd5b1415611fcf578789611fc89190612d21565b9350611fe2565b600093508789611fdf9190612d21565b92505b5b5b50509550959350505050565b611ff8611a51565b34600e60003373ffffffffffffffffffffffffffffffffffffffff1673ffffffffffffffffffffffffffffffffffffffff168152602001908152602001600020546120439190612d21565b600e60003373ffffffffffffffffffffffffffffffffffffffff1673ffffffffffffffffffffffffffffffffffffffff168152602001908152602001600020819055503373ffffffffffffffffffffffffffffffffffffffff167fb852e2e011cc5f1a909361fc2aeee1b2c4fa840300139b0b85f5e08a50898c62346040516120cc9190612c88565b60405180910390a2565b60008068240cba98add2c4000090506121068186886120f59190612d21565b85876121019190612d21565b6124f1565b915050949350505050565b60025481565b600b5481565b600a6020528060005260406000206000915090505481565b600e6020528060005260406000206000915090505481565b600073ffffffffffffffffffffffffffffffffffffffff16600660009054906101000a900473ffffffffffffffffffffffffffffffffffffffff1673ffffffffffffffffffffffffffffffffffffffff16146121de576040517f08c379a00000000000000000000000000000000000000000000000000000000081526004016121d590612be8565b60405180910390fd5b80600660006101000a81548173ffffffffffffffffffffffffffffffffffffffff021916908373ffffffffffffffffffffffffffffffffffffffff160217905550600660009054906101000a900473ffffffffffffffffffffffffffffffffffffffff16600560006101000a81548173ffffffffffffffffffffffffffffffffffffffff021916908373ffffffffffffffffffffffffffffffffffffffff16021790555050565b600160009054906101000a900473ffffffffffffffffffffffffffffffffffffffff1673ffffffffffffffffffffffffffffffffffffffff163373ffffffffffffffffffffffffffffffffffffffff1614612315576040517f08c379a000000000000000000000000000000000000000000000000000000000815260040161230c90612c08565b60405180910390fd5b60008111612358576040517f08c379a000000000000000000000000000000000000000000000000000000000815260040161234f90612c48565b60405180910390fd5b600061236f43600354600454600c54600b546119f9565b905061238f6001826123819190612d21565b600354600454600c54611b2b565b60048190555080600c8190555080600b81905550816003819055505050565b600080600a60006001856123c29190612d21565b815260200190815260200160002054600a60006002866123e29190612d21565b81526020019081526020016000205491509150915091565b6000600e60008373ffffffffffffffffffffffffffffffffffffffff1673ffffffffffffffffffffffffffffffffffffffff168152602001908152602001600020549050919050565b60008060008054906101000a900473ffffffffffffffffffffffffffffffffffffffff1673ffffffffffffffffffffffffffffffffffffffff1663feaf968c6040518163ffffffff1660e01b815260040160a06040518083038186803b1580156124ac57600080fd5b505afa1580156124c0573d6000803e3d6000fd5b505050506040513d601f19601f820116820180604052508101906124e491906128ee565b5050509150508091505090565b60008184846125009190612da8565b61250a9190612d77565b90509392505050565b60008135905061252281612f33565b92915050565b60008151905061253781612f4a565b92915050565b60008151905061254c81612f61565b92915050565b60008135905061256181612f78565b92915050565b60008151905061257681612f78565b92915050565b60008135905061258b81612f8f565b92915050565b6000815190506125a081612fa6565b92915050565b6000602082840312156125b857600080fd5b60006125c684828501612513565b91505092915050565b600080604083850312156125e257600080fd5b60006125f085828601612513565b925050602061260185828601612552565b9150509250929050565b60006020828403121561261d57600080fd5b600061262b84828501612528565b91505092915050565b60006020828403121561264657600080fd5b600061265484828501612552565b91505092915050565b60006020828403121561266f57600080fd5b600061267d84828501612567565b91505092915050565b6000806040838503121561269957600080fd5b60006126a785828601612552565b92505060206126b885828601612513565b9150509250929050565b600080604083850312156126d557600080fd5b60006126e385828601612552565b92505060206126f485828601612552565b9150509250929050565b6000806000806080858703121561271457600080fd5b600061272287828801612552565b945050602061273387828801612552565b935050604061274487828801612552565b925050606061275587828801612552565b91505092959194509250565b600080600080600060a0868803121561277957600080fd5b600061278788828901612552565b955050602061279888828901612552565b94505060406127a988828901612552565b93505060606127ba88828901612552565b92505060806127cb88828901612552565b9150509295509295909350565b600080600080600060a086880312156127f057600080fd5b60006127fe88828901612552565b955050602061280f88828901612552565b945050604061282088828901612552565b935050606061283188828901612552565b92505060806128428882890161257c565b9150509295509295909350565b6000806000806080858703121561286557600080fd5b600061287387828801612552565b945050602061288487828801612552565b93505060406128958782880161257c565b92505060606128a687828801612552565b91505092959194509250565b600080604083850312156128c557600080fd5b60006128d385828601612552565b92505060206128e48582860161257c565b9150509250929050565b600080600080600060a0868803121561290657600080fd5b600061291488828901612591565b95505060206129258882890161253d565b945050604061293688828901612567565b935050606061294788828901612567565b925050608061295888828901612591565b9150509295509295909350565b61296e81612e36565b82525050565b6000612981601983612d10565b91507f746f6b656e206164647265737320616c726561647920736574000000000000006000830152602082019050919050565b60006129c1601b83612d10565b91507f7374616b696e67206164647265737320616c72656164792073657400000000006000830152602082019050919050565b6000612a01602483612d10565b91507f6f6e6c7920676f7665726e616e63652063616e2063616c6c2074686973206d6560008301527f74686f64000000000000000000000000000000000000000000000000000000006020830152604082019050919050565b6000612a67602283612d10565b91507f6e6f7420656e6f756768206d6f6e657920746f20706c6163652074686973206260008301527f65740000000000000000000000000000000000000000000000000000000000006020830152604082019050919050565b6000612acd602783612d10565b91507f77696e646f772073697a652073686f756c64206265207374726963746c79207060008301527f6f736974697665000000000000000000000000000000000000000000000000006020830152604082019050919050565b6000612b33601083612d10565b91507f6e6f7420656e6f7567682066756e6473000000000000000000000000000000006000830152602082019050919050565b612b6f81612e7e565b82525050565b612b7e81612e88565b82525050565b6000602082019050612b996000830184612965565b92915050565b6000604082019050612bb46000830185612965565b612bc16020830184612b66565b9392505050565b60006020820190508181036000830152612be181612974565b9050919050565b60006020820190508181036000830152612c01816129b4565b9050919050565b60006020820190508181036000830152612c21816129f4565b9050919050565b60006020820190508181036000830152612c4181612a5a565b9050919050565b60006020820190508181036000830152612c6181612ac0565b9050919050565b60006020820190508181036000830152612c8181612b26565b9050919050565b6000602082019050612c9d6000830184612b66565b92915050565b6000604082019050612cb86000830185612b66565b612cc56020830184612b66565b9392505050565b6000604082019050612ce16000830185612b66565b612cee6020830184612b75565b9392505050565b6000602082019050612d0a6000830184612b75565b92915050565b600082825260208201905092915050565b6000612d2c82612e7e565b9150612d3783612e7e565b9250827fffffffffffffffffffffffffffffffffffffffffffffffffffffffffffffffff03821115612d6c57612d6b612ed5565b5b828201905092915050565b6000612d8282612e7e565b9150612d8d83612e7e565b925082612d9d57612d9c612f04565b5b828204905092915050565b6000612db382612e7e565b9150612dbe83612e7e565b9250817fffffffffffffffffffffffffffffffffffffffffffffffffffffffffffffffff0483118215151615612df757612df6612ed5565b5b828202905092915050565b6000612e0d82612e7e565b9150612e1883612e7e565b925082821015612e2b57612e2a612ed5565b5b828203905092915050565b6000612e4182612e5e565b9050919050565b60008115159050919050565b6000819050919050565b600073ffffffffffffffffffffffffffffffffffffffff82169050919050565b6000819050919050565b600060ff82169050919050565b600069ffffffffffffffffffff82169050919050565b6000612eb682612e7e565b91506000821415612eca57612ec9612ed5565b5b600182039050919050565b7f4e487b7100000000000000000000000000000000000000000000000000000000600052601160045260246000fd5b7f4e487b7100000000000000000000000000000000000000000000000000000000600052601260045260246000fd5b612f3c81612e36565b8114612f4757600080fd5b50565b612f5381612e48565b8114612f5e57600080fd5b50565b612f6a81612e54565b8114612f7557600080fd5b50565b612f8181612e7e565b8114612f8c57600080fd5b50565b612f9881612e88565b8114612fa357600080fd5b50565b612faf81612e95565b8114612fba57600080fd5b5056fea2646970667358221220cf194b62c34428c9e33b60e5d7806580bb8b224d252a3b577f8fa0e98e7d708a64736f6c63430008000033",
  "linkReferences": {},
  "deployedLinkReferences": {}
}