{
  "_format": "hh-sol-artifact-1",
  "contractName": "BinaryBet",
  "sourceName": "contracts/BinaryBet.sol",
  "abi": [
    {
      "inputs": [
        {
          "internalType": "uint256",
          "name": "_windowDuration",
          "type": "uint256"
        },
        {
          "internalType": "uint256",
          "name": "_fee",
          "type": "uint256"
        },
        {
          "internalType": "address",
          "name": "aggregator",
          "type": "address"
        },
        {
          "internalType": "address",
          "name": "stakingContract",
          "type": "address"
        },
        {
          "internalType": "address",
          "name": "tokenContract",
          "type": "address"
        },
        {
          "internalType": "uint256",
          "name": "reward",
          "type": "uint256"
        }
      ],
      "stateMutability": "nonpayable",
      "type": "constructor"
    },
    {
      "anonymous": false,
      "inputs": [
        {
          "indexed": true,
          "internalType": "address",
          "name": "previousOwner",
          "type": "address"
        },
        {
          "indexed": true,
          "internalType": "address",
          "name": "newOwner",
          "type": "address"
        }
      ],
      "name": "OwnershipTransferred",
      "type": "event"
    },
    {
      "anonymous": false,
      "inputs": [
        {
          "indexed": true,
          "internalType": "uint256",
          "name": "windowNumber",
          "type": "uint256"
        },
        {
          "indexed": true,
          "internalType": "address",
          "name": "user",
          "type": "address"
        },
        {
          "indexed": false,
          "internalType": "uint256",
          "name": "gain",
          "type": "uint256"
        }
      ],
      "name": "betSettled",
      "type": "event"
    },
    {
      "anonymous": false,
      "inputs": [
        {
          "indexed": true,
          "internalType": "address",
          "name": "user",
          "type": "address"
        },
        {
          "indexed": true,
          "internalType": "uint256",
          "name": "windowNumber",
          "type": "uint256"
        },
        {
          "indexed": false,
          "internalType": "uint256",
          "name": "value",
          "type": "uint256"
        },
        {
          "indexed": false,
          "internalType": "uint8",
          "name": "side",
          "type": "uint8"
        }
      ],
      "name": "newBet",
      "type": "event"
    },
    {
      "anonymous": false,
      "inputs": [
        {
          "indexed": true,
          "internalType": "uint256",
          "name": "windowNumber",
          "type": "uint256"
        },
        {
          "indexed": false,
          "internalType": "uint256",
          "name": "price",
          "type": "uint256"
        }
      ],
      "name": "priceUpdated",
      "type": "event"
    },
    {
      "inputs": [],
      "name": "REWARD_PER_WINDOW",
      "outputs": [
        {
          "internalType": "uint256",
          "name": "",
          "type": "uint256"
        }
      ],
      "stateMutability": "view",
      "type": "function"
    },
    {
      "inputs": [],
      "name": "accumulatedFees",
      "outputs": [
        {
          "internalType": "uint256",
          "name": "",
          "type": "uint256"
        }
      ],
      "stateMutability": "view",
      "type": "function"
    },
    {
      "inputs": [
        {
          "internalType": "address",
          "name": "user",
          "type": "address"
        }
      ],
      "name": "betListLen",
      "outputs": [
        {
          "internalType": "uint256",
          "name": "",
          "type": "uint256"
        }
      ],
      "stateMutability": "view",
      "type": "function"
    },
    {
      "inputs": [
        {
          "internalType": "uint256",
          "name": "referencePrice",
          "type": "uint256"
        },
        {
          "internalType": "uint256",
          "name": "settlementPrice",
          "type": "uint256"
        }
      ],
      "name": "betResult",
      "outputs": [
        {
          "internalType": "uint8",
          "name": "",
          "type": "uint8"
        }
      ],
      "stateMutability": "pure",
      "type": "function"
    },
    {
      "inputs": [
        {
          "internalType": "uint256",
          "name": "upStake",
          "type": "uint256"
        },
        {
          "internalType": "uint256",
          "name": "downStake",
          "type": "uint256"
        },
        {
          "internalType": "uint256",
          "name": "poolUp",
          "type": "uint256"
        },
        {
          "internalType": "uint256",
          "name": "poolDown",
          "type": "uint256"
        }
      ],
      "name": "calculateTokenReward",
      "outputs": [
        {
          "internalType": "uint256",
          "name": "",
          "type": "uint256"
        }
      ],
      "stateMutability": "view",
      "type": "function"
    },
    {
      "inputs": [
        {
          "internalType": "uint256",
          "name": "windowSize",
          "type": "uint256"
        }
      ],
      "name": "changeWindowSize",
      "outputs": [],
      "stateMutability": "nonpayable",
      "type": "function"
    },
    {
      "inputs": [
        {
          "internalType": "uint256",
          "name": "value",
          "type": "uint256"
        },
        {
          "internalType": "uint256",
          "name": "_fee",
          "type": "uint256"
        }
      ],
      "name": "computeFee",
      "outputs": [
        {
          "internalType": "uint256",
          "name": "betFee",
          "type": "uint256"
        }
      ],
      "stateMutability": "pure",
      "type": "function"
    },
    {
      "inputs": [],
      "name": "fee",
      "outputs": [
        {
          "internalType": "uint256",
          "name": "",
          "type": "uint256"
        }
      ],
      "stateMutability": "view",
      "type": "function"
    },
    {
      "inputs": [],
      "name": "firstBlock",
      "outputs": [
        {
          "internalType": "uint256",
          "name": "",
          "type": "uint256"
        }
      ],
      "stateMutability": "view",
      "type": "function"
    },
    {
      "inputs": [],
      "name": "firstWindow",
      "outputs": [
        {
          "internalType": "uint256",
          "name": "",
          "type": "uint256"
        }
      ],
      "stateMutability": "view",
      "type": "function"
    },
    {
      "inputs": [
        {
          "internalType": "uint256",
          "name": "windowNumber",
          "type": "uint256"
        }
      ],
      "name": "getPoolValues",
      "outputs": [
        {
          "internalType": "uint256",
          "name": "",
          "type": "uint256"
        },
        {
          "internalType": "uint256",
          "name": "",
          "type": "uint256"
        }
      ],
      "stateMutability": "view",
      "type": "function"
    },
    {
      "inputs": [
        {
          "internalType": "address",
          "name": "user",
          "type": "address"
        },
        {
          "internalType": "uint256",
          "name": "index",
          "type": "uint256"
        }
      ],
      "name": "getUserBetList",
      "outputs": [
        {
          "internalType": "uint256",
          "name": "",
          "type": "uint256"
        }
      ],
      "stateMutability": "view",
      "type": "function"
    },
    {
      "inputs": [
        {
          "internalType": "uint256",
          "name": "windowNumber",
          "type": "uint256"
        },
        {
          "internalType": "address",
          "name": "user",
          "type": "address"
        }
      ],
      "name": "getUserStake",
      "outputs": [
        {
          "internalType": "uint256",
          "name": "",
          "type": "uint256"
        },
        {
          "internalType": "uint256",
          "name": "",
          "type": "uint256"
        }
      ],
      "stateMutability": "view",
      "type": "function"
    },
    {
      "inputs": [
        {
          "internalType": "uint256",
          "name": "window",
          "type": "uint256"
        }
      ],
      "name": "getWindowBetPrices",
      "outputs": [
        {
          "internalType": "uint256",
          "name": "",
          "type": "uint256"
        },
        {
          "internalType": "uint256",
          "name": "",
          "type": "uint256"
        }
      ],
      "stateMutability": "view",
      "type": "function"
    },
    {
      "inputs": [
        {
          "internalType": "uint256",
          "name": "currentBlock",
          "type": "uint256"
        },
        {
          "internalType": "uint256",
          "name": "_windowDuration",
          "type": "uint256"
        },
        {
          "internalType": "uint256",
          "name": "_firstBlock",
          "type": "uint256"
        },
        {
          "internalType": "uint256",
          "name": "_windowOffset",
          "type": "uint256"
        },
        {
          "internalType": "uint256",
          "name": "_firstWindow",
          "type": "uint256"
        }
      ],
      "name": "getWindowNumber",
      "outputs": [
        {
          "internalType": "uint256",
          "name": "windowNumber",
          "type": "uint256"
        }
      ],
      "stateMutability": "pure",
      "type": "function"
    },
    {
      "inputs": [
        {
          "internalType": "uint256",
          "name": "windowNumber",
          "type": "uint256"
        },
        {
          "internalType": "uint256",
          "name": "_windowDuration",
          "type": "uint256"
        },
        {
          "internalType": "uint256",
          "name": "_firstBlock",
          "type": "uint256"
        },
        {
          "internalType": "uint256",
          "name": "_windowOffset",
          "type": "uint256"
        }
      ],
      "name": "getWindowStartingBlock",
      "outputs": [
        {
          "internalType": "uint256",
          "name": "startingBlock",
          "type": "uint256"
        }
      ],
      "stateMutability": "pure",
      "type": "function"
    },
    {
      "inputs": [],
      "name": "owner",
      "outputs": [
        {
          "internalType": "address",
          "name": "",
          "type": "address"
        }
      ],
      "stateMutability": "view",
      "type": "function"
    },
    {
      "inputs": [
        {
          "internalType": "uint8",
          "name": "side",
          "type": "uint8"
        }
      ],
      "name": "placeBet",
      "outputs": [],
      "stateMutability": "payable",
      "type": "function"
    },
    {
      "inputs": [
        {
          "internalType": "uint256",
          "name": "",
          "type": "uint256"
        }
      ],
      "name": "pools",
      "outputs": [
        {
          "internalType": "uint256",
          "name": "downValue",
          "type": "uint256"
        },
        {
          "internalType": "uint256",
          "name": "upValue",
          "type": "uint256"
        }
      ],
      "stateMutability": "view",
      "type": "function"
    },
    {
      "inputs": [],
      "name": "renounceOwnership",
      "outputs": [],
      "stateMutability": "nonpayable",
      "type": "function"
    },
    {
      "inputs": [
        {
          "internalType": "uint256",
          "name": "upStake",
          "type": "uint256"
        },
        {
          "internalType": "uint256",
          "name": "downStake",
          "type": "uint256"
        },
        {
          "internalType": "uint256",
          "name": "poolUp",
          "type": "uint256"
        },
        {
          "internalType": "uint256",
          "name": "poolDown",
          "type": "uint256"
        },
        {
          "internalType": "uint8",
          "name": "res",
          "type": "uint8"
        }
      ],
      "name": "settleBet",
      "outputs": [
        {
          "internalType": "uint256",
          "name": "gain",
          "type": "uint256"
        },
        {
          "internalType": "uint256",
          "name": "fees",
          "type": "uint256"
        }
      ],
      "stateMutability": "pure",
      "type": "function"
    },
    {
      "inputs": [
        {
          "internalType": "address",
          "name": "newOwner",
          "type": "address"
        }
      ],
      "name": "transferOwnership",
      "outputs": [],
      "stateMutability": "nonpayable",
      "type": "function"
    },
    {
      "inputs": [
        {
          "internalType": "address",
          "name": "user",
          "type": "address"
        }
      ],
      "name": "updateBalance",
      "outputs": [],
      "stateMutability": "nonpayable",
      "type": "function"
    },
    {
      "inputs": [
        {
          "internalType": "uint256",
          "name": "downValue",
          "type": "uint256"
        },
        {
          "internalType": "uint256",
          "name": "upValue",
          "type": "uint256"
        },
        {
          "internalType": "uint8",
          "name": "side",
          "type": "uint8"
        },
        {
          "internalType": "uint256",
          "name": "value",
          "type": "uint256"
        }
      ],
      "name": "updatePool",
      "outputs": [
        {
          "internalType": "uint256",
          "name": "",
          "type": "uint256"
        },
        {
          "internalType": "uint256",
          "name": "",
          "type": "uint256"
        }
      ],
      "stateMutability": "pure",
      "type": "function"
    },
    {
      "inputs": [],
      "name": "updatePrice",
      "outputs": [],
      "stateMutability": "nonpayable",
      "type": "function"
    },
    {
      "inputs": [
        {
          "internalType": "address",
          "name": "",
          "type": "address"
        },
        {
          "internalType": "uint256",
          "name": "",
          "type": "uint256"
        }
      ],
      "name": "userBets",
      "outputs": [
        {
          "internalType": "uint256",
          "name": "",
          "type": "uint256"
        }
      ],
      "stateMutability": "view",
      "type": "function"
    },
    {
      "inputs": [
        {
          "internalType": "address",
          "name": "",
          "type": "address"
        },
        {
          "internalType": "uint256",
          "name": "",
          "type": "uint256"
        }
      ],
      "name": "userStake",
      "outputs": [
        {
          "internalType": "uint256",
          "name": "downValue",
          "type": "uint256"
        },
        {
          "internalType": "uint256",
          "name": "upValue",
          "type": "uint256"
        }
      ],
      "stateMutability": "view",
      "type": "function"
    },
    {
      "inputs": [],
      "name": "windowDuration",
      "outputs": [
        {
          "internalType": "uint256",
          "name": "",
          "type": "uint256"
        }
      ],
      "stateMutability": "view",
      "type": "function"
    },
    {
      "inputs": [],
      "name": "windowOffset",
      "outputs": [
        {
          "internalType": "uint256",
          "name": "",
          "type": "uint256"
        }
      ],
      "stateMutability": "view",
      "type": "function"
    },
    {
      "inputs": [
        {
          "internalType": "uint256",
          "name": "",
          "type": "uint256"
        }
      ],
      "name": "windowPrice",
      "outputs": [
        {
          "internalType": "uint256",
          "name": "",
          "type": "uint256"
        }
      ],
      "stateMutability": "view",
      "type": "function"
    },
    {
      "inputs": [
        {
          "internalType": "uint256",
          "name": "window",
          "type": "uint256"
        },
        {
          "internalType": "uint256",
          "name": "currentWindow",
          "type": "uint256"
        },
        {
          "internalType": "uint256",
          "name": "initialPrice",
          "type": "uint256"
        },
        {
          "internalType": "uint256",
          "name": "finalPrice",
          "type": "uint256"
        }
      ],
      "name": "windowStatus",
      "outputs": [
        {
          "internalType": "enum BinaryBet.WindowStatus",
          "name": "status",
          "type": "uint8"
        }
      ],
      "stateMutability": "pure",
      "type": "function"
    }
  ],
  "bytecode": "0x60a06040526001600a553480156200001657600080fd5b50604051620030aa380380620030aa83398181016040528101906200003c9190620002d1565b6200005c62000050620001d760201b60201c565b620001df60201b60201c565b60648511156200006b57600080fd5b83600160006101000a81548173ffffffffffffffffffffffffffffffffffffffff021916908373ffffffffffffffffffffffffffffffffffffffff1602179055504360048190555085600381905550846002819055506001600a8190555082600660006101000a81548173ffffffffffffffffffffffffffffffffffffffff021916908373ffffffffffffffffffffffffffffffffffffffff160217905550600660009054906101000a900473ffffffffffffffffffffffffffffffffffffffff16600560006101000a81548173ffffffffffffffffffffffffffffffffffffffff021916908373ffffffffffffffffffffffffffffffffffffffff16021790555081600760006101000a81548173ffffffffffffffffffffffffffffffffffffffff021916908373ffffffffffffffffffffffffffffffffffffffff160217905550670de0b6b3a764000081620001c4919062000367565b6080818152505050505050505062000469565b600033905090565b60008060009054906101000a900473ffffffffffffffffffffffffffffffffffffffff169050816000806101000a81548173ffffffffffffffffffffffffffffffffffffffff021916908373ffffffffffffffffffffffffffffffffffffffff1602179055508173ffffffffffffffffffffffffffffffffffffffff168173ffffffffffffffffffffffffffffffffffffffff167f8be0079c531659141344cd1fd0a4f28419497f9722a3daafe3b4186f6b6457e060405160405180910390a35050565b600081519050620002b48162000435565b92915050565b600081519050620002cb816200044f565b92915050565b60008060008060008060c08789031215620002eb57600080fd5b6000620002fb89828a01620002ba565b96505060206200030e89828a01620002ba565b95505060406200032189828a01620002a3565b94505060606200033489828a01620002a3565b93505060806200034789828a01620002a3565b92505060a06200035a89828a01620002ba565b9150509295509295509295565b60006200037482620003fc565b91506200038183620003fc565b9250817fffffffffffffffffffffffffffffffffffffffffffffffffffffffffffffffff0483118215151615620003bd57620003bc62000406565b5b828202905092915050565b6000620003d582620003dc565b9050919050565b600073ffffffffffffffffffffffffffffffffffffffff82169050919050565b6000819050919050565b7f4e487b7100000000000000000000000000000000000000000000000000000000600052601160045260246000fd5b6200044081620003c8565b81146200044c57600080fd5b50565b6200045a81620003fc565b81146200046657600080fd5b50565b608051612c1e6200048c600039600081816114f901526119e50152612c1e6000f3fe6080604052600436106101d85760003560e01c80638096266811610102578063ca055e5311610095578063e0d65d8711610064578063e0d65d8714610741578063f2fde38b1461077e578063f52818f0146107a7578063f83b35fb146107d0576101d8565b8063ca055e5314610670578063daaac9d2146106ae578063ddca3f43146106eb578063e0a5cee314610716576101d8565b80639626a230116100d15780639626a2301461057a578063ac4afa38146105b8578063b134894e146105f6578063b47a356614610633576101d8565b806380962668146104aa578063849cd1c7146104d557806389b808a7146105125780638da5cb5b1461054f576101d8565b8063430468441161017a578063673a7e2811610149578063673a7e2814610414578063715018a61461042b57806371a42207146104425780638068aa681461046d576101d8565b80634304684414610365578063576fe42f14610381578063587f5ed7146103be5780635c11ff7a146103e9576101d8565b8063231b0268116101b6578063231b0268146102965780632ff284c2146102c15780633937ea4f146102fe57806340b8405a1461033c576101d8565b80630ed6ca29146101dd5780630eff4d881461021b5780631bb5abf914610259575b600080fd5b3480156101e957600080fd5b5061020460048036038101906101ff91906124e1565b61080e565b604051610212929190612866565b60405180910390f35b34801561022757600080fd5b50610242600480360381019061023d91906122c6565b6108fd565b604051610250929190612866565b60405180910390f35b34801561026557600080fd5b50610280600480360381019061027b9190612354565b61094a565b60405161028d91906128b8565b60405180910390f35b3480156102a257600080fd5b506102ab610979565b6040516102b8919061284b565b60405180910390f35b3480156102cd57600080fd5b506102e860048036038101906102e39190612354565b61097f565b6040516102f5919061284b565b60405180910390f35b34801561030a57600080fd5b5061032560048036038101906103209190612261565b6109a1565b604051610333929190612866565b60405180910390f35b34801561034857600080fd5b50610363600480360381019061035e9190612238565b6109d2565b005b61037f600480360381019061037a9190612544565b610fab565b005b34801561038d57600080fd5b506103a860048036038101906103a391906123f3565b611374565b6040516103b5919061284b565b60405180910390f35b3480156103ca57600080fd5b506103d36113c0565b6040516103e0919061284b565b60405180910390f35b3480156103f557600080fd5b506103fe6113c6565b60405161040b919061284b565b60405180910390f35b34801561042057600080fd5b506104296113cc565b005b34801561043757600080fd5b5061044061146f565b005b34801561044e57600080fd5b506104576114f7565b604051610464919061284b565b60405180910390f35b34801561047957600080fd5b50610494600480360381019061048f9190612261565b61151b565b6040516104a1919061284b565b60405180910390f35b3480156104b657600080fd5b506104bf61154c565b6040516104cc919061284b565b60405180910390f35b3480156104e157600080fd5b506104fc60048036038101906104f79190612390565b611552565b604051610509919061284b565b60405180910390f35b34801561051e57600080fd5b5061053960048036038101906105349190612238565b61158c565b604051610546919061284b565b60405180910390f35b34801561055b57600080fd5b506105646115d8565b604051610571919061276c565b60405180910390f35b34801561058657600080fd5b506105a1600480360381019061059c9190612318565b611601565b6040516105af929190612866565b60405180910390f35b3480156105c457600080fd5b506105df60048036038101906105da91906122c6565b61168d565b6040516105ed929190612866565b60405180910390f35b34801561060257600080fd5b5061061d60048036038101906106189190612390565b6116b1565b60405161062a91906127b0565b60405180910390f35b34801561063f57600080fd5b5061065a60048036038101906106559190612261565b611723565b604051610667919061284b565b60405180910390f35b34801561067c57600080fd5b506106976004803603810190610692919061246a565b6117af565b6040516106a5929190612866565b60405180910390f35b3480156106ba57600080fd5b506106d560048036038101906106d09190612390565b6119de565b6040516106e2919061284b565b60405180910390f35b3480156106f757600080fd5b50610700611a2b565b60405161070d919061284b565b60405180910390f35b34801561072257600080fd5b5061072b611a31565b604051610738919061284b565b60405180910390f35b34801561074d57600080fd5b50610768600480360381019061076391906122c6565b611a37565b604051610775919061284b565b60405180910390f35b34801561078a57600080fd5b506107a560048036038101906107a09190612238565b611a4f565b005b3480156107b357600080fd5b506107ce60048036038101906107c991906122c6565b611b47565b005b3480156107dc57600080fd5b506107f760048036038101906107f291906122c6565b611c5c565b604051610805929190612866565b60405180910390f35b60008060008460ff16600181111561084f577f4e487b7100000000000000000000000000000000000000000000000000000000600052602160045260246000fd5b90506000600181111561088b577f4e487b7100000000000000000000000000000000000000000000000000000000600052602160045260246000fd5b8160018111156108c4577f4e487b7100000000000000000000000000000000000000000000000000000000600052602160045260246000fd5b14156108e15783876108d691906128e4565b8692509250506108f4565b8684876108ee91906128e4565b92509250505b94509492505050565b600080600060086000858152602001908152602001600020604051806040016040529081600082015481526020016001820154815250509050806000015181602001519250925050915091565b60008282101561095d5760009050610973565b8282111561096e5760019050610973565b600290505b92915050565b60045481565b60006064828461098f919061296b565b610999919061293a565b905092915050565b600d602052816000526040600020602052806000526040600020600091509150508060000154908060010154905082565b6000600e60008373ffffffffffffffffffffffffffffffffffffffff1673ffffffffffffffffffffffffffffffffffffffff1681526020019081526020016000209050600081805490501415610a285750610fa8565b600080828054905090505b6000811115610f5457600083600183610a4c91906129c5565b81548110610a83577f4e487b7100000000000000000000000000000000000000000000000000000000600052603260045260246000fd5b906000526020600020015490506000610aa743600354600454600b54600a54611374565b9050600080610ab584611c5c565b915091506000610ac7858585856116b1565b905060006003811115610b03577f4e487b7100000000000000000000000000000000000000000000000000000000600052602160045260246000fd5b816003811115610b3c577f4e487b7100000000000000000000000000000000000000000000000000000000600052602160045260246000fd5b1480610bb8575060016003811115610b7d577f4e487b7100000000000000000000000000000000000000000000000000000000600052602160045260246000fd5b816003811115610bb6577f4e487b7100000000000000000000000000000000000000000000000000000000600052602160045260246000fd5b145b15610bc7575050505050610f41565b6000600380811115610c02577f4e487b7100000000000000000000000000000000000000000000000000000000600052602160045260246000fd5b826003811115610c3b577f4e487b7100000000000000000000000000000000000000000000000000000000600052602160045260246000fd5b1415610c5257610c4b848461094a565b9050610cd1565b60026003811115610c8c577f4e487b7100000000000000000000000000000000000000000000000000000000600052602160045260246000fd5b826003811115610cc5577f4e487b7100000000000000000000000000000000000000000000000000000000600052602160045260246000fd5b1415610cd057600290505b5b8860018a80549050610ce391906129c5565b81548110610d1a577f4e487b7100000000000000000000000000000000000000000000000000000000600052603260045260246000fd5b906000526020600020015489600189610d3391906129c5565b81548110610d6a577f4e487b7100000000000000000000000000000000000000000000000000000000600052603260045260246000fd5b906000526020600020018190555088805480610daf577f4e487b7100000000000000000000000000000000000000000000000000000000600052603160045260246000fd5b600190038181906000526020600020016000905590556000600d60008c73ffffffffffffffffffffffffffffffffffffffff1673ffffffffffffffffffffffffffffffffffffffff1681526020019081526020016000206000888152602001908152602001600020604051806040016040529081600082015481526020016001820154815250509050600060086000898152602001908152602001600020604051806040016040529081600082015481526020016001820154815250509050600080610e8e8460200151856000015185602001518660000151896117af565b91509150818c610e9e91906128e4565b9b5080600c54610eae91906128e4565b600c819055506000610ed285602001518660000151866020015187600001516119de565b9050610ede8f82611ca8565b610ee6611f6d565b8e73ffffffffffffffffffffffffffffffffffffffff168b7f1a82fd78981b9465af4b8bd67f27607df5d873b7a978cc8cee1a65b85c2990fc85604051610f2d919061284b565b60405180910390a350505050505050505050505b8080610f4c90612a93565b915050610a33565b5060008110610fa5578273ffffffffffffffffffffffffffffffffffffffff166108fc829081150290604051600060405180830381858888f19350505050158015610fa3573d6000803e3d6000fd5b505b50505b50565b60003411610fee576040517f08c379a0000000000000000000000000000000000000000000000000000000008152600401610fe5906127cb565b60405180910390fd5b610ff66113cc565b610fff336109d2565b600061100d3460025461097f565b905080600c5461101d91906128e4565b600c819055506000813461103191906129c5565b9050600061104a43600354600454600b54600a54611374565b9050600f60003373ffffffffffffffffffffffffffffffffffffffff1673ffffffffffffffffffffffffffffffffffffffff168152602001908152602001600020600082815260200190815260200160002060009054906101000a900460ff1661117e57600e60003373ffffffffffffffffffffffffffffffffffffffff1673ffffffffffffffffffffffffffffffffffffffff1681526020019081526020016000208190806001815401808255809150506001900390600052602060002001600090919091909150556001600f60003373ffffffffffffffffffffffffffffffffffffffff1673ffffffffffffffffffffffffffffffffffffffff168152602001908152602001600020600083815260200190815260200160002060006101000a81548160ff0219169083151502179055505b6000600860008381526020019081526020016000206040518060400160405290816000820154815260200160018201548152505090506000806111cb83600001518460200151898861080e565b915091506040518060400160405280838152602001828152506008600086815260200190815260200160002060008201518160000155602082015181600101559050506000600d60003373ffffffffffffffffffffffffffffffffffffffff1673ffffffffffffffffffffffffffffffffffffffff1681526020019081526020016000206000868152602001908152602001600020604051806040016040529081600082015481526020016001820154815250509050611295816000015182602001518a8961080e565b8093508194505050604051806040016040528084815260200183815250600d60003373ffffffffffffffffffffffffffffffffffffffff1673ffffffffffffffffffffffffffffffffffffffff16815260200190815260200160002060008781526020019081526020016000206000820151816000015560208201518160010155905050843373ffffffffffffffffffffffffffffffffffffffff167f560e32e4934b84f33b228f40ddc5b9fa690426ee087005a7d979d7921d24a02b888b60405161136292919061288f565b60405180910390a35050505050505050565b600083861015611386578190506113b7565b60018386868961139691906129c5565b6113a0919061293a565b6113aa91906128e4565b6113b491906128e4565b90505b95945050505050565b600c5481565b60035481565b60006113e343600354600454600b54600a54611374565b905060006009600083815260200190815260200160002054141561146c57611409612007565b6009600083815260200190815260200160002081905550807f7a3325b9d11ddc18edd3dff130141b6ce951061520c6b933a604bf701f3d80526009600084815260200190815260200160002054604051611463919061284b565b60405180910390a25b50565b6114776120b7565b73ffffffffffffffffffffffffffffffffffffffff166114956115d8565b73ffffffffffffffffffffffffffffffffffffffff16146114eb576040517f08c379a00000000000000000000000000000000000000000000000000000000081526004016114e29061280b565b60405180910390fd5b6114f560006120bf565b565b7f000000000000000000000000000000000000000000000000000000000000000081565b600e602052816000526040600020818154811061153757600080fd5b90600052602060002001600091509150505481565b600b5481565b6000838260018761156391906129c5565b61156d91906129c5565b611577919061296b565b8361158291906128e4565b9050949350505050565b6000600e60008373ffffffffffffffffffffffffffffffffffffffff1673ffffffffffffffffffffffffffffffffffffffff168152602001908152602001600020805490509050919050565b60008060009054906101000a900473ffffffffffffffffffffffffffffffffffffffff16905090565b6000806000600d60008573ffffffffffffffffffffffffffffffffffffffff1673ffffffffffffffffffffffffffffffffffffffff16815260200190815260200160002060008681526020019081526020016000206040518060400160405290816000820154815260200160018201548152505090508060000151816020015192509250509250929050565b60086020528060005260406000206000915090508060000154908060010154905082565b60006002856116c091906128e4565b8410156116d0576000905061171b565b6003856116dd91906128e4565b841080156116eb5750600082145b156116f9576001905061171b565b60008314806117085750600082145b15611716576002905061171b565b600390505b949350505050565b6000600e60008473ffffffffffffffffffffffffffffffffffffffff1673ffffffffffffffffffffffffffffffffffffffff168152602001908152602001600020828154811061179c577f4e487b7100000000000000000000000000000000000000000000000000000000600052603260045260246000fd5b9060005260206000200154905092915050565b60008060008360ff1660028111156117f0577f4e487b7100000000000000000000000000000000000000000000000000000000600052602160045260246000fd5b90506000858761180091906128e4565b90506001600281111561183c577f4e487b7100000000000000000000000000000000000000000000000000000000600052602160045260246000fd5b826002811115611875577f4e487b7100000000000000000000000000000000000000000000000000000000600052602160045260246000fd5b148015611883575060008714155b1561189a57611893818a89612183565b93506119d2565b600060028111156118d4577f4e487b7100000000000000000000000000000000000000000000000000000000600052602160045260246000fd5b82600281111561190d577f4e487b7100000000000000000000000000000000000000000000000000000000600052602160045260246000fd5b14801561191b575060008614155b156119325761192b818988612183565b93506119d1565b60028081111561196b577f4e487b7100000000000000000000000000000000000000000000000000000000600052602160045260246000fd5b8260028111156119a4577f4e487b7100000000000000000000000000000000000000000000000000000000600052602160045260246000fd5b14156119bd5787896119b691906128e4565b93506119d0565b6000935087896119cd91906128e4565b92505b5b5b50509550959350505050565b6000611a217f00000000000000000000000000000000000000000000000000000000000000008587611a1091906128e4565b8486611a1c91906128e4565b612183565b9050949350505050565b60025481565b600a5481565b60096020528060005260406000206000915090505481565b611a576120b7565b73ffffffffffffffffffffffffffffffffffffffff16611a756115d8565b73ffffffffffffffffffffffffffffffffffffffff1614611acb576040517f08c379a0000000000000000000000000000000000000000000000000000000008152600401611ac29061280b565b60405180910390fd5b600073ffffffffffffffffffffffffffffffffffffffff168173ffffffffffffffffffffffffffffffffffffffff161415611b3b576040517f08c379a0000000000000000000000000000000000000000000000000000000008152600401611b32906127eb565b60405180910390fd5b611b44816120bf565b50565b611b4f6120b7565b73ffffffffffffffffffffffffffffffffffffffff16611b6d6115d8565b73ffffffffffffffffffffffffffffffffffffffff1614611bc3576040517f08c379a0000000000000000000000000000000000000000000000000000000008152600401611bba9061280b565b60405180910390fd5b60008111611c06576040517f08c379a0000000000000000000000000000000000000000000000000000000008152600401611bfd9061282b565b60405180910390fd5b6000611c1d43600354600454600b54600a54611374565b9050611c3d600182611c2f91906128e4565b600354600454600b54611552565b60048190555080600b8190555080600a81905550816003819055505050565b60008060096000600185611c7091906128e4565b81526020019081526020016000205460096000600286611c9091906128e4565b81526020019081526020016000205491509150915091565b80600760009054906101000a900473ffffffffffffffffffffffffffffffffffffffff1673ffffffffffffffffffffffffffffffffffffffff166370a08231306040518263ffffffff1660e01b8152600401611d04919061276c565b60206040518083038186803b158015611d1c57600080fd5b505afa158015611d30573d6000803e3d6000fd5b505050506040513d601f19601f82011682018060405250810190611d5491906122ef565b10611e0e57600760009054906101000a900473ffffffffffffffffffffffffffffffffffffffff1673ffffffffffffffffffffffffffffffffffffffff1663a9059cbb83836040518363ffffffff1660e01b8152600401611db6929190612787565b602060405180830381600087803b158015611dd057600080fd5b505af1158015611de4573d6000803e3d6000fd5b505050506040513d601f19601f82011682018060405250810190611e08919061229d565b50611f69565b600760009054906101000a900473ffffffffffffffffffffffffffffffffffffffff1673ffffffffffffffffffffffffffffffffffffffff1663a9059cbb83600760009054906101000a900473ffffffffffffffffffffffffffffffffffffffff1673ffffffffffffffffffffffffffffffffffffffff166370a08231306040518263ffffffff1660e01b8152600401611ea8919061276c565b60206040518083038186803b158015611ec057600080fd5b505afa158015611ed4573d6000803e3d6000fd5b505050506040513d601f19601f82011682018060405250810190611ef891906122ef565b6040518363ffffffff1660e01b8152600401611f15929190612787565b602060405180830381600087803b158015611f2f57600080fd5b505af1158015611f43573d6000803e3d6000fd5b505050506040513d601f19601f82011682018060405250810190611f67919061229d565b505b5050565b6000600c54111561200557600560009054906101000a900473ffffffffffffffffffffffffffffffffffffffff1673ffffffffffffffffffffffffffffffffffffffff16625c33e1600c546040518263ffffffff1660e01b81526004016000604051808303818588803b158015611fe357600080fd5b505af1158015611ff7573d6000803e3d6000fd5b50505050506000600c819055505b565b600080600160009054906101000a900473ffffffffffffffffffffffffffffffffffffffff1673ffffffffffffffffffffffffffffffffffffffff1663feaf968c6040518163ffffffff1660e01b815260040160a06040518083038186803b15801561207257600080fd5b505afa158015612086573d6000803e3d6000fd5b505050506040513d601f19601f820116820180604052508101906120aa919061256d565b5050509150508091505090565b600033905090565b60008060009054906101000a900473ffffffffffffffffffffffffffffffffffffffff169050816000806101000a81548173ffffffffffffffffffffffffffffffffffffffff021916908373ffffffffffffffffffffffffffffffffffffffff1602179055508173ffffffffffffffffffffffffffffffffffffffff168173ffffffffffffffffffffffffffffffffffffffff167f8be0079c531659141344cd1fd0a4f28419497f9722a3daafe3b4186f6b6457e060405160405180910390a35050565b6000818484612192919061296b565b61219c919061293a565b90509392505050565b6000813590506121b481612b5e565b92915050565b6000815190506121c981612b75565b92915050565b6000815190506121de81612b8c565b92915050565b6000813590506121f381612ba3565b92915050565b60008151905061220881612ba3565b92915050565b60008135905061221d81612bba565b92915050565b60008151905061223281612bd1565b92915050565b60006020828403121561224a57600080fd5b6000612258848285016121a5565b91505092915050565b6000806040838503121561227457600080fd5b6000612282858286016121a5565b9250506020612293858286016121e4565b9150509250929050565b6000602082840312156122af57600080fd5b60006122bd848285016121ba565b91505092915050565b6000602082840312156122d857600080fd5b60006122e6848285016121e4565b91505092915050565b60006020828403121561230157600080fd5b600061230f848285016121f9565b91505092915050565b6000806040838503121561232b57600080fd5b6000612339858286016121e4565b925050602061234a858286016121a5565b9150509250929050565b6000806040838503121561236757600080fd5b6000612375858286016121e4565b9250506020612386858286016121e4565b9150509250929050565b600080600080608085870312156123a657600080fd5b60006123b4878288016121e4565b94505060206123c5878288016121e4565b93505060406123d6878288016121e4565b92505060606123e7878288016121e4565b91505092959194509250565b600080600080600060a0868803121561240b57600080fd5b6000612419888289016121e4565b955050602061242a888289016121e4565b945050604061243b888289016121e4565b935050606061244c888289016121e4565b925050608061245d888289016121e4565b9150509295509295909350565b600080600080600060a0868803121561248257600080fd5b6000612490888289016121e4565b95505060206124a1888289016121e4565b94505060406124b2888289016121e4565b93505060606124c3888289016121e4565b92505060806124d48882890161220e565b9150509295509295909350565b600080600080608085870312156124f757600080fd5b6000612505878288016121e4565b9450506020612516878288016121e4565b93505060406125278782880161220e565b9250506060612538878288016121e4565b91505092959194509250565b60006020828403121561255657600080fd5b60006125648482850161220e565b91505092915050565b600080600080600060a0868803121561258557600080fd5b600061259388828901612223565b95505060206125a4888289016121cf565b94505060406125b5888289016121f9565b93505060606125c6888289016121f9565b92505060806125d788828901612223565b9150509295509295909350565b6125ed816129f9565b82525050565b6125fc81612a81565b82525050565b600061260f601d836128d3565b91507f4f6e6c79207374726963746c7920706f7369746976652076616c7565730000006000830152602082019050919050565b600061264f6026836128d3565b91507f4f776e61626c653a206e6577206f776e657220697320746865207a65726f206160008301527f64647265737300000000000000000000000000000000000000000000000000006020830152604082019050919050565b60006126b56020836128d3565b91507f4f776e61626c653a2063616c6c6572206973206e6f7420746865206f776e65726000830152602082019050919050565b60006126f56027836128d3565b91507f77696e646f772073697a652073686f756c64206265207374726963746c79207060008301527f6f736974697665000000000000000000000000000000000000000000000000006020830152604082019050919050565b61275781612a54565b82525050565b61276681612a5e565b82525050565b600060208201905061278160008301846125e4565b92915050565b600060408201905061279c60008301856125e4565b6127a9602083018461274e565b9392505050565b60006020820190506127c560008301846125f3565b92915050565b600060208201905081810360008301526127e481612602565b9050919050565b6000602082019050818103600083015261280481612642565b9050919050565b60006020820190508181036000830152612824816126a8565b9050919050565b60006020820190508181036000830152612844816126e8565b9050919050565b6000602082019050612860600083018461274e565b92915050565b600060408201905061287b600083018561274e565b612888602083018461274e565b9392505050565b60006040820190506128a4600083018561274e565b6128b1602083018461275d565b9392505050565b60006020820190506128cd600083018461275d565b92915050565b600082825260208201905092915050565b60006128ef82612a54565b91506128fa83612a54565b9250827fffffffffffffffffffffffffffffffffffffffffffffffffffffffffffffffff0382111561292f5761292e612abd565b5b828201905092915050565b600061294582612a54565b915061295083612a54565b9250826129605761295f612aec565b5b828204905092915050565b600061297682612a54565b915061298183612a54565b9250817fffffffffffffffffffffffffffffffffffffffffffffffffffffffffffffffff04831182151516156129ba576129b9612abd565b5b828202905092915050565b60006129d082612a54565b91506129db83612a54565b9250828210156129ee576129ed612abd565b5b828203905092915050565b6000612a0482612a34565b9050919050565b60008115159050919050565b6000819050612a2582612b4a565b919050565b6000819050919050565b600073ffffffffffffffffffffffffffffffffffffffff82169050919050565b6000819050919050565b600060ff82169050919050565b600069ffffffffffffffffffff82169050919050565b6000612a8c82612a17565b9050919050565b6000612a9e82612a54565b91506000821415612ab257612ab1612abd565b5b600182039050919050565b7f4e487b7100000000000000000000000000000000000000000000000000000000600052601160045260246000fd5b7f4e487b7100000000000000000000000000000000000000000000000000000000600052601260045260246000fd5b7f4e487b7100000000000000000000000000000000000000000000000000000000600052602160045260246000fd5b60048110612b5b57612b5a612b1b565b5b50565b612b67816129f9565b8114612b7257600080fd5b50565b612b7e81612a0b565b8114612b8957600080fd5b50565b612b9581612a2a565b8114612ba057600080fd5b50565b612bac81612a54565b8114612bb757600080fd5b50565b612bc381612a5e565b8114612bce57600080fd5b50565b612bda81612a6b565b8114612be557600080fd5b5056fea264697066735822122081237e6b319386ffe02c59ebeb685363212cfc117fa979ddc9361012d68c93ff64736f6c63430008000033",
  "linkReferences": {},
  "deployedLinkReferences": {}
}