{
  "_format": "hh-sol-artifact-1",
  "contractName": "BinaryBet",
  "sourceName": "contracts/BinaryBet.sol",
  "abi": [
    {
      "inputs": [
        {
          "internalType": "uint256",
          "name": "_windowDuration",
          "type": "uint256"
        },
        {
          "internalType": "uint256",
          "name": "_fee",
          "type": "uint256"
        },
        {
          "internalType": "address",
          "name": "aggregator",
          "type": "address"
        },
        {
          "internalType": "address",
          "name": "stakingContract",
          "type": "address"
        },
        {
          "internalType": "address",
          "name": "tokenContract",
          "type": "address"
        },
        {
          "internalType": "uint256",
          "name": "reward",
          "type": "uint256"
        }
      ],
      "stateMutability": "nonpayable",
      "type": "constructor"
    },
    {
      "anonymous": false,
      "inputs": [
        {
          "indexed": true,
          "internalType": "uint256",
          "name": "windowNumber",
          "type": "uint256"
        },
        {
          "indexed": true,
          "internalType": "address",
          "name": "user",
          "type": "address"
        },
        {
          "indexed": false,
          "internalType": "uint256",
          "name": "gain",
          "type": "uint256"
        }
      ],
      "name": "BetSettled",
      "type": "event"
    },
    {
      "anonymous": false,
      "inputs": [
        {
          "indexed": true,
          "internalType": "address",
          "name": "user",
          "type": "address"
        },
        {
          "indexed": true,
          "internalType": "uint256",
          "name": "windowNumber",
          "type": "uint256"
        },
        {
          "indexed": false,
          "internalType": "uint256",
          "name": "value",
          "type": "uint256"
        },
        {
          "indexed": false,
          "internalType": "uint8",
          "name": "side",
          "type": "uint8"
        }
      ],
      "name": "NewBet",
      "type": "event"
    },
    {
      "anonymous": false,
      "inputs": [
        {
          "indexed": true,
          "internalType": "address",
          "name": "previousOwner",
          "type": "address"
        },
        {
          "indexed": true,
          "internalType": "address",
          "name": "newOwner",
          "type": "address"
        }
      ],
      "name": "OwnershipTransferred",
      "type": "event"
    },
    {
      "anonymous": false,
      "inputs": [
        {
          "indexed": true,
          "internalType": "uint256",
          "name": "windowNumber",
          "type": "uint256"
        },
        {
          "indexed": false,
          "internalType": "uint256",
          "name": "price",
          "type": "uint256"
        }
      ],
      "name": "PriceUpdated",
      "type": "event"
    },
    {
      "inputs": [],
      "name": "REWARD_PER_WINDOW",
      "outputs": [
        {
          "internalType": "uint256",
          "name": "",
          "type": "uint256"
        }
      ],
      "stateMutability": "view",
      "type": "function"
    },
    {
      "inputs": [],
      "name": "accumulatedFees",
      "outputs": [
        {
          "internalType": "uint256",
          "name": "",
          "type": "uint256"
        }
      ],
      "stateMutability": "view",
      "type": "function"
    },
    {
      "inputs": [
        {
          "internalType": "address",
          "name": "_user",
          "type": "address"
        }
      ],
      "name": "betListLen",
      "outputs": [
        {
          "internalType": "uint256",
          "name": "",
          "type": "uint256"
        }
      ],
      "stateMutability": "view",
      "type": "function"
    },
    {
      "inputs": [
        {
          "internalType": "uint256",
          "name": "referencePrice",
          "type": "uint256"
        },
        {
          "internalType": "uint256",
          "name": "settlementPrice",
          "type": "uint256"
        }
      ],
      "name": "betResult",
      "outputs": [
        {
          "internalType": "uint8",
          "name": "",
          "type": "uint8"
        }
      ],
      "stateMutability": "pure",
      "type": "function"
    },
    {
      "inputs": [
        {
          "internalType": "uint256",
          "name": "upStake",
          "type": "uint256"
        },
        {
          "internalType": "uint256",
          "name": "downStake",
          "type": "uint256"
        },
        {
          "internalType": "uint256",
          "name": "poolUp",
          "type": "uint256"
        },
        {
          "internalType": "uint256",
          "name": "poolDown",
          "type": "uint256"
        }
      ],
      "name": "calculateTokenReward",
      "outputs": [
        {
          "internalType": "uint256",
          "name": "",
          "type": "uint256"
        }
      ],
      "stateMutability": "view",
      "type": "function"
    },
    {
      "inputs": [
        {
          "internalType": "uint256",
          "name": "windowSize",
          "type": "uint256"
        }
      ],
      "name": "changeWindowSize",
      "outputs": [],
      "stateMutability": "nonpayable",
      "type": "function"
    },
    {
      "inputs": [
        {
          "internalType": "uint256",
          "name": "value",
          "type": "uint256"
        },
        {
          "internalType": "uint256",
          "name": "_fee",
          "type": "uint256"
        }
      ],
      "name": "computeFee",
      "outputs": [
        {
          "internalType": "uint256",
          "name": "betFee",
          "type": "uint256"
        }
      ],
      "stateMutability": "pure",
      "type": "function"
    },
    {
      "inputs": [],
      "name": "fee",
      "outputs": [
        {
          "internalType": "uint256",
          "name": "",
          "type": "uint256"
        }
      ],
      "stateMutability": "view",
      "type": "function"
    },
    {
      "inputs": [],
      "name": "firstBlock",
      "outputs": [
        {
          "internalType": "uint256",
          "name": "",
          "type": "uint256"
        }
      ],
      "stateMutability": "view",
      "type": "function"
    },
    {
      "inputs": [],
      "name": "firstWindow",
      "outputs": [
        {
          "internalType": "uint256",
          "name": "",
          "type": "uint256"
        }
      ],
      "stateMutability": "view",
      "type": "function"
    },
    {
      "inputs": [
        {
          "internalType": "uint256",
          "name": "windowNumber",
          "type": "uint256"
        }
      ],
      "name": "getPoolValues",
      "outputs": [
        {
          "internalType": "uint256",
          "name": "",
          "type": "uint256"
        },
        {
          "internalType": "uint256",
          "name": "",
          "type": "uint256"
        }
      ],
      "stateMutability": "view",
      "type": "function"
    },
    {
      "inputs": [
        {
          "internalType": "address",
          "name": "_user",
          "type": "address"
        },
        {
          "internalType": "uint256",
          "name": "index",
          "type": "uint256"
        }
      ],
      "name": "getUserBetList",
      "outputs": [
        {
          "internalType": "uint256",
          "name": "",
          "type": "uint256"
        }
      ],
      "stateMutability": "view",
      "type": "function"
    },
    {
      "inputs": [
        {
          "internalType": "uint256",
          "name": "windowNumber",
          "type": "uint256"
        },
        {
          "internalType": "address",
          "name": "_user",
          "type": "address"
        }
      ],
      "name": "getUserStake",
      "outputs": [
        {
          "internalType": "uint256",
          "name": "",
          "type": "uint256"
        },
        {
          "internalType": "uint256",
          "name": "",
          "type": "uint256"
        }
      ],
      "stateMutability": "view",
      "type": "function"
    },
    {
      "inputs": [
        {
          "internalType": "uint256",
          "name": "window",
          "type": "uint256"
        }
      ],
      "name": "getWindowBetPrices",
      "outputs": [
        {
          "internalType": "uint256",
          "name": "",
          "type": "uint256"
        },
        {
          "internalType": "uint256",
          "name": "",
          "type": "uint256"
        }
      ],
      "stateMutability": "view",
      "type": "function"
    },
    {
      "inputs": [
        {
          "internalType": "uint256",
          "name": "currentBlock",
          "type": "uint256"
        },
        {
          "internalType": "uint256",
          "name": "_windowDuration",
          "type": "uint256"
        },
        {
          "internalType": "uint256",
          "name": "_firstBlock",
          "type": "uint256"
        },
        {
          "internalType": "uint256",
          "name": "_windowOffset",
          "type": "uint256"
        },
        {
          "internalType": "uint256",
          "name": "_firstWindow",
          "type": "uint256"
        }
      ],
      "name": "getWindowNumber",
      "outputs": [
        {
          "internalType": "uint256",
          "name": "windowNumber",
          "type": "uint256"
        }
      ],
      "stateMutability": "pure",
      "type": "function"
    },
    {
      "inputs": [
        {
          "internalType": "uint256",
          "name": "windowNumber",
          "type": "uint256"
        },
        {
          "internalType": "uint256",
          "name": "_windowDuration",
          "type": "uint256"
        },
        {
          "internalType": "uint256",
          "name": "_firstBlock",
          "type": "uint256"
        },
        {
          "internalType": "uint256",
          "name": "_windowOffset",
          "type": "uint256"
        }
      ],
      "name": "getWindowStartingBlock",
      "outputs": [
        {
          "internalType": "uint256",
          "name": "startingBlock",
          "type": "uint256"
        }
      ],
      "stateMutability": "pure",
      "type": "function"
    },
    {
      "inputs": [],
      "name": "owner",
      "outputs": [
        {
          "internalType": "address",
          "name": "",
          "type": "address"
        }
      ],
      "stateMutability": "view",
      "type": "function"
    },
    {
      "inputs": [
        {
          "internalType": "uint8",
          "name": "side",
          "type": "uint8"
        }
      ],
      "name": "placeBet",
      "outputs": [],
      "stateMutability": "payable",
      "type": "function"
    },
    {
      "inputs": [
        {
          "internalType": "uint256",
          "name": "",
          "type": "uint256"
        }
      ],
      "name": "pools",
      "outputs": [
        {
          "internalType": "uint64",
          "name": "downValue",
          "type": "uint64"
        },
        {
          "internalType": "uint64",
          "name": "upValue",
          "type": "uint64"
        }
      ],
      "stateMutability": "view",
      "type": "function"
    },
    {
      "inputs": [],
      "name": "renounceOwnership",
      "outputs": [],
      "stateMutability": "nonpayable",
      "type": "function"
    },
    {
      "inputs": [
        {
          "internalType": "uint256",
          "name": "upStake",
          "type": "uint256"
        },
        {
          "internalType": "uint256",
          "name": "downStake",
          "type": "uint256"
        },
        {
          "internalType": "uint256",
          "name": "poolUp",
          "type": "uint256"
        },
        {
          "internalType": "uint256",
          "name": "poolDown",
          "type": "uint256"
        },
        {
          "internalType": "uint8",
          "name": "res",
          "type": "uint8"
        }
      ],
      "name": "settleBet",
      "outputs": [
        {
          "internalType": "uint256",
          "name": "gain",
          "type": "uint256"
        },
        {
          "internalType": "uint256",
          "name": "fees",
          "type": "uint256"
        }
      ],
      "stateMutability": "pure",
      "type": "function"
    },
    {
      "inputs": [
        {
          "internalType": "address",
          "name": "newOwner",
          "type": "address"
        }
      ],
      "name": "transferOwnership",
      "outputs": [],
      "stateMutability": "nonpayable",
      "type": "function"
    },
    {
      "inputs": [
        {
          "internalType": "address",
          "name": "_user",
          "type": "address"
        }
      ],
      "name": "updateBalance",
      "outputs": [],
      "stateMutability": "nonpayable",
      "type": "function"
    },
    {
      "inputs": [],
      "name": "updatePrice",
      "outputs": [],
      "stateMutability": "nonpayable",
      "type": "function"
    },
    {
      "inputs": [],
      "name": "windowDuration",
      "outputs": [
        {
          "internalType": "uint256",
          "name": "",
          "type": "uint256"
        }
      ],
      "stateMutability": "view",
      "type": "function"
    },
    {
      "inputs": [],
      "name": "windowOffset",
      "outputs": [
        {
          "internalType": "uint256",
          "name": "",
          "type": "uint256"
        }
      ],
      "stateMutability": "view",
      "type": "function"
    },
    {
      "inputs": [
        {
          "internalType": "uint256",
          "name": "",
          "type": "uint256"
        }
      ],
      "name": "windowPrice",
      "outputs": [
        {
          "internalType": "uint256",
          "name": "",
          "type": "uint256"
        }
      ],
      "stateMutability": "view",
      "type": "function"
    },
    {
      "inputs": [
        {
          "internalType": "uint256",
          "name": "window",
          "type": "uint256"
        },
        {
          "internalType": "uint256",
          "name": "currentWindow",
          "type": "uint256"
        },
        {
          "internalType": "uint256",
          "name": "initialPrice",
          "type": "uint256"
        },
        {
          "internalType": "uint256",
          "name": "finalPrice",
          "type": "uint256"
        }
      ],
      "name": "windowStatus",
      "outputs": [
        {
          "internalType": "enum BinaryBet.WindowStatus",
          "name": "status",
          "type": "uint8"
        }
      ],
      "stateMutability": "pure",
      "type": "function"
    }
  ],
  "bytecode": "0x60a06040526001600b553480156200001657600080fd5b5060405162001b2638038062001b26833981016040819052620000399162000141565b6200004433620000d4565b60648511156200005357600080fd5b600180546001600160a01b038087166001600160a01b03199283161783554360085560098990556007889055600b9290925560048054868416908316811790915560038054831690911790556002805492851692909116919091179055620000c481670de0b6b3a7640000620001a7565b60805250620001d5945050505050565b600080546001600160a01b038381166001600160a01b0319831681178455604051919092169283917f8be0079c531659141344cd1fd0a4f28419497f9722a3daafe3b4186f6b6457e09190a35050565b80516001600160a01b03811681146200013c57600080fd5b919050565b60008060008060008060c087890312156200015b57600080fd5b8651955060208701519450620001746040880162000124565b9350620001846060880162000124565b9250620001946080880162000124565b915060a087015190509295509295509295565b6000816000190483118215151615620001d057634e487b7160e01b600052601160045260246000fd5b500290565b60805161192e620001f8600039600081816103660152610f93015261192e6000f3fe6080604052600436106101b75760003560e01c806389b808a7116100ec578063daaac9d21161008a578063e0d65d8711610064578063e0d65d87146105af578063f2fde38b146105dc578063f52818f0146105fc578063f83b35fb1461061c57600080fd5b8063daaac9d214610563578063ddca3f4314610583578063e0a5cee31461059957600080fd5b8063ac4afa38116100c6578063ac4afa381461048e578063b134894e146104f6578063b47a356614610523578063ca055e531461054357600080fd5b806389b808a7146103be5780638da5cb5b146103f75780639626a2301461041f57600080fd5b8063587f5ed711610159578063715018a611610133578063715018a61461033f57806371a42207146103545780638096266814610388578063849cd1c71461039e57600080fd5b8063587f5ed7146102fe5780635c11ff7a14610314578063673a7e281461032a57600080fd5b80632ff284c2116101955780632ff284c21461028957806340b8405a146102a957806343046844146102cb578063576fe42f146102de57600080fd5b80630eff4d88146101bc5780631bb5abf914610233578063231b026814610265575b600080fd5b3480156101c857600080fd5b506102196101d7366004611582565b60009081526005602090815260409182902082518084019093525467ffffffffffffffff80821680855268010000000000000000909204169290910182905291565b604080519283526020830191909152015b60405180910390f35b34801561023f57600080fd5b5061025361024e36600461159b565b61063c565b60405160ff909116815260200161022a565b34801561027157600080fd5b5061027b60085481565b60405190815260200161022a565b34801561029557600080fd5b5061027b6102a436600461159b565b610668565b3480156102b557600080fd5b506102c96102c43660046115d9565b610687565b005b6102c96102d9366004611605565b6109cb565b3480156102ea57600080fd5b5061027b6102f9366004611620565b610cb6565b34801561030a57600080fd5b5061027b60065481565b34801561032057600080fd5b5061027b60095481565b34801561033657600080fd5b506102c9610cfe565b34801561034b57600080fd5b506102c9610d83565b34801561036057600080fd5b5061027b7f000000000000000000000000000000000000000000000000000000000000000081565b34801561039457600080fd5b5061027b600c5481565b3480156103aa57600080fd5b5061027b6103b936600461165b565b610de9565b3480156103ca57600080fd5b5061027b6103d93660046115d9565b6001600160a01b03166000908152600d602052604090206001015490565b34801561040357600080fd5b506000546040516001600160a01b03909116815260200161022a565b34801561042b57600080fd5b5061021961043a36600461168d565b6001600160a01b03166000908152600d602090815260408083209383529281529082902082518084019093525467ffffffffffffffff80821680855268010000000000000000909204169290910182905291565b34801561049a57600080fd5b506104d56104a9366004611582565b60056020526000908152604090205467ffffffffffffffff808216916801000000000000000090041682565b6040805167ffffffffffffffff93841681529290911660208301520161022a565b34801561050257600080fd5b5061051661051136600461165b565b610e16565b60405161022a91906116cf565b34801561052f57600080fd5b5061027b61053e3660046116f7565b610e7a565b34801561054f57600080fd5b5061021961055e366004611721565b610eba565b34801561056f57600080fd5b5061027b61057e36600461165b565b610f8c565b34801561058f57600080fd5b5061027b60075481565b3480156105a557600080fd5b5061027b600b5481565b3480156105bb57600080fd5b5061027b6105ca366004611582565b600a6020526000908152604090205481565b3480156105e857600080fd5b506102c96105f73660046115d9565b610fcb565b34801561060857600080fd5b506102c9610617366004611582565b6110aa565b34801561062857600080fd5b50610219610637366004611582565b6111bf565b60008282101561064e57506000610662565b8282111561065e57506001610662565b5060025b92915050565b600060646106768385611780565b610680919061179f565b9392505050565b6001600160a01b0381166000908152600d6020526040902060018101546106ac575050565b60018101546000905b801561098d576000836001016001836106ce91906117c1565b815481106106de576106de6117d8565b90600052602060002001549050600061070243600954600854600c54600b54610cb6565b9050600080610710846111bf565b91509150600061072285858585610e16565b90506000816003811115610738576107386116b9565b148061075557506001816003811115610753576107536116b9565b145b1561076457505050505061097b565b6000600382600381111561077a5761077a6116b9565b14156107915761078a848461063c565b90506107af565b60028260038111156107a5576107a56116b9565b14156107af575060025b6001808a01805490916107c1916117c1565b815481106107d1576107d16117d8565b9060005260206000200154896001016001896107ed91906117c1565b815481106107fd576107fd6117d8565b6000918252602090912001556001890180548061081c5761081c6117ee565b6000828152602080822083016000199081018390559092019092558782528a8152604080832081518083018352905467ffffffffffffffff8082168352680100000000000000009182900481168386019081528c87526005865284872085518087019096525480831680875293900482169585018690525183519396949585946108ac9492841693169189610eba565b90925090506108bb828d611804565b9b50806006546108cb9190611804565b6006819055506000610917856020015167ffffffffffffffff16866000015167ffffffffffffffff16866020015167ffffffffffffffff16876000015167ffffffffffffffff16610f8c565b90506109238f82611208565b61092b6113f6565b8e6001600160a01b03168b7f6f277b50171c654e40c771d9c2bbf19e070eeb21cce6f8e9a80334564279e3958560405161096791815260200190565b60405180910390a350505050505050505050505b806109858161181c565b9150506106b5565b506040516001600160a01b0384169082156108fc029083906000818181858888f193505050501580156109c4573d6000803e3d6000fd5b505b505050565b60003411610a205760405162461bcd60e51b815260206004820152601d60248201527f4f6e6c79207374726963746c7920706f7369746976652076616c75657300000060448201526064015b60405180910390fd5b610a28610cfe565b610a3133610687565b6000610a3f34600754610668565b905080600654610a4f9190611804565b6006556000610a5e82346117c1565b90506000610a7743600954600854600c54600b54610cb6565b336000908152600d602052604090206001810154919250901580610ac75750600180820180549091610aa8916117c1565b81548110610ab857610ab86117d8565b90600052602060002001548214155b15610ae657600180820180549182018155600090815260209020018290555b60018560ff166001811115610afd57610afd6116b9565b6001811115610b0e57610b0e6116b9565b1415610bd55760008281526020829052604090208054849190600890610b4b90849068010000000000000000900467ffffffffffffffff16611833565b92506101000a81548167ffffffffffffffff021916908367ffffffffffffffff160217905550826005600084815260200190815260200160002060000160088282829054906101000a900467ffffffffffffffff16610baa9190611833565b92506101000a81548167ffffffffffffffff021916908367ffffffffffffffff160217905550610c66565b60008281526020829052604081208054859290610bfd90849067ffffffffffffffff16611833565b82546101009290920a67ffffffffffffffff818102199093169183160217909155600084815260056020526040812080548794509092610c3f91859116611833565b92506101000a81548167ffffffffffffffff021916908367ffffffffffffffff1602179055505b6040805167ffffffffffffffff8516815260ff87166020820152839133917f85ff162f60a0eab11e1e0d3d9cfa18a46d7038a29751af4130dbaeeadbd37ed4910160405180910390a35050505050565b600083861015610cc7575080610cf5565b8285610cd386896117c1565b610cdd919061179f565b610ce79190611804565b610cf2906001611804565b90505b95945050505050565b6000610d1543600954600854600c54600b54610cb6565b6000818152600a6020526040902054909150610d8057610d3361146f565b6000828152600a6020526040908190208290555182917f945c1c4e99aa89f648fbfe3df471b916f719e16d960fcec0737d4d56bd69683891610d7791815260200190565b60405180910390a25b50565b6000546001600160a01b03163314610ddd5760405162461bcd60e51b815260206004820181905260248201527f4f776e61626c653a2063616c6c6572206973206e6f7420746865206f776e65726044820152606401610a17565b610de76000611503565b565b60008382610df86001886117c1565b610e0291906117c1565b610e0c9190611780565b610cf59084611804565b6000610e23856002611804565b841015610e3257506000610e72565b610e3d856003611804565b84108015610e49575081155b15610e5657506001610e72565b821580610e61575081155b15610e6e57506002610e72565b5060035b949350505050565b6001600160a01b0382166000908152600d60205260408120600101805483908110610ea757610ea76117d8565b9060005260206000200154905092915050565b60008060008360ff166002811115610ed457610ed46116b9565b90506000610ee28688611804565b90506001826002811115610ef857610ef86116b9565b148015610f0457508615155b15610f1b57610f14818a8961156b565b9350610f80565b6000826002811115610f2f57610f2f6116b9565b148015610f3b57508515155b15610f4b57610f1481898861156b565b6002826002811115610f5f57610f5f6116b9565b1415610f6f57610f14888a611804565b60009350610f7d888a611804565b92505b50509550959350505050565b6000610cf57f0000000000000000000000000000000000000000000000000000000000000000610fbc8688611804565b610fc68587611804565b61156b565b6000546001600160a01b031633146110255760405162461bcd60e51b815260206004820181905260248201527f4f776e61626c653a2063616c6c6572206973206e6f7420746865206f776e65726044820152606401610a17565b6001600160a01b0381166110a15760405162461bcd60e51b815260206004820152602660248201527f4f776e61626c653a206e6577206f776e657220697320746865207a65726f206160448201527f64647265737300000000000000000000000000000000000000000000000000006064820152608401610a17565b610d8081611503565b6000546001600160a01b031633146111045760405162461bcd60e51b815260206004820181905260248201527f4f776e61626c653a2063616c6c6572206973206e6f7420746865206f776e65726044820152606401610a17565b6000811161117a5760405162461bcd60e51b815260206004820152602760248201527f77696e646f772073697a652073686f756c64206265207374726963746c79207060448201527f6f736974697665000000000000000000000000000000000000000000000000006064820152608401610a17565b600061119143600954600854600c54600b54610cb6565b90506111af6111a1826001611804565b600954600854600c54610de9565b600855600c819055600b55600955565b600080600a816111d0856001611804565b815260200190815260200160002054600a60008560026111f09190611804565b81526020019081526020016000205491509150915091565b6002546040516370a0823160e01b815230600482015282916001600160a01b0316906370a082319060240160206040518083038186803b15801561124b57600080fd5b505afa15801561125f573d6000803e3d6000fd5b505050506040513d601f19601f82011682018060405250810190611283919061185f565b10611328576002546040517fa9059cbb0000000000000000000000000000000000000000000000000000000081526001600160a01b038481166004830152602482018490529091169063a9059cbb906044015b602060405180830381600087803b1580156112f057600080fd5b505af1158015611304573d6000803e3d6000fd5b505050506040513d601f19601f820116820180604052508101906109c69190611878565b6002546040516370a0823160e01b81523060048201526001600160a01b039091169063a9059cbb90849083906370a082319060240160206040518083038186803b15801561137557600080fd5b505afa158015611389573d6000803e3d6000fd5b505050506040513d601f19601f820116820180604052508101906113ad919061185f565b6040517fffffffff0000000000000000000000000000000000000000000000000000000060e085901b1681526001600160a01b03909216600483015260248201526044016112d6565b60065415610de757600360009054906101000a90046001600160a01b03166001600160a01b0316625c33e16006546040518263ffffffff1660e01b81526004016000604051808303818588803b15801561144f57600080fd5b505af1158015611463573d6000803e3d6000fd5b50506000600655505050565b600080600160009054906101000a90046001600160a01b03166001600160a01b031663feaf968c6040518163ffffffff1660e01b815260040160a06040518083038186803b1580156114c057600080fd5b505afa1580156114d4573d6000803e3d6000fd5b505050506040513d601f19601f820116820180604052508101906114f891906118b4565b509195945050505050565b600080546001600160a01b038381167fffffffffffffffffffffffff0000000000000000000000000000000000000000831681178455604051919092169283917f8be0079c531659141344cd1fd0a4f28419497f9722a3daafe3b4186f6b6457e09190a35050565b6000816115788585611780565b610e72919061179f565b60006020828403121561159457600080fd5b5035919050565b600080604083850312156115ae57600080fd5b50508035926020909101359150565b80356001600160a01b03811681146115d457600080fd5b919050565b6000602082840312156115eb57600080fd5b610680826115bd565b803560ff811681146115d457600080fd5b60006020828403121561161757600080fd5b610680826115f4565b600080600080600060a0868803121561163857600080fd5b505083359560208501359550604085013594606081013594506080013592509050565b6000806000806080858703121561167157600080fd5b5050823594602084013594506040840135936060013592509050565b600080604083850312156116a057600080fd5b823591506116b0602084016115bd565b90509250929050565b634e487b7160e01b600052602160045260246000fd5b60208101600483106116f157634e487b7160e01b600052602160045260246000fd5b91905290565b6000806040838503121561170a57600080fd5b611713836115bd565b946020939093013593505050565b600080600080600060a0868803121561173957600080fd5b8535945060208601359350604086013592506060860135915061175e608087016115f4565b90509295509295909350565b634e487b7160e01b600052601160045260246000fd5b600081600019048311821515161561179a5761179a61176a565b500290565b6000826117bc57634e487b7160e01b600052601260045260246000fd5b500490565b6000828210156117d3576117d361176a565b500390565b634e487b7160e01b600052603260045260246000fd5b634e487b7160e01b600052603160045260246000fd5b600082198211156118175761181761176a565b500190565b60008161182b5761182b61176a565b506000190190565b600067ffffffffffffffff8083168185168083038211156118565761185661176a565b01949350505050565b60006020828403121561187157600080fd5b5051919050565b60006020828403121561188a57600080fd5b8151801515811461068057600080fd5b805169ffffffffffffffffffff811681146115d457600080fd5b600080600080600060a086880312156118cc57600080fd5b6118d58661189a565b945060208601519350604086015192506060860151915061175e6080870161189a56fea264697066735822122055bd25cb8b9a1ce425658c1110462445a88453b180a8195ccd2f233c2e878b0564736f6c63430008080033",
  "linkReferences": {},
  "deployedLinkReferences": {}
}