{
  "_format": "hh-sol-artifact-1",
  "contractName": "BinaryBet",
  "sourceName": "contracts/BinaryBet.sol",
  "abi": [
    {
      "inputs": [
        {
          "internalType": "uint256",
          "name": "_windowDuration",
          "type": "uint256"
        },
        {
          "internalType": "uint256",
          "name": "_fee",
          "type": "uint256"
        },
        {
          "internalType": "address",
          "name": "aggregator",
          "type": "address"
        },
        {
          "internalType": "address",
          "name": "stakingContract",
          "type": "address"
        },
        {
          "internalType": "address",
          "name": "tokenContract",
          "type": "address"
        },
        {
          "internalType": "uint256",
          "name": "reward",
          "type": "uint256"
        }
      ],
      "stateMutability": "nonpayable",
      "type": "constructor"
    },
    {
      "anonymous": false,
      "inputs": [
        {
          "indexed": true,
          "internalType": "uint256",
          "name": "windowNumber",
          "type": "uint256"
        },
        {
          "indexed": true,
          "internalType": "address",
          "name": "user",
          "type": "address"
        },
        {
          "indexed": false,
          "internalType": "uint256",
          "name": "gain",
          "type": "uint256"
        }
      ],
      "name": "BetSettled",
      "type": "event"
    },
    {
      "anonymous": false,
      "inputs": [
        {
          "indexed": true,
          "internalType": "address",
          "name": "user",
          "type": "address"
        },
        {
          "indexed": true,
          "internalType": "uint256",
          "name": "windowNumber",
          "type": "uint256"
        },
        {
          "indexed": false,
          "internalType": "uint256",
          "name": "value",
          "type": "uint256"
        },
        {
          "indexed": false,
          "internalType": "uint8",
          "name": "side",
          "type": "uint8"
        }
      ],
      "name": "NewBet",
      "type": "event"
    },
    {
      "anonymous": false,
      "inputs": [
        {
          "indexed": true,
          "internalType": "uint256",
          "name": "windowNumber",
          "type": "uint256"
        },
        {
          "indexed": false,
          "internalType": "uint256",
          "name": "price",
          "type": "uint256"
        }
      ],
      "name": "PriceUpdated",
      "type": "event"
    },
    {
      "inputs": [],
      "name": "REWARD_PER_WINDOW",
      "outputs": [
        {
          "internalType": "uint256",
          "name": "",
          "type": "uint256"
        }
      ],
      "stateMutability": "view",
      "type": "function"
    },
    {
      "inputs": [],
      "name": "accumulatedFees",
      "outputs": [
        {
          "internalType": "uint256",
          "name": "",
          "type": "uint256"
        }
      ],
      "stateMutability": "view",
      "type": "function"
    },
    {
      "inputs": [
        {
          "internalType": "address",
          "name": "_user",
          "type": "address"
        }
      ],
      "name": "betListLen",
      "outputs": [
        {
          "internalType": "uint256",
          "name": "",
          "type": "uint256"
        }
      ],
      "stateMutability": "view",
      "type": "function"
    },
    {
      "inputs": [
        {
          "internalType": "uint256",
          "name": "referencePrice",
          "type": "uint256"
        },
        {
          "internalType": "uint256",
          "name": "settlementPrice",
          "type": "uint256"
        }
      ],
      "name": "betResult",
      "outputs": [
        {
          "internalType": "uint8",
          "name": "",
          "type": "uint8"
        }
      ],
      "stateMutability": "pure",
      "type": "function"
    },
    {
      "inputs": [
        {
          "internalType": "uint256",
          "name": "upStake",
          "type": "uint256"
        },
        {
          "internalType": "uint256",
          "name": "downStake",
          "type": "uint256"
        },
        {
          "internalType": "uint256",
          "name": "poolUp",
          "type": "uint256"
        },
        {
          "internalType": "uint256",
          "name": "poolDown",
          "type": "uint256"
        }
      ],
      "name": "calculateTokenReward",
      "outputs": [
        {
          "internalType": "uint256",
          "name": "",
          "type": "uint256"
        }
      ],
      "stateMutability": "view",
      "type": "function"
    },
    {
      "inputs": [
        {
          "internalType": "uint256",
          "name": "value",
          "type": "uint256"
        },
        {
          "internalType": "uint256",
          "name": "_fee",
          "type": "uint256"
        }
      ],
      "name": "computeFee",
      "outputs": [
        {
          "internalType": "uint256",
          "name": "betFee",
          "type": "uint256"
        }
      ],
      "stateMutability": "pure",
      "type": "function"
    },
    {
      "inputs": [],
      "name": "fee",
      "outputs": [
        {
          "internalType": "uint256",
          "name": "",
          "type": "uint256"
        }
      ],
      "stateMutability": "view",
      "type": "function"
    },
    {
      "inputs": [],
      "name": "firstBlock",
      "outputs": [
        {
          "internalType": "uint256",
          "name": "",
          "type": "uint256"
        }
      ],
      "stateMutability": "view",
      "type": "function"
    },
    {
      "inputs": [
        {
          "internalType": "uint256",
          "name": "windowNumber",
          "type": "uint256"
        }
      ],
      "name": "getPoolValues",
      "outputs": [
        {
          "internalType": "uint256",
          "name": "",
          "type": "uint256"
        },
        {
          "internalType": "uint256",
          "name": "",
          "type": "uint256"
        }
      ],
      "stateMutability": "view",
      "type": "function"
    },
    {
      "inputs": [
        {
          "internalType": "address",
          "name": "_user",
          "type": "address"
        },
        {
          "internalType": "uint256",
          "name": "index",
          "type": "uint256"
        }
      ],
      "name": "getUserBetList",
      "outputs": [
        {
          "internalType": "uint256",
          "name": "",
          "type": "uint256"
        }
      ],
      "stateMutability": "view",
      "type": "function"
    },
    {
      "inputs": [
        {
          "internalType": "uint256",
          "name": "windowNumber",
          "type": "uint256"
        },
        {
          "internalType": "address",
          "name": "_user",
          "type": "address"
        }
      ],
      "name": "getUserStake",
      "outputs": [
        {
          "internalType": "uint256",
          "name": "",
          "type": "uint256"
        },
        {
          "internalType": "uint256",
          "name": "",
          "type": "uint256"
        }
      ],
      "stateMutability": "view",
      "type": "function"
    },
    {
      "inputs": [
        {
          "internalType": "uint256",
          "name": "window",
          "type": "uint256"
        }
      ],
      "name": "getWindowBetPrices",
      "outputs": [
        {
          "internalType": "uint256",
          "name": "",
          "type": "uint256"
        },
        {
          "internalType": "uint256",
          "name": "",
          "type": "uint256"
        }
      ],
      "stateMutability": "view",
      "type": "function"
    },
    {
      "inputs": [
        {
          "internalType": "uint256",
          "name": "currentBlock",
          "type": "uint256"
        },
        {
          "internalType": "uint256",
          "name": "_windowDuration",
          "type": "uint256"
        },
        {
          "internalType": "uint256",
          "name": "_firstBlock",
          "type": "uint256"
        }
      ],
      "name": "getWindowNumber",
      "outputs": [
        {
          "internalType": "uint256",
          "name": "windowNumber",
          "type": "uint256"
        }
      ],
      "stateMutability": "pure",
      "type": "function"
    },
    {
      "inputs": [
        {
          "internalType": "uint256",
          "name": "windowNumber",
          "type": "uint256"
        },
        {
          "internalType": "uint256",
          "name": "_windowDuration",
          "type": "uint256"
        },
        {
          "internalType": "uint256",
          "name": "_firstBlock",
          "type": "uint256"
        }
      ],
      "name": "getWindowStartingBlock",
      "outputs": [
        {
          "internalType": "uint256",
          "name": "startingBlock",
          "type": "uint256"
        }
      ],
      "stateMutability": "pure",
      "type": "function"
    },
    {
      "inputs": [
        {
          "internalType": "uint8",
          "name": "side",
          "type": "uint8"
        }
      ],
      "name": "placeBet",
      "outputs": [],
      "stateMutability": "payable",
      "type": "function"
    },
    {
      "inputs": [
        {
          "internalType": "uint256",
          "name": "",
          "type": "uint256"
        }
      ],
      "name": "pools",
      "outputs": [
        {
          "internalType": "uint64",
          "name": "downValue",
          "type": "uint64"
        },
        {
          "internalType": "uint64",
          "name": "upValue",
          "type": "uint64"
        }
      ],
      "stateMutability": "view",
      "type": "function"
    },
    {
      "inputs": [
        {
          "internalType": "uint256",
          "name": "upStake",
          "type": "uint256"
        },
        {
          "internalType": "uint256",
          "name": "downStake",
          "type": "uint256"
        },
        {
          "internalType": "uint256",
          "name": "poolUp",
          "type": "uint256"
        },
        {
          "internalType": "uint256",
          "name": "poolDown",
          "type": "uint256"
        },
        {
          "internalType": "uint8",
          "name": "res",
          "type": "uint8"
        }
      ],
      "name": "settleBet",
      "outputs": [
        {
          "internalType": "uint256",
          "name": "gain",
          "type": "uint256"
        },
        {
          "internalType": "uint256",
          "name": "fees",
          "type": "uint256"
        }
      ],
      "stateMutability": "pure",
      "type": "function"
    },
    {
      "inputs": [
        {
          "internalType": "address",
          "name": "_user",
          "type": "address"
        }
      ],
      "name": "updateBalance",
      "outputs": [],
      "stateMutability": "nonpayable",
      "type": "function"
    },
    {
      "inputs": [],
      "name": "updatePrice",
      "outputs": [],
      "stateMutability": "nonpayable",
      "type": "function"
    },
    {
      "inputs": [],
      "name": "windowDuration",
      "outputs": [
        {
          "internalType": "uint256",
          "name": "",
          "type": "uint256"
        }
      ],
      "stateMutability": "view",
      "type": "function"
    },
    {
      "inputs": [
        {
          "internalType": "uint256",
          "name": "",
          "type": "uint256"
        }
      ],
      "name": "windowPrice",
      "outputs": [
        {
          "internalType": "uint256",
          "name": "",
          "type": "uint256"
        }
      ],
      "stateMutability": "view",
      "type": "function"
    },
    {
      "inputs": [
        {
          "internalType": "uint256",
          "name": "window",
          "type": "uint256"
        },
        {
          "internalType": "uint256",
          "name": "currentWindow",
          "type": "uint256"
        },
        {
          "internalType": "uint256",
          "name": "initialPrice",
          "type": "uint256"
        },
        {
          "internalType": "uint256",
          "name": "finalPrice",
          "type": "uint256"
        }
      ],
      "name": "windowStatus",
      "outputs": [
        {
          "internalType": "enum BinaryBet.WindowStatus",
          "name": "status",
          "type": "uint8"
        }
      ],
      "stateMutability": "pure",
      "type": "function"
    }
  ],
  "bytecode": "0x6101606040523480156200001257600080fd5b5060405162001913380380620019138339810160408190526200003591620000d2565b60648511156200004457600080fd5b600080546001600160a01b0386166001600160a01b031990911617905543610120526101408690526101008590526001600160601b0319606084811b821660c081905260a05283901b16608052620000a581670de0b6b3a764000062000138565b60e0525062000166945050505050565b80516001600160a01b0381168114620000cd57600080fd5b919050565b60008060008060008060c08789031215620000ec57600080fd5b86519550602087015194506200010560408801620000b5565b93506200011560608801620000b5565b92506200012560808801620000b5565b915060a087015190509295509295509295565b60008160001904831182151516156200016157634e487b7160e01b600052601160045260246000fd5b500290565b60805160601c60a05160601c60c05160601c60e0516101005161012051610140516117066200020d600039600081816103020152818161066401528181610a520152610d080152600081816102350152818161068501528181610a730152610d2901526000818161053c0152610a0501526000818161034b0152610f590152600050506000611236015260008181610ffa015281816110c0015261115701526117066000f3fe6080604052600436106101755760003560e01c806378f14be4116100cb578063b47a35661161007f578063ddca3f4311610059578063ddca3f431461052a578063e0d65d871461055e578063f83b35fb1461058b57600080fd5b8063b47a3566146104ca578063ca055e53146104ea578063daaac9d21461050a57600080fd5b80639626a230116100b05780639626a230146103c6578063ac4afa3814610435578063b134894e1461049d57600080fd5b806378f14be41461036d57806389b808a71461038d57600080fd5b8063430468441161012d5780635c11ff7a116101075780635c11ff7a146102f0578063673a7e281461032457806371a422071461033957600080fd5b806343046844146102a7578063508ba0bd146102ba578063587f5ed7146102da57600080fd5b8063231b02681161015e578063231b0268146102235780632ff284c21461026557806340b8405a1461028557600080fd5b80630eff4d881461017a5780631bb5abf9146101f1575b600080fd5b34801561018657600080fd5b506101d7610195366004611369565b60009081526001602090815260409182902082518084019093525467ffffffffffffffff80821680855268010000000000000000909204169290910182905291565b604080519283526020830191909152015b60405180910390f35b3480156101fd57600080fd5b5061021161020c366004611382565b6105ab565b60405160ff90911681526020016101e8565b34801561022f57600080fd5b506102577f000000000000000000000000000000000000000000000000000000000000000081565b6040519081526020016101e8565b34801561027157600080fd5b50610257610280366004611382565b6105d7565b34801561029157600080fd5b506102a56102a03660046113c0565b6105f6565b005b6102a56102b53660046113ec565b61097e565b3480156102c657600080fd5b506102576102d5366004611407565b610cd6565b3480156102e657600080fd5b5061025760025481565b3480156102fc57600080fd5b506102577f000000000000000000000000000000000000000000000000000000000000000081565b34801561033057600080fd5b506102a5610d00565b34801561034557600080fd5b506102577f000000000000000000000000000000000000000000000000000000000000000081565b34801561037957600080fd5b50610257610388366004611407565b610dbb565b34801561039957600080fd5b506102576103a83660046113c0565b6001600160a01b031660009081526004602052604090206001015490565b3480156103d257600080fd5b506101d76103e1366004611433565b6001600160a01b031660009081526004602090815260408083209383529281529082902082518084019093525467ffffffffffffffff80821680855268010000000000000000909204169290910182905291565b34801561044157600080fd5b5061047c610450366004611369565b60016020526000908152604090205467ffffffffffffffff808216916801000000000000000090041682565b6040805167ffffffffffffffff9384168152929091166020830152016101e8565b3480156104a957600080fd5b506104bd6104b836600461145f565b610ddd565b6040516101e891906114a7565b3480156104d657600080fd5b506102576104e53660046114cf565b610e40565b3480156104f657600080fd5b506101d76105053660046114f9565b610e80565b34801561051657600080fd5b5061025761052536600461145f565b610f52565b34801561053657600080fd5b506102577f000000000000000000000000000000000000000000000000000000000000000081565b34801561056a57600080fd5b50610257610579366004611369565b60036020526000908152604090205481565b34801561059757600080fd5b506101d76105a6366004611369565b610f9a565b6000828210156105bd575060006105d1565b828211156105cd575060016105d1565b5060025b92915050565b600060646105e58385611558565b6105ef9190611577565b9392505050565b6001600160a01b0381166000908152600460205260409020600181015461061b575050565b600181015460009081905b801561092e5760008460010160018361063f9190611599565b8154811061064f5761064f6115b0565b9060005260206000200154905060006106a9437f00000000000000000000000000000000000000000000000000000000000000007f0000000000000000000000000000000000000000000000000000000000000000610cd6565b90506000806106b784610f9a565b9150915060006106c985858585610ddd565b905060008160038111156106df576106df611491565b14806106fc575060018160038111156106fa576106fa611491565b145b1561070b57505050505061091c565b6000600382600381111561072157610721611491565b14156107385761073184846105ab565b9050610756565b600282600381111561074c5761074c611491565b1415610756575060025b6001808b018054909161076891611599565b81548110610778576107786115b0565b90600052602060002001548a6001016001896107949190611599565b815481106107a4576107a46115b0565b60009182526020909120015560018a018054806107c3576107c36115c6565b6000828152602080822083016000199081018390559092019092558782528b8152604080832081518083018352905467ffffffffffffffff8082168352680100000000000000009182900481168386019081528c87526001865284872085518087019096525480831680875293900482169585018690525183519396949585946108539492841693169189610e80565b9092509050610862828e6115dc565b9c508060025461087291906115dc565b60028190555060006108be856020015167ffffffffffffffff16866000015167ffffffffffffffff16866020015167ffffffffffffffff16876000015167ffffffffffffffff16610f52565b90506108ca818e6115dc565b9c508f6001600160a01b03168b7f6f277b50171c654e40c771d9c2bbf19e070eeb21cce6f8e9a80334564279e3958560405161090891815260200190565b60405180910390a350505050505050505050505b80610926816115f4565b915050610626565b506040516001600160a01b0385169083156108fc029084906000818181858888f19350505050158015610965573d6000803e3d6000fd5b506109708482610fe3565b61097861122c565b50505050565b600034116109ec576040517f08c379a000000000000000000000000000000000000000000000000000000000815260206004820152601d60248201527f4f6e6c79207374726963746c7920706f7369746976652076616c756573000000604482015260640160405180910390fd5b6109f4610d00565b6109fd336105f6565b6000610a29347f00000000000000000000000000000000000000000000000000000000000000006105d7565b905080600254610a3991906115dc565b6002556000610a488234611599565b90506000610a97437f00000000000000000000000000000000000000000000000000000000000000007f0000000000000000000000000000000000000000000000000000000000000000610cd6565b3360009081526004602052604090206001810154919250901580610ae75750600180820180549091610ac891611599565b81548110610ad857610ad86115b0565b90600052602060002001548214155b15610b0657600180820180549182018155600090815260209020018290555b60018560ff166001811115610b1d57610b1d611491565b6001811115610b2e57610b2e611491565b1415610bf55760008281526020829052604090208054849190600890610b6b90849068010000000000000000900467ffffffffffffffff1661160b565b92506101000a81548167ffffffffffffffff021916908367ffffffffffffffff160217905550826001600084815260200190815260200160002060000160088282829054906101000a900467ffffffffffffffff16610bca919061160b565b92506101000a81548167ffffffffffffffff021916908367ffffffffffffffff160217905550610c86565b60008281526020829052604081208054859290610c1d90849067ffffffffffffffff1661160b565b82546101009290920a67ffffffffffffffff818102199093169183160217909155600084815260016020526040812080548794509092610c5f9185911661160b565b92506101000a81548167ffffffffffffffff021916908367ffffffffffffffff1602179055505b6040805167ffffffffffffffff8516815260ff87166020820152839133917f85ff162f60a0eab11e1e0d3d9cfa18a46d7038a29751af4130dbaeeadbd37ed4910160405180910390a35050505050565b600082610ce38386611599565b610ced9190611577565b610cf89060016115dc565b949350505050565b6000610d4d437f00000000000000000000000000000000000000000000000000000000000000007f0000000000000000000000000000000000000000000000000000000000000000610cd6565b600081815260036020526040902054909150610db857610d6b6112b1565b600082815260036020526040908190208290555182917f945c1c4e99aa89f648fbfe3df471b916f719e16d960fcec0737d4d56bd69683891610daf91815260200190565b60405180910390a25b50565b600082610dc9600186611599565b610dd39190611558565b610cf890836115dc565b6000610dea8560026115dc565b841015610df957506000610cf8565b610e048560036115dc565b84108015610e10575081155b15610e1d57506001610cf8565b821580610e28575081155b15610e3557506002610cf8565b506003949350505050565b6001600160a01b0382166000908152600460205260408120600101805483908110610e6d57610e6d6115b0565b9060005260206000200154905092915050565b60008060008360ff166002811115610e9a57610e9a611491565b90506000610ea886886115dc565b90506001826002811115610ebe57610ebe611491565b148015610eca57508615155b15610ee157610eda818a89611352565b9350610f46565b6000826002811115610ef557610ef5611491565b148015610f0157508515155b15610f1157610eda818988611352565b6002826002811115610f2557610f25611491565b1415610f3557610eda888a6115dc565b60009350610f43888a6115dc565b92505b50509550959350505050565b6000610f917f0000000000000000000000000000000000000000000000000000000000000000610f8286886115dc565b610f8c85876115dc565b611352565b95945050505050565b600080600381610fab8560016115dc565b81526020019081526020016000205460036000856002610fcb91906115dc565b81526020019081526020016000205491509150915091565b6040516370a0823160e01b815230600482015281907f00000000000000000000000000000000000000000000000000000000000000006001600160a01b0316906370a082319060240160206040518083038186803b15801561104457600080fd5b505afa158015611058573d6000803e3d6000fd5b505050506040513d601f19601f8201168201806040525081019061107c9190611637565b10611142576040517fa9059cbb0000000000000000000000000000000000000000000000000000000081526001600160a01b038381166004830152602482018390527f0000000000000000000000000000000000000000000000000000000000000000169063a9059cbb906044015b602060405180830381600087803b15801561110557600080fd5b505af1158015611119573d6000803e3d6000fd5b505050506040513d601f19601f8201168201806040525081019061113d9190611650565b505050565b6040516370a0823160e01b81523060048201527f00000000000000000000000000000000000000000000000000000000000000006001600160a01b03169063a9059cbb90849083906370a082319060240160206040518083038186803b1580156111ab57600080fd5b505afa1580156111bf573d6000803e3d6000fd5b505050506040513d601f19601f820116820180604052508101906111e39190611637565b6040517fffffffff0000000000000000000000000000000000000000000000000000000060e085901b1681526001600160a01b03909216600483015260248201526044016110eb565b600254156112af577f00000000000000000000000000000000000000000000000000000000000000006001600160a01b0316625c33e16002546040518263ffffffff1660e01b81526004016000604051808303818588803b15801561129057600080fd5b505af11580156112a4573d6000803e3d6000fd5b505060006002555050505b565b60008054604080517ffeaf968c000000000000000000000000000000000000000000000000000000008152905183926001600160a01b03169163feaf968c9160048083019260a0929190829003018186803b15801561130f57600080fd5b505afa158015611323573d6000803e3d6000fd5b505050506040513d601f19601f82011682018060405250810190611347919061168c565b509195945050505050565b60008161135f8585611558565b610cf89190611577565b60006020828403121561137b57600080fd5b5035919050565b6000806040838503121561139557600080fd5b50508035926020909101359150565b80356001600160a01b03811681146113bb57600080fd5b919050565b6000602082840312156113d257600080fd5b6105ef826113a4565b803560ff811681146113bb57600080fd5b6000602082840312156113fe57600080fd5b6105ef826113db565b60008060006060848603121561141c57600080fd5b505081359360208301359350604090920135919050565b6000806040838503121561144657600080fd5b82359150611456602084016113a4565b90509250929050565b6000806000806080858703121561147557600080fd5b5050823594602084013594506040840135936060013592509050565b634e487b7160e01b600052602160045260246000fd5b60208101600483106114c957634e487b7160e01b600052602160045260246000fd5b91905290565b600080604083850312156114e257600080fd5b6114eb836113a4565b946020939093013593505050565b600080600080600060a0868803121561151157600080fd5b85359450602086013593506040860135925060608601359150611536608087016113db565b90509295509295909350565b634e487b7160e01b600052601160045260246000fd5b600081600019048311821515161561157257611572611542565b500290565b60008261159457634e487b7160e01b600052601260045260246000fd5b500490565b6000828210156115ab576115ab611542565b500390565b634e487b7160e01b600052603260045260246000fd5b634e487b7160e01b600052603160045260246000fd5b600082198211156115ef576115ef611542565b500190565b60008161160357611603611542565b506000190190565b600067ffffffffffffffff80831681851680830382111561162e5761162e611542565b01949350505050565b60006020828403121561164957600080fd5b5051919050565b60006020828403121561166257600080fd5b815180151581146105ef57600080fd5b805169ffffffffffffffffffff811681146113bb57600080fd5b600080600080600060a086880312156116a457600080fd5b6116ad86611672565b94506020860151935060408601519250606086015191506115366080870161167256fea26469706673582212201139ddc8dae3b6f378f5ca94e6e0a9c396fb4c40f34f03e5a7c243255dac9be964736f6c63430008080033",
  "linkReferences": {},
  "deployedLinkReferences": {}
}