{
  "_format": "hh-sol-artifact-1",
  "contractName": "BinaryBet",
  "sourceName": "contracts/BinaryBet.sol",
  "abi": [
    {
      "inputs": [
        {
          "internalType": "uint256",
          "name": "_windowDuration",
          "type": "uint256"
        },
        {
          "internalType": "uint256",
          "name": "_fee",
          "type": "uint256"
        },
        {
          "internalType": "address",
          "name": "aggregator",
          "type": "address"
        },
        {
          "internalType": "address",
          "name": "stakingContract",
          "type": "address"
        },
        {
          "internalType": "address",
          "name": "tokenContract",
          "type": "address"
        }
      ],
      "stateMutability": "nonpayable",
      "type": "constructor"
    },
    {
      "anonymous": false,
      "inputs": [
        {
          "indexed": true,
          "internalType": "address",
          "name": "previousOwner",
          "type": "address"
        },
        {
          "indexed": true,
          "internalType": "address",
          "name": "newOwner",
          "type": "address"
        }
      ],
      "name": "OwnershipTransferred",
      "type": "event"
    },
    {
      "anonymous": false,
      "inputs": [
        {
          "indexed": true,
          "internalType": "uint256",
          "name": "windowNumber",
          "type": "uint256"
        },
        {
          "indexed": true,
          "internalType": "address",
          "name": "user",
          "type": "address"
        },
        {
          "indexed": false,
          "internalType": "uint256",
          "name": "gain",
          "type": "uint256"
        }
      ],
      "name": "betSettled",
      "type": "event"
    },
    {
      "anonymous": false,
      "inputs": [
        {
          "indexed": true,
          "internalType": "address",
          "name": "user",
          "type": "address"
        },
        {
          "indexed": true,
          "internalType": "uint256",
          "name": "windowNumber",
          "type": "uint256"
        },
        {
          "indexed": false,
          "internalType": "uint256",
          "name": "value",
          "type": "uint256"
        },
        {
          "indexed": false,
          "internalType": "uint8",
          "name": "side",
          "type": "uint8"
        }
      ],
      "name": "newBet",
      "type": "event"
    },
    {
      "anonymous": false,
      "inputs": [
        {
          "indexed": true,
          "internalType": "uint256",
          "name": "windowNumber",
          "type": "uint256"
        },
        {
          "indexed": false,
          "internalType": "uint256",
          "name": "price",
          "type": "uint256"
        }
      ],
      "name": "priceUpdated",
      "type": "event"
    },
    {
      "inputs": [],
      "name": "REWARD_PER_WINDOW",
      "outputs": [
        {
          "internalType": "uint256",
          "name": "",
          "type": "uint256"
        }
      ],
      "stateMutability": "view",
      "type": "function"
    },
    {
      "inputs": [],
      "name": "accumulatedFees",
      "outputs": [
        {
          "internalType": "uint256",
          "name": "",
          "type": "uint256"
        }
      ],
      "stateMutability": "view",
      "type": "function"
    },
    {
      "inputs": [
        {
          "internalType": "address",
          "name": "user",
          "type": "address"
        }
      ],
      "name": "betListLen",
      "outputs": [
        {
          "internalType": "uint256",
          "name": "",
          "type": "uint256"
        }
      ],
      "stateMutability": "view",
      "type": "function"
    },
    {
      "inputs": [
        {
          "internalType": "uint256",
          "name": "referencePrice",
          "type": "uint256"
        },
        {
          "internalType": "uint256",
          "name": "settlementPrice",
          "type": "uint256"
        }
      ],
      "name": "betResult",
      "outputs": [
        {
          "internalType": "uint8",
          "name": "",
          "type": "uint8"
        }
      ],
      "stateMutability": "pure",
      "type": "function"
    },
    {
      "inputs": [
        {
          "internalType": "uint256",
          "name": "upStake",
          "type": "uint256"
        },
        {
          "internalType": "uint256",
          "name": "downStake",
          "type": "uint256"
        },
        {
          "internalType": "uint256",
          "name": "poolUp",
          "type": "uint256"
        },
        {
          "internalType": "uint256",
          "name": "poolDown",
          "type": "uint256"
        }
      ],
      "name": "calculateTokenReward",
      "outputs": [
        {
          "internalType": "uint256",
          "name": "",
          "type": "uint256"
        }
      ],
      "stateMutability": "pure",
      "type": "function"
    },
    {
      "inputs": [
        {
          "internalType": "uint256",
          "name": "windowSize",
          "type": "uint256"
        }
      ],
      "name": "changeWindowSize",
      "outputs": [],
      "stateMutability": "nonpayable",
      "type": "function"
    },
    {
      "inputs": [
        {
          "internalType": "uint256",
          "name": "value",
          "type": "uint256"
        },
        {
          "internalType": "uint256",
          "name": "_fee",
          "type": "uint256"
        }
      ],
      "name": "computeFee",
      "outputs": [
        {
          "internalType": "uint256",
          "name": "betFee",
          "type": "uint256"
        }
      ],
      "stateMutability": "pure",
      "type": "function"
    },
    {
      "inputs": [],
      "name": "fee",
      "outputs": [
        {
          "internalType": "uint256",
          "name": "",
          "type": "uint256"
        }
      ],
      "stateMutability": "view",
      "type": "function"
    },
    {
      "inputs": [],
      "name": "firstBlock",
      "outputs": [
        {
          "internalType": "uint256",
          "name": "",
          "type": "uint256"
        }
      ],
      "stateMutability": "view",
      "type": "function"
    },
    {
      "inputs": [],
      "name": "firstWindow",
      "outputs": [
        {
          "internalType": "uint256",
          "name": "",
          "type": "uint256"
        }
      ],
      "stateMutability": "view",
      "type": "function"
    },
    {
      "inputs": [
        {
          "internalType": "uint256",
          "name": "windowNumber",
          "type": "uint256"
        }
      ],
      "name": "getPoolValues",
      "outputs": [
        {
          "internalType": "uint256",
          "name": "",
          "type": "uint256"
        },
        {
          "internalType": "uint256",
          "name": "",
          "type": "uint256"
        }
      ],
      "stateMutability": "view",
      "type": "function"
    },
    {
      "inputs": [
        {
          "internalType": "address",
          "name": "user",
          "type": "address"
        },
        {
          "internalType": "uint256",
          "name": "index",
          "type": "uint256"
        }
      ],
      "name": "getUserBetList",
      "outputs": [
        {
          "internalType": "uint256",
          "name": "",
          "type": "uint256"
        }
      ],
      "stateMutability": "view",
      "type": "function"
    },
    {
      "inputs": [
        {
          "internalType": "uint256",
          "name": "windowNumber",
          "type": "uint256"
        },
        {
          "internalType": "address",
          "name": "user",
          "type": "address"
        }
      ],
      "name": "getUserStake",
      "outputs": [
        {
          "internalType": "uint256",
          "name": "",
          "type": "uint256"
        },
        {
          "internalType": "uint256",
          "name": "",
          "type": "uint256"
        }
      ],
      "stateMutability": "view",
      "type": "function"
    },
    {
      "inputs": [
        {
          "internalType": "uint256",
          "name": "window",
          "type": "uint256"
        }
      ],
      "name": "getWindowBetPrices",
      "outputs": [
        {
          "internalType": "uint256",
          "name": "",
          "type": "uint256"
        },
        {
          "internalType": "uint256",
          "name": "",
          "type": "uint256"
        }
      ],
      "stateMutability": "view",
      "type": "function"
    },
    {
      "inputs": [
        {
          "internalType": "uint256",
          "name": "currentBlock",
          "type": "uint256"
        },
        {
          "internalType": "uint256",
          "name": "_windowDuration",
          "type": "uint256"
        },
        {
          "internalType": "uint256",
          "name": "_firstBlock",
          "type": "uint256"
        },
        {
          "internalType": "uint256",
          "name": "_windowOffset",
          "type": "uint256"
        },
        {
          "internalType": "uint256",
          "name": "_firstWindow",
          "type": "uint256"
        }
      ],
      "name": "getWindowNumber",
      "outputs": [
        {
          "internalType": "uint256",
          "name": "windowNumber",
          "type": "uint256"
        }
      ],
      "stateMutability": "pure",
      "type": "function"
    },
    {
      "inputs": [
        {
          "internalType": "uint256",
          "name": "windowNumber",
          "type": "uint256"
        },
        {
          "internalType": "uint256",
          "name": "_windowDuration",
          "type": "uint256"
        },
        {
          "internalType": "uint256",
          "name": "_firstBlock",
          "type": "uint256"
        },
        {
          "internalType": "uint256",
          "name": "_windowOffset",
          "type": "uint256"
        }
      ],
      "name": "getWindowStartingBlock",
      "outputs": [
        {
          "internalType": "uint256",
          "name": "startingBlock",
          "type": "uint256"
        }
      ],
      "stateMutability": "pure",
      "type": "function"
    },
    {
      "inputs": [],
      "name": "owner",
      "outputs": [
        {
          "internalType": "address",
          "name": "",
          "type": "address"
        }
      ],
      "stateMutability": "view",
      "type": "function"
    },
    {
      "inputs": [
        {
          "internalType": "uint8",
          "name": "side",
          "type": "uint8"
        }
      ],
      "name": "placeBet",
      "outputs": [],
      "stateMutability": "payable",
      "type": "function"
    },
    {
      "inputs": [
        {
          "internalType": "uint256",
          "name": "",
          "type": "uint256"
        }
      ],
      "name": "pools",
      "outputs": [
        {
          "internalType": "uint256",
          "name": "downValue",
          "type": "uint256"
        },
        {
          "internalType": "uint256",
          "name": "upValue",
          "type": "uint256"
        }
      ],
      "stateMutability": "view",
      "type": "function"
    },
    {
      "inputs": [],
      "name": "renounceOwnership",
      "outputs": [],
      "stateMutability": "nonpayable",
      "type": "function"
    },
    {
      "inputs": [
        {
          "internalType": "uint256",
          "name": "upStake",
          "type": "uint256"
        },
        {
          "internalType": "uint256",
          "name": "downStake",
          "type": "uint256"
        },
        {
          "internalType": "uint256",
          "name": "poolUp",
          "type": "uint256"
        },
        {
          "internalType": "uint256",
          "name": "poolDown",
          "type": "uint256"
        },
        {
          "internalType": "uint8",
          "name": "res",
          "type": "uint8"
        }
      ],
      "name": "settleBet",
      "outputs": [
        {
          "internalType": "uint256",
          "name": "gain",
          "type": "uint256"
        },
        {
          "internalType": "uint256",
          "name": "fees",
          "type": "uint256"
        }
      ],
      "stateMutability": "pure",
      "type": "function"
    },
    {
      "inputs": [
        {
          "internalType": "address",
          "name": "newOwner",
          "type": "address"
        }
      ],
      "name": "transferOwnership",
      "outputs": [],
      "stateMutability": "nonpayable",
      "type": "function"
    },
    {
      "inputs": [
        {
          "internalType": "address",
          "name": "user",
          "type": "address"
        }
      ],
      "name": "updateBalance",
      "outputs": [],
      "stateMutability": "nonpayable",
      "type": "function"
    },
    {
      "inputs": [
        {
          "internalType": "uint256",
          "name": "downValue",
          "type": "uint256"
        },
        {
          "internalType": "uint256",
          "name": "upValue",
          "type": "uint256"
        },
        {
          "internalType": "uint8",
          "name": "side",
          "type": "uint8"
        },
        {
          "internalType": "uint256",
          "name": "value",
          "type": "uint256"
        }
      ],
      "name": "updatePool",
      "outputs": [
        {
          "internalType": "uint256",
          "name": "",
          "type": "uint256"
        },
        {
          "internalType": "uint256",
          "name": "",
          "type": "uint256"
        }
      ],
      "stateMutability": "pure",
      "type": "function"
    },
    {
      "inputs": [],
      "name": "updatePrice",
      "outputs": [],
      "stateMutability": "nonpayable",
      "type": "function"
    },
    {
      "inputs": [
        {
          "internalType": "address",
          "name": "",
          "type": "address"
        },
        {
          "internalType": "uint256",
          "name": "",
          "type": "uint256"
        }
      ],
      "name": "userBets",
      "outputs": [
        {
          "internalType": "uint256",
          "name": "",
          "type": "uint256"
        }
      ],
      "stateMutability": "view",
      "type": "function"
    },
    {
      "inputs": [
        {
          "internalType": "address",
          "name": "",
          "type": "address"
        },
        {
          "internalType": "uint256",
          "name": "",
          "type": "uint256"
        }
      ],
      "name": "userStake",
      "outputs": [
        {
          "internalType": "uint256",
          "name": "downValue",
          "type": "uint256"
        },
        {
          "internalType": "uint256",
          "name": "upValue",
          "type": "uint256"
        }
      ],
      "stateMutability": "view",
      "type": "function"
    },
    {
      "inputs": [],
      "name": "windowDuration",
      "outputs": [
        {
          "internalType": "uint256",
          "name": "",
          "type": "uint256"
        }
      ],
      "stateMutability": "view",
      "type": "function"
    },
    {
      "inputs": [],
      "name": "windowOffset",
      "outputs": [
        {
          "internalType": "uint256",
          "name": "",
          "type": "uint256"
        }
      ],
      "stateMutability": "view",
      "type": "function"
    },
    {
      "inputs": [
        {
          "internalType": "uint256",
          "name": "",
          "type": "uint256"
        }
      ],
      "name": "windowPrice",
      "outputs": [
        {
          "internalType": "uint256",
          "name": "",
          "type": "uint256"
        }
      ],
      "stateMutability": "view",
      "type": "function"
    }
  ],
  "bytecode": "0x60806040526001600a553480156200001657600080fd5b5060405162002cad38038062002cad83398181016040528101906200003c9190620002b3565b6200005c62000050620001b960201b60201c565b620001c160201b60201c565b60648411156200006b57600080fd5b82600160006101000a81548173ffffffffffffffffffffffffffffffffffffffff021916908373ffffffffffffffffffffffffffffffffffffffff1602179055504360048190555084600381905550836002819055506001600a8190555081600660006101000a81548173ffffffffffffffffffffffffffffffffffffffff021916908373ffffffffffffffffffffffffffffffffffffffff160217905550600660009054906101000a900473ffffffffffffffffffffffffffffffffffffffff16600560006101000a81548173ffffffffffffffffffffffffffffffffffffffff021916908373ffffffffffffffffffffffffffffffffffffffff16021790555080600760006101000a81548173ffffffffffffffffffffffffffffffffffffffff021916908373ffffffffffffffffffffffffffffffffffffffff1602179055505050505050620003a7565b600033905090565b60008060009054906101000a900473ffffffffffffffffffffffffffffffffffffffff169050816000806101000a81548173ffffffffffffffffffffffffffffffffffffffff021916908373ffffffffffffffffffffffffffffffffffffffff1602179055508173ffffffffffffffffffffffffffffffffffffffff168173ffffffffffffffffffffffffffffffffffffffff167f8be0079c531659141344cd1fd0a4f28419497f9722a3daafe3b4186f6b6457e060405160405180910390a35050565b600081519050620002968162000373565b92915050565b600081519050620002ad816200038d565b92915050565b600080600080600060a08688031215620002cc57600080fd5b6000620002dc888289016200029c565b9550506020620002ef888289016200029c565b9450506040620003028882890162000285565b9350506060620003158882890162000285565b9250506080620003288882890162000285565b9150509295509295909350565b6000620003428262000349565b9050919050565b600073ffffffffffffffffffffffffffffffffffffffff82169050919050565b6000819050919050565b6200037e8162000335565b81146200038a57600080fd5b50565b620003988162000369565b8114620003a457600080fd5b50565b6128f680620003b76000396000f3fe6080604052600436106101cd5760003560e01c806380962668116100f7578063ca055e5311610095578063e0d65d8711610064578063e0d65d87146106f9578063f2fde38b14610736578063f52818f01461075f578063f83b35fb14610788576101cd565b8063ca055e5314610628578063daaac9d214610666578063ddca3f43146106a3578063e0a5cee3146106ce576101cd565b80638da5cb5b116100d15780638da5cb5b146105445780639626a2301461056f578063ac4afa38146105ad578063b47a3566146105eb576101cd565b8063809626681461049f578063849cd1c7146104ca57806389b808a714610507576101cd565b8063430468441161016f578063673a7e281161013e578063673a7e2814610409578063715018a61461042057806371a42207146104375780638068aa6814610462576101cd565b8063430468441461035a578063576fe42f14610376578063587f5ed7146103b35780635c11ff7a146103de576101cd565b8063231b0268116101ab578063231b02681461028b5780632ff284c2146102b65780633937ea4f146102f357806340b8405a14610331576101cd565b80630ed6ca29146101d25780630eff4d88146102105780631bb5abf91461024e575b600080fd5b3480156101de57600080fd5b506101f960048036038101906101f4919061224b565b6107c6565b6040516102079291906125a6565b60405180910390f35b34801561021c57600080fd5b5061023760048036038101906102329190612030565b6108b5565b6040516102459291906125a6565b60405180910390f35b34801561025a57600080fd5b50610275600480360381019061027091906120be565b610902565b60405161028291906125f8565b60405180910390f35b34801561029757600080fd5b506102a0610931565b6040516102ad919061258b565b60405180910390f35b3480156102c257600080fd5b506102dd60048036038101906102d891906120be565b610937565b6040516102ea919061258b565b60405180910390f35b3480156102ff57600080fd5b5061031a60048036038101906103159190611fcb565b610959565b6040516103289291906125a6565b60405180910390f35b34801561033d57600080fd5b5061035860048036038101906103539190611fa2565b61098a565b005b610374600480360381019061036f91906122ae565b610db5565b005b34801561038257600080fd5b5061039d6004803603810190610398919061215d565b61117e565b6040516103aa919061258b565b60405180910390f35b3480156103bf57600080fd5b506103c86111ca565b6040516103d5919061258b565b60405180910390f35b3480156103ea57600080fd5b506103f36111d0565b604051610400919061258b565b60405180910390f35b34801561041557600080fd5b5061041e6111d6565b005b34801561042c57600080fd5b50610435611279565b005b34801561044357600080fd5b5061044c611301565b604051610459919061258b565b60405180910390f35b34801561046e57600080fd5b5061048960048036038101906104849190611fcb565b61130e565b604051610496919061258b565b60405180910390f35b3480156104ab57600080fd5b506104b461133f565b6040516104c1919061258b565b60405180910390f35b3480156104d657600080fd5b506104f160048036038101906104ec91906120fa565b611345565b6040516104fe919061258b565b60405180910390f35b34801561051357600080fd5b5061052e60048036038101906105299190611fa2565b61137f565b60405161053b919061258b565b60405180910390f35b34801561055057600080fd5b506105596113cb565b60405161056691906124c7565b60405180910390f35b34801561057b57600080fd5b5061059660048036038101906105919190612082565b6113f4565b6040516105a49291906125a6565b60405180910390f35b3480156105b957600080fd5b506105d460048036038101906105cf9190612030565b611480565b6040516105e29291906125a6565b60405180910390f35b3480156105f757600080fd5b50610612600480360381019061060d9190611fcb565b6114a4565b60405161061f919061258b565b60405180910390f35b34801561063457600080fd5b5061064f600480360381019061064a91906121d4565b611530565b60405161065d9291906125a6565b60405180910390f35b34801561067257600080fd5b5061068d600480360381019061068891906120fa565b61175f565b60405161069a919061258b565b60405180910390f35b3480156106af57600080fd5b506106b8611795565b6040516106c5919061258b565b60405180910390f35b3480156106da57600080fd5b506106e361179b565b6040516106f0919061258b565b60405180910390f35b34801561070557600080fd5b50610720600480360381019061071b9190612030565b6117a1565b60405161072d919061258b565b60405180910390f35b34801561074257600080fd5b5061075d60048036038101906107589190611fa2565b6117b9565b005b34801561076b57600080fd5b5061078660048036038101906107819190612030565b6118b1565b005b34801561079457600080fd5b506107af60048036038101906107aa9190612030565b6119c6565b6040516107bd9291906125a6565b60405180910390f35b60008060008460ff166001811115610807577f4e487b7100000000000000000000000000000000000000000000000000000000600052602160045260246000fd5b905060006001811115610843577f4e487b7100000000000000000000000000000000000000000000000000000000600052602160045260246000fd5b81600181111561087c577f4e487b7100000000000000000000000000000000000000000000000000000000600052602160045260246000fd5b141561089957838761088e9190612624565b8692509250506108ac565b8684876108a69190612624565b92509250505b94509492505050565b600080600060086000858152602001908152602001600020604051806040016040529081600082015481526020016001820154815250509050806000015181602001519250925050915091565b600082821015610915576000905061092b565b82821115610926576001905061092b565b600290505b92915050565b60045481565b60006064828461094791906126ab565b610951919061267a565b905092915050565b600d602052816000526040600020602052806000526040600020600091509150508060000154908060010154905082565b6000600e60008373ffffffffffffffffffffffffffffffffffffffff1673ffffffffffffffffffffffffffffffffffffffff16815260200190815260200160002090506000818054905014156109e05750610db2565b600080828054905090505b6000811115610d5e57600083600183610a049190612705565b81548110610a3b577f4e487b7100000000000000000000000000000000000000000000000000000000600052603260045260246000fd5b906000526020600020015490506000610a5f43600354600454600b54600a5461117e565b9050600282610a6e9190612624565b811015610a7c575050610d4b565b600080610a88846119c6565b91509150600081148015610aa75750600384610aa49190612624565b83105b15610ab55750505050610d4b565b6000610ac18383610902565b90506000831480610ad25750600082145b15610adc57600290505b8760018980549050610aee9190612705565b81548110610b25577f4e487b7100000000000000000000000000000000000000000000000000000000600052603260045260246000fd5b906000526020600020015488600188610b3e9190612705565b81548110610b75577f4e487b7100000000000000000000000000000000000000000000000000000000600052603260045260246000fd5b906000526020600020018190555087805480610bba577f4e487b7100000000000000000000000000000000000000000000000000000000600052603160045260246000fd5b600190038181906000526020600020016000905590556000600d60008b73ffffffffffffffffffffffffffffffffffffffff1673ffffffffffffffffffffffffffffffffffffffff1681526020019081526020016000206000878152602001908152602001600020604051806040016040529081600082015481526020016001820154815250509050600060086000888152602001908152602001600020604051806040016040529081600082015481526020016001820154815250509050600080610c99846020015185600001518560200151866000015189611530565b91509150818b610ca99190612624565b9a5080600c54610cb99190612624565b600c819055506000610cdd856020015186600001518660200151876000015161175f565b9050610ce98e82611a12565b610cf1611cd7565b8d73ffffffffffffffffffffffffffffffffffffffff168a7f1a82fd78981b9465af4b8bd67f27607df5d873b7a978cc8cee1a65b85c2990fc85604051610d38919061258b565b60405180910390a3505050505050505050505b8080610d56906127ae565b9150506109eb565b5060008110610daf578273ffffffffffffffffffffffffffffffffffffffff166108fc829081150290604051600060405180830381858888f19350505050158015610dad573d6000803e3d6000fd5b505b50505b50565b60003411610df8576040517f08c379a0000000000000000000000000000000000000000000000000000000008152600401610def9061250b565b60405180910390fd5b610e006111d6565b610e093361098a565b6000610e1734600254610937565b905080600c54610e279190612624565b600c8190555060008134610e3b9190612705565b90506000610e5443600354600454600b54600a5461117e565b9050600f60003373ffffffffffffffffffffffffffffffffffffffff1673ffffffffffffffffffffffffffffffffffffffff168152602001908152602001600020600082815260200190815260200160002060009054906101000a900460ff16610f8857600e60003373ffffffffffffffffffffffffffffffffffffffff1673ffffffffffffffffffffffffffffffffffffffff1681526020019081526020016000208190806001815401808255809150506001900390600052602060002001600090919091909150556001600f60003373ffffffffffffffffffffffffffffffffffffffff1673ffffffffffffffffffffffffffffffffffffffff168152602001908152602001600020600083815260200190815260200160002060006101000a81548160ff0219169083151502179055505b600060086000838152602001908152602001600020604051806040016040529081600082015481526020016001820154815250509050600080610fd58360000151846020015189886107c6565b915091506040518060400160405280838152602001828152506008600086815260200190815260200160002060008201518160000155602082015181600101559050506000600d60003373ffffffffffffffffffffffffffffffffffffffff1673ffffffffffffffffffffffffffffffffffffffff168152602001908152602001600020600086815260200190815260200160002060405180604001604052908160008201548152602001600182015481525050905061109f816000015182602001518a896107c6565b8093508194505050604051806040016040528084815260200183815250600d60003373ffffffffffffffffffffffffffffffffffffffff1673ffffffffffffffffffffffffffffffffffffffff16815260200190815260200160002060008781526020019081526020016000206000820151816000015560208201518160010155905050843373ffffffffffffffffffffffffffffffffffffffff167f560e32e4934b84f33b228f40ddc5b9fa690426ee087005a7d979d7921d24a02b888b60405161116c9291906125cf565b60405180910390a35050505050505050565b600083861015611190578190506111c1565b6001838686896111a09190612705565b6111aa919061267a565b6111b49190612624565b6111be9190612624565b90505b95945050505050565b600c5481565b60035481565b60006111ed43600354600454600b54600a5461117e565b905060006009600083815260200190815260200160002054141561127657611213611d71565b6009600083815260200190815260200160002081905550807f7a3325b9d11ddc18edd3dff130141b6ce951061520c6b933a604bf701f3d8052600960008481526020019081526020016000205460405161126d919061258b565b60405180910390a25b50565b611281611e21565b73ffffffffffffffffffffffffffffffffffffffff1661129f6113cb565b73ffffffffffffffffffffffffffffffffffffffff16146112f5576040517f08c379a00000000000000000000000000000000000000000000000000000000081526004016112ec9061254b565b60405180910390fd5b6112ff6000611e29565b565b6811ff6cf0fd15b0000081565b600e602052816000526040600020818154811061132a57600080fd5b90600052602060002001600091509150505481565b600b5481565b600083826001876113569190612705565b6113609190612705565b61136a91906126ab565b836113759190612624565b9050949350505050565b6000600e60008373ffffffffffffffffffffffffffffffffffffffff1673ffffffffffffffffffffffffffffffffffffffff168152602001908152602001600020805490509050919050565b60008060009054906101000a900473ffffffffffffffffffffffffffffffffffffffff16905090565b6000806000600d60008573ffffffffffffffffffffffffffffffffffffffff1673ffffffffffffffffffffffffffffffffffffffff16815260200190815260200160002060008681526020019081526020016000206040518060400160405290816000820154815260200160018201548152505090508060000151816020015192509250509250929050565b60086020528060005260406000206000915090508060000154908060010154905082565b6000600e60008473ffffffffffffffffffffffffffffffffffffffff1673ffffffffffffffffffffffffffffffffffffffff168152602001908152602001600020828154811061151d577f4e487b7100000000000000000000000000000000000000000000000000000000600052603260045260246000fd5b9060005260206000200154905092915050565b60008060008360ff166002811115611571577f4e487b7100000000000000000000000000000000000000000000000000000000600052602160045260246000fd5b9050600085876115819190612624565b9050600160028111156115bd577f4e487b7100000000000000000000000000000000000000000000000000000000600052602160045260246000fd5b8260028111156115f6577f4e487b7100000000000000000000000000000000000000000000000000000000600052602160045260246000fd5b148015611604575060008714155b1561161b57611614818a89611eed565b9350611753565b60006002811115611655577f4e487b7100000000000000000000000000000000000000000000000000000000600052602160045260246000fd5b82600281111561168e577f4e487b7100000000000000000000000000000000000000000000000000000000600052602160045260246000fd5b14801561169c575060008614155b156116b3576116ac818988611eed565b9350611752565b6002808111156116ec577f4e487b7100000000000000000000000000000000000000000000000000000000600052602160045260246000fd5b826002811115611725577f4e487b7100000000000000000000000000000000000000000000000000000000600052602160045260246000fd5b141561173e5787896117379190612624565b9350611751565b60009350878961174e9190612624565b92505b5b5b50509550959350505050565b600061178b6811ff6cf0fd15b00000858761177a9190612624565b84866117869190612624565b611eed565b9050949350505050565b60025481565b600a5481565b60096020528060005260406000206000915090505481565b6117c1611e21565b73ffffffffffffffffffffffffffffffffffffffff166117df6113cb565b73ffffffffffffffffffffffffffffffffffffffff1614611835576040517f08c379a000000000000000000000000000000000000000000000000000000000815260040161182c9061254b565b60405180910390fd5b600073ffffffffffffffffffffffffffffffffffffffff168173ffffffffffffffffffffffffffffffffffffffff1614156118a5576040517f08c379a000000000000000000000000000000000000000000000000000000000815260040161189c9061252b565b60405180910390fd5b6118ae81611e29565b50565b6118b9611e21565b73ffffffffffffffffffffffffffffffffffffffff166118d76113cb565b73ffffffffffffffffffffffffffffffffffffffff161461192d576040517f08c379a00000000000000000000000000000000000000000000000000000000081526004016119249061254b565b60405180910390fd5b60008111611970576040517f08c379a00000000000000000000000000000000000000000000000000000000081526004016119679061256b565b60405180910390fd5b600061198743600354600454600b54600a5461117e565b90506119a76001826119999190612624565b600354600454600b54611345565b60048190555080600b8190555080600a81905550816003819055505050565b600080600960006001856119da9190612624565b815260200190815260200160002054600960006002866119fa9190612624565b81526020019081526020016000205491509150915091565b80600760009054906101000a900473ffffffffffffffffffffffffffffffffffffffff1673ffffffffffffffffffffffffffffffffffffffff166370a08231306040518263ffffffff1660e01b8152600401611a6e91906124c7565b60206040518083038186803b158015611a8657600080fd5b505afa158015611a9a573d6000803e3d6000fd5b505050506040513d601f19601f82011682018060405250810190611abe9190612059565b10611b7857600760009054906101000a900473ffffffffffffffffffffffffffffffffffffffff1673ffffffffffffffffffffffffffffffffffffffff1663a9059cbb83836040518363ffffffff1660e01b8152600401611b209291906124e2565b602060405180830381600087803b158015611b3a57600080fd5b505af1158015611b4e573d6000803e3d6000fd5b505050506040513d601f19601f82011682018060405250810190611b729190612007565b50611cd3565b600760009054906101000a900473ffffffffffffffffffffffffffffffffffffffff1673ffffffffffffffffffffffffffffffffffffffff1663a9059cbb83600760009054906101000a900473ffffffffffffffffffffffffffffffffffffffff1673ffffffffffffffffffffffffffffffffffffffff166370a08231306040518263ffffffff1660e01b8152600401611c1291906124c7565b60206040518083038186803b158015611c2a57600080fd5b505afa158015611c3e573d6000803e3d6000fd5b505050506040513d601f19601f82011682018060405250810190611c629190612059565b6040518363ffffffff1660e01b8152600401611c7f9291906124e2565b602060405180830381600087803b158015611c9957600080fd5b505af1158015611cad573d6000803e3d6000fd5b505050506040513d601f19601f82011682018060405250810190611cd19190612007565b505b5050565b6000600c541115611d6f57600560009054906101000a900473ffffffffffffffffffffffffffffffffffffffff1673ffffffffffffffffffffffffffffffffffffffff16625c33e1600c546040518263ffffffff1660e01b81526004016000604051808303818588803b158015611d4d57600080fd5b505af1158015611d61573d6000803e3d6000fd5b50505050506000600c819055505b565b600080600160009054906101000a900473ffffffffffffffffffffffffffffffffffffffff1673ffffffffffffffffffffffffffffffffffffffff1663feaf968c6040518163ffffffff1660e01b815260040160a06040518083038186803b158015611ddc57600080fd5b505afa158015611df0573d6000803e3d6000fd5b505050506040513d601f19601f82011682018060405250810190611e1491906122d7565b5050509150508091505090565b600033905090565b60008060009054906101000a900473ffffffffffffffffffffffffffffffffffffffff169050816000806101000a81548173ffffffffffffffffffffffffffffffffffffffff021916908373ffffffffffffffffffffffffffffffffffffffff1602179055508173ffffffffffffffffffffffffffffffffffffffff168173ffffffffffffffffffffffffffffffffffffffff167f8be0079c531659141344cd1fd0a4f28419497f9722a3daafe3b4186f6b6457e060405160405180910390a35050565b6000818484611efc91906126ab565b611f06919061267a565b90509392505050565b600081359050611f1e81612836565b92915050565b600081519050611f338161284d565b92915050565b600081519050611f4881612864565b92915050565b600081359050611f5d8161287b565b92915050565b600081519050611f728161287b565b92915050565b600081359050611f8781612892565b92915050565b600081519050611f9c816128a9565b92915050565b600060208284031215611fb457600080fd5b6000611fc284828501611f0f565b91505092915050565b60008060408385031215611fde57600080fd5b6000611fec85828601611f0f565b9250506020611ffd85828601611f4e565b9150509250929050565b60006020828403121561201957600080fd5b600061202784828501611f24565b91505092915050565b60006020828403121561204257600080fd5b600061205084828501611f4e565b91505092915050565b60006020828403121561206b57600080fd5b600061207984828501611f63565b91505092915050565b6000806040838503121561209557600080fd5b60006120a385828601611f4e565b92505060206120b485828601611f0f565b9150509250929050565b600080604083850312156120d157600080fd5b60006120df85828601611f4e565b92505060206120f085828601611f4e565b9150509250929050565b6000806000806080858703121561211057600080fd5b600061211e87828801611f4e565b945050602061212f87828801611f4e565b935050604061214087828801611f4e565b925050606061215187828801611f4e565b91505092959194509250565b600080600080600060a0868803121561217557600080fd5b600061218388828901611f4e565b955050602061219488828901611f4e565b94505060406121a588828901611f4e565b93505060606121b688828901611f4e565b92505060806121c788828901611f4e565b9150509295509295909350565b600080600080600060a086880312156121ec57600080fd5b60006121fa88828901611f4e565b955050602061220b88828901611f4e565b945050604061221c88828901611f4e565b935050606061222d88828901611f4e565b925050608061223e88828901611f78565b9150509295509295909350565b6000806000806080858703121561226157600080fd5b600061226f87828801611f4e565b945050602061228087828801611f4e565b935050604061229187828801611f78565b92505060606122a287828801611f4e565b91505092959194509250565b6000602082840312156122c057600080fd5b60006122ce84828501611f78565b91505092915050565b600080600080600060a086880312156122ef57600080fd5b60006122fd88828901611f8d565b955050602061230e88828901611f39565b945050604061231f88828901611f63565b935050606061233088828901611f63565b925050608061234188828901611f8d565b9150509295509295909350565b61235781612739565b82525050565b600061236a601d83612613565b91507f4f6e6c79207374726963746c7920706f7369746976652076616c7565730000006000830152602082019050919050565b60006123aa602683612613565b91507f4f776e61626c653a206e6577206f776e657220697320746865207a65726f206160008301527f64647265737300000000000000000000000000000000000000000000000000006020830152604082019050919050565b6000612410602083612613565b91507f4f776e61626c653a2063616c6c6572206973206e6f7420746865206f776e65726000830152602082019050919050565b6000612450602783612613565b91507f77696e646f772073697a652073686f756c64206265207374726963746c79207060008301527f6f736974697665000000000000000000000000000000000000000000000000006020830152604082019050919050565b6124b281612781565b82525050565b6124c18161278b565b82525050565b60006020820190506124dc600083018461234e565b92915050565b60006040820190506124f7600083018561234e565b61250460208301846124a9565b9392505050565b600060208201905081810360008301526125248161235d565b9050919050565b600060208201905081810360008301526125448161239d565b9050919050565b6000602082019050818103600083015261256481612403565b9050919050565b6000602082019050818103600083015261258481612443565b9050919050565b60006020820190506125a060008301846124a9565b92915050565b60006040820190506125bb60008301856124a9565b6125c860208301846124a9565b9392505050565b60006040820190506125e460008301856124a9565b6125f160208301846124b8565b9392505050565b600060208201905061260d60008301846124b8565b92915050565b600082825260208201905092915050565b600061262f82612781565b915061263a83612781565b9250827fffffffffffffffffffffffffffffffffffffffffffffffffffffffffffffffff0382111561266f5761266e6127d8565b5b828201905092915050565b600061268582612781565b915061269083612781565b9250826126a05761269f612807565b5b828204905092915050565b60006126b682612781565b91506126c183612781565b9250817fffffffffffffffffffffffffffffffffffffffffffffffffffffffffffffffff04831182151516156126fa576126f96127d8565b5b828202905092915050565b600061271082612781565b915061271b83612781565b92508282101561272e5761272d6127d8565b5b828203905092915050565b600061274482612761565b9050919050565b60008115159050919050565b6000819050919050565b600073ffffffffffffffffffffffffffffffffffffffff82169050919050565b6000819050919050565b600060ff82169050919050565b600069ffffffffffffffffffff82169050919050565b60006127b982612781565b915060008214156127cd576127cc6127d8565b5b600182039050919050565b7f4e487b7100000000000000000000000000000000000000000000000000000000600052601160045260246000fd5b7f4e487b7100000000000000000000000000000000000000000000000000000000600052601260045260246000fd5b61283f81612739565b811461284a57600080fd5b50565b6128568161274b565b811461286157600080fd5b50565b61286d81612757565b811461287857600080fd5b50565b61288481612781565b811461288f57600080fd5b50565b61289b8161278b565b81146128a657600080fd5b50565b6128b281612798565b81146128bd57600080fd5b5056fea264697066735822122080809b5c1a641c1041f50dac0c77526f61a00cae8ed427a506802d8535b4852564736f6c63430008000033",
  "linkReferences": {},
  "deployedLinkReferences": {}
}