{
  "_format": "hh-sol-artifact-1",
  "contractName": "Manager",
  "sourceName": "contracts/Manager.sol",
  "abi": [
    {
      "anonymous": false,
      "inputs": [
        {
          "indexed": false,
          "internalType": "string",
          "name": "assetId",
          "type": "string"
        },
        {
          "indexed": false,
          "internalType": "address",
          "name": "contractAddress",
          "type": "address"
        }
      ],
      "name": "NewAsset",
      "type": "event"
    },
    {
      "anonymous": false,
      "inputs": [
        {
          "indexed": true,
          "internalType": "address",
          "name": "previousOwner",
          "type": "address"
        },
        {
          "indexed": true,
          "internalType": "address",
          "name": "newOwner",
          "type": "address"
        }
      ],
      "name": "OwnershipTransferred",
      "type": "event"
    },
    {
      "inputs": [
        {
          "internalType": "string",
          "name": "asset",
          "type": "string"
        },
        {
          "internalType": "address",
          "name": "contractAddress",
          "type": "address"
        }
      ],
      "name": "addAsset",
      "outputs": [],
      "stateMutability": "nonpayable",
      "type": "function"
    },
    {
      "inputs": [
        {
          "internalType": "uint256",
          "name": "",
          "type": "uint256"
        }
      ],
      "name": "assetContracts",
      "outputs": [
        {
          "internalType": "contract BinaryBet",
          "name": "",
          "type": "address"
        }
      ],
      "stateMutability": "view",
      "type": "function"
    },
    {
      "inputs": [],
      "name": "assetCount",
      "outputs": [
        {
          "internalType": "uint256",
          "name": "",
          "type": "uint256"
        }
      ],
      "stateMutability": "view",
      "type": "function"
    },
    {
      "inputs": [
        {
          "internalType": "string",
          "name": "asset",
          "type": "string"
        }
      ],
      "name": "assetExists",
      "outputs": [
        {
          "internalType": "bool",
          "name": "",
          "type": "bool"
        }
      ],
      "stateMutability": "view",
      "type": "function"
    },
    {
      "inputs": [],
      "name": "claim",
      "outputs": [],
      "stateMutability": "nonpayable",
      "type": "function"
    },
    {
      "inputs": [],
      "name": "owner",
      "outputs": [
        {
          "internalType": "address",
          "name": "",
          "type": "address"
        }
      ],
      "stateMutability": "view",
      "type": "function"
    },
    {
      "inputs": [],
      "name": "renounceOwnership",
      "outputs": [],
      "stateMutability": "nonpayable",
      "type": "function"
    },
    {
      "inputs": [
        {
          "internalType": "address",
          "name": "newOwner",
          "type": "address"
        }
      ],
      "name": "transferOwnership",
      "outputs": [],
      "stateMutability": "nonpayable",
      "type": "function"
    },
    {
      "inputs": [],
      "name": "updatePrice",
      "outputs": [],
      "stateMutability": "nonpayable",
      "type": "function"
    },
    {
      "inputs": [
        {
          "internalType": "address",
          "name": "",
          "type": "address"
        }
      ],
      "name": "usedAddress",
      "outputs": [
        {
          "internalType": "bool",
          "name": "",
          "type": "bool"
        }
      ],
      "stateMutability": "view",
      "type": "function"
    },
    {
      "inputs": [
        {
          "internalType": "bytes32",
          "name": "",
          "type": "bytes32"
        }
      ],
      "name": "usedId",
      "outputs": [
        {
          "internalType": "bool",
          "name": "",
          "type": "bool"
        }
      ],
      "stateMutability": "view",
      "type": "function"
    }
  ],
  "bytecode": "0x608060405234801561001057600080fd5b5061002d61002261003260201b60201c565b61003a60201b60201c565b6100fe565b600033905090565b60008060009054906101000a900473ffffffffffffffffffffffffffffffffffffffff169050816000806101000a81548173ffffffffffffffffffffffffffffffffffffffff021916908373ffffffffffffffffffffffffffffffffffffffff1602179055508173ffffffffffffffffffffffffffffffffffffffff168173ffffffffffffffffffffffffffffffffffffffff167f8be0079c531659141344cd1fd0a4f28419497f9722a3daafe3b4186f6b6457e060405160405180910390a35050565b6110808061010d6000396000f3fe608060405234801561001057600080fd5b50600436106100a95760003560e01c80638e5fa1db116100715780638e5fa1db1461011a578063a7137d051461014a578063adc02a641461017a578063eafe7a7414610196578063ede87e4e146101b4578063f2fde38b146101e4576100a9565b80632e455f89146100ae5780634e71d92d146100de578063673a7e28146100e8578063715018a6146100f25780638da5cb5b146100fc575b600080fd5b6100c860048036038101906100c391906109c3565b610200565b6040516100d59190610a0b565b60405180910390f35b6100e6610220565b005b6100f06102ef565b005b6100fa6103b3565b005b61010461043b565b6040516101119190610a67565b60405180910390f35b610134600480360381019061012f9190610ab8565b610464565b6040516101419190610b44565b60405180910390f35b610164600480360381019061015f9190610b8b565b6104a3565b6040516101719190610a0b565b60405180910390f35b610194600480360381019061018f9190610c1d565b6104c3565b005b61019e610770565b6040516101ab9190610c8c565b60405180910390f35b6101ce60048036038101906101c99190610ca7565b61077d565b6040516101db9190610a0b565b60405180910390f35b6101fe60048036038101906101f99190610b8b565b6107bf565b005b60016020528060005260406000206000915054906101000a900460ff1681565b60005b6003805490508110156102ec576003818154811061024457610243610cf4565b5b9060005260206000200160009054906101000a900473ffffffffffffffffffffffffffffffffffffffff1673ffffffffffffffffffffffffffffffffffffffff166340b8405a336040518263ffffffff1660e01b81526004016102a79190610a67565b600060405180830381600087803b1580156102c157600080fd5b505af11580156102d5573d6000803e3d6000fd5b5050505080806102e490610d52565b915050610223565b50565b60005b6003805490508110156103b0576003818154811061031357610312610cf4565b5b9060005260206000200160009054906101000a900473ffffffffffffffffffffffffffffffffffffffff1673ffffffffffffffffffffffffffffffffffffffff1663673a7e286040518163ffffffff1660e01b8152600401600060405180830381600087803b15801561038557600080fd5b505af1158015610399573d6000803e3d6000fd5b5050505080806103a890610d52565b9150506102f2565b50565b6103bb6108b7565b73ffffffffffffffffffffffffffffffffffffffff166103d961043b565b73ffffffffffffffffffffffffffffffffffffffff161461042f576040517f08c379a000000000000000000000000000000000000000000000000000000000815260040161042690610df8565b60405180910390fd5b61043960006108bf565b565b60008060009054906101000a900473ffffffffffffffffffffffffffffffffffffffff16905090565b6003818154811061047457600080fd5b906000526020600020016000915054906101000a900473ffffffffffffffffffffffffffffffffffffffff1681565b60026020528060005260406000206000915054906101000a900460ff1681565b6104cb6108b7565b73ffffffffffffffffffffffffffffffffffffffff166104e961043b565b73ffffffffffffffffffffffffffffffffffffffff161461053f576040517f08c379a000000000000000000000000000000000000000000000000000000000815260040161053690610df8565b60405180910390fd5b60008383604051610551929190610e57565b604051809103902090506001600082815260200190815260200160002060009054906101000a900460ff16156105bc576040517f08c379a00000000000000000000000000000000000000000000000000000000081526004016105b390610ebc565b60405180910390fd5b600260008373ffffffffffffffffffffffffffffffffffffffff1673ffffffffffffffffffffffffffffffffffffffff16815260200190815260200160002060009054906101000a900460ff1615610649576040517f08c379a000000000000000000000000000000000000000000000000000000000815260040161064090610f28565b60405180910390fd5b600180600083815260200190815260200160002060006101000a81548160ff0219169083151502179055506001600260008473ffffffffffffffffffffffffffffffffffffffff1673ffffffffffffffffffffffffffffffffffffffff16815260200190815260200160002060006101000a81548160ff0219169083151502179055506003829080600181540180825580915050600190039060005260206000200160009091909190916101000a81548173ffffffffffffffffffffffffffffffffffffffff021916908373ffffffffffffffffffffffffffffffffffffffff1602179055507f76b150a3f71df5c4a3681e25a477233ac7c0ef5a61999dae086cca9761d9da8984848460405161076293929190610f86565b60405180910390a150505050565b6000600380549050905090565b6000600160008484604051610793929190610e57565b6040518091039020815260200190815260200160002060009054906101000a900460ff16905092915050565b6107c76108b7565b73ffffffffffffffffffffffffffffffffffffffff166107e561043b565b73ffffffffffffffffffffffffffffffffffffffff161461083b576040517f08c379a000000000000000000000000000000000000000000000000000000000815260040161083290610df8565b60405180910390fd5b600073ffffffffffffffffffffffffffffffffffffffff168173ffffffffffffffffffffffffffffffffffffffff1614156108ab576040517f08c379a00000000000000000000000000000000000000000000000000000000081526004016108a29061102a565b60405180910390fd5b6108b4816108bf565b50565b600033905090565b60008060009054906101000a900473ffffffffffffffffffffffffffffffffffffffff169050816000806101000a81548173ffffffffffffffffffffffffffffffffffffffff021916908373ffffffffffffffffffffffffffffffffffffffff1602179055508173ffffffffffffffffffffffffffffffffffffffff168173ffffffffffffffffffffffffffffffffffffffff167f8be0079c531659141344cd1fd0a4f28419497f9722a3daafe3b4186f6b6457e060405160405180910390a35050565b600080fd5b600080fd5b6000819050919050565b6109a08161098d565b81146109ab57600080fd5b50565b6000813590506109bd81610997565b92915050565b6000602082840312156109d9576109d8610983565b5b60006109e7848285016109ae565b91505092915050565b60008115159050919050565b610a05816109f0565b82525050565b6000602082019050610a2060008301846109fc565b92915050565b600073ffffffffffffffffffffffffffffffffffffffff82169050919050565b6000610a5182610a26565b9050919050565b610a6181610a46565b82525050565b6000602082019050610a7c6000830184610a58565b92915050565b6000819050919050565b610a9581610a82565b8114610aa057600080fd5b50565b600081359050610ab281610a8c565b92915050565b600060208284031215610ace57610acd610983565b5b6000610adc84828501610aa3565b91505092915050565b6000819050919050565b6000610b0a610b05610b0084610a26565b610ae5565b610a26565b9050919050565b6000610b1c82610aef565b9050919050565b6000610b2e82610b11565b9050919050565b610b3e81610b23565b82525050565b6000602082019050610b596000830184610b35565b92915050565b610b6881610a46565b8114610b7357600080fd5b50565b600081359050610b8581610b5f565b92915050565b600060208284031215610ba157610ba0610983565b5b6000610baf84828501610b76565b91505092915050565b600080fd5b600080fd5b600080fd5b60008083601f840112610bdd57610bdc610bb8565b5b8235905067ffffffffffffffff811115610bfa57610bf9610bbd565b5b602083019150836001820283011115610c1657610c15610bc2565b5b9250929050565b600080600060408486031215610c3657610c35610983565b5b600084013567ffffffffffffffff811115610c5457610c53610988565b5b610c6086828701610bc7565b93509350506020610c7386828701610b76565b9150509250925092565b610c8681610a82565b82525050565b6000602082019050610ca16000830184610c7d565b92915050565b60008060208385031215610cbe57610cbd610983565b5b600083013567ffffffffffffffff811115610cdc57610cdb610988565b5b610ce885828601610bc7565b92509250509250929050565b7f4e487b7100000000000000000000000000000000000000000000000000000000600052603260045260246000fd5b7f4e487b7100000000000000000000000000000000000000000000000000000000600052601160045260246000fd5b6000610d5d82610a82565b91507fffffffffffffffffffffffffffffffffffffffffffffffffffffffffffffffff821415610d9057610d8f610d23565b5b600182019050919050565b600082825260208201905092915050565b7f4f776e61626c653a2063616c6c6572206973206e6f7420746865206f776e6572600082015250565b6000610de2602083610d9b565b9150610ded82610dac565b602082019050919050565b60006020820190508181036000830152610e1181610dd5565b9050919050565b600081905092915050565b82818337600083830152505050565b6000610e3e8385610e18565b9350610e4b838584610e23565b82840190509392505050565b6000610e64828486610e32565b91508190509392505050565b7f417373657420616c726561647920657869737473000000000000000000000000600082015250565b6000610ea6601483610d9b565b9150610eb182610e70565b602082019050919050565b60006020820190508181036000830152610ed581610e99565b9050919050565b7f4164647265737320616c72656164792075736564000000000000000000000000600082015250565b6000610f12601483610d9b565b9150610f1d82610edc565b602082019050919050565b60006020820190508181036000830152610f4181610f05565b9050919050565b6000601f19601f8301169050919050565b6000610f658385610d9b565b9350610f72838584610e23565b610f7b83610f48565b840190509392505050565b60006040820190508181036000830152610fa1818587610f59565b9050610fb06020830184610a58565b949350505050565b7f4f776e61626c653a206e6577206f776e657220697320746865207a65726f206160008201527f6464726573730000000000000000000000000000000000000000000000000000602082015250565b6000611014602683610d9b565b915061101f82610fb8565b604082019050919050565b6000602082019050818103600083015261104381611007565b905091905056fea26469706673582212200c7917bedb2f66d94862f6ecb886c099a2019389e127729ecebfa7e313aec1e264736f6c63430008080033",
  "linkReferences": {},
  "deployedLinkReferences": {}
}