{
  "_format": "hh-sol-artifact-1",
  "contractName": "Manager",
  "sourceName": "contracts/Manager.sol",
  "abi": [
    {
      "anonymous": false,
      "inputs": [
        {
          "indexed": false,
          "internalType": "string",
          "name": "assetId",
          "type": "string"
        },
        {
          "indexed": false,
          "internalType": "address",
          "name": "contractAddress",
          "type": "address"
        }
      ],
      "name": "NewAsset",
      "type": "event"
    },
    {
      "anonymous": false,
      "inputs": [
        {
          "indexed": true,
          "internalType": "address",
          "name": "previousOwner",
          "type": "address"
        },
        {
          "indexed": true,
          "internalType": "address",
          "name": "newOwner",
          "type": "address"
        }
      ],
      "name": "OwnershipTransferred",
      "type": "event"
    },
    {
      "inputs": [
        {
          "internalType": "string",
          "name": "asset",
          "type": "string"
        },
        {
          "internalType": "address",
          "name": "contractAddress",
          "type": "address"
        }
      ],
      "name": "addAsset",
      "outputs": [],
      "stateMutability": "nonpayable",
      "type": "function"
    },
    {
      "inputs": [
        {
          "internalType": "uint256",
          "name": "",
          "type": "uint256"
        }
      ],
      "name": "assetContracts",
      "outputs": [
        {
          "internalType": "contract BinaryBet",
          "name": "",
          "type": "address"
        }
      ],
      "stateMutability": "view",
      "type": "function"
    },
    {
      "inputs": [],
      "name": "assetCount",
      "outputs": [
        {
          "internalType": "uint256",
          "name": "",
          "type": "uint256"
        }
      ],
      "stateMutability": "view",
      "type": "function"
    },
    {
      "inputs": [
        {
          "internalType": "string",
          "name": "asset",
          "type": "string"
        }
      ],
      "name": "assetExists",
      "outputs": [
        {
          "internalType": "bool",
          "name": "",
          "type": "bool"
        }
      ],
      "stateMutability": "view",
      "type": "function"
    },
    {
      "inputs": [],
      "name": "claim",
      "outputs": [],
      "stateMutability": "nonpayable",
      "type": "function"
    },
    {
      "inputs": [],
      "name": "owner",
      "outputs": [
        {
          "internalType": "address",
          "name": "",
          "type": "address"
        }
      ],
      "stateMutability": "view",
      "type": "function"
    },
    {
      "inputs": [],
      "name": "renounceOwnership",
      "outputs": [],
      "stateMutability": "nonpayable",
      "type": "function"
    },
    {
      "inputs": [
        {
          "internalType": "address",
          "name": "newOwner",
          "type": "address"
        }
      ],
      "name": "transferOwnership",
      "outputs": [],
      "stateMutability": "nonpayable",
      "type": "function"
    },
    {
      "inputs": [],
      "name": "updatePrice",
      "outputs": [],
      "stateMutability": "nonpayable",
      "type": "function"
    },
    {
      "inputs": [
        {
          "internalType": "address",
          "name": "",
          "type": "address"
        }
      ],
      "name": "usedAddress",
      "outputs": [
        {
          "internalType": "bool",
          "name": "",
          "type": "bool"
        }
      ],
      "stateMutability": "view",
      "type": "function"
    },
    {
      "inputs": [
        {
          "internalType": "bytes32",
          "name": "",
          "type": "bytes32"
        }
      ],
      "name": "usedId",
      "outputs": [
        {
          "internalType": "bool",
          "name": "",
          "type": "bool"
        }
      ],
      "stateMutability": "view",
      "type": "function"
    }
  ],
  "bytecode": "0x608060405234801561001057600080fd5b5061002d61002261003260201b60201c565b61003a60201b60201c565b6100fe565b600033905090565b60008060009054906101000a900473ffffffffffffffffffffffffffffffffffffffff169050816000806101000a81548173ffffffffffffffffffffffffffffffffffffffff021916908373ffffffffffffffffffffffffffffffffffffffff1602179055508173ffffffffffffffffffffffffffffffffffffffff168173ffffffffffffffffffffffffffffffffffffffff167f8be0079c531659141344cd1fd0a4f28419497f9722a3daafe3b4186f6b6457e060405160405180910390a35050565b6110008061010d6000396000f3fe608060405234801561001057600080fd5b50600436106100a95760003560e01c80638e5fa1db116100715780638e5fa1db1461011a578063a7137d051461014a578063adc02a641461017a578063eafe7a7414610196578063ede87e4e146101b4578063f2fde38b146101e4576100a9565b80632e455f89146100ae5780634e71d92d146100de578063673a7e28146100e8578063715018a6146100f25780638da5cb5b146100fc575b600080fd5b6100c860048036038101906100c39190610a81565b610200565b6040516100d59190610d58565b60405180910390f35b6100e6610220565b005b6100f0610315565b005b6100fa6103ff565b005b610104610487565b6040516101119190610d3d565b60405180910390f35b610134600480360381019061012f9190610b47565b6104b0565b6040516101419190610d73565b60405180910390f35b610164600480360381019061015f9190610a58565b6104ef565b6040516101719190610d58565b60405180910390f35b610194600480360381019061018f9190610aef565b61050f565b005b61019e6107bc565b6040516101ab9190610e40565b60405180910390f35b6101ce60048036038101906101c99190610aaa565b6107c9565b6040516101db9190610d58565b60405180910390f35b6101fe60048036038101906101f99190610a58565b61080b565b005b60016020528060005260406000206000915054906101000a900460ff1681565b60005b600380549050811015610312576003818154811061026a577f4e487b7100000000000000000000000000000000000000000000000000000000600052603260045260246000fd5b9060005260206000200160009054906101000a900473ffffffffffffffffffffffffffffffffffffffff1673ffffffffffffffffffffffffffffffffffffffff166340b8405a336040518263ffffffff1660e01b81526004016102cd9190610d3d565b600060405180830381600087803b1580156102e757600080fd5b505af11580156102fb573d6000803e3d6000fd5b50505050808061030a90610efc565b915050610223565b50565b60005b6003805490508110156103fc576003818154811061035f577f4e487b7100000000000000000000000000000000000000000000000000000000600052603260045260246000fd5b9060005260206000200160009054906101000a900473ffffffffffffffffffffffffffffffffffffffff1673ffffffffffffffffffffffffffffffffffffffff1663673a7e286040518163ffffffff1660e01b8152600401600060405180830381600087803b1580156103d157600080fd5b505af11580156103e5573d6000803e3d6000fd5b5050505080806103f490610efc565b915050610318565b50565b610407610903565b73ffffffffffffffffffffffffffffffffffffffff16610425610487565b73ffffffffffffffffffffffffffffffffffffffff161461047b576040517f08c379a000000000000000000000000000000000000000000000000000000000815260040161047290610de0565b60405180910390fd5b610485600061090b565b565b60008060009054906101000a900473ffffffffffffffffffffffffffffffffffffffff16905090565b600381815481106104c057600080fd5b906000526020600020016000915054906101000a900473ffffffffffffffffffffffffffffffffffffffff1681565b60026020528060005260406000206000915054906101000a900460ff1681565b610517610903565b73ffffffffffffffffffffffffffffffffffffffff16610535610487565b73ffffffffffffffffffffffffffffffffffffffff161461058b576040517f08c379a000000000000000000000000000000000000000000000000000000000815260040161058290610de0565b60405180910390fd5b6000838360405161059d929190610d24565b604051809103902090506001600082815260200190815260200160002060009054906101000a900460ff1615610608576040517f08c379a00000000000000000000000000000000000000000000000000000000081526004016105ff90610e00565b60405180910390fd5b600260008373ffffffffffffffffffffffffffffffffffffffff1673ffffffffffffffffffffffffffffffffffffffff16815260200190815260200160002060009054906101000a900460ff1615610695576040517f08c379a000000000000000000000000000000000000000000000000000000000815260040161068c90610e20565b60405180910390fd5b600180600083815260200190815260200160002060006101000a81548160ff0219169083151502179055506001600260008473ffffffffffffffffffffffffffffffffffffffff1673ffffffffffffffffffffffffffffffffffffffff16815260200190815260200160002060006101000a81548160ff0219169083151502179055506003829080600181540180825580915050600190039060005260206000200160009091909190916101000a81548173ffffffffffffffffffffffffffffffffffffffff021916908373ffffffffffffffffffffffffffffffffffffffff1602179055507f76b150a3f71df5c4a3681e25a477233ac7c0ef5a61999dae086cca9761d9da898484846040516107ae93929190610d8e565b60405180910390a150505050565b6000600380549050905090565b60006001600084846040516107df929190610d24565b6040518091039020815260200190815260200160002060009054906101000a900460ff16905092915050565b610813610903565b73ffffffffffffffffffffffffffffffffffffffff16610831610487565b73ffffffffffffffffffffffffffffffffffffffff1614610887576040517f08c379a000000000000000000000000000000000000000000000000000000000815260040161087e90610de0565b60405180910390fd5b600073ffffffffffffffffffffffffffffffffffffffff168173ffffffffffffffffffffffffffffffffffffffff1614156108f7576040517f08c379a00000000000000000000000000000000000000000000000000000000081526004016108ee90610dc0565b60405180910390fd5b6109008161090b565b50565b600033905090565b60008060009054906101000a900473ffffffffffffffffffffffffffffffffffffffff169050816000806101000a81548173ffffffffffffffffffffffffffffffffffffffff021916908373ffffffffffffffffffffffffffffffffffffffff1602179055508173ffffffffffffffffffffffffffffffffffffffff168173ffffffffffffffffffffffffffffffffffffffff167f8be0079c531659141344cd1fd0a4f28419497f9722a3daafe3b4186f6b6457e060405160405180910390a35050565b6000813590506109de81610f85565b92915050565b6000813590506109f381610f9c565b92915050565b60008083601f840112610a0b57600080fd5b8235905067ffffffffffffffff811115610a2457600080fd5b602083019150836001820283011115610a3c57600080fd5b9250929050565b600081359050610a5281610fb3565b92915050565b600060208284031215610a6a57600080fd5b6000610a78848285016109cf565b91505092915050565b600060208284031215610a9357600080fd5b6000610aa1848285016109e4565b91505092915050565b60008060208385031215610abd57600080fd5b600083013567ffffffffffffffff811115610ad757600080fd5b610ae3858286016109f9565b92509250509250929050565b600080600060408486031215610b0457600080fd5b600084013567ffffffffffffffff811115610b1e57600080fd5b610b2a868287016109f9565b93509350506020610b3d868287016109cf565b9150509250925092565b600060208284031215610b5957600080fd5b6000610b6784828501610a43565b91505092915050565b610b7981610e77565b82525050565b610b8881610e89565b82525050565b6000610b9a8385610e5b565b9350610ba7838584610eed565b82840190509392505050565b610bbc81610ec9565b82525050565b6000610bce8385610e66565b9350610bdb838584610eed565b610be483610f74565b840190509392505050565b6000610bfc602683610e66565b91507f4f776e61626c653a206e6577206f776e657220697320746865207a65726f206160008301527f64647265737300000000000000000000000000000000000000000000000000006020830152604082019050919050565b6000610c62602083610e66565b91507f4f776e61626c653a2063616c6c6572206973206e6f7420746865206f776e65726000830152602082019050919050565b6000610ca2601483610e66565b91507f417373657420616c7265616479206578697374730000000000000000000000006000830152602082019050919050565b6000610ce2601483610e66565b91507f4164647265737320616c726561647920757365640000000000000000000000006000830152602082019050919050565b610d1e81610ebf565b82525050565b6000610d31828486610b8e565b91508190509392505050565b6000602082019050610d526000830184610b70565b92915050565b6000602082019050610d6d6000830184610b7f565b92915050565b6000602082019050610d886000830184610bb3565b92915050565b60006040820190508181036000830152610da9818587610bc2565b9050610db86020830184610b70565b949350505050565b60006020820190508181036000830152610dd981610bef565b9050919050565b60006020820190508181036000830152610df981610c55565b9050919050565b60006020820190508181036000830152610e1981610c95565b9050919050565b60006020820190508181036000830152610e3981610cd5565b9050919050565b6000602082019050610e556000830184610d15565b92915050565b600081905092915050565b600082825260208201905092915050565b6000610e8282610e9f565b9050919050565b60008115159050919050565b6000819050919050565b600073ffffffffffffffffffffffffffffffffffffffff82169050919050565b6000819050919050565b6000610ed482610edb565b9050919050565b6000610ee682610e9f565b9050919050565b82818337600083830152505050565b6000610f0782610ebf565b91507fffffffffffffffffffffffffffffffffffffffffffffffffffffffffffffffff821415610f3a57610f39610f45565b5b600182019050919050565b7f4e487b7100000000000000000000000000000000000000000000000000000000600052601160045260246000fd5b6000601f19601f8301169050919050565b610f8e81610e77565b8114610f9957600080fd5b50565b610fa581610e95565b8114610fb057600080fd5b50565b610fbc81610ebf565b8114610fc757600080fd5b5056fea26469706673582212209ff0566cd391819886fb82cfc0b26818814f129915ba0e0d66815a59328159f264736f6c63430008000033",
  "linkReferences": {},
  "deployedLinkReferences": {}
}