{
  "_format": "hh-sol-artifact-1",
  "contractName": "Manager",
  "sourceName": "contracts/Manager.sol",
  "abi": [
    {
      "anonymous": false,
      "inputs": [
        {
          "indexed": false,
          "internalType": "string",
          "name": "assetId",
          "type": "string"
        },
        {
          "indexed": false,
          "internalType": "address",
          "name": "contractAddress",
          "type": "address"
        }
      ],
      "name": "NewAsset",
      "type": "event"
    },
    {
      "anonymous": false,
      "inputs": [
        {
          "indexed": true,
          "internalType": "address",
          "name": "previousOwner",
          "type": "address"
        },
        {
          "indexed": true,
          "internalType": "address",
          "name": "newOwner",
          "type": "address"
        }
      ],
      "name": "OwnershipTransferred",
      "type": "event"
    },
    {
      "inputs": [
        {
          "internalType": "string",
          "name": "asset",
          "type": "string"
        },
        {
          "internalType": "address",
          "name": "contractAddress",
          "type": "address"
        }
      ],
      "name": "addAsset",
      "outputs": [],
      "stateMutability": "nonpayable",
      "type": "function"
    },
    {
      "inputs": [
        {
          "internalType": "uint256",
          "name": "",
          "type": "uint256"
        }
      ],
      "name": "assetContracts",
      "outputs": [
        {
          "internalType": "contract BinaryBet",
          "name": "",
          "type": "address"
        }
      ],
      "stateMutability": "view",
      "type": "function"
    },
    {
      "inputs": [],
      "name": "assetCount",
      "outputs": [
        {
          "internalType": "uint256",
          "name": "",
          "type": "uint256"
        }
      ],
      "stateMutability": "view",
      "type": "function"
    },
    {
      "inputs": [
        {
          "internalType": "string",
          "name": "asset",
          "type": "string"
        }
      ],
      "name": "assetExists",
      "outputs": [
        {
          "internalType": "bool",
          "name": "",
          "type": "bool"
        }
      ],
      "stateMutability": "view",
      "type": "function"
    },
    {
      "inputs": [
        {
          "internalType": "bytes32",
          "name": "c__0x21a6e65c",
          "type": "bytes32"
        }
      ],
      "name": "c_0x21a6e65c",
      "outputs": [],
      "stateMutability": "pure",
      "type": "function"
    },
    {
      "inputs": [],
      "name": "claim",
      "outputs": [],
      "stateMutability": "nonpayable",
      "type": "function"
    },
    {
      "inputs": [],
      "name": "owner",
      "outputs": [
        {
          "internalType": "address",
          "name": "",
          "type": "address"
        }
      ],
      "stateMutability": "view",
      "type": "function"
    },
    {
      "inputs": [],
      "name": "renounceOwnership",
      "outputs": [],
      "stateMutability": "nonpayable",
      "type": "function"
    },
    {
      "inputs": [
        {
          "internalType": "address",
          "name": "newOwner",
          "type": "address"
        }
      ],
      "name": "transferOwnership",
      "outputs": [],
      "stateMutability": "nonpayable",
      "type": "function"
    },
    {
      "inputs": [],
      "name": "updatePrice",
      "outputs": [],
      "stateMutability": "nonpayable",
      "type": "function"
    },
    {
      "inputs": [
        {
          "internalType": "address",
          "name": "",
          "type": "address"
        }
      ],
      "name": "usedAddress",
      "outputs": [
        {
          "internalType": "bool",
          "name": "",
          "type": "bool"
        }
      ],
      "stateMutability": "view",
      "type": "function"
    },
    {
      "inputs": [
        {
          "internalType": "bytes32",
          "name": "",
          "type": "bytes32"
        }
      ],
      "name": "usedId",
      "outputs": [
        {
          "internalType": "bool",
          "name": "",
          "type": "bool"
        }
      ],
      "stateMutability": "view",
      "type": "function"
    }
  ],
  "bytecode": "0x608060405234801561001057600080fd5b5061002d61002261003260201b60201c565b61003a60201b60201c565b6100fe565b600033905090565b60008060009054906101000a900473ffffffffffffffffffffffffffffffffffffffff169050816000806101000a81548173ffffffffffffffffffffffffffffffffffffffff021916908373ffffffffffffffffffffffffffffffffffffffff1602179055508173ffffffffffffffffffffffffffffffffffffffff168173ffffffffffffffffffffffffffffffffffffffff167f8be0079c531659141344cd1fd0a4f28419497f9722a3daafe3b4186f6b6457e060405160405180910390a35050565b61162e8061010d6000396000f3fe608060405234801561001057600080fd5b50600436106100b45760003560e01c80638e5fa1db116100715780638e5fa1db14610141578063a7137d0514610171578063adc02a64146101a1578063eafe7a74146101bd578063ede87e4e146101db578063f2fde38b1461020b576100b4565b80632e455f89146100b95780634e71d92d146100e9578063673a7e28146100f3578063715018a6146100fd57806371fbbff6146101075780638da5cb5b14610123575b600080fd5b6100d360048036038101906100ce91906110af565b610227565b6040516100e09190611386565b60405180910390f35b6100f1610247565b005b6100fb610418565b005b6101056105de565b005b610121600480360381019061011c91906110af565b610666565b005b61012b610669565b604051610138919061136b565b60405180910390f35b61015b60048036038101906101569190611175565b610692565b60405161016891906113a1565b60405180910390f35b61018b60048036038101906101869190611086565b6106d1565b6040516101989190611386565b60405180910390f35b6101bb60048036038101906101b6919061111d565b6106f1565b005b6101c5610ce2565b6040516101d2919061146e565b60405180910390f35b6101f560048036038101906101f091906110d8565b610d73565b6040516102029190611386565b60405180910390f35b61022560048036038101906102209190611086565b610e39565b005b60016020528060005260406000206000915054906101000a900460ff1681565b6102737fe2ee63ac651179e8d4baf6c7b87ed422239d38c4db5b84e74f280bc970d3e61c60001b610666565b61029f7f7b0f873a7ab4c301bf3c6cd2131e5c604e2c9155fb82a458971d7e1a0939bdbe60001b610666565b6102cb7ff8d4e2943673be7bbaf4eb02134831438defc401c60c72ab33b63ebf20e7e30460001b610666565b60005b600380549050811015610415576103077ff8f74c476bffe3d0f6847c40fd95cfb4d1743b3db540f06e0206c6e89990d07860001b610666565b6103337fc4c05942abe86a9a742eed04c5e36cb3906316bc3d369e9e489d000b12592a0160001b610666565b6003818154811061036d577f4e487b7100000000000000000000000000000000000000000000000000000000600052603260045260246000fd5b9060005260206000200160009054906101000a900473ffffffffffffffffffffffffffffffffffffffff1673ffffffffffffffffffffffffffffffffffffffff166340b8405a336040518263ffffffff1660e01b81526004016103d0919061136b565b600060405180830381600087803b1580156103ea57600080fd5b505af11580156103fe573d6000803e3d6000fd5b50505050808061040d9061152a565b9150506102ce565b50565b6104447f2152f7fa7e30d93d4aa097a8cf8305f9835d987b21087e9093a1e5a89d3b800960001b610666565b6104707f8c83a02554597f2569e0b6dacefa0611e45926c3d07e226c1bf4ed31d9c0fa1260001b610666565b61049c7fb8a4d427ceeeefc2f6b10521d47eb354ab3807b6c689f5ad1a350430b4ee43cb60001b610666565b60005b6003805490508110156105db576104d87f9b49550e7dccdcb4c4e97b65c1994efbab8145aa2207007d9d84cea76690cd2860001b610666565b6105047f03daf249d44b9afe5dadf1a1c2272573029a9a8d5bc732f444135a2796b3361960001b610666565b6003818154811061053e577f4e487b7100000000000000000000000000000000000000000000000000000000600052603260045260246000fd5b9060005260206000200160009054906101000a900473ffffffffffffffffffffffffffffffffffffffff1673ffffffffffffffffffffffffffffffffffffffff1663673a7e286040518163ffffffff1660e01b8152600401600060405180830381600087803b1580156105b057600080fd5b505af11580156105c4573d6000803e3d6000fd5b5050505080806105d39061152a565b91505061049f565b50565b6105e6610f31565b73ffffffffffffffffffffffffffffffffffffffff16610604610669565b73ffffffffffffffffffffffffffffffffffffffff161461065a576040517f08c379a00000000000000000000000000000000000000000000000000000000081526004016106519061140e565b60405180910390fd5b6106646000610f39565b565b50565b60008060009054906101000a900473ffffffffffffffffffffffffffffffffffffffff16905090565b600381815481106106a257600080fd5b906000526020600020016000915054906101000a900473ffffffffffffffffffffffffffffffffffffffff1681565b60026020528060005260406000206000915054906101000a900460ff1681565b6106f9610f31565b73ffffffffffffffffffffffffffffffffffffffff16610717610669565b73ffffffffffffffffffffffffffffffffffffffff161461076d576040517f08c379a00000000000000000000000000000000000000000000000000000000081526004016107649061140e565b60405180910390fd5b6107997f581b8b558d35d56ee9da846cf31e335810a802e3882c1471adcec2fe07c09c8560001b610666565b6107c57f4bae9b11a6be32d800c68d2cabacd0a3c8f80d3ccf10a8888133686e7a92386a60001b610666565b6107f17f697c85b556bdcd529954ee652709bd3ec1c3308494efe371042438f2b9e70a8660001b610666565b60008383604051610803929190611352565b604051809103902090506108397fb6d3a3904eb0f5524d5ddd87da9c000d27430f9ae962acbf1c13f88552d8816860001b610666565b6108657f084a77f3c1c56dddd0905afc4e984cc48df933f74cd5dd51f31d9e8aca91e2bd60001b610666565b6108917f75966c07aea8b2731fe58bd576c33887d78bd5ed638b9d552d9abf71b76232ec60001b610666565b6001600082815260200190815260200160002060009054906101000a900460ff16156108f2576040517f08c379a00000000000000000000000000000000000000000000000000000000081526004016108e99061142e565b60405180910390fd5b61091e7f263e149de6c5649757021f2878b3b5482377dcfe91cb81fc77e653690b0dae3460001b610666565b61094a7f53387f581dc939d5001e9e00a4f41a6a0dafe3e8c296b83a9fb5c8885af352c360001b610666565b6109767f49b3b450a93181bf9440a0e51bb45baa8aaf49fc5db9bb1e7e8606ae4362dd0e60001b610666565b6109a27f2e807979fc05f9d5eebd33048378eb2fedefe07b599965992a28d54bba18570960001b610666565b600260008373ffffffffffffffffffffffffffffffffffffffff1673ffffffffffffffffffffffffffffffffffffffff16815260200190815260200160002060009054906101000a900460ff1615610a2f576040517f08c379a0000000000000000000000000000000000000000000000000000000008152600401610a269061144e565b60405180910390fd5b610a5b7fbaab9c93e8b509d33fad37b761b11c2212eb80ac1467c8b83be7d9469f773b9660001b610666565b610a877f051018d47e3f73396bd55f60c84a74cec925c7423e3dfdaefaacf8f0cb4b166160001b610666565b610ab37f72180dd87c822e34858798d4e7d2c6bdbbf784574de94bd5c40549e54a4dff8d60001b610666565b600180600083815260200190815260200160002060006101000a81548160ff021916908315150217905550610b0a7f548a0475daaeb3ab24a4935fe2a13f441eca72cd3a05f376e267f1ca176f56a160001b610666565b610b367f514b65dd1e9d2882a6fc516800a2bdd9d7dc03b693170ab15f0d6d4815d3bb6560001b610666565b6001600260008473ffffffffffffffffffffffffffffffffffffffff1673ffffffffffffffffffffffffffffffffffffffff16815260200190815260200160002060006101000a81548160ff021916908315150217905550610bba7fd4c88cd2f78fd12a0c7f590402a98f05362934eb34d27c402140bbd7b85a21ea60001b610666565b610be67f3ae12004968ffa843042d9713513cc396acad0887896b61093554853944de90960001b610666565b6003829080600181540180825580915050600190039060005260206000200160009091909190916101000a81548173ffffffffffffffffffffffffffffffffffffffff021916908373ffffffffffffffffffffffffffffffffffffffff160217905550610c757fa09ba8e92a5e8012a73fa59659ced29b4ef1dde06754adec7dd7b98d475bafcf60001b610666565b610ca17f3c5e5961979d4a4a0e6f76a84241af0f29272f6c05af8df911733c818efcc1b460001b610666565b7f76b150a3f71df5c4a3681e25a477233ac7c0ef5a61999dae086cca9761d9da89848484604051610cd4939291906113bc565b60405180910390a150505050565b6000610d107f514e0699ee7bfa4c83777a19816803100009009ab1a7c59a8e20cb0e8744a72460001b610666565b610d3c7ff4a7fac7cc5127aff287a62e5e5c6c4784254fc05014deec8e5f4b497665c08060001b610666565b610d687fa5d5278a27b33ddd29c34328363a1238d3a9795cdc8bf2bdc8e306e0eaf8d44f60001b610666565b600380549050905090565b6000610da17ffd6d42c8a4759c3369d9708f449172a3870592ef79c2fef18d2c08ce3cac462b60001b610666565b610dcd7f84845f3a9b0ea1f69b9cc67fdd2b2bb6ac2a7948ea85189ef2d445be864e5d4f60001b610666565b610df97f79eb646b20418e9bde1be8cc4241ce767b577dd4ba458d049780b024d89a671b60001b610666565b600160008484604051610e0d929190611352565b6040518091039020815260200190815260200160002060009054906101000a900460ff16905092915050565b610e41610f31565b73ffffffffffffffffffffffffffffffffffffffff16610e5f610669565b73ffffffffffffffffffffffffffffffffffffffff1614610eb5576040517f08c379a0000000000000000000000000000000000000000000000000000000008152600401610eac9061140e565b60405180910390fd5b600073ffffffffffffffffffffffffffffffffffffffff168173ffffffffffffffffffffffffffffffffffffffff161415610f25576040517f08c379a0000000000000000000000000000000000000000000000000000000008152600401610f1c906113ee565b60405180910390fd5b610f2e81610f39565b50565b600033905090565b60008060009054906101000a900473ffffffffffffffffffffffffffffffffffffffff169050816000806101000a81548173ffffffffffffffffffffffffffffffffffffffff021916908373ffffffffffffffffffffffffffffffffffffffff1602179055508173ffffffffffffffffffffffffffffffffffffffff168173ffffffffffffffffffffffffffffffffffffffff167f8be0079c531659141344cd1fd0a4f28419497f9722a3daafe3b4186f6b6457e060405160405180910390a35050565b60008135905061100c816115b3565b92915050565b600081359050611021816115ca565b92915050565b60008083601f84011261103957600080fd5b8235905067ffffffffffffffff81111561105257600080fd5b60208301915083600182028301111561106a57600080fd5b9250929050565b600081359050611080816115e1565b92915050565b60006020828403121561109857600080fd5b60006110a684828501610ffd565b91505092915050565b6000602082840312156110c157600080fd5b60006110cf84828501611012565b91505092915050565b600080602083850312156110eb57600080fd5b600083013567ffffffffffffffff81111561110557600080fd5b61111185828601611027565b92509250509250929050565b60008060006040848603121561113257600080fd5b600084013567ffffffffffffffff81111561114c57600080fd5b61115886828701611027565b9350935050602061116b86828701610ffd565b9150509250925092565b60006020828403121561118757600080fd5b600061119584828501611071565b91505092915050565b6111a7816114a5565b82525050565b6111b6816114b7565b82525050565b60006111c88385611489565b93506111d583858461151b565b82840190509392505050565b6111ea816114f7565b82525050565b60006111fc8385611494565b935061120983858461151b565b611212836115a2565b840190509392505050565b600061122a602683611494565b91507f4f776e61626c653a206e6577206f776e657220697320746865207a65726f206160008301527f64647265737300000000000000000000000000000000000000000000000000006020830152604082019050919050565b6000611290602083611494565b91507f4f776e61626c653a2063616c6c6572206973206e6f7420746865206f776e65726000830152602082019050919050565b60006112d0601483611494565b91507f417373657420616c7265616479206578697374730000000000000000000000006000830152602082019050919050565b6000611310601483611494565b91507f4164647265737320616c726561647920757365640000000000000000000000006000830152602082019050919050565b61134c816114ed565b82525050565b600061135f8284866111bc565b91508190509392505050565b6000602082019050611380600083018461119e565b92915050565b600060208201905061139b60008301846111ad565b92915050565b60006020820190506113b660008301846111e1565b92915050565b600060408201905081810360008301526113d78185876111f0565b90506113e6602083018461119e565b949350505050565b600060208201905081810360008301526114078161121d565b9050919050565b6000602082019050818103600083015261142781611283565b9050919050565b60006020820190508181036000830152611447816112c3565b9050919050565b6000602082019050818103600083015261146781611303565b9050919050565b60006020820190506114836000830184611343565b92915050565b600081905092915050565b600082825260208201905092915050565b60006114b0826114cd565b9050919050565b60008115159050919050565b6000819050919050565b600073ffffffffffffffffffffffffffffffffffffffff82169050919050565b6000819050919050565b600061150282611509565b9050919050565b6000611514826114cd565b9050919050565b82818337600083830152505050565b6000611535826114ed565b91507fffffffffffffffffffffffffffffffffffffffffffffffffffffffffffffffff82141561156857611567611573565b5b600182019050919050565b7f4e487b7100000000000000000000000000000000000000000000000000000000600052601160045260246000fd5b6000601f19601f8301169050919050565b6115bc816114a5565b81146115c757600080fd5b50565b6115d3816114c3565b81146115de57600080fd5b50565b6115ea816114ed565b81146115f557600080fd5b5056fea26469706673582212208029d538f914d530c50da5b8df3c13ead178af950a61bef722d541cc1529edf864736f6c63430008000033",
  "linkReferences": {},
  "deployedLinkReferences": {}
}