{
  "address": "0x3f0F0928830e21c8b5421402c6401d73FF91767C",
  "abi": [
    {
      "inputs": [
        {
          "internalType": "uint256",
          "name": "_windowDuration",
          "type": "uint256"
        },
        {
          "internalType": "uint256",
          "name": "_fee",
          "type": "uint256"
        },
        {
          "internalType": "address",
          "name": "aggregator",
          "type": "address"
        },
        {
          "internalType": "address",
          "name": "stakingContract",
          "type": "address"
        },
        {
          "internalType": "address",
          "name": "tokenContract",
          "type": "address"
        },
        {
          "internalType": "uint256",
          "name": "reward",
          "type": "uint256"
        }
      ],
      "stateMutability": "nonpayable",
      "type": "constructor"
    },
    {
      "anonymous": false,
      "inputs": [
        {
          "indexed": true,
          "internalType": "uint256",
          "name": "windowNumber",
          "type": "uint256"
        },
        {
          "indexed": true,
          "internalType": "address",
          "name": "user",
          "type": "address"
        },
        {
          "indexed": false,
          "internalType": "uint256",
          "name": "gain",
          "type": "uint256"
        }
      ],
      "name": "BetSettled",
      "type": "event"
    },
    {
      "anonymous": false,
      "inputs": [
        {
          "indexed": true,
          "internalType": "address",
          "name": "user",
          "type": "address"
        },
        {
          "indexed": true,
          "internalType": "uint256",
          "name": "windowNumber",
          "type": "uint256"
        },
        {
          "indexed": false,
          "internalType": "uint256",
          "name": "value",
          "type": "uint256"
        },
        {
          "indexed": false,
          "internalType": "uint8",
          "name": "side",
          "type": "uint8"
        }
      ],
      "name": "NewBet",
      "type": "event"
    },
    {
      "anonymous": false,
      "inputs": [
        {
          "indexed": true,
          "internalType": "uint256",
          "name": "windowNumber",
          "type": "uint256"
        },
        {
          "indexed": false,
          "internalType": "uint256",
          "name": "price",
          "type": "uint256"
        }
      ],
      "name": "PriceUpdated",
      "type": "event"
    },
    {
      "inputs": [],
      "name": "REWARD_PER_WINDOW",
      "outputs": [
        {
          "internalType": "uint256",
          "name": "",
          "type": "uint256"
        }
      ],
      "stateMutability": "view",
      "type": "function"
    },
    {
      "inputs": [],
      "name": "accumulatedFees",
      "outputs": [
        {
          "internalType": "uint256",
          "name": "",
          "type": "uint256"
        }
      ],
      "stateMutability": "view",
      "type": "function"
    },
    {
      "inputs": [
        {
          "internalType": "address",
          "name": "_user",
          "type": "address"
        }
      ],
      "name": "betListLen",
      "outputs": [
        {
          "internalType": "uint256",
          "name": "",
          "type": "uint256"
        }
      ],
      "stateMutability": "view",
      "type": "function"
    },
    {
      "inputs": [
        {
          "internalType": "uint256",
          "name": "referencePrice",
          "type": "uint256"
        },
        {
          "internalType": "uint256",
          "name": "settlementPrice",
          "type": "uint256"
        }
      ],
      "name": "betResult",
      "outputs": [
        {
          "internalType": "uint8",
          "name": "",
          "type": "uint8"
        }
      ],
      "stateMutability": "pure",
      "type": "function"
    },
    {
      "inputs": [
        {
          "internalType": "uint256",
          "name": "upStake",
          "type": "uint256"
        },
        {
          "internalType": "uint256",
          "name": "downStake",
          "type": "uint256"
        },
        {
          "internalType": "uint256",
          "name": "poolUp",
          "type": "uint256"
        },
        {
          "internalType": "uint256",
          "name": "poolDown",
          "type": "uint256"
        }
      ],
      "name": "calculateTokenReward",
      "outputs": [
        {
          "internalType": "uint256",
          "name": "",
          "type": "uint256"
        }
      ],
      "stateMutability": "view",
      "type": "function"
    },
    {
      "inputs": [
        {
          "internalType": "uint256",
          "name": "value",
          "type": "uint256"
        },
        {
          "internalType": "uint256",
          "name": "_fee",
          "type": "uint256"
        }
      ],
      "name": "computeFee",
      "outputs": [
        {
          "internalType": "uint256",
          "name": "betFee",
          "type": "uint256"
        }
      ],
      "stateMutability": "pure",
      "type": "function"
    },
    {
      "inputs": [],
      "name": "deployTimestamp",
      "outputs": [
        {
          "internalType": "uint256",
          "name": "",
          "type": "uint256"
        }
      ],
      "stateMutability": "view",
      "type": "function"
    },
    {
      "inputs": [],
      "name": "fee",
      "outputs": [
        {
          "internalType": "uint256",
          "name": "",
          "type": "uint256"
        }
      ],
      "stateMutability": "view",
      "type": "function"
    },
    {
      "inputs": [
        {
          "internalType": "uint256",
          "name": "windowNumber",
          "type": "uint256"
        }
      ],
      "name": "getPoolValues",
      "outputs": [
        {
          "internalType": "uint256",
          "name": "",
          "type": "uint256"
        },
        {
          "internalType": "uint256",
          "name": "",
          "type": "uint256"
        }
      ],
      "stateMutability": "view",
      "type": "function"
    },
    {
      "inputs": [
        {
          "internalType": "address",
          "name": "_user",
          "type": "address"
        },
        {
          "internalType": "uint256",
          "name": "index",
          "type": "uint256"
        }
      ],
      "name": "getUserBetList",
      "outputs": [
        {
          "internalType": "uint256",
          "name": "",
          "type": "uint256"
        }
      ],
      "stateMutability": "view",
      "type": "function"
    },
    {
      "inputs": [
        {
          "internalType": "uint256",
          "name": "windowNumber",
          "type": "uint256"
        },
        {
          "internalType": "address",
          "name": "_user",
          "type": "address"
        }
      ],
      "name": "getUserStake",
      "outputs": [
        {
          "internalType": "uint256",
          "name": "",
          "type": "uint256"
        },
        {
          "internalType": "uint256",
          "name": "",
          "type": "uint256"
        }
      ],
      "stateMutability": "view",
      "type": "function"
    },
    {
      "inputs": [
        {
          "internalType": "uint256",
          "name": "window",
          "type": "uint256"
        }
      ],
      "name": "getWindowBetPrices",
      "outputs": [
        {
          "internalType": "uint256",
          "name": "",
          "type": "uint256"
        },
        {
          "internalType": "uint256",
          "name": "",
          "type": "uint256"
        }
      ],
      "stateMutability": "view",
      "type": "function"
    },
    {
      "inputs": [
        {
          "internalType": "uint256",
          "name": "currentTimestamp",
          "type": "uint256"
        },
        {
          "internalType": "uint256",
          "name": "_windowDuration",
          "type": "uint256"
        },
        {
          "internalType": "uint256",
          "name": "_deployTimestamp",
          "type": "uint256"
        }
      ],
      "name": "getWindowNumber",
      "outputs": [
        {
          "internalType": "uint256",
          "name": "windowNumber",
          "type": "uint256"
        }
      ],
      "stateMutability": "pure",
      "type": "function"
    },
    {
      "inputs": [
        {
          "internalType": "uint256",
          "name": "windowNumber",
          "type": "uint256"
        },
        {
          "internalType": "uint256",
          "name": "_windowDuration",
          "type": "uint256"
        },
        {
          "internalType": "uint256",
          "name": "_currentTimestamp",
          "type": "uint256"
        }
      ],
      "name": "getWindowStartingTimestamp",
      "outputs": [
        {
          "internalType": "uint256",
          "name": "startingTimestamp",
          "type": "uint256"
        }
      ],
      "stateMutability": "pure",
      "type": "function"
    },
    {
      "inputs": [
        {
          "internalType": "uint8",
          "name": "side",
          "type": "uint8"
        }
      ],
      "name": "placeBet",
      "outputs": [],
      "stateMutability": "payable",
      "type": "function"
    },
    {
      "inputs": [
        {
          "internalType": "uint256",
          "name": "",
          "type": "uint256"
        }
      ],
      "name": "pools",
      "outputs": [
        {
          "internalType": "uint256",
          "name": "downValue",
          "type": "uint256"
        },
        {
          "internalType": "uint256",
          "name": "upValue",
          "type": "uint256"
        }
      ],
      "stateMutability": "view",
      "type": "function"
    },
    {
      "inputs": [
        {
          "internalType": "uint256",
          "name": "upStake",
          "type": "uint256"
        },
        {
          "internalType": "uint256",
          "name": "downStake",
          "type": "uint256"
        },
        {
          "internalType": "uint256",
          "name": "poolUp",
          "type": "uint256"
        },
        {
          "internalType": "uint256",
          "name": "poolDown",
          "type": "uint256"
        },
        {
          "internalType": "uint8",
          "name": "res",
          "type": "uint8"
        }
      ],
      "name": "settleBet",
      "outputs": [
        {
          "internalType": "uint256",
          "name": "gain",
          "type": "uint256"
        },
        {
          "internalType": "uint256",
          "name": "fees",
          "type": "uint256"
        }
      ],
      "stateMutability": "pure",
      "type": "function"
    },
    {
      "inputs": [
        {
          "internalType": "address",
          "name": "_user",
          "type": "address"
        }
      ],
      "name": "updateBalance",
      "outputs": [],
      "stateMutability": "nonpayable",
      "type": "function"
    },
    {
      "inputs": [],
      "name": "updatePrice",
      "outputs": [],
      "stateMutability": "nonpayable",
      "type": "function"
    },
    {
      "inputs": [],
      "name": "windowDuration",
      "outputs": [
        {
          "internalType": "uint256",
          "name": "",
          "type": "uint256"
        }
      ],
      "stateMutability": "view",
      "type": "function"
    },
    {
      "inputs": [
        {
          "internalType": "uint256",
          "name": "",
          "type": "uint256"
        }
      ],
      "name": "windowPrice",
      "outputs": [
        {
          "internalType": "uint256",
          "name": "",
          "type": "uint256"
        }
      ],
      "stateMutability": "view",
      "type": "function"
    },
    {
      "inputs": [
        {
          "internalType": "uint256",
          "name": "window",
          "type": "uint256"
        },
        {
          "internalType": "uint256",
          "name": "currentWindow",
          "type": "uint256"
        },
        {
          "internalType": "uint256",
          "name": "initialPrice",
          "type": "uint256"
        },
        {
          "internalType": "uint256",
          "name": "finalPrice",
          "type": "uint256"
        }
      ],
      "name": "windowStatus",
      "outputs": [
        {
          "internalType": "enum BinaryBet.WindowStatus",
          "name": "status",
          "type": "uint8"
        }
      ],
      "stateMutability": "pure",
      "type": "function"
    }
  ],
  "transactionHash": "0xe671bea602b84917e5277a78e66c2e759d6ae5ca735f2606ea3a9fda62ea40b9",
  "args": [
    300,
    2,
    "0x5498BB86BC934c8D34FDA08E81D444153d0D06aD",
    "0xB6D880046aFcAdDdF73E27A985FE1FE49D08a91D",
    "0xe08a65604c0A46bE83904F5fa92C31F69E27BFdE",
    332
  ],
  "solcInputHash": "cc7994e4c48a4ad29cece3053514f93f",
  "bytecode": "0x6101606040523480156200001257600080fd5b5060405162001945380380620019458339810160408190526200003591620000d2565b60648511156200004457600080fd5b600080546001600160a01b0386166001600160a01b031990911617905542610120526101408690526101008590526001600160601b0319606084811b821660c081905260a05283901b16608052620000a581670de0b6b3a764000062000138565b60e0525062000166945050505050565b80516001600160a01b0381168114620000cd57600080fd5b919050565b60008060008060008060c08789031215620000ec57600080fd5b86519550602087015194506200010560408801620000b5565b93506200011560608801620000b5565b92506200012560808801620000b5565b915060a087015190509295509295509295565b60008160001904831182151516156200016157634e487b7160e01b600052601160045260246000fd5b500290565b60805160601c60a05160601c60c05160601c60e0516101005161012051610140516117386200020d600039600081816102b60152818161062c01528181610a070152610bfa0152600081816102ea0152818161064d01528181610a280152610c1b0152600081816104f701526109ba0152600081816103330152610e58015260005050600061119b015260008181610f1201528181610ff201526110a201526117386000f3fe6080604052600436106101755760003560e01c806389b808a7116100cb578063c33909011161007f578063ddca3f4311610059578063ddca3f43146104e5578063e0d65d8714610519578063f83b35fb1461054657600080fd5b8063c339090114610485578063ca055e53146104a5578063daaac9d2146104c557600080fd5b8063ac4afa38116100b0578063ac4afa3814610404578063b134894e14610438578063b47a35661461046557600080fd5b806389b808a7146103555780639626a2301461039b57600080fd5b8063508ba0bd1161012d578063607ad0d711610107578063607ad0d7146102d8578063673a7e281461030c57806371a422071461032157600080fd5b8063508ba0bd1461026e578063587f5ed71461028e5780635c11ff7a146102a457600080fd5b80632ff284c21161015e5780632ff284c21461020b57806340b8405a14610239578063430468441461025b57600080fd5b80630eff4d881461017a5780631bb5abf9146101d9575b600080fd5b34801561018657600080fd5b506101bf6101953660046112e8565b60009081526001602081815260409283902083518085019094528054808552920154920182905291565b604080519283526020830191909152015b60405180910390f35b3480156101e557600080fd5b506101f96101f4366004611301565b610566565b60405160ff90911681526020016101d0565b34801561021757600080fd5b5061022b610226366004611301565b610592565b6040519081526020016101d0565b34801561024557600080fd5b5061025961025436600461134c565b6105b1565b005b610259610269366004611378565b610933565b34801561027a57600080fd5b5061022b610289366004611393565b610bc8565b34801561029a57600080fd5b5061022b60025481565b3480156102b057600080fd5b5061022b7f000000000000000000000000000000000000000000000000000000000000000081565b3480156102e457600080fd5b5061022b7f000000000000000000000000000000000000000000000000000000000000000081565b34801561031857600080fd5b50610259610bf2565b34801561032d57600080fd5b5061022b7f000000000000000000000000000000000000000000000000000000000000000081565b34801561036157600080fd5b5061022b61037036600461134c565b73ffffffffffffffffffffffffffffffffffffffff1660009081526004602052604090206001015490565b3480156103a757600080fd5b506101bf6103b63660046113bf565b73ffffffffffffffffffffffffffffffffffffffff16600090815260046020908152604080832093835292815290829020825180840190935280548084526001909101549290910182905291565b34801561041057600080fd5b506101bf61041f3660046112e8565b6001602081905260009182526040909120805491015482565b34801561044457600080fd5b506104586104533660046113eb565b610cad565b6040516101d0919061144c565b34801561047157600080fd5b5061022b61048036600461148d565b610d10565b34801561049157600080fd5b5061022b6104a0366004611393565b610d5d565b3480156104b157600080fd5b506101bf6104c03660046114b7565b610d7f565b3480156104d157600080fd5b5061022b6104e03660046113eb565b610e51565b3480156104f157600080fd5b5061022b7f000000000000000000000000000000000000000000000000000000000000000081565b34801561052557600080fd5b5061022b6105343660046112e8565b60036020526000908152604090205481565b34801561055257600080fd5b506101bf6105613660046112e8565b610e99565b6000828210156105785750600061058c565b828211156105885750600161058c565b5060025b92915050565b600060646105a0838561152f565b6105aa919061156c565b9392505050565b73ffffffffffffffffffffffffffffffffffffffff8116600090815260046020526040902060018101546105e3575050565b600181015460009081905b80156108d65760008460010160018361060791906115a7565b81548110610617576106176115be565b906000526020600020015490506000610671427f00000000000000000000000000000000000000000000000000000000000000007f0000000000000000000000000000000000000000000000000000000000000000610bc8565b905060008061067f84610e99565b91509150600061069185858585610cad565b905060008160038111156106a7576106a761141d565b14806106c4575060018160038111156106c2576106c261141d565b145b156106d35750505050506108c4565b600060038260038111156106e9576106e961141d565b1415610700576106f98484610566565b905061071e565b60028260038111156107145761071461141d565b141561071e575060025b6001808b0180549091610730916115a7565b81548110610740576107406115be565b90600052602060002001548a60010160018961075c91906115a7565b8154811061076c5761076c6115be565b60009182526020909120015560018a0180548061078b5761078b6115ed565b6000828152602080822083017fffffffffffffffffffffffffffffffffffffffffffffffffffffffffffffffff9081018390559092019092558782528b8152604080832081518083018352815481526001918201548185019081528b86528285528386208451808601909552805480865293015494840185905251815191959394849361081a93919089610d7f565b9092509050610829828e61161c565b9c5080600254610839919061161c565b600255602080850151855191850151855160009361085993929091610e51565b9050610865818e61161c565b9c508f73ffffffffffffffffffffffffffffffffffffffff168b7f6f277b50171c654e40c771d9c2bbf19e070eeb21cce6f8e9a80334564279e395856040516108b091815260200190565b60405180910390a350505050505050505050505b806108ce81611634565b9150506105ee565b5060405173ffffffffffffffffffffffffffffffffffffffff85169083156108fc029084906000818181858888f1935050505015801561091a573d6000803e3d6000fd5b506109258482610ee2565b61092d611191565b50505050565b600034116109a1576040517f08c379a000000000000000000000000000000000000000000000000000000000815260206004820152601d60248201527f4f6e6c79207374726963746c7920706f7369746976652076616c756573000000604482015260640160405180910390fd5b6109a9610bf2565b6109b2336105b1565b60006109de347f0000000000000000000000000000000000000000000000000000000000000000610592565b9050806002546109ee919061161c565b60025560006109fd82346115a7565b90506000610a4c427f00000000000000000000000000000000000000000000000000000000000000007f0000000000000000000000000000000000000000000000000000000000000000610bc8565b3360009081526004602052604090206001810154919250901580610a9c5750600180820180549091610a7d916115a7565b81548110610a8d57610a8d6115be565b90600052602060002001548214155b15610abb57600180820180549182018155600090815260209020018290555b60018560ff166001811115610ad257610ad261141d565b6001811115610ae357610ae361141d565b1415610b3b5760008281526020829052604081206001018054859290610b0a90849061161c565b909155505060008281526001602081905260408220018054859290610b3090849061161c565b90915550610b829050565b60008281526020829052604081208054859290610b5990849061161c565b909155505060008281526001602052604081208054859290610b7c90849061161c565b90915550505b6040805184815260ff87166020820152839133917f85ff162f60a0eab11e1e0d3d9cfa18a46d7038a29751af4130dbaeeadbd37ed4910160405180910390a35050505050565b600082610bd583866115a7565b610bdf919061156c565b610bea90600161161c565b949350505050565b6000610c3f427f00000000000000000000000000000000000000000000000000000000000000007f0000000000000000000000000000000000000000000000000000000000000000610bc8565b600081815260036020526040902054909150610caa57610c5d611223565b600082815260036020526040908190208290555182917f945c1c4e99aa89f648fbfe3df471b916f719e16d960fcec0737d4d56bd69683891610ca191815260200190565b60405180910390a25b50565b6000610cba85600261161c565b841015610cc957506000610bea565b610cd485600361161c565b84108015610ce0575081155b15610ced57506001610bea565b821580610cf8575081155b15610d0557506002610bea565b506003949350505050565b73ffffffffffffffffffffffffffffffffffffffff82166000908152600460205260408120600101805483908110610d4a57610d4a6115be565b9060005260206000200154905092915050565b600082610d6b6001866115a7565b610d75919061152f565b610bea908361161c565b60008060008360ff166002811115610d9957610d9961141d565b90506000610da7868861161c565b90506001826002811115610dbd57610dbd61141d565b148015610dc957508615155b15610de057610dd9818a896112d1565b9350610e45565b6000826002811115610df457610df461141d565b148015610e0057508515155b15610e1057610dd98189886112d1565b6002826002811115610e2457610e2461141d565b1415610e3457610dd9888a61161c565b60009350610e42888a61161c565b92505b50509550959350505050565b6000610e907f0000000000000000000000000000000000000000000000000000000000000000610e81868861161c565b610e8b858761161c565b6112d1565b95945050505050565b600080600381610eaa85600161161c565b81526020019081526020016000205460036000856002610eca919061161c565b81526020019081526020016000205491509150915091565b6040517f70a0823100000000000000000000000000000000000000000000000000000000815230600482015281907f000000000000000000000000000000000000000000000000000000000000000073ffffffffffffffffffffffffffffffffffffffff16906370a082319060240160206040518083038186803b158015610f6957600080fd5b505afa158015610f7d573d6000803e3d6000fd5b505050506040513d601f19601f82011682018060405250810190610fa19190611669565b10611074576040517fa9059cbb00000000000000000000000000000000000000000000000000000000815273ffffffffffffffffffffffffffffffffffffffff8381166004830152602482018390527f0000000000000000000000000000000000000000000000000000000000000000169063a9059cbb906044015b602060405180830381600087803b15801561103757600080fd5b505af115801561104b573d6000803e3d6000fd5b505050506040513d601f19601f8201168201806040525081019061106f9190611682565b505050565b6040517f70a082310000000000000000000000000000000000000000000000000000000081523060048201527f000000000000000000000000000000000000000000000000000000000000000073ffffffffffffffffffffffffffffffffffffffff169063a9059cbb90849083906370a082319060240160206040518083038186803b15801561110357600080fd5b505afa158015611117573d6000803e3d6000fd5b505050506040513d601f19601f8201168201806040525081019061113b9190611669565b6040517fffffffff0000000000000000000000000000000000000000000000000000000060e085901b16815273ffffffffffffffffffffffffffffffffffffffff9092166004830152602482015260440161101d565b60025415611221577f000000000000000000000000000000000000000000000000000000000000000073ffffffffffffffffffffffffffffffffffffffff16625c33e16002546040518263ffffffff1660e01b81526004016000604051808303818588803b15801561120257600080fd5b505af1158015611216573d6000803e3d6000fd5b505060006002555050505b565b60008054604080517ffeaf968c0000000000000000000000000000000000000000000000000000000081529051839273ffffffffffffffffffffffffffffffffffffffff169163feaf968c9160048083019260a0929190829003018186803b15801561128e57600080fd5b505afa1580156112a2573d6000803e3d6000fd5b505050506040513d601f19601f820116820180604052508101906112c691906116be565b509195945050505050565b6000816112de858561152f565b610bea919061156c565b6000602082840312156112fa57600080fd5b5035919050565b6000806040838503121561131457600080fd5b50508035926020909101359150565b803573ffffffffffffffffffffffffffffffffffffffff8116811461134757600080fd5b919050565b60006020828403121561135e57600080fd5b6105aa82611323565b803560ff8116811461134757600080fd5b60006020828403121561138a57600080fd5b6105aa82611367565b6000806000606084860312156113a857600080fd5b505081359360208301359350604090920135919050565b600080604083850312156113d257600080fd5b823591506113e260208401611323565b90509250929050565b6000806000806080858703121561140157600080fd5b5050823594602084013594506040840135936060013592509050565b7f4e487b7100000000000000000000000000000000000000000000000000000000600052602160045260246000fd5b6020810160048310611487577f4e487b7100000000000000000000000000000000000000000000000000000000600052602160045260246000fd5b91905290565b600080604083850312156114a057600080fd5b6114a983611323565b946020939093013593505050565b600080600080600060a086880312156114cf57600080fd5b853594506020860135935060408601359250606086013591506114f460808701611367565b90509295509295909350565b7f4e487b7100000000000000000000000000000000000000000000000000000000600052601160045260246000fd5b6000817fffffffffffffffffffffffffffffffffffffffffffffffffffffffffffffffff048311821515161561156757611567611500565b500290565b6000826115a2577f4e487b7100000000000000000000000000000000000000000000000000000000600052601260045260246000fd5b500490565b6000828210156115b9576115b9611500565b500390565b7f4e487b7100000000000000000000000000000000000000000000000000000000600052603260045260246000fd5b7f4e487b7100000000000000000000000000000000000000000000000000000000600052603160045260246000fd5b6000821982111561162f5761162f611500565b500190565b60008161164357611643611500565b507fffffffffffffffffffffffffffffffffffffffffffffffffffffffffffffffff0190565b60006020828403121561167b57600080fd5b5051919050565b60006020828403121561169457600080fd5b815180151581146105aa57600080fd5b805169ffffffffffffffffffff8116811461134757600080fd5b600080600080600060a086880312156116d657600080fd5b6116df866116a4565b94506020860151935060408601519250606086015191506114f4608087016116a456fea26469706673582212200105b470fb2875d6806b762ca5768c093a26c4e11afabd97fdbe5de9aed269ae64736f6c63430008080033",
  "devdoc": {
    "kind": "dev",
    "methods": {},
    "version": 1
  },
  "userdoc": {
    "kind": "user",
    "methods": {},
    "version": 1
  },
  "storageLayout": {
    "storage": [
      {
        "astId": 1550,
        "contract": "contracts/BinaryBet.sol:BinaryBet",
        "label": "priceFeed",
        "offset": 0,
        "slot": "0",
        "type": "t_contract(AggregatorV3Interface)45"
      },
      {
        "astId": 1565,
        "contract": "contracts/BinaryBet.sol:BinaryBet",
        "label": "pools",
        "offset": 0,
        "slot": "1",
        "type": "t_mapping(t_uint256,t_struct(Pool)1547_storage)"
      },
      {
        "astId": 1567,
        "contract": "contracts/BinaryBet.sol:BinaryBet",
        "label": "accumulatedFees",
        "offset": 0,
        "slot": "2",
        "type": "t_uint256"
      },
      {
        "astId": 1577,
        "contract": "contracts/BinaryBet.sol:BinaryBet",
        "label": "windowPrice",
        "offset": 0,
        "slot": "3",
        "type": "t_mapping(t_uint256,t_uint256)"
      },
      {
        "astId": 1591,
        "contract": "contracts/BinaryBet.sol:BinaryBet",
        "label": "user",
        "offset": 0,
        "slot": "4",
        "type": "t_mapping(t_address,t_struct(User)1586_storage)"
      }
    ],
    "types": {
      "t_address": {
        "encoding": "inplace",
        "label": "address",
        "numberOfBytes": "20"
      },
      "t_array(t_uint256)dyn_storage": {
        "base": "t_uint256",
        "encoding": "dynamic_array",
        "label": "uint256[]",
        "numberOfBytes": "32"
      },
      "t_contract(AggregatorV3Interface)45": {
        "encoding": "inplace",
        "label": "contract AggregatorV3Interface",
        "numberOfBytes": "20"
      },
      "t_mapping(t_address,t_struct(User)1586_storage)": {
        "encoding": "mapping",
        "key": "t_address",
        "label": "mapping(address => struct BinaryBet.User)",
        "numberOfBytes": "32",
        "value": "t_struct(User)1586_storage"
      },
      "t_mapping(t_uint256,t_struct(Pool)1547_storage)": {
        "encoding": "mapping",
        "key": "t_uint256",
        "label": "mapping(uint256 => struct BinaryBet.Pool)",
        "numberOfBytes": "32",
        "value": "t_struct(Pool)1547_storage"
      },
      "t_mapping(t_uint256,t_uint256)": {
        "encoding": "mapping",
        "key": "t_uint256",
        "label": "mapping(uint256 => uint256)",
        "numberOfBytes": "32",
        "value": "t_uint256"
      },
      "t_struct(Pool)1547_storage": {
        "encoding": "inplace",
        "label": "struct BinaryBet.Pool",
        "members": [
          {
            "astId": 1544,
            "contract": "contracts/BinaryBet.sol:BinaryBet",
            "label": "downValue",
            "offset": 0,
            "slot": "0",
            "type": "t_uint256"
          },
          {
            "astId": 1546,
            "contract": "contracts/BinaryBet.sol:BinaryBet",
            "label": "upValue",
            "offset": 0,
            "slot": "1",
            "type": "t_uint256"
          }
        ],
        "numberOfBytes": "64"
      },
      "t_struct(User)1586_storage": {
        "encoding": "inplace",
        "label": "struct BinaryBet.User",
        "members": [
          {
            "astId": 1582,
            "contract": "contracts/BinaryBet.sol:BinaryBet",
            "label": "stake",
            "offset": 0,
            "slot": "0",
            "type": "t_mapping(t_uint256,t_struct(Pool)1547_storage)"
          },
          {
            "astId": 1585,
            "contract": "contracts/BinaryBet.sol:BinaryBet",
            "label": "bets",
            "offset": 0,
            "slot": "1",
            "type": "t_array(t_uint256)dyn_storage"
          }
        ],
        "numberOfBytes": "64"
      },
      "t_uint256": {
        "encoding": "inplace",
        "label": "uint256",
        "numberOfBytes": "32"
      }
    }
  }
}