{
  "address": "0x66C8a06167c609B7B6705e083da05B2B7c537100",
  "abi": [
    {
      "inputs": [
        {
          "internalType": "uint256",
          "name": "_windowDuration",
          "type": "uint256"
        },
        {
          "internalType": "uint256",
          "name": "_fee",
          "type": "uint256"
        },
        {
          "internalType": "address",
          "name": "aggregator",
          "type": "address"
        },
        {
          "internalType": "address",
          "name": "stakingContract",
          "type": "address"
        },
        {
          "internalType": "address",
          "name": "tokenContract",
          "type": "address"
        },
        {
          "internalType": "uint256",
          "name": "reward",
          "type": "uint256"
        }
      ],
      "stateMutability": "nonpayable",
      "type": "constructor"
    },
    {
      "anonymous": false,
      "inputs": [
        {
          "indexed": true,
          "internalType": "uint256",
          "name": "windowNumber",
          "type": "uint256"
        },
        {
          "indexed": true,
          "internalType": "address",
          "name": "user",
          "type": "address"
        },
        {
          "indexed": false,
          "internalType": "uint256",
          "name": "gain",
          "type": "uint256"
        }
      ],
      "name": "BetSettled",
      "type": "event"
    },
    {
      "anonymous": false,
      "inputs": [
        {
          "indexed": true,
          "internalType": "address",
          "name": "user",
          "type": "address"
        },
        {
          "indexed": true,
          "internalType": "uint256",
          "name": "windowNumber",
          "type": "uint256"
        },
        {
          "indexed": false,
          "internalType": "uint256",
          "name": "value",
          "type": "uint256"
        },
        {
          "indexed": false,
          "internalType": "uint8",
          "name": "side",
          "type": "uint8"
        }
      ],
      "name": "NewBet",
      "type": "event"
    },
    {
      "anonymous": false,
      "inputs": [
        {
          "indexed": true,
          "internalType": "uint256",
          "name": "windowNumber",
          "type": "uint256"
        },
        {
          "indexed": false,
          "internalType": "uint256",
          "name": "price",
          "type": "uint256"
        }
      ],
      "name": "PriceUpdated",
      "type": "event"
    },
    {
      "inputs": [],
      "name": "REWARD_PER_WINDOW",
      "outputs": [
        {
          "internalType": "uint256",
          "name": "",
          "type": "uint256"
        }
      ],
      "stateMutability": "view",
      "type": "function"
    },
    {
      "inputs": [
        {
          "internalType": "address",
          "name": "_user",
          "type": "address"
        }
      ],
      "name": "betListLen",
      "outputs": [
        {
          "internalType": "uint256",
          "name": "",
          "type": "uint256"
        }
      ],
      "stateMutability": "view",
      "type": "function"
    },
    {
      "inputs": [
        {
          "internalType": "uint256",
          "name": "referencePrice",
          "type": "uint256"
        },
        {
          "internalType": "uint256",
          "name": "settlementPrice",
          "type": "uint256"
        }
      ],
      "name": "betResult",
      "outputs": [
        {
          "internalType": "uint8",
          "name": "",
          "type": "uint8"
        }
      ],
      "stateMutability": "pure",
      "type": "function"
    },
    {
      "inputs": [
        {
          "internalType": "uint256",
          "name": "upStake",
          "type": "uint256"
        },
        {
          "internalType": "uint256",
          "name": "downStake",
          "type": "uint256"
        },
        {
          "internalType": "uint256",
          "name": "poolUp",
          "type": "uint256"
        },
        {
          "internalType": "uint256",
          "name": "poolDown",
          "type": "uint256"
        }
      ],
      "name": "calculateTokenReward",
      "outputs": [
        {
          "internalType": "uint256",
          "name": "",
          "type": "uint256"
        }
      ],
      "stateMutability": "view",
      "type": "function"
    },
    {
      "inputs": [
        {
          "internalType": "uint256",
          "name": "value",
          "type": "uint256"
        },
        {
          "internalType": "uint256",
          "name": "_fee",
          "type": "uint256"
        }
      ],
      "name": "computeFee",
      "outputs": [
        {
          "internalType": "uint256",
          "name": "betFee",
          "type": "uint256"
        }
      ],
      "stateMutability": "pure",
      "type": "function"
    },
    {
      "inputs": [],
      "name": "deployTimestamp",
      "outputs": [
        {
          "internalType": "uint256",
          "name": "",
          "type": "uint256"
        }
      ],
      "stateMutability": "view",
      "type": "function"
    },
    {
      "inputs": [],
      "name": "fee",
      "outputs": [
        {
          "internalType": "uint256",
          "name": "",
          "type": "uint256"
        }
      ],
      "stateMutability": "view",
      "type": "function"
    },
    {
      "inputs": [
        {
          "internalType": "uint256",
          "name": "windowNumber",
          "type": "uint256"
        }
      ],
      "name": "getPoolValues",
      "outputs": [
        {
          "internalType": "uint256",
          "name": "",
          "type": "uint256"
        },
        {
          "internalType": "uint256",
          "name": "",
          "type": "uint256"
        }
      ],
      "stateMutability": "view",
      "type": "function"
    },
    {
      "inputs": [
        {
          "internalType": "address",
          "name": "_user",
          "type": "address"
        },
        {
          "internalType": "uint256",
          "name": "index",
          "type": "uint256"
        }
      ],
      "name": "getUserBetList",
      "outputs": [
        {
          "internalType": "uint256",
          "name": "",
          "type": "uint256"
        }
      ],
      "stateMutability": "view",
      "type": "function"
    },
    {
      "inputs": [
        {
          "internalType": "uint256",
          "name": "windowNumber",
          "type": "uint256"
        },
        {
          "internalType": "address",
          "name": "_user",
          "type": "address"
        }
      ],
      "name": "getUserStake",
      "outputs": [
        {
          "internalType": "uint256",
          "name": "",
          "type": "uint256"
        },
        {
          "internalType": "uint256",
          "name": "",
          "type": "uint256"
        }
      ],
      "stateMutability": "view",
      "type": "function"
    },
    {
      "inputs": [
        {
          "internalType": "uint256",
          "name": "window",
          "type": "uint256"
        }
      ],
      "name": "getWindowBetPrices",
      "outputs": [
        {
          "internalType": "uint256",
          "name": "",
          "type": "uint256"
        },
        {
          "internalType": "uint256",
          "name": "",
          "type": "uint256"
        }
      ],
      "stateMutability": "view",
      "type": "function"
    },
    {
      "inputs": [
        {
          "internalType": "uint256",
          "name": "currentTimestamp",
          "type": "uint256"
        },
        {
          "internalType": "uint256",
          "name": "_windowDuration",
          "type": "uint256"
        },
        {
          "internalType": "uint256",
          "name": "_deployTimestamp",
          "type": "uint256"
        }
      ],
      "name": "getWindowNumber",
      "outputs": [
        {
          "internalType": "uint256",
          "name": "windowNumber",
          "type": "uint256"
        }
      ],
      "stateMutability": "pure",
      "type": "function"
    },
    {
      "inputs": [
        {
          "internalType": "uint256",
          "name": "windowNumber",
          "type": "uint256"
        },
        {
          "internalType": "uint256",
          "name": "_windowDuration",
          "type": "uint256"
        },
        {
          "internalType": "uint256",
          "name": "_currentTimestamp",
          "type": "uint256"
        }
      ],
      "name": "getWindowStartingTimestamp",
      "outputs": [
        {
          "internalType": "uint256",
          "name": "startingTimestamp",
          "type": "uint256"
        }
      ],
      "stateMutability": "pure",
      "type": "function"
    },
    {
      "inputs": [
        {
          "internalType": "uint8",
          "name": "side",
          "type": "uint8"
        }
      ],
      "name": "placeBet",
      "outputs": [],
      "stateMutability": "payable",
      "type": "function"
    },
    {
      "inputs": [
        {
          "internalType": "uint256",
          "name": "",
          "type": "uint256"
        }
      ],
      "name": "pools",
      "outputs": [
        {
          "internalType": "uint256",
          "name": "downValue",
          "type": "uint256"
        },
        {
          "internalType": "uint256",
          "name": "upValue",
          "type": "uint256"
        }
      ],
      "stateMutability": "view",
      "type": "function"
    },
    {
      "inputs": [
        {
          "internalType": "uint256",
          "name": "upStake",
          "type": "uint256"
        },
        {
          "internalType": "uint256",
          "name": "downStake",
          "type": "uint256"
        },
        {
          "internalType": "uint256",
          "name": "poolUp",
          "type": "uint256"
        },
        {
          "internalType": "uint256",
          "name": "poolDown",
          "type": "uint256"
        },
        {
          "internalType": "uint8",
          "name": "res",
          "type": "uint8"
        }
      ],
      "name": "settleBet",
      "outputs": [
        {
          "internalType": "uint256",
          "name": "gain",
          "type": "uint256"
        },
        {
          "internalType": "uint256",
          "name": "fees",
          "type": "uint256"
        }
      ],
      "stateMutability": "view",
      "type": "function"
    },
    {
      "inputs": [
        {
          "internalType": "address",
          "name": "_user",
          "type": "address"
        }
      ],
      "name": "updateBalance",
      "outputs": [],
      "stateMutability": "nonpayable",
      "type": "function"
    },
    {
      "inputs": [],
      "name": "updatePrice",
      "outputs": [],
      "stateMutability": "nonpayable",
      "type": "function"
    },
    {
      "inputs": [],
      "name": "windowDuration",
      "outputs": [
        {
          "internalType": "uint256",
          "name": "",
          "type": "uint256"
        }
      ],
      "stateMutability": "view",
      "type": "function"
    },
    {
      "inputs": [
        {
          "internalType": "uint256",
          "name": "",
          "type": "uint256"
        }
      ],
      "name": "windowPrice",
      "outputs": [
        {
          "internalType": "uint256",
          "name": "",
          "type": "uint256"
        }
      ],
      "stateMutability": "view",
      "type": "function"
    },
    {
      "inputs": [
        {
          "internalType": "uint256",
          "name": "window",
          "type": "uint256"
        },
        {
          "internalType": "uint256",
          "name": "currentWindow",
          "type": "uint256"
        },
        {
          "internalType": "uint256",
          "name": "initialPrice",
          "type": "uint256"
        },
        {
          "internalType": "uint256",
          "name": "finalPrice",
          "type": "uint256"
        }
      ],
      "name": "windowStatus",
      "outputs": [
        {
          "internalType": "enum BinaryBet.WindowStatus",
          "name": "status",
          "type": "uint8"
        }
      ],
      "stateMutability": "pure",
      "type": "function"
    }
  ],
  "transactionHash": "0x006b1157ae68f2b28c0ed34e4fd5df84e4c2187ebe486a624687e5cc72a11e49",
  "args": [
    300,
    2,
    "0x5498BB86BC934c8D34FDA08E81D444153d0D06aD",
    "0x3903f35D963e700c117A5A332e2982fa3FAE27db",
    "0xEC9810d9F10BAA8Bce7984881CE130B59B4c9Da4",
    332
  ],
  "solcInputHash": "3cd573c58f30b1a5866dd999ed76f733",
  "bytecode": "0x6101606040523480156200001257600080fd5b5060405162001904380380620019048339810160408190526200003591620000d2565b60648511156200004457600080fd5b600080546001600160a01b0386166001600160a01b031990911617905542610120526101408690526101008590526001600160601b0319606084811b821660c081905260a05283901b16608052620000a581670de0b6b3a764000062000138565b60e0525062000166945050505050565b80516001600160a01b0381168114620000cd57600080fd5b919050565b60008060008060008060c08789031215620000ec57600080fd5b86519550602087015194506200010560408801620000b5565b93506200011560608801620000b5565b92506200012560808801620000b5565b915060a087015190509295509295509295565b60008160001904831182151516156200016157634e487b7160e01b600052601160045260246000fd5b500290565b60805160601c60a05160601c60c05160601c60e0516101005161012051610140516116f76200020d600039600081816102950152818161060d01528181610a1f0152610c100152600081816102c90152818161062e01528181610a400152610c310152600081816104d60152610df90152600081816103120152610ea90152600050506000610912015260008181610f630152818161104301526110f301526116f76000f3fe60806040526004361061016a5760003560e01c806389b808a7116100cb578063c33909011161007f578063ddca3f4311610059578063ddca3f43146104c4578063e0d65d87146104f8578063f83b35fb1461052557600080fd5b8063c339090114610464578063ca055e5314610484578063daaac9d2146104a457600080fd5b8063ac4afa38116100b0578063ac4afa38146103e3578063b134894e14610417578063b47a35661461044457600080fd5b806389b808a7146103345780639626a2301461037a57600080fd5b8063508ba0bd11610122578063607ad0d711610107578063607ad0d7146102b7578063673a7e28146102eb57806371a422071461030057600080fd5b8063508ba0bd146102635780635c11ff7a1461028357600080fd5b80632ff284c2116101535780632ff284c21461020057806340b8405a1461022e578063430468441461025057600080fd5b80630eff4d881461016f5780631bb5abf9146101ce575b600080fd5b34801561017b57600080fd5b506101b461018a3660046112a7565b60009081526001602081815260409283902083518085019094528054808552920154920182905291565b604080519283526020830191909152015b60405180910390f35b3480156101da57600080fd5b506101ee6101e93660046112c0565b610545565b60405160ff90911681526020016101c5565b34801561020c57600080fd5b5061022061021b3660046112c0565b610571565b6040519081526020016101c5565b34801561023a57600080fd5b5061024e61024936600461130b565b610590565b005b61024e61025e366004611337565b610998565b34801561026f57600080fd5b5061022061027e366004611352565b610bde565b34801561028f57600080fd5b506102207f000000000000000000000000000000000000000000000000000000000000000081565b3480156102c357600080fd5b506102207f000000000000000000000000000000000000000000000000000000000000000081565b3480156102f757600080fd5b5061024e610c08565b34801561030c57600080fd5b506102207f000000000000000000000000000000000000000000000000000000000000000081565b34801561034057600080fd5b5061022061034f36600461130b565b73ffffffffffffffffffffffffffffffffffffffff1660009081526003602052604090206001015490565b34801561038657600080fd5b506101b461039536600461137e565b73ffffffffffffffffffffffffffffffffffffffff16600090815260036020908152604080832093835292815290829020825180840190935280548084526001909101549290910182905291565b3480156103ef57600080fd5b506101b46103fe3660046112a7565b6001602081905260009182526040909120805491015482565b34801561042357600080fd5b506104376104323660046113aa565b610cc3565b6040516101c5919061140b565b34801561045057600080fd5b5061022061045f36600461144c565b610d26565b34801561047057600080fd5b5061022061047f366004611352565b610d73565b34801561049057600080fd5b506101b461049f366004611476565b610d95565b3480156104b057600080fd5b506102206104bf3660046113aa565b610ea2565b3480156104d057600080fd5b506102207f000000000000000000000000000000000000000000000000000000000000000081565b34801561050457600080fd5b506102206105133660046112a7565b60026020526000908152604090205481565b34801561053157600080fd5b506101b46105403660046112a7565b610eea565b6000828210156105575750600061056b565b828211156105675750600161056b565b5060025b92915050565b6000606461057f83856114ee565b610589919061152b565b9392505050565b73ffffffffffffffffffffffffffffffffffffffff8116600090815260036020526040902060018101546105c2575050565b6001810154600090819081905b80156108ae576000856001016001836105e89190611566565b815481106105f8576105f861157d565b906000526020600020015490506000610652427f00000000000000000000000000000000000000000000000000000000000000007f0000000000000000000000000000000000000000000000000000000000000000610bde565b905060008061066084610eea565b91509150600061067285858585610cc3565b90506000816003811115610688576106886113dc565b14806106a5575060018160038111156106a3576106a36113dc565b145b156106b457505050505061089c565b600060038260038111156106ca576106ca6113dc565b14156106e1576106da8484610545565b90506106ff565b60028260038111156106f5576106f56113dc565b14156106ff575060025b6001808c018054909161071191611566565b815481106107215761072161157d565b90600052602060002001548b60010160018961073d9190611566565b8154811061074d5761074d61157d565b60009182526020909120015560018b0180548061076c5761076c6115ac565b6000828152602080822083017fffffffffffffffffffffffffffffffffffffffffffffffffffffffffffffffff9081018390559092019092558782528c8152604080832081518083018352815481526001918201548185019081528b8652828552838620845180860190955280548086529301549484018590525181519195939484936107fb93919089610d95565b909250905061080a828f6115db565b9d50610816818d6115db565b9b506108348460200151856000015185602001518660000151610ea2565b61083e908e6115db565b9c508f73ffffffffffffffffffffffffffffffffffffffff168a7f6f277b50171c654e40c771d9c2bbf19e070eeb21cce6f8e9a80334564279e3958460405161088991815260200190565b60405180910390a3505050505050505050505b806108a6816115f3565b9150506105cf565b5082156108fa5760405173ffffffffffffffffffffffffffffffffffffffff86169084156108fc029085906000818181858888f193505050501580156108f8573d6000803e3d6000fd5b505b811561090a5761090a8583610f33565b8015610991577f000000000000000000000000000000000000000000000000000000000000000073ffffffffffffffffffffffffffffffffffffffff16625c33e1826040518263ffffffff1660e01b81526004016000604051808303818588803b15801561097757600080fd5b505af115801561098b573d6000803e3d6000fd5b50505050505b5050505050565b60003411610a06576040517f08c379a000000000000000000000000000000000000000000000000000000000815260206004820152601d60248201527f4f6e6c79207374726963746c7920706f7369746976652076616c756573000000604482015260640160405180910390fd5b610a0e610c08565b610a1733610590565b6000610a64427f00000000000000000000000000000000000000000000000000000000000000007f0000000000000000000000000000000000000000000000000000000000000000610bde565b3360009081526003602052604090206001810154919250901580610ab45750600180820180549091610a9591611566565b81548110610aa557610aa561157d565b90600052602060002001548214155b15610ad357600180820180549182018155600090815260209020018290555b60018360ff166001811115610aea57610aea6113dc565b6001811115610afb57610afb6113dc565b1415610b535760008281526020829052604081206001018054349290610b229084906115db565b909155505060008281526001602081905260408220018054349290610b489084906115db565b90915550610b9a9050565b60008281526020829052604081208054349290610b719084906115db565b909155505060008281526001602052604081208054349290610b949084906115db565b90915550505b6040805134815260ff85166020820152839133917f85ff162f60a0eab11e1e0d3d9cfa18a46d7038a29751af4130dbaeeadbd37ed4910160405180910390a3505050565b600082610beb8386611566565b610bf5919061152b565b610c009060016115db565b949350505050565b6000610c55427f00000000000000000000000000000000000000000000000000000000000000007f0000000000000000000000000000000000000000000000000000000000000000610bde565b600081815260026020526040902054909150610cc057610c736111e2565b600082815260026020526040908190208290555182917f945c1c4e99aa89f648fbfe3df471b916f719e16d960fcec0737d4d56bd69683891610cb791815260200190565b60405180910390a25b50565b6000610cd08560026115db565b841015610cdf57506000610c00565b610cea8560036115db565b84108015610cf6575081155b15610d0357506001610c00565b821580610d0e575081155b15610d1b57506002610c00565b506003949350505050565b73ffffffffffffffffffffffffffffffffffffffff82166000908152600360205260408120600101805483908110610d6057610d6061157d565b9060005260206000200154905092915050565b600082610d81600186611566565b610d8b91906114ee565b610c0090836115db565b60008060008360ff166002811115610daf57610daf6113dc565b90506000610dbd86886115db565b905060006001836002811115610dd557610dd56113dc565b148015610de157508715155b15610e3057610df1828b8a611290565b9050610e1d817f0000000000000000000000000000000000000000000000000000000000000000610571565b9350610e298482611566565b9450610e95565b6000836002811115610e4457610e446113dc565b148015610e5057508615155b15610e6057610df1828a89611290565b6002836002811115610e7457610e746113dc565b1415610e8457610e29898b6115db565b60009450610e92898b6115db565b93505b5050509550959350505050565b6000610ee17f0000000000000000000000000000000000000000000000000000000000000000610ed286886115db565b610edc85876115db565b611290565b95945050505050565b600080600281610efb8560016115db565b81526020019081526020016000205460026000856002610f1b91906115db565b81526020019081526020016000205491509150915091565b6040517f70a0823100000000000000000000000000000000000000000000000000000000815230600482015281907f000000000000000000000000000000000000000000000000000000000000000073ffffffffffffffffffffffffffffffffffffffff16906370a082319060240160206040518083038186803b158015610fba57600080fd5b505afa158015610fce573d6000803e3d6000fd5b505050506040513d601f19601f82011682018060405250810190610ff29190611628565b106110c5576040517fa9059cbb00000000000000000000000000000000000000000000000000000000815273ffffffffffffffffffffffffffffffffffffffff8381166004830152602482018390527f0000000000000000000000000000000000000000000000000000000000000000169063a9059cbb906044015b602060405180830381600087803b15801561108857600080fd5b505af115801561109c573d6000803e3d6000fd5b505050506040513d601f19601f820116820180604052508101906110c09190611641565b505050565b6040517f70a082310000000000000000000000000000000000000000000000000000000081523060048201527f000000000000000000000000000000000000000000000000000000000000000073ffffffffffffffffffffffffffffffffffffffff169063a9059cbb90849083906370a082319060240160206040518083038186803b15801561115457600080fd5b505afa158015611168573d6000803e3d6000fd5b505050506040513d601f19601f8201168201806040525081019061118c9190611628565b6040517fffffffff0000000000000000000000000000000000000000000000000000000060e085901b16815273ffffffffffffffffffffffffffffffffffffffff9092166004830152602482015260440161106e565b60008054604080517ffeaf968c0000000000000000000000000000000000000000000000000000000081529051839273ffffffffffffffffffffffffffffffffffffffff169163feaf968c9160048083019260a0929190829003018186803b15801561124d57600080fd5b505afa158015611261573d6000803e3d6000fd5b505050506040513d601f19601f82011682018060405250810190611285919061167d565b509195945050505050565b60008161129d85856114ee565b610c00919061152b565b6000602082840312156112b957600080fd5b5035919050565b600080604083850312156112d357600080fd5b50508035926020909101359150565b803573ffffffffffffffffffffffffffffffffffffffff8116811461130657600080fd5b919050565b60006020828403121561131d57600080fd5b610589826112e2565b803560ff8116811461130657600080fd5b60006020828403121561134957600080fd5b61058982611326565b60008060006060848603121561136757600080fd5b505081359360208301359350604090920135919050565b6000806040838503121561139157600080fd5b823591506113a1602084016112e2565b90509250929050565b600080600080608085870312156113c057600080fd5b5050823594602084013594506040840135936060013592509050565b7f4e487b7100000000000000000000000000000000000000000000000000000000600052602160045260246000fd5b6020810160048310611446577f4e487b7100000000000000000000000000000000000000000000000000000000600052602160045260246000fd5b91905290565b6000806040838503121561145f57600080fd5b611468836112e2565b946020939093013593505050565b600080600080600060a0868803121561148e57600080fd5b853594506020860135935060408601359250606086013591506114b360808701611326565b90509295509295909350565b7f4e487b7100000000000000000000000000000000000000000000000000000000600052601160045260246000fd5b6000817fffffffffffffffffffffffffffffffffffffffffffffffffffffffffffffffff0483118215151615611526576115266114bf565b500290565b600082611561577f4e487b7100000000000000000000000000000000000000000000000000000000600052601260045260246000fd5b500490565b600082821015611578576115786114bf565b500390565b7f4e487b7100000000000000000000000000000000000000000000000000000000600052603260045260246000fd5b7f4e487b7100000000000000000000000000000000000000000000000000000000600052603160045260246000fd5b600082198211156115ee576115ee6114bf565b500190565b600081611602576116026114bf565b507fffffffffffffffffffffffffffffffffffffffffffffffffffffffffffffffff0190565b60006020828403121561163a57600080fd5b5051919050565b60006020828403121561165357600080fd5b8151801515811461058957600080fd5b805169ffffffffffffffffffff8116811461130657600080fd5b600080600080600060a0868803121561169557600080fd5b61169e86611663565b94506020860151935060408601519250606086015191506114b36080870161166356fea2646970667358221220d72865c6fd308013743f4371897442828514ed99becab5ccbf92aac965f499a964736f6c63430008080033",
  "devdoc": {
    "kind": "dev",
    "methods": {},
    "version": 1
  },
  "userdoc": {
    "kind": "user",
    "methods": {},
    "version": 1
  },
  "storageLayout": {
    "storage": [
      {
        "astId": 1550,
        "contract": "contracts/BinaryBet.sol:BinaryBet",
        "label": "priceFeed",
        "offset": 0,
        "slot": "0",
        "type": "t_contract(AggregatorV3Interface)45"
      },
      {
        "astId": 1565,
        "contract": "contracts/BinaryBet.sol:BinaryBet",
        "label": "pools",
        "offset": 0,
        "slot": "1",
        "type": "t_mapping(t_uint256,t_struct(Pool)1547_storage)"
      },
      {
        "astId": 1575,
        "contract": "contracts/BinaryBet.sol:BinaryBet",
        "label": "windowPrice",
        "offset": 0,
        "slot": "2",
        "type": "t_mapping(t_uint256,t_uint256)"
      },
      {
        "astId": 1589,
        "contract": "contracts/BinaryBet.sol:BinaryBet",
        "label": "user",
        "offset": 0,
        "slot": "3",
        "type": "t_mapping(t_address,t_struct(User)1584_storage)"
      }
    ],
    "types": {
      "t_address": {
        "encoding": "inplace",
        "label": "address",
        "numberOfBytes": "20"
      },
      "t_array(t_uint256)dyn_storage": {
        "base": "t_uint256",
        "encoding": "dynamic_array",
        "label": "uint256[]",
        "numberOfBytes": "32"
      },
      "t_contract(AggregatorV3Interface)45": {
        "encoding": "inplace",
        "label": "contract AggregatorV3Interface",
        "numberOfBytes": "20"
      },
      "t_mapping(t_address,t_struct(User)1584_storage)": {
        "encoding": "mapping",
        "key": "t_address",
        "label": "mapping(address => struct BinaryBet.User)",
        "numberOfBytes": "32",
        "value": "t_struct(User)1584_storage"
      },
      "t_mapping(t_uint256,t_struct(Pool)1547_storage)": {
        "encoding": "mapping",
        "key": "t_uint256",
        "label": "mapping(uint256 => struct BinaryBet.Pool)",
        "numberOfBytes": "32",
        "value": "t_struct(Pool)1547_storage"
      },
      "t_mapping(t_uint256,t_uint256)": {
        "encoding": "mapping",
        "key": "t_uint256",
        "label": "mapping(uint256 => uint256)",
        "numberOfBytes": "32",
        "value": "t_uint256"
      },
      "t_struct(Pool)1547_storage": {
        "encoding": "inplace",
        "label": "struct BinaryBet.Pool",
        "members": [
          {
            "astId": 1544,
            "contract": "contracts/BinaryBet.sol:BinaryBet",
            "label": "downValue",
            "offset": 0,
            "slot": "0",
            "type": "t_uint256"
          },
          {
            "astId": 1546,
            "contract": "contracts/BinaryBet.sol:BinaryBet",
            "label": "upValue",
            "offset": 0,
            "slot": "1",
            "type": "t_uint256"
          }
        ],
        "numberOfBytes": "64"
      },
      "t_struct(User)1584_storage": {
        "encoding": "inplace",
        "label": "struct BinaryBet.User",
        "members": [
          {
            "astId": 1580,
            "contract": "contracts/BinaryBet.sol:BinaryBet",
            "label": "stake",
            "offset": 0,
            "slot": "0",
            "type": "t_mapping(t_uint256,t_struct(Pool)1547_storage)"
          },
          {
            "astId": 1583,
            "contract": "contracts/BinaryBet.sol:BinaryBet",
            "label": "bets",
            "offset": 0,
            "slot": "1",
            "type": "t_array(t_uint256)dyn_storage"
          }
        ],
        "numberOfBytes": "64"
      },
      "t_uint256": {
        "encoding": "inplace",
        "label": "uint256",
        "numberOfBytes": "32"
      }
    }
  }
}