{
  "address": "0xa02905328689625DF8566cf393D13799BC106868",
  "abi": [
    {
      "inputs": [
        {
          "internalType": "address",
          "name": "ido",
          "type": "address"
        }
      ],
      "stateMutability": "nonpayable",
      "type": "constructor"
    },
    {
      "anonymous": false,
      "inputs": [
        {
          "indexed": true,
          "internalType": "address",
          "name": "owner",
          "type": "address"
        },
        {
          "indexed": true,
          "internalType": "address",
          "name": "spender",
          "type": "address"
        },
        {
          "indexed": false,
          "internalType": "uint256",
          "name": "value",
          "type": "uint256"
        }
      ],
      "name": "Approval",
      "type": "event"
    },
    {
      "anonymous": false,
      "inputs": [
        {
          "indexed": true,
          "internalType": "address",
          "name": "from",
          "type": "address"
        },
        {
          "indexed": true,
          "internalType": "address",
          "name": "to",
          "type": "address"
        },
        {
          "indexed": false,
          "internalType": "uint256",
          "name": "value",
          "type": "uint256"
        }
      ],
      "name": "Transfer",
      "type": "event"
    },
    {
      "inputs": [],
      "name": "DECIMALS",
      "outputs": [
        {
          "internalType": "uint8",
          "name": "",
          "type": "uint8"
        }
      ],
      "stateMutability": "view",
      "type": "function"
    },
    {
      "inputs": [],
      "name": "IDO_SUPPLY",
      "outputs": [
        {
          "internalType": "uint256",
          "name": "",
          "type": "uint256"
        }
      ],
      "stateMutability": "view",
      "type": "function"
    },
    {
      "inputs": [],
      "name": "INITIAL_SUPPLY",
      "outputs": [
        {
          "internalType": "uint256",
          "name": "",
          "type": "uint256"
        }
      ],
      "stateMutability": "view",
      "type": "function"
    },
    {
      "inputs": [],
      "name": "NAME",
      "outputs": [
        {
          "internalType": "string",
          "name": "",
          "type": "string"
        }
      ],
      "stateMutability": "view",
      "type": "function"
    },
    {
      "inputs": [],
      "name": "SYMBOL",
      "outputs": [
        {
          "internalType": "string",
          "name": "",
          "type": "string"
        }
      ],
      "stateMutability": "view",
      "type": "function"
    },
    {
      "inputs": [
        {
          "internalType": "address",
          "name": "owner",
          "type": "address"
        },
        {
          "internalType": "address",
          "name": "spender",
          "type": "address"
        }
      ],
      "name": "allowance",
      "outputs": [
        {
          "internalType": "uint256",
          "name": "",
          "type": "uint256"
        }
      ],
      "stateMutability": "view",
      "type": "function"
    },
    {
      "inputs": [
        {
          "internalType": "address",
          "name": "spender",
          "type": "address"
        },
        {
          "internalType": "uint256",
          "name": "amount",
          "type": "uint256"
        }
      ],
      "name": "approve",
      "outputs": [
        {
          "internalType": "bool",
          "name": "",
          "type": "bool"
        }
      ],
      "stateMutability": "nonpayable",
      "type": "function"
    },
    {
      "inputs": [
        {
          "internalType": "address",
          "name": "account",
          "type": "address"
        }
      ],
      "name": "balanceOf",
      "outputs": [
        {
          "internalType": "uint256",
          "name": "",
          "type": "uint256"
        }
      ],
      "stateMutability": "view",
      "type": "function"
    },
    {
      "inputs": [],
      "name": "decimals",
      "outputs": [
        {
          "internalType": "uint8",
          "name": "",
          "type": "uint8"
        }
      ],
      "stateMutability": "view",
      "type": "function"
    },
    {
      "inputs": [
        {
          "internalType": "address",
          "name": "spender",
          "type": "address"
        },
        {
          "internalType": "uint256",
          "name": "subtractedValue",
          "type": "uint256"
        }
      ],
      "name": "decreaseAllowance",
      "outputs": [
        {
          "internalType": "bool",
          "name": "",
          "type": "bool"
        }
      ],
      "stateMutability": "nonpayable",
      "type": "function"
    },
    {
      "inputs": [
        {
          "internalType": "address",
          "name": "spender",
          "type": "address"
        },
        {
          "internalType": "uint256",
          "name": "addedValue",
          "type": "uint256"
        }
      ],
      "name": "increaseAllowance",
      "outputs": [
        {
          "internalType": "bool",
          "name": "",
          "type": "bool"
        }
      ],
      "stateMutability": "nonpayable",
      "type": "function"
    },
    {
      "inputs": [],
      "name": "name",
      "outputs": [
        {
          "internalType": "string",
          "name": "",
          "type": "string"
        }
      ],
      "stateMutability": "view",
      "type": "function"
    },
    {
      "inputs": [],
      "name": "symbol",
      "outputs": [
        {
          "internalType": "string",
          "name": "",
          "type": "string"
        }
      ],
      "stateMutability": "view",
      "type": "function"
    },
    {
      "inputs": [],
      "name": "totalSupply",
      "outputs": [
        {
          "internalType": "uint256",
          "name": "",
          "type": "uint256"
        }
      ],
      "stateMutability": "view",
      "type": "function"
    },
    {
      "inputs": [
        {
          "internalType": "address",
          "name": "recipient",
          "type": "address"
        },
        {
          "internalType": "uint256",
          "name": "amount",
          "type": "uint256"
        }
      ],
      "name": "transfer",
      "outputs": [
        {
          "internalType": "bool",
          "name": "",
          "type": "bool"
        }
      ],
      "stateMutability": "nonpayable",
      "type": "function"
    },
    {
      "inputs": [
        {
          "internalType": "address",
          "name": "sender",
          "type": "address"
        },
        {
          "internalType": "address",
          "name": "recipient",
          "type": "address"
        },
        {
          "internalType": "uint256",
          "name": "amount",
          "type": "uint256"
        }
      ],
      "name": "transferFrom",
      "outputs": [
        {
          "internalType": "bool",
          "name": "",
          "type": "bool"
        }
      ],
      "stateMutability": "nonpayable",
      "type": "function"
    }
  ],
  "transactionHash": "0x49b8a9797e90188ee2bf64bbd139e8de3b55102221415e5a9b423e9fe33e0ceb",
  "args": [
    "0x67eAE479A44f24A1472b14171b006d84d2F00B60"
  ],
  "solcInputHash": "b9e48a7299eae20e21d467a9846c0ffb",
  "bytecode": "0x60806040523480156200001157600080fd5b506040516200100238038062001002833981016040819052620000349162000298565b6040805180820182526005808252644b4954545960d81b6020808401828152855180870190965292855284015281519192916200007491600391620001f2565b5080516200008a906004906020840190620001f2565b50620000b79150829050620000a26012600a620003df565b620000b19062bebc20620003ed565b6200010a565b6200010333620000ca6012600a620003df565b620000d99062bebc20620003ed565b620000e76012600a620003df565b620000f7906305f5e100620003ed565b620000b191906200040f565b5062000481565b6001600160a01b038216620001655760405162461bcd60e51b815260206004820152601f60248201527f45524332303a206d696e7420746f20746865207a65726f206164647265737300604482015260640160405180910390fd5b806002600082825462000179919062000429565b90915550506001600160a01b03821660009081526020819052604081208054839290620001a890849062000429565b90915550506040518181526001600160a01b038316906000907fddf252ad1be2c89b69c2b068fc378daa952ba7f163c4a11628f55a4df523b3ef9060200160405180910390a35050565b828054620002009062000444565b90600052602060002090601f0160209004810192826200022457600085556200026f565b82601f106200023f57805160ff19168380011785556200026f565b828001600101855582156200026f579182015b828111156200026f57825182559160200191906001019062000252565b506200027d92915062000281565b5090565b5b808211156200027d576000815560010162000282565b600060208284031215620002ab57600080fd5b81516001600160a01b0381168114620002c357600080fd5b9392505050565b634e487b7160e01b600052601160045260246000fd5b600181815b8085111562000321578160001904821115620003055762000305620002ca565b808516156200031357918102915b93841c9390800290620002e5565b509250929050565b6000826200033a57506001620003d9565b816200034957506000620003d9565b81600181146200036257600281146200036d576200038d565b6001915050620003d9565b60ff841115620003815762000381620002ca565b50506001821b620003d9565b5060208310610133831016604e8410600b8410161715620003b2575081810a620003d9565b620003be8383620002e0565b8060001904821115620003d557620003d5620002ca565b0290505b92915050565b6000620002c3838362000329565b60008160001904831182151516156200040a576200040a620002ca565b500290565b600082821015620004245762000424620002ca565b500390565b600082198211156200043f576200043f620002ca565b500190565b600181811c908216806200045957607f821691505b602082108114156200047b57634e487b7160e01b600052602260045260246000fd5b50919050565b610b7180620004916000396000f3fe608060405234801561001057600080fd5b50600436106101005760003560e01c80633950935111610097578063a457c2d711610066578063a457c2d71461021c578063a9059cbb1461022f578063dd62ed3e14610242578063f76f8d78146101e057600080fd5b8063395093511461019c57806370a08231146101af57806395d89b41146101d8578063a3f4df7e146101e057600080fd5b806323b872dd116100d357806323b872dd146101605780632e0f2625146101735780632ff2e9dc1461018d578063313ce5671461019557600080fd5b806306fdde0314610105578063095ea7b31461012357806318160ddd146101465780631ceeea5814610158575b600080fd5b61010d61027b565b60405161011a9190610897565b60405180910390f35b610136610131366004610908565b61030d565b604051901515815260200161011a565b6002545b60405190815260200161011a565b61014a610324565b61013661016e366004610932565b610340565b61017b601281565b60405160ff909116815260200161011a565b61014a610404565b601261017b565b6101366101aa366004610908565b61041e565b61014a6101bd36600461096e565b6001600160a01b031660009081526020819052604090205490565b61010d61045a565b61010d6040518060400160405280600581526020017f4b4954545900000000000000000000000000000000000000000000000000000081525081565b61013661022a366004610908565b610469565b61013661023d366004610908565b61051a565b61014a610250366004610990565b6001600160a01b03918216600090815260016020908152604080832093909416825291909152205490565b60606003805461028a906109c3565b80601f01602080910402602001604051908101604052809291908181526020018280546102b6906109c3565b80156103035780601f106102d857610100808354040283529160200191610303565b820191906000526020600020905b8154815290600101906020018083116102e657829003601f168201915b5050505050905090565b600061031a338484610527565b5060015b92915050565b6103306012600a610af8565b61033d9062bebc20610b04565b81565b600061034d84848461067f565b6001600160a01b0384166000908152600160209081526040808320338452909152902054828110156103ec5760405162461bcd60e51b815260206004820152602860248201527f45524332303a207472616e7366657220616d6f756e742065786365656473206160448201527f6c6c6f77616e636500000000000000000000000000000000000000000000000060648201526084015b60405180910390fd5b6103f98533858403610527565b506001949350505050565b6104106012600a610af8565b61033d906305f5e100610b04565b3360008181526001602090815260408083206001600160a01b0387168452909152812054909161031a918590610455908690610b23565b610527565b60606004805461028a906109c3565b3360009081526001602090815260408083206001600160a01b0386168452909152812054828110156105035760405162461bcd60e51b815260206004820152602560248201527f45524332303a2064656372656173656420616c6c6f77616e63652062656c6f7760448201527f207a65726f00000000000000000000000000000000000000000000000000000060648201526084016103e3565b6105103385858403610527565b5060019392505050565b600061031a33848461067f565b6001600160a01b0383166105a25760405162461bcd60e51b8152602060048201526024808201527f45524332303a20617070726f76652066726f6d20746865207a65726f2061646460448201527f726573730000000000000000000000000000000000000000000000000000000060648201526084016103e3565b6001600160a01b03821661061e5760405162461bcd60e51b815260206004820152602260248201527f45524332303a20617070726f766520746f20746865207a65726f20616464726560448201527f737300000000000000000000000000000000000000000000000000000000000060648201526084016103e3565b6001600160a01b0383811660008181526001602090815260408083209487168084529482529182902085905590518481527f8c5be1e5ebec7d5bd14f71427d1e84f3dd0314c0f7b2291e5b200ac8c7c3b925910160405180910390a3505050565b6001600160a01b0383166106fb5760405162461bcd60e51b815260206004820152602560248201527f45524332303a207472616e736665722066726f6d20746865207a65726f20616460448201527f647265737300000000000000000000000000000000000000000000000000000060648201526084016103e3565b6001600160a01b0382166107775760405162461bcd60e51b815260206004820152602360248201527f45524332303a207472616e7366657220746f20746865207a65726f206164647260448201527f657373000000000000000000000000000000000000000000000000000000000060648201526084016103e3565b6001600160a01b038316600090815260208190526040902054818110156108065760405162461bcd60e51b815260206004820152602660248201527f45524332303a207472616e7366657220616d6f756e742065786365656473206260448201527f616c616e6365000000000000000000000000000000000000000000000000000060648201526084016103e3565b6001600160a01b0380851660009081526020819052604080822085850390559185168152908120805484929061083d908490610b23565b92505081905550826001600160a01b0316846001600160a01b03167fddf252ad1be2c89b69c2b068fc378daa952ba7f163c4a11628f55a4df523b3ef8460405161088991815260200190565b60405180910390a350505050565b600060208083528351808285015260005b818110156108c4578581018301518582016040015282016108a8565b818111156108d6576000604083870101525b50601f01601f1916929092016040019392505050565b80356001600160a01b038116811461090357600080fd5b919050565b6000806040838503121561091b57600080fd5b610924836108ec565b946020939093013593505050565b60008060006060848603121561094757600080fd5b610950846108ec565b925061095e602085016108ec565b9150604084013590509250925092565b60006020828403121561098057600080fd5b610989826108ec565b9392505050565b600080604083850312156109a357600080fd5b6109ac836108ec565b91506109ba602084016108ec565b90509250929050565b600181811c908216806109d757607f821691505b602082108114156109f857634e487b7160e01b600052602260045260246000fd5b50919050565b634e487b7160e01b600052601160045260246000fd5b600181815b80851115610a4f578160001904821115610a3557610a356109fe565b80851615610a4257918102915b93841c9390800290610a19565b509250929050565b600082610a665750600161031e565b81610a735750600061031e565b8160018114610a895760028114610a9357610aaf565b600191505061031e565b60ff841115610aa457610aa46109fe565b50506001821b61031e565b5060208310610133831016604e8410600b8410161715610ad2575081810a61031e565b610adc8383610a14565b8060001904821115610af057610af06109fe565b029392505050565b60006109898383610a57565b6000816000190483118215151615610b1e57610b1e6109fe565b500290565b60008219821115610b3657610b366109fe565b50019056fea26469706673582212208aa2dd68c4c70d4e5d177090de50bf44cb59c56048072734827f04cc4f9f51e964736f6c63430008080033",
  "devdoc": {
    "kind": "dev",
    "methods": {
      "allowance(address,address)": {
        "details": "See {IERC20-allowance}."
      },
      "approve(address,uint256)": {
        "details": "See {IERC20-approve}. Requirements: - `spender` cannot be the zero address."
      },
      "balanceOf(address)": {
        "details": "See {IERC20-balanceOf}."
      },
      "decimals()": {
        "details": "Returns the number of decimals used to get its user representation. For example, if `decimals` equals `2`, a balance of `505` tokens should be displayed to a user as `5.05` (`505 / 10 ** 2`). Tokens usually opt for a value of 18, imitating the relationship between Ether and Wei. This is the value {ERC20} uses, unless this function is overridden; NOTE: This information is only used for _display_ purposes: it in no way affects any of the arithmetic of the contract, including {IERC20-balanceOf} and {IERC20-transfer}."
      },
      "decreaseAllowance(address,uint256)": {
        "details": "Atomically decreases the allowance granted to `spender` by the caller. This is an alternative to {approve} that can be used as a mitigation for problems described in {IERC20-approve}. Emits an {Approval} event indicating the updated allowance. Requirements: - `spender` cannot be the zero address. - `spender` must have allowance for the caller of at least `subtractedValue`."
      },
      "increaseAllowance(address,uint256)": {
        "details": "Atomically increases the allowance granted to `spender` by the caller. This is an alternative to {approve} that can be used as a mitigation for problems described in {IERC20-approve}. Emits an {Approval} event indicating the updated allowance. Requirements: - `spender` cannot be the zero address."
      },
      "name()": {
        "details": "Returns the name of the token."
      },
      "symbol()": {
        "details": "Returns the symbol of the token, usually a shorter version of the name."
      },
      "totalSupply()": {
        "details": "See {IERC20-totalSupply}."
      },
      "transfer(address,uint256)": {
        "details": "See {IERC20-transfer}. Requirements: - `recipient` cannot be the zero address. - the caller must have a balance of at least `amount`."
      },
      "transferFrom(address,address,uint256)": {
        "details": "See {IERC20-transferFrom}. Emits an {Approval} event indicating the updated allowance. This is not required by the EIP. See the note at the beginning of {ERC20}. Requirements: - `sender` and `recipient` cannot be the zero address. - `sender` must have a balance of at least `amount`. - the caller must have allowance for ``sender``'s tokens of at least `amount`."
      }
    },
    "version": 1
  },
  "userdoc": {
    "kind": "user",
    "methods": {},
    "version": 1
  },
  "storageLayout": {
    "storage": [
      {
        "astId": 166,
        "contract": "contracts/BinToken.sol:BinToken",
        "label": "_balances",
        "offset": 0,
        "slot": "0",
        "type": "t_mapping(t_address,t_uint256)"
      },
      {
        "astId": 172,
        "contract": "contracts/BinToken.sol:BinToken",
        "label": "_allowances",
        "offset": 0,
        "slot": "1",
        "type": "t_mapping(t_address,t_mapping(t_address,t_uint256))"
      },
      {
        "astId": 174,
        "contract": "contracts/BinToken.sol:BinToken",
        "label": "_totalSupply",
        "offset": 0,
        "slot": "2",
        "type": "t_uint256"
      },
      {
        "astId": 176,
        "contract": "contracts/BinToken.sol:BinToken",
        "label": "_name",
        "offset": 0,
        "slot": "3",
        "type": "t_string_storage"
      },
      {
        "astId": 178,
        "contract": "contracts/BinToken.sol:BinToken",
        "label": "_symbol",
        "offset": 0,
        "slot": "4",
        "type": "t_string_storage"
      },
      {
        "astId": 1499,
        "contract": "contracts/BinToken.sol:BinToken",
        "label": "allowed",
        "offset": 0,
        "slot": "5",
        "type": "t_mapping(t_address,t_mapping(t_address,t_uint256))"
      }
    ],
    "types": {
      "t_address": {
        "encoding": "inplace",
        "label": "address",
        "numberOfBytes": "20"
      },
      "t_mapping(t_address,t_mapping(t_address,t_uint256))": {
        "encoding": "mapping",
        "key": "t_address",
        "label": "mapping(address => mapping(address => uint256))",
        "numberOfBytes": "32",
        "value": "t_mapping(t_address,t_uint256)"
      },
      "t_mapping(t_address,t_uint256)": {
        "encoding": "mapping",
        "key": "t_address",
        "label": "mapping(address => uint256)",
        "numberOfBytes": "32",
        "value": "t_uint256"
      },
      "t_string_storage": {
        "encoding": "bytes",
        "label": "string",
        "numberOfBytes": "32"
      },
      "t_uint256": {
        "encoding": "inplace",
        "label": "uint256",
        "numberOfBytes": "32"
      }
    }
  }
}