{
  "address": "0x90245809408532977f86261def4d2214fC89908d",
  "abi": [
    {
      "inputs": [
        {
          "internalType": "uint256",
          "name": "_windowDuration",
          "type": "uint256"
        },
        {
          "internalType": "address",
          "name": "tokenContract",
          "type": "address"
        },
        {
          "internalType": "address",
          "name": "aggregator",
          "type": "address"
        }
      ],
      "stateMutability": "nonpayable",
      "type": "constructor"
    },
    {
      "anonymous": false,
      "inputs": [
        {
          "indexed": true,
          "internalType": "uint256",
          "name": "windowNumber",
          "type": "uint256"
        },
        {
          "indexed": true,
          "internalType": "address",
          "name": "user",
          "type": "address"
        },
        {
          "indexed": false,
          "internalType": "uint256",
          "name": "gain",
          "type": "uint256"
        }
      ],
      "name": "BetSettled",
      "type": "event"
    },
    {
      "anonymous": false,
      "inputs": [
        {
          "indexed": true,
          "internalType": "address",
          "name": "user",
          "type": "address"
        },
        {
          "indexed": true,
          "internalType": "uint256",
          "name": "windowNumber",
          "type": "uint256"
        },
        {
          "indexed": false,
          "internalType": "uint256",
          "name": "value",
          "type": "uint256"
        },
        {
          "indexed": false,
          "internalType": "uint8",
          "name": "side",
          "type": "uint8"
        }
      ],
      "name": "NewBet",
      "type": "event"
    },
    {
      "anonymous": false,
      "inputs": [
        {
          "indexed": true,
          "internalType": "uint256",
          "name": "windowNumber",
          "type": "uint256"
        },
        {
          "indexed": false,
          "internalType": "uint256",
          "name": "price",
          "type": "uint256"
        }
      ],
      "name": "PriceUpdated",
      "type": "event"
    },
    {
      "inputs": [
        {
          "internalType": "address",
          "name": "_user",
          "type": "address"
        }
      ],
      "name": "betListLen",
      "outputs": [
        {
          "internalType": "uint256",
          "name": "",
          "type": "uint256"
        }
      ],
      "stateMutability": "view",
      "type": "function"
    },
    {
      "inputs": [],
      "name": "deployTimestamp",
      "outputs": [
        {
          "internalType": "uint256",
          "name": "",
          "type": "uint256"
        }
      ],
      "stateMutability": "view",
      "type": "function"
    },
    {
      "inputs": [
        {
          "internalType": "uint256",
          "name": "windowNumber",
          "type": "uint256"
        }
      ],
      "name": "getPoolValues",
      "outputs": [
        {
          "internalType": "uint256",
          "name": "",
          "type": "uint256"
        },
        {
          "internalType": "uint256",
          "name": "",
          "type": "uint256"
        }
      ],
      "stateMutability": "view",
      "type": "function"
    },
    {
      "inputs": [
        {
          "internalType": "address",
          "name": "_user",
          "type": "address"
        },
        {
          "internalType": "uint256",
          "name": "index",
          "type": "uint256"
        }
      ],
      "name": "getUserBetList",
      "outputs": [
        {
          "internalType": "uint256",
          "name": "",
          "type": "uint256"
        }
      ],
      "stateMutability": "view",
      "type": "function"
    },
    {
      "inputs": [
        {
          "internalType": "uint256",
          "name": "windowNumber",
          "type": "uint256"
        },
        {
          "internalType": "address",
          "name": "_user",
          "type": "address"
        }
      ],
      "name": "getUserStake",
      "outputs": [
        {
          "internalType": "uint256",
          "name": "",
          "type": "uint256"
        },
        {
          "internalType": "uint256",
          "name": "",
          "type": "uint256"
        }
      ],
      "stateMutability": "view",
      "type": "function"
    },
    {
      "inputs": [
        {
          "internalType": "uint256",
          "name": "window",
          "type": "uint256"
        }
      ],
      "name": "getWindowBetPrices",
      "outputs": [
        {
          "internalType": "uint256",
          "name": "",
          "type": "uint256"
        },
        {
          "internalType": "uint256",
          "name": "",
          "type": "uint256"
        }
      ],
      "stateMutability": "view",
      "type": "function"
    },
    {
      "inputs": [
        {
          "internalType": "uint8",
          "name": "side",
          "type": "uint8"
        },
        {
          "internalType": "uint256",
          "name": "value",
          "type": "uint256"
        }
      ],
      "name": "placeBet",
      "outputs": [],
      "stateMutability": "payable",
      "type": "function"
    },
    {
      "inputs": [
        {
          "internalType": "uint256",
          "name": "",
          "type": "uint256"
        }
      ],
      "name": "pools",
      "outputs": [
        {
          "internalType": "uint256",
          "name": "downValue",
          "type": "uint256"
        },
        {
          "internalType": "uint256",
          "name": "upValue",
          "type": "uint256"
        }
      ],
      "stateMutability": "view",
      "type": "function"
    },
    {
      "inputs": [
        {
          "internalType": "uint256",
          "name": "upStake",
          "type": "uint256"
        },
        {
          "internalType": "uint256",
          "name": "downStake",
          "type": "uint256"
        },
        {
          "internalType": "uint256",
          "name": "poolUp",
          "type": "uint256"
        },
        {
          "internalType": "uint256",
          "name": "poolDown",
          "type": "uint256"
        },
        {
          "internalType": "uint8",
          "name": "res",
          "type": "uint8"
        }
      ],
      "name": "settleBet",
      "outputs": [
        {
          "internalType": "uint256",
          "name": "gain",
          "type": "uint256"
        }
      ],
      "stateMutability": "view",
      "type": "function"
    },
    {
      "inputs": [
        {
          "internalType": "address",
          "name": "_user",
          "type": "address"
        }
      ],
      "name": "updateBalance",
      "outputs": [],
      "stateMutability": "nonpayable",
      "type": "function"
    },
    {
      "inputs": [],
      "name": "updatePrice",
      "outputs": [],
      "stateMutability": "nonpayable",
      "type": "function"
    },
    {
      "inputs": [],
      "name": "windowDuration",
      "outputs": [
        {
          "internalType": "uint256",
          "name": "",
          "type": "uint256"
        }
      ],
      "stateMutability": "view",
      "type": "function"
    },
    {
      "inputs": [
        {
          "internalType": "uint256",
          "name": "",
          "type": "uint256"
        }
      ],
      "name": "windowPrice",
      "outputs": [
        {
          "internalType": "uint256",
          "name": "",
          "type": "uint256"
        }
      ],
      "stateMutability": "view",
      "type": "function"
    }
  ],
  "transactionHash": "0x896cf17009243e42265cbce9fb9d6af87147a3b0c6c858488e518509b8369d25",
  "args": [
    14400,
    "0xA4EE28E4C1115006CB42028E06228Ea5337508Df",
    "0x5498BB86BC934c8D34FDA08E81D444153d0D06aD"
  ],
  "solcInputHash": "37511c5cf49720f5a2959443a0da54f9",
  "bytecode": "0x60a060405234801561001057600080fd5b5060405161143438038061143483398101604081905261002f91610087565b600080546001600160a01b0319166001600160a01b039290921691909117905560601b6001600160601b031916608052600355426004556100c3565b80516001600160a01b038116811461008257600080fd5b919050565b60008060006060848603121561009c57600080fd5b835192506100ac6020850161006b565b91506100ba6040850161006b565b90509250925092565b60805160601c61134c6100e8600039600081816108100152610b88015261134c6000f3fe6080604052600436106100d25760003560e01c80639626a2301161007f578063ca055e5311610059578063ca055e53146102ad578063dcb3b30e146102cd578063e0d65d87146102e0578063f83b35fb1461030d57600080fd5b80639626a230146101f3578063ac4afa3814610259578063b47a35661461028d57600080fd5b8063607ad0d7116100b0578063607ad0d714610181578063673a7e281461019757806389b808a7146101ac57600080fd5b80630eff4d88146100d757806340b8405a1461013b5780635c11ff7a1461015d575b600080fd5b3480156100e357600080fd5b506101216100f2366004610f67565b600090815260026020908152604091829020825180840190935280548084526001909101549290910182905291565b604080519283526020830191909152015b60405180910390f35b34801561014757600080fd5b5061015b610156366004610fa9565b61032d565b005b34801561016957600080fd5b5061017360035481565b604051908152602001610132565b34801561018d57600080fd5b5061017360045481565b3480156101a357600080fd5b5061015b610893565b3480156101b857600080fd5b506101736101c7366004610fa9565b73ffffffffffffffffffffffffffffffffffffffff166000908152600160208190526040909120015490565b3480156101ff57600080fd5b5061012161020e366004610fcb565b73ffffffffffffffffffffffffffffffffffffffff16600090815260016020818152604080842094845293815291839020835180850190945280548085529101549290910182905291565b34801561026557600080fd5b50610121610274366004610f67565b6002602052600090815260409020805460019091015482565b34801561029957600080fd5b506101736102a8366004610ff7565b6109bb565b3480156102b957600080fd5b506101736102c8366004611030565b610a08565b61015b6102db36600461107d565b610ace565b3480156102ec57600080fd5b506101736102fb366004610f67565b60056020526000908152604090205481565b34801561031957600080fd5b50610121610328366004610f67565b610e51565b73ffffffffffffffffffffffffffffffffffffffff8116600090815260016020819052604090912090810154610361575050565b60018101546000905b80156107bd5760008360010160018361038391906110ca565b81548110610393576103936110e1565b6000918252602082200154600354600480546040517f508ba0bd00000000000000000000000000000000000000000000000000000000815293955073AE6Ff16c05C93740432136DBd15C7f4A005A5Bb19363508ba0bd936104099342939192019283526020830191909152604082015260600190565b60206040518083038186803b15801561042157600080fd5b505af4158015610435573d6000803e3d6000fd5b505050506040513d601f19601f820116820180604052508101906104599190611110565b905060008061046784610e51565b6040517fb134894e00000000000000000000000000000000000000000000000000000000815260048101879052602481018690526044810183905260648101829052919350915060009073AE6Ff16c05C93740432136DBd15C7f4A005A5Bb19063b134894e9060840160206040518083038186803b1580156104e857600080fd5b505af41580156104fc573d6000803e3d6000fd5b505050506040513d601f19601f820116820180604052508101906105209190611129565b905060008160038111156105365761053661114a565b1480610553575060018160038111156105515761055161114a565b145b156105625750505050506107ab565b600060038260038111156105785761057861114a565b1415610628576040517fc886d8a4000000000000000000000000000000000000000000000000000000008152600481018590526024810184905273AE6Ff16c05C93740432136DBd15C7f4A005A5Bb19063c886d8a49060440160206040518083038186803b1580156105e957600080fd5b505af41580156105fd573d6000803e3d6000fd5b505050506040513d601f19601f820116820180604052508101906106219190611179565b9050610646565b600282600381111561063c5761063c61114a565b1415610646575060025b6001808a0180549091610658916110ca565b81548110610668576106686110e1565b90600052602060002001548960010160018961068491906110ca565b81548110610694576106946110e1565b600091825260209091200155600189018054806106b3576106b3611196565b6000828152602080822083017fffffffffffffffffffffffffffffffffffffffffffffffffffffffffffffffff9081018390559092019092558782528a8152604080832081518083018352815481526001918201548185019081528b86526002855283862084518086019095528054808652930154948401859052518151919593946107429391929188610a08565b905061074e818c6111c5565b9a508c73ffffffffffffffffffffffffffffffffffffffff16897f6f277b50171c654e40c771d9c2bbf19e070eeb21cce6f8e9a80334564279e3958360405161079991815260200190565b60405180910390a35050505050505050505b806107b5816111dd565b91505061036a565b50801561088e576040517fa9059cbb00000000000000000000000000000000000000000000000000000000815273ffffffffffffffffffffffffffffffffffffffff8481166004830152602482018390527f0000000000000000000000000000000000000000000000000000000000000000169063a9059cbb90604401602060405180830381600087803b15801561085457600080fd5b505af1158015610868573d6000803e3d6000fd5b505050506040513d601f19601f8201168201806040525081019061088c9190611212565b505b505050565b600354600480546040517f508ba0bd00000000000000000000000000000000000000000000000000000000815260009373AE6Ff16c05C93740432136DBd15C7f4A005A5Bb19363508ba0bd936108fd93429392019283526020830191909152604082015260600190565b60206040518083038186803b15801561091557600080fd5b505af4158015610929573d6000803e3d6000fd5b505050506040513d601f19601f8201168201806040525081019061094d9190611110565b6000818152600560205260409020549091506109b85761096b610e9a565b600082815260056020526040908190208290555182917f945c1c4e99aa89f648fbfe3df471b916f719e16d960fcec0737d4d56bd696838916109af91815260200190565b60405180910390a25b50565b73ffffffffffffffffffffffffffffffffffffffff821660009081526001602081905260408220018054839081106109f5576109f56110e1565b9060005260206000200154905092915050565b6000808260ff166002811115610a2057610a2061114a565b90506000610a2e85876111c5565b905060006001836002811115610a4657610a4661114a565b148015610a5257508615155b15610a6957610a62828a89610f48565b9350610ac2565b6000836002811115610a7d57610a7d61114a565b148015610a8957508515155b15610a9957610a62828988610f48565b6002836002811115610aad57610aad61114a565b1415610abd57610a62888a6111c5565b600093505b50505095945050505050565b60008111610b3c576040517f08c379a000000000000000000000000000000000000000000000000000000000815260206004820152601d60248201527f4f6e6c79207374726963746c7920706f7369746976652076616c756573000000604482015260640160405180910390fd5b610b44610893565b610b4d3361032d565b6040517f23b872dd000000000000000000000000000000000000000000000000000000008152336004820152306024820152604481018290527f000000000000000000000000000000000000000000000000000000000000000073ffffffffffffffffffffffffffffffffffffffff16906323b872dd90606401602060405180830381600087803b158015610be157600080fd5b505af1158015610bf5573d6000803e3d6000fd5b505050506040513d601f19601f82011682018060405250810190610c199190611212565b50600354600480546040517f508ba0bd00000000000000000000000000000000000000000000000000000000815260009373AE6Ff16c05C93740432136DBd15C7f4A005A5Bb19363508ba0bd93610c8493429392019283526020830191909152604082015260600190565b60206040518083038186803b158015610c9c57600080fd5b505af4158015610cb0573d6000803e3d6000fd5b505050506040513d601f19601f82011682018060405250810190610cd49190611110565b33600090815260016020819052604090912090810154919250901580610d265750600180820180549091610d07916110ca565b81548110610d1757610d176110e1565b90600052602060002001548214155b15610d4557600180820180549182018155600090815260209020018290555b60018460ff166001811115610d5c57610d5c61114a565b6001811115610d6d57610d6d61114a565b1415610dc55760008281526020829052604081206001018054859290610d949084906111c5565b909155505060008281526002602052604081206001018054859290610dba9084906111c5565b90915550610e0c9050565b60008281526020829052604081208054859290610de39084906111c5565b909155505060008281526002602052604081208054859290610e069084906111c5565b90915550505b6040805184815260ff86166020820152839133917f85ff162f60a0eab11e1e0d3d9cfa18a46d7038a29751af4130dbaeeadbd37ed4910160405180910390a350505050565b600080600581610e628560016111c5565b81526020019081526020016000205460056000856002610e8291906111c5565b81526020019081526020016000205491509150915091565b60008054604080517ffeaf968c0000000000000000000000000000000000000000000000000000000081529051839273ffffffffffffffffffffffffffffffffffffffff169163feaf968c9160048083019260a0929190829003018186803b158015610f0557600080fd5b505afa158015610f19573d6000803e3d6000fd5b505050506040513d601f19601f82011682018060405250810190610f3d919061124e565b509195945050505050565b600081610f55858561129e565b610f5f91906112db565b949350505050565b600060208284031215610f7957600080fd5b5035919050565b803573ffffffffffffffffffffffffffffffffffffffff81168114610fa457600080fd5b919050565b600060208284031215610fbb57600080fd5b610fc482610f80565b9392505050565b60008060408385031215610fde57600080fd5b82359150610fee60208401610f80565b90509250929050565b6000806040838503121561100a57600080fd5b61101383610f80565b946020939093013593505050565b60ff811681146109b857600080fd5b600080600080600060a0868803121561104857600080fd5b85359450602086013593506040860135925060608601359150608086013561106f81611021565b809150509295509295909350565b6000806040838503121561109057600080fd5b823561101381611021565b7f4e487b7100000000000000000000000000000000000000000000000000000000600052601160045260246000fd5b6000828210156110dc576110dc61109b565b500390565b7f4e487b7100000000000000000000000000000000000000000000000000000000600052603260045260246000fd5b60006020828403121561112257600080fd5b5051919050565b60006020828403121561113b57600080fd5b815160048110610fc457600080fd5b7f4e487b7100000000000000000000000000000000000000000000000000000000600052602160045260246000fd5b60006020828403121561118b57600080fd5b8151610fc481611021565b7f4e487b7100000000000000000000000000000000000000000000000000000000600052603160045260246000fd5b600082198211156111d8576111d861109b565b500190565b6000816111ec576111ec61109b565b507fffffffffffffffffffffffffffffffffffffffffffffffffffffffffffffffff0190565b60006020828403121561122457600080fd5b81518015158114610fc457600080fd5b805169ffffffffffffffffffff81168114610fa457600080fd5b600080600080600060a0868803121561126657600080fd5b61126f86611234565b945060208601519350604086015192506060860151915061129260808701611234565b90509295509295909350565b6000817fffffffffffffffffffffffffffffffffffffffffffffffffffffffffffffffff04831182151516156112d6576112d661109b565b500290565b600082611311577f4e487b7100000000000000000000000000000000000000000000000000000000600052601260045260246000fd5b50049056fea2646970667358221220af6659b4e5494a588ece4d7c1d6bb98f0590352e5782ee1db74a28933e75f94b64736f6c63430008080033",
  "deployedBytecode": "0x6080604052600436106100d25760003560e01c80639626a2301161007f578063ca055e5311610059578063ca055e53146102ad578063dcb3b30e146102cd578063e0d65d87146102e0578063f83b35fb1461030d57600080fd5b80639626a230146101f3578063ac4afa3814610259578063b47a35661461028d57600080fd5b8063607ad0d7116100b0578063607ad0d714610181578063673a7e281461019757806389b808a7146101ac57600080fd5b80630eff4d88146100d757806340b8405a1461013b5780635c11ff7a1461015d575b600080fd5b3480156100e357600080fd5b506101216100f2366004610f67565b600090815260026020908152604091829020825180840190935280548084526001909101549290910182905291565b604080519283526020830191909152015b60405180910390f35b34801561014757600080fd5b5061015b610156366004610fa9565b61032d565b005b34801561016957600080fd5b5061017360035481565b604051908152602001610132565b34801561018d57600080fd5b5061017360045481565b3480156101a357600080fd5b5061015b610893565b3480156101b857600080fd5b506101736101c7366004610fa9565b73ffffffffffffffffffffffffffffffffffffffff166000908152600160208190526040909120015490565b3480156101ff57600080fd5b5061012161020e366004610fcb565b73ffffffffffffffffffffffffffffffffffffffff16600090815260016020818152604080842094845293815291839020835180850190945280548085529101549290910182905291565b34801561026557600080fd5b50610121610274366004610f67565b6002602052600090815260409020805460019091015482565b34801561029957600080fd5b506101736102a8366004610ff7565b6109bb565b3480156102b957600080fd5b506101736102c8366004611030565b610a08565b61015b6102db36600461107d565b610ace565b3480156102ec57600080fd5b506101736102fb366004610f67565b60056020526000908152604090205481565b34801561031957600080fd5b50610121610328366004610f67565b610e51565b73ffffffffffffffffffffffffffffffffffffffff8116600090815260016020819052604090912090810154610361575050565b60018101546000905b80156107bd5760008360010160018361038391906110ca565b81548110610393576103936110e1565b6000918252602082200154600354600480546040517f508ba0bd00000000000000000000000000000000000000000000000000000000815293955073__$686c523504a9e378bd393220b2fc4a35a6$__9363508ba0bd936104099342939192019283526020830191909152604082015260600190565b60206040518083038186803b15801561042157600080fd5b505af4158015610435573d6000803e3d6000fd5b505050506040513d601f19601f820116820180604052508101906104599190611110565b905060008061046784610e51565b6040517fb134894e00000000000000000000000000000000000000000000000000000000815260048101879052602481018690526044810183905260648101829052919350915060009073__$686c523504a9e378bd393220b2fc4a35a6$__9063b134894e9060840160206040518083038186803b1580156104e857600080fd5b505af41580156104fc573d6000803e3d6000fd5b505050506040513d601f19601f820116820180604052508101906105209190611129565b905060008160038111156105365761053661114a565b1480610553575060018160038111156105515761055161114a565b145b156105625750505050506107ab565b600060038260038111156105785761057861114a565b1415610628576040517fc886d8a4000000000000000000000000000000000000000000000000000000008152600481018590526024810184905273__$686c523504a9e378bd393220b2fc4a35a6$__9063c886d8a49060440160206040518083038186803b1580156105e957600080fd5b505af41580156105fd573d6000803e3d6000fd5b505050506040513d601f19601f820116820180604052508101906106219190611179565b9050610646565b600282600381111561063c5761063c61114a565b1415610646575060025b6001808a0180549091610658916110ca565b81548110610668576106686110e1565b90600052602060002001548960010160018961068491906110ca565b81548110610694576106946110e1565b600091825260209091200155600189018054806106b3576106b3611196565b6000828152602080822083017fffffffffffffffffffffffffffffffffffffffffffffffffffffffffffffffff9081018390559092019092558782528a8152604080832081518083018352815481526001918201548185019081528b86526002855283862084518086019095528054808652930154948401859052518151919593946107429391929188610a08565b905061074e818c6111c5565b9a508c73ffffffffffffffffffffffffffffffffffffffff16897f6f277b50171c654e40c771d9c2bbf19e070eeb21cce6f8e9a80334564279e3958360405161079991815260200190565b60405180910390a35050505050505050505b806107b5816111dd565b91505061036a565b50801561088e576040517fa9059cbb00000000000000000000000000000000000000000000000000000000815273ffffffffffffffffffffffffffffffffffffffff8481166004830152602482018390527f0000000000000000000000000000000000000000000000000000000000000000169063a9059cbb90604401602060405180830381600087803b15801561085457600080fd5b505af1158015610868573d6000803e3d6000fd5b505050506040513d601f19601f8201168201806040525081019061088c9190611212565b505b505050565b600354600480546040517f508ba0bd00000000000000000000000000000000000000000000000000000000815260009373__$686c523504a9e378bd393220b2fc4a35a6$__9363508ba0bd936108fd93429392019283526020830191909152604082015260600190565b60206040518083038186803b15801561091557600080fd5b505af4158015610929573d6000803e3d6000fd5b505050506040513d601f19601f8201168201806040525081019061094d9190611110565b6000818152600560205260409020549091506109b85761096b610e9a565b600082815260056020526040908190208290555182917f945c1c4e99aa89f648fbfe3df471b916f719e16d960fcec0737d4d56bd696838916109af91815260200190565b60405180910390a25b50565b73ffffffffffffffffffffffffffffffffffffffff821660009081526001602081905260408220018054839081106109f5576109f56110e1565b9060005260206000200154905092915050565b6000808260ff166002811115610a2057610a2061114a565b90506000610a2e85876111c5565b905060006001836002811115610a4657610a4661114a565b148015610a5257508615155b15610a6957610a62828a89610f48565b9350610ac2565b6000836002811115610a7d57610a7d61114a565b148015610a8957508515155b15610a9957610a62828988610f48565b6002836002811115610aad57610aad61114a565b1415610abd57610a62888a6111c5565b600093505b50505095945050505050565b60008111610b3c576040517f08c379a000000000000000000000000000000000000000000000000000000000815260206004820152601d60248201527f4f6e6c79207374726963746c7920706f7369746976652076616c756573000000604482015260640160405180910390fd5b610b44610893565b610b4d3361032d565b6040517f23b872dd000000000000000000000000000000000000000000000000000000008152336004820152306024820152604481018290527f000000000000000000000000000000000000000000000000000000000000000073ffffffffffffffffffffffffffffffffffffffff16906323b872dd90606401602060405180830381600087803b158015610be157600080fd5b505af1158015610bf5573d6000803e3d6000fd5b505050506040513d601f19601f82011682018060405250810190610c199190611212565b50600354600480546040517f508ba0bd00000000000000000000000000000000000000000000000000000000815260009373__$686c523504a9e378bd393220b2fc4a35a6$__9363508ba0bd93610c8493429392019283526020830191909152604082015260600190565b60206040518083038186803b158015610c9c57600080fd5b505af4158015610cb0573d6000803e3d6000fd5b505050506040513d601f19601f82011682018060405250810190610cd49190611110565b33600090815260016020819052604090912090810154919250901580610d265750600180820180549091610d07916110ca565b81548110610d1757610d176110e1565b90600052602060002001548214155b15610d4557600180820180549182018155600090815260209020018290555b60018460ff166001811115610d5c57610d5c61114a565b6001811115610d6d57610d6d61114a565b1415610dc55760008281526020829052604081206001018054859290610d949084906111c5565b909155505060008281526002602052604081206001018054859290610dba9084906111c5565b90915550610e0c9050565b60008281526020829052604081208054859290610de39084906111c5565b909155505060008281526002602052604081208054859290610e069084906111c5565b90915550505b6040805184815260ff86166020820152839133917f85ff162f60a0eab11e1e0d3d9cfa18a46d7038a29751af4130dbaeeadbd37ed4910160405180910390a350505050565b600080600581610e628560016111c5565b81526020019081526020016000205460056000856002610e8291906111c5565b81526020019081526020016000205491509150915091565b60008054604080517ffeaf968c0000000000000000000000000000000000000000000000000000000081529051839273ffffffffffffffffffffffffffffffffffffffff169163feaf968c9160048083019260a0929190829003018186803b158015610f0557600080fd5b505afa158015610f19573d6000803e3d6000fd5b505050506040513d601f19601f82011682018060405250810190610f3d919061124e565b509195945050505050565b600081610f55858561129e565b610f5f91906112db565b949350505050565b600060208284031215610f7957600080fd5b5035919050565b803573ffffffffffffffffffffffffffffffffffffffff81168114610fa457600080fd5b919050565b600060208284031215610fbb57600080fd5b610fc482610f80565b9392505050565b60008060408385031215610fde57600080fd5b82359150610fee60208401610f80565b90509250929050565b6000806040838503121561100a57600080fd5b61101383610f80565b946020939093013593505050565b60ff811681146109b857600080fd5b600080600080600060a0868803121561104857600080fd5b85359450602086013593506040860135925060608601359150608086013561106f81611021565b809150509295509295909350565b6000806040838503121561109057600080fd5b823561101381611021565b7f4e487b7100000000000000000000000000000000000000000000000000000000600052601160045260246000fd5b6000828210156110dc576110dc61109b565b500390565b7f4e487b7100000000000000000000000000000000000000000000000000000000600052603260045260246000fd5b60006020828403121561112257600080fd5b5051919050565b60006020828403121561113b57600080fd5b815160048110610fc457600080fd5b7f4e487b7100000000000000000000000000000000000000000000000000000000600052602160045260246000fd5b60006020828403121561118b57600080fd5b8151610fc481611021565b7f4e487b7100000000000000000000000000000000000000000000000000000000600052603160045260246000fd5b600082198211156111d8576111d861109b565b500190565b6000816111ec576111ec61109b565b507fffffffffffffffffffffffffffffffffffffffffffffffffffffffffffffffff0190565b60006020828403121561122457600080fd5b81518015158114610fc457600080fd5b805169ffffffffffffffffffff81168114610fa457600080fd5b600080600080600060a0868803121561126657600080fd5b61126f86611234565b945060208601519350604086015192506060860151915061129260808701611234565b90509295509295909350565b6000817fffffffffffffffffffffffffffffffffffffffffffffffffffffffffffffffff04831182151516156112d6576112d661109b565b500290565b600082611311577f4e487b7100000000000000000000000000000000000000000000000000000000600052601260045260246000fd5b50049056fea2646970667358221220af6659b4e5494a588ece4d7c1d6bb98f0590352e5782ee1db74a28933e75f94b64736f6c63430008080033",
  "libraries": {
    "BetLibrary": "0xAE6Ff16c05C93740432136DBd15C7f4A005A5Bb1"
  },
  "devdoc": {
    "kind": "dev",
    "methods": {},
    "version": 1
  },
  "userdoc": {
    "kind": "user",
    "methods": {},
    "version": 1
  },
  "storageLayout": {
    "storage": [
      {
        "astId": 2973,
        "contract": "contracts/DailyPool.sol:DailyPool",
        "label": "priceFeed",
        "offset": 0,
        "slot": "0",
        "type": "t_contract(AggregatorV3Interface)45"
      },
      {
        "astId": 2981,
        "contract": "contracts/DailyPool.sol:DailyPool",
        "label": "user",
        "offset": 0,
        "slot": "1",
        "type": "t_mapping(t_address,t_struct(User)1380_storage)"
      },
      {
        "astId": 2986,
        "contract": "contracts/DailyPool.sol:DailyPool",
        "label": "pools",
        "offset": 0,
        "slot": "2",
        "type": "t_mapping(t_uint256,t_struct(Pool)1371_storage)"
      },
      {
        "astId": 2988,
        "contract": "contracts/DailyPool.sol:DailyPool",
        "label": "windowDuration",
        "offset": 0,
        "slot": "3",
        "type": "t_uint256"
      },
      {
        "astId": 2990,
        "contract": "contracts/DailyPool.sol:DailyPool",
        "label": "deployTimestamp",
        "offset": 0,
        "slot": "4",
        "type": "t_uint256"
      },
      {
        "astId": 2994,
        "contract": "contracts/DailyPool.sol:DailyPool",
        "label": "windowPrice",
        "offset": 0,
        "slot": "5",
        "type": "t_mapping(t_uint256,t_uint256)"
      }
    ],
    "types": {
      "t_address": {
        "encoding": "inplace",
        "label": "address",
        "numberOfBytes": "20"
      },
      "t_array(t_uint256)dyn_storage": {
        "base": "t_uint256",
        "encoding": "dynamic_array",
        "label": "uint256[]",
        "numberOfBytes": "32"
      },
      "t_contract(AggregatorV3Interface)45": {
        "encoding": "inplace",
        "label": "contract AggregatorV3Interface",
        "numberOfBytes": "20"
      },
      "t_mapping(t_address,t_struct(User)1380_storage)": {
        "encoding": "mapping",
        "key": "t_address",
        "label": "mapping(address => struct BetLibrary.User)",
        "numberOfBytes": "32",
        "value": "t_struct(User)1380_storage"
      },
      "t_mapping(t_uint256,t_struct(Pool)1371_storage)": {
        "encoding": "mapping",
        "key": "t_uint256",
        "label": "mapping(uint256 => struct BetLibrary.Pool)",
        "numberOfBytes": "32",
        "value": "t_struct(Pool)1371_storage"
      },
      "t_mapping(t_uint256,t_uint256)": {
        "encoding": "mapping",
        "key": "t_uint256",
        "label": "mapping(uint256 => uint256)",
        "numberOfBytes": "32",
        "value": "t_uint256"
      },
      "t_struct(Pool)1371_storage": {
        "encoding": "inplace",
        "label": "struct BetLibrary.Pool",
        "members": [
          {
            "astId": 1368,
            "contract": "contracts/DailyPool.sol:DailyPool",
            "label": "downValue",
            "offset": 0,
            "slot": "0",
            "type": "t_uint256"
          },
          {
            "astId": 1370,
            "contract": "contracts/DailyPool.sol:DailyPool",
            "label": "upValue",
            "offset": 0,
            "slot": "1",
            "type": "t_uint256"
          }
        ],
        "numberOfBytes": "64"
      },
      "t_struct(User)1380_storage": {
        "encoding": "inplace",
        "label": "struct BetLibrary.User",
        "members": [
          {
            "astId": 1376,
            "contract": "contracts/DailyPool.sol:DailyPool",
            "label": "stake",
            "offset": 0,
            "slot": "0",
            "type": "t_mapping(t_uint256,t_struct(Pool)1371_storage)"
          },
          {
            "astId": 1379,
            "contract": "contracts/DailyPool.sol:DailyPool",
            "label": "bets",
            "offset": 0,
            "slot": "1",
            "type": "t_array(t_uint256)dyn_storage"
          }
        ],
        "numberOfBytes": "64"
      },
      "t_uint256": {
        "encoding": "inplace",
        "label": "uint256",
        "numberOfBytes": "32"
      }
    }
  }
}