{
  "address": "0x17101909E89EdE2D0588365202111113e7BCf581",
  "abi": [
    {
      "inputs": [
        {
          "internalType": "uint256",
          "name": "_windowDuration",
          "type": "uint256"
        },
        {
          "internalType": "address",
          "name": "tokenContract",
          "type": "address"
        },
        {
          "internalType": "address",
          "name": "binarybetContract",
          "type": "address"
        }
      ],
      "stateMutability": "nonpayable",
      "type": "constructor"
    },
    {
      "anonymous": false,
      "inputs": [
        {
          "indexed": true,
          "internalType": "uint256",
          "name": "windowNumber",
          "type": "uint256"
        },
        {
          "indexed": true,
          "internalType": "address",
          "name": "user",
          "type": "address"
        },
        {
          "indexed": false,
          "internalType": "uint256",
          "name": "gain",
          "type": "uint256"
        }
      ],
      "name": "BetSettled",
      "type": "event"
    },
    {
      "anonymous": false,
      "inputs": [
        {
          "indexed": true,
          "internalType": "address",
          "name": "user",
          "type": "address"
        },
        {
          "indexed": true,
          "internalType": "uint256",
          "name": "windowNumber",
          "type": "uint256"
        },
        {
          "indexed": false,
          "internalType": "uint256",
          "name": "value",
          "type": "uint256"
        },
        {
          "indexed": false,
          "internalType": "uint8",
          "name": "side",
          "type": "uint8"
        }
      ],
      "name": "NewBet",
      "type": "event"
    },
    {
      "inputs": [
        {
          "internalType": "address",
          "name": "_user",
          "type": "address"
        }
      ],
      "name": "betListLen",
      "outputs": [
        {
          "internalType": "uint256",
          "name": "",
          "type": "uint256"
        }
      ],
      "stateMutability": "view",
      "type": "function"
    },
    {
      "inputs": [
        {
          "internalType": "uint256",
          "name": "windowNumber",
          "type": "uint256"
        }
      ],
      "name": "getPoolValues",
      "outputs": [
        {
          "internalType": "uint256",
          "name": "",
          "type": "uint256"
        },
        {
          "internalType": "uint256",
          "name": "",
          "type": "uint256"
        }
      ],
      "stateMutability": "view",
      "type": "function"
    },
    {
      "inputs": [
        {
          "internalType": "address",
          "name": "_user",
          "type": "address"
        },
        {
          "internalType": "uint256",
          "name": "index",
          "type": "uint256"
        }
      ],
      "name": "getUserBetList",
      "outputs": [
        {
          "internalType": "uint256",
          "name": "",
          "type": "uint256"
        }
      ],
      "stateMutability": "view",
      "type": "function"
    },
    {
      "inputs": [
        {
          "internalType": "uint256",
          "name": "windowNumber",
          "type": "uint256"
        },
        {
          "internalType": "address",
          "name": "_user",
          "type": "address"
        }
      ],
      "name": "getUserStake",
      "outputs": [
        {
          "internalType": "uint256",
          "name": "",
          "type": "uint256"
        },
        {
          "internalType": "uint256",
          "name": "",
          "type": "uint256"
        }
      ],
      "stateMutability": "view",
      "type": "function"
    },
    {
      "inputs": [
        {
          "internalType": "uint256",
          "name": "windowNumber",
          "type": "uint256"
        }
      ],
      "name": "getWindowBetPrices",
      "outputs": [
        {
          "internalType": "uint256",
          "name": "",
          "type": "uint256"
        },
        {
          "internalType": "uint256",
          "name": "",
          "type": "uint256"
        }
      ],
      "stateMutability": "nonpayable",
      "type": "function"
    },
    {
      "inputs": [
        {
          "internalType": "uint8",
          "name": "side",
          "type": "uint8"
        },
        {
          "internalType": "uint256",
          "name": "value",
          "type": "uint256"
        }
      ],
      "name": "placeBet",
      "outputs": [],
      "stateMutability": "payable",
      "type": "function"
    },
    {
      "inputs": [
        {
          "internalType": "uint256",
          "name": "",
          "type": "uint256"
        }
      ],
      "name": "pools",
      "outputs": [
        {
          "internalType": "uint256",
          "name": "downValue",
          "type": "uint256"
        },
        {
          "internalType": "uint256",
          "name": "upValue",
          "type": "uint256"
        }
      ],
      "stateMutability": "view",
      "type": "function"
    },
    {
      "inputs": [
        {
          "internalType": "uint256",
          "name": "upStake",
          "type": "uint256"
        },
        {
          "internalType": "uint256",
          "name": "downStake",
          "type": "uint256"
        },
        {
          "internalType": "uint256",
          "name": "poolUp",
          "type": "uint256"
        },
        {
          "internalType": "uint256",
          "name": "poolDown",
          "type": "uint256"
        },
        {
          "internalType": "uint8",
          "name": "res",
          "type": "uint8"
        }
      ],
      "name": "settleBet",
      "outputs": [
        {
          "internalType": "uint256",
          "name": "gain",
          "type": "uint256"
        }
      ],
      "stateMutability": "view",
      "type": "function"
    },
    {
      "inputs": [
        {
          "internalType": "address",
          "name": "_user",
          "type": "address"
        }
      ],
      "name": "updateBalance",
      "outputs": [],
      "stateMutability": "nonpayable",
      "type": "function"
    },
    {
      "inputs": [],
      "name": "windowDuration",
      "outputs": [
        {
          "internalType": "uint256",
          "name": "",
          "type": "uint256"
        }
      ],
      "stateMutability": "view",
      "type": "function"
    }
  ],
  "transactionHash": "0x59c77dccb8d13fa45f09fe8b16349ad757229d38b9aacd9afd43c9b9020c21b7",
  "args": [
    14400,
    "0xA4EE28E4C1115006CB42028E06228Ea5337508Df",
    "0xFc2325c1A5a8822730DC8fE81403d52159996F7b"
  ],
  "solcInputHash": "be8cdf0e8d14af2c577c403a0e9e26d2",
  "bytecode": "0x60c06040523480156200001157600080fd5b50604051620019e4380380620019e4833981016040819052620000349162000074565b6001600160601b0319606091821b811660805291901b1660a052600255620000b5565b80516001600160a01b03811681146200006f57600080fd5b919050565b6000806000606084860312156200008a57600080fd5b835192506200009c6020850162000057565b9150620000ac6040850162000057565b90509250925092565b60805160601c60a05160601c6118bd62000127600039600081816108280152610af001526000818161034201528181610a2e01528181610ba401528181610e7401528181610fd701528181611075015281816111c601528181611264015281816113c6015261148401526118bd6000f3fe6080604052600436106100b15760003560e01c8063ac4afa3811610069578063ca055e531161004e578063ca055e531461025c578063dcb3b30e1461027c578063f83b35fb1461028f57600080fd5b8063ac4afa3814610208578063b47a35661461023c57600080fd5b80635c11ff7a1161009a5780635c11ff7a1461013757806389b808a71461015b5780639626a230146101a157600080fd5b80630eff4d88146100b657806340b8405a14610115575b600080fd5b3480156100c257600080fd5b506100fb6100d136600461153f565b60009081526001602081815260409283902083518085019094528054808552920154920182905291565b604080519283526020830191909152015b60405180910390f35b34801561012157600080fd5b50610135610130366004611581565b6102af565b005b34801561014357600080fd5b5061014d60025481565b60405190815260200161010c565b34801561016757600080fd5b5061014d610176366004611581565b73ffffffffffffffffffffffffffffffffffffffff1660009081526020819052604090206001015490565b3480156101ad57600080fd5b506100fb6101bc3660046115a3565b73ffffffffffffffffffffffffffffffffffffffff1660009081526020818152604080832093835292815290829020825180840190935280548084526001909101549290910182905291565b34801561021457600080fd5b506100fb61022336600461153f565b6001602081905260009182526040909120805491015482565b34801561024857600080fd5b5061014d6102573660046115cf565b6108ab565b34801561026857600080fd5b5061014d61027736600461160b565b6108f8565b61013561028a366004611658565b6109be565b34801561029b57600080fd5b506100fb6102aa36600461153f565b610e4f565b73ffffffffffffffffffffffffffffffffffffffff8116600090815260208190526040902060018101546102e1575050565b60018101546000905b80156107d55760008360010160018361030391906116a5565b81548110610313576103136116bc565b90600052602060002001549050600073AE6Ff16c05C93740432136DBd15C7f4A005A5Bb163508ba0bd426002547f000000000000000000000000000000000000000000000000000000000000000073ffffffffffffffffffffffffffffffffffffffff1663607ad0d76040518163ffffffff1660e01b815260040160206040518083038186803b1580156103a657600080fd5b505afa1580156103ba573d6000803e3d6000fd5b505050506040513d601f19601f820116820180604052508101906103de91906116eb565b6040517fffffffff0000000000000000000000000000000000000000000000000000000060e086901b16815260048101939093526024830191909152604482015260640160206040518083038186803b15801561043a57600080fd5b505af415801561044e573d6000803e3d6000fd5b505050506040513d601f19601f8201168201806040525081019061047291906116eb565b905060008061048084610e4f565b6040517fb134894e00000000000000000000000000000000000000000000000000000000815260048101879052602481018690526044810183905260648101829052919350915060009073AE6Ff16c05C93740432136DBd15C7f4A005A5Bb19063b134894e9060840160206040518083038186803b15801561050157600080fd5b505af4158015610515573d6000803e3d6000fd5b505050506040513d601f19601f820116820180604052508101906105399190611704565b9050600081600381111561054f5761054f611725565b148061056c5750600181600381111561056a5761056a611725565b145b1561057b5750505050506107c3565b6000600382600381111561059157610591611725565b1415610641576040517fc886d8a4000000000000000000000000000000000000000000000000000000008152600481018590526024810184905273AE6Ff16c05C93740432136DBd15C7f4A005A5Bb19063c886d8a49060440160206040518083038186803b15801561060257600080fd5b505af4158015610616573d6000803e3d6000fd5b505050506040513d601f19601f8201168201806040525081019061063a9190611754565b905061065f565b600282600381111561065557610655611725565b141561065f575060025b6001808a0180549091610671916116a5565b81548110610681576106816116bc565b90600052602060002001548960010160018961069d91906116a5565b815481106106ad576106ad6116bc565b600091825260209091200155600189018054806106cc576106cc611771565b6000828152602080822083017fffffffffffffffffffffffffffffffffffffffffffffffffffffffffffffffff9081018390559092019092558782528a8152604080832081518083018352815481526001918201548185019081528b8652828552838620845180860190955280548086529301549484018590525181519195939461075a93919291886108f8565b9050610766818c6117a0565b9a508c73ffffffffffffffffffffffffffffffffffffffff16897f6f277b50171c654e40c771d9c2bbf19e070eeb21cce6f8e9a80334564279e395836040516107b191815260200190565b60405180910390a35050505050505050505b806107cd816117b8565b9150506102ea565b5080156108a6576040517fa9059cbb00000000000000000000000000000000000000000000000000000000815273ffffffffffffffffffffffffffffffffffffffff8481166004830152602482018390527f0000000000000000000000000000000000000000000000000000000000000000169063a9059cbb90604401602060405180830381600087803b15801561086c57600080fd5b505af1158015610880573d6000803e3d6000fd5b505050506040513d601f19601f820116820180604052508101906108a491906117ed565b505b505050565b73ffffffffffffffffffffffffffffffffffffffff821660009081526020819052604081206001018054839081106108e5576108e56116bc565b9060005260206000200154905092915050565b6000808260ff16600281111561091057610910611725565b9050600061091e85876117a0565b90506000600183600281111561093657610936611725565b14801561094257508615155b1561095957610952828a89611520565b93506109b2565b600083600281111561096d5761096d611725565b14801561097957508515155b1561098957610952828988611520565b600283600281111561099d5761099d611725565b14156109ad57610952888a6117a0565b600093505b50505095945050505050565b60008111610a2c576040517f08c379a000000000000000000000000000000000000000000000000000000000815260206004820152601d60248201527f4f6e6c79207374726963746c7920706f7369746976652076616c756573000000604482015260640160405180910390fd5b7f000000000000000000000000000000000000000000000000000000000000000073ffffffffffffffffffffffffffffffffffffffff1663673a7e286040518163ffffffff1660e01b8152600401600060405180830381600087803b158015610a9457600080fd5b505af1158015610aa8573d6000803e3d6000fd5b50505050610ab5336102af565b6040517f23b872dd000000000000000000000000000000000000000000000000000000008152336004820152306024820152604481018290527f000000000000000000000000000000000000000000000000000000000000000073ffffffffffffffffffffffffffffffffffffffff16906323b872dd90606401602060405180830381600087803b158015610b4957600080fd5b505af1158015610b5d573d6000803e3d6000fd5b505050506040513d601f19601f82011682018060405250810190610b8191906117ed565b50600073AE6Ff16c05C93740432136DBd15C7f4A005A5Bb163508ba0bd426002547f000000000000000000000000000000000000000000000000000000000000000073ffffffffffffffffffffffffffffffffffffffff1663607ad0d76040518163ffffffff1660e01b815260040160206040518083038186803b158015610c0857600080fd5b505afa158015610c1c573d6000803e3d6000fd5b505050506040513d601f19601f82011682018060405250810190610c4091906116eb565b6040517fffffffff0000000000000000000000000000000000000000000000000000000060e086901b16815260048101939093526024830191909152604482015260640160206040518083038186803b158015610c9c57600080fd5b505af4158015610cb0573d6000803e3d6000fd5b505050506040513d601f19601f82011682018060405250810190610cd491906116eb565b3360009081526020819052604090206001810154919250901580610d245750600180820180549091610d05916116a5565b81548110610d1557610d156116bc565b90600052602060002001548214155b15610d4357600180820180549182018155600090815260209020018290555b60018460ff166001811115610d5a57610d5a611725565b6001811115610d6b57610d6b611725565b1415610dc35760008281526020829052604081206001018054859290610d929084906117a0565b909155505060008281526001602081905260408220018054859290610db89084906117a0565b90915550610e0a9050565b60008281526020829052604081208054859290610de19084906117a0565b909155505060008281526001602052604081208054859290610e049084906117a0565b90915550505b6040805184815260ff86166020820152839133917f85ff162f60a0eab11e1e0d3d9cfa18a46d7038a29751af4130dbaeeadbd37ed4910160405180910390a350505050565b600080600073AE6Ff16c05C93740432136DBd15C7f4A005A5Bb163c3390901856002547f000000000000000000000000000000000000000000000000000000000000000073ffffffffffffffffffffffffffffffffffffffff1663607ad0d76040518163ffffffff1660e01b815260040160206040518083038186803b158015610ed857600080fd5b505afa158015610eec573d6000803e3d6000fd5b505050506040513d601f19601f82011682018060405250810190610f1091906116eb565b6040517fffffffff0000000000000000000000000000000000000000000000000000000060e086901b16815260048101939093526024830191909152604482015260640160206040518083038186803b158015610f6c57600080fd5b505af4158015610f80573d6000803e3d6000fd5b505050506040513d601f19601f82011682018060405250810190610fa491906116eb565b9050600060025482610fb691906117a0565b9050600073AE6Ff16c05C93740432136DBd15C7f4A005A5Bb163508ba0bd847f000000000000000000000000000000000000000000000000000000000000000073ffffffffffffffffffffffffffffffffffffffff16635c11ff7a6040518163ffffffff1660e01b815260040160206040518083038186803b15801561103b57600080fd5b505afa15801561104f573d6000803e3d6000fd5b505050506040513d601f19601f8201168201806040525081019061107391906116eb565b7f000000000000000000000000000000000000000000000000000000000000000073ffffffffffffffffffffffffffffffffffffffff1663607ad0d76040518163ffffffff1660e01b815260040160206040518083038186803b1580156110d957600080fd5b505afa1580156110ed573d6000803e3d6000fd5b505050506040513d601f19601f8201168201806040525081019061111191906116eb565b6040517fffffffff0000000000000000000000000000000000000000000000000000000060e086901b16815260048101939093526024830191909152604482015260640160206040518083038186803b15801561116d57600080fd5b505af4158015611181573d6000803e3d6000fd5b505050506040513d601f19601f820116820180604052508101906111a591906116eb565b9050600073AE6Ff16c05C93740432136DBd15C7f4A005A5Bb163508ba0bd847f000000000000000000000000000000000000000000000000000000000000000073ffffffffffffffffffffffffffffffffffffffff16635c11ff7a6040518163ffffffff1660e01b815260040160206040518083038186803b15801561122a57600080fd5b505afa15801561123e573d6000803e3d6000fd5b505050506040513d601f19601f8201168201806040525081019061126291906116eb565b7f000000000000000000000000000000000000000000000000000000000000000073ffffffffffffffffffffffffffffffffffffffff1663607ad0d76040518163ffffffff1660e01b815260040160206040518083038186803b1580156112c857600080fd5b505afa1580156112dc573d6000803e3d6000fd5b505050506040513d601f19601f8201168201806040525081019061130091906116eb565b6040517fffffffff0000000000000000000000000000000000000000000000000000000060e086901b16815260048101939093526024830191909152604482015260640160206040518083038186803b15801561135c57600080fd5b505af4158015611370573d6000803e3d6000fd5b505050506040513d601f19601f8201168201806040525081019061139491906116eb565b6040517fe0d65d87000000000000000000000000000000000000000000000000000000008152600481018490529091507f000000000000000000000000000000000000000000000000000000000000000073ffffffffffffffffffffffffffffffffffffffff169063e0d65d879060240160206040518083038186803b15801561141d57600080fd5b505afa158015611431573d6000803e3d6000fd5b505050506040513d601f19601f8201168201806040525081019061145591906116eb565b6040517fe0d65d87000000000000000000000000000000000000000000000000000000008152600481018390527f000000000000000000000000000000000000000000000000000000000000000073ffffffffffffffffffffffffffffffffffffffff169063e0d65d879060240160206040518083038186803b1580156114db57600080fd5b505afa1580156114ef573d6000803e3d6000fd5b505050506040513d601f19601f8201168201806040525081019061151391906116eb565b9550955050505050915091565b60008161152d858561180f565b611537919061184c565b949350505050565b60006020828403121561155157600080fd5b5035919050565b803573ffffffffffffffffffffffffffffffffffffffff8116811461157c57600080fd5b919050565b60006020828403121561159357600080fd5b61159c82611558565b9392505050565b600080604083850312156115b657600080fd5b823591506115c660208401611558565b90509250929050565b600080604083850312156115e257600080fd5b6115eb83611558565b946020939093013593505050565b60ff8116811461160857600080fd5b50565b600080600080600060a0868803121561162357600080fd5b85359450602086013593506040860135925060608601359150608086013561164a816115f9565b809150509295509295909350565b6000806040838503121561166b57600080fd5b82356115eb816115f9565b7f4e487b7100000000000000000000000000000000000000000000000000000000600052601160045260246000fd5b6000828210156116b7576116b7611676565b500390565b7f4e487b7100000000000000000000000000000000000000000000000000000000600052603260045260246000fd5b6000602082840312156116fd57600080fd5b5051919050565b60006020828403121561171657600080fd5b81516004811061159c57600080fd5b7f4e487b7100000000000000000000000000000000000000000000000000000000600052602160045260246000fd5b60006020828403121561176657600080fd5b815161159c816115f9565b7f4e487b7100000000000000000000000000000000000000000000000000000000600052603160045260246000fd5b600082198211156117b3576117b3611676565b500190565b6000816117c7576117c7611676565b507fffffffffffffffffffffffffffffffffffffffffffffffffffffffffffffffff0190565b6000602082840312156117ff57600080fd5b8151801515811461159c57600080fd5b6000817fffffffffffffffffffffffffffffffffffffffffffffffffffffffffffffffff048311821515161561184757611847611676565b500290565b600082611882577f4e487b7100000000000000000000000000000000000000000000000000000000600052601260045260246000fd5b50049056fea26469706673582212208e360112ef6bac3df04c5d32efaa5db9beecf596249557189bd99eda271e1cc164736f6c63430008080033",
  "deployedBytecode": "0x6080604052600436106100b15760003560e01c8063ac4afa3811610069578063ca055e531161004e578063ca055e531461025c578063dcb3b30e1461027c578063f83b35fb1461028f57600080fd5b8063ac4afa3814610208578063b47a35661461023c57600080fd5b80635c11ff7a1161009a5780635c11ff7a1461013757806389b808a71461015b5780639626a230146101a157600080fd5b80630eff4d88146100b657806340b8405a14610115575b600080fd5b3480156100c257600080fd5b506100fb6100d136600461153f565b60009081526001602081815260409283902083518085019094528054808552920154920182905291565b604080519283526020830191909152015b60405180910390f35b34801561012157600080fd5b50610135610130366004611581565b6102af565b005b34801561014357600080fd5b5061014d60025481565b60405190815260200161010c565b34801561016757600080fd5b5061014d610176366004611581565b73ffffffffffffffffffffffffffffffffffffffff1660009081526020819052604090206001015490565b3480156101ad57600080fd5b506100fb6101bc3660046115a3565b73ffffffffffffffffffffffffffffffffffffffff1660009081526020818152604080832093835292815290829020825180840190935280548084526001909101549290910182905291565b34801561021457600080fd5b506100fb61022336600461153f565b6001602081905260009182526040909120805491015482565b34801561024857600080fd5b5061014d6102573660046115cf565b6108ab565b34801561026857600080fd5b5061014d61027736600461160b565b6108f8565b61013561028a366004611658565b6109be565b34801561029b57600080fd5b506100fb6102aa36600461153f565b610e4f565b73ffffffffffffffffffffffffffffffffffffffff8116600090815260208190526040902060018101546102e1575050565b60018101546000905b80156107d55760008360010160018361030391906116a5565b81548110610313576103136116bc565b90600052602060002001549050600073__$686c523504a9e378bd393220b2fc4a35a6$__63508ba0bd426002547f000000000000000000000000000000000000000000000000000000000000000073ffffffffffffffffffffffffffffffffffffffff1663607ad0d76040518163ffffffff1660e01b815260040160206040518083038186803b1580156103a657600080fd5b505afa1580156103ba573d6000803e3d6000fd5b505050506040513d601f19601f820116820180604052508101906103de91906116eb565b6040517fffffffff0000000000000000000000000000000000000000000000000000000060e086901b16815260048101939093526024830191909152604482015260640160206040518083038186803b15801561043a57600080fd5b505af415801561044e573d6000803e3d6000fd5b505050506040513d601f19601f8201168201806040525081019061047291906116eb565b905060008061048084610e4f565b6040517fb134894e00000000000000000000000000000000000000000000000000000000815260048101879052602481018690526044810183905260648101829052919350915060009073__$686c523504a9e378bd393220b2fc4a35a6$__9063b134894e9060840160206040518083038186803b15801561050157600080fd5b505af4158015610515573d6000803e3d6000fd5b505050506040513d601f19601f820116820180604052508101906105399190611704565b9050600081600381111561054f5761054f611725565b148061056c5750600181600381111561056a5761056a611725565b145b1561057b5750505050506107c3565b6000600382600381111561059157610591611725565b1415610641576040517fc886d8a4000000000000000000000000000000000000000000000000000000008152600481018590526024810184905273__$686c523504a9e378bd393220b2fc4a35a6$__9063c886d8a49060440160206040518083038186803b15801561060257600080fd5b505af4158015610616573d6000803e3d6000fd5b505050506040513d601f19601f8201168201806040525081019061063a9190611754565b905061065f565b600282600381111561065557610655611725565b141561065f575060025b6001808a0180549091610671916116a5565b81548110610681576106816116bc565b90600052602060002001548960010160018961069d91906116a5565b815481106106ad576106ad6116bc565b600091825260209091200155600189018054806106cc576106cc611771565b6000828152602080822083017fffffffffffffffffffffffffffffffffffffffffffffffffffffffffffffffff9081018390559092019092558782528a8152604080832081518083018352815481526001918201548185019081528b8652828552838620845180860190955280548086529301549484018590525181519195939461075a93919291886108f8565b9050610766818c6117a0565b9a508c73ffffffffffffffffffffffffffffffffffffffff16897f6f277b50171c654e40c771d9c2bbf19e070eeb21cce6f8e9a80334564279e395836040516107b191815260200190565b60405180910390a35050505050505050505b806107cd816117b8565b9150506102ea565b5080156108a6576040517fa9059cbb00000000000000000000000000000000000000000000000000000000815273ffffffffffffffffffffffffffffffffffffffff8481166004830152602482018390527f0000000000000000000000000000000000000000000000000000000000000000169063a9059cbb90604401602060405180830381600087803b15801561086c57600080fd5b505af1158015610880573d6000803e3d6000fd5b505050506040513d601f19601f820116820180604052508101906108a491906117ed565b505b505050565b73ffffffffffffffffffffffffffffffffffffffff821660009081526020819052604081206001018054839081106108e5576108e56116bc565b9060005260206000200154905092915050565b6000808260ff16600281111561091057610910611725565b9050600061091e85876117a0565b90506000600183600281111561093657610936611725565b14801561094257508615155b1561095957610952828a89611520565b93506109b2565b600083600281111561096d5761096d611725565b14801561097957508515155b1561098957610952828988611520565b600283600281111561099d5761099d611725565b14156109ad57610952888a6117a0565b600093505b50505095945050505050565b60008111610a2c576040517f08c379a000000000000000000000000000000000000000000000000000000000815260206004820152601d60248201527f4f6e6c79207374726963746c7920706f7369746976652076616c756573000000604482015260640160405180910390fd5b7f000000000000000000000000000000000000000000000000000000000000000073ffffffffffffffffffffffffffffffffffffffff1663673a7e286040518163ffffffff1660e01b8152600401600060405180830381600087803b158015610a9457600080fd5b505af1158015610aa8573d6000803e3d6000fd5b50505050610ab5336102af565b6040517f23b872dd000000000000000000000000000000000000000000000000000000008152336004820152306024820152604481018290527f000000000000000000000000000000000000000000000000000000000000000073ffffffffffffffffffffffffffffffffffffffff16906323b872dd90606401602060405180830381600087803b158015610b4957600080fd5b505af1158015610b5d573d6000803e3d6000fd5b505050506040513d601f19601f82011682018060405250810190610b8191906117ed565b50600073__$686c523504a9e378bd393220b2fc4a35a6$__63508ba0bd426002547f000000000000000000000000000000000000000000000000000000000000000073ffffffffffffffffffffffffffffffffffffffff1663607ad0d76040518163ffffffff1660e01b815260040160206040518083038186803b158015610c0857600080fd5b505afa158015610c1c573d6000803e3d6000fd5b505050506040513d601f19601f82011682018060405250810190610c4091906116eb565b6040517fffffffff0000000000000000000000000000000000000000000000000000000060e086901b16815260048101939093526024830191909152604482015260640160206040518083038186803b158015610c9c57600080fd5b505af4158015610cb0573d6000803e3d6000fd5b505050506040513d601f19601f82011682018060405250810190610cd491906116eb565b3360009081526020819052604090206001810154919250901580610d245750600180820180549091610d05916116a5565b81548110610d1557610d156116bc565b90600052602060002001548214155b15610d4357600180820180549182018155600090815260209020018290555b60018460ff166001811115610d5a57610d5a611725565b6001811115610d6b57610d6b611725565b1415610dc35760008281526020829052604081206001018054859290610d929084906117a0565b909155505060008281526001602081905260408220018054859290610db89084906117a0565b90915550610e0a9050565b60008281526020829052604081208054859290610de19084906117a0565b909155505060008281526001602052604081208054859290610e049084906117a0565b90915550505b6040805184815260ff86166020820152839133917f85ff162f60a0eab11e1e0d3d9cfa18a46d7038a29751af4130dbaeeadbd37ed4910160405180910390a350505050565b600080600073__$686c523504a9e378bd393220b2fc4a35a6$__63c3390901856002547f000000000000000000000000000000000000000000000000000000000000000073ffffffffffffffffffffffffffffffffffffffff1663607ad0d76040518163ffffffff1660e01b815260040160206040518083038186803b158015610ed857600080fd5b505afa158015610eec573d6000803e3d6000fd5b505050506040513d601f19601f82011682018060405250810190610f1091906116eb565b6040517fffffffff0000000000000000000000000000000000000000000000000000000060e086901b16815260048101939093526024830191909152604482015260640160206040518083038186803b158015610f6c57600080fd5b505af4158015610f80573d6000803e3d6000fd5b505050506040513d601f19601f82011682018060405250810190610fa491906116eb565b9050600060025482610fb691906117a0565b9050600073__$686c523504a9e378bd393220b2fc4a35a6$__63508ba0bd847f000000000000000000000000000000000000000000000000000000000000000073ffffffffffffffffffffffffffffffffffffffff16635c11ff7a6040518163ffffffff1660e01b815260040160206040518083038186803b15801561103b57600080fd5b505afa15801561104f573d6000803e3d6000fd5b505050506040513d601f19601f8201168201806040525081019061107391906116eb565b7f000000000000000000000000000000000000000000000000000000000000000073ffffffffffffffffffffffffffffffffffffffff1663607ad0d76040518163ffffffff1660e01b815260040160206040518083038186803b1580156110d957600080fd5b505afa1580156110ed573d6000803e3d6000fd5b505050506040513d601f19601f8201168201806040525081019061111191906116eb565b6040517fffffffff0000000000000000000000000000000000000000000000000000000060e086901b16815260048101939093526024830191909152604482015260640160206040518083038186803b15801561116d57600080fd5b505af4158015611181573d6000803e3d6000fd5b505050506040513d601f19601f820116820180604052508101906111a591906116eb565b9050600073__$686c523504a9e378bd393220b2fc4a35a6$__63508ba0bd847f000000000000000000000000000000000000000000000000000000000000000073ffffffffffffffffffffffffffffffffffffffff16635c11ff7a6040518163ffffffff1660e01b815260040160206040518083038186803b15801561122a57600080fd5b505afa15801561123e573d6000803e3d6000fd5b505050506040513d601f19601f8201168201806040525081019061126291906116eb565b7f000000000000000000000000000000000000000000000000000000000000000073ffffffffffffffffffffffffffffffffffffffff1663607ad0d76040518163ffffffff1660e01b815260040160206040518083038186803b1580156112c857600080fd5b505afa1580156112dc573d6000803e3d6000fd5b505050506040513d601f19601f8201168201806040525081019061130091906116eb565b6040517fffffffff0000000000000000000000000000000000000000000000000000000060e086901b16815260048101939093526024830191909152604482015260640160206040518083038186803b15801561135c57600080fd5b505af4158015611370573d6000803e3d6000fd5b505050506040513d601f19601f8201168201806040525081019061139491906116eb565b6040517fe0d65d87000000000000000000000000000000000000000000000000000000008152600481018490529091507f000000000000000000000000000000000000000000000000000000000000000073ffffffffffffffffffffffffffffffffffffffff169063e0d65d879060240160206040518083038186803b15801561141d57600080fd5b505afa158015611431573d6000803e3d6000fd5b505050506040513d601f19601f8201168201806040525081019061145591906116eb565b6040517fe0d65d87000000000000000000000000000000000000000000000000000000008152600481018390527f000000000000000000000000000000000000000000000000000000000000000073ffffffffffffffffffffffffffffffffffffffff169063e0d65d879060240160206040518083038186803b1580156114db57600080fd5b505afa1580156114ef573d6000803e3d6000fd5b505050506040513d601f19601f8201168201806040525081019061151391906116eb565b9550955050505050915091565b60008161152d858561180f565b611537919061184c565b949350505050565b60006020828403121561155157600080fd5b5035919050565b803573ffffffffffffffffffffffffffffffffffffffff8116811461157c57600080fd5b919050565b60006020828403121561159357600080fd5b61159c82611558565b9392505050565b600080604083850312156115b657600080fd5b823591506115c660208401611558565b90509250929050565b600080604083850312156115e257600080fd5b6115eb83611558565b946020939093013593505050565b60ff8116811461160857600080fd5b50565b600080600080600060a0868803121561162357600080fd5b85359450602086013593506040860135925060608601359150608086013561164a816115f9565b809150509295509295909350565b6000806040838503121561166b57600080fd5b82356115eb816115f9565b7f4e487b7100000000000000000000000000000000000000000000000000000000600052601160045260246000fd5b6000828210156116b7576116b7611676565b500390565b7f4e487b7100000000000000000000000000000000000000000000000000000000600052603260045260246000fd5b6000602082840312156116fd57600080fd5b5051919050565b60006020828403121561171657600080fd5b81516004811061159c57600080fd5b7f4e487b7100000000000000000000000000000000000000000000000000000000600052602160045260246000fd5b60006020828403121561176657600080fd5b815161159c816115f9565b7f4e487b7100000000000000000000000000000000000000000000000000000000600052603160045260246000fd5b600082198211156117b3576117b3611676565b500190565b6000816117c7576117c7611676565b507fffffffffffffffffffffffffffffffffffffffffffffffffffffffffffffffff0190565b6000602082840312156117ff57600080fd5b8151801515811461159c57600080fd5b6000817fffffffffffffffffffffffffffffffffffffffffffffffffffffffffffffffff048311821515161561184757611847611676565b500290565b600082611882577f4e487b7100000000000000000000000000000000000000000000000000000000600052601260045260246000fd5b50049056fea26469706673582212208e360112ef6bac3df04c5d32efaa5db9beecf596249557189bd99eda271e1cc164736f6c63430008080033",
  "libraries": {
    "BetLibrary": "0xAE6Ff16c05C93740432136DBd15C7f4A005A5Bb1"
  },
  "devdoc": {
    "kind": "dev",
    "methods": {},
    "version": 1
  },
  "userdoc": {
    "kind": "user",
    "methods": {},
    "version": 1
  },
  "storageLayout": {
    "storage": [
      {
        "astId": 2981,
        "contract": "contracts/DailyPool.sol:DailyPool",
        "label": "user",
        "offset": 0,
        "slot": "0",
        "type": "t_mapping(t_address,t_struct(User)1380_storage)"
      },
      {
        "astId": 2986,
        "contract": "contracts/DailyPool.sol:DailyPool",
        "label": "pools",
        "offset": 0,
        "slot": "1",
        "type": "t_mapping(t_uint256,t_struct(Pool)1371_storage)"
      },
      {
        "astId": 2988,
        "contract": "contracts/DailyPool.sol:DailyPool",
        "label": "windowDuration",
        "offset": 0,
        "slot": "2",
        "type": "t_uint256"
      }
    ],
    "types": {
      "t_address": {
        "encoding": "inplace",
        "label": "address",
        "numberOfBytes": "20"
      },
      "t_array(t_uint256)dyn_storage": {
        "base": "t_uint256",
        "encoding": "dynamic_array",
        "label": "uint256[]",
        "numberOfBytes": "32"
      },
      "t_mapping(t_address,t_struct(User)1380_storage)": {
        "encoding": "mapping",
        "key": "t_address",
        "label": "mapping(address => struct BetLibrary.User)",
        "numberOfBytes": "32",
        "value": "t_struct(User)1380_storage"
      },
      "t_mapping(t_uint256,t_struct(Pool)1371_storage)": {
        "encoding": "mapping",
        "key": "t_uint256",
        "label": "mapping(uint256 => struct BetLibrary.Pool)",
        "numberOfBytes": "32",
        "value": "t_struct(Pool)1371_storage"
      },
      "t_struct(Pool)1371_storage": {
        "encoding": "inplace",
        "label": "struct BetLibrary.Pool",
        "members": [
          {
            "astId": 1368,
            "contract": "contracts/DailyPool.sol:DailyPool",
            "label": "downValue",
            "offset": 0,
            "slot": "0",
            "type": "t_uint256"
          },
          {
            "astId": 1370,
            "contract": "contracts/DailyPool.sol:DailyPool",
            "label": "upValue",
            "offset": 0,
            "slot": "1",
            "type": "t_uint256"
          }
        ],
        "numberOfBytes": "64"
      },
      "t_struct(User)1380_storage": {
        "encoding": "inplace",
        "label": "struct BetLibrary.User",
        "members": [
          {
            "astId": 1376,
            "contract": "contracts/DailyPool.sol:DailyPool",
            "label": "stake",
            "offset": 0,
            "slot": "0",
            "type": "t_mapping(t_uint256,t_struct(Pool)1371_storage)"
          },
          {
            "astId": 1379,
            "contract": "contracts/DailyPool.sol:DailyPool",
            "label": "bets",
            "offset": 0,
            "slot": "1",
            "type": "t_array(t_uint256)dyn_storage"
          }
        ],
        "numberOfBytes": "64"
      },
      "t_uint256": {
        "encoding": "inplace",
        "label": "uint256",
        "numberOfBytes": "32"
      }
    }
  }
}