{
  "address": "0xdf274e8bd2233bFF6a1eB2ddeF8D433Fc0F54D2c",
  "abi": [
    {
      "inputs": [
        {
          "internalType": "uint256",
          "name": "_fee",
          "type": "uint256"
        },
        {
          "internalType": "uint256",
          "name": "_maxBurn",
          "type": "uint256"
        },
        {
          "internalType": "address",
          "name": "tokenContract",
          "type": "address"
        },
        {
          "internalType": "address",
          "name": "binarybetContract",
          "type": "address"
        },
        {
          "internalType": "address",
          "name": "burnAddress",
          "type": "address"
        }
      ],
      "stateMutability": "nonpayable",
      "type": "constructor"
    },
    {
      "inputs": [],
      "name": "BURN_ADDRESS",
      "outputs": [
        {
          "internalType": "address",
          "name": "",
          "type": "address"
        }
      ],
      "stateMutability": "view",
      "type": "function"
    },
    {
      "inputs": [
        {
          "internalType": "address",
          "name": "_user",
          "type": "address"
        }
      ],
      "name": "betListLen",
      "outputs": [
        {
          "internalType": "uint256",
          "name": "",
          "type": "uint256"
        }
      ],
      "stateMutability": "view",
      "type": "function"
    },
    {
      "inputs": [
        {
          "internalType": "uint256",
          "name": "windowNumber",
          "type": "uint256"
        }
      ],
      "name": "getPoolValues",
      "outputs": [
        {
          "internalType": "uint256",
          "name": "",
          "type": "uint256"
        },
        {
          "internalType": "uint256",
          "name": "",
          "type": "uint256"
        }
      ],
      "stateMutability": "view",
      "type": "function"
    },
    {
      "inputs": [
        {
          "internalType": "address",
          "name": "_user",
          "type": "address"
        },
        {
          "internalType": "uint256",
          "name": "index",
          "type": "uint256"
        }
      ],
      "name": "getUserBetList",
      "outputs": [
        {
          "internalType": "uint256",
          "name": "",
          "type": "uint256"
        }
      ],
      "stateMutability": "view",
      "type": "function"
    },
    {
      "inputs": [
        {
          "internalType": "uint256",
          "name": "windowNumber",
          "type": "uint256"
        },
        {
          "internalType": "address",
          "name": "_user",
          "type": "address"
        }
      ],
      "name": "getUserStake",
      "outputs": [
        {
          "internalType": "uint256",
          "name": "",
          "type": "uint256"
        },
        {
          "internalType": "uint256",
          "name": "",
          "type": "uint256"
        }
      ],
      "stateMutability": "view",
      "type": "function"
    },
    {
      "inputs": [],
      "name": "maxBurn",
      "outputs": [
        {
          "internalType": "uint256",
          "name": "",
          "type": "uint256"
        }
      ],
      "stateMutability": "view",
      "type": "function"
    },
    {
      "inputs": [
        {
          "internalType": "uint8",
          "name": "side",
          "type": "uint8"
        },
        {
          "internalType": "uint256",
          "name": "value",
          "type": "uint256"
        }
      ],
      "name": "placeBet",
      "outputs": [],
      "stateMutability": "payable",
      "type": "function"
    },
    {
      "inputs": [
        {
          "internalType": "uint256",
          "name": "",
          "type": "uint256"
        }
      ],
      "name": "pools",
      "outputs": [
        {
          "internalType": "uint256",
          "name": "downValue",
          "type": "uint256"
        },
        {
          "internalType": "uint256",
          "name": "upValue",
          "type": "uint256"
        }
      ],
      "stateMutability": "view",
      "type": "function"
    },
    {
      "inputs": [
        {
          "internalType": "uint256",
          "name": "upStake",
          "type": "uint256"
        },
        {
          "internalType": "uint256",
          "name": "downStake",
          "type": "uint256"
        },
        {
          "internalType": "uint256",
          "name": "poolUp",
          "type": "uint256"
        },
        {
          "internalType": "uint256",
          "name": "poolDown",
          "type": "uint256"
        },
        {
          "internalType": "uint8",
          "name": "res",
          "type": "uint8"
        }
      ],
      "name": "settleBet",
      "outputs": [
        {
          "internalType": "uint256",
          "name": "gain",
          "type": "uint256"
        },
        {
          "internalType": "uint256",
          "name": "fees",
          "type": "uint256"
        }
      ],
      "stateMutability": "view",
      "type": "function"
    },
    {
      "inputs": [
        {
          "internalType": "address",
          "name": "_user",
          "type": "address"
        }
      ],
      "name": "updateBalance",
      "outputs": [],
      "stateMutability": "nonpayable",
      "type": "function"
    }
  ],
  "transactionHash": "0x016a5509fa25246ccf4e7456c5b06f9b50cf30c72f942c4a3878c2a3a42cab46",
  "args": [
    2,
    400,
    "0xA4EE28E4C1115006CB42028E06228Ea5337508Df",
    "0xFc2325c1A5a8822730DC8fE81403d52159996F7b",
    "0x000000000000000000000000000000000000dEaD"
  ],
  "solcInputHash": "975f61f4b1a68c5106aee8d837762067",
  "bytecode": "0x60e06040523480156200001157600080fd5b50604051620018e9380380620018e98339810160408190526200003491620000c6565b60648511156200004357600080fd5b60a08590526200005c84670de0b6b3a764000062000124565b60c052600380546001600160a01b03199081166001600160a01b039586161790915560008054909116929093169190911790915560601b6001600160601b03191660805250620001529050565b80516001600160a01b0381168114620000c157600080fd5b919050565b600080600080600060a08688031215620000df57600080fd5b8551945060208601519350620000f860408701620000a9565b92506200010860608701620000a9565b91506200011860808701620000a9565b90509295509295909350565b60008160001904831182151516156200014d57634e487b7160e01b600052601160045260246000fd5b500290565b60805160601c60a05160c05161175662000193600039600081816102900152610d6901526000610d430152600081816102c40152610b2301526117566000f3fe6080604052600436106100b15760003560e01c8063b47a356611610069578063dcb3b30e1161004e578063dcb3b30e1461026b578063e316c3eb1461027e578063fccc2813146102b257600080fd5b8063b47a35661461022b578063ca055e531461024b57600080fd5b806389b808a71161009a57806389b808a71461013c5780639626a23014610191578063ac4afa38146101f757600080fd5b80630eff4d88146100b657806340b8405a1461011a575b600080fd5b3480156100c257600080fd5b506101006100d13660046113b4565b600090815260026020908152604091829020825180840190935280548084526001909101549290910182905291565b604080519283526020830191909152015b60405180910390f35b34801561012657600080fd5b5061013a6101353660046113f6565b61030b565b005b34801561014857600080fd5b506101836101573660046113f6565b73ffffffffffffffffffffffffffffffffffffffff166000908152600160208190526040909120015490565b604051908152602001610111565b34801561019d57600080fd5b506101006101ac366004611418565b73ffffffffffffffffffffffffffffffffffffffff16600090815260016020818152604080842094845293815291839020835180850190945280548085529101549290910182905291565b34801561020357600080fd5b506101006102123660046113b4565b6002602052600090815260409020805460019091015482565b34801561023757600080fd5b50610183610246366004611444565b610c6b565b34801561025757600080fd5b50610100610266366004611480565b610cb8565b61013a6102793660046114cd565b610e84565b34801561028a57600080fd5b506101837f000000000000000000000000000000000000000000000000000000000000000081565b3480156102be57600080fd5b506102e67f000000000000000000000000000000000000000000000000000000000000000081565b60405173ffffffffffffffffffffffffffffffffffffffff9091168152602001610111565b73ffffffffffffffffffffffffffffffffffffffff811660009081526001602081905260409091209081015461033f575050565b600181015460009081905b801561097b57600084600101600183610363919061151a565b8154811061037357610373611531565b90600052602060002001549050600073b2D09BB79D3d739153Bd0609e5775C25B2701B5C63508ba0bd4260008054906101000a900473ffffffffffffffffffffffffffffffffffffffff1673ffffffffffffffffffffffffffffffffffffffff16635c11ff7a6040518163ffffffff1660e01b815260040160206040518083038186803b15801561040357600080fd5b505afa158015610417573d6000803e3d6000fd5b505050506040513d601f19601f8201168201806040525081019061043b9190611560565b60008054906101000a900473ffffffffffffffffffffffffffffffffffffffff1673ffffffffffffffffffffffffffffffffffffffff1663607ad0d76040518163ffffffff1660e01b815260040160206040518083038186803b1580156104a157600080fd5b505afa1580156104b5573d6000803e3d6000fd5b505050506040513d601f19601f820116820180604052508101906104d99190611560565b6040517fffffffff0000000000000000000000000000000000000000000000000000000060e086901b16815260048101939093526024830191909152604482015260640160206040518083038186803b15801561053557600080fd5b505af4158015610549573d6000803e3d6000fd5b505050506040513d601f19601f8201168201806040525081019061056d9190611560565b600080546040517ff83b35fb000000000000000000000000000000000000000000000000000000008152600481018690529293509091829173ffffffffffffffffffffffffffffffffffffffff169063f83b35fb90602401604080518083038186803b1580156105dc57600080fd5b505afa1580156105f0573d6000803e3d6000fd5b505050506040513d601f19601f820116820180604052508101906106149190611579565b6040517fb134894e00000000000000000000000000000000000000000000000000000000815260048101879052602481018690526044810183905260648101829052919350915060009073b2D09BB79D3d739153Bd0609e5775C25B2701B5C9063b134894e9060840160206040518083038186803b15801561069557600080fd5b505af41580156106a9573d6000803e3d6000fd5b505050506040513d601f19601f820116820180604052508101906106cd919061159d565b905060008160038111156106e3576106e36115be565b1480610700575060018160038111156106fe576106fe6115be565b145b1561070f575050505050610969565b60006003826003811115610725576107256115be565b14156107d5576040517fc886d8a4000000000000000000000000000000000000000000000000000000008152600481018590526024810184905273b2D09BB79D3d739153Bd0609e5775C25B2701B5C9063c886d8a49060440160206040518083038186803b15801561079657600080fd5b505af41580156107aa573d6000803e3d6000fd5b505050506040513d601f19601f820116820180604052508101906107ce91906115ed565b90506107f3565b60028260038111156107e9576107e96115be565b14156107f3575060025b6001808b01805490916108059161151a565b8154811061081557610815611531565b90600052602060002001548a600101600189610831919061151a565b8154811061084157610841611531565b60009182526020909120015560018a018054806108605761086061160a565b6000828152602080822083017fffffffffffffffffffffffffffffffffffffffffffffffffffffffffffffffff9081018390559092019092558782528b8152604080832081518083018352815481526001918201548185019081528b865260028552838620845180860190955280548086529301549484018590525181519195939484936108f093919089610cb8565b90925090506108ff828e611639565b9c5061090b818d611639565b9b508e73ffffffffffffffffffffffffffffffffffffffff168a7f6f277b50171c654e40c771d9c2bbf19e070eeb21cce6f8e9a80334564279e3958460405161095691815260200190565b60405180910390a3505050505050505050505b8061097381611651565b91505061034a565b508115610a30576003546040517fa9059cbb00000000000000000000000000000000000000000000000000000000815273ffffffffffffffffffffffffffffffffffffffff8681166004830152602482018590529091169063a9059cbb90604401602060405180830381600087803b1580156109f657600080fd5b505af1158015610a0a573d6000803e3d6000fd5b505050506040513d601f19601f82011682018060405250810190610a2e9190611686565b505b8015610c6557600354600080546040517f70a0823100000000000000000000000000000000000000000000000000000000815273ffffffffffffffffffffffffffffffffffffffff9182166004820152919216906370a082319060240160206040518083038186803b158015610aa557600080fd5b505afa158015610ab9573d6000803e3d6000fd5b505050506040513d601f19601f82011682018060405250810190610add9190611560565b1115610bb5576003546040517fa9059cbb00000000000000000000000000000000000000000000000000000000815273ffffffffffffffffffffffffffffffffffffffff7f000000000000000000000000000000000000000000000000000000000000000081166004830152602482018490529091169063a9059cbb90604401602060405180830381600087803b158015610b7757600080fd5b505af1158015610b8b573d6000803e3d6000fd5b505050506040513d601f19601f82011682018060405250810190610baf9190611686565b50610c65565b6003546000546040517fa9059cbb00000000000000000000000000000000000000000000000000000000815273ffffffffffffffffffffffffffffffffffffffff91821660048201526024810184905291169063a9059cbb90604401602060405180830381600087803b158015610c2b57600080fd5b505af1158015610c3f573d6000803e3d6000fd5b505050506040513d601f19601f82011682018060405250810190610c639190611686565b505b50505050565b73ffffffffffffffffffffffffffffffffffffffff82166000908152600160208190526040822001805483908110610ca557610ca5611531565b9060005260206000200154905092915050565b60008060008360ff166002811115610cd257610cd26115be565b90506000610ce08688611639565b905060006001836002811115610cf857610cf86115be565b148015610d0457508715155b15610e1257610d14828b8a611395565b6040517f366eedf4000000000000000000000000000000000000000000000000000000008152600481018290527f000000000000000000000000000000000000000000000000000000000000000060248201527f0000000000000000000000000000000000000000000000000000000000000000604482015290915073b2D09BB79D3d739153Bd0609e5775C25B2701B5C9063366eedf49060640160206040518083038186803b158015610dc757600080fd5b505af4158015610ddb573d6000803e3d6000fd5b505050506040513d601f19601f82011682018060405250810190610dff9190611560565b9350610e0b848261151a565b9450610e77565b6000836002811115610e2657610e266115be565b148015610e3257508615155b15610e4257610d14828a89611395565b6002836002811115610e5657610e566115be565b1415610e6657610e0b898b611639565b60009450610e74898b611639565b93505b5050509550959350505050565b60008111610ef2576040517f08c379a000000000000000000000000000000000000000000000000000000000815260206004820152601d60248201527f4f6e6c79207374726963746c7920706f7369746976652076616c756573000000604482015260640160405180910390fd5b60008054604080517f673a7e28000000000000000000000000000000000000000000000000000000008152905173ffffffffffffffffffffffffffffffffffffffff9092169263673a7e289260048084019382900301818387803b158015610f5957600080fd5b505af1158015610f6d573d6000803e3d6000fd5b50505050610f7a3361030b565b6003546040517f23b872dd0000000000000000000000000000000000000000000000000000000081523360048201523060248201526044810183905273ffffffffffffffffffffffffffffffffffffffff909116906323b872dd90606401602060405180830381600087803b158015610ff257600080fd5b505af1158015611006573d6000803e3d6000fd5b505050506040513d601f19601f8201168201806040525081019061102a9190611686565b50600073b2D09BB79D3d739153Bd0609e5775C25B2701B5C63508ba0bd4260008054906101000a900473ffffffffffffffffffffffffffffffffffffffff1673ffffffffffffffffffffffffffffffffffffffff16635c11ff7a6040518163ffffffff1660e01b815260040160206040518083038186803b1580156110ae57600080fd5b505afa1580156110c2573d6000803e3d6000fd5b505050506040513d601f19601f820116820180604052508101906110e69190611560565b60008054906101000a900473ffffffffffffffffffffffffffffffffffffffff1673ffffffffffffffffffffffffffffffffffffffff1663607ad0d76040518163ffffffff1660e01b815260040160206040518083038186803b15801561114c57600080fd5b505afa158015611160573d6000803e3d6000fd5b505050506040513d601f19601f820116820180604052508101906111849190611560565b6040517fffffffff0000000000000000000000000000000000000000000000000000000060e086901b16815260048101939093526024830191909152604482015260640160206040518083038186803b1580156111e057600080fd5b505af41580156111f4573d6000803e3d6000fd5b505050506040513d601f19601f820116820180604052508101906112189190611560565b3360009081526001602081905260409091209081015491925090158061126a575060018082018054909161124b9161151a565b8154811061125b5761125b611531565b90600052602060002001548214155b1561128957600180820180549182018155600090815260209020018290555b60018460ff1660018111156112a0576112a06115be565b60018111156112b1576112b16115be565b141561130957600082815260208290526040812060010180548592906112d8908490611639565b9091555050600082815260026020526040812060010180548592906112fe908490611639565b909155506113509050565b60008281526020829052604081208054859290611327908490611639565b90915550506000828152600260205260408120805485929061134a908490611639565b90915550505b6040805184815260ff86166020820152839133917f85ff162f60a0eab11e1e0d3d9cfa18a46d7038a29751af4130dbaeeadbd37ed4910160405180910390a350505050565b6000816113a285856116a8565b6113ac91906116e5565b949350505050565b6000602082840312156113c657600080fd5b5035919050565b803573ffffffffffffffffffffffffffffffffffffffff811681146113f157600080fd5b919050565b60006020828403121561140857600080fd5b611411826113cd565b9392505050565b6000806040838503121561142b57600080fd5b8235915061143b602084016113cd565b90509250929050565b6000806040838503121561145757600080fd5b611460836113cd565b946020939093013593505050565b60ff8116811461147d57600080fd5b50565b600080600080600060a0868803121561149857600080fd5b8535945060208601359350604086013592506060860135915060808601356114bf8161146e565b809150509295509295909350565b600080604083850312156114e057600080fd5b82356114608161146e565b7f4e487b7100000000000000000000000000000000000000000000000000000000600052601160045260246000fd5b60008282101561152c5761152c6114eb565b500390565b7f4e487b7100000000000000000000000000000000000000000000000000000000600052603260045260246000fd5b60006020828403121561157257600080fd5b5051919050565b6000806040838503121561158c57600080fd5b505080516020909101519092909150565b6000602082840312156115af57600080fd5b81516004811061141157600080fd5b7f4e487b7100000000000000000000000000000000000000000000000000000000600052602160045260246000fd5b6000602082840312156115ff57600080fd5b81516114118161146e565b7f4e487b7100000000000000000000000000000000000000000000000000000000600052603160045260246000fd5b6000821982111561164c5761164c6114eb565b500190565b600081611660576116606114eb565b507fffffffffffffffffffffffffffffffffffffffffffffffffffffffffffffffff0190565b60006020828403121561169857600080fd5b8151801515811461141157600080fd5b6000817fffffffffffffffffffffffffffffffffffffffffffffffffffffffffffffffff04831182151516156116e0576116e06114eb565b500290565b60008261171b577f4e487b7100000000000000000000000000000000000000000000000000000000600052601260045260246000fd5b50049056fea264697066735822122044f2e54d3320ae4bc5dc967061da5e0c5654159ad3b5e14392f5d84643d8da7764736f6c63430008080033",
  "deployedBytecode": "0x6080604052600436106100b15760003560e01c8063b47a356611610069578063dcb3b30e1161004e578063dcb3b30e1461026b578063e316c3eb1461027e578063fccc2813146102b257600080fd5b8063b47a35661461022b578063ca055e531461024b57600080fd5b806389b808a71161009a57806389b808a71461013c5780639626a23014610191578063ac4afa38146101f757600080fd5b80630eff4d88146100b657806340b8405a1461011a575b600080fd5b3480156100c257600080fd5b506101006100d13660046113b4565b600090815260026020908152604091829020825180840190935280548084526001909101549290910182905291565b604080519283526020830191909152015b60405180910390f35b34801561012657600080fd5b5061013a6101353660046113f6565b61030b565b005b34801561014857600080fd5b506101836101573660046113f6565b73ffffffffffffffffffffffffffffffffffffffff166000908152600160208190526040909120015490565b604051908152602001610111565b34801561019d57600080fd5b506101006101ac366004611418565b73ffffffffffffffffffffffffffffffffffffffff16600090815260016020818152604080842094845293815291839020835180850190945280548085529101549290910182905291565b34801561020357600080fd5b506101006102123660046113b4565b6002602052600090815260409020805460019091015482565b34801561023757600080fd5b50610183610246366004611444565b610c6b565b34801561025757600080fd5b50610100610266366004611480565b610cb8565b61013a6102793660046114cd565b610e84565b34801561028a57600080fd5b506101837f000000000000000000000000000000000000000000000000000000000000000081565b3480156102be57600080fd5b506102e67f000000000000000000000000000000000000000000000000000000000000000081565b60405173ffffffffffffffffffffffffffffffffffffffff9091168152602001610111565b73ffffffffffffffffffffffffffffffffffffffff811660009081526001602081905260409091209081015461033f575050565b600181015460009081905b801561097b57600084600101600183610363919061151a565b8154811061037357610373611531565b90600052602060002001549050600073__$686c523504a9e378bd393220b2fc4a35a6$__63508ba0bd4260008054906101000a900473ffffffffffffffffffffffffffffffffffffffff1673ffffffffffffffffffffffffffffffffffffffff16635c11ff7a6040518163ffffffff1660e01b815260040160206040518083038186803b15801561040357600080fd5b505afa158015610417573d6000803e3d6000fd5b505050506040513d601f19601f8201168201806040525081019061043b9190611560565b60008054906101000a900473ffffffffffffffffffffffffffffffffffffffff1673ffffffffffffffffffffffffffffffffffffffff1663607ad0d76040518163ffffffff1660e01b815260040160206040518083038186803b1580156104a157600080fd5b505afa1580156104b5573d6000803e3d6000fd5b505050506040513d601f19601f820116820180604052508101906104d99190611560565b6040517fffffffff0000000000000000000000000000000000000000000000000000000060e086901b16815260048101939093526024830191909152604482015260640160206040518083038186803b15801561053557600080fd5b505af4158015610549573d6000803e3d6000fd5b505050506040513d601f19601f8201168201806040525081019061056d9190611560565b600080546040517ff83b35fb000000000000000000000000000000000000000000000000000000008152600481018690529293509091829173ffffffffffffffffffffffffffffffffffffffff169063f83b35fb90602401604080518083038186803b1580156105dc57600080fd5b505afa1580156105f0573d6000803e3d6000fd5b505050506040513d601f19601f820116820180604052508101906106149190611579565b6040517fb134894e00000000000000000000000000000000000000000000000000000000815260048101879052602481018690526044810183905260648101829052919350915060009073__$686c523504a9e378bd393220b2fc4a35a6$__9063b134894e9060840160206040518083038186803b15801561069557600080fd5b505af41580156106a9573d6000803e3d6000fd5b505050506040513d601f19601f820116820180604052508101906106cd919061159d565b905060008160038111156106e3576106e36115be565b1480610700575060018160038111156106fe576106fe6115be565b145b1561070f575050505050610969565b60006003826003811115610725576107256115be565b14156107d5576040517fc886d8a4000000000000000000000000000000000000000000000000000000008152600481018590526024810184905273__$686c523504a9e378bd393220b2fc4a35a6$__9063c886d8a49060440160206040518083038186803b15801561079657600080fd5b505af41580156107aa573d6000803e3d6000fd5b505050506040513d601f19601f820116820180604052508101906107ce91906115ed565b90506107f3565b60028260038111156107e9576107e96115be565b14156107f3575060025b6001808b01805490916108059161151a565b8154811061081557610815611531565b90600052602060002001548a600101600189610831919061151a565b8154811061084157610841611531565b60009182526020909120015560018a018054806108605761086061160a565b6000828152602080822083017fffffffffffffffffffffffffffffffffffffffffffffffffffffffffffffffff9081018390559092019092558782528b8152604080832081518083018352815481526001918201548185019081528b865260028552838620845180860190955280548086529301549484018590525181519195939484936108f093919089610cb8565b90925090506108ff828e611639565b9c5061090b818d611639565b9b508e73ffffffffffffffffffffffffffffffffffffffff168a7f6f277b50171c654e40c771d9c2bbf19e070eeb21cce6f8e9a80334564279e3958460405161095691815260200190565b60405180910390a3505050505050505050505b8061097381611651565b91505061034a565b508115610a30576003546040517fa9059cbb00000000000000000000000000000000000000000000000000000000815273ffffffffffffffffffffffffffffffffffffffff8681166004830152602482018590529091169063a9059cbb90604401602060405180830381600087803b1580156109f657600080fd5b505af1158015610a0a573d6000803e3d6000fd5b505050506040513d601f19601f82011682018060405250810190610a2e9190611686565b505b8015610c6557600354600080546040517f70a0823100000000000000000000000000000000000000000000000000000000815273ffffffffffffffffffffffffffffffffffffffff9182166004820152919216906370a082319060240160206040518083038186803b158015610aa557600080fd5b505afa158015610ab9573d6000803e3d6000fd5b505050506040513d601f19601f82011682018060405250810190610add9190611560565b1115610bb5576003546040517fa9059cbb00000000000000000000000000000000000000000000000000000000815273ffffffffffffffffffffffffffffffffffffffff7f000000000000000000000000000000000000000000000000000000000000000081166004830152602482018490529091169063a9059cbb90604401602060405180830381600087803b158015610b7757600080fd5b505af1158015610b8b573d6000803e3d6000fd5b505050506040513d601f19601f82011682018060405250810190610baf9190611686565b50610c65565b6003546000546040517fa9059cbb00000000000000000000000000000000000000000000000000000000815273ffffffffffffffffffffffffffffffffffffffff91821660048201526024810184905291169063a9059cbb90604401602060405180830381600087803b158015610c2b57600080fd5b505af1158015610c3f573d6000803e3d6000fd5b505050506040513d601f19601f82011682018060405250810190610c639190611686565b505b50505050565b73ffffffffffffffffffffffffffffffffffffffff82166000908152600160208190526040822001805483908110610ca557610ca5611531565b9060005260206000200154905092915050565b60008060008360ff166002811115610cd257610cd26115be565b90506000610ce08688611639565b905060006001836002811115610cf857610cf86115be565b148015610d0457508715155b15610e1257610d14828b8a611395565b6040517f366eedf4000000000000000000000000000000000000000000000000000000008152600481018290527f000000000000000000000000000000000000000000000000000000000000000060248201527f0000000000000000000000000000000000000000000000000000000000000000604482015290915073__$686c523504a9e378bd393220b2fc4a35a6$__9063366eedf49060640160206040518083038186803b158015610dc757600080fd5b505af4158015610ddb573d6000803e3d6000fd5b505050506040513d601f19601f82011682018060405250810190610dff9190611560565b9350610e0b848261151a565b9450610e77565b6000836002811115610e2657610e266115be565b148015610e3257508615155b15610e4257610d14828a89611395565b6002836002811115610e5657610e566115be565b1415610e6657610e0b898b611639565b60009450610e74898b611639565b93505b5050509550959350505050565b60008111610ef2576040517f08c379a000000000000000000000000000000000000000000000000000000000815260206004820152601d60248201527f4f6e6c79207374726963746c7920706f7369746976652076616c756573000000604482015260640160405180910390fd5b60008054604080517f673a7e28000000000000000000000000000000000000000000000000000000008152905173ffffffffffffffffffffffffffffffffffffffff9092169263673a7e289260048084019382900301818387803b158015610f5957600080fd5b505af1158015610f6d573d6000803e3d6000fd5b50505050610f7a3361030b565b6003546040517f23b872dd0000000000000000000000000000000000000000000000000000000081523360048201523060248201526044810183905273ffffffffffffffffffffffffffffffffffffffff909116906323b872dd90606401602060405180830381600087803b158015610ff257600080fd5b505af1158015611006573d6000803e3d6000fd5b505050506040513d601f19601f8201168201806040525081019061102a9190611686565b50600073__$686c523504a9e378bd393220b2fc4a35a6$__63508ba0bd4260008054906101000a900473ffffffffffffffffffffffffffffffffffffffff1673ffffffffffffffffffffffffffffffffffffffff16635c11ff7a6040518163ffffffff1660e01b815260040160206040518083038186803b1580156110ae57600080fd5b505afa1580156110c2573d6000803e3d6000fd5b505050506040513d601f19601f820116820180604052508101906110e69190611560565b60008054906101000a900473ffffffffffffffffffffffffffffffffffffffff1673ffffffffffffffffffffffffffffffffffffffff1663607ad0d76040518163ffffffff1660e01b815260040160206040518083038186803b15801561114c57600080fd5b505afa158015611160573d6000803e3d6000fd5b505050506040513d601f19601f820116820180604052508101906111849190611560565b6040517fffffffff0000000000000000000000000000000000000000000000000000000060e086901b16815260048101939093526024830191909152604482015260640160206040518083038186803b1580156111e057600080fd5b505af41580156111f4573d6000803e3d6000fd5b505050506040513d601f19601f820116820180604052508101906112189190611560565b3360009081526001602081905260409091209081015491925090158061126a575060018082018054909161124b9161151a565b8154811061125b5761125b611531565b90600052602060002001548214155b1561128957600180820180549182018155600090815260209020018290555b60018460ff1660018111156112a0576112a06115be565b60018111156112b1576112b16115be565b141561130957600082815260208290526040812060010180548592906112d8908490611639565b9091555050600082815260026020526040812060010180548592906112fe908490611639565b909155506113509050565b60008281526020829052604081208054859290611327908490611639565b90915550506000828152600260205260408120805485929061134a908490611639565b90915550505b6040805184815260ff86166020820152839133917f85ff162f60a0eab11e1e0d3d9cfa18a46d7038a29751af4130dbaeeadbd37ed4910160405180910390a350505050565b6000816113a285856116a8565b6113ac91906116e5565b949350505050565b6000602082840312156113c657600080fd5b5035919050565b803573ffffffffffffffffffffffffffffffffffffffff811681146113f157600080fd5b919050565b60006020828403121561140857600080fd5b611411826113cd565b9392505050565b6000806040838503121561142b57600080fd5b8235915061143b602084016113cd565b90509250929050565b6000806040838503121561145757600080fd5b611460836113cd565b946020939093013593505050565b60ff8116811461147d57600080fd5b50565b600080600080600060a0868803121561149857600080fd5b8535945060208601359350604086013592506060860135915060808601356114bf8161146e565b809150509295509295909350565b600080604083850312156114e057600080fd5b82356114608161146e565b7f4e487b7100000000000000000000000000000000000000000000000000000000600052601160045260246000fd5b60008282101561152c5761152c6114eb565b500390565b7f4e487b7100000000000000000000000000000000000000000000000000000000600052603260045260246000fd5b60006020828403121561157257600080fd5b5051919050565b6000806040838503121561158c57600080fd5b505080516020909101519092909150565b6000602082840312156115af57600080fd5b81516004811061141157600080fd5b7f4e487b7100000000000000000000000000000000000000000000000000000000600052602160045260246000fd5b6000602082840312156115ff57600080fd5b81516114118161146e565b7f4e487b7100000000000000000000000000000000000000000000000000000000600052603160045260246000fd5b6000821982111561164c5761164c6114eb565b500190565b600081611660576116606114eb565b507fffffffffffffffffffffffffffffffffffffffffffffffffffffffffffffffff0190565b60006020828403121561169857600080fd5b8151801515811461141157600080fd5b6000817fffffffffffffffffffffffffffffffffffffffffffffffffffffffffffffffff04831182151516156116e0576116e06114eb565b500290565b60008261171b577f4e487b7100000000000000000000000000000000000000000000000000000000600052601260045260246000fd5b50049056fea264697066735822122044f2e54d3320ae4bc5dc967061da5e0c5654159ad3b5e14392f5d84643d8da7764736f6c63430008080033",
  "libraries": {
    "BetLibrary": "0xb2D09BB79D3d739153Bd0609e5775C25B2701B5C"
  },
  "devdoc": {
    "kind": "dev",
    "methods": {},
    "version": 1
  },
  "userdoc": {
    "kind": "user",
    "methods": {},
    "version": 1
  },
  "storageLayout": {
    "storage": [
      {
        "astId": 3105,
        "contract": "contracts/KittyPool.sol:KittyPool",
        "label": "binarybet",
        "offset": 0,
        "slot": "0",
        "type": "t_contract(BinaryBet)2796"
      },
      {
        "astId": 3110,
        "contract": "contracts/KittyPool.sol:KittyPool",
        "label": "user",
        "offset": 0,
        "slot": "1",
        "type": "t_mapping(t_address,t_struct(User)1485_storage)"
      },
      {
        "astId": 3115,
        "contract": "contracts/KittyPool.sol:KittyPool",
        "label": "pools",
        "offset": 0,
        "slot": "2",
        "type": "t_mapping(t_uint256,t_struct(Pool)1476_storage)"
      },
      {
        "astId": 3122,
        "contract": "contracts/KittyPool.sol:KittyPool",
        "label": "token",
        "offset": 0,
        "slot": "3",
        "type": "t_contract(BinToken)1778"
      }
    ],
    "types": {
      "t_address": {
        "encoding": "inplace",
        "label": "address",
        "numberOfBytes": "20"
      },
      "t_array(t_uint256)dyn_storage": {
        "base": "t_uint256",
        "encoding": "dynamic_array",
        "label": "uint256[]",
        "numberOfBytes": "32"
      },
      "t_contract(BinToken)1778": {
        "encoding": "inplace",
        "label": "contract BinToken",
        "numberOfBytes": "20"
      },
      "t_contract(BinaryBet)2796": {
        "encoding": "inplace",
        "label": "contract BinaryBet",
        "numberOfBytes": "20"
      },
      "t_mapping(t_address,t_struct(User)1485_storage)": {
        "encoding": "mapping",
        "key": "t_address",
        "label": "mapping(address => struct BetLibrary.User)",
        "numberOfBytes": "32",
        "value": "t_struct(User)1485_storage"
      },
      "t_mapping(t_uint256,t_struct(Pool)1476_storage)": {
        "encoding": "mapping",
        "key": "t_uint256",
        "label": "mapping(uint256 => struct BetLibrary.Pool)",
        "numberOfBytes": "32",
        "value": "t_struct(Pool)1476_storage"
      },
      "t_struct(Pool)1476_storage": {
        "encoding": "inplace",
        "label": "struct BetLibrary.Pool",
        "members": [
          {
            "astId": 1473,
            "contract": "contracts/KittyPool.sol:KittyPool",
            "label": "downValue",
            "offset": 0,
            "slot": "0",
            "type": "t_uint256"
          },
          {
            "astId": 1475,
            "contract": "contracts/KittyPool.sol:KittyPool",
            "label": "upValue",
            "offset": 0,
            "slot": "1",
            "type": "t_uint256"
          }
        ],
        "numberOfBytes": "64"
      },
      "t_struct(User)1485_storage": {
        "encoding": "inplace",
        "label": "struct BetLibrary.User",
        "members": [
          {
            "astId": 1481,
            "contract": "contracts/KittyPool.sol:KittyPool",
            "label": "stake",
            "offset": 0,
            "slot": "0",
            "type": "t_mapping(t_uint256,t_struct(Pool)1476_storage)"
          },
          {
            "astId": 1484,
            "contract": "contracts/KittyPool.sol:KittyPool",
            "label": "bets",
            "offset": 0,
            "slot": "1",
            "type": "t_array(t_uint256)dyn_storage"
          }
        ],
        "numberOfBytes": "64"
      },
      "t_uint256": {
        "encoding": "inplace",
        "label": "uint256",
        "numberOfBytes": "32"
      }
    }
  }
}