{
  "address": "0xFa6608fB34211c12cEdbb2F0aC06e3099499E22b",
  "abi": [
    {
      "inputs": [
        {
          "internalType": "uint256",
          "name": "_fee",
          "type": "uint256"
        },
        {
          "internalType": "uint256",
          "name": "_maxBurn",
          "type": "uint256"
        },
        {
          "internalType": "address",
          "name": "tokenContract",
          "type": "address"
        },
        {
          "internalType": "address",
          "name": "binarybetContract",
          "type": "address"
        },
        {
          "internalType": "address",
          "name": "burnAddress",
          "type": "address"
        }
      ],
      "stateMutability": "nonpayable",
      "type": "constructor"
    },
    {
      "anonymous": false,
      "inputs": [
        {
          "indexed": true,
          "internalType": "uint256",
          "name": "windowNumber",
          "type": "uint256"
        },
        {
          "indexed": true,
          "internalType": "address",
          "name": "user",
          "type": "address"
        },
        {
          "indexed": false,
          "internalType": "uint256",
          "name": "gain",
          "type": "uint256"
        }
      ],
      "name": "BetSettled",
      "type": "event"
    },
    {
      "anonymous": false,
      "inputs": [
        {
          "indexed": true,
          "internalType": "address",
          "name": "user",
          "type": "address"
        },
        {
          "indexed": true,
          "internalType": "uint256",
          "name": "windowNumber",
          "type": "uint256"
        },
        {
          "indexed": false,
          "internalType": "uint256",
          "name": "value",
          "type": "uint256"
        },
        {
          "indexed": false,
          "internalType": "uint8",
          "name": "side",
          "type": "uint8"
        }
      ],
      "name": "NewBet",
      "type": "event"
    },
    {
      "inputs": [],
      "name": "BURN_ADDRESS",
      "outputs": [
        {
          "internalType": "address",
          "name": "",
          "type": "address"
        }
      ],
      "stateMutability": "view",
      "type": "function"
    },
    {
      "inputs": [
        {
          "internalType": "address",
          "name": "_user",
          "type": "address"
        }
      ],
      "name": "betListLen",
      "outputs": [
        {
          "internalType": "uint256",
          "name": "",
          "type": "uint256"
        }
      ],
      "stateMutability": "view",
      "type": "function"
    },
    {
      "inputs": [],
      "name": "binarybet",
      "outputs": [
        {
          "internalType": "contract BinaryBet",
          "name": "",
          "type": "address"
        }
      ],
      "stateMutability": "view",
      "type": "function"
    },
    {
      "inputs": [
        {
          "internalType": "uint256",
          "name": "windowNumber",
          "type": "uint256"
        }
      ],
      "name": "getPoolValues",
      "outputs": [
        {
          "internalType": "uint256",
          "name": "",
          "type": "uint256"
        },
        {
          "internalType": "uint256",
          "name": "",
          "type": "uint256"
        }
      ],
      "stateMutability": "view",
      "type": "function"
    },
    {
      "inputs": [
        {
          "internalType": "address",
          "name": "_user",
          "type": "address"
        },
        {
          "internalType": "uint256",
          "name": "index",
          "type": "uint256"
        }
      ],
      "name": "getUserBetList",
      "outputs": [
        {
          "internalType": "uint256",
          "name": "",
          "type": "uint256"
        }
      ],
      "stateMutability": "view",
      "type": "function"
    },
    {
      "inputs": [
        {
          "internalType": "uint256",
          "name": "windowNumber",
          "type": "uint256"
        },
        {
          "internalType": "address",
          "name": "_user",
          "type": "address"
        }
      ],
      "name": "getUserStake",
      "outputs": [
        {
          "internalType": "uint256",
          "name": "",
          "type": "uint256"
        },
        {
          "internalType": "uint256",
          "name": "",
          "type": "uint256"
        }
      ],
      "stateMutability": "view",
      "type": "function"
    },
    {
      "inputs": [],
      "name": "maxBurn",
      "outputs": [
        {
          "internalType": "uint256",
          "name": "",
          "type": "uint256"
        }
      ],
      "stateMutability": "view",
      "type": "function"
    },
    {
      "inputs": [
        {
          "internalType": "uint8",
          "name": "side",
          "type": "uint8"
        },
        {
          "internalType": "uint256",
          "name": "value",
          "type": "uint256"
        }
      ],
      "name": "placeBet",
      "outputs": [],
      "stateMutability": "payable",
      "type": "function"
    },
    {
      "inputs": [
        {
          "internalType": "uint256",
          "name": "",
          "type": "uint256"
        }
      ],
      "name": "pools",
      "outputs": [
        {
          "internalType": "uint256",
          "name": "downValue",
          "type": "uint256"
        },
        {
          "internalType": "uint256",
          "name": "upValue",
          "type": "uint256"
        }
      ],
      "stateMutability": "view",
      "type": "function"
    },
    {
      "inputs": [
        {
          "internalType": "uint256",
          "name": "upStake",
          "type": "uint256"
        },
        {
          "internalType": "uint256",
          "name": "downStake",
          "type": "uint256"
        },
        {
          "internalType": "uint256",
          "name": "poolUp",
          "type": "uint256"
        },
        {
          "internalType": "uint256",
          "name": "poolDown",
          "type": "uint256"
        },
        {
          "internalType": "uint8",
          "name": "res",
          "type": "uint8"
        }
      ],
      "name": "settleBet",
      "outputs": [
        {
          "internalType": "uint256",
          "name": "gain",
          "type": "uint256"
        },
        {
          "internalType": "uint256",
          "name": "fees",
          "type": "uint256"
        }
      ],
      "stateMutability": "view",
      "type": "function"
    },
    {
      "inputs": [
        {
          "internalType": "address",
          "name": "_user",
          "type": "address"
        }
      ],
      "name": "updateBalance",
      "outputs": [],
      "stateMutability": "nonpayable",
      "type": "function"
    }
  ],
  "transactionHash": "0x942f3a1ad4aeb496a8de0f7acbf49c1189c31add41213c733111065b31c2a153",
  "args": [
    2,
    400,
    "0xedC0aD36Cd0501ADAD7bE9A39dAA824af3590320",
    "0x1732562CB113dbaEd201Caf996e56B1dAbf6dAFe",
    "0x000000000000000000000000000000000000dEaD"
  ],
  "solcInputHash": "bc724065de7df2143a09f3584d1b636a",
  "bytecode": "0x60e06040523480156200001157600080fd5b5060405162001921380380620019218339810160408190526200003491620000c6565b60648511156200004357600080fd5b60a08590526200005c84670de0b6b3a764000062000124565b60c052600380546001600160a01b03199081166001600160a01b039586161790915560008054909116929093169190911790915560601b6001600160601b03191660805250620001529050565b80516001600160a01b0381168114620000c157600080fd5b919050565b600080600080600060a08688031215620000df57600080fd5b8551945060208601519350620000f860408701620000a9565b92506200010860608701620000a9565b91506200011860808701620000a9565b90509295509295909350565b60008160001904831182151516156200014d57634e487b7160e01b600052601160045260246000fd5b500290565b60805160601c60a05160c05161178e62000193600039600081816102ed0152610da101526000610d7b0152600081816103210152610b5b015261178e6000f3fe6080604052600436106100bc5760003560e01c8063acc1971d11610074578063dcb3b30e1161004e578063dcb3b30e146102c8578063e316c3eb146102db578063fccc28131461030f57600080fd5b8063acc1971d14610236578063b47a356614610288578063ca055e53146102a857600080fd5b806389b808a7116100a557806389b808a7146101475780639626a2301461019c578063ac4afa381461020257600080fd5b80630eff4d88146100c157806340b8405a14610125575b600080fd5b3480156100cd57600080fd5b5061010b6100dc3660046113ec565b600090815260026020908152604091829020825180840190935280548084526001909101549290910182905291565b604080519283526020830191909152015b60405180910390f35b34801561013157600080fd5b5061014561014036600461142e565b610343565b005b34801561015357600080fd5b5061018e61016236600461142e565b73ffffffffffffffffffffffffffffffffffffffff166000908152600160208190526040909120015490565b60405190815260200161011c565b3480156101a857600080fd5b5061010b6101b7366004611450565b73ffffffffffffffffffffffffffffffffffffffff16600090815260016020818152604080842094845293815291839020835180850190945280548085529101549290910182905291565b34801561020e57600080fd5b5061010b61021d3660046113ec565b6002602052600090815260409020805460019091015482565b34801561024257600080fd5b506000546102639073ffffffffffffffffffffffffffffffffffffffff1681565b60405173ffffffffffffffffffffffffffffffffffffffff909116815260200161011c565b34801561029457600080fd5b5061018e6102a336600461147c565b610ca3565b3480156102b457600080fd5b5061010b6102c33660046114b8565b610cf0565b6101456102d6366004611505565b610ebc565b3480156102e757600080fd5b5061018e7f000000000000000000000000000000000000000000000000000000000000000081565b34801561031b57600080fd5b506102637f000000000000000000000000000000000000000000000000000000000000000081565b73ffffffffffffffffffffffffffffffffffffffff8116600090815260016020819052604090912090810154610377575050565b600181015460009081905b80156109b35760008460010160018361039b9190611552565b815481106103ab576103ab611569565b90600052602060002001549050600073a8F69065d3fF0F01234E782750Fc8A8ffB391fcb63508ba0bd4260008054906101000a900473ffffffffffffffffffffffffffffffffffffffff1673ffffffffffffffffffffffffffffffffffffffff16635c11ff7a6040518163ffffffff1660e01b815260040160206040518083038186803b15801561043b57600080fd5b505afa15801561044f573d6000803e3d6000fd5b505050506040513d601f19601f820116820180604052508101906104739190611598565b60008054906101000a900473ffffffffffffffffffffffffffffffffffffffff1673ffffffffffffffffffffffffffffffffffffffff1663607ad0d76040518163ffffffff1660e01b815260040160206040518083038186803b1580156104d957600080fd5b505afa1580156104ed573d6000803e3d6000fd5b505050506040513d601f19601f820116820180604052508101906105119190611598565b6040517fffffffff0000000000000000000000000000000000000000000000000000000060e086901b16815260048101939093526024830191909152604482015260640160206040518083038186803b15801561056d57600080fd5b505af4158015610581573d6000803e3d6000fd5b505050506040513d601f19601f820116820180604052508101906105a59190611598565b600080546040517ff83b35fb000000000000000000000000000000000000000000000000000000008152600481018690529293509091829173ffffffffffffffffffffffffffffffffffffffff169063f83b35fb90602401604080518083038186803b15801561061457600080fd5b505afa158015610628573d6000803e3d6000fd5b505050506040513d601f19601f8201168201806040525081019061064c91906115b1565b6040517fb134894e00000000000000000000000000000000000000000000000000000000815260048101879052602481018690526044810183905260648101829052919350915060009073a8F69065d3fF0F01234E782750Fc8A8ffB391fcb9063b134894e9060840160206040518083038186803b1580156106cd57600080fd5b505af41580156106e1573d6000803e3d6000fd5b505050506040513d601f19601f8201168201806040525081019061070591906115d5565b9050600081600381111561071b5761071b6115f6565b148061073857506001816003811115610736576107366115f6565b145b156107475750505050506109a1565b6000600382600381111561075d5761075d6115f6565b141561080d576040517fc886d8a4000000000000000000000000000000000000000000000000000000008152600481018590526024810184905273a8F69065d3fF0F01234E782750Fc8A8ffB391fcb9063c886d8a49060440160206040518083038186803b1580156107ce57600080fd5b505af41580156107e2573d6000803e3d6000fd5b505050506040513d601f19601f820116820180604052508101906108069190611625565b905061082b565b6002826003811115610821576108216115f6565b141561082b575060025b6001808b018054909161083d91611552565b8154811061084d5761084d611569565b90600052602060002001548a6001016001896108699190611552565b8154811061087957610879611569565b60009182526020909120015560018a0180548061089857610898611642565b6000828152602080822083017fffffffffffffffffffffffffffffffffffffffffffffffffffffffffffffffff9081018390559092019092558782528b8152604080832081518083018352815481526001918201548185019081528b8652600285528386208451808601909552805480865293015494840185905251815191959394849361092893919089610cf0565b9092509050610937828e611671565b9c50610943818d611671565b9b508e73ffffffffffffffffffffffffffffffffffffffff168a7f6f277b50171c654e40c771d9c2bbf19e070eeb21cce6f8e9a80334564279e3958460405161098e91815260200190565b60405180910390a3505050505050505050505b806109ab81611689565b915050610382565b508115610a68576003546040517fa9059cbb00000000000000000000000000000000000000000000000000000000815273ffffffffffffffffffffffffffffffffffffffff8681166004830152602482018590529091169063a9059cbb90604401602060405180830381600087803b158015610a2e57600080fd5b505af1158015610a42573d6000803e3d6000fd5b505050506040513d601f19601f82011682018060405250810190610a6691906116be565b505b8015610c9d57600354600080546040517f70a0823100000000000000000000000000000000000000000000000000000000815273ffffffffffffffffffffffffffffffffffffffff9182166004820152919216906370a082319060240160206040518083038186803b158015610add57600080fd5b505afa158015610af1573d6000803e3d6000fd5b505050506040513d601f19601f82011682018060405250810190610b159190611598565b1115610bed576003546040517fa9059cbb00000000000000000000000000000000000000000000000000000000815273ffffffffffffffffffffffffffffffffffffffff7f000000000000000000000000000000000000000000000000000000000000000081166004830152602482018490529091169063a9059cbb90604401602060405180830381600087803b158015610baf57600080fd5b505af1158015610bc3573d6000803e3d6000fd5b505050506040513d601f19601f82011682018060405250810190610be791906116be565b50610c9d565b6003546000546040517fa9059cbb00000000000000000000000000000000000000000000000000000000815273ffffffffffffffffffffffffffffffffffffffff91821660048201526024810184905291169063a9059cbb90604401602060405180830381600087803b158015610c6357600080fd5b505af1158015610c77573d6000803e3d6000fd5b505050506040513d601f19601f82011682018060405250810190610c9b91906116be565b505b50505050565b73ffffffffffffffffffffffffffffffffffffffff82166000908152600160208190526040822001805483908110610cdd57610cdd611569565b9060005260206000200154905092915050565b60008060008360ff166002811115610d0a57610d0a6115f6565b90506000610d188688611671565b905060006001836002811115610d3057610d306115f6565b148015610d3c57508715155b15610e4a57610d4c828b8a6113cd565b6040517f366eedf4000000000000000000000000000000000000000000000000000000008152600481018290527f000000000000000000000000000000000000000000000000000000000000000060248201527f0000000000000000000000000000000000000000000000000000000000000000604482015290915073a8F69065d3fF0F01234E782750Fc8A8ffB391fcb9063366eedf49060640160206040518083038186803b158015610dff57600080fd5b505af4158015610e13573d6000803e3d6000fd5b505050506040513d601f19601f82011682018060405250810190610e379190611598565b9350610e438482611552565b9450610eaf565b6000836002811115610e5e57610e5e6115f6565b148015610e6a57508615155b15610e7a57610d4c828a896113cd565b6002836002811115610e8e57610e8e6115f6565b1415610e9e57610e43898b611671565b60009450610eac898b611671565b93505b5050509550959350505050565b60008111610f2a576040517f08c379a000000000000000000000000000000000000000000000000000000000815260206004820152601d60248201527f4f6e6c79207374726963746c7920706f7369746976652076616c756573000000604482015260640160405180910390fd5b60008054604080517f673a7e28000000000000000000000000000000000000000000000000000000008152905173ffffffffffffffffffffffffffffffffffffffff9092169263673a7e289260048084019382900301818387803b158015610f9157600080fd5b505af1158015610fa5573d6000803e3d6000fd5b50505050610fb233610343565b6003546040517f23b872dd0000000000000000000000000000000000000000000000000000000081523360048201523060248201526044810183905273ffffffffffffffffffffffffffffffffffffffff909116906323b872dd90606401602060405180830381600087803b15801561102a57600080fd5b505af115801561103e573d6000803e3d6000fd5b505050506040513d601f19601f8201168201806040525081019061106291906116be565b50600073a8F69065d3fF0F01234E782750Fc8A8ffB391fcb63508ba0bd4260008054906101000a900473ffffffffffffffffffffffffffffffffffffffff1673ffffffffffffffffffffffffffffffffffffffff16635c11ff7a6040518163ffffffff1660e01b815260040160206040518083038186803b1580156110e657600080fd5b505afa1580156110fa573d6000803e3d6000fd5b505050506040513d601f19601f8201168201806040525081019061111e9190611598565b60008054906101000a900473ffffffffffffffffffffffffffffffffffffffff1673ffffffffffffffffffffffffffffffffffffffff1663607ad0d76040518163ffffffff1660e01b815260040160206040518083038186803b15801561118457600080fd5b505afa158015611198573d6000803e3d6000fd5b505050506040513d601f19601f820116820180604052508101906111bc9190611598565b6040517fffffffff0000000000000000000000000000000000000000000000000000000060e086901b16815260048101939093526024830191909152604482015260640160206040518083038186803b15801561121857600080fd5b505af415801561122c573d6000803e3d6000fd5b505050506040513d601f19601f820116820180604052508101906112509190611598565b336000908152600160208190526040909120908101549192509015806112a2575060018082018054909161128391611552565b8154811061129357611293611569565b90600052602060002001548214155b156112c157600180820180549182018155600090815260209020018290555b60018460ff1660018111156112d8576112d86115f6565b60018111156112e9576112e96115f6565b14156113415760008281526020829052604081206001018054859290611310908490611671565b909155505060008281526002602052604081206001018054859290611336908490611671565b909155506113889050565b6000828152602082905260408120805485929061135f908490611671565b909155505060008281526002602052604081208054859290611382908490611671565b90915550505b6040805184815260ff86166020820152839133917f85ff162f60a0eab11e1e0d3d9cfa18a46d7038a29751af4130dbaeeadbd37ed4910160405180910390a350505050565b6000816113da85856116e0565b6113e4919061171d565b949350505050565b6000602082840312156113fe57600080fd5b5035919050565b803573ffffffffffffffffffffffffffffffffffffffff8116811461142957600080fd5b919050565b60006020828403121561144057600080fd5b61144982611405565b9392505050565b6000806040838503121561146357600080fd5b8235915061147360208401611405565b90509250929050565b6000806040838503121561148f57600080fd5b61149883611405565b946020939093013593505050565b60ff811681146114b557600080fd5b50565b600080600080600060a086880312156114d057600080fd5b8535945060208601359350604086013592506060860135915060808601356114f7816114a6565b809150509295509295909350565b6000806040838503121561151857600080fd5b8235611498816114a6565b7f4e487b7100000000000000000000000000000000000000000000000000000000600052601160045260246000fd5b60008282101561156457611564611523565b500390565b7f4e487b7100000000000000000000000000000000000000000000000000000000600052603260045260246000fd5b6000602082840312156115aa57600080fd5b5051919050565b600080604083850312156115c457600080fd5b505080516020909101519092909150565b6000602082840312156115e757600080fd5b81516004811061144957600080fd5b7f4e487b7100000000000000000000000000000000000000000000000000000000600052602160045260246000fd5b60006020828403121561163757600080fd5b8151611449816114a6565b7f4e487b7100000000000000000000000000000000000000000000000000000000600052603160045260246000fd5b6000821982111561168457611684611523565b500190565b60008161169857611698611523565b507fffffffffffffffffffffffffffffffffffffffffffffffffffffffffffffffff0190565b6000602082840312156116d057600080fd5b8151801515811461144957600080fd5b6000817fffffffffffffffffffffffffffffffffffffffffffffffffffffffffffffffff048311821515161561171857611718611523565b500290565b600082611753577f4e487b7100000000000000000000000000000000000000000000000000000000600052601260045260246000fd5b50049056fea2646970667358221220a4d66a408bc4ad2b3bd1c7b32cccd2442af49ae6acfce308db6febc02d16ca1664736f6c63430008080033",
  "deployedBytecode": "0x6080604052600436106100bc5760003560e01c8063acc1971d11610074578063dcb3b30e1161004e578063dcb3b30e146102c8578063e316c3eb146102db578063fccc28131461030f57600080fd5b8063acc1971d14610236578063b47a356614610288578063ca055e53146102a857600080fd5b806389b808a7116100a557806389b808a7146101475780639626a2301461019c578063ac4afa381461020257600080fd5b80630eff4d88146100c157806340b8405a14610125575b600080fd5b3480156100cd57600080fd5b5061010b6100dc3660046113ec565b600090815260026020908152604091829020825180840190935280548084526001909101549290910182905291565b604080519283526020830191909152015b60405180910390f35b34801561013157600080fd5b5061014561014036600461142e565b610343565b005b34801561015357600080fd5b5061018e61016236600461142e565b73ffffffffffffffffffffffffffffffffffffffff166000908152600160208190526040909120015490565b60405190815260200161011c565b3480156101a857600080fd5b5061010b6101b7366004611450565b73ffffffffffffffffffffffffffffffffffffffff16600090815260016020818152604080842094845293815291839020835180850190945280548085529101549290910182905291565b34801561020e57600080fd5b5061010b61021d3660046113ec565b6002602052600090815260409020805460019091015482565b34801561024257600080fd5b506000546102639073ffffffffffffffffffffffffffffffffffffffff1681565b60405173ffffffffffffffffffffffffffffffffffffffff909116815260200161011c565b34801561029457600080fd5b5061018e6102a336600461147c565b610ca3565b3480156102b457600080fd5b5061010b6102c33660046114b8565b610cf0565b6101456102d6366004611505565b610ebc565b3480156102e757600080fd5b5061018e7f000000000000000000000000000000000000000000000000000000000000000081565b34801561031b57600080fd5b506102637f000000000000000000000000000000000000000000000000000000000000000081565b73ffffffffffffffffffffffffffffffffffffffff8116600090815260016020819052604090912090810154610377575050565b600181015460009081905b80156109b35760008460010160018361039b9190611552565b815481106103ab576103ab611569565b90600052602060002001549050600073__$686c523504a9e378bd393220b2fc4a35a6$__63508ba0bd4260008054906101000a900473ffffffffffffffffffffffffffffffffffffffff1673ffffffffffffffffffffffffffffffffffffffff16635c11ff7a6040518163ffffffff1660e01b815260040160206040518083038186803b15801561043b57600080fd5b505afa15801561044f573d6000803e3d6000fd5b505050506040513d601f19601f820116820180604052508101906104739190611598565b60008054906101000a900473ffffffffffffffffffffffffffffffffffffffff1673ffffffffffffffffffffffffffffffffffffffff1663607ad0d76040518163ffffffff1660e01b815260040160206040518083038186803b1580156104d957600080fd5b505afa1580156104ed573d6000803e3d6000fd5b505050506040513d601f19601f820116820180604052508101906105119190611598565b6040517fffffffff0000000000000000000000000000000000000000000000000000000060e086901b16815260048101939093526024830191909152604482015260640160206040518083038186803b15801561056d57600080fd5b505af4158015610581573d6000803e3d6000fd5b505050506040513d601f19601f820116820180604052508101906105a59190611598565b600080546040517ff83b35fb000000000000000000000000000000000000000000000000000000008152600481018690529293509091829173ffffffffffffffffffffffffffffffffffffffff169063f83b35fb90602401604080518083038186803b15801561061457600080fd5b505afa158015610628573d6000803e3d6000fd5b505050506040513d601f19601f8201168201806040525081019061064c91906115b1565b6040517fb134894e00000000000000000000000000000000000000000000000000000000815260048101879052602481018690526044810183905260648101829052919350915060009073__$686c523504a9e378bd393220b2fc4a35a6$__9063b134894e9060840160206040518083038186803b1580156106cd57600080fd5b505af41580156106e1573d6000803e3d6000fd5b505050506040513d601f19601f8201168201806040525081019061070591906115d5565b9050600081600381111561071b5761071b6115f6565b148061073857506001816003811115610736576107366115f6565b145b156107475750505050506109a1565b6000600382600381111561075d5761075d6115f6565b141561080d576040517fc886d8a4000000000000000000000000000000000000000000000000000000008152600481018590526024810184905273__$686c523504a9e378bd393220b2fc4a35a6$__9063c886d8a49060440160206040518083038186803b1580156107ce57600080fd5b505af41580156107e2573d6000803e3d6000fd5b505050506040513d601f19601f820116820180604052508101906108069190611625565b905061082b565b6002826003811115610821576108216115f6565b141561082b575060025b6001808b018054909161083d91611552565b8154811061084d5761084d611569565b90600052602060002001548a6001016001896108699190611552565b8154811061087957610879611569565b60009182526020909120015560018a0180548061089857610898611642565b6000828152602080822083017fffffffffffffffffffffffffffffffffffffffffffffffffffffffffffffffff9081018390559092019092558782528b8152604080832081518083018352815481526001918201548185019081528b8652600285528386208451808601909552805480865293015494840185905251815191959394849361092893919089610cf0565b9092509050610937828e611671565b9c50610943818d611671565b9b508e73ffffffffffffffffffffffffffffffffffffffff168a7f6f277b50171c654e40c771d9c2bbf19e070eeb21cce6f8e9a80334564279e3958460405161098e91815260200190565b60405180910390a3505050505050505050505b806109ab81611689565b915050610382565b508115610a68576003546040517fa9059cbb00000000000000000000000000000000000000000000000000000000815273ffffffffffffffffffffffffffffffffffffffff8681166004830152602482018590529091169063a9059cbb90604401602060405180830381600087803b158015610a2e57600080fd5b505af1158015610a42573d6000803e3d6000fd5b505050506040513d601f19601f82011682018060405250810190610a6691906116be565b505b8015610c9d57600354600080546040517f70a0823100000000000000000000000000000000000000000000000000000000815273ffffffffffffffffffffffffffffffffffffffff9182166004820152919216906370a082319060240160206040518083038186803b158015610add57600080fd5b505afa158015610af1573d6000803e3d6000fd5b505050506040513d601f19601f82011682018060405250810190610b159190611598565b1115610bed576003546040517fa9059cbb00000000000000000000000000000000000000000000000000000000815273ffffffffffffffffffffffffffffffffffffffff7f000000000000000000000000000000000000000000000000000000000000000081166004830152602482018490529091169063a9059cbb90604401602060405180830381600087803b158015610baf57600080fd5b505af1158015610bc3573d6000803e3d6000fd5b505050506040513d601f19601f82011682018060405250810190610be791906116be565b50610c9d565b6003546000546040517fa9059cbb00000000000000000000000000000000000000000000000000000000815273ffffffffffffffffffffffffffffffffffffffff91821660048201526024810184905291169063a9059cbb90604401602060405180830381600087803b158015610c6357600080fd5b505af1158015610c77573d6000803e3d6000fd5b505050506040513d601f19601f82011682018060405250810190610c9b91906116be565b505b50505050565b73ffffffffffffffffffffffffffffffffffffffff82166000908152600160208190526040822001805483908110610cdd57610cdd611569565b9060005260206000200154905092915050565b60008060008360ff166002811115610d0a57610d0a6115f6565b90506000610d188688611671565b905060006001836002811115610d3057610d306115f6565b148015610d3c57508715155b15610e4a57610d4c828b8a6113cd565b6040517f366eedf4000000000000000000000000000000000000000000000000000000008152600481018290527f000000000000000000000000000000000000000000000000000000000000000060248201527f0000000000000000000000000000000000000000000000000000000000000000604482015290915073__$686c523504a9e378bd393220b2fc4a35a6$__9063366eedf49060640160206040518083038186803b158015610dff57600080fd5b505af4158015610e13573d6000803e3d6000fd5b505050506040513d601f19601f82011682018060405250810190610e379190611598565b9350610e438482611552565b9450610eaf565b6000836002811115610e5e57610e5e6115f6565b148015610e6a57508615155b15610e7a57610d4c828a896113cd565b6002836002811115610e8e57610e8e6115f6565b1415610e9e57610e43898b611671565b60009450610eac898b611671565b93505b5050509550959350505050565b60008111610f2a576040517f08c379a000000000000000000000000000000000000000000000000000000000815260206004820152601d60248201527f4f6e6c79207374726963746c7920706f7369746976652076616c756573000000604482015260640160405180910390fd5b60008054604080517f673a7e28000000000000000000000000000000000000000000000000000000008152905173ffffffffffffffffffffffffffffffffffffffff9092169263673a7e289260048084019382900301818387803b158015610f9157600080fd5b505af1158015610fa5573d6000803e3d6000fd5b50505050610fb233610343565b6003546040517f23b872dd0000000000000000000000000000000000000000000000000000000081523360048201523060248201526044810183905273ffffffffffffffffffffffffffffffffffffffff909116906323b872dd90606401602060405180830381600087803b15801561102a57600080fd5b505af115801561103e573d6000803e3d6000fd5b505050506040513d601f19601f8201168201806040525081019061106291906116be565b50600073__$686c523504a9e378bd393220b2fc4a35a6$__63508ba0bd4260008054906101000a900473ffffffffffffffffffffffffffffffffffffffff1673ffffffffffffffffffffffffffffffffffffffff16635c11ff7a6040518163ffffffff1660e01b815260040160206040518083038186803b1580156110e657600080fd5b505afa1580156110fa573d6000803e3d6000fd5b505050506040513d601f19601f8201168201806040525081019061111e9190611598565b60008054906101000a900473ffffffffffffffffffffffffffffffffffffffff1673ffffffffffffffffffffffffffffffffffffffff1663607ad0d76040518163ffffffff1660e01b815260040160206040518083038186803b15801561118457600080fd5b505afa158015611198573d6000803e3d6000fd5b505050506040513d601f19601f820116820180604052508101906111bc9190611598565b6040517fffffffff0000000000000000000000000000000000000000000000000000000060e086901b16815260048101939093526024830191909152604482015260640160206040518083038186803b15801561121857600080fd5b505af415801561122c573d6000803e3d6000fd5b505050506040513d601f19601f820116820180604052508101906112509190611598565b336000908152600160208190526040909120908101549192509015806112a2575060018082018054909161128391611552565b8154811061129357611293611569565b90600052602060002001548214155b156112c157600180820180549182018155600090815260209020018290555b60018460ff1660018111156112d8576112d86115f6565b60018111156112e9576112e96115f6565b14156113415760008281526020829052604081206001018054859290611310908490611671565b909155505060008281526002602052604081206001018054859290611336908490611671565b909155506113889050565b6000828152602082905260408120805485929061135f908490611671565b909155505060008281526002602052604081208054859290611382908490611671565b90915550505b6040805184815260ff86166020820152839133917f85ff162f60a0eab11e1e0d3d9cfa18a46d7038a29751af4130dbaeeadbd37ed4910160405180910390a350505050565b6000816113da85856116e0565b6113e4919061171d565b949350505050565b6000602082840312156113fe57600080fd5b5035919050565b803573ffffffffffffffffffffffffffffffffffffffff8116811461142957600080fd5b919050565b60006020828403121561144057600080fd5b61144982611405565b9392505050565b6000806040838503121561146357600080fd5b8235915061147360208401611405565b90509250929050565b6000806040838503121561148f57600080fd5b61149883611405565b946020939093013593505050565b60ff811681146114b557600080fd5b50565b600080600080600060a086880312156114d057600080fd5b8535945060208601359350604086013592506060860135915060808601356114f7816114a6565b809150509295509295909350565b6000806040838503121561151857600080fd5b8235611498816114a6565b7f4e487b7100000000000000000000000000000000000000000000000000000000600052601160045260246000fd5b60008282101561156457611564611523565b500390565b7f4e487b7100000000000000000000000000000000000000000000000000000000600052603260045260246000fd5b6000602082840312156115aa57600080fd5b5051919050565b600080604083850312156115c457600080fd5b505080516020909101519092909150565b6000602082840312156115e757600080fd5b81516004811061144957600080fd5b7f4e487b7100000000000000000000000000000000000000000000000000000000600052602160045260246000fd5b60006020828403121561163757600080fd5b8151611449816114a6565b7f4e487b7100000000000000000000000000000000000000000000000000000000600052603160045260246000fd5b6000821982111561168457611684611523565b500190565b60008161169857611698611523565b507fffffffffffffffffffffffffffffffffffffffffffffffffffffffffffffffff0190565b6000602082840312156116d057600080fd5b8151801515811461144957600080fd5b6000817fffffffffffffffffffffffffffffffffffffffffffffffffffffffffffffffff048311821515161561171857611718611523565b500290565b600082611753577f4e487b7100000000000000000000000000000000000000000000000000000000600052601260045260246000fd5b50049056fea2646970667358221220a4d66a408bc4ad2b3bd1c7b32cccd2442af49ae6acfce308db6febc02d16ca1664736f6c63430008080033",
  "libraries": {
    "BetLibrary": "0xa8F69065d3fF0F01234E782750Fc8A8ffB391fcb"
  },
  "devdoc": {
    "kind": "dev",
    "methods": {},
    "version": 1
  },
  "userdoc": {
    "kind": "user",
    "methods": {},
    "version": 1
  },
  "storageLayout": {
    "storage": [
      {
        "astId": 4667,
        "contract": "contracts/KittyPool.sol:KittyPool",
        "label": "binarybet",
        "offset": 0,
        "slot": "0",
        "type": "t_contract(BinaryBet)2799"
      },
      {
        "astId": 4672,
        "contract": "contracts/KittyPool.sol:KittyPool",
        "label": "user",
        "offset": 0,
        "slot": "1",
        "type": "t_mapping(t_address,t_struct(User)1512_storage)"
      },
      {
        "astId": 4677,
        "contract": "contracts/KittyPool.sol:KittyPool",
        "label": "pools",
        "offset": 0,
        "slot": "2",
        "type": "t_mapping(t_uint256,t_struct(Pool)1503_storage)"
      },
      {
        "astId": 4684,
        "contract": "contracts/KittyPool.sol:KittyPool",
        "label": "token",
        "offset": 0,
        "slot": "3",
        "type": "t_contract(BinToken)1781"
      }
    ],
    "types": {
      "t_address": {
        "encoding": "inplace",
        "label": "address",
        "numberOfBytes": "20"
      },
      "t_array(t_uint256)dyn_storage": {
        "base": "t_uint256",
        "encoding": "dynamic_array",
        "label": "uint256[]",
        "numberOfBytes": "32"
      },
      "t_contract(BinToken)1781": {
        "encoding": "inplace",
        "label": "contract BinToken",
        "numberOfBytes": "20"
      },
      "t_contract(BinaryBet)2799": {
        "encoding": "inplace",
        "label": "contract BinaryBet",
        "numberOfBytes": "20"
      },
      "t_mapping(t_address,t_struct(User)1512_storage)": {
        "encoding": "mapping",
        "key": "t_address",
        "label": "mapping(address => struct BetLibrary.User)",
        "numberOfBytes": "32",
        "value": "t_struct(User)1512_storage"
      },
      "t_mapping(t_uint256,t_struct(Pool)1503_storage)": {
        "encoding": "mapping",
        "key": "t_uint256",
        "label": "mapping(uint256 => struct BetLibrary.Pool)",
        "numberOfBytes": "32",
        "value": "t_struct(Pool)1503_storage"
      },
      "t_struct(Pool)1503_storage": {
        "encoding": "inplace",
        "label": "struct BetLibrary.Pool",
        "members": [
          {
            "astId": 1500,
            "contract": "contracts/KittyPool.sol:KittyPool",
            "label": "downValue",
            "offset": 0,
            "slot": "0",
            "type": "t_uint256"
          },
          {
            "astId": 1502,
            "contract": "contracts/KittyPool.sol:KittyPool",
            "label": "upValue",
            "offset": 0,
            "slot": "1",
            "type": "t_uint256"
          }
        ],
        "numberOfBytes": "64"
      },
      "t_struct(User)1512_storage": {
        "encoding": "inplace",
        "label": "struct BetLibrary.User",
        "members": [
          {
            "astId": 1508,
            "contract": "contracts/KittyPool.sol:KittyPool",
            "label": "stake",
            "offset": 0,
            "slot": "0",
            "type": "t_mapping(t_uint256,t_struct(Pool)1503_storage)"
          },
          {
            "astId": 1511,
            "contract": "contracts/KittyPool.sol:KittyPool",
            "label": "bets",
            "offset": 0,
            "slot": "1",
            "type": "t_array(t_uint256)dyn_storage"
          }
        ],
        "numberOfBytes": "64"
      },
      "t_uint256": {
        "encoding": "inplace",
        "label": "uint256",
        "numberOfBytes": "32"
      }
    }
  }
}