{
  "contractName": "BinaryBet",
  "abi": [
    {
      "inputs": [
        {
          "internalType": "uint256",
          "name": "_firstWindowTimestamp",
          "type": "uint256"
        },
        {
          "internalType": "uint256",
          "name": "_windowDuration",
          "type": "uint256"
        },
        {
          "internalType": "uint256",
          "name": "_fee",
          "type": "uint256"
        }
      ],
      "stateMutability": "nonpayable",
      "type": "constructor"
    },
    {
      "anonymous": false,
      "inputs": [
        {
          "indexed": false,
          "internalType": "uint256",
          "name": "gain",
          "type": "uint256"
        },
        {
          "indexed": false,
          "internalType": "uint256",
          "name": "windowNumber",
          "type": "uint256"
        },
        {
          "indexed": false,
          "internalType": "address",
          "name": "user",
          "type": "address"
        }
      ],
      "name": "betSettled",
      "type": "event"
    },
    {
      "anonymous": false,
      "inputs": [
        {
          "indexed": false,
          "internalType": "uint256",
          "name": "value",
          "type": "uint256"
        },
        {
          "indexed": false,
          "internalType": "uint8",
          "name": "side",
          "type": "uint8"
        },
        {
          "indexed": false,
          "internalType": "address",
          "name": "user",
          "type": "address"
        },
        {
          "indexed": false,
          "internalType": "uint256",
          "name": "windowNumber",
          "type": "uint256"
        }
      ],
      "name": "newBet",
      "type": "event"
    },
    {
      "anonymous": false,
      "inputs": [
        {
          "indexed": false,
          "internalType": "uint256",
          "name": "value",
          "type": "uint256"
        },
        {
          "indexed": false,
          "internalType": "address",
          "name": "user",
          "type": "address"
        }
      ],
      "name": "newDeposit",
      "type": "event"
    },
    {
      "anonymous": false,
      "inputs": [
        {
          "indexed": false,
          "internalType": "uint256",
          "name": "value",
          "type": "uint256"
        },
        {
          "indexed": false,
          "internalType": "address",
          "name": "user",
          "type": "address"
        }
      ],
      "name": "newWithdraw",
      "type": "event"
    },
    {
      "inputs": [],
      "name": "deposit",
      "outputs": [],
      "stateMutability": "payable",
      "type": "function",
      "payable": true
    },
    {
      "inputs": [
        {
          "internalType": "uint256",
          "name": "value",
          "type": "uint256"
        }
      ],
      "name": "withdraw",
      "outputs": [],
      "stateMutability": "nonpayable",
      "type": "function"
    },
    {
      "inputs": [
        {
          "internalType": "uint256",
          "name": "betValue",
          "type": "uint256"
        },
        {
          "internalType": "uint8",
          "name": "side",
          "type": "uint8"
        }
      ],
      "name": "placeBet",
      "outputs": [],
      "stateMutability": "payable",
      "type": "function",
      "payable": true
    },
    {
      "inputs": [
        {
          "internalType": "address",
          "name": "user",
          "type": "address"
        }
      ],
      "name": "updateBalance",
      "outputs": [
        {
          "internalType": "uint256",
          "name": "",
          "type": "uint256"
        }
      ],
      "stateMutability": "nonpayable",
      "type": "function"
    },
    {
      "inputs": [
        {
          "internalType": "uint256",
          "name": "upStake",
          "type": "uint256"
        },
        {
          "internalType": "uint256",
          "name": "downStake",
          "type": "uint256"
        },
        {
          "internalType": "uint256",
          "name": "poolUp",
          "type": "uint256"
        },
        {
          "internalType": "uint256",
          "name": "poolDown",
          "type": "uint256"
        },
        {
          "internalType": "uint8",
          "name": "betResult",
          "type": "uint8"
        }
      ],
      "name": "settleBet",
      "outputs": [
        {
          "internalType": "uint256",
          "name": "",
          "type": "uint256"
        }
      ],
      "stateMutability": "pure",
      "type": "function",
      "constant": true
    },
    {
      "inputs": [
        {
          "internalType": "int256",
          "name": "referencePrice",
          "type": "int256"
        },
        {
          "internalType": "int256",
          "name": "settlementPrice",
          "type": "int256"
        }
      ],
      "name": "betResult",
      "outputs": [
        {
          "internalType": "uint8",
          "name": "",
          "type": "uint8"
        }
      ],
      "stateMutability": "pure",
      "type": "function",
      "constant": true
    },
    {
      "inputs": [
        {
          "internalType": "address",
          "name": "user",
          "type": "address"
        },
        {
          "internalType": "uint8",
          "name": "side",
          "type": "uint8"
        },
        {
          "internalType": "uint256",
          "name": "windowNumber",
          "type": "uint256"
        },
        {
          "internalType": "uint256",
          "name": "value",
          "type": "uint256"
        }
      ],
      "name": "updateStake",
      "outputs": [],
      "stateMutability": "nonpayable",
      "type": "function"
    },
    {
      "inputs": [
        {
          "internalType": "uint256",
          "name": "windowNumber",
          "type": "uint256"
        },
        {
          "internalType": "uint256",
          "name": "value",
          "type": "uint256"
        },
        {
          "internalType": "uint8",
          "name": "betSide",
          "type": "uint8"
        }
      ],
      "name": "updatePool",
      "outputs": [],
      "stateMutability": "nonpayable",
      "type": "function"
    },
    {
      "inputs": [
        {
          "internalType": "uint256",
          "name": "currentTimestamp",
          "type": "uint256"
        }
      ],
      "name": "getTimestampWindow",
      "outputs": [
        {
          "internalType": "uint256",
          "name": "windowNumber",
          "type": "uint256"
        }
      ],
      "stateMutability": "view",
      "type": "function",
      "constant": true
    },
    {
      "inputs": [
        {
          "internalType": "uint256",
          "name": "windowNumber",
          "type": "uint256"
        }
      ],
      "name": "getWindowStartingTimestamp",
      "outputs": [
        {
          "internalType": "uint256",
          "name": "startingTimestamp",
          "type": "uint256"
        }
      ],
      "stateMutability": "view",
      "type": "function",
      "constant": true
    },
    {
      "inputs": [
        {
          "internalType": "uint256",
          "name": "value",
          "type": "uint256"
        },
        {
          "internalType": "uint256",
          "name": "_fee",
          "type": "uint256"
        }
      ],
      "name": "computeFee",
      "outputs": [
        {
          "internalType": "uint256",
          "name": "betFee",
          "type": "uint256"
        }
      ],
      "stateMutability": "pure",
      "type": "function",
      "constant": true
    },
    {
      "inputs": [
        {
          "internalType": "uint256",
          "name": "windowNumber",
          "type": "uint256"
        }
      ],
      "name": "getPoolValues",
      "outputs": [
        {
          "internalType": "uint256",
          "name": "",
          "type": "uint256"
        },
        {
          "internalType": "uint256",
          "name": "",
          "type": "uint256"
        },
        {
          "internalType": "uint256",
          "name": "",
          "type": "uint256"
        },
        {
          "internalType": "uint256",
          "name": "",
          "type": "uint256"
        }
      ],
      "stateMutability": "view",
      "type": "function",
      "constant": true
    },
    {
      "inputs": [
        {
          "internalType": "uint256",
          "name": "windowNumber",
          "type": "uint256"
        },
        {
          "internalType": "address",
          "name": "user",
          "type": "address"
        }
      ],
      "name": "getUserStake",
      "outputs": [
        {
          "internalType": "uint256",
          "name": "",
          "type": "uint256"
        },
        {
          "internalType": "uint256",
          "name": "",
          "type": "uint256"
        }
      ],
      "stateMutability": "view",
      "type": "function",
      "constant": true
    },
    {
      "inputs": [
        {
          "internalType": "address",
          "name": "user",
          "type": "address"
        }
      ],
      "name": "getBalance",
      "outputs": [
        {
          "internalType": "uint256",
          "name": "",
          "type": "uint256"
        }
      ],
      "stateMutability": "view",
      "type": "function",
      "constant": true
    }
  ],
  "bytecode": "0x60806040523480156200001157600080fd5b506040516200256e3803806200256e833981810160405260608110156200003757600080fd5b508051602082015160409092015190919060648111156200005757600080fd5b6040518060a001604052808481526020016200008284866200021260201b62000de81790919060201c565b8152602001620000bb620000a66002866200027660201b62000e421790919060201c565b866200021260201b62000de81790919060201c565b8152600060208083018290526040928301829052835160048190558482015160058190559385015160068190556060860151600781905560809096015160088190556009899055848052600a9093527f13da86008ba1c6922daee3e07db95305ef49ebced9f5467a0b8613fcc6b343e3919091557f13da86008ba1c6922daee3e07db95305ef49ebced9f5467a0b8613fcc6b343e4939093557f13da86008ba1c6922daee3e07db95305ef49ebced9f5467a0b8613fcc6b343e5929092557f13da86008ba1c6922daee3e07db95305ef49ebced9f5467a0b8613fcc6b343e6929092557f13da86008ba1c6922daee3e07db95305ef49ebced9f5467a0b8613fcc6b343e755819055600180546001600160a01b03191633179055620001e86001600160e01b03620002d416565b600380546001600160a01b0319166001600160a01b03929092169190911790555062000317915050565b6000828201838110156200026d576040805162461bcd60e51b815260206004820152601b60248201527f536166654d6174683a206164646974696f6e206f766572666c6f770000000000604482015290519081900360640190fd5b90505b92915050565b600082620002875750600062000270565b828202828482816200029557fe5b04146200026d5760405162461bcd60e51b81526004018080602001828103825260218152602001806200254d6021913960400191505060405180910390fd5b600080604051620002e59062000309565b604051809103906000f08015801562000302573d6000803e3d6000fd5b5091505090565b611149806200140483390190565b6110dd80620003276000396000f3fe6080604052600436106100dd5760003560e01c8063800724711161007f578063ca055e5311610059578063ca055e531461032d578063ccb599c414610372578063d0e30db0146103ab578063f8b2cb4f146103b3576100dd565b8063800724711461026b5780639626a230146102b1578063a7a419f114610303576100dd565b80632ff284c2116100bb5780632ff284c21461018457806333299db8146101c657806336dab3a4146101f057806340b8405a14610238576100dd565b806303edf914146100e25780630eff4d881461010a5780632e1a7d4d1461015a575b600080fd5b610108600480360360408110156100f857600080fd5b508035906020013560ff166103e6565b005b34801561011657600080fd5b506101346004803603602081101561012d57600080fd5b50356105c8565b604080519485526020850193909352838301919091526060830152519081900360800190f35b34801561016657600080fd5b506101086004803603602081101561017d57600080fd5b5035610630565b34801561019057600080fd5b506101b4600480360360408110156101a757600080fd5b5080359060200135610754565b60408051918252519081900360200190f35b3480156101d257600080fd5b506101b4600480360360208110156101e957600080fd5b503561077e565b3480156101fc57600080fd5b506101086004803603608081101561021357600080fd5b506001600160a01b038135169060ff60208201351690604081013590606001356107e6565b34801561024457600080fd5b506101b46004803603602081101561025b57600080fd5b50356001600160a01b031661089f565b34801561027757600080fd5b5061029b6004803603604081101561028e57600080fd5b5080359060200135610acc565b6040805160ff9092168252519081900360200190f35b3480156102bd57600080fd5b506102ea600480360360408110156102d457600080fd5b50803590602001356001600160a01b0316610af7565b6040805192835260208301919091528051918290030190f35b34801561030f57600080fd5b506101b46004803603602081101561032657600080fd5b5035610b47565b34801561033957600080fd5b506101b4600480360360a081101561035057600080fd5b508035906020810135906040810135906060810135906080013560ff16610ba0565b34801561037e57600080fd5b506101086004803603606081101561039557600080fd5b508035906020810135906040013560ff16610c2f565b610108610d5c565b3480156103bf57600080fd5b506101b4600480360360208110156103d657600080fd5b50356001600160a01b0316610dcd565b60006103f143610b47565b905060006103fe3361089f565b336000908152600b6020526040902054909150610421908263ffffffff610de816565b336000908152600b6020908152604080832093909355600d81528282208583529052205460ff161561045257600080fd5b336000908152600b6020526040902054610472903463ffffffff610de816565b8411156104b05760405162461bcd60e51b81526004018080602001828103825260228152602001806110656022913960400191505060405180910390fd5b336000908152600b60205260409020546104e29085906104d6903463ffffffff610de816565b9063ffffffff610e9b16565b336000908152600b60205260408120919091558054610502908690610754565b90506000610516868363ffffffff610e9b16565b336000908152600e60209081526040822080546001810182559083529120018590559050610545848287610c2f565b610551338686846107e6565b336000818152600d60209081526040808320888452825291829020805460ff19166001179055815184815260ff8916918101919091528082019290925260608201869052517f6ab5bc6ec74e9a8760f95ac30582cec0c254beb385160f0c87281e992dd9c5e49181900360800190a1505050505050565b6000806000806105d661101b565b50505060009283525050600a6020908152604091829020825160a081018452815481526001820154928101839052600282015493810184905260038201546060820181905260049092015460809091018190529293909190565b600061063b3361089f565b336000908152600b602052604090205490915061065e908263ffffffff610de816565b336000908152600b602052604090208190558211156106b7576040805162461bcd60e51b815260206004820152601060248201526f6e6f7420656e6f7567682066756e647360801b604482015290519081900360640190fd5b336000908152600b60205260409020546106d7908363ffffffff610e9b16565b336000818152600b6020526040808220939093559151909184156108fc02918591818181858888f19350505050158015610715573d6000803e3d6000fd5b506040805183815233602082015281517f1f10c0cd1c27f2cc50e5d733f5ce6003113bf85cb5e6dd70f5c66a0fa38ea4c6929181900390910190a15050565b6000610777606461076b858563ffffffff610e4216565b9063ffffffff610edd16565b9392505050565b60006107e06107a960095461079d600186610e9b90919063ffffffff16565b9063ffffffff610e4216565b60008052600a6020527f13da86008ba1c6922daee3e07db95305ef49ebced9f5467a0b8613fcc6b343e3549063ffffffff610de816565b92915050565b60008360ff1660018111156107f757fe5b9050600081600181111561080757fe5b141561084c576001600160a01b0385166000908152600c6020908152604080832086845290915290206001810154610845908463ffffffff610de816565b6001909101555b600181600181111561085a57fe5b1415610898576001600160a01b0385166000908152600c6020908152604080832086845290915290208054610895908463ffffffff610de816565b90555b5050505050565b6001600160a01b0381166000908152600e6020526040812080548291906108cb57600092505050610ac7565b8054600019015b6108da61101b565b600a60008484815481106108ea57fe5b906000526020600020015481526020019081526020016000206040518060a001604052908160008201548152602001600182015481526020016002820154815260200160038201548152602001600482015481525050905080604001514310156109545750610abe565b602080820151600090815260028252604080822054818501518352818320546001600160a01b038b168452600c909452908220865491939291829088908890811061099b57fe5b90600052602060002001548152602001908152602001600020905060006109c28484610acc565b905060006109e3836000015484600101548860800151896060015186610ba0565b60006001850181905584559050610a00898263ffffffff610de816565b98507fa4acc56bf9e3fb26646ffe4b7fb0ca4f76283132f0b46ca95d5ea416199458b781898981548110610a3057fe5b6000918252602091829020015460408051938452918301526001600160a01b038e1682820152519081900360600190a1875488906000198101908110610a7257fe5b9060005260206000200154888881548110610a8957fe5b906000526020600020018190555087805480610aa157fe5b600190038181906000526020600020016000905590555050505050505b600019016108d2565b919050565b600082821215610ade575060006107e0565b82821315610aee575060016107e0565b50600292915050565b600080610b0261104a565b5050506001600160a01b03166000908152600c602090815260408083209383529281529082902082518084019093528054808452600190910154929091018290529091565b6009546000808052600a6020527f13da86008ba1c6922daee3e07db95305ef49ebced9f5467a0b8613fcc6b343e35490916107e091600191610b949161076b90879063ffffffff610e9b16565b9063ffffffff610de816565b6000808260ff166002811115610bb257fe5b90506000610bc6868663ffffffff610de816565b905060006001836002811115610bd857fe5b1415610bf15786828a0281610be957fe5b049050610c23565b6000836002811115610bff57fe5b1415610c10578582890281610be957fe5b610c20898963ffffffff610de816565b90505b98975050505050505050565b6000610c3a8461077e565b6000858152600a6020526040902060020154909150610cb157600954610c6790829063ffffffff610de816565b6000858152600a6020526040902060010155600954610c9e90610c9190600263ffffffff610e4216565b829063ffffffff610de816565b6000858152600a60205260409020600201555b60008260ff166001811115610cc257fe5b90506000816001811115610cd257fe5b1415610d0d576000858152600a6020526040902060040154610cfa908563ffffffff610de816565b6000868152600a60205260409020600401555b6001816001811115610d1b57fe5b1415610898576000858152600a6020526040902060030154610d43908563ffffffff610de816565b6000868152600a60205260409020600301555050505050565b336000908152600b6020526040902054610d7c903463ffffffff610de816565b336000818152600b60209081526040918290209390935580513481529283019190915280517f7409df427fb85f0f6f2573c2a28a0fc2b758c552b1a2c08187ff1db0b07a354b9281900390910190a1565b6001600160a01b03166000908152600b602052604090205490565b600082820183811015610777576040805162461bcd60e51b815260206004820152601b60248201527f536166654d6174683a206164646974696f6e206f766572666c6f770000000000604482015290519081900360640190fd5b600082610e51575060006107e0565b82820282848281610e5e57fe5b04146107775760405162461bcd60e51b81526004018080602001828103825260218152602001806110876021913960400191505060405180910390fd5b600061077783836040518060400160405280601e81526020017f536166654d6174683a207375627472616374696f6e206f766572666c6f770000815250610f1f565b600061077783836040518060400160405280601a81526020017f536166654d6174683a206469766973696f6e206279207a65726f000000000000815250610fb6565b60008184841115610fae5760405162461bcd60e51b81526004018080602001828103825283818151815260200191508051906020019080838360005b83811015610f73578181015183820152602001610f5b565b50505050905090810190601f168015610fa05780820380516001836020036101000a031916815260200191505b509250505060405180910390fd5b505050900390565b600081836110055760405162461bcd60e51b8152602060048201818152835160248401528351909283926044909101919085019080838360008315610f73578181015183820152602001610f5b565b50600083858161101157fe5b0495945050505050565b6040518060a0016040528060008152602001600081526020016000815260200160008152602001600081525090565b60405180604001604052806000815260200160008152509056fe6e6f7420656e6f756768206d6f6e657920746f20706c616365207468697320626574536166654d6174683a206d756c7469706c69636174696f6e206f766572666c6f77a26469706673582212202ff08149d62744c86f3b187fbf230ba3e9b3277e93742369dad1a7af21d55dd964736f6c6343000608003360806040523480156200001157600080fd5b50604051806040016040528060098152602001682134b7102a37b5b2b760b91b815250604051806040016040528060038152602001622124a760e91b81525081600390805190602001906200006892919062000234565b5080516200007e90600490602084019062000234565b50506005805460ff1916601217905550620000af336b033b2e3c9fd0803ce80000006001600160e01b03620000b516565b620002d9565b6001600160a01b03821662000111576040805162461bcd60e51b815260206004820152601f60248201527f45524332303a206d696e7420746f20746865207a65726f206164647265737300604482015290519081900360640190fd5b62000128600083836001600160e01b03620001cd16565b6200014481600254620001d260201b620009021790919060201c565b6002556001600160a01b038216600090815260208181526040909120546200017791839062000902620001d2821b17901c565b6001600160a01b0383166000818152602081815260408083209490945583518581529351929391927fddf252ad1be2c89b69c2b068fc378daa952ba7f163c4a11628f55a4df523b3ef9281900390910190a35050565b505050565b6000828201838110156200022d576040805162461bcd60e51b815260206004820152601b60248201527f536166654d6174683a206164646974696f6e206f766572666c6f770000000000604482015290519081900360640190fd5b9392505050565b828054600181600116156101000203166002900490600052602060002090601f016020900481019282601f106200027757805160ff1916838001178555620002a7565b82800160010185558215620002a7579182015b82811115620002a75782518255916020019190600101906200028a565b50620002b5929150620002b9565b5090565b620002d691905b80821115620002b55760008155600101620002c0565b90565b610e6080620002e96000396000f3fe608060405234801561001057600080fd5b50600436106101005760003560e01c806340c10f1911610097578063a457c2d711610066578063a457c2d7146102ce578063a9059cbb146102fa578063dd62ed3e14610326578063f76f8d781461035457610100565b806340c10f191461026c57806370a082311461029857806395d89b41146102be578063a3f4df7e146102c657610100565b80632e0f2625116100d35780632e0f2625146102125780632ff2e9dc14610230578063313ce56714610238578063395093511461024057610100565b806306fdde0314610105578063095ea7b31461018257806318160ddd146101c257806323b872dd146101dc575b600080fd5b61010d61035c565b6040805160208082528351818301528351919283929083019185019080838360005b8381101561014757818101518382015260200161012f565b50505050905090810190601f1680156101745780820380516001836020036101000a031916815260200191505b509250505060405180910390f35b6101ae6004803603604081101561019857600080fd5b506001600160a01b0381351690602001356103f2565b604080519115158252519081900360200190f35b6101ca610410565b60408051918252519081900360200190f35b6101ae600480360360608110156101f257600080fd5b506001600160a01b03813581169160208101359091169060400135610416565b61021a6105a0565b6040805160ff9092168252519081900360200190f35b6101ca6105a5565b61021a6105b5565b6101ae6004803603604081101561025657600080fd5b506001600160a01b0381351690602001356105be565b6101ae6004803603604081101561028257600080fd5b506001600160a01b038135169060200135610617565b6101ca600480360360208110156102ae57600080fd5b50356001600160a01b0316610623565b61010d61063e565b61010d61069f565b6101ae600480360360408110156102e457600080fd5b506001600160a01b0381351690602001356106c4565b6101ae6004803603604081101561031057600080fd5b506001600160a01b038135169060200135610732565b6101ca6004803603604081101561033c57600080fd5b506001600160a01b03813581169160200135166108b8565b61010d6108e3565b60038054604080516020601f60026000196101006001881615020190951694909404938401819004810282018101909252828152606093909290918301828280156103e85780601f106103bd576101008083540402835291602001916103e8565b820191906000526020600020905b8154815290600101906020018083116103cb57829003601f168201915b5050505050905090565b60006104066103ff610963565b8484610967565b5060015b92915050565b60025490565b600083600061042482610a53565b9050818115610465576040516001600160a01b0382169083156108fc029084906000818181858888f19350505050158015610463573d6000803e3d6000fd5b505b6001600160a01b038316600090815260066020526040812047600190910155869061048f82610a53565b90508181156104d0576040516001600160a01b0382169083156108fc029084906000818181858888f193505050501580156104ce573d6000803e3d6000fd5b505b6001600160a01b03808416600090815260066020908152604080832047600190910155928d168252600781528282203383529052205488111561051257600080fd5b6001600160a01b03808b16600081815260066020818152604080842080548f9003905560078252808420338552825280842080548f90039055948e168084529181529184902080548d01905583518c8152935190937fddf252ad1be2c89b69c2b068fc378daa952ba7f163c4a11628f55a4df523b3ef92908290030190a35060019998505050505050505050565b601281565b6b033b2e3c9fd0803ce800000081565b60055460ff1690565b60006104066105cb610963565b8461061285600160006105dc610963565b6001600160a01b03908116825260208083019390935260409182016000908120918c16815292529020549063ffffffff61090216565b610967565b60006104068383610ac4565b6001600160a01b031660009081526020819052604090205490565b60048054604080516020601f60026000196101006001881615020190951694909404938401819004810282018101909252828152606093909290918301828280156103e85780601f106103bd576101008083540402835291602001916103e8565b604051806040016040528060098152602001682134b7102a37b5b2b760b91b81525081565b60006104066106d1610963565b8461061285604051806060016040528060258152602001610e0660259139600160006106fb610963565b6001600160a01b03908116825260208083019390935260409182016000908120918d1681529252902054919063ffffffff610bc016565b600033600061074082610a53565b9050818115610781576040516001600160a01b0382169083156108fc029084906000818181858888f1935050505015801561077f573d6000803e3d6000fd5b505b6001600160a01b03831660009081526006602052604081204760019091015586906107ab82610a53565b90508181156107ec576040516001600160a01b0382169083156108fc029084906000818181858888f193505050501580156107ea573d6000803e3d6000fd5b505b6001600160a01b03831660009081526006602052604080822047600190910155338252902054610822908963ffffffff610c5716565b33600090815260066020526040808220929092556001600160a01b038b1681522054610854908963ffffffff61090216565b6001600160a01b038a166000818152600660209081526040918290209390935580518b81529051919233927fddf252ad1be2c89b69c2b068fc378daa952ba7f163c4a11628f55a4df523b3ef9281900390910190a350600198975050505050505050565b6001600160a01b03918216600090815260016020908152604080832093909416825291909152205490565b604051806040016040528060038152602001622124a760e91b81525081565b60008282018381101561095c576040805162461bcd60e51b815260206004820152601b60248201527f536166654d6174683a206164646974696f6e206f766572666c6f770000000000604482015290519081900360640190fd5b9392505050565b3390565b6001600160a01b0383166109ac5760405162461bcd60e51b8152600401808060200182810382526024815260200180610de26024913960400191505060405180910390fd5b6001600160a01b0382166109f15760405162461bcd60e51b8152600401808060200182810382526022815260200180610d9f6022913960400191505060405180910390fd5b6001600160a01b03808416600081815260016020908152604080832094871680845294825291829020859055815185815291517f8c5be1e5ebec7d5bd14f71427d1e84f3dd0314c0f7b2291e5b200ac8c7c3b9259281900390910190a3505050565b6001600160a01b0381166000908152600660205260408120600101548190610a8290479063ffffffff610c5716565b905061095c610a8f610410565b6001600160a01b038516600090815260066020526040902054610ab8908463ffffffff610c9916565b9063ffffffff610cf216565b6001600160a01b038216610b1f576040805162461bcd60e51b815260206004820152601f60248201527f45524332303a206d696e7420746f20746865207a65726f206164647265737300604482015290519081900360640190fd5b610b2b60008383610d34565b600254610b3e908263ffffffff61090216565b6002556001600160a01b038216600090815260208190526040902054610b6a908263ffffffff61090216565b6001600160a01b0383166000818152602081815260408083209490945583518581529351929391927fddf252ad1be2c89b69c2b068fc378daa952ba7f163c4a11628f55a4df523b3ef9281900390910190a35050565b60008184841115610c4f5760405162461bcd60e51b81526004018080602001828103825283818151815260200191508051906020019080838360005b83811015610c14578181015183820152602001610bfc565b50505050905090810190601f168015610c415780820380516001836020036101000a031916815260200191505b509250505060405180910390fd5b505050900390565b600061095c83836040518060400160405280601e81526020017f536166654d6174683a207375627472616374696f6e206f766572666c6f770000815250610bc0565b600082610ca85750600061040a565b82820282848281610cb557fe5b041461095c5760405162461bcd60e51b8152600401808060200182810382526021815260200180610dc16021913960400191505060405180910390fd5b600061095c83836040518060400160405280601a81526020017f536166654d6174683a206469766973696f6e206279207a65726f000000000000815250610d39565b505050565b60008183610d885760405162461bcd60e51b8152602060048201818152835160248401528351909283926044909101919085019080838360008315610c14578181015183820152602001610bfc565b506000838581610d9457fe5b049594505050505056fe45524332303a20617070726f766520746f20746865207a65726f2061646472657373536166654d6174683a206d756c7469706c69636174696f6e206f766572666c6f7745524332303a20617070726f76652066726f6d20746865207a65726f206164647265737345524332303a2064656372656173656420616c6c6f77616e63652062656c6f77207a65726fa264697066735822122022b1d7bb0d46cb5cf68819abbabab9a7cc93737b098f1dac77829dbd4eed342864736f6c63430006080033536166654d6174683a206d756c7469706c69636174696f6e206f766572666c6f77",
  "immutableReferences": {},
  "source": "pragma solidity ^0.6.8;\nimport \"@openzeppelin/contracts/math/SafeMath.sol\";\nimport \"@openzeppelin/contracts/token/ERC20/IERC20.sol\";\nimport \"./BinToken.sol\";\n\n//SPDX-License-Identifier: UNLICENSED\ncontract BinaryBet {\n    using SafeMath for uint256;\n    // IERC20 private bin;\n\n    uint fee;\n\n    address payable owner;\n    mapping(uint => int) ethPrice;\n\n\n    // BinToken public token;\n    address payable tokenAddress;\n\n    enum BetSide {down, up} \n    enum BetResult {down, up, tie}\n\n    struct Pool {\n        uint startingTimestamp;\n        uint referenceTimestamp;\n        uint settlementTimestamp;\n\n        uint upValue;\n        uint downValue;\n    }\n\n    Pool firstWindow;\n    uint windowDuration; //in timestamp\n\n    mapping (uint => Pool) pools; //windowNumber => Pool\n\n \n\n    struct Stake {\n        uint upStake;\n        uint downStake;\n    }\n    \n\n\n    mapping (address => uint) balance;\n    mapping (address => mapping(uint => Stake)) userStake;\n    mapping (address => mapping(uint => bool)) userBetted;\n\n    mapping (address => uint[]) userWindows;\n    event newBet(uint value, uint8 side, address user, uint windowNumber);\n    event newDeposit(uint value, address user);\n    event newWithdraw(uint value, address user);\n    event betSettled(uint gain, uint windowNumber, address user);\n    \n    function deployToken() internal returns (address) {\n        BinToken token = new BinToken();\n        return address(token);\n        \n    }\n\n    \n    constructor(uint _firstWindowTimestamp, uint _windowDuration, uint _fee) public {\n        require(_fee <= 100);\n        //\n        //                  |-------------betting window-----------|--------------settlement period-----------|  \n        //         firstWindowTimestamp                      starting timestamp                         starting timestamp\n        //                                                         +                                          +            \n        //                                                     window size                               2*window size \n        //                                                         =                                          = \n        //                                                  referenceTimestamp                          settlementTimestamp\n\n        firstWindow = Pool(_firstWindowTimestamp, _firstWindowTimestamp.add(_windowDuration), _firstWindowTimestamp.add(_windowDuration.mul(2)), 0,0);\n        windowDuration = _windowDuration;\n        pools[0] = firstWindow;\n        \n        fee = _fee;\n        owner = msg.sender;\n\n        tokenAddress = payable(deployToken());\n    }\n\n\n\n    function deposit() payable external {\n        balance[msg.sender] = balance[msg.sender].add(msg.value);\n        emit newDeposit(msg.value, msg.sender);\n    }\n\n    function withdraw(uint value) external {\n        uint gain = updateBalance(msg.sender);\n        balance[msg.sender] = balance[msg.sender].add(gain);\n\n        require(value <= balance[msg.sender], \"not enough funds\");\n        balance[msg.sender] = balance[msg.sender].sub(value);\n        msg.sender.transfer(value);\n        \n        emit newWithdraw(value, msg.sender);\n\n    }\n    \n    function placeBet (uint betValue, uint8 side) payable external {\n        uint windowNumber = getTimestampWindow(block.number);\n\n        uint gain = updateBalance(msg.sender);\n        balance[msg.sender] = balance[msg.sender].add(gain);\n        require(!userBetted[msg.sender][windowNumber]); //First user bet on the window.\n        require(betValue <= balance[msg.sender].add(msg.value), \"not enough money to place this bet\");\n\n        //betValue <= balance + msg.value\n        //0 <= balance + msg.value - betValue\n        balance[msg.sender] = balance[msg.sender].add(msg.value).sub(betValue);\n        uint betFee = computeFee(betValue, fee); \n        \n        \n        //tokenAddress.transfer(betFee);\n\n        uint value = betValue.sub(betFee);\n        userWindows[msg.sender].push(windowNumber);\n\n        updatePool (windowNumber, value, uint8(side));\n        updateStake(msg.sender, uint8(side), windowNumber, value);\n        userBetted[msg.sender][windowNumber] = true;\n        emit newBet(value, side, msg.sender, windowNumber);\n    }       \n\n    function updateBalance(address user) public returns(uint){\n        uint totalGain = 0;\n        uint[] storage userWindowsList = userWindows[user];\n        if(userWindowsList.length == 0) {\n            return 0;\n        }\n        for (uint i = userWindowsList.length-1; i >= 0; i--) {\n            Pool memory pool = pools[userWindowsList[i]];\n            if(block.number < pool.settlementTimestamp) {\n                continue;\n            }\n\n            int referencePrice =  ethPrice[pool.referenceTimestamp];\n            int settlementPrice = ethPrice[pool.settlementTimestamp];\n            Stake storage stake = userStake[user][userWindowsList[i]];\n            uint8 result = betResult(referencePrice, settlementPrice);\n            uint windowGain = settleBet(stake.upStake, stake.downStake, pool.downValue, pool.upValue, result);\n\n            stake.downStake = 0;\n            stake.upStake = 0;\n            totalGain = totalGain.add(windowGain);\n            emit betSettled(windowGain, userWindowsList[i], user);\n\n            userWindowsList[i] = userWindowsList[userWindowsList.length -1];\n            userWindowsList.pop();\n        }\n        return totalGain;\n    }\n\n    function settleBet(uint upStake, uint downStake, uint poolUp, uint poolDown, uint8 betResult) public pure returns (uint) {\n        BetResult result = BetResult(betResult);\n        uint poolTotal = poolUp.add(poolDown);\n        uint gain = 0;\n        if (result == BetResult.up) {\n            gain = (upStake*poolTotal)/poolUp;\n        } \n        else if (result == BetResult.down) {\n            gain = (downStake*poolTotal)/poolDown;\n        }\n        else {\n            gain = upStake.add(downStake);\n        }\n        \n        return gain;\n    }\n\n   function betResult(int referencePrice, int settlementPrice) public pure returns(uint8){            \n        if(settlementPrice < referencePrice) {\n            return 0;\n        }   \n        else if(settlementPrice > referencePrice) {\n            return 1;\n        } \n        else {\n            return 2;\n        }\n    }\n \n    \n    //Internal but set as public for testing\n    function updateStake(address user, uint8 side, uint windowNumber, uint value) public{\n        BetSide betSide = BetSide(side);\n        if (betSide == BetSide.down) {\n            Stake storage stake = userStake[user][windowNumber]; \n            stake.downStake = stake.downStake.add(value); \n        }\n        if (betSide == BetSide.up) {\n            Stake storage stake = userStake[user][windowNumber]; \n            stake.upStake = stake.upStake.add(value);\n        }\n        \n    }\n\n    //Internal but set as public for testing\n    function updatePool (uint windowNumber, uint value, uint8 betSide) public {\n        uint startingTimestamp = getWindowStartingTimestamp(windowNumber);\n        if (pools[windowNumber].settlementTimestamp == 0) {\n            //\n            //                  |-------------betting window-----------|--------------settlement period-----------|  \n            //          starting timestamp                      starting timestamp                         starting timestamp\n            //                                                         +                                          +\n            //                                                     window size                               2*window size          \n            \n            pools[windowNumber].referenceTimestamp = startingTimestamp.add(windowDuration);\n            pools[windowNumber].settlementTimestamp = startingTimestamp.add(windowDuration.mul(2));\n             \n        }\n\n        BetSide side = BetSide(betSide);\n        if (side == BetSide.down) { //down\n              pools[windowNumber].downValue = pools[windowNumber].downValue.add(value);\n        }\n        \n        if (side == BetSide.up) {\n              pools[windowNumber].upValue = pools[windowNumber].upValue.add(value);\n        }\n        \n\n    }  \n\n    //Internal but set as public for testing\n    function getTimestampWindow (uint currentTimestamp) public view returns (uint windowNumber) {\n        //n = floor((beg block - first_block)/window_size  + 1)\n        windowNumber = ((currentTimestamp.sub(pools[0].startingTimestamp)).div(windowDuration)).add(1); //integer division => floor    \n    }\n\n    //Internal but set as public for testing\n    function getWindowStartingTimestamp (uint windowNumber) public view returns (uint startingTimestamp) {\n        //firstBlock + (n-1)*window_size\n        startingTimestamp =  pools[0].startingTimestamp.add((windowNumber.sub(1)).mul(windowDuration));\n    }\n\n    function computeFee(uint value, uint _fee) public pure returns (uint betFee) {\n        betFee = (value.mul(_fee)).div(100); \n\n    }\n\n\n    function getTimestampPrice(uint timestamp) internal returns (int){\n        if(ethPrice[timestamp] == 0) {\n            ethPrice[timestamp] = priceOracle(timestamp);\n        }\n        return ethPrice[timestamp];\n    }\n    \n    //TODO Implement price API\n    function priceOracle(uint timestamp) internal returns (int currentPrice){\n        return 100;\n    }\n\n    //Getters\n    function getPoolValues(uint windowNumber) public view returns (uint, uint, uint, uint) {\n        Pool memory pool = pools[windowNumber];\n        return (pool.settlementTimestamp, pool.downValue, pool.upValue, pool.referenceTimestamp);\n    }\n\n    function getUserStake(uint windowNumber, address user) public view returns (uint, uint) {\n        Stake  memory stake  = userStake[user][windowNumber];\n        return (stake.downStake, stake.upStake);\n    }\n    function getBalance(address user) public view returns(uint) {\n        return balance[user];\n    }\n    \n\n\n}\n\n",
  "sourcePath": "/Users/deyanmakedonski/projects/other/dev-betting/contracts/BinaryBet.sol",
  "compiler": {
    "name": "solc",
    "version": "0.6.8+commit.0bbfe453.Emscripten.clang"
  },
  "schemaVersion": "3.3.3",
  "updatedAt": "2021-02-11T14:10:31.067Z",
  "networkType": "ethereum",
  "devdoc": {
    "methods": {}
  },
  "userdoc": {
    "methods": {}
  }
}