{
  "contractName": "BinToken",
  "abi": [
    {
      "inputs": [],
      "stateMutability": "nonpayable",
      "type": "constructor"
    },
    {
      "anonymous": false,
      "inputs": [
        {
          "indexed": true,
          "internalType": "address",
          "name": "owner",
          "type": "address"
        },
        {
          "indexed": true,
          "internalType": "address",
          "name": "spender",
          "type": "address"
        },
        {
          "indexed": false,
          "internalType": "uint256",
          "name": "value",
          "type": "uint256"
        }
      ],
      "name": "Approval",
      "type": "event"
    },
    {
      "anonymous": false,
      "inputs": [
        {
          "indexed": true,
          "internalType": "address",
          "name": "from",
          "type": "address"
        },
        {
          "indexed": true,
          "internalType": "address",
          "name": "to",
          "type": "address"
        },
        {
          "indexed": false,
          "internalType": "uint256",
          "name": "value",
          "type": "uint256"
        }
      ],
      "name": "Transfer",
      "type": "event"
    },
    {
      "inputs": [],
      "name": "DECIMALS",
      "outputs": [
        {
          "internalType": "uint8",
          "name": "",
          "type": "uint8"
        }
      ],
      "stateMutability": "view",
      "type": "function"
    },
    {
      "inputs": [],
      "name": "INITIAL_SUPPLY",
      "outputs": [
        {
          "internalType": "uint256",
          "name": "",
          "type": "uint256"
        }
      ],
      "stateMutability": "view",
      "type": "function"
    },
    {
      "inputs": [],
      "name": "NAME",
      "outputs": [
        {
          "internalType": "string",
          "name": "",
          "type": "string"
        }
      ],
      "stateMutability": "view",
      "type": "function"
    },
    {
      "inputs": [],
      "name": "SYMBOL",
      "outputs": [
        {
          "internalType": "string",
          "name": "",
          "type": "string"
        }
      ],
      "stateMutability": "view",
      "type": "function"
    },
    {
      "inputs": [
        {
          "internalType": "address",
          "name": "owner",
          "type": "address"
        },
        {
          "internalType": "address",
          "name": "spender",
          "type": "address"
        }
      ],
      "name": "allowance",
      "outputs": [
        {
          "internalType": "uint256",
          "name": "",
          "type": "uint256"
        }
      ],
      "stateMutability": "view",
      "type": "function"
    },
    {
      "inputs": [
        {
          "internalType": "address",
          "name": "spender",
          "type": "address"
        },
        {
          "internalType": "uint256",
          "name": "amount",
          "type": "uint256"
        }
      ],
      "name": "approve",
      "outputs": [
        {
          "internalType": "bool",
          "name": "",
          "type": "bool"
        }
      ],
      "stateMutability": "nonpayable",
      "type": "function"
    },
    {
      "inputs": [
        {
          "internalType": "address",
          "name": "account",
          "type": "address"
        }
      ],
      "name": "balanceOf",
      "outputs": [
        {
          "internalType": "uint256",
          "name": "",
          "type": "uint256"
        }
      ],
      "stateMutability": "view",
      "type": "function"
    },
    {
      "inputs": [],
      "name": "decimals",
      "outputs": [
        {
          "internalType": "uint8",
          "name": "",
          "type": "uint8"
        }
      ],
      "stateMutability": "view",
      "type": "function"
    },
    {
      "inputs": [
        {
          "internalType": "address",
          "name": "spender",
          "type": "address"
        },
        {
          "internalType": "uint256",
          "name": "subtractedValue",
          "type": "uint256"
        }
      ],
      "name": "decreaseAllowance",
      "outputs": [
        {
          "internalType": "bool",
          "name": "",
          "type": "bool"
        }
      ],
      "stateMutability": "nonpayable",
      "type": "function"
    },
    {
      "inputs": [
        {
          "internalType": "address",
          "name": "spender",
          "type": "address"
        },
        {
          "internalType": "uint256",
          "name": "addedValue",
          "type": "uint256"
        }
      ],
      "name": "increaseAllowance",
      "outputs": [
        {
          "internalType": "bool",
          "name": "",
          "type": "bool"
        }
      ],
      "stateMutability": "nonpayable",
      "type": "function"
    },
    {
      "inputs": [],
      "name": "name",
      "outputs": [
        {
          "internalType": "string",
          "name": "",
          "type": "string"
        }
      ],
      "stateMutability": "view",
      "type": "function"
    },
    {
      "inputs": [],
      "name": "symbol",
      "outputs": [
        {
          "internalType": "string",
          "name": "",
          "type": "string"
        }
      ],
      "stateMutability": "view",
      "type": "function"
    },
    {
      "inputs": [],
      "name": "totalSupply",
      "outputs": [
        {
          "internalType": "uint256",
          "name": "",
          "type": "uint256"
        }
      ],
      "stateMutability": "view",
      "type": "function"
    },
    {
      "inputs": [
        {
          "internalType": "address",
          "name": "account",
          "type": "address"
        },
        {
          "internalType": "uint256",
          "name": "amount",
          "type": "uint256"
        }
      ],
      "name": "mint",
      "outputs": [
        {
          "internalType": "bool",
          "name": "",
          "type": "bool"
        }
      ],
      "stateMutability": "nonpayable",
      "type": "function"
    },
    {
      "inputs": [
        {
          "internalType": "address",
          "name": "to",
          "type": "address"
        },
        {
          "internalType": "uint256",
          "name": "tokens",
          "type": "uint256"
        }
      ],
      "name": "transfer",
      "outputs": [
        {
          "internalType": "bool",
          "name": "success",
          "type": "bool"
        }
      ],
      "stateMutability": "nonpayable",
      "type": "function"
    },
    {
      "inputs": [
        {
          "internalType": "address",
          "name": "from",
          "type": "address"
        },
        {
          "internalType": "address",
          "name": "to",
          "type": "address"
        },
        {
          "internalType": "uint256",
          "name": "tokens",
          "type": "uint256"
        }
      ],
      "name": "transferFrom",
      "outputs": [
        {
          "internalType": "bool",
          "name": "success",
          "type": "bool"
        }
      ],
      "stateMutability": "nonpayable",
      "type": "function"
    }
  ],
  "bytecode": "0x60806040523480156200001157600080fd5b50604051806040016040528060098152602001682134b7102a37b5b2b760b91b815250604051806040016040528060038152602001622124a760e91b81525081600390805190602001906200006892919062000234565b5080516200007e90600490602084019062000234565b50506005805460ff1916601217905550620000af336b033b2e3c9fd0803ce80000006001600160e01b03620000b516565b620002d9565b6001600160a01b03821662000111576040805162461bcd60e51b815260206004820152601f60248201527f45524332303a206d696e7420746f20746865207a65726f206164647265737300604482015290519081900360640190fd5b62000128600083836001600160e01b03620001cd16565b6200014481600254620001d260201b620009021790919060201c565b6002556001600160a01b038216600090815260208181526040909120546200017791839062000902620001d2821b17901c565b6001600160a01b0383166000818152602081815260408083209490945583518581529351929391927fddf252ad1be2c89b69c2b068fc378daa952ba7f163c4a11628f55a4df523b3ef9281900390910190a35050565b505050565b6000828201838110156200022d576040805162461bcd60e51b815260206004820152601b60248201527f536166654d6174683a206164646974696f6e206f766572666c6f770000000000604482015290519081900360640190fd5b9392505050565b828054600181600116156101000203166002900490600052602060002090601f016020900481019282601f106200027757805160ff1916838001178555620002a7565b82800160010185558215620002a7579182015b82811115620002a75782518255916020019190600101906200028a565b50620002b5929150620002b9565b5090565b620002d691905b80821115620002b55760008155600101620002c0565b90565b610e6080620002e96000396000f3fe608060405234801561001057600080fd5b50600436106101005760003560e01c806340c10f1911610097578063a457c2d711610066578063a457c2d7146102ce578063a9059cbb146102fa578063dd62ed3e14610326578063f76f8d781461035457610100565b806340c10f191461026c57806370a082311461029857806395d89b41146102be578063a3f4df7e146102c657610100565b80632e0f2625116100d35780632e0f2625146102125780632ff2e9dc14610230578063313ce56714610238578063395093511461024057610100565b806306fdde0314610105578063095ea7b31461018257806318160ddd146101c257806323b872dd146101dc575b600080fd5b61010d61035c565b6040805160208082528351818301528351919283929083019185019080838360005b8381101561014757818101518382015260200161012f565b50505050905090810190601f1680156101745780820380516001836020036101000a031916815260200191505b509250505060405180910390f35b6101ae6004803603604081101561019857600080fd5b506001600160a01b0381351690602001356103f2565b604080519115158252519081900360200190f35b6101ca610410565b60408051918252519081900360200190f35b6101ae600480360360608110156101f257600080fd5b506001600160a01b03813581169160208101359091169060400135610416565b61021a6105a0565b6040805160ff9092168252519081900360200190f35b6101ca6105a5565b61021a6105b5565b6101ae6004803603604081101561025657600080fd5b506001600160a01b0381351690602001356105be565b6101ae6004803603604081101561028257600080fd5b506001600160a01b038135169060200135610617565b6101ca600480360360208110156102ae57600080fd5b50356001600160a01b0316610623565b61010d61063e565b61010d61069f565b6101ae600480360360408110156102e457600080fd5b506001600160a01b0381351690602001356106c4565b6101ae6004803603604081101561031057600080fd5b506001600160a01b038135169060200135610732565b6101ca6004803603604081101561033c57600080fd5b506001600160a01b03813581169160200135166108b8565b61010d6108e3565b60038054604080516020601f60026000196101006001881615020190951694909404938401819004810282018101909252828152606093909290918301828280156103e85780601f106103bd576101008083540402835291602001916103e8565b820191906000526020600020905b8154815290600101906020018083116103cb57829003601f168201915b5050505050905090565b60006104066103ff610963565b8484610967565b5060015b92915050565b60025490565b600083600061042482610a53565b9050818115610465576040516001600160a01b0382169083156108fc029084906000818181858888f19350505050158015610463573d6000803e3d6000fd5b505b6001600160a01b038316600090815260066020526040812047600190910155869061048f82610a53565b90508181156104d0576040516001600160a01b0382169083156108fc029084906000818181858888f193505050501580156104ce573d6000803e3d6000fd5b505b6001600160a01b03808416600090815260066020908152604080832047600190910155928d168252600781528282203383529052205488111561051257600080fd5b6001600160a01b03808b16600081815260066020818152604080842080548f9003905560078252808420338552825280842080548f90039055948e168084529181529184902080548d01905583518c8152935190937fddf252ad1be2c89b69c2b068fc378daa952ba7f163c4a11628f55a4df523b3ef92908290030190a35060019998505050505050505050565b601281565b6b033b2e3c9fd0803ce800000081565b60055460ff1690565b60006104066105cb610963565b8461061285600160006105dc610963565b6001600160a01b03908116825260208083019390935260409182016000908120918c16815292529020549063ffffffff61090216565b610967565b60006104068383610ac4565b6001600160a01b031660009081526020819052604090205490565b60048054604080516020601f60026000196101006001881615020190951694909404938401819004810282018101909252828152606093909290918301828280156103e85780601f106103bd576101008083540402835291602001916103e8565b604051806040016040528060098152602001682134b7102a37b5b2b760b91b81525081565b60006104066106d1610963565b8461061285604051806060016040528060258152602001610e0660259139600160006106fb610963565b6001600160a01b03908116825260208083019390935260409182016000908120918d1681529252902054919063ffffffff610bc016565b600033600061074082610a53565b9050818115610781576040516001600160a01b0382169083156108fc029084906000818181858888f1935050505015801561077f573d6000803e3d6000fd5b505b6001600160a01b03831660009081526006602052604081204760019091015586906107ab82610a53565b90508181156107ec576040516001600160a01b0382169083156108fc029084906000818181858888f193505050501580156107ea573d6000803e3d6000fd5b505b6001600160a01b03831660009081526006602052604080822047600190910155338252902054610822908963ffffffff610c5716565b33600090815260066020526040808220929092556001600160a01b038b1681522054610854908963ffffffff61090216565b6001600160a01b038a166000818152600660209081526040918290209390935580518b81529051919233927fddf252ad1be2c89b69c2b068fc378daa952ba7f163c4a11628f55a4df523b3ef9281900390910190a350600198975050505050505050565b6001600160a01b03918216600090815260016020908152604080832093909416825291909152205490565b604051806040016040528060038152602001622124a760e91b81525081565b60008282018381101561095c576040805162461bcd60e51b815260206004820152601b60248201527f536166654d6174683a206164646974696f6e206f766572666c6f770000000000604482015290519081900360640190fd5b9392505050565b3390565b6001600160a01b0383166109ac5760405162461bcd60e51b8152600401808060200182810382526024815260200180610de26024913960400191505060405180910390fd5b6001600160a01b0382166109f15760405162461bcd60e51b8152600401808060200182810382526022815260200180610d9f6022913960400191505060405180910390fd5b6001600160a01b03808416600081815260016020908152604080832094871680845294825291829020859055815185815291517f8c5be1e5ebec7d5bd14f71427d1e84f3dd0314c0f7b2291e5b200ac8c7c3b9259281900390910190a3505050565b6001600160a01b0381166000908152600660205260408120600101548190610a8290479063ffffffff610c5716565b905061095c610a8f610410565b6001600160a01b038516600090815260066020526040902054610ab8908463ffffffff610c9916565b9063ffffffff610cf216565b6001600160a01b038216610b1f576040805162461bcd60e51b815260206004820152601f60248201527f45524332303a206d696e7420746f20746865207a65726f206164647265737300604482015290519081900360640190fd5b610b2b60008383610d34565b600254610b3e908263ffffffff61090216565b6002556001600160a01b038216600090815260208190526040902054610b6a908263ffffffff61090216565b6001600160a01b0383166000818152602081815260408083209490945583518581529351929391927fddf252ad1be2c89b69c2b068fc378daa952ba7f163c4a11628f55a4df523b3ef9281900390910190a35050565b60008184841115610c4f5760405162461bcd60e51b81526004018080602001828103825283818151815260200191508051906020019080838360005b83811015610c14578181015183820152602001610bfc565b50505050905090810190601f168015610c415780820380516001836020036101000a031916815260200191505b509250505060405180910390fd5b505050900390565b600061095c83836040518060400160405280601e81526020017f536166654d6174683a207375627472616374696f6e206f766572666c6f770000815250610bc0565b600082610ca85750600061040a565b82820282848281610cb557fe5b041461095c5760405162461bcd60e51b8152600401808060200182810382526021815260200180610dc16021913960400191505060405180910390fd5b600061095c83836040518060400160405280601a81526020017f536166654d6174683a206469766973696f6e206279207a65726f000000000000815250610d39565b505050565b60008183610d885760405162461bcd60e51b8152602060048201818152835160248401528351909283926044909101919085019080838360008315610c14578181015183820152602001610bfc565b506000838581610d9457fe5b049594505050505056fe45524332303a20617070726f766520746f20746865207a65726f2061646472657373536166654d6174683a206d756c7469706c69636174696f6e206f766572666c6f7745524332303a20617070726f76652066726f6d20746865207a65726f206164647265737345524332303a2064656372656173656420616c6c6f77616e63652062656c6f77207a65726fa264697066735822122022b1d7bb0d46cb5cf68819abbabab9a7cc93737b098f1dac77829dbd4eed342864736f6c63430006080033",
  "immutableReferences": {},
  "source": "pragma solidity ^0.6.8;\n\nimport \"@openzeppelin/contracts/token/ERC20/ERC20.sol\";\nimport \"@openzeppelin/contracts/math/SafeMath.sol\";\n\ncontract BinToken is ERC20{\n    using SafeMath for uint256;\n\n    string public constant NAME = \"Bin Token\";\n    string public constant SYMBOL = \"BIN\";\n    uint8 public constant DECIMALS = 18;\n    uint256 public constant INITIAL_SUPPLY = 1000000000 * (10 ** uint256(DECIMALS));\n\n    struct Account {\n        uint balance;\n\t    uint lastDividends;\n    }\n\n    mapping(address => Account) accounts;\n    mapping (address => mapping(address => uint)) allowed;\n\n\n\n\n\n    modifier updateAccount(address account) {\n        uint dividends = ownedDividends(account);\n        address payable _to = payable(account);\n\t    if(dividends > 0) {\n            _to.transfer(dividends);\n\t    }\n        accounts[account].lastDividends = address(this).balance;\n\t    _;\n    }\n\n    constructor()\n        ERC20(NAME, SYMBOL) public\n    {\n        _mint(msg.sender, INITIAL_SUPPLY);\n    }\n   \n    function ownedDividends(address account) internal view returns (uint) {\n       uint newDividends = address(this).balance.sub(accounts[account].lastDividends);\n       return (accounts[account].balance.mul(newDividends)).div(totalSupply());\n    }\n\n    function mint(address account, uint256 amount) public returns (bool) {\n        _mint(account, amount);\n        return true;\n    }\n\n     function transfer(address to, uint tokens) public override updateAccount(msg.sender) updateAccount(to) returns (bool success) {\n        accounts[msg.sender].balance = accounts[msg.sender].balance.sub(tokens);\n\t    accounts[to].balance = accounts[to].balance.add(tokens);\n\t    Transfer(msg.sender, to, tokens);\n\t    success = true;\n    }\n\n    function transferFrom(address from, address to, uint tokens) public override updateAccount(from) updateAccount(to) returns (bool success) {\n        require(allowed[from][msg.sender] >= tokens);\n        accounts[from].balance = accounts[from].balance - tokens;\n  \t    allowed[from][msg.sender] = allowed[from][msg.sender] - tokens;\n  \t    accounts[to].balance = accounts[to].balance + tokens;\n  \t    Transfer(from, to, tokens);\n  \t    success = true;\n    }\n\n\n\n\n\n\n\n\n}\n",
  "sourcePath": "/Users/deyanmakedonski/projects/other/dev-betting/contracts/BinToken.sol",
  "compiler": {
    "name": "solc",
    "version": "0.6.8+commit.0bbfe453.Emscripten.clang"
  },
  "schemaVersion": "3.3.3",
  "updatedAt": "2021-01-26T07:05:14.117Z",
  "devdoc": {
    "methods": {
      "allowance(address,address)": {
        "details": "See {IERC20-allowance}."
      },
      "approve(address,uint256)": {
        "details": "See {IERC20-approve}.     * Requirements:     * - `spender` cannot be the zero address."
      },
      "balanceOf(address)": {
        "details": "See {IERC20-balanceOf}."
      },
      "decimals()": {
        "details": "Returns the number of decimals used to get its user representation. For example, if `decimals` equals `2`, a balance of `505` tokens should be displayed to a user as `5,05` (`505 / 10 ** 2`).     * Tokens usually opt for a value of 18, imitating the relationship between Ether and Wei. This is the value {ERC20} uses, unless {_setupDecimals} is called.     * NOTE: This information is only used for _display_ purposes: it in no way affects any of the arithmetic of the contract, including {IERC20-balanceOf} and {IERC20-transfer}."
      },
      "decreaseAllowance(address,uint256)": {
        "details": "Atomically decreases the allowance granted to `spender` by the caller.     * This is an alternative to {approve} that can be used as a mitigation for problems described in {IERC20-approve}.     * Emits an {Approval} event indicating the updated allowance.     * Requirements:     * - `spender` cannot be the zero address. - `spender` must have allowance for the caller of at least `subtractedValue`."
      },
      "increaseAllowance(address,uint256)": {
        "details": "Atomically increases the allowance granted to `spender` by the caller.     * This is an alternative to {approve} that can be used as a mitigation for problems described in {IERC20-approve}.     * Emits an {Approval} event indicating the updated allowance.     * Requirements:     * - `spender` cannot be the zero address."
      },
      "name()": {
        "details": "Returns the name of the token."
      },
      "symbol()": {
        "details": "Returns the symbol of the token, usually a shorter version of the name."
      },
      "totalSupply()": {
        "details": "See {IERC20-totalSupply}."
      }
    }
  },
  "userdoc": {
    "methods": {}
  }
}