{
  "contractName": "BinaryBet",
  "abi": [
    {
      "inputs": [
        {
          "internalType": "uint256",
          "name": "_windowDuration",
          "type": "uint256"
        },
        {
          "internalType": "uint256",
          "name": "_fee",
          "type": "uint256"
        }
      ],
      "stateMutability": "nonpayable",
      "type": "constructor"
    },
    {
      "anonymous": false,
      "inputs": [
        {
          "indexed": true,
          "internalType": "uint256",
          "name": "windowNumber",
          "type": "uint256"
        },
        {
          "indexed": true,
          "internalType": "address",
          "name": "user",
          "type": "address"
        },
        {
          "indexed": false,
          "internalType": "uint256",
          "name": "gain",
          "type": "uint256"
        }
      ],
      "name": "betSettled",
      "type": "event"
    },
    {
      "anonymous": false,
      "inputs": [
        {
          "indexed": true,
          "internalType": "address",
          "name": "user",
          "type": "address"
        },
        {
          "indexed": true,
          "internalType": "uint256",
          "name": "windowNumber",
          "type": "uint256"
        },
        {
          "indexed": false,
          "internalType": "uint256",
          "name": "value",
          "type": "uint256"
        },
        {
          "indexed": false,
          "internalType": "uint8",
          "name": "side",
          "type": "uint8"
        }
      ],
      "name": "newBet",
      "type": "event"
    },
    {
      "anonymous": false,
      "inputs": [
        {
          "indexed": true,
          "internalType": "address",
          "name": "user",
          "type": "address"
        },
        {
          "indexed": false,
          "internalType": "uint256",
          "name": "value",
          "type": "uint256"
        }
      ],
      "name": "newDeposit",
      "type": "event"
    },
    {
      "anonymous": false,
      "inputs": [
        {
          "indexed": true,
          "internalType": "address",
          "name": "user",
          "type": "address"
        },
        {
          "indexed": false,
          "internalType": "uint256",
          "name": "value",
          "type": "uint256"
        }
      ],
      "name": "newWithdraw",
      "type": "event"
    },
    {
      "anonymous": false,
      "inputs": [
        {
          "indexed": true,
          "internalType": "uint256",
          "name": "windowNumber",
          "type": "uint256"
        },
        {
          "indexed": false,
          "internalType": "uint256",
          "name": "price",
          "type": "uint256"
        }
      ],
      "name": "priceUpdated",
      "type": "event"
    },
    {
      "inputs": [],
      "name": "accumulatedFees",
      "outputs": [
        {
          "internalType": "uint256",
          "name": "",
          "type": "uint256"
        }
      ],
      "stateMutability": "view",
      "type": "function"
    },
    {
      "inputs": [
        {
          "internalType": "address",
          "name": "",
          "type": "address"
        }
      ],
      "name": "balance",
      "outputs": [
        {
          "internalType": "uint256",
          "name": "",
          "type": "uint256"
        }
      ],
      "stateMutability": "view",
      "type": "function"
    },
    {
      "inputs": [],
      "name": "fee",
      "outputs": [
        {
          "internalType": "uint256",
          "name": "",
          "type": "uint256"
        }
      ],
      "stateMutability": "view",
      "type": "function"
    },
    {
      "inputs": [],
      "name": "firstBlock",
      "outputs": [
        {
          "internalType": "uint256",
          "name": "",
          "type": "uint256"
        }
      ],
      "stateMutability": "view",
      "type": "function"
    },
    {
      "inputs": [],
      "name": "firstWindow",
      "outputs": [
        {
          "internalType": "uint256",
          "name": "",
          "type": "uint256"
        }
      ],
      "stateMutability": "view",
      "type": "function"
    },
    {
      "inputs": [
        {
          "internalType": "uint256",
          "name": "",
          "type": "uint256"
        }
      ],
      "name": "pools",
      "outputs": [
        {
          "internalType": "uint256",
          "name": "downValue",
          "type": "uint256"
        },
        {
          "internalType": "uint256",
          "name": "upValue",
          "type": "uint256"
        }
      ],
      "stateMutability": "view",
      "type": "function"
    },
    {
      "inputs": [
        {
          "internalType": "address",
          "name": "",
          "type": "address"
        },
        {
          "internalType": "uint256",
          "name": "",
          "type": "uint256"
        }
      ],
      "name": "userBets",
      "outputs": [
        {
          "internalType": "uint256",
          "name": "",
          "type": "uint256"
        }
      ],
      "stateMutability": "view",
      "type": "function"
    },
    {
      "inputs": [
        {
          "internalType": "address",
          "name": "",
          "type": "address"
        },
        {
          "internalType": "uint256",
          "name": "",
          "type": "uint256"
        }
      ],
      "name": "userStake",
      "outputs": [
        {
          "internalType": "uint256",
          "name": "downValue",
          "type": "uint256"
        },
        {
          "internalType": "uint256",
          "name": "upValue",
          "type": "uint256"
        }
      ],
      "stateMutability": "view",
      "type": "function"
    },
    {
      "inputs": [],
      "name": "windowDuration",
      "outputs": [
        {
          "internalType": "uint256",
          "name": "",
          "type": "uint256"
        }
      ],
      "stateMutability": "view",
      "type": "function"
    },
    {
      "inputs": [],
      "name": "windowOffset",
      "outputs": [
        {
          "internalType": "uint256",
          "name": "",
          "type": "uint256"
        }
      ],
      "stateMutability": "view",
      "type": "function"
    },
    {
      "inputs": [
        {
          "internalType": "uint256",
          "name": "",
          "type": "uint256"
        }
      ],
      "name": "windowPrice",
      "outputs": [
        {
          "internalType": "uint256",
          "name": "",
          "type": "uint256"
        }
      ],
      "stateMutability": "view",
      "type": "function"
    },
    {
      "inputs": [
        {
          "internalType": "address",
          "name": "newGovernance",
          "type": "address"
        }
      ],
      "name": "changeGovernance",
      "outputs": [],
      "stateMutability": "nonpayable",
      "type": "function"
    },
    {
      "inputs": [
        {
          "internalType": "uint256",
          "name": "windowSize",
          "type": "uint256"
        }
      ],
      "name": "changeWindowSize",
      "outputs": [],
      "stateMutability": "nonpayable",
      "type": "function"
    },
    {
      "inputs": [
        {
          "internalType": "address",
          "name": "stakingContract",
          "type": "address"
        }
      ],
      "name": "setStakingAddress",
      "outputs": [],
      "stateMutability": "nonpayable",
      "type": "function"
    },
    {
      "inputs": [],
      "name": "deposit",
      "outputs": [],
      "stateMutability": "payable",
      "type": "function"
    },
    {
      "inputs": [
        {
          "internalType": "uint256",
          "name": "value",
          "type": "uint256"
        }
      ],
      "name": "withdraw",
      "outputs": [],
      "stateMutability": "nonpayable",
      "type": "function"
    },
    {
      "inputs": [
        {
          "internalType": "uint256",
          "name": "betValue",
          "type": "uint256"
        },
        {
          "internalType": "uint8",
          "name": "side",
          "type": "uint8"
        }
      ],
      "name": "placeBet",
      "outputs": [],
      "stateMutability": "payable",
      "type": "function"
    },
    {
      "inputs": [
        {
          "internalType": "address",
          "name": "user",
          "type": "address"
        }
      ],
      "name": "updateBalance",
      "outputs": [],
      "stateMutability": "nonpayable",
      "type": "function"
    },
    {
      "inputs": [
        {
          "internalType": "uint256",
          "name": "upStake",
          "type": "uint256"
        },
        {
          "internalType": "uint256",
          "name": "downStake",
          "type": "uint256"
        },
        {
          "internalType": "uint256",
          "name": "poolUp",
          "type": "uint256"
        },
        {
          "internalType": "uint256",
          "name": "poolDown",
          "type": "uint256"
        },
        {
          "internalType": "uint8",
          "name": "betResult",
          "type": "uint8"
        }
      ],
      "name": "settleBet",
      "outputs": [
        {
          "internalType": "uint256",
          "name": "gain",
          "type": "uint256"
        },
        {
          "internalType": "uint256",
          "name": "fees",
          "type": "uint256"
        }
      ],
      "stateMutability": "pure",
      "type": "function"
    },
    {
      "inputs": [
        {
          "internalType": "uint256",
          "name": "referencePrice",
          "type": "uint256"
        },
        {
          "internalType": "uint256",
          "name": "settlementPrice",
          "type": "uint256"
        }
      ],
      "name": "betResult",
      "outputs": [
        {
          "internalType": "uint8",
          "name": "",
          "type": "uint8"
        }
      ],
      "stateMutability": "pure",
      "type": "function"
    },
    {
      "inputs": [
        {
          "internalType": "uint256",
          "name": "downValue",
          "type": "uint256"
        },
        {
          "internalType": "uint256",
          "name": "upValue",
          "type": "uint256"
        },
        {
          "internalType": "uint8",
          "name": "side",
          "type": "uint8"
        },
        {
          "internalType": "uint256",
          "name": "value",
          "type": "uint256"
        }
      ],
      "name": "updatePool",
      "outputs": [
        {
          "internalType": "uint256",
          "name": "",
          "type": "uint256"
        },
        {
          "internalType": "uint256",
          "name": "",
          "type": "uint256"
        }
      ],
      "stateMutability": "pure",
      "type": "function"
    },
    {
      "inputs": [
        {
          "internalType": "uint256",
          "name": "currentBlock",
          "type": "uint256"
        },
        {
          "internalType": "uint256",
          "name": "_windowDuration",
          "type": "uint256"
        },
        {
          "internalType": "uint256",
          "name": "_firstBlock",
          "type": "uint256"
        },
        {
          "internalType": "uint256",
          "name": "_windowOffset",
          "type": "uint256"
        },
        {
          "internalType": "uint256",
          "name": "_firstWindow",
          "type": "uint256"
        }
      ],
      "name": "getWindowNumber",
      "outputs": [
        {
          "internalType": "uint256",
          "name": "windowNumber",
          "type": "uint256"
        }
      ],
      "stateMutability": "pure",
      "type": "function"
    },
    {
      "inputs": [
        {
          "internalType": "uint256",
          "name": "windowNumber",
          "type": "uint256"
        },
        {
          "internalType": "uint256",
          "name": "_windowDuration",
          "type": "uint256"
        },
        {
          "internalType": "uint256",
          "name": "_firstBlock",
          "type": "uint256"
        },
        {
          "internalType": "uint256",
          "name": "_windowOffset",
          "type": "uint256"
        }
      ],
      "name": "getWindowStartingBlock",
      "outputs": [
        {
          "internalType": "uint256",
          "name": "startingBlock",
          "type": "uint256"
        }
      ],
      "stateMutability": "pure",
      "type": "function"
    },
    {
      "inputs": [
        {
          "internalType": "uint256",
          "name": "value",
          "type": "uint256"
        },
        {
          "internalType": "uint256",
          "name": "_fee",
          "type": "uint256"
        }
      ],
      "name": "computeFee",
      "outputs": [
        {
          "internalType": "uint256",
          "name": "betFee",
          "type": "uint256"
        }
      ],
      "stateMutability": "pure",
      "type": "function"
    },
    {
      "inputs": [],
      "name": "updatePrice",
      "outputs": [],
      "stateMutability": "nonpayable",
      "type": "function"
    },
    {
      "inputs": [
        {
          "internalType": "uint256",
          "name": "windowNumber",
          "type": "uint256"
        }
      ],
      "name": "getPoolValues",
      "outputs": [
        {
          "internalType": "uint256",
          "name": "",
          "type": "uint256"
        },
        {
          "internalType": "uint256",
          "name": "",
          "type": "uint256"
        }
      ],
      "stateMutability": "view",
      "type": "function"
    },
    {
      "inputs": [
        {
          "internalType": "uint256",
          "name": "windowNumber",
          "type": "uint256"
        },
        {
          "internalType": "address",
          "name": "user",
          "type": "address"
        }
      ],
      "name": "getUserStake",
      "outputs": [
        {
          "internalType": "uint256",
          "name": "",
          "type": "uint256"
        },
        {
          "internalType": "uint256",
          "name": "",
          "type": "uint256"
        }
      ],
      "stateMutability": "view",
      "type": "function"
    },
    {
      "inputs": [
        {
          "internalType": "address",
          "name": "user",
          "type": "address"
        }
      ],
      "name": "getBalance",
      "outputs": [
        {
          "internalType": "uint256",
          "name": "",
          "type": "uint256"
        }
      ],
      "stateMutability": "view",
      "type": "function"
    },
    {
      "inputs": [
        {
          "internalType": "uint256",
          "name": "window",
          "type": "uint256"
        }
      ],
      "name": "getWindowBetPrices",
      "outputs": [
        {
          "internalType": "uint256",
          "name": "",
          "type": "uint256"
        },
        {
          "internalType": "uint256",
          "name": "",
          "type": "uint256"
        }
      ],
      "stateMutability": "view",
      "type": "function"
    }
  ],
  "bytecode": "0x608060405260016009553480156200001657600080fd5b50604051620029dd380380620029dd83398181016040528101906200003c91906200011c565b60648111156200004b57600080fd5b73da7a001b254cd22e46d3eab04d937489c93174c36000806101000a81548173ffffffffffffffffffffffffffffffffffffffff021916908373ffffffffffffffffffffffffffffffffffffffff16021790555043600481905550816003819055508060028190555033600160006101000a81548173ffffffffffffffffffffffffffffffffffffffff021916908373ffffffffffffffffffffffffffffffffffffffff1602179055506001600981905550505062000181565b600081519050620001168162000167565b92915050565b600080604083850312156200013057600080fd5b6000620001408582860162000105565b9250506020620001538582860162000105565b9150509250929050565b6000819050919050565b62000172816200015d565b81146200017e57600080fd5b50565b61284c80620001916000396000f3fe6080604052600436106101c25760003560e01c806380962668116100f7578063ddca3f4311610095578063f4e0d9ac11610064578063f4e0d9ac146106a0578063f52818f0146106c9578063f83b35fb146106f2578063f8b2cb4f14610730576101c2565b8063ddca3f43146105d0578063e0a5cee3146105fb578063e0d65d8714610626578063e3d670d714610663576101c2565b806399572d6f116100d157806399572d6f14610521578063ac4afa381461054a578063ca055e5314610588578063d0e30db0146105c6576101c2565b8063809626681461047b578063849cd1c7146104a65780639626a230146104e3576101c2565b80633937ea4f11610164578063587f5ed71161013e578063587f5ed7146103d15780635c11ff7a146103fc578063673a7e28146104275780638068aa681461043e576101c2565b80633937ea4f1461032d57806340b8405a1461036b578063576fe42f14610394576101c2565b80631bb5abf9116101a05780631bb5abf91461025f578063231b02681461029c5780632e1a7d4d146102c75780632ff284c2146102f0576101c2565b806303edf914146101c75780630ed6ca29146101e35780630eff4d8814610221575b600080fd5b6101e160048036038101906101dc91906121d3565b61076d565b005b3480156101ef57600080fd5b5061020a60048036038101906102059190612170565b610b7d565b60405161021892919061268e565b60405180910390f35b34801561022d57600080fd5b5061024860048036038101906102439190611f7e565b610c17565b60405161025692919061268e565b60405180910390f35b34801561026b57600080fd5b5061028660048036038101906102819190611fe3565b610c6a565b60405161029391906126e0565b60405180910390f35b3480156102a857600080fd5b506102b1610c99565b6040516102be9190612673565b60405180910390f35b3480156102d357600080fd5b506102ee60048036038101906102e99190611f7e565b610c9f565b005b3480156102fc57600080fd5b5061031760048036038101906103129190611fe3565b610e5f565b6040516103249190612673565b60405180910390f35b34801561033957600080fd5b50610354600480360381019061034f9190611f19565b610e8f565b60405161036292919061268e565b60405180910390f35b34801561037757600080fd5b50610392600480360381019061038d9190611ef0565b610ec0565b005b3480156103a057600080fd5b506103bb60048036038101906103b69190612082565b6112b2565b6040516103c89190612673565b60405180910390f35b3480156103dd57600080fd5b506103e661131a565b6040516103f39190612673565b60405180910390f35b34801561040857600080fd5b50610411611320565b60405161041e9190612673565b60405180910390f35b34801561043357600080fd5b5061043c611326565b005b34801561044a57600080fd5b5061046560048036038101906104609190611f19565b6113c9565b6040516104729190612673565b60405180910390f35b34801561048757600080fd5b506104906113f7565b60405161049d9190612673565b60405180910390f35b3480156104b257600080fd5b506104cd60048036038101906104c8919061201f565b6113fd565b6040516104da9190612673565b60405180910390f35b3480156104ef57600080fd5b5061050a60048036038101906105059190611fa7565b611453565b60405161051892919061268e565b60405180910390f35b34801561052d57600080fd5b5061054860048036038101906105439190611ef0565b6114e5565b005b34801561055657600080fd5b50610571600480360381019061056c9190611f7e565b6115b9565b60405161057f92919061268e565b60405180910390f35b34801561059457600080fd5b506105af60048036038101906105aa91906120f9565b6115dd565b6040516105bd92919061268e565b60405180910390f35b6105ce61171a565b005b3480156105dc57600080fd5b506105e5611807565b6040516105f29190612673565b60405180910390f35b34801561060757600080fd5b5061061061180d565b60405161061d9190612673565b60405180910390f35b34801561063257600080fd5b5061064d60048036038101906106489190611f7e565b611813565b60405161065a9190612673565b60405180910390f35b34801561066f57600080fd5b5061068a60048036038101906106859190611ef0565b61182b565b6040516106979190612673565b60405180910390f35b3480156106ac57600080fd5b506106c760048036038101906106c29190611ef0565b611843565b005b3480156106d557600080fd5b506106f060048036038101906106eb9190611f7e565b61197b565b005b3480156106fe57600080fd5b5061071960048036038101906107149190611f7e565b611aab565b60405161072792919061268e565b60405180910390f35b34801561073c57600080fd5b5061075760048036038101906107529190611ef0565b611ae5565b6040516107649190612673565b60405180910390f35b610775611326565b61077e33610ec0565b6107d034600c60003373ffffffffffffffffffffffffffffffffffffffff1673ffffffffffffffffffffffffffffffffffffffff16815260200190815260200160002054611b2e90919063ffffffff16565b821115610812576040517f08c379a0000000000000000000000000000000000000000000000000000000008152600401610809906125f3565b60405180910390fd5b6108768261086834600c60003373ffffffffffffffffffffffffffffffffffffffff1673ffffffffffffffffffffffffffffffffffffffff16815260200190815260200160002054611b2e90919063ffffffff16565b611b8390919063ffffffff16565b600c60003373ffffffffffffffffffffffffffffffffffffffff1673ffffffffffffffffffffffffffffffffffffffff1681526020019081526020016000208190555060006108c783600254610e5f565b90506108de81600b54611b2e90919063ffffffff16565b600b8190555060006108f98285611b8390919063ffffffff16565b9050600061091243600354600454600a546009546112b2565b9050600e60003373ffffffffffffffffffffffffffffffffffffffff1673ffffffffffffffffffffffffffffffffffffffff168152602001908152602001600020819080600181540180825580915050600190039060005260206000200160009091909190915055610982611e01565b600760008381526020019081526020016000206040518060400160405290816000820154815260200160018201548152505090506000806109cd836000015184602001518988610b7d565b91509150604051806040016040528083815260200182815250600760008681526020019081526020016000206000820151816000015560208201518160010155905050610a18611e01565b600d60003373ffffffffffffffffffffffffffffffffffffffff1673ffffffffffffffffffffffffffffffffffffffff1681526020019081526020016000206000868152602001908152602001600020604051806040016040529081600082015481526020016001820154815250509050610a9d816000015182602001518a89610b7d565b8093508194505050604051806040016040528084815260200183815250600d60003373ffffffffffffffffffffffffffffffffffffffff1673ffffffffffffffffffffffffffffffffffffffff16815260200190815260200160002060008781526020019081526020016000206000820151816000015560208201518160010155905050843373ffffffffffffffffffffffffffffffffffffffff167f560e32e4934b84f33b228f40ddc5b9fa690426ee087005a7d979d7921d24a02b888b604051610b6a9291906126b7565b60405180910390a3505050505050505050565b60008060008460ff166001811115610b9157fe5b905060006001811115610ba057fe5b816001811115610bac57fe5b1415610bd057610bc58488611b2e90919063ffffffff16565b869250925050610c0e565b600180811115610bdc57fe5b816001811115610be857fe5b1415610c0c5786610c028588611b2e90919063ffffffff16565b9250925050610c0e565b505b94509492505050565b600080610c22611e01565b60076000858152602001908152602001600020604051806040016040529081600082015481526020016001820154815250509050806000015181602001519250925050915091565b600082821015610c7d5760009050610c93565b82821115610c8e5760019050610c93565b600290505b92915050565b60045481565b610ca7611326565b610cb033610ec0565b600c60003373ffffffffffffffffffffffffffffffffffffffff1673ffffffffffffffffffffffffffffffffffffffff16815260200190815260200160002054811115610d32576040517f08c379a0000000000000000000000000000000000000000000000000000000008152600401610d2990612653565b60405180910390fd5b610d8481600c60003373ffffffffffffffffffffffffffffffffffffffff1673ffffffffffffffffffffffffffffffffffffffff16815260200190815260200160002054611b8390919063ffffffff16565b600c60003373ffffffffffffffffffffffffffffffffffffffff1673ffffffffffffffffffffffffffffffffffffffff168152602001908152602001600020819055503373ffffffffffffffffffffffffffffffffffffffff166108fc829081150290604051600060405180830381858888f19350505050158015610e0d573d6000803e3d6000fd5b503373ffffffffffffffffffffffffffffffffffffffff167f056f1f5cdd8662230b94b7f88e06d95549d18e77cb2959933db3849d36df790a82604051610e549190612673565b60405180910390a250565b6000610e876064610e798486611bcd90919063ffffffff16565b611c3d90919063ffffffff16565b905092915050565b600d602052816000526040600020602052806000526040600020600091509150508060000154908060010154905082565b6000600e60008373ffffffffffffffffffffffffffffffffffffffff1673ffffffffffffffffffffffffffffffffffffffff1681526020019081526020016000209050600081805490501415610f1657506112af565b6000818054905090505b6000811115611214576000826001830381548110610f3a57fe5b906000526020600020015490506000610f5e43600354600454600a546009546112b2565b905060028201811015610f72575050611206565b600080610f7e84611aab565b91509150600081148015610f9457506003840183105b15610fa25750505050611206565b6000610fae8383610c6a565b90506000831480610fbf5750600082145b15610fc957600290505b86600188805490500381548110610fdc57fe5b9060005260206000200154876001880381548110610ff657fe5b90600052602060002001819055508680548061100e57fe5b6001900381819060005260206000200160009055905561102c611e01565b600d60008a73ffffffffffffffffffffffffffffffffffffffff1673ffffffffffffffffffffffffffffffffffffffff16815260200190815260200160002060008781526020019081526020016000206040518060400160405290816000820154815260200160018201548152505090506110a5611e01565b600760008881526020019081526020016000206040518060400160405290816000820154815260200160018201548152505090506000806110f98460200151856000015185602001518660000151896115dd565b9150915061114f82600c60003373ffffffffffffffffffffffffffffffffffffffff1673ffffffffffffffffffffffffffffffffffffffff16815260200190815260200160002054611b2e90919063ffffffff16565b600c60003373ffffffffffffffffffffffffffffffffffffffff1673ffffffffffffffffffffffffffffffffffffffff168152602001908152602001600020819055506111a781600b54611b2e90919063ffffffff16565b600b819055508b73ffffffffffffffffffffffffffffffffffffffff16897f1a82fd78981b9465af4b8bd67f27607df5d873b7a978cc8cee1a65b85c2990fc846040516111f49190612673565b60405180910390a35050505050505050505b808060019003915050610f20565b506000600b5411156112ad57600560009054906101000a900473ffffffffffffffffffffffffffffffffffffffff1673ffffffffffffffffffffffffffffffffffffffff16625c33e1600b546040518263ffffffff1660e01b81526004016000604051808303818588803b15801561128b57600080fd5b505af115801561129f573d6000803e3d6000fd5b50505050506000600b819055505b505b50565b6000838610156112c457819050611311565b61130e6001611300856112f2896112e48a8d611b8390919063ffffffff16565b611c3d90919063ffffffff16565b611b2e90919063ffffffff16565b611b2e90919063ffffffff16565b90505b95945050505050565b600b5481565b60035481565b600061133d43600354600454600a546009546112b2565b90506000600860008381526020019081526020016000205414156113c657611363611c87565b6008600083815260200190815260200160002081905550807f7a3325b9d11ddc18edd3dff130141b6ce951061520c6b933a604bf701f3d805260086000848152602001908152602001600020546040516113bd9190612673565b60405180910390a25b50565b600e60205281600052604060002081815481106113e257fe5b90600052602060002001600091509150505481565b600a5481565b600061144961143a8561142c8561141e60018b611b8390919063ffffffff16565b611b8390919063ffffffff16565b611bcd90919063ffffffff16565b84611b2e90919063ffffffff16565b9050949350505050565b60008061145e611e01565b600d60008573ffffffffffffffffffffffffffffffffffffffff1673ffffffffffffffffffffffffffffffffffffffff16815260200190815260200160002060008681526020019081526020016000206040518060400160405290816000820154815260200160018201548152505090508060000151816020015192509250509250929050565b600160009054906101000a900473ffffffffffffffffffffffffffffffffffffffff1673ffffffffffffffffffffffffffffffffffffffff163373ffffffffffffffffffffffffffffffffffffffff1614611575576040517f08c379a000000000000000000000000000000000000000000000000000000000815260040161156c906125d3565b60405180910390fd5b80600160006101000a81548173ffffffffffffffffffffffffffffffffffffffff021916908373ffffffffffffffffffffffffffffffffffffffff16021790555050565b60076020528060005260406000206000915090508060000154908060010154905082565b60008060008360ff1660028111156115f157fe5b905060006116088688611b2e90919063ffffffff16565b90506001600281111561161757fe5b82600281111561162357fe5b148015611631575060008714155b156116625761165b8761164d838c611bcd90919063ffffffff16565b611c3d90919063ffffffff16565b935061170e565b6000600281111561166f57fe5b82600281111561167b57fe5b148015611689575060008614155b156116ba576116b3866116a5838b611bcd90919063ffffffff16565b611c3d90919063ffffffff16565b935061170d565b6002808111156116c657fe5b8260028111156116d257fe5b14156116f2576116eb888a611b2e90919063ffffffff16565b935061170c565b60009350611709888a611b2e90919063ffffffff16565b92505b5b5b50509550959350505050565b611722611326565b61177434600c60003373ffffffffffffffffffffffffffffffffffffffff1673ffffffffffffffffffffffffffffffffffffffff16815260200190815260200160002054611b2e90919063ffffffff16565b600c60003373ffffffffffffffffffffffffffffffffffffffff1673ffffffffffffffffffffffffffffffffffffffff168152602001908152602001600020819055503373ffffffffffffffffffffffffffffffffffffffff167fb852e2e011cc5f1a909361fc2aeee1b2c4fa840300139b0b85f5e08a50898c62346040516117fd9190612673565b60405180910390a2565b60025481565b60095481565b60086020528060005260406000206000915090505481565b600c6020528060005260406000206000915090505481565b600073ffffffffffffffffffffffffffffffffffffffff16600660009054906101000a900473ffffffffffffffffffffffffffffffffffffffff1673ffffffffffffffffffffffffffffffffffffffff16146118d4576040517f08c379a00000000000000000000000000000000000000000000000000000000081526004016118cb906125b3565b60405180910390fd5b80600660006101000a81548173ffffffffffffffffffffffffffffffffffffffff021916908373ffffffffffffffffffffffffffffffffffffffff160217905550600660009054906101000a900473ffffffffffffffffffffffffffffffffffffffff16600560006101000a81548173ffffffffffffffffffffffffffffffffffffffff021916908373ffffffffffffffffffffffffffffffffffffffff16021790555050565b600160009054906101000a900473ffffffffffffffffffffffffffffffffffffffff1673ffffffffffffffffffffffffffffffffffffffff163373ffffffffffffffffffffffffffffffffffffffff1614611a0b576040517f08c379a0000000000000000000000000000000000000000000000000000000008152600401611a02906125d3565b60405180910390fd5b60008111611a4e576040517f08c379a0000000000000000000000000000000000000000000000000000000008152600401611a4590612633565b60405180910390fd5b6000611a6543600354600454600a546009546112b2565b9050611a8c611a7e600183611b2e90919063ffffffff16565b600354600454600a546113fd565b60048190555080600a8190555080600981905550816003819055505050565b6000806008600060018501815260200190815260200160002054600860006002860181526020019081526020016000205491509150915091565b6000600c60008373ffffffffffffffffffffffffffffffffffffffff1673ffffffffffffffffffffffffffffffffffffffff168152602001908152602001600020549050919050565b600080828401905083811015611b79576040517f08c379a0000000000000000000000000000000000000000000000000000000008152600401611b7090612560565b60405180910390fd5b8091505092915050565b6000611bc583836040518060400160405280601e81526020017f536166654d6174683a207375627472616374696f6e206f766572666c6f770000815250611d45565b905092915050565b600080831415611be05760009050611c37565b6000828402905082848281611bf157fe5b0414611c32576040517f08c379a0000000000000000000000000000000000000000000000000000000008152600401611c2990612613565b60405180910390fd5b809150505b92915050565b6000611c7f83836040518060400160405280601a81526020017f536166654d6174683a206469766973696f6e206279207a65726f000000000000815250611da0565b905092915050565b6000611c91611e1b565b60008054906101000a900473ffffffffffffffffffffffffffffffffffffffff1673ffffffffffffffffffffffffffffffffffffffff166365555bcc6040518163ffffffff1660e01b8152600401611ce890612580565b60606040518083038186803b158015611d0057600080fd5b505afa158015611d14573d6000803e3d6000fd5b505050506040513d601f19601f82011682018060405250810190611d389190611f55565b9050806000015191505090565b6000838311158290611d8d576040517f08c379a0000000000000000000000000000000000000000000000000000000008152600401611d84919061253e565b60405180910390fd5b5060008385039050809150509392505050565b60008083118290611de7576040517f08c379a0000000000000000000000000000000000000000000000000000000008152600401611dde919061253e565b60405180910390fd5b506000838581611df357fe5b049050809150509392505050565b604051806040016040528060008152602001600081525090565b60405180606001604052806000815260200160008152602001600081525090565b600081359050611e4b816127d1565b92915050565b600060608284031215611e6357600080fd5b611e6d60606126fb565b90506000611e7d84828501611ec6565b6000830152506020611e9184828501611ec6565b6020830152506040611ea584828501611ec6565b60408301525092915050565b600081359050611ec0816127e8565b92915050565b600081519050611ed5816127e8565b92915050565b600081359050611eea816127ff565b92915050565b600060208284031215611f0257600080fd5b6000611f1084828501611e3c565b91505092915050565b60008060408385031215611f2c57600080fd5b6000611f3a85828601611e3c565b9250506020611f4b85828601611eb1565b9150509250929050565b600060608284031215611f6757600080fd5b6000611f7584828501611e51565b91505092915050565b600060208284031215611f9057600080fd5b6000611f9e84828501611eb1565b91505092915050565b60008060408385031215611fba57600080fd5b6000611fc885828601611eb1565b9250506020611fd985828601611e3c565b9150509250929050565b60008060408385031215611ff657600080fd5b600061200485828601611eb1565b925050602061201585828601611eb1565b9150509250929050565b6000806000806080858703121561203557600080fd5b600061204387828801611eb1565b945050602061205487828801611eb1565b935050604061206587828801611eb1565b925050606061207687828801611eb1565b91505092959194509250565b600080600080600060a0868803121561209a57600080fd5b60006120a888828901611eb1565b95505060206120b988828901611eb1565b94505060406120ca88828901611eb1565b93505060606120db88828901611eb1565b92505060806120ec88828901611eb1565b9150509295509295909350565b600080600080600060a0868803121561211157600080fd5b600061211f88828901611eb1565b955050602061213088828901611eb1565b945050604061214188828901611eb1565b935050606061215288828901611eb1565b925050608061216388828901611edb565b9150509295509295909350565b6000806000806080858703121561218657600080fd5b600061219487828801611eb1565b94505060206121a587828801611eb1565b93505060406121b687828801611edb565b92505060606121c787828801611eb1565b91505092959194509250565b600080604083850312156121e657600080fd5b60006121f485828601611eb1565b925050602061220585828601611edb565b9150509250929050565b600061221a82612728565b6122248185612733565b935061223481856020860161278d565b61223d816127c0565b840191505092915050565b6000612255601b83612733565b91507f536166654d6174683a206164646974696f6e206f766572666c6f7700000000006000830152602082019050919050565b6000612295600383612733565b91507f424e4200000000000000000000000000000000000000000000000000000000006000830152602082019050919050565b60006122d5601b83612733565b91507f7374616b696e67206164647265737320616c72656164792073657400000000006000830152602082019050919050565b6000612315602483612733565b91507f6f6e6c7920676f7665726e616e63652063616e2063616c6c2074686973206d6560008301527f74686f64000000000000000000000000000000000000000000000000000000006020830152604082019050919050565b600061237b602283612733565b91507f6e6f7420656e6f756768206d6f6e657920746f20706c6163652074686973206260008301527f65740000000000000000000000000000000000000000000000000000000000006020830152604082019050919050565b60006123e1602183612733565b91507f536166654d6174683a206d756c7469706c69636174696f6e206f766572666c6f60008301527f77000000000000000000000000000000000000000000000000000000000000006020830152604082019050919050565b6000612447600383612733565b91507f55534400000000000000000000000000000000000000000000000000000000006000830152602082019050919050565b6000612487602783612733565b91507f77696e646f772073697a652073686f756c64206265207374726963746c79207060008301527f6f736974697665000000000000000000000000000000000000000000000000006020830152604082019050919050565b60006124ed601083612733565b91507f6e6f7420656e6f7567682066756e6473000000000000000000000000000000006000830152602082019050919050565b61252981612776565b82525050565b61253881612780565b82525050565b60006020820190508181036000830152612558818461220f565b905092915050565b6000602082019050818103600083015261257981612248565b9050919050565b6000604082019050818103600083015261259981612288565b905081810360208301526125ac8161243a565b9050919050565b600060208201905081810360008301526125cc816122c8565b9050919050565b600060208201905081810360008301526125ec81612308565b9050919050565b6000602082019050818103600083015261260c8161236e565b9050919050565b6000602082019050818103600083015261262c816123d4565b9050919050565b6000602082019050818103600083015261264c8161247a565b9050919050565b6000602082019050818103600083015261266c816124e0565b9050919050565b60006020820190506126886000830184612520565b92915050565b60006040820190506126a36000830185612520565b6126b06020830184612520565b9392505050565b60006040820190506126cc6000830185612520565b6126d9602083018461252f565b9392505050565b60006020820190506126f5600083018461252f565b92915050565b6000604051905081810181811067ffffffffffffffff8211171561271e57600080fd5b8060405250919050565b600081519050919050565b600082825260208201905092915050565b600061274f82612756565b9050919050565b600073ffffffffffffffffffffffffffffffffffffffff82169050919050565b6000819050919050565b600060ff82169050919050565b60005b838110156127ab578082015181840152602081019050612790565b838111156127ba576000848401525b50505050565b6000601f19601f8301169050919050565b6127da81612744565b81146127e557600080fd5b50565b6127f181612776565b81146127fc57600080fd5b50565b61280881612780565b811461281357600080fd5b5056fea264697066735822122029424107885154c6df14daeb89d666b359d73bcca12a276f68b66e5b8b98525764736f6c634300060c0033",
  "immutableReferences": {},
  "source": "pragma solidity ^0.6.8;\npragma experimental ABIEncoderV2;\n\nimport \"@openzeppelin/contracts/math/SafeMath.sol\";\nimport \"@openzeppelin/contracts/token/ERC20/IERC20.sol\";\nimport \"./BinToken.sol\";\nimport \"./BinStaking.sol\";\n\ninterface IStdReference {\n    /// A structure returned whenever someone requests for standard reference data.\n    struct ReferenceData {\n        uint256 rate; // base/quote exchange rate, multiplied by 1e18.\n        uint256 lastUpdatedBase; // UNIX epoch of the last time when base price gets updated.\n        uint256 lastUpdatedQuote; // UNIX epoch of the last time when quote price gets updated.\n    }\n\n    /// Returns the price data for the given base/quote pair. Revert if not available.\n    function getReferenceData(string calldata _base, string calldata _quote)\n        external\n        view\n        returns (ReferenceData memory);\n\n    /// Similar to getReferenceData, but with multiple base/quote pairs at once.\n    function getReferenceDataBulk(string[] calldata _bases, string[] calldata _quotes)\n        external\n        view\n        returns (ReferenceData[] memory);\n}\n\n\n//SPDX-License-Identifier: UNLICENSED\ncontract BinaryBet {\n    using SafeMath for uint256;\n\n    //Structs and enums\n    enum BetSide {down, up} \n    enum BetResult {down, up, tie}\n\n    struct Pool {\n        uint downValue;\n        uint upValue;\n    }\n\n    //Betting parameters\n    IStdReference oracle;\n    address governance;\n    uint public fee;\n    uint public windowDuration; //in blocks\n    uint public firstBlock;\n    BinaryStaking staking; \n    address payable stakingAddress;\n\n    //Window management\n    mapping (uint => Pool) public pools; //windowNumber => Pool\n    mapping(uint => uint256) public  windowPrice; //first price collection at the window.\n    uint public firstWindow = 1; //Any bet before first block of betting is directed to the first window.\n    uint public windowOffset; //used make window continuous and monotonically increasing when window duration and first block changes.\n    uint public accumulatedFees;\n\n    //User variables\n    mapping (address => uint) public balance;\n    mapping (address => mapping(uint => Pool)) public  userStake;\n    mapping (address => uint[]) public userBets;\n\n\n    //EVENTS\n    event newBet(address indexed user, uint indexed windowNumber, uint value, uint8 side);\n    event newDeposit(address indexed user, uint value);\n    event newWithdraw(address indexed user, uint value);\n    event betSettled(uint indexed windowNumber, address indexed user, uint gain);\n    event priceUpdated(uint indexed windowNumber, uint256 price);\n\n    \n    modifier onlyGovernance() {\n        require(msg.sender == governance, \"only governance can call this method\");\n        _;\n    }\n\n    constructor(uint _windowDuration, uint _fee) public {\n        require(_fee <= 100);\n        oracle = IStdReference(address(0xDA7a001b254CD22e46d3eAB04d937489c93174C3));\n        firstBlock = block.number;\n        windowDuration = _windowDuration;\n\n        fee = _fee;\n        governance = msg.sender;\n        firstWindow = 1;\n    }\n//=============GOVERNANCE FUNCTIONS=============================================\n    function changeGovernance(address newGovernance) onlyGovernance public{\n        governance = newGovernance;\n    }\n\n    function changeWindowSize(uint windowSize) onlyGovernance public {\n        require(windowSize > 0, \"window size should be strictly positive\");\n        uint currentWindow = getWindowNumber(block.number, windowDuration, firstBlock, windowOffset, firstWindow);\n        firstBlock = getWindowStartingBlock(currentWindow.add(1), windowDuration, firstBlock, windowOffset);\n        windowOffset = currentWindow;\n        firstWindow = currentWindow;\n        windowDuration = windowSize;\n    }\n\n    function setStakingAddress(address stakingContract) external {\n        require(stakingAddress == address(0), \"staking address already set\");\n        stakingAddress = payable(stakingContract);\n        staking = BinaryStaking(stakingAddress); \n    }\n\n    function deposit() payable external {\n        updatePrice();\n        balance[msg.sender] = balance[msg.sender].add(msg.value);\n        emit newDeposit(msg.sender, msg.value);\n    }\n\n    function withdraw(uint value) external {\n        updatePrice();\n        updateBalance(msg.sender);\n\n        require(value <= balance[msg.sender], \"not enough funds\");\n        balance[msg.sender] = balance[msg.sender].sub(value);\n        msg.sender.transfer(value);\n\n        emit newWithdraw(msg.sender, value);\n\n    }\n\n    function placeBet (uint betValue, uint8 side) payable external {\n        updatePrice();\n        updateBalance(msg.sender);\n                    \n        require(betValue <= balance[msg.sender].add(msg.value), \"not enough money to place this bet\");\n\n        //betValue <= balance + msg.value\n        //0 <= balance + msg.value - betValue\n        balance[msg.sender] = balance[msg.sender].add(msg.value).sub(betValue);\n\n        uint betFee = computeFee(betValue, fee); \n        accumulatedFees = accumulatedFees.add(betFee);\n        uint value = betValue.sub(betFee);\n\n        uint windowNumber = getWindowNumber(block.number, windowDuration, firstBlock, windowOffset, firstWindow);\n        userBets[msg.sender].push(windowNumber);\n        \n        //Update the pool for the window.\n        Pool memory oldPool = pools[windowNumber];\n        (uint newDown, uint newUp) = updatePool(oldPool.downValue, oldPool.upValue, side, value);\n        pools[windowNumber] = Pool(newDown, newUp);\n\n        //Update the user stake for the window.\n        Pool memory oldStake = userStake[msg.sender][windowNumber];\n        (newDown, newUp) = updatePool(oldStake.downValue, oldStake.upValue, side, value);\n        userStake[msg.sender][windowNumber] = Pool(newDown, newUp);\n\n        emit newBet(msg.sender, windowNumber, value, side);\n    }\n\n    function updateBalance(address user) public {\n        uint[] storage userWindowsList = userBets[user];\n        if(userWindowsList.length == 0) {\n            //No bets to settle\n            return;\n        }\n\n        for(uint i = userWindowsList.length; i > 0; i--) {\n            //Maximum number of itens in list is 2, when the user bets on 2 subsequent windows and the first window is not yet settled.\n            uint window = userWindowsList[i-1];\n            uint currentWindow = getWindowNumber(block.number, windowDuration, firstBlock, windowOffset, firstWindow);\n            if(currentWindow < window + 2) {\n                //window not yet settled\n                continue;\n            }\n\n            (uint256 referencePrice, uint256 settlementPrice) = getWindowBetPrices(window);\n            if (settlementPrice == 0 && currentWindow < window + 3) {\n                //price not updated but update still possible.\n                continue;\n            } \n\n            uint8 result = betResult(referencePrice, settlementPrice);\n            if (referencePrice == 0 || settlementPrice == 0) {\n                //if the price was not updated for the window it is considered a tie and players can get their money back.\n                result = 2;\n            }\n\n            //Remove window from list of unsettled bets.\n            userWindowsList[i-1] = userWindowsList[userWindowsList.length -1];\n            userWindowsList.pop();\n\n            Pool memory stake = userStake[user][window];\n            Pool memory pool = pools[window];\n            (uint windowGain, uint fees) = settleBet(stake.upValue, stake.downValue, pool.upValue, pool.downValue, result);\n\n            balance[msg.sender] = balance[msg.sender].add(windowGain);\n            accumulatedFees = accumulatedFees.add(fees);\n\n            emit betSettled(window, user, windowGain);\n        }\n\n        if(accumulatedFees > 0) {\n            staking.receiveFunds.value(accumulatedFees)();\n            accumulatedFees = 0;\n        }\n\n    }\n\n    function settleBet(uint upStake, uint downStake, uint poolUp, uint poolDown, uint8 betResult) public pure returns (uint gain, uint fees) {\n        BetResult result = BetResult(betResult);\n        uint poolTotal = poolUp.add(poolDown);\n        if (result == BetResult.up && poolUp != 0) {\n            gain = (upStake.mul(poolTotal)).div(poolUp);\n        } \n\n        else if (result == BetResult.down && poolDown != 0) {\n            gain = (downStake.mul(poolTotal)).div(poolDown);\n        }\n        else if (result == BetResult.tie) {\n            gain = upStake.add(downStake);\n        }\n        else {\n            //If the winning pool is empty, all stake goes to the fees.\n            gain = 0;\n            fees = upStake.add(downStake);\n        }\n    }\n\n   function betResult(uint256 referencePrice, uint256 settlementPrice) public pure returns(uint8){\n        if(settlementPrice < referencePrice) {\n            return 0;\n        }\n        else if(settlementPrice > referencePrice) {\n            return 1;\n        }\n        return 2;\n    }\n\n\n    function updatePool(uint downValue, uint upValue, uint8 side, uint value) public pure returns(uint, uint){\n        BetSide betSide = BetSide(side);\n        if (betSide == BetSide.down) {\n            return (downValue.add(value), upValue);\n        }\n        if (betSide == BetSide.up) {\n            return (downValue, upValue.add(value));\n        }\n    }\n\n    function getWindowNumber (uint currentBlock, uint _windowDuration, uint _firstBlock, uint _windowOffset, uint _firstWindow) public pure returns (uint windowNumber) {\n        if (currentBlock < _firstBlock) {\n            windowNumber = _firstWindow;\n        }\n        else {\n        //n = floor((block - first_block)/window_size  + 1)\n            windowNumber = ((currentBlock.sub(_firstBlock)).div(_windowDuration)).add(_windowOffset).add(1); //integer division => floor    \n        }\n\n    }\n\n    function getWindowStartingBlock (uint windowNumber, uint _windowDuration, uint _firstBlock, uint _windowOffset) public pure returns (uint startingBlock) {\n        //firstBlock + (n-1 - (offset + 1))*window_size\n        startingBlock =  _firstBlock.add((windowNumber.sub(1).sub(_windowOffset)).mul(_windowDuration ));\n    }\n\n    function computeFee(uint value, uint _fee) public pure returns (uint betFee) {\n        betFee = (value.mul(_fee)).div(100);\n\n    }\n\n\n    function updatePrice() public {\n        uint window = getWindowNumber(block.number, windowDuration, firstBlock, windowOffset, firstWindow);\n        if(windowPrice[window] == 0) {\n            windowPrice[window] = priceOracle();\n            emit priceUpdated(window, windowPrice[window]);\n        }\n    }\n\n    function priceOracle() internal returns (uint256){\n        IStdReference.ReferenceData memory data = oracle.getReferenceData(\"BNB\",\"USD\");\n        return data.rate;\n    }\n\n    //Getters\n    function getPoolValues(uint windowNumber) public view returns (uint, uint) {\n        Pool memory pool = pools[windowNumber];\n        return (pool.downValue, pool.upValue);\n    }\n\n    function getUserStake(uint windowNumber, address user) public view returns (uint, uint) {\n        Pool  memory stake  = userStake[user][windowNumber];\n        return (stake.downValue, stake.upValue);\n    }\n\n    function getBalance(address user) public view returns(uint) {\n        return balance[user];\n    }\n\n    function getWindowBetPrices(uint window) public view returns(uint256, uint256) {\n        return (windowPrice[window+1], windowPrice[window+2]);\n    }\n}\n",
  "sourcePath": "/home/pedroargento/bot/contracts/BinaryBet.sol",
  "compiler": {
    "name": "solc",
    "version": "0.6.12+commit.27d51765.Emscripten.clang"
  },
  "schemaVersion": "3.3.3",
  "updatedAt": "2021-05-31T17:31:01.658Z",
  "devdoc": {
    "kind": "dev",
    "methods": {},
    "version": 1
  },
  "userdoc": {
    "kind": "user",
    "methods": {},
    "version": 1
  }
}