{
  "contractName": "BinaryBet",
  "abi": [
    {
      "inputs": [
        {
          "internalType": "uint256",
          "name": "_windowDuration",
          "type": "uint256"
        },
        {
          "internalType": "uint256",
          "name": "_fee",
          "type": "uint256"
        }
      ],
      "stateMutability": "nonpayable",
      "type": "constructor"
    },
    {
      "anonymous": false,
      "inputs": [
        {
          "indexed": true,
          "internalType": "uint256",
          "name": "windowNumber",
          "type": "uint256"
        },
        {
          "indexed": true,
          "internalType": "address",
          "name": "user",
          "type": "address"
        },
        {
          "indexed": false,
          "internalType": "uint256",
          "name": "gain",
          "type": "uint256"
        }
      ],
      "name": "betSettled",
      "type": "event"
    },
    {
      "anonymous": false,
      "inputs": [
        {
          "indexed": true,
          "internalType": "address",
          "name": "user",
          "type": "address"
        },
        {
          "indexed": true,
          "internalType": "uint256",
          "name": "windowNumber",
          "type": "uint256"
        },
        {
          "indexed": false,
          "internalType": "uint256",
          "name": "value",
          "type": "uint256"
        },
        {
          "indexed": false,
          "internalType": "uint8",
          "name": "side",
          "type": "uint8"
        }
      ],
      "name": "newBet",
      "type": "event"
    },
    {
      "anonymous": false,
      "inputs": [
        {
          "indexed": true,
          "internalType": "address",
          "name": "user",
          "type": "address"
        },
        {
          "indexed": false,
          "internalType": "uint256",
          "name": "value",
          "type": "uint256"
        }
      ],
      "name": "newDeposit",
      "type": "event"
    },
    {
      "anonymous": false,
      "inputs": [
        {
          "indexed": true,
          "internalType": "address",
          "name": "user",
          "type": "address"
        },
        {
          "indexed": false,
          "internalType": "uint256",
          "name": "value",
          "type": "uint256"
        }
      ],
      "name": "newWithdraw",
      "type": "event"
    },
    {
      "anonymous": false,
      "inputs": [
        {
          "indexed": true,
          "internalType": "uint256",
          "name": "windowNumber",
          "type": "uint256"
        },
        {
          "indexed": false,
          "internalType": "uint256",
          "name": "price",
          "type": "uint256"
        }
      ],
      "name": "priceUpdated",
      "type": "event"
    },
    {
      "inputs": [],
      "name": "accumulatedFees",
      "outputs": [
        {
          "internalType": "uint256",
          "name": "",
          "type": "uint256"
        }
      ],
      "stateMutability": "view",
      "type": "function",
      "constant": true
    },
    {
      "inputs": [
        {
          "internalType": "address",
          "name": "",
          "type": "address"
        }
      ],
      "name": "balance",
      "outputs": [
        {
          "internalType": "uint256",
          "name": "",
          "type": "uint256"
        }
      ],
      "stateMutability": "view",
      "type": "function",
      "constant": true
    },
    {
      "inputs": [],
      "name": "fee",
      "outputs": [
        {
          "internalType": "uint256",
          "name": "",
          "type": "uint256"
        }
      ],
      "stateMutability": "view",
      "type": "function",
      "constant": true
    },
    {
      "inputs": [],
      "name": "firstBlock",
      "outputs": [
        {
          "internalType": "uint256",
          "name": "",
          "type": "uint256"
        }
      ],
      "stateMutability": "view",
      "type": "function",
      "constant": true
    },
    {
      "inputs": [],
      "name": "firstWindow",
      "outputs": [
        {
          "internalType": "uint256",
          "name": "",
          "type": "uint256"
        }
      ],
      "stateMutability": "view",
      "type": "function",
      "constant": true
    },
    {
      "inputs": [
        {
          "internalType": "uint256",
          "name": "",
          "type": "uint256"
        }
      ],
      "name": "pools",
      "outputs": [
        {
          "internalType": "uint256",
          "name": "downValue",
          "type": "uint256"
        },
        {
          "internalType": "uint256",
          "name": "upValue",
          "type": "uint256"
        }
      ],
      "stateMutability": "view",
      "type": "function",
      "constant": true
    },
    {
      "inputs": [
        {
          "internalType": "address",
          "name": "",
          "type": "address"
        },
        {
          "internalType": "uint256",
          "name": "",
          "type": "uint256"
        }
      ],
      "name": "userBets",
      "outputs": [
        {
          "internalType": "uint256",
          "name": "",
          "type": "uint256"
        }
      ],
      "stateMutability": "view",
      "type": "function",
      "constant": true
    },
    {
      "inputs": [
        {
          "internalType": "address",
          "name": "",
          "type": "address"
        },
        {
          "internalType": "uint256",
          "name": "",
          "type": "uint256"
        }
      ],
      "name": "userBetted",
      "outputs": [
        {
          "internalType": "bool",
          "name": "",
          "type": "bool"
        }
      ],
      "stateMutability": "view",
      "type": "function",
      "constant": true
    },
    {
      "inputs": [
        {
          "internalType": "address",
          "name": "",
          "type": "address"
        },
        {
          "internalType": "uint256",
          "name": "",
          "type": "uint256"
        }
      ],
      "name": "userStake",
      "outputs": [
        {
          "internalType": "uint256",
          "name": "downValue",
          "type": "uint256"
        },
        {
          "internalType": "uint256",
          "name": "upValue",
          "type": "uint256"
        }
      ],
      "stateMutability": "view",
      "type": "function",
      "constant": true
    },
    {
      "inputs": [],
      "name": "windowDuration",
      "outputs": [
        {
          "internalType": "uint256",
          "name": "",
          "type": "uint256"
        }
      ],
      "stateMutability": "view",
      "type": "function",
      "constant": true
    },
    {
      "inputs": [],
      "name": "windowOffset",
      "outputs": [
        {
          "internalType": "uint256",
          "name": "",
          "type": "uint256"
        }
      ],
      "stateMutability": "view",
      "type": "function",
      "constant": true
    },
    {
      "inputs": [
        {
          "internalType": "uint256",
          "name": "",
          "type": "uint256"
        }
      ],
      "name": "windowPrice",
      "outputs": [
        {
          "internalType": "uint256",
          "name": "",
          "type": "uint256"
        }
      ],
      "stateMutability": "view",
      "type": "function",
      "constant": true
    },
    {
      "inputs": [
        {
          "internalType": "address",
          "name": "newGovernance",
          "type": "address"
        }
      ],
      "name": "changeGovernance",
      "outputs": [],
      "stateMutability": "nonpayable",
      "type": "function"
    },
    {
      "inputs": [
        {
          "internalType": "uint256",
          "name": "windowSize",
          "type": "uint256"
        }
      ],
      "name": "changeWindowSize",
      "outputs": [],
      "stateMutability": "nonpayable",
      "type": "function"
    },
    {
      "inputs": [
        {
          "internalType": "address",
          "name": "stakingContract",
          "type": "address"
        }
      ],
      "name": "setStakingAddress",
      "outputs": [],
      "stateMutability": "nonpayable",
      "type": "function"
    },
    {
      "inputs": [],
      "name": "deposit",
      "outputs": [],
      "stateMutability": "payable",
      "type": "function",
      "payable": true
    },
    {
      "inputs": [
        {
          "internalType": "uint256",
          "name": "value",
          "type": "uint256"
        }
      ],
      "name": "withdraw",
      "outputs": [],
      "stateMutability": "nonpayable",
      "type": "function"
    },
    {
      "inputs": [
        {
          "internalType": "uint256",
          "name": "betValue",
          "type": "uint256"
        },
        {
          "internalType": "uint8",
          "name": "side",
          "type": "uint8"
        }
      ],
      "name": "placeBet",
      "outputs": [],
      "stateMutability": "payable",
      "type": "function",
      "payable": true
    },
    {
      "inputs": [
        {
          "internalType": "address",
          "name": "user",
          "type": "address"
        }
      ],
      "name": "updateBalance",
      "outputs": [],
      "stateMutability": "nonpayable",
      "type": "function"
    },
    {
      "inputs": [
        {
          "internalType": "uint256",
          "name": "upStake",
          "type": "uint256"
        },
        {
          "internalType": "uint256",
          "name": "downStake",
          "type": "uint256"
        },
        {
          "internalType": "uint256",
          "name": "poolUp",
          "type": "uint256"
        },
        {
          "internalType": "uint256",
          "name": "poolDown",
          "type": "uint256"
        },
        {
          "internalType": "uint8",
          "name": "betResult",
          "type": "uint8"
        }
      ],
      "name": "settleBet",
      "outputs": [
        {
          "internalType": "uint256",
          "name": "gain",
          "type": "uint256"
        },
        {
          "internalType": "uint256",
          "name": "fees",
          "type": "uint256"
        }
      ],
      "stateMutability": "pure",
      "type": "function",
      "constant": true
    },
    {
      "inputs": [
        {
          "internalType": "uint256",
          "name": "referencePrice",
          "type": "uint256"
        },
        {
          "internalType": "uint256",
          "name": "settlementPrice",
          "type": "uint256"
        }
      ],
      "name": "betResult",
      "outputs": [
        {
          "internalType": "uint8",
          "name": "",
          "type": "uint8"
        }
      ],
      "stateMutability": "pure",
      "type": "function",
      "constant": true
    },
    {
      "inputs": [
        {
          "internalType": "uint256",
          "name": "downValue",
          "type": "uint256"
        },
        {
          "internalType": "uint256",
          "name": "upValue",
          "type": "uint256"
        },
        {
          "internalType": "uint8",
          "name": "side",
          "type": "uint8"
        },
        {
          "internalType": "uint256",
          "name": "value",
          "type": "uint256"
        }
      ],
      "name": "updatePool",
      "outputs": [
        {
          "internalType": "uint256",
          "name": "",
          "type": "uint256"
        },
        {
          "internalType": "uint256",
          "name": "",
          "type": "uint256"
        }
      ],
      "stateMutability": "pure",
      "type": "function",
      "constant": true
    },
    {
      "inputs": [
        {
          "internalType": "uint256",
          "name": "currentBlock",
          "type": "uint256"
        },
        {
          "internalType": "uint256",
          "name": "_windowDuration",
          "type": "uint256"
        },
        {
          "internalType": "uint256",
          "name": "_firstBlock",
          "type": "uint256"
        },
        {
          "internalType": "uint256",
          "name": "_windowOffset",
          "type": "uint256"
        },
        {
          "internalType": "uint256",
          "name": "_firstWindow",
          "type": "uint256"
        }
      ],
      "name": "getWindowNumber",
      "outputs": [
        {
          "internalType": "uint256",
          "name": "windowNumber",
          "type": "uint256"
        }
      ],
      "stateMutability": "pure",
      "type": "function",
      "constant": true
    },
    {
      "inputs": [
        {
          "internalType": "uint256",
          "name": "windowNumber",
          "type": "uint256"
        },
        {
          "internalType": "uint256",
          "name": "_windowDuration",
          "type": "uint256"
        },
        {
          "internalType": "uint256",
          "name": "_firstBlock",
          "type": "uint256"
        },
        {
          "internalType": "uint256",
          "name": "_windowOffset",
          "type": "uint256"
        }
      ],
      "name": "getWindowStartingBlock",
      "outputs": [
        {
          "internalType": "uint256",
          "name": "startingBlock",
          "type": "uint256"
        }
      ],
      "stateMutability": "pure",
      "type": "function",
      "constant": true
    },
    {
      "inputs": [
        {
          "internalType": "uint256",
          "name": "value",
          "type": "uint256"
        },
        {
          "internalType": "uint256",
          "name": "_fee",
          "type": "uint256"
        }
      ],
      "name": "computeFee",
      "outputs": [
        {
          "internalType": "uint256",
          "name": "betFee",
          "type": "uint256"
        }
      ],
      "stateMutability": "pure",
      "type": "function",
      "constant": true
    },
    {
      "inputs": [],
      "name": "updatePrice",
      "outputs": [],
      "stateMutability": "nonpayable",
      "type": "function"
    },
    {
      "inputs": [
        {
          "internalType": "uint256",
          "name": "windowNumber",
          "type": "uint256"
        }
      ],
      "name": "getPoolValues",
      "outputs": [
        {
          "internalType": "uint256",
          "name": "",
          "type": "uint256"
        },
        {
          "internalType": "uint256",
          "name": "",
          "type": "uint256"
        }
      ],
      "stateMutability": "view",
      "type": "function",
      "constant": true
    },
    {
      "inputs": [
        {
          "internalType": "uint256",
          "name": "windowNumber",
          "type": "uint256"
        },
        {
          "internalType": "address",
          "name": "user",
          "type": "address"
        }
      ],
      "name": "getUserStake",
      "outputs": [
        {
          "internalType": "uint256",
          "name": "",
          "type": "uint256"
        },
        {
          "internalType": "uint256",
          "name": "",
          "type": "uint256"
        }
      ],
      "stateMutability": "view",
      "type": "function",
      "constant": true
    },
    {
      "inputs": [
        {
          "internalType": "address",
          "name": "user",
          "type": "address"
        }
      ],
      "name": "getBalance",
      "outputs": [
        {
          "internalType": "uint256",
          "name": "",
          "type": "uint256"
        }
      ],
      "stateMutability": "view",
      "type": "function",
      "constant": true
    },
    {
      "inputs": [
        {
          "internalType": "uint256",
          "name": "window",
          "type": "uint256"
        }
      ],
      "name": "getWindowBetPrices",
      "outputs": [
        {
          "internalType": "uint256",
          "name": "",
          "type": "uint256"
        },
        {
          "internalType": "uint256",
          "name": "",
          "type": "uint256"
        }
      ],
      "stateMutability": "view",
      "type": "function",
      "constant": true
    }
  ],
  "bytecode": "0x608060405260016009553480156200001657600080fd5b5060405162002a1438038062002a1483398181016040528101906200003c91906200011c565b60648111156200004b57600080fd5b73da7a001b254cd22e46d3eab04d937489c93174c36000806101000a81548173ffffffffffffffffffffffffffffffffffffffff021916908373ffffffffffffffffffffffffffffffffffffffff16021790555043600481905550816003819055508060028190555033600160006101000a81548173ffffffffffffffffffffffffffffffffffffffff021916908373ffffffffffffffffffffffffffffffffffffffff1602179055506001600981905550505062000181565b600081519050620001168162000167565b92915050565b600080604083850312156200013057600080fd5b6000620001408582860162000105565b9250506020620001538582860162000105565b9150509250929050565b6000819050919050565b62000172816200015d565b81146200017e57600080fd5b50565b61288380620001916000396000f3fe6080604052600436106101cd5760003560e01c8063849cd1c7116100f7578063ddca3f4311610095578063f4e0d9ac11610064578063f4e0d9ac146106e8578063f52818f014610711578063f83b35fb1461073a578063f8b2cb4f14610778576101cd565b8063ddca3f4314610618578063e0a5cee314610643578063e0d65d871461066e578063e3d670d7146106ab576101cd565b806399572d6f116100d157806399572d6f14610569578063ac4afa3814610592578063ca055e53146105d0578063d0e30db01461060e576101cd565b8063849cd1c7146104b15780639599ee65146104ee5780639626a2301461052b576101cd565b80633937ea4f1161016f5780635c11ff7a1161013e5780635c11ff7a14610407578063673a7e28146104325780638068aa68146104495780638096266814610486576101cd565b80633937ea4f1461033857806340b8405a14610376578063576fe42f1461039f578063587f5ed7146103dc576101cd565b80631bb5abf9116101ab5780631bb5abf91461026a578063231b0268146102a75780632e1a7d4d146102d25780632ff284c2146102fb576101cd565b806303edf914146101d25780630ed6ca29146101ee5780630eff4d881461022c575b600080fd5b6101ec60048036038101906101e791906121f2565b6107b5565b005b3480156101fa57600080fd5b506102156004803603810190610210919061218f565b610ccc565b6040516102239291906126dc565b60405180910390f35b34801561023857600080fd5b50610253600480360381019061024e9190611f9d565b610d66565b6040516102619291906126dc565b60405180910390f35b34801561027657600080fd5b50610291600480360381019061028c9190612002565b610db9565b60405161029e919061272e565b60405180910390f35b3480156102b357600080fd5b506102bc610de8565b6040516102c991906126c1565b60405180910390f35b3480156102de57600080fd5b506102f960048036038101906102f49190611f9d565b610dee565b005b34801561030757600080fd5b50610322600480360381019061031d9190612002565b610fae565b60405161032f91906126c1565b60405180910390f35b34801561034457600080fd5b5061035f600480360381019061035a9190611f61565b610fde565b60405161036d9291906126dc565b60405180910390f35b34801561038257600080fd5b5061039d60048036038101906103989190611f38565b61100f565b005b3480156103ab57600080fd5b506103c660048036038101906103c191906120a1565b6113e0565b6040516103d391906126c1565b60405180910390f35b3480156103e857600080fd5b506103f1611448565b6040516103fe91906126c1565b60405180910390f35b34801561041357600080fd5b5061041c61144e565b60405161042991906126c1565b60405180910390f35b34801561043e57600080fd5b50610447611454565b005b34801561045557600080fd5b50610470600480360381019061046b9190611f61565b6114f7565b60405161047d91906126c1565b60405180910390f35b34801561049257600080fd5b5061049b611525565b6040516104a891906126c1565b60405180910390f35b3480156104bd57600080fd5b506104d860048036038101906104d3919061203e565b61152b565b6040516104e591906126c1565b60405180910390f35b3480156104fa57600080fd5b5061051560048036038101906105109190611f61565b611581565b6040516105229190612584565b60405180910390f35b34801561053757600080fd5b50610552600480360381019061054d9190611fc6565b6115b0565b6040516105609291906126dc565b60405180910390f35b34801561057557600080fd5b50610590600480360381019061058b9190611f38565b611642565b005b34801561059e57600080fd5b506105b960048036038101906105b49190611f9d565b611716565b6040516105c79291906126dc565b60405180910390f35b3480156105dc57600080fd5b506105f760048036038101906105f29190612118565b61173a565b6040516106059291906126dc565b60405180910390f35b610616611877565b005b34801561062457600080fd5b5061062d611964565b60405161063a91906126c1565b60405180910390f35b34801561064f57600080fd5b5061065861196a565b60405161066591906126c1565b60405180910390f35b34801561067a57600080fd5b5061069560048036038101906106909190611f9d565b611970565b6040516106a291906126c1565b60405180910390f35b3480156106b757600080fd5b506106d260048036038101906106cd9190611f38565b611988565b6040516106df91906126c1565b60405180910390f35b3480156106f457600080fd5b5061070f600480360381019061070a9190611f38565b6119a0565b005b34801561071d57600080fd5b5061073860048036038101906107339190611f9d565b611ad8565b005b34801561074657600080fd5b50610761600480360381019061075c9190611f9d565b611c08565b60405161076f9291906126dc565b60405180910390f35b34801561078457600080fd5b5061079f600480360381019061079a9190611f38565b611c42565b6040516107ac91906126c1565b60405180910390f35b6107bd611454565b6107c63361100f565b60006107dd43600354600454600a546009546113e0565b9050600e60003373ffffffffffffffffffffffffffffffffffffffff1673ffffffffffffffffffffffffffffffffffffffff168152602001908152602001600020600082815260200190815260200160002060009054906101000a900460ff161561087d576040517f08c379a0000000000000000000000000000000000000000000000000000000008152600401610874906125c1565b60405180910390fd5b6108cf34600c60003373ffffffffffffffffffffffffffffffffffffffff1673ffffffffffffffffffffffffffffffffffffffff16815260200190815260200160002054611c8b90919063ffffffff16565b831115610911576040517f08c379a000000000000000000000000000000000000000000000000000000000815260040161090890612641565b60405180910390fd5b6109758361096734600c60003373ffffffffffffffffffffffffffffffffffffffff1673ffffffffffffffffffffffffffffffffffffffff16815260200190815260200160002054611c8b90919063ffffffff16565b611ce090919063ffffffff16565b600c60003373ffffffffffffffffffffffffffffffffffffffff1673ffffffffffffffffffffffffffffffffffffffff1681526020019081526020016000208190555060006109c684600254610fae565b90506109dd81600b54611c8b90919063ffffffff16565b600b8190555060006109f88286611ce090919063ffffffff16565b9050600f60003373ffffffffffffffffffffffffffffffffffffffff1673ffffffffffffffffffffffffffffffffffffffff1681526020019081526020016000208390806001815401808255809150506001900390600052602060002001600090919091909150556001600e60003373ffffffffffffffffffffffffffffffffffffffff1673ffffffffffffffffffffffffffffffffffffffff168152602001908152602001600020600085815260200190815260200160002060006101000a81548160ff021916908315150217905550610ad1611edf565b60076000858152602001908152602001600020604051806040016040529081600082015481526020016001820154815250509050600080610b1c836000015184602001518987610ccc565b91509150604051806040016040528083815260200182815250600760008881526020019081526020016000206000820151816000015560208201518160010155905050610b67611edf565b600d60003373ffffffffffffffffffffffffffffffffffffffff1673ffffffffffffffffffffffffffffffffffffffff1681526020019081526020016000206000888152602001908152602001600020604051806040016040529081600082015481526020016001820154815250509050610bec816000015182602001518a88610ccc565b8093508194505050604051806040016040528084815260200183815250600d60003373ffffffffffffffffffffffffffffffffffffffff1673ffffffffffffffffffffffffffffffffffffffff16815260200190815260200160002060008981526020019081526020016000206000820151816000015560208201518160010155905050863373ffffffffffffffffffffffffffffffffffffffff167f560e32e4934b84f33b228f40ddc5b9fa690426ee087005a7d979d7921d24a02b878b604051610cb9929190612705565b60405180910390a3505050505050505050565b60008060008460ff166001811115610ce057fe5b905060006001811115610cef57fe5b816001811115610cfb57fe5b1415610d1f57610d148488611c8b90919063ffffffff16565b869250925050610d5d565b600180811115610d2b57fe5b816001811115610d3757fe5b1415610d5b5786610d518588611c8b90919063ffffffff16565b9250925050610d5d565b505b94509492505050565b600080610d71611edf565b60076000858152602001908152602001600020604051806040016040529081600082015481526020016001820154815250509050806000015181602001519250925050915091565b600082821015610dcc5760009050610de2565b82821115610ddd5760019050610de2565b600290505b92915050565b60045481565b610df6611454565b610dff3361100f565b600c60003373ffffffffffffffffffffffffffffffffffffffff1673ffffffffffffffffffffffffffffffffffffffff16815260200190815260200160002054811115610e81576040517f08c379a0000000000000000000000000000000000000000000000000000000008152600401610e78906126a1565b60405180910390fd5b610ed381600c60003373ffffffffffffffffffffffffffffffffffffffff1673ffffffffffffffffffffffffffffffffffffffff16815260200190815260200160002054611ce090919063ffffffff16565b600c60003373ffffffffffffffffffffffffffffffffffffffff1673ffffffffffffffffffffffffffffffffffffffff168152602001908152602001600020819055503373ffffffffffffffffffffffffffffffffffffffff166108fc829081150290604051600060405180830381858888f19350505050158015610f5c573d6000803e3d6000fd5b503373ffffffffffffffffffffffffffffffffffffffff167f056f1f5cdd8662230b94b7f88e06d95549d18e77cb2959933db3849d36df790a82604051610fa391906126c1565b60405180910390a250565b6000610fd66064610fc88486611d2a90919063ffffffff16565b611d9a90919063ffffffff16565b905092915050565b600d602052816000526040600020602052806000526040600020600091509150508060000154908060010154905082565b6000600f60008373ffffffffffffffffffffffffffffffffffffffff1673ffffffffffffffffffffffffffffffffffffffff168152602001908152602001600020905060008180549050141561106557506113dd565b6000818054905090505b600081111561134257600082600183038154811061108957fe5b9060005260206000200154905060006110ad43600354600454600a546009546113e0565b90506001820181116110c0575050611334565b836001858054905003815481106110d357fe5b90600052602060002001548460018503815481106110ed57fe5b90600052602060002001819055508380548061110557fe5b6001900381819060005260206000200160009055905560008061112784611c08565b9150915060006111378383610db9565b905060008314806111485750600082145b1561115257600290505b61115a611edf565b600d60008a73ffffffffffffffffffffffffffffffffffffffff1673ffffffffffffffffffffffffffffffffffffffff16815260200190815260200160002060008781526020019081526020016000206040518060400160405290816000820154815260200160018201548152505090506111d3611edf565b6007600088815260200190815260200160002060405180604001604052908160008201548152602001600182015481525050905060008061122784602001518560000151856020015186600001518961173a565b9150915061127d82600c60003373ffffffffffffffffffffffffffffffffffffffff1673ffffffffffffffffffffffffffffffffffffffff16815260200190815260200160002054611c8b90919063ffffffff16565b600c60003373ffffffffffffffffffffffffffffffffffffffff1673ffffffffffffffffffffffffffffffffffffffff168152602001908152602001600020819055506112d581600b54611c8b90919063ffffffff16565b600b819055508b73ffffffffffffffffffffffffffffffffffffffff16897f1a82fd78981b9465af4b8bd67f27607df5d873b7a978cc8cee1a65b85c2990fc8460405161132291906126c1565b60405180910390a35050505050505050505b80806001900391505061106f565b506000600b5411156113db57600560009054906101000a900473ffffffffffffffffffffffffffffffffffffffff1673ffffffffffffffffffffffffffffffffffffffff16625c33e1600b546040518263ffffffff1660e01b81526004016000604051808303818588803b1580156113b957600080fd5b505af11580156113cd573d6000803e3d6000fd5b50505050506000600b819055505b505b50565b6000838610156113f25781905061143f565b61143c600161142e85611420896114128a8d611ce090919063ffffffff16565b611d9a90919063ffffffff16565b611c8b90919063ffffffff16565b611c8b90919063ffffffff16565b90505b95945050505050565b600b5481565b60035481565b600061146b43600354600454600a546009546113e0565b90506000600860008381526020019081526020016000205414156114f457611491611de4565b6008600083815260200190815260200160002081905550807f7a3325b9d11ddc18edd3dff130141b6ce951061520c6b933a604bf701f3d805260086000848152602001908152602001600020546040516114eb91906126c1565b60405180910390a25b50565b600f602052816000526040600020818154811061151057fe5b90600052602060002001600091509150505481565b600a5481565b60006115776115688561155a8561154c60018b611ce090919063ffffffff16565b611ce090919063ffffffff16565b611d2a90919063ffffffff16565b84611c8b90919063ffffffff16565b9050949350505050565b600e6020528160005260406000206020528060005260406000206000915091509054906101000a900460ff1681565b6000806115bb611edf565b600d60008573ffffffffffffffffffffffffffffffffffffffff1673ffffffffffffffffffffffffffffffffffffffff16815260200190815260200160002060008681526020019081526020016000206040518060400160405290816000820154815260200160018201548152505090508060000151816020015192509250509250929050565b600160009054906101000a900473ffffffffffffffffffffffffffffffffffffffff1673ffffffffffffffffffffffffffffffffffffffff163373ffffffffffffffffffffffffffffffffffffffff16146116d2576040517f08c379a00000000000000000000000000000000000000000000000000000000081526004016116c990612621565b60405180910390fd5b80600160006101000a81548173ffffffffffffffffffffffffffffffffffffffff021916908373ffffffffffffffffffffffffffffffffffffffff16021790555050565b60076020528060005260406000206000915090508060000154908060010154905082565b60008060008360ff16600281111561174e57fe5b905060006117658688611c8b90919063ffffffff16565b90506001600281111561177457fe5b82600281111561178057fe5b14801561178e575060008714155b156117bf576117b8876117aa838c611d2a90919063ffffffff16565b611d9a90919063ffffffff16565b935061186b565b600060028111156117cc57fe5b8260028111156117d857fe5b1480156117e6575060008614155b156118175761181086611802838b611d2a90919063ffffffff16565b611d9a90919063ffffffff16565b935061186a565b60028081111561182357fe5b82600281111561182f57fe5b141561184f57611848888a611c8b90919063ffffffff16565b9350611869565b60009350611866888a611c8b90919063ffffffff16565b92505b5b5b50509550959350505050565b61187f611454565b6118d134600c60003373ffffffffffffffffffffffffffffffffffffffff1673ffffffffffffffffffffffffffffffffffffffff16815260200190815260200160002054611c8b90919063ffffffff16565b600c60003373ffffffffffffffffffffffffffffffffffffffff1673ffffffffffffffffffffffffffffffffffffffff168152602001908152602001600020819055503373ffffffffffffffffffffffffffffffffffffffff167fb852e2e011cc5f1a909361fc2aeee1b2c4fa840300139b0b85f5e08a50898c623460405161195a91906126c1565b60405180910390a2565b60025481565b60095481565b60086020528060005260406000206000915090505481565b600c6020528060005260406000206000915090505481565b600073ffffffffffffffffffffffffffffffffffffffff16600660009054906101000a900473ffffffffffffffffffffffffffffffffffffffff1673ffffffffffffffffffffffffffffffffffffffff1614611a31576040517f08c379a0000000000000000000000000000000000000000000000000000000008152600401611a2890612601565b60405180910390fd5b80600660006101000a81548173ffffffffffffffffffffffffffffffffffffffff021916908373ffffffffffffffffffffffffffffffffffffffff160217905550600660009054906101000a900473ffffffffffffffffffffffffffffffffffffffff16600560006101000a81548173ffffffffffffffffffffffffffffffffffffffff021916908373ffffffffffffffffffffffffffffffffffffffff16021790555050565b600160009054906101000a900473ffffffffffffffffffffffffffffffffffffffff1673ffffffffffffffffffffffffffffffffffffffff163373ffffffffffffffffffffffffffffffffffffffff1614611b68576040517f08c379a0000000000000000000000000000000000000000000000000000000008152600401611b5f90612621565b60405180910390fd5b60008111611bab576040517f08c379a0000000000000000000000000000000000000000000000000000000008152600401611ba290612681565b60405180910390fd5b6000611bc243600354600454600a546009546113e0565b9050611be9611bdb600183611c8b90919063ffffffff16565b600354600454600a5461152b565b60048190555080600a8190555080600981905550816003819055505050565b6000806008600060018501815260200190815260200160002054600860006002860181526020019081526020016000205491509150915091565b6000600c60008373ffffffffffffffffffffffffffffffffffffffff1673ffffffffffffffffffffffffffffffffffffffff168152602001908152602001600020549050919050565b600080828401905083811015611cd6576040517f08c379a0000000000000000000000000000000000000000000000000000000008152600401611ccd906125e1565b60405180910390fd5b8091505092915050565b6000611d2283836040518060400160405280601e81526020017f536166654d6174683a207375627472616374696f6e206f766572666c6f770000815250611e23565b905092915050565b600080831415611d3d5760009050611d94565b6000828402905082848281611d4e57fe5b0414611d8f576040517f08c379a0000000000000000000000000000000000000000000000000000000008152600401611d8690612661565b60405180910390fd5b809150505b92915050565b6000611ddc83836040518060400160405280601a81526020017f536166654d6174683a206469766973696f6e206279207a65726f000000000000815250611e7e565b905092915050565b6000610280601442604051602001611dfc9190612569565b6040516020818303038152906040528051906020012060001c81611e1c57fe5b0601905090565b6000838311158290611e6b576040517f08c379a0000000000000000000000000000000000000000000000000000000008152600401611e62919061259f565b60405180910390fd5b5060008385039050809150509392505050565b60008083118290611ec5576040517f08c379a0000000000000000000000000000000000000000000000000000000008152600401611ebc919061259f565b60405180910390fd5b506000838581611ed157fe5b049050809150509392505050565b604051806040016040528060008152602001600081525090565b600081359050611f0881612808565b92915050565b600081359050611f1d8161281f565b92915050565b600081359050611f3281612836565b92915050565b600060208284031215611f4a57600080fd5b6000611f5884828501611ef9565b91505092915050565b60008060408385031215611f7457600080fd5b6000611f8285828601611ef9565b9250506020611f9385828601611f0e565b9150509250929050565b600060208284031215611faf57600080fd5b6000611fbd84828501611f0e565b91505092915050565b60008060408385031215611fd957600080fd5b6000611fe785828601611f0e565b9250506020611ff885828601611ef9565b9150509250929050565b6000806040838503121561201557600080fd5b600061202385828601611f0e565b925050602061203485828601611f0e565b9150509250929050565b6000806000806080858703121561205457600080fd5b600061206287828801611f0e565b945050602061207387828801611f0e565b935050604061208487828801611f0e565b925050606061209587828801611f0e565b91505092959194509250565b600080600080600060a086880312156120b957600080fd5b60006120c788828901611f0e565b95505060206120d888828901611f0e565b94505060406120e988828901611f0e565b93505060606120fa88828901611f0e565b925050608061210b88828901611f0e565b9150509295509295909350565b600080600080600060a0868803121561213057600080fd5b600061213e88828901611f0e565b955050602061214f88828901611f0e565b945050604061216088828901611f0e565b935050606061217188828901611f0e565b925050608061218288828901611f23565b9150509295509295909350565b600080600080608085870312156121a557600080fd5b60006121b387828801611f0e565b94505060206121c487828801611f0e565b93505060406121d587828801611f23565b92505060606121e687828801611f0e565b91505092959194509250565b6000806040838503121561220557600080fd5b600061221385828601611f0e565b925050602061222485828601611f23565b9150509250929050565b61223781612777565b82525050565b600061224882612749565b6122528185612754565b93506122628185602086016127ba565b61226b816127f7565b840191505092915050565b6000612283602583612754565b91507f757365722063616e206f6e6c7920626574206f6e652074696d6520706572207760008301527f696e646f770000000000000000000000000000000000000000000000000000006020830152604082019050919050565b60006122e9601b83612754565b91507f536166654d6174683a206164646974696f6e206f766572666c6f7700000000006000830152602082019050919050565b6000612329601b83612754565b91507f7374616b696e67206164647265737320616c72656164792073657400000000006000830152602082019050919050565b6000612369602483612754565b91507f6f6e6c7920676f7665726e616e63652063616e2063616c6c2074686973206d6560008301527f74686f64000000000000000000000000000000000000000000000000000000006020830152604082019050919050565b60006123cf602283612754565b91507f6e6f7420656e6f756768206d6f6e657920746f20706c6163652074686973206260008301527f65740000000000000000000000000000000000000000000000000000000000006020830152604082019050919050565b6000612435602183612754565b91507f536166654d6174683a206d756c7469706c69636174696f6e206f766572666c6f60008301527f77000000000000000000000000000000000000000000000000000000000000006020830152604082019050919050565b600061249b602783612754565b91507f77696e646f772073697a652073686f756c64206265207374726963746c79207060008301527f6f736974697665000000000000000000000000000000000000000000000000006020830152604082019050919050565b6000612501601083612754565b91507f6e6f7420656e6f7567682066756e6473000000000000000000000000000000006000830152602082019050919050565b61253d816127a3565b82525050565b61255461254f826127a3565b6127ed565b82525050565b612563816127ad565b82525050565b60006125758284612543565b60208201915081905092915050565b6000602082019050612599600083018461222e565b92915050565b600060208201905081810360008301526125b9818461223d565b905092915050565b600060208201905081810360008301526125da81612276565b9050919050565b600060208201905081810360008301526125fa816122dc565b9050919050565b6000602082019050818103600083015261261a8161231c565b9050919050565b6000602082019050818103600083015261263a8161235c565b9050919050565b6000602082019050818103600083015261265a816123c2565b9050919050565b6000602082019050818103600083015261267a81612428565b9050919050565b6000602082019050818103600083015261269a8161248e565b9050919050565b600060208201905081810360008301526126ba816124f4565b9050919050565b60006020820190506126d66000830184612534565b92915050565b60006040820190506126f16000830185612534565b6126fe6020830184612534565b9392505050565b600060408201905061271a6000830185612534565b612727602083018461255a565b9392505050565b6000602082019050612743600083018461255a565b92915050565b600081519050919050565b600082825260208201905092915050565b600061277082612783565b9050919050565b60008115159050919050565b600073ffffffffffffffffffffffffffffffffffffffff82169050919050565b6000819050919050565b600060ff82169050919050565b60005b838110156127d85780820151818401526020810190506127bd565b838111156127e7576000848401525b50505050565b6000819050919050565b6000601f19601f8301169050919050565b61281181612765565b811461281c57600080fd5b50565b612828816127a3565b811461283357600080fd5b50565b61283f816127ad565b811461284a57600080fd5b5056fea2646970667358221220f75506a95b54ab75b8b89d20e66fb8472a23099693871978276064ec4f571dcf64736f6c634300060c0033",
  "immutableReferences": {},
  "source": "pragma solidity ^0.6.8;\npragma experimental ABIEncoderV2;\n\nimport \"@openzeppelin/contracts/math/SafeMath.sol\";\nimport \"@openzeppelin/contracts/token/ERC20/IERC20.sol\";\nimport \"./BinToken.sol\";\nimport \"./BinStaking.sol\";\n\ninterface IStdReference {\n    /// A structure returned whenever someone requests for standard reference data.\n    struct ReferenceData {\n        uint256 rate; // base/quote exchange rate, multiplied by 1e18.\n        uint256 lastUpdatedBase; // UNIX epoch of the last time when base price gets updated.\n        uint256 lastUpdatedQuote; // UNIX epoch of the last time when quote price gets updated.\n    }\n\n    /// Returns the price data for the given base/quote pair. Revert if not available.\n    function getReferenceData(string calldata _base, string calldata _quote)\n        external\n        view\n        returns (ReferenceData memory);\n\n    /// Similar to getReferenceData, but with multiple base/quote pairs at once.\n    function getReferenceDataBulk(string[] calldata _bases, string[] calldata _quotes)\n        external\n        view\n        returns (ReferenceData[] memory);\n}\n\n\n//SPDX-License-Identifier: UNLICENSED\ncontract BinaryBet {\n    using SafeMath for uint256;\n\n    //Structs and enums\n    enum BetSide {down, up} \n    enum BetResult {down, up, tie}\n\n    struct Pool {\n        uint downValue;\n        uint upValue;\n    }\n\n    //Betting parameters\n    IStdReference oracle;\n    address governance;\n    uint public fee;\n    uint public windowDuration; //in blocks\n    uint public firstBlock;\n    BinaryStaking staking; \n    address payable stakingAddress;\n\n    //Window management\n    mapping (uint => Pool) public pools; //windowNumber => Pool\n    mapping(uint => uint256) public  windowPrice; //first price collection at the window.\n    uint public firstWindow = 1; //Any bet before first block of betting is directed to the first window.\n    uint public windowOffset; //used make window continuous and monotonically increasing when window duration and first block changes.\n    uint public accumulatedFees;\n\n    //User variables\n    mapping (address => uint) public balance;\n    mapping (address => mapping(uint => Pool)) public  userStake;\n    mapping (address => mapping(uint => bool)) public  userBetted;\n    mapping (address => uint[]) public userBets;\n\n\n    //EVENTS\n    event newBet(address indexed user, uint indexed windowNumber, uint value, uint8 side);\n    event newDeposit(address indexed user, uint value);\n    event newWithdraw(address indexed user, uint value);\n    event betSettled(uint indexed windowNumber, address indexed user, uint gain);\n    event priceUpdated(uint indexed windowNumber, uint256 price);\n\n    \n    modifier onlyGovernance() {\n        require(msg.sender == governance, \"only governance can call this method\");\n        _;\n    }\n\n    constructor(uint _windowDuration, uint _fee) public {\n        require(_fee <= 100);\n        oracle = IStdReference(address(0xDA7a001b254CD22e46d3eAB04d937489c93174C3));\n        firstBlock = block.number;\n        windowDuration = _windowDuration;\n\n        fee = _fee;\n        governance = msg.sender;\n        firstWindow = 1;\n    }\n//=============GOVERNANCE FUNCTIONS=============================================\n    function changeGovernance(address newGovernance) onlyGovernance public{\n        governance = newGovernance;\n    }\n\n    function changeWindowSize(uint windowSize) onlyGovernance public {\n        require(windowSize > 0, \"window size should be strictly positive\");\n        uint currentWindow = getWindowNumber(block.number, windowDuration, firstBlock, windowOffset, firstWindow);\n        firstBlock = getWindowStartingBlock(currentWindow.add(1), windowDuration, firstBlock, windowOffset);\n        windowOffset = currentWindow;\n        firstWindow = currentWindow;\n        windowDuration = windowSize;\n    }\n\n    function setStakingAddress(address stakingContract) external {\n        require(stakingAddress == address(0), \"staking address already set\");\n        stakingAddress = payable(stakingContract);\n        staking = BinaryStaking(stakingAddress); \n    }\n\n    function deposit() payable external {\n        updatePrice();\n        balance[msg.sender] = balance[msg.sender].add(msg.value);\n        emit newDeposit(msg.sender, msg.value);\n    }\n\n    function withdraw(uint value) external {\n        updatePrice();\n        updateBalance(msg.sender);\n\n        require(value <= balance[msg.sender], \"not enough funds\");\n        balance[msg.sender] = balance[msg.sender].sub(value);\n        msg.sender.transfer(value);\n\n        emit newWithdraw(msg.sender, value);\n\n    }\n\n    function placeBet (uint betValue, uint8 side) payable external {\n        updatePrice();\n        updateBalance(msg.sender);\n                    \n        uint windowNumber = getWindowNumber(block.number, windowDuration, firstBlock, windowOffset, firstWindow);\n        require(!userBetted[msg.sender][windowNumber], \"user can only bet one time per window\"); \n        require(betValue <= balance[msg.sender].add(msg.value), \"not enough money to place this bet\");\n\n        //betValue <= balance + msg.value\n        //0 <= balance + msg.value - betValue\n        balance[msg.sender] = balance[msg.sender].add(msg.value).sub(betValue);\n\n        uint betFee = computeFee(betValue, fee); \n        accumulatedFees = accumulatedFees.add(betFee);\n        uint value = betValue.sub(betFee);\n\n        userBets[msg.sender].push(windowNumber);\n        userBetted[msg.sender][windowNumber] = true;\n        \n        //Update the pool for the window.\n        Pool memory oldPool = pools[windowNumber];\n        (uint newDown, uint newUp) = updatePool(oldPool.downValue, oldPool.upValue, side, value);\n        pools[windowNumber] = Pool(newDown, newUp);\n\n        //Update the user stake for the window.\n        Pool memory oldStake = userStake[msg.sender][windowNumber];\n        (newDown, newUp) = updatePool(oldStake.downValue, oldStake.upValue, side, value);\n        userStake[msg.sender][windowNumber] = Pool(newDown, newUp);\n\n        emit newBet(msg.sender, windowNumber, value, side);\n    }\n\n    function updateBalance(address user) public {\n        uint[] storage userWindowsList = userBets[user];\n        if(userWindowsList.length == 0) {\n            //No bets to settle\n            return;\n        }\n\n        for(uint i = userWindowsList.length; i > 0; i--) {\n            //Maximum number of itens in list is 2, when the user bets on 2 subsequent windows and the first window is not yet settled.\n            uint window = userWindowsList[i-1];\n            uint currentWindow = getWindowNumber(block.number, windowDuration, firstBlock, windowOffset, firstWindow);\n            if(currentWindow <= window + 1) {\n                //window not yet settled\n                continue;\n            }\n\n            //Remove window from list of unsettled bets.\n            userWindowsList[i-1] = userWindowsList[userWindowsList.length -1];\n            userWindowsList.pop();\n\n            (uint256 referencePrice, uint256 settlementPrice) = getWindowBetPrices(window);\n            uint8 result = betResult(referencePrice, settlementPrice);\n            if (referencePrice == 0 || settlementPrice == 0) {\n                //if the price was not updated for the window it is considered a tie and players can get their money back.\n                result = 2;\n            }\n\n            Pool memory stake = userStake[user][window];\n            Pool memory pool = pools[window];\n            (uint windowGain, uint fees) = settleBet(stake.upValue, stake.downValue, pool.upValue, pool.downValue, result);\n\n            balance[msg.sender] = balance[msg.sender].add(windowGain);\n            accumulatedFees = accumulatedFees.add(fees);\n\n            emit betSettled(window, user, windowGain);\n        }\n\n        if(accumulatedFees > 0) {\n            staking.receiveFunds.value(accumulatedFees)();\n            accumulatedFees = 0;\n        }\n\n    }\n\n    function settleBet(uint upStake, uint downStake, uint poolUp, uint poolDown, uint8 betResult) public pure returns (uint gain, uint fees) {\n        BetResult result = BetResult(betResult);\n        uint poolTotal = poolUp.add(poolDown);\n        if (result == BetResult.up && poolUp != 0) {\n            gain = (upStake.mul(poolTotal)).div(poolUp);\n        } \n\n        else if (result == BetResult.down && poolDown != 0) {\n            gain = (downStake.mul(poolTotal)).div(poolDown);\n        }\n        else if (result == BetResult.tie) {\n            gain = upStake.add(downStake);\n        }\n        else {\n            //If the winning pool is empty, all stake goes to the fees.\n            gain = 0;\n            fees = upStake.add(downStake);\n        }\n    }\n\n   function betResult(uint256 referencePrice, uint256 settlementPrice) public pure returns(uint8){\n        if(settlementPrice < referencePrice) {\n            return 0;\n        }\n        else if(settlementPrice > referencePrice) {\n            return 1;\n        }\n        return 2;\n    }\n\n\n    function updatePool(uint downValue, uint upValue, uint8 side, uint value) public pure returns(uint, uint){\n        BetSide betSide = BetSide(side);\n        if (betSide == BetSide.down) {\n            return (downValue.add(value), upValue);\n        }\n        if (betSide == BetSide.up) {\n            return (downValue, upValue.add(value));\n        }\n    }\n\n    function getWindowNumber (uint currentBlock, uint _windowDuration, uint _firstBlock, uint _windowOffset, uint _firstWindow) public pure returns (uint windowNumber) {\n        if (currentBlock < _firstBlock) {\n            windowNumber = _firstWindow;\n        }\n        else {\n        //n = floor((block - first_block)/window_size  + 1)\n            windowNumber = ((currentBlock.sub(_firstBlock)).div(_windowDuration)).add(_windowOffset).add(1); //integer division => floor    \n        }\n\n    }\n\n    function getWindowStartingBlock (uint windowNumber, uint _windowDuration, uint _firstBlock, uint _windowOffset) public pure returns (uint startingBlock) {\n        //firstBlock + (n-1 - (offset + 1))*window_size\n        startingBlock =  _firstBlock.add((windowNumber.sub(1).sub(_windowOffset)).mul(_windowDuration ));\n    }\n\n    function computeFee(uint value, uint _fee) public pure returns (uint betFee) {\n        betFee = (value.mul(_fee)).div(100);\n\n    }\n\n\n    function updatePrice() public {\n        uint window = getWindowNumber(block.number, windowDuration, firstBlock, windowOffset, firstWindow);\n        if(windowPrice[window] == 0) {\n            windowPrice[window] = priceOracle();\n            emit priceUpdated(window, windowPrice[window]);\n        }\n    }\n\n    function priceOracle() internal returns (uint256 currentPrice){\n        currentPrice =  (uint(keccak256(abi.encodePacked(now)))%20 + 640);\n    }\n\n    //Getters\n    function getPoolValues(uint windowNumber) public view returns (uint, uint) {\n        Pool memory pool = pools[windowNumber];\n        return (pool.downValue, pool.upValue);\n    }\n\n    function getUserStake(uint windowNumber, address user) public view returns (uint, uint) {\n        Pool  memory stake  = userStake[user][windowNumber];\n        return (stake.downValue, stake.upValue);\n    }\n\n    function getBalance(address user) public view returns(uint) {\n        return balance[user];\n    }\n\n    function getWindowBetPrices(uint window) public view returns(uint256, uint256) {\n        return (windowPrice[window+1], windowPrice[window+2]);\n    }\n}\n",
  "sourcePath": "/home/pedroargento/bot/contracts/BinaryBet.sol",
  "compiler": {
    "name": "solc",
    "version": "0.6.12+commit.27d51765.Emscripten.clang"
  },
  "schemaVersion": "3.3.3",
  "updatedAt": "2021-05-16T22:22:14.513Z",
  "networkType": "ethereum",
  "devdoc": {
    "kind": "dev",
    "methods": {},
    "version": 1
  },
  "userdoc": {
    "kind": "user",
    "methods": {},
    "version": 1
  }
}