{
  "contractName": "BinaryStaking",
  "abi": [
    {
      "inputs": [
        {
          "internalType": "address",
          "name": "token",
          "type": "address"
        }
      ],
      "stateMutability": "nonpayable",
      "type": "constructor"
    },
    {
      "anonymous": false,
      "inputs": [
        {
          "indexed": false,
          "internalType": "address",
          "name": "user",
          "type": "address"
        },
        {
          "indexed": false,
          "internalType": "uint256",
          "name": "amount",
          "type": "uint256"
        }
      ],
      "name": "Staked",
      "type": "event"
    },
    {
      "anonymous": false,
      "inputs": [
        {
          "indexed": false,
          "internalType": "address",
          "name": "user",
          "type": "address"
        },
        {
          "indexed": false,
          "internalType": "uint256",
          "name": "amount",
          "type": "uint256"
        }
      ],
      "name": "Unstaked",
      "type": "event"
    },
    {
      "inputs": [],
      "name": "binToken",
      "outputs": [
        {
          "internalType": "contract IERC20",
          "name": "",
          "type": "address"
        }
      ],
      "stateMutability": "view",
      "type": "function",
      "constant": true
    },
    {
      "inputs": [],
      "name": "receiveFunds",
      "outputs": [],
      "stateMutability": "payable",
      "type": "function",
      "payable": true
    },
    {
      "inputs": [
        {
          "internalType": "uint256",
          "name": "amount",
          "type": "uint256"
        }
      ],
      "name": "stake",
      "outputs": [],
      "stateMutability": "nonpayable",
      "type": "function"
    },
    {
      "inputs": [
        {
          "internalType": "uint256",
          "name": "amount",
          "type": "uint256"
        }
      ],
      "name": "unstake",
      "outputs": [],
      "stateMutability": "nonpayable",
      "type": "function"
    },
    {
      "inputs": [
        {
          "internalType": "address",
          "name": "user",
          "type": "address"
        }
      ],
      "name": "release",
      "outputs": [],
      "stateMutability": "nonpayable",
      "type": "function"
    }
  ],
  "bytecode": "0x60806040526103e860025534801561001657600080fd5b50604051610a80380380610a808339818101604052602081101561003957600080fd5b5051600180546001600160a01b03199081163317909155600080546001600160a01b0390931692909116919091179055610a08806100786000396000f3fe6080604052600436106100495760003560e01c80625c33e11461004e57806319165587146100585780632e17de781461008b578063a694fc3a146100b5578063fe4fdc4e146100df575b600080fd5b610056610110565b005b34801561006457600080fd5b506100566004803603602081101561007b57600080fd5b50356001600160a01b0316610282565b34801561009757600080fd5b50610056600480360360208110156100ae57600080fd5b50356103bd565b3480156100c157600080fd5b50610056600480360360208110156100d857600080fd5b503561056d565b3480156100eb57600080fd5b506100f4610766565b604080516001600160a01b039092168252519081900360200190f35b600054604080516370a0823160e01b8152306004820152905134926001600160a01b0316916370a08231916024808301926020929190829003018186803b15801561015a57600080fd5b505afa15801561016e573d6000803e3d6000fd5b505050506040513d602081101561018457600080fd5b50511561024357600254600054604080516370a0823160e01b8152306004820152905161023b9361022c939092610220926001600160a01b03909216916370a0823191602480820192602092909190829003018186803b1580156101e757600080fd5b505afa1580156101fb573d6000803e3d6000fd5b505050506040513d602081101561021157600080fd5b5051859063ffffffff61077516565b9063ffffffff6107c016565b6004549063ffffffff61081916565b60045561027f565b6001546040516001600160a01b039091169082156108fc029083906000818181858888f1935050505015801561027d573d6000803e3d6000fd5b505b50565b60045461028e5761027f565b6001600160a01b0381166000908152600360205260408120600254815460018301546004549394936102dc93926102d09290916102209163ffffffff61087316565b9063ffffffff61077516565b600054604080516370a0823160e01b8152306004820152905192935061037792610368926001600160a01b0316916370a08231916024808301926020929190829003018186803b15801561032f57600080fd5b505afa158015610343573d6000803e3d6000fd5b505050506040513d602081101561035957600080fd5b5051839063ffffffff61077516565b6004549063ffffffff61087316565b600481905560018301556040516001600160a01b0384169082156108fc029083906000818181858888f193505050501580156103b7573d6000803e3d6000fd5b50505050565b60008111610412576040805162461bcd60e51b815260206004820152601f60248201527f416d6f756e742073686f756c642062652067726561746572207468616e203000604482015290519081900360640190fd5b33600090815260036020526040902054811115610476576040805162461bcd60e51b815260206004820181905260248201527f43616e6e6f7420756e7374616b65206d6f7265207468616e2062616c616e6365604482015290519081900360640190fd5b61047f33610282565b3360009081526003602052604090205461049f908263ffffffff61087316565b336000818152600360209081526040808320949094558154845163a9059cbb60e01b815260048101949094526024840186905293516001600160a01b039094169363a9059cbb93604480820194918390030190829087803b15801561050357600080fd5b505af1158015610517573d6000803e3d6000fd5b505050506040513d602081101561052d57600080fd5b5050604080513381526020810183905281517f0f5bb82176feb1b5e747e28471aa92156a04d9f3ab9f45f28e2d704232b93f75929181900390910190a150565b600081116105c2576040805162461bcd60e51b815260206004820152601f60248201527f416d6f756e742073686f756c642062652067726561746572207468616e203000604482015290519081900360640190fd5b6000805460408051636eb1769f60e11b815233600482015230602482015290516001600160a01b039092169163dd62ed3e91604480820192602092909190829003018186803b15801561061457600080fd5b505afa158015610628573d6000803e3d6000fd5b505050506040513d602081101561063e57600080fd5b505133600090815260036020526040902054909150156106615761066133610282565b60008054604080516323b872dd60e01b81523360048201523060248201526044810186905290516001600160a01b03909216926323b872dd926064808401936020939083900390910190829087803b1580156106bc57600080fd5b505af11580156106d0573d6000803e3d6000fd5b505050506040513d60208110156106e657600080fd5b505033600090815260036020526040902054610708908363ffffffff61081916565b33600081815260036020908152604091829020938455600454600190940193909355805191825291810184905281517f9e71bc8eea02a63969f509818f2dafb9254532904319f9dbda79b67bd34a5f3d929181900390910190a15050565b6000546001600160a01b031681565b60006107b783836040518060400160405280601a81526020017f536166654d6174683a206469766973696f6e206279207a65726f0000000000008152506108b5565b90505b92915050565b6000826107cf575060006107ba565b828202828482816107dc57fe5b04146107b75760405162461bcd60e51b81526004018080602001828103825260218152602001806109b26021913960400191505060405180910390fd5b6000828201838110156107b7576040805162461bcd60e51b815260206004820152601b60248201527f536166654d6174683a206164646974696f6e206f766572666c6f770000000000604482015290519081900360640190fd5b60006107b783836040518060400160405280601e81526020017f536166654d6174683a207375627472616374696f6e206f766572666c6f770000815250610957565b600081836109415760405162461bcd60e51b81526004018080602001828103825283818151815260200191508051906020019080838360005b838110156109065781810151838201526020016108ee565b50505050905090810190601f1680156109335780820380516001836020036101000a031916815260200191505b509250505060405180910390fd5b50600083858161094d57fe5b0495945050505050565b600081848411156109a95760405162461bcd60e51b81526020600482018181528351602484015283519092839260449091019190850190808383600083156109065781810151838201526020016108ee565b50505090039056fe536166654d6174683a206d756c7469706c69636174696f6e206f766572666c6f77a2646970667358221220f016d7e17a32abd1da9f57de71ee38de82835db0bdfc15f7558f126b20bf796364736f6c63430006080033",
  "immutableReferences": {},
  "source": "pragma solidity ^0.6.8;\nimport \"@openzeppelin/contracts/math/SafeMath.sol\";\nimport \"@openzeppelin/contracts/token/ERC20/IERC20.sol\";\nimport \"./BinToken.sol\";\n\n//SPDX-License-Identifier: UNLICENSED\ncontract BinaryStaking {\n    using SafeMath for uint256;\n    IERC20 public binToken;\n\n    address payable owner;\n    uint MUL_CONST = 1000;\n    event Staked(address user, uint amount);\n    event Unstaked(address user, uint amount);\n    struct StakingAccount {\n        uint stakedBin;\n        uint valueWhenLastRelesed; //Global acummulated value of new_rewards/total_staked when user last got rewards. \n    }\n\n    mapping(address => StakingAccount) stakingBalance;\n    uint accumulatedRewards; //(per staked token)\n\n    constructor(address token) public {\n        owner = msg.sender;\n        binToken = BinToken(token);\n    }\n\n    function receiveFunds() public payable {\n        uint value = msg.value;\n        if (binToken.balanceOf(address(this)) != 0) {\n            accumulatedRewards = accumulatedRewards.add(value.div(binToken.balanceOf(address(this))).mul(MUL_CONST));\n        }\n        else {\n            owner.transfer(value);\n        }\n    }\n\n    function stake(uint amount) external{\n        require(amount > 0, \"Amount should be greater than 0\");\n        uint allowance = binToken.allowance(msg.sender, address(this));\n\n        if (stakingBalance[msg.sender].stakedBin != 0) {\n            release(msg.sender);\n        }\n\n        binToken.transferFrom(msg.sender, address(this), amount);\n        stakingBalance[msg.sender].stakedBin = stakingBalance[msg.sender].stakedBin.add(amount);\n        stakingBalance[msg.sender].valueWhenLastRelesed = accumulatedRewards;\n\n        emit Staked(msg.sender, amount);\n    }\n\n    function unstake(uint amount) external {\n        require(amount > 0, \"Amount should be greater than 0\");\n        require(amount <= stakingBalance[msg.sender].stakedBin, \"Cannot unstake more than balance\");\n\n        release(msg.sender);\n        stakingBalance[msg.sender].stakedBin = stakingBalance[msg.sender].stakedBin.sub(amount);\n\n        binToken.transfer(msg.sender, amount);\n        emit Unstaked(msg.sender, amount);\n    }\n\n    function release (address user) public {\n        if (accumulatedRewards == 0){\n            return;\n        }\n        StakingAccount storage balance = stakingBalance[user];\n        uint amount = (accumulatedRewards.sub(balance.valueWhenLastRelesed)).mul(balance.stakedBin).div(MUL_CONST);\n        \n        accumulatedRewards = accumulatedRewards.sub(amount.div( binToken.balanceOf(address(this))));\n        balance.valueWhenLastRelesed = accumulatedRewards;                                                        \n        \n        payable(user).transfer(amount);\n        \n    }\n\n}\n\n",
  "sourcePath": "/home/pedroargento/bot/contracts/BinStaking.sol",
  "compiler": {
    "name": "solc",
    "version": "0.6.8+commit.0bbfe453.Emscripten.clang"
  },
  "schemaVersion": "3.3.3",
  "updatedAt": "2021-05-06T14:30:10.339Z",
  "networkType": "ethereum",
  "devdoc": {
    "methods": {}
  },
  "userdoc": {
    "methods": {}
  }
}