{
  "contractName": "BinaryBet",
  "abi": [
    {
      "inputs": [
        {
          "internalType": "uint256",
          "name": "_firstWindowTimestamp",
          "type": "uint256"
        },
        {
          "internalType": "uint256",
          "name": "_windowDuration",
          "type": "uint256"
        },
        {
          "internalType": "uint256",
          "name": "_fee",
          "type": "uint256"
        }
      ],
      "stateMutability": "nonpayable",
      "type": "constructor"
    },
    {
      "inputs": [],
      "name": "deposit",
      "outputs": [],
      "stateMutability": "payable",
      "type": "function",
      "payable": true
    },
    {
      "inputs": [
        {
          "internalType": "uint256",
          "name": "value",
          "type": "uint256"
        }
      ],
      "name": "withdraw",
      "outputs": [],
      "stateMutability": "nonpayable",
      "type": "function"
    },
    {
      "inputs": [
        {
          "internalType": "uint256",
          "name": "betValue",
          "type": "uint256"
        },
        {
          "internalType": "enum BinaryBet.BetSide",
          "name": "side",
          "type": "uint8"
        }
      ],
      "name": "placeBet",
      "outputs": [],
      "stateMutability": "payable",
      "type": "function",
      "payable": true
    },
    {
      "inputs": [
        {
          "internalType": "address",
          "name": "user",
          "type": "address"
        }
      ],
      "name": "updateBalance",
      "outputs": [
        {
          "internalType": "uint256",
          "name": "",
          "type": "uint256"
        }
      ],
      "stateMutability": "nonpayable",
      "type": "function"
    },
    {
      "inputs": [
        {
          "internalType": "uint256",
          "name": "upStake",
          "type": "uint256"
        },
        {
          "internalType": "uint256",
          "name": "downStake",
          "type": "uint256"
        },
        {
          "internalType": "uint256",
          "name": "poolUp",
          "type": "uint256"
        },
        {
          "internalType": "uint256",
          "name": "poolDown",
          "type": "uint256"
        },
        {
          "internalType": "uint8",
          "name": "betResult",
          "type": "uint8"
        }
      ],
      "name": "settleBet",
      "outputs": [
        {
          "internalType": "uint256",
          "name": "",
          "type": "uint256"
        }
      ],
      "stateMutability": "pure",
      "type": "function",
      "constant": true
    },
    {
      "inputs": [
        {
          "internalType": "uint256",
          "name": "referencePrice",
          "type": "uint256"
        },
        {
          "internalType": "uint256",
          "name": "settlementPrice",
          "type": "uint256"
        }
      ],
      "name": "betResult",
      "outputs": [
        {
          "internalType": "uint8",
          "name": "",
          "type": "uint8"
        }
      ],
      "stateMutability": "pure",
      "type": "function",
      "constant": true
    },
    {
      "inputs": [
        {
          "internalType": "uint256",
          "name": "windowNumber",
          "type": "uint256"
        },
        {
          "internalType": "uint256",
          "name": "value",
          "type": "uint256"
        },
        {
          "internalType": "uint8",
          "name": "betSide",
          "type": "uint8"
        }
      ],
      "name": "updatePool",
      "outputs": [],
      "stateMutability": "nonpayable",
      "type": "function"
    },
    {
      "inputs": [
        {
          "internalType": "uint256",
          "name": "currentTimestamp",
          "type": "uint256"
        }
      ],
      "name": "getTimestampWindow",
      "outputs": [
        {
          "internalType": "uint256",
          "name": "windowNumber",
          "type": "uint256"
        }
      ],
      "stateMutability": "view",
      "type": "function",
      "constant": true
    },
    {
      "inputs": [
        {
          "internalType": "uint256",
          "name": "windowNumber",
          "type": "uint256"
        }
      ],
      "name": "getWindowStartingTimestamp",
      "outputs": [
        {
          "internalType": "uint256",
          "name": "startingTimestamp",
          "type": "uint256"
        }
      ],
      "stateMutability": "view",
      "type": "function",
      "constant": true
    },
    {
      "inputs": [
        {
          "internalType": "uint256",
          "name": "value",
          "type": "uint256"
        },
        {
          "internalType": "uint256",
          "name": "_fee",
          "type": "uint256"
        }
      ],
      "name": "computeFee",
      "outputs": [
        {
          "internalType": "uint256",
          "name": "betFee",
          "type": "uint256"
        }
      ],
      "stateMutability": "pure",
      "type": "function",
      "constant": true
    },
    {
      "inputs": [
        {
          "internalType": "uint256",
          "name": "windowNumber",
          "type": "uint256"
        }
      ],
      "name": "getPoolValues",
      "outputs": [
        {
          "internalType": "uint256",
          "name": "",
          "type": "uint256"
        },
        {
          "internalType": "uint256",
          "name": "",
          "type": "uint256"
        },
        {
          "internalType": "uint256",
          "name": "",
          "type": "uint256"
        },
        {
          "internalType": "uint256",
          "name": "",
          "type": "uint256"
        }
      ],
      "stateMutability": "view",
      "type": "function",
      "constant": true
    }
  ],
  "bytecode": "0x60806040523480156200001157600080fd5b50604051620022fd380380620022fd833981810160405260608110156200003757600080fd5b508051602082015160409092015190919060648111156200005757600080fd5b6040518060a001604052808481526020016200008284866200021260201b62000a941790919060201c565b8152602001620000bb620000a66002866200027660201b62000aee1790919060201c565b866200021260201b62000a941790919060201c565b8152600060208083018290526040928301829052835160048190558482015160058190559385015160068190556060860151600781905560809096015160088190556009899055848052600a9093527f13da86008ba1c6922daee3e07db95305ef49ebced9f5467a0b8613fcc6b343e3919091557f13da86008ba1c6922daee3e07db95305ef49ebced9f5467a0b8613fcc6b343e4939093557f13da86008ba1c6922daee3e07db95305ef49ebced9f5467a0b8613fcc6b343e5929092557f13da86008ba1c6922daee3e07db95305ef49ebced9f5467a0b8613fcc6b343e6929092557f13da86008ba1c6922daee3e07db95305ef49ebced9f5467a0b8613fcc6b343e755819055600180546001600160a01b03191633179055620001e86001600160e01b03620002d416565b600280546001600160a01b0319166001600160a01b03929092169190911790555062000317915050565b6000828201838110156200026d576040805162461bcd60e51b815260206004820152601b60248201527f536166654d6174683a206164646974696f6e206f766572666c6f770000000000604482015290519081900360640190fd5b90505b92915050565b600082620002875750600062000270565b828202828482816200029557fe5b04146200026d5760405162461bcd60e51b8152600401808060200182810382526021815260200180620022dc6021913960400191505060405180910390fd5b600080604051620002e59062000309565b604051809103906000f08015801562000302573d6000803e3d6000fd5b5091505090565b611149806200119383390190565b610e6c80620003276000396000f3fe60806040526004361061009c5760003560e01c806333299db81161006457806333299db8146101cb57806340b8405a146101f5578063a7a419f114610228578063ca055e5314610252578063ccb599c414610297578063d0e30db0146102d05761009c565b806303edf914146100a15780630eff4d88146100c95780631bb5abf9146101195780632e1a7d4d1461015f5780632ff284c214610189575b600080fd5b6100c7600480360360408110156100b757600080fd5b508035906020013560ff166102d8565b005b3480156100d557600080fd5b506100f3600480360360208110156100ec57600080fd5b50356104c7565b604080519485526020850193909352838301919091526060830152519081900360800190f35b34801561012557600080fd5b506101496004803603604081101561013c57600080fd5b508035906020013561052f565b6040805160ff9092168252519081900360200190f35b34801561016b57600080fd5b506100c76004803603602081101561018257600080fd5b503561055b565b34801561019557600080fd5b506101b9600480360360408110156101ac57600080fd5b5080359060200135610647565b60408051918252519081900360200190f35b3480156101d757600080fd5b506101b9600480360360208110156101ee57600080fd5b5035610671565b34801561020157600080fd5b506101b96004803603602081101561021857600080fd5b50356001600160a01b03166106d3565b34801561023457600080fd5b506101b96004803603602081101561024b57600080fd5b5035610858565b34801561025e57600080fd5b506101b9600480360360a081101561027557600080fd5b508035906020810135906040810135906060810135906080013560ff166108a5565b3480156102a357600080fd5b506100c7600480360360608110156102ba57600080fd5b508035906020810135906040013560ff16610934565b6100c7610a62565b60006102e342610858565b905060006102f0336106d3565b336000908152600b6020526040902054909150610313908263ffffffff610a9416565b336000908152600b6020908152604080832093909355600d81528282208583529052205460ff161561034457600080fd5b336000908152600b6020526040902054610364903463ffffffff610a9416565b8411156103a25760405162461bcd60e51b8152600401808060200182810382526022815260200180610df46022913960400191505060405180910390fd5b336000908152600b60205260409020546103d49034906103c8908763ffffffff610b4716565b9063ffffffff610a9416565b336000908152600b602052604081209190915580546103f4908690610647565b6002546040519192506001600160a01b03169082156108fc029083906000818181858888f1935050505015801561042f573d6000803e3d6000fd5b506000610442868363ffffffff610b4716565b336000908152600e60209081526040822080546001818101835591845291909220018690559091506104829085908390889081111561047d57fe5b610934565b6104993386600181111561049257fe5b8684610b89565b5050336000908152600d6020908152604080832094835293905291909120805460ff19166001179055505050565b6000806000806104d5610dc4565b50505060009283525050600a6020908152604091829020825160a081018452815481526001820154928101839052600282015493810184905260038201546060820181905260049092015460809091018190529293909190565b60008282101561054157506000610555565b8282111561055157506001610555565b5060025b92915050565b6000610566336106d3565b336000908152600b6020526040902054909150610589908263ffffffff610a9416565b336000908152600b60205260409020819055808311156105e3576040805162461bcd60e51b815260206004820152601060248201526f6e6f7420656e6f7567682066756e647360801b604482015290519081900360640190fd5b336000908152600b6020526040902054610603908463ffffffff610b4716565b336000818152600b6020526040808220939093559151909185156108fc02918691818181858888f19350505050158015610641573d6000803e3d6000fd5b50505050565b600061066a606461065e858563ffffffff610aee16565b9063ffffffff610c4116565b9392505050565b600061055561069c600954610690600186610b4790919063ffffffff16565b9063ffffffff610aee16565b60008052600a6020527f13da86008ba1c6922daee3e07db95305ef49ebced9f5467a0b8613fcc6b343e3549063ffffffff610a9416565b6001600160a01b0381166000908152600e6020526040812080548291905b6106f9610dc4565b600a600084848154811061070957fe5b906000526020600020015481526020019081526020016000206040518060a00160405290816000820154815260200160018201548152602001600282015481526020016003820154815260200160048201548152505090508060400151421015610773575061084f565b60006107828260200151610c83565b905060006107938360400151610c83565b90506000600c60008a6001600160a01b03166001600160a01b0316815260200190815260200160002060008787815481106107ca57fe5b90600052602060002001548152602001908152602001600020905060006107f1848461052f565b905060006108128360000154846001015488608001518960600151866108a5565b6000600185018190558455905061082f898263ffffffff610a9416565b985087878154811061083d57fe5b60009182526020822001555050505050505b600019016106f1565b6009546000808052600a6020527f13da86008ba1c6922daee3e07db95305ef49ebced9f5467a0b8613fcc6b343e3549091610555916001916103c89161065e90879063ffffffff610b4716565b6000808260ff1660028111156108b757fe5b905060006108cb868663ffffffff610a9416565b9050600060018360028111156108dd57fe5b14156108f65786828a02816108ee57fe5b049050610928565b600083600281111561090457fe5b14156109155785828902816108ee57fe5b610925898963ffffffff610a9416565b90505b98975050505050505050565b600061093f84610671565b6000858152600a60205260409020600201549091506109b65760095461096c90829063ffffffff610a9416565b6000858152600a60205260409020600101556009546109a39061099690600263ffffffff610aee16565b829063ffffffff610a9416565b6000858152600a60205260409020600201555b60008260ff1660018111156109c757fe5b905060008160018111156109d757fe5b1415610a12576000858152600a60205260409020600401546109ff908563ffffffff610a9416565b6000868152600a60205260409020600401555b6001816001811115610a2057fe5b1415610a5b576000858152600a6020526040902060030154610a48908563ffffffff610a9416565b6000868152600a60205260409020600301555b5050505050565b336000908152600b6020526040902054610a82903463ffffffff610a9416565b336000908152600b6020526040902055565b60008282018381101561066a576040805162461bcd60e51b815260206004820152601b60248201527f536166654d6174683a206164646974696f6e206f766572666c6f770000000000604482015290519081900360640190fd5b600082610afd57506000610555565b82820282848281610b0a57fe5b041461066a5760405162461bcd60e51b8152600401808060200182810382526021815260200180610e166021913960400191505060405180910390fd5b600061066a83836040518060400160405280601e81526020017f536166654d6174683a207375627472616374696f6e206f766572666c6f770000815250610cc2565b60008360ff166001811115610b9a57fe5b90506000816001811115610baa57fe5b1415610bef576001600160a01b0385166000908152600c6020908152604080832086845290915290206001810154610be8908463ffffffff610a9416565b6001909101555b6001816001811115610bfd57fe5b1415610a5b576001600160a01b0385166000908152600c6020908152604080832086845290915290208054610c38908463ffffffff610a9416565b90555050505050565b600061066a83836040518060400160405280601a81526020017f536166654d6174683a206469766973696f6e206279207a65726f000000000000815250610d59565b600081815260036020526040812054610caf57610c9f82610dbe565b6000838152600360205260409020555b5060009081526003602052604090205490565b60008184841115610d515760405162461bcd60e51b81526004018080602001828103825283818151815260200191508051906020019080838360005b83811015610d16578181015183820152602001610cfe565b50505050905090810190601f168015610d435780820380516001836020036101000a031916815260200191505b509250505060405180910390fd5b505050900390565b60008183610da85760405162461bcd60e51b8152602060048201818152835160248401528351909283926044909101919085019080838360008315610d16578181015183820152602001610cfe565b506000838581610db457fe5b0495945050505050565b50606490565b6040518060a001604052806000815260200160008152602001600081526020016000815260200160008152509056fe6e6f7420656e6f756768206d6f6e657920746f20706c616365207468697320626574536166654d6174683a206d756c7469706c69636174696f6e206f766572666c6f77a2646970667358221220eff653789336933a7d0bf67fef66ffea3a5a3ff550fc48e20973fc74b79f387a64736f6c6343000608003360806040523480156200001157600080fd5b50604051806040016040528060098152602001682134b7102a37b5b2b760b91b815250604051806040016040528060038152602001622124a760e91b81525081600390805190602001906200006892919062000234565b5080516200007e90600490602084019062000234565b50506005805460ff1916601217905550620000af336b033b2e3c9fd0803ce80000006001600160e01b03620000b516565b620002d9565b6001600160a01b03821662000111576040805162461bcd60e51b815260206004820152601f60248201527f45524332303a206d696e7420746f20746865207a65726f206164647265737300604482015290519081900360640190fd5b62000128600083836001600160e01b03620001cd16565b6200014481600254620001d260201b620009021790919060201c565b6002556001600160a01b038216600090815260208181526040909120546200017791839062000902620001d2821b17901c565b6001600160a01b0383166000818152602081815260408083209490945583518581529351929391927fddf252ad1be2c89b69c2b068fc378daa952ba7f163c4a11628f55a4df523b3ef9281900390910190a35050565b505050565b6000828201838110156200022d576040805162461bcd60e51b815260206004820152601b60248201527f536166654d6174683a206164646974696f6e206f766572666c6f770000000000604482015290519081900360640190fd5b9392505050565b828054600181600116156101000203166002900490600052602060002090601f016020900481019282601f106200027757805160ff1916838001178555620002a7565b82800160010185558215620002a7579182015b82811115620002a75782518255916020019190600101906200028a565b50620002b5929150620002b9565b5090565b620002d691905b80821115620002b55760008155600101620002c0565b90565b610e6080620002e96000396000f3fe608060405234801561001057600080fd5b50600436106101005760003560e01c806340c10f1911610097578063a457c2d711610066578063a457c2d7146102ce578063a9059cbb146102fa578063dd62ed3e14610326578063f76f8d781461035457610100565b806340c10f191461026c57806370a082311461029857806395d89b41146102be578063a3f4df7e146102c657610100565b80632e0f2625116100d35780632e0f2625146102125780632ff2e9dc14610230578063313ce56714610238578063395093511461024057610100565b806306fdde0314610105578063095ea7b31461018257806318160ddd146101c257806323b872dd146101dc575b600080fd5b61010d61035c565b6040805160208082528351818301528351919283929083019185019080838360005b8381101561014757818101518382015260200161012f565b50505050905090810190601f1680156101745780820380516001836020036101000a031916815260200191505b509250505060405180910390f35b6101ae6004803603604081101561019857600080fd5b506001600160a01b0381351690602001356103f2565b604080519115158252519081900360200190f35b6101ca610410565b60408051918252519081900360200190f35b6101ae600480360360608110156101f257600080fd5b506001600160a01b03813581169160208101359091169060400135610416565b61021a6105a0565b6040805160ff9092168252519081900360200190f35b6101ca6105a5565b61021a6105b5565b6101ae6004803603604081101561025657600080fd5b506001600160a01b0381351690602001356105be565b6101ae6004803603604081101561028257600080fd5b506001600160a01b038135169060200135610617565b6101ca600480360360208110156102ae57600080fd5b50356001600160a01b0316610623565b61010d61063e565b61010d61069f565b6101ae600480360360408110156102e457600080fd5b506001600160a01b0381351690602001356106c4565b6101ae6004803603604081101561031057600080fd5b506001600160a01b038135169060200135610732565b6101ca6004803603604081101561033c57600080fd5b506001600160a01b03813581169160200135166108b8565b61010d6108e3565b60038054604080516020601f60026000196101006001881615020190951694909404938401819004810282018101909252828152606093909290918301828280156103e85780601f106103bd576101008083540402835291602001916103e8565b820191906000526020600020905b8154815290600101906020018083116103cb57829003601f168201915b5050505050905090565b60006104066103ff610963565b8484610967565b5060015b92915050565b60025490565b600083600061042482610a53565b9050818115610465576040516001600160a01b0382169083156108fc029084906000818181858888f19350505050158015610463573d6000803e3d6000fd5b505b6001600160a01b038316600090815260066020526040812047600190910155869061048f82610a53565b90508181156104d0576040516001600160a01b0382169083156108fc029084906000818181858888f193505050501580156104ce573d6000803e3d6000fd5b505b6001600160a01b03808416600090815260066020908152604080832047600190910155928d168252600781528282203383529052205488111561051257600080fd5b6001600160a01b03808b16600081815260066020818152604080842080548f9003905560078252808420338552825280842080548f90039055948e168084529181529184902080548d01905583518c8152935190937fddf252ad1be2c89b69c2b068fc378daa952ba7f163c4a11628f55a4df523b3ef92908290030190a35060019998505050505050505050565b601281565b6b033b2e3c9fd0803ce800000081565b60055460ff1690565b60006104066105cb610963565b8461061285600160006105dc610963565b6001600160a01b03908116825260208083019390935260409182016000908120918c16815292529020549063ffffffff61090216565b610967565b60006104068383610ac4565b6001600160a01b031660009081526020819052604090205490565b60048054604080516020601f60026000196101006001881615020190951694909404938401819004810282018101909252828152606093909290918301828280156103e85780601f106103bd576101008083540402835291602001916103e8565b604051806040016040528060098152602001682134b7102a37b5b2b760b91b81525081565b60006104066106d1610963565b8461061285604051806060016040528060258152602001610e0660259139600160006106fb610963565b6001600160a01b03908116825260208083019390935260409182016000908120918d1681529252902054919063ffffffff610bc016565b600033600061074082610a53565b9050818115610781576040516001600160a01b0382169083156108fc029084906000818181858888f1935050505015801561077f573d6000803e3d6000fd5b505b6001600160a01b03831660009081526006602052604081204760019091015586906107ab82610a53565b90508181156107ec576040516001600160a01b0382169083156108fc029084906000818181858888f193505050501580156107ea573d6000803e3d6000fd5b505b6001600160a01b03831660009081526006602052604080822047600190910155338252902054610822908963ffffffff610c5716565b33600090815260066020526040808220929092556001600160a01b038b1681522054610854908963ffffffff61090216565b6001600160a01b038a166000818152600660209081526040918290209390935580518b81529051919233927fddf252ad1be2c89b69c2b068fc378daa952ba7f163c4a11628f55a4df523b3ef9281900390910190a350600198975050505050505050565b6001600160a01b03918216600090815260016020908152604080832093909416825291909152205490565b604051806040016040528060038152602001622124a760e91b81525081565b60008282018381101561095c576040805162461bcd60e51b815260206004820152601b60248201527f536166654d6174683a206164646974696f6e206f766572666c6f770000000000604482015290519081900360640190fd5b9392505050565b3390565b6001600160a01b0383166109ac5760405162461bcd60e51b8152600401808060200182810382526024815260200180610de26024913960400191505060405180910390fd5b6001600160a01b0382166109f15760405162461bcd60e51b8152600401808060200182810382526022815260200180610d9f6022913960400191505060405180910390fd5b6001600160a01b03808416600081815260016020908152604080832094871680845294825291829020859055815185815291517f8c5be1e5ebec7d5bd14f71427d1e84f3dd0314c0f7b2291e5b200ac8c7c3b9259281900390910190a3505050565b6001600160a01b0381166000908152600660205260408120600101548190610a8290479063ffffffff610c5716565b905061095c610a8f610410565b6001600160a01b038516600090815260066020526040902054610ab8908463ffffffff610c9916565b9063ffffffff610cf216565b6001600160a01b038216610b1f576040805162461bcd60e51b815260206004820152601f60248201527f45524332303a206d696e7420746f20746865207a65726f206164647265737300604482015290519081900360640190fd5b610b2b60008383610d34565b600254610b3e908263ffffffff61090216565b6002556001600160a01b038216600090815260208190526040902054610b6a908263ffffffff61090216565b6001600160a01b0383166000818152602081815260408083209490945583518581529351929391927fddf252ad1be2c89b69c2b068fc378daa952ba7f163c4a11628f55a4df523b3ef9281900390910190a35050565b60008184841115610c4f5760405162461bcd60e51b81526004018080602001828103825283818151815260200191508051906020019080838360005b83811015610c14578181015183820152602001610bfc565b50505050905090810190601f168015610c415780820380516001836020036101000a031916815260200191505b509250505060405180910390fd5b505050900390565b600061095c83836040518060400160405280601e81526020017f536166654d6174683a207375627472616374696f6e206f766572666c6f770000815250610bc0565b600082610ca85750600061040a565b82820282848281610cb557fe5b041461095c5760405162461bcd60e51b8152600401808060200182810382526021815260200180610dc16021913960400191505060405180910390fd5b600061095c83836040518060400160405280601a81526020017f536166654d6174683a206469766973696f6e206279207a65726f000000000000815250610d39565b505050565b60008183610d885760405162461bcd60e51b8152602060048201818152835160248401528351909283926044909101919085019080838360008315610c14578181015183820152602001610bfc565b506000838581610d9457fe5b049594505050505056fe45524332303a20617070726f766520746f20746865207a65726f2061646472657373536166654d6174683a206d756c7469706c69636174696f6e206f766572666c6f7745524332303a20617070726f76652066726f6d20746865207a65726f206164647265737345524332303a2064656372656173656420616c6c6f77616e63652062656c6f77207a65726fa2646970667358221220130f1f73b0254578bed2fe7e85d8c338e339a63d6cd2ceb816edbdd601b2871764736f6c63430006080033536166654d6174683a206d756c7469706c69636174696f6e206f766572666c6f77",
  "immutableReferences": {},
  "source": "pragma solidity ^0.6.8;\r\nimport \"@openzeppelin/contracts/math/SafeMath.sol\";\r\nimport \"@openzeppelin/contracts/token/ERC20/IERC20.sol\";\r\n\r\nimport \"./BinToken.sol\";\r\n//SPDX-License-Identifier: UNLICENSED\r\ncontract BinaryBet {\r\n    using SafeMath for uint256;\r\n    // IERC20 private bin;\r\n\r\n    uint fee;\r\n\r\n    address payable owner;\r\n\r\n\r\n    // BinToken public token;\r\n    address payable tokenAddress;\r\n\r\n    mapping(uint => uint) ethPrice;\r\n\r\n    enum BetSide {down, up} \r\n    enum BetResult {down, up, tie}\r\n\r\n    struct Pool {\r\n        uint startingTimestamp;\r\n        uint referenceTimestamp;\r\n        uint settlementTimestamp;\r\n\r\n        uint upValue;\r\n        uint downValue;\r\n    }\r\n\r\n    Pool firstWindow;\r\n    uint windowDuration; //in timestamp\r\n\r\n    mapping (uint => Pool) pools; //windowNumber => Pool\r\n\r\n \r\n\r\n    struct Stake {\r\n        uint upStake;\r\n        uint downStake;\r\n    }\r\n    \r\n\r\n\r\n    mapping (address => uint) balance;\r\n    mapping (address => mapping(uint => Stake)) userStake;\r\n    mapping (address => mapping(uint => bool)) userBetted;\r\n\r\n    mapping (address => uint[]) userWindows;\r\n    \r\n    function deployToken() internal returns (address) {\r\n        BinToken token = new BinToken();\r\n        return address(token);\r\n        \r\n    }\r\n\r\n    \r\n    constructor(uint _firstWindowTimestamp, uint _windowDuration, uint _fee) public {\r\n        require(_fee <= 100);\r\n        //\r\n        //                  |-------------betting window-----------|--------------settlement period-----------|  \r\n        //         firstWindowTimestamp                      starting timestamp                         starting timestamp\r\n        //                                                         +                                          +            \r\n        //                                                     window size                               2*window size \r\n        //                                                         =                                          = \r\n        //                                                  referenceTimestamp                          settlementTimestamp\r\n\r\n        firstWindow = Pool(_firstWindowTimestamp, _firstWindowTimestamp.add(_windowDuration), _firstWindowTimestamp.add(_windowDuration.mul(2)), 0,0);\r\n        windowDuration = _windowDuration;\r\n        pools[0] = firstWindow;\r\n        \r\n        fee = _fee;\r\n        owner = msg.sender;\r\n\r\n        tokenAddress = payable(deployToken());\r\n        // bin = IERC20(_binAddress);\r\n    }\r\n\r\n\r\n\r\n    function deposit() payable external {\r\n        balance[msg.sender] = balance[msg.sender].add(msg.value);\r\n    }\r\n\r\n    function withdraw(uint value) external {\r\n        uint gain = updateBalance(msg.sender);\r\n        balance[msg.sender] = balance[msg.sender].add(gain);\r\n\r\n        uint funds = balance[msg.sender];\r\n        require(value <= funds, \"not enough funds\");\r\n        balance[msg.sender] = balance[msg.sender].sub(value);\r\n        msg.sender.transfer(value);\r\n\r\n    }\r\n    \r\n    function placeBet (uint betValue, BetSide side) payable external {\r\n        uint windowNumber = getTimestampWindow(block.timestamp);\r\n\r\n        uint gain = updateBalance(msg.sender);\r\n        balance[msg.sender] = balance[msg.sender].add(gain);\r\n\r\n        require(!userBetted[msg.sender][windowNumber]); //First user bet on the window.\r\n        require(betValue <= balance[msg.sender].add(msg.value), \"not enough money to place this bet\");\r\n\r\n        //betValue <= balance + msg.value\r\n        //0 <= balance + msg.value - betValue\r\n        balance[msg.sender] = balance[msg.sender].sub(betValue).add(msg.value);\r\n        uint betFee = computeFee(betValue, fee); \r\n        \r\n        \r\n        tokenAddress.transfer(betFee);\r\n\r\n        uint value = betValue.sub(betFee);\r\n        userWindows[msg.sender].push(windowNumber);\r\n\r\n        updatePool (windowNumber, value, uint8(side));\r\n        updateStake(msg.sender, uint8(side), windowNumber, value);\r\n        userBetted[msg.sender][windowNumber] = true;\r\n    }       \r\n\r\n    function updateBalance(address user) public returns(uint){\r\n        uint totalGain = 0;\r\n        uint[] storage userWindowsList = userWindows[user];\r\n        for (uint i = userWindowsList.length; i >= 0; i--) {\r\n            Pool memory pool = pools[userWindowsList[i]];\r\n            if(block.timestamp < pool.settlementTimestamp) {\r\n                continue;\r\n            }\r\n            else {\r\n                uint referencePrice =  getTimestampPrice(pool.referenceTimestamp);\r\n                uint settlementPrice = getTimestampPrice(pool.settlementTimestamp);\r\n                Stake storage stake = userStake[user][userWindowsList[i]];\r\n                uint8 result = betResult(referencePrice, settlementPrice);\r\n                uint windowGain = settleBet(stake.upStake, stake.downStake, pool.downValue, pool.upValue, result);\r\n\r\n                stake.downStake = 0;\r\n                stake.upStake = 0;\r\n                totalGain = totalGain.add(windowGain);\r\n                delete userWindowsList[i];\r\n            }\r\n        }\r\n        return totalGain;\r\n    }\r\n\r\n    function settleBet(uint upStake, uint downStake, uint poolUp, uint poolDown, uint8 betResult) public pure returns (uint) {\r\n        BetResult result = BetResult(betResult);\r\n        uint poolTotal = poolUp.add(poolDown);\r\n        uint gain = 0;\r\n        if (result == BetResult.up) {\r\n            gain = (upStake*poolTotal)/poolUp;\r\n        } \r\n        else if (result == BetResult.down) {\r\n            gain = (downStake*poolTotal)/poolDown;\r\n        }\r\n        else {\r\n            gain = upStake.add(downStake);\r\n        }\r\n        \r\n        return gain;\r\n    }\r\n\r\n   function betResult(uint referencePrice, uint settlementPrice) public pure returns(uint8){            \r\n        if(settlementPrice < referencePrice) {\r\n            return 0;\r\n        }   \r\n        else if(settlementPrice > referencePrice) {\r\n            return 1;\r\n        } \r\n        else {\r\n            return 2;\r\n        }\r\n    }\r\n \r\n    \r\n    function updateStake(address user, uint8 side, uint windowNumber, uint value) internal{\r\n        BetSide betSide = BetSide(side);\r\n        if (betSide == BetSide.down) {\r\n            Stake storage stake = userStake[user][windowNumber]; \r\n            stake.downStake = stake.downStake.add(value); \r\n        }\r\n        if (betSide == BetSide.up) {\r\n            Stake storage stake = userStake[user][windowNumber]; \r\n            stake.upStake = stake.upStake.add(value);\r\n        }\r\n        \r\n    }\r\n\r\n    //Internal but set as public for testing\r\n    function updatePool (uint windowNumber, uint value, uint8 betSide) public {\r\n        uint startingTimestamp = getWindowStartingTimestamp(windowNumber);\r\n        if (pools[windowNumber].settlementTimestamp == 0) {\r\n            //\r\n            //                  |-------------betting window-----------|--------------settlement period-----------|  \r\n            //          starting timestamp                      starting timestamp                         starting timestamp\r\n            //                                                         +                                          +\r\n            //                                                     window size                               2*window size          \r\n            \r\n            pools[windowNumber].referenceTimestamp = startingTimestamp.add(windowDuration);\r\n            pools[windowNumber].settlementTimestamp = startingTimestamp.add(windowDuration.mul(2));\r\n             \r\n        }\r\n\r\n        BetSide side = BetSide(betSide);\r\n        if (side == BetSide.down) { //down\r\n              pools[windowNumber].downValue = pools[windowNumber].downValue.add(value);\r\n        }\r\n        \r\n        if (side == BetSide.up) {\r\n              pools[windowNumber].upValue = pools[windowNumber].upValue.add(value);\r\n        }\r\n        \r\n\r\n    }  \r\n\r\n    //Internal but set as public for testing\r\n    function getTimestampWindow (uint currentTimestamp) public view returns (uint windowNumber) {\r\n        //n = floor((beg block - first_block)/window_size  + 1)\r\n        windowNumber = ((currentTimestamp.sub(pools[0].startingTimestamp)).div(windowDuration)).add(1); //integer division => floor    \r\n    }\r\n\r\n    //Internal but set as public for testing\r\n    function getWindowStartingTimestamp (uint windowNumber) public view returns (uint startingTimestamp) {\r\n        //firstBlock + (n-1)*window_size\r\n        startingTimestamp =  pools[0].startingTimestamp.add((windowNumber.sub(1)).mul(windowDuration));\r\n    }\r\n\r\n    function computeFee(uint value, uint _fee) public pure returns (uint betFee) {\r\n        betFee = (value.mul(_fee)).div(100); \r\n\r\n    }\r\n\r\n\r\n    function getTimestampPrice(uint timestamp) internal returns (uint){\r\n        if(ethPrice[timestamp] == 0) {\r\n            ethPrice[timestamp] = priceOracle(timestamp);\r\n        }\r\n        return ethPrice[timestamp];\r\n    }\r\n    \r\n    //TODO Implement price API\r\n    function priceOracle(uint timestamp) internal returns (uint currentPrice){\r\n        return 100;\r\n    }\r\n\r\n    function getPoolValues(uint windowNumber) public view returns (uint, uint, uint, uint) {\r\n        Pool memory pool = pools[windowNumber];\r\n        return (pool.settlementTimestamp, pool.downValue, pool.upValue, pool.referenceTimestamp);\r\n    }\r\n\r\n\r\n\r\n}\r\n\r\n",
  "sourcePath": "D:/pedro/Documentos/binary_bet/contracts/BinaryBet.sol",
  "compiler": {
    "name": "solc",
    "version": "0.6.8+commit.0bbfe453.Emscripten.clang"
  },
  "schemaVersion": "3.3.3",
  "updatedAt": "2021-01-05T16:35:17.423Z",
  "networkType": "ethereum",
  "devdoc": {
    "methods": {}
  },
  "userdoc": {
    "methods": {}
  }
}