{
  "contractName": "BinaryBet",
  "abi": [
    {
      "inputs": [
        {
          "internalType": "uint256",
          "name": "_windowDuration",
          "type": "uint256"
        },
        {
          "internalType": "uint256",
          "name": "_fee",
          "type": "uint256"
        },
        {
          "internalType": "address",
          "name": "aggregator",
          "type": "address"
        }
      ],
      "stateMutability": "nonpayable",
      "type": "constructor"
    },
    {
      "anonymous": false,
      "inputs": [
        {
          "indexed": true,
          "internalType": "uint256",
          "name": "windowNumber",
          "type": "uint256"
        },
        {
          "indexed": true,
          "internalType": "address",
          "name": "user",
          "type": "address"
        },
        {
          "indexed": false,
          "internalType": "uint256",
          "name": "gain",
          "type": "uint256"
        }
      ],
      "name": "betSettled",
      "type": "event"
    },
    {
      "anonymous": false,
      "inputs": [
        {
          "indexed": true,
          "internalType": "address",
          "name": "user",
          "type": "address"
        },
        {
          "indexed": true,
          "internalType": "uint256",
          "name": "windowNumber",
          "type": "uint256"
        },
        {
          "indexed": false,
          "internalType": "uint256",
          "name": "value",
          "type": "uint256"
        },
        {
          "indexed": false,
          "internalType": "uint8",
          "name": "side",
          "type": "uint8"
        }
      ],
      "name": "newBet",
      "type": "event"
    },
    {
      "anonymous": false,
      "inputs": [
        {
          "indexed": true,
          "internalType": "address",
          "name": "user",
          "type": "address"
        },
        {
          "indexed": false,
          "internalType": "uint256",
          "name": "value",
          "type": "uint256"
        }
      ],
      "name": "newDeposit",
      "type": "event"
    },
    {
      "anonymous": false,
      "inputs": [
        {
          "indexed": true,
          "internalType": "address",
          "name": "user",
          "type": "address"
        },
        {
          "indexed": false,
          "internalType": "uint256",
          "name": "value",
          "type": "uint256"
        }
      ],
      "name": "newWithdraw",
      "type": "event"
    },
    {
      "anonymous": false,
      "inputs": [
        {
          "indexed": true,
          "internalType": "uint256",
          "name": "windowNumber",
          "type": "uint256"
        },
        {
          "indexed": false,
          "internalType": "uint256",
          "name": "price",
          "type": "uint256"
        }
      ],
      "name": "priceUpdated",
      "type": "event"
    },
    {
      "inputs": [],
      "name": "accumulatedFees",
      "outputs": [
        {
          "internalType": "uint256",
          "name": "",
          "type": "uint256"
        }
      ],
      "stateMutability": "view",
      "type": "function",
      "constant": true
    },
    {
      "inputs": [
        {
          "internalType": "address",
          "name": "",
          "type": "address"
        }
      ],
      "name": "balance",
      "outputs": [
        {
          "internalType": "uint256",
          "name": "",
          "type": "uint256"
        }
      ],
      "stateMutability": "view",
      "type": "function",
      "constant": true
    },
    {
      "inputs": [],
      "name": "fee",
      "outputs": [
        {
          "internalType": "uint256",
          "name": "",
          "type": "uint256"
        }
      ],
      "stateMutability": "view",
      "type": "function",
      "constant": true
    },
    {
      "inputs": [],
      "name": "firstBlock",
      "outputs": [
        {
          "internalType": "uint256",
          "name": "",
          "type": "uint256"
        }
      ],
      "stateMutability": "view",
      "type": "function",
      "constant": true
    },
    {
      "inputs": [],
      "name": "firstWindow",
      "outputs": [
        {
          "internalType": "uint256",
          "name": "",
          "type": "uint256"
        }
      ],
      "stateMutability": "view",
      "type": "function",
      "constant": true
    },
    {
      "inputs": [
        {
          "internalType": "uint256",
          "name": "",
          "type": "uint256"
        }
      ],
      "name": "pools",
      "outputs": [
        {
          "internalType": "uint256",
          "name": "downValue",
          "type": "uint256"
        },
        {
          "internalType": "uint256",
          "name": "upValue",
          "type": "uint256"
        }
      ],
      "stateMutability": "view",
      "type": "function",
      "constant": true
    },
    {
      "inputs": [
        {
          "internalType": "address",
          "name": "",
          "type": "address"
        },
        {
          "internalType": "uint256",
          "name": "",
          "type": "uint256"
        }
      ],
      "name": "userBets",
      "outputs": [
        {
          "internalType": "uint256",
          "name": "",
          "type": "uint256"
        }
      ],
      "stateMutability": "view",
      "type": "function",
      "constant": true
    },
    {
      "inputs": [
        {
          "internalType": "address",
          "name": "",
          "type": "address"
        },
        {
          "internalType": "uint256",
          "name": "",
          "type": "uint256"
        }
      ],
      "name": "userStake",
      "outputs": [
        {
          "internalType": "uint256",
          "name": "downValue",
          "type": "uint256"
        },
        {
          "internalType": "uint256",
          "name": "upValue",
          "type": "uint256"
        }
      ],
      "stateMutability": "view",
      "type": "function",
      "constant": true
    },
    {
      "inputs": [],
      "name": "windowDuration",
      "outputs": [
        {
          "internalType": "uint256",
          "name": "",
          "type": "uint256"
        }
      ],
      "stateMutability": "view",
      "type": "function",
      "constant": true
    },
    {
      "inputs": [],
      "name": "windowOffset",
      "outputs": [
        {
          "internalType": "uint256",
          "name": "",
          "type": "uint256"
        }
      ],
      "stateMutability": "view",
      "type": "function",
      "constant": true
    },
    {
      "inputs": [
        {
          "internalType": "uint256",
          "name": "",
          "type": "uint256"
        }
      ],
      "name": "windowPrice",
      "outputs": [
        {
          "internalType": "uint256",
          "name": "",
          "type": "uint256"
        }
      ],
      "stateMutability": "view",
      "type": "function",
      "constant": true
    },
    {
      "inputs": [
        {
          "internalType": "address",
          "name": "newGovernance",
          "type": "address"
        }
      ],
      "name": "changeGovernance",
      "outputs": [],
      "stateMutability": "nonpayable",
      "type": "function"
    },
    {
      "inputs": [
        {
          "internalType": "uint256",
          "name": "windowSize",
          "type": "uint256"
        }
      ],
      "name": "changeWindowSize",
      "outputs": [],
      "stateMutability": "nonpayable",
      "type": "function"
    },
    {
      "inputs": [
        {
          "internalType": "address",
          "name": "stakingContract",
          "type": "address"
        }
      ],
      "name": "setStakingAddress",
      "outputs": [],
      "stateMutability": "nonpayable",
      "type": "function"
    },
    {
      "inputs": [
        {
          "internalType": "address",
          "name": "tokenContract",
          "type": "address"
        }
      ],
      "name": "setTokenAddress",
      "outputs": [],
      "stateMutability": "nonpayable",
      "type": "function"
    },
    {
      "inputs": [],
      "name": "deposit",
      "outputs": [],
      "stateMutability": "payable",
      "type": "function",
      "payable": true
    },
    {
      "inputs": [
        {
          "internalType": "uint256",
          "name": "value",
          "type": "uint256"
        }
      ],
      "name": "withdraw",
      "outputs": [],
      "stateMutability": "nonpayable",
      "type": "function"
    },
    {
      "inputs": [
        {
          "internalType": "uint256",
          "name": "betValue",
          "type": "uint256"
        },
        {
          "internalType": "uint8",
          "name": "side",
          "type": "uint8"
        }
      ],
      "name": "placeBet",
      "outputs": [],
      "stateMutability": "payable",
      "type": "function",
      "payable": true
    },
    {
      "inputs": [
        {
          "internalType": "address",
          "name": "user",
          "type": "address"
        }
      ],
      "name": "updateBalance",
      "outputs": [],
      "stateMutability": "nonpayable",
      "type": "function"
    },
    {
      "inputs": [
        {
          "internalType": "uint256",
          "name": "upStake",
          "type": "uint256"
        },
        {
          "internalType": "uint256",
          "name": "downStake",
          "type": "uint256"
        },
        {
          "internalType": "uint256",
          "name": "poolUp",
          "type": "uint256"
        },
        {
          "internalType": "uint256",
          "name": "poolDown",
          "type": "uint256"
        },
        {
          "internalType": "uint8",
          "name": "betResult",
          "type": "uint8"
        }
      ],
      "name": "settleBet",
      "outputs": [
        {
          "internalType": "uint256",
          "name": "gain",
          "type": "uint256"
        },
        {
          "internalType": "uint256",
          "name": "fees",
          "type": "uint256"
        }
      ],
      "stateMutability": "pure",
      "type": "function",
      "constant": true
    },
    {
      "inputs": [
        {
          "internalType": "uint256",
          "name": "referencePrice",
          "type": "uint256"
        },
        {
          "internalType": "uint256",
          "name": "settlementPrice",
          "type": "uint256"
        }
      ],
      "name": "betResult",
      "outputs": [
        {
          "internalType": "uint8",
          "name": "",
          "type": "uint8"
        }
      ],
      "stateMutability": "pure",
      "type": "function",
      "constant": true
    },
    {
      "inputs": [
        {
          "internalType": "uint256",
          "name": "upStake",
          "type": "uint256"
        },
        {
          "internalType": "uint256",
          "name": "downStake",
          "type": "uint256"
        },
        {
          "internalType": "uint256",
          "name": "poolUp",
          "type": "uint256"
        },
        {
          "internalType": "uint256",
          "name": "poolDown",
          "type": "uint256"
        }
      ],
      "name": "calculateTokenReward",
      "outputs": [
        {
          "internalType": "uint256",
          "name": "",
          "type": "uint256"
        }
      ],
      "stateMutability": "pure",
      "type": "function",
      "constant": true
    },
    {
      "inputs": [
        {
          "internalType": "uint256",
          "name": "downValue",
          "type": "uint256"
        },
        {
          "internalType": "uint256",
          "name": "upValue",
          "type": "uint256"
        },
        {
          "internalType": "uint8",
          "name": "side",
          "type": "uint8"
        },
        {
          "internalType": "uint256",
          "name": "value",
          "type": "uint256"
        }
      ],
      "name": "updatePool",
      "outputs": [
        {
          "internalType": "uint256",
          "name": "",
          "type": "uint256"
        },
        {
          "internalType": "uint256",
          "name": "",
          "type": "uint256"
        }
      ],
      "stateMutability": "pure",
      "type": "function",
      "constant": true
    },
    {
      "inputs": [
        {
          "internalType": "uint256",
          "name": "currentBlock",
          "type": "uint256"
        },
        {
          "internalType": "uint256",
          "name": "_windowDuration",
          "type": "uint256"
        },
        {
          "internalType": "uint256",
          "name": "_firstBlock",
          "type": "uint256"
        },
        {
          "internalType": "uint256",
          "name": "_windowOffset",
          "type": "uint256"
        },
        {
          "internalType": "uint256",
          "name": "_firstWindow",
          "type": "uint256"
        }
      ],
      "name": "getWindowNumber",
      "outputs": [
        {
          "internalType": "uint256",
          "name": "windowNumber",
          "type": "uint256"
        }
      ],
      "stateMutability": "pure",
      "type": "function",
      "constant": true
    },
    {
      "inputs": [
        {
          "internalType": "uint256",
          "name": "windowNumber",
          "type": "uint256"
        },
        {
          "internalType": "uint256",
          "name": "_windowDuration",
          "type": "uint256"
        },
        {
          "internalType": "uint256",
          "name": "_firstBlock",
          "type": "uint256"
        },
        {
          "internalType": "uint256",
          "name": "_windowOffset",
          "type": "uint256"
        }
      ],
      "name": "getWindowStartingBlock",
      "outputs": [
        {
          "internalType": "uint256",
          "name": "startingBlock",
          "type": "uint256"
        }
      ],
      "stateMutability": "pure",
      "type": "function",
      "constant": true
    },
    {
      "inputs": [
        {
          "internalType": "uint256",
          "name": "value",
          "type": "uint256"
        },
        {
          "internalType": "uint256",
          "name": "_fee",
          "type": "uint256"
        }
      ],
      "name": "computeFee",
      "outputs": [
        {
          "internalType": "uint256",
          "name": "betFee",
          "type": "uint256"
        }
      ],
      "stateMutability": "pure",
      "type": "function",
      "constant": true
    },
    {
      "inputs": [],
      "name": "updatePrice",
      "outputs": [],
      "stateMutability": "nonpayable",
      "type": "function"
    },
    {
      "inputs": [
        {
          "internalType": "uint256",
          "name": "windowNumber",
          "type": "uint256"
        }
      ],
      "name": "getPoolValues",
      "outputs": [
        {
          "internalType": "uint256",
          "name": "",
          "type": "uint256"
        },
        {
          "internalType": "uint256",
          "name": "",
          "type": "uint256"
        }
      ],
      "stateMutability": "view",
      "type": "function",
      "constant": true
    },
    {
      "inputs": [
        {
          "internalType": "uint256",
          "name": "windowNumber",
          "type": "uint256"
        },
        {
          "internalType": "address",
          "name": "user",
          "type": "address"
        }
      ],
      "name": "getUserStake",
      "outputs": [
        {
          "internalType": "uint256",
          "name": "",
          "type": "uint256"
        },
        {
          "internalType": "uint256",
          "name": "",
          "type": "uint256"
        }
      ],
      "stateMutability": "view",
      "type": "function",
      "constant": true
    },
    {
      "inputs": [
        {
          "internalType": "address",
          "name": "user",
          "type": "address"
        }
      ],
      "name": "getBalance",
      "outputs": [
        {
          "internalType": "uint256",
          "name": "",
          "type": "uint256"
        }
      ],
      "stateMutability": "view",
      "type": "function",
      "constant": true
    },
    {
      "inputs": [
        {
          "internalType": "uint256",
          "name": "window",
          "type": "uint256"
        }
      ],
      "name": "getWindowBetPrices",
      "outputs": [
        {
          "internalType": "uint256",
          "name": "",
          "type": "uint256"
        },
        {
          "internalType": "uint256",
          "name": "",
          "type": "uint256"
        }
      ],
      "stateMutability": "view",
      "type": "function",
      "constant": true
    },
    {
      "inputs": [
        {
          "internalType": "address",
          "name": "user",
          "type": "address"
        },
        {
          "internalType": "uint256",
          "name": "index",
          "type": "uint256"
        }
      ],
      "name": "getUserBetList",
      "outputs": [
        {
          "internalType": "uint256",
          "name": "",
          "type": "uint256"
        }
      ],
      "stateMutability": "view",
      "type": "function",
      "constant": true
    },
    {
      "inputs": [
        {
          "internalType": "address",
          "name": "user",
          "type": "address"
        }
      ],
      "name": "betListLen",
      "outputs": [
        {
          "internalType": "uint256",
          "name": "",
          "type": "uint256"
        }
      ],
      "stateMutability": "view",
      "type": "function",
      "constant": true
    }
  ],
  "bytecode": "0x60806040526001600b553480156200001657600080fd5b5060405162002ee638038062002ee683398181016040528101906200003c919062000120565b60648211156200004b57600080fd5b806000806101000a81548173ffffffffffffffffffffffffffffffffffffffff021916908373ffffffffffffffffffffffffffffffffffffffff16021790555043600481905550826003819055508160028190555033600160006101000a81548173ffffffffffffffffffffffffffffffffffffffff021916908373ffffffffffffffffffffffffffffffffffffffff1602179055506001600b81905550505050620001f3565b6000815190506200010381620001bf565b92915050565b6000815190506200011a81620001d9565b92915050565b6000806000606084860312156200013c576200013b620001ba565b5b60006200014c8682870162000109565b93505060206200015f8682870162000109565b92505060406200017286828701620000f2565b9150509250925092565b6000620001898262000190565b9050919050565b600073ffffffffffffffffffffffffffffffffffffffff82169050919050565b6000819050919050565b600080fd5b620001ca816200017c565b8114620001d657600080fd5b50565b620001e481620001b0565b8114620001f057600080fd5b50565b612ce380620002036000396000f3fe6080604052600436106101ee5760003560e01c8063849cd1c71161010d578063daaac9d2116100a0578063e3d670d71161006f578063e3d670d71461076f578063f4e0d9ac146107ac578063f52818f0146107d5578063f83b35fb146107fe578063f8b2cb4f1461083c576101ee565b8063daaac9d21461069f578063ddca3f43146106dc578063e0a5cee314610707578063e0d65d8714610732576101ee565b8063ac4afa38116100dc578063ac4afa38146105dc578063b47a35661461061a578063ca055e5314610657578063d0e30db014610695576101ee565b8063849cd1c7146104fb57806389b808a7146105385780639626a2301461057557806399572d6f146105b3576101ee565b80633937ea4f116101855780635c11ff7a116101545780635c11ff7a14610451578063673a7e281461047c5780638068aa681461049357806380962668146104d0576101ee565b80633937ea4f1461038257806340b8405a146103c0578063576fe42f146103e9578063587f5ed714610426576101ee565b8063231b0268116101c1578063231b0268146102c857806326a4e8d2146102f35780632e1a7d4d1461031c5780632ff284c214610345576101ee565b806303edf914146101f35780630ed6ca291461020f5780630eff4d881461024d5780631bb5abf91461028b575b600080fd5b61020d60048036038101906102089190612589565b610879565b005b34801561021b57600080fd5b5061023660048036038101906102319190612522565b610d26565b6040516102449291906127e7565b60405180910390f35b34801561025957600080fd5b50610274600480360381019061026f91906122eb565b610dd5565b6040516102829291906127e7565b60405180910390f35b34801561029757600080fd5b506102b260048036038101906102ad9190612385565b610e22565b6040516102bf9190612839565b60405180910390f35b3480156102d457600080fd5b506102dd610e51565b6040516102ea91906127cc565b60405180910390f35b3480156102ff57600080fd5b5061031a60048036038101906103159190612251565b610e57565b005b34801561032857600080fd5b50610343600480360381019061033e91906122eb565b610f8f565b005b34801561035157600080fd5b5061036c60048036038101906103679190612385565b611148565b60405161037991906127cc565b60405180910390f35b34801561038e57600080fd5b506103a960048036038101906103a4919061227e565b61116a565b6040516103b79291906127e7565b60405180910390f35b3480156103cc57600080fd5b506103e760048036038101906103e29190612251565b61119b565b005b3480156103f557600080fd5b50610410600480360381019061040b919061242c565b6118a3565b60405161041d91906127cc565b60405180910390f35b34801561043257600080fd5b5061043b6118ef565b60405161044891906127cc565b60405180910390f35b34801561045d57600080fd5b506104666118f5565b60405161047391906127cc565b60405180910390f35b34801561048857600080fd5b506104916118fb565b005b34801561049f57600080fd5b506104ba60048036038101906104b5919061227e565b61199e565b6040516104c791906127cc565b60405180910390f35b3480156104dc57600080fd5b506104e56119cf565b6040516104f291906127cc565b60405180910390f35b34801561050757600080fd5b50610522600480360381019061051d91906123c5565b6119d5565b60405161052f91906127cc565b60405180910390f35b34801561054457600080fd5b5061055f600480360381019061055a9190612251565b611a0f565b60405161056c91906127cc565b60405180910390f35b34801561058157600080fd5b5061059c60048036038101906105979190612345565b611a5b565b6040516105aa9291906127e7565b60405180910390f35b3480156105bf57600080fd5b506105da60048036038101906105d59190612251565b611ae7565b005b3480156105e857600080fd5b5061060360048036038101906105fe91906122eb565b611bbb565b6040516106119291906127e7565b60405180910390f35b34801561062657600080fd5b50610641600480360381019061063c919061227e565b611bdf565b60405161064e91906127cc565b60405180910390f35b34801561066357600080fd5b5061067e600480360381019061067991906124a7565b611c45565b60405161068c9291906127e7565b60405180910390f35b61069d611d6a565b005b3480156106ab57600080fd5b506106c660048036038101906106c191906123c5565b611e50565b6040516106d391906127cc565b60405180910390f35b3480156106e857600080fd5b506106f1611e8b565b6040516106fe91906127cc565b60405180910390f35b34801561071357600080fd5b5061071c611e91565b60405161072991906127cc565b60405180910390f35b34801561073e57600080fd5b50610759600480360381019061075491906122eb565b611e97565b60405161076691906127cc565b60405180910390f35b34801561077b57600080fd5b5061079660048036038101906107919190612251565b611eaf565b6040516107a391906127cc565b60405180910390f35b3480156107b857600080fd5b506107d360048036038101906107ce9190612251565b611ec7565b005b3480156107e157600080fd5b506107fc60048036038101906107f791906122eb565b611fff565b005b34801561080a57600080fd5b50610825600480360381019061082091906122eb565b612128565b6040516108339291906127e7565b60405180910390f35b34801561084857600080fd5b50610863600480360381019061085e9190612251565b612174565b60405161087091906127cc565b60405180910390f35b6108816118fb565b61088a3361119b565b34600e60003373ffffffffffffffffffffffffffffffffffffffff1673ffffffffffffffffffffffffffffffffffffffff168152602001908152602001600020546108d59190612865565b821115610917576040517f08c379a000000000000000000000000000000000000000000000000000000000815260040161090e9061276c565b60405180910390fd5b8134600e60003373ffffffffffffffffffffffffffffffffffffffff1673ffffffffffffffffffffffffffffffffffffffff168152602001908152602001600020546109639190612865565b61096d9190612946565b600e60003373ffffffffffffffffffffffffffffffffffffffff1673ffffffffffffffffffffffffffffffffffffffff1681526020019081526020016000208190555060006109be83600254611148565b905080600d546109ce9190612865565b600d81905550600081846109e29190612946565b905060006109fb43600354600454600c54600b546118a3565b9050601160003373ffffffffffffffffffffffffffffffffffffffff1673ffffffffffffffffffffffffffffffffffffffff168152602001908152602001600020600082815260200190815260200160002060009054906101000a900460ff16610b2f57601060003373ffffffffffffffffffffffffffffffffffffffff1673ffffffffffffffffffffffffffffffffffffffff1681526020019081526020016000208190806001815401808255809150506001900390600052602060002001600090919091909150556001601160003373ffffffffffffffffffffffffffffffffffffffff1673ffffffffffffffffffffffffffffffffffffffff168152602001908152602001600020600083815260200190815260200160002060006101000a81548160ff0219169083151502179055505b600060096000838152602001908152602001600020604051806040016040529081600082015481526020016001820154815250509050600080610b7c836000015184602001518988610d26565b915091506040518060400160405280838152602001828152506009600086815260200190815260200160002060008201518160000155602082015181600101559050506000600f60003373ffffffffffffffffffffffffffffffffffffffff1673ffffffffffffffffffffffffffffffffffffffff1681526020019081526020016000206000868152602001908152602001600020604051806040016040529081600082015481526020016001820154815250509050610c46816000015182602001518a89610d26565b8093508194505050604051806040016040528084815260200183815250600f60003373ffffffffffffffffffffffffffffffffffffffff1673ffffffffffffffffffffffffffffffffffffffff16815260200190815260200160002060008781526020019081526020016000206000820151816000015560208201518160010155905050843373ffffffffffffffffffffffffffffffffffffffff167f560e32e4934b84f33b228f40ddc5b9fa690426ee087005a7d979d7921d24a02b888b604051610d13929190612810565b60405180910390a3505050505050505050565b60008060008460ff166001811115610d4157610d40612a57565b5b905060006001811115610d5757610d56612a57565b5b816001811115610d6a57610d69612a57565b5b1415610d87578387610d7c9190612865565b869250925050610dcc565b600180811115610d9a57610d99612a57565b5b816001811115610dad57610dac612a57565b5b1415610dca57868487610dc09190612865565b9250925050610dcc565b505b94509492505050565b600080600060096000858152602001908152602001600020604051806040016040529081600082015481526020016001820154815250509050806000015181602001519250925050915091565b600082821015610e355760009050610e4b565b82821115610e465760019050610e4b565b600290505b92915050565b60045481565b600073ffffffffffffffffffffffffffffffffffffffff16600860009054906101000a900473ffffffffffffffffffffffffffffffffffffffff1673ffffffffffffffffffffffffffffffffffffffff1614610ee8576040517f08c379a0000000000000000000000000000000000000000000000000000000008152600401610edf9061270c565b60405180910390fd5b80600860006101000a81548173ffffffffffffffffffffffffffffffffffffffff021916908373ffffffffffffffffffffffffffffffffffffffff160217905550600860009054906101000a900473ffffffffffffffffffffffffffffffffffffffff16600760006101000a81548173ffffffffffffffffffffffffffffffffffffffff021916908373ffffffffffffffffffffffffffffffffffffffff16021790555050565b610f976118fb565b610fa03361119b565b600e60003373ffffffffffffffffffffffffffffffffffffffff1673ffffffffffffffffffffffffffffffffffffffff16815260200190815260200160002054811115611022576040517f08c379a0000000000000000000000000000000000000000000000000000000008152600401611019906127ac565b60405180910390fd5b80600e60003373ffffffffffffffffffffffffffffffffffffffff1673ffffffffffffffffffffffffffffffffffffffff1681526020019081526020016000205461106d9190612946565b600e60003373ffffffffffffffffffffffffffffffffffffffff1673ffffffffffffffffffffffffffffffffffffffff168152602001908152602001600020819055503373ffffffffffffffffffffffffffffffffffffffff166108fc829081150290604051600060405180830381858888f193505050501580156110f6573d6000803e3d6000fd5b503373ffffffffffffffffffffffffffffffffffffffff167f056f1f5cdd8662230b94b7f88e06d95549d18e77cb2959933db3849d36df790a8260405161113d91906127cc565b60405180910390a250565b60006064828461115891906128ec565b61116291906128bb565b905092915050565b600f602052816000526040600020602052806000526040600020600091509150508060000154908060010154905082565b6000601060008373ffffffffffffffffffffffffffffffffffffffff1673ffffffffffffffffffffffffffffffffffffffff16815260200190815260200160002090506000818054905014156111f157506118a0565b6000818054905090505b6000811115611805576000826001836112149190612946565b8154811061122557611224612ab5565b5b90600052602060002001549050600061124943600354600454600c54600b546118a3565b90506002826112589190612865565b8110156112665750506117f2565b60008061127284612128565b91509150600081148015611291575060038461128e9190612865565b83105b1561129f57505050506117f2565b60006112ab8383610e22565b905060008314806112bc5750600082145b156112c657600290505b86600188805490506112d89190612946565b815481106112e9576112e8612ab5565b5b9060005260206000200154876001886113029190612946565b8154811061131357611312612ab5565b5b90600052602060002001819055508680548061133257611331612a86565b5b600190038181906000526020600020016000905590556000600f60008a73ffffffffffffffffffffffffffffffffffffffff1673ffffffffffffffffffffffffffffffffffffffff1681526020019081526020016000206000878152602001908152602001600020604051806040016040529081600082015481526020016001820154815250509050600060096000888152602001908152602001600020604051806040016040529081600082015481526020016001820154815250509050600080611411846020015185600001518560200151866000015189611c45565b9150915081600e60008e73ffffffffffffffffffffffffffffffffffffffff1673ffffffffffffffffffffffffffffffffffffffff168152602001908152602001600020546114609190612865565b600e60008e73ffffffffffffffffffffffffffffffffffffffff1673ffffffffffffffffffffffffffffffffffffffff1681526020019081526020016000208190555080600d546114b19190612865565b600d8190555060006114d58560200151866000015186602001518760000151611e50565b905080600760009054906101000a900473ffffffffffffffffffffffffffffffffffffffff1673ffffffffffffffffffffffffffffffffffffffff166370a08231306040518263ffffffff1660e01b815260040161153391906126c8565b60206040518083038186803b15801561154b57600080fd5b505afa15801561155f573d6000803e3d6000fd5b505050506040513d601f19601f820116820180604052508101906115839190612318565b1061163d57600760009054906101000a900473ffffffffffffffffffffffffffffffffffffffff1673ffffffffffffffffffffffffffffffffffffffff1663a9059cbb8e836040518363ffffffff1660e01b81526004016115e59291906126e3565b602060405180830381600087803b1580156115ff57600080fd5b505af1158015611613573d6000803e3d6000fd5b505050506040513d601f19601f8201168201806040525081019061163791906122be565b50611798565b600760009054906101000a900473ffffffffffffffffffffffffffffffffffffffff1673ffffffffffffffffffffffffffffffffffffffff1663a9059cbb8e600760009054906101000a900473ffffffffffffffffffffffffffffffffffffffff1673ffffffffffffffffffffffffffffffffffffffff166370a08231306040518263ffffffff1660e01b81526004016116d791906126c8565b60206040518083038186803b1580156116ef57600080fd5b505afa158015611703573d6000803e3d6000fd5b505050506040513d601f19601f820116820180604052508101906117279190612318565b6040518363ffffffff1660e01b81526004016117449291906126e3565b602060405180830381600087803b15801561175e57600080fd5b505af1158015611772573d6000803e3d6000fd5b505050506040513d601f19601f8201168201806040525081019061179691906122be565b505b8c73ffffffffffffffffffffffffffffffffffffffff168a7f1a82fd78981b9465af4b8bd67f27607df5d873b7a978cc8cee1a65b85c2990fc856040516117df91906127cc565b60405180910390a3505050505050505050505b80806117fd906129cf565b9150506111fb565b506000600d54111561189e57600560009054906101000a900473ffffffffffffffffffffffffffffffffffffffff1673ffffffffffffffffffffffffffffffffffffffff16625c33e1600d546040518263ffffffff1660e01b81526004016000604051808303818588803b15801561187c57600080fd5b505af1158015611890573d6000803e3d6000fd5b50505050506000600d819055505b505b50565b6000838610156118b5578190506118e6565b6001838686896118c59190612946565b6118cf91906128bb565b6118d99190612865565b6118e39190612865565b90505b95945050505050565b600d5481565b60035481565b600061191243600354600454600c54600b546118a3565b90506000600a600083815260200190815260200160002054141561199b576119386121bd565b600a600083815260200190815260200160002081905550807f7a3325b9d11ddc18edd3dff130141b6ce951061520c6b933a604bf701f3d8052600a60008481526020019081526020016000205460405161199291906127cc565b60405180910390a25b50565b601060205281600052604060002081815481106119ba57600080fd5b90600052602060002001600091509150505481565b600c5481565b600083826001876119e69190612946565b6119f09190612946565b6119fa91906128ec565b83611a059190612865565b9050949350505050565b6000601060008373ffffffffffffffffffffffffffffffffffffffff1673ffffffffffffffffffffffffffffffffffffffff168152602001908152602001600020805490509050919050565b6000806000600f60008573ffffffffffffffffffffffffffffffffffffffff1673ffffffffffffffffffffffffffffffffffffffff16815260200190815260200160002060008681526020019081526020016000206040518060400160405290816000820154815260200160018201548152505090508060000151816020015192509250509250929050565b600160009054906101000a900473ffffffffffffffffffffffffffffffffffffffff1673ffffffffffffffffffffffffffffffffffffffff163373ffffffffffffffffffffffffffffffffffffffff1614611b77576040517f08c379a0000000000000000000000000000000000000000000000000000000008152600401611b6e9061274c565b60405180910390fd5b80600160006101000a81548173ffffffffffffffffffffffffffffffffffffffff021916908373ffffffffffffffffffffffffffffffffffffffff16021790555050565b60096020528060005260406000206000915090508060000154908060010154905082565b6000601060008473ffffffffffffffffffffffffffffffffffffffff1673ffffffffffffffffffffffffffffffffffffffff1681526020019081526020016000208281548110611c3257611c31612ab5565b5b9060005260206000200154905092915050565b60008060008360ff166002811115611c6057611c5f612a57565b5b905060008587611c709190612865565b905060016002811115611c8657611c85612a57565b5b826002811115611c9957611c98612a57565b5b148015611ca7575060008714155b15611cbe57611cb7818a896121c6565b9350611d5e565b60006002811115611cd257611cd1612a57565b5b826002811115611ce557611ce4612a57565b5b148015611cf3575060008614155b15611d0a57611d038189886121c6565b9350611d5d565b600280811115611d1d57611d1c612a57565b5b826002811115611d3057611d2f612a57565b5b1415611d49578789611d429190612865565b9350611d5c565b600093508789611d599190612865565b92505b5b5b50509550959350505050565b611d726118fb565b34600e60003373ffffffffffffffffffffffffffffffffffffffff1673ffffffffffffffffffffffffffffffffffffffff16815260200190815260200160002054611dbd9190612865565b600e60003373ffffffffffffffffffffffffffffffffffffffff1673ffffffffffffffffffffffffffffffffffffffff168152602001908152602001600020819055503373ffffffffffffffffffffffffffffffffffffffff167fb852e2e011cc5f1a909361fc2aeee1b2c4fa840300139b0b85f5e08a50898c6234604051611e4691906127cc565b60405180910390a2565b60008068240cba98add2c400009050611e80818688611e6f9190612865565b8587611e7b9190612865565b6121c6565b915050949350505050565b60025481565b600b5481565b600a6020528060005260406000206000915090505481565b600e6020528060005260406000206000915090505481565b600073ffffffffffffffffffffffffffffffffffffffff16600660009054906101000a900473ffffffffffffffffffffffffffffffffffffffff1673ffffffffffffffffffffffffffffffffffffffff1614611f58576040517f08c379a0000000000000000000000000000000000000000000000000000000008152600401611f4f9061272c565b60405180910390fd5b80600660006101000a81548173ffffffffffffffffffffffffffffffffffffffff021916908373ffffffffffffffffffffffffffffffffffffffff160217905550600660009054906101000a900473ffffffffffffffffffffffffffffffffffffffff16600560006101000a81548173ffffffffffffffffffffffffffffffffffffffff021916908373ffffffffffffffffffffffffffffffffffffffff16021790555050565b600160009054906101000a900473ffffffffffffffffffffffffffffffffffffffff1673ffffffffffffffffffffffffffffffffffffffff163373ffffffffffffffffffffffffffffffffffffffff161461208f576040517f08c379a00000000000000000000000000000000000000000000000000000000081526004016120869061274c565b60405180910390fd5b600081116120d2576040517f08c379a00000000000000000000000000000000000000000000000000000000081526004016120c99061278c565b60405180910390fd5b60006120e943600354600454600c54600b546118a3565b90506121096001826120fb9190612865565b600354600454600c546119d5565b60048190555080600c8190555080600b81905550816003819055505050565b600080600a600060018561213c9190612865565b815260200190815260200160002054600a600060028661215c9190612865565b81526020019081526020016000205491509150915091565b6000600e60008373ffffffffffffffffffffffffffffffffffffffff1673ffffffffffffffffffffffffffffffffffffffff168152602001908152602001600020549050919050565b60006064905090565b60008184846121d591906128ec565b6121df91906128bb565b90509392505050565b6000813590506121f781612c51565b92915050565b60008151905061220c81612c68565b92915050565b60008135905061222181612c7f565b92915050565b60008151905061223681612c7f565b92915050565b60008135905061224b81612c96565b92915050565b60006020828403121561226757612266612ae4565b5b6000612275848285016121e8565b91505092915050565b6000806040838503121561229557612294612ae4565b5b60006122a3858286016121e8565b92505060206122b485828601612212565b9150509250929050565b6000602082840312156122d4576122d3612ae4565b5b60006122e2848285016121fd565b91505092915050565b60006020828403121561230157612300612ae4565b5b600061230f84828501612212565b91505092915050565b60006020828403121561232e5761232d612ae4565b5b600061233c84828501612227565b91505092915050565b6000806040838503121561235c5761235b612ae4565b5b600061236a85828601612212565b925050602061237b858286016121e8565b9150509250929050565b6000806040838503121561239c5761239b612ae4565b5b60006123aa85828601612212565b92505060206123bb85828601612212565b9150509250929050565b600080600080608085870312156123df576123de612ae4565b5b60006123ed87828801612212565b94505060206123fe87828801612212565b935050604061240f87828801612212565b925050606061242087828801612212565b91505092959194509250565b600080600080600060a0868803121561244857612447612ae4565b5b600061245688828901612212565b955050602061246788828901612212565b945050604061247888828901612212565b935050606061248988828901612212565b925050608061249a88828901612212565b9150509295509295909350565b600080600080600060a086880312156124c3576124c2612ae4565b5b60006124d188828901612212565b95505060206124e288828901612212565b94505060406124f388828901612212565b935050606061250488828901612212565b92505060806125158882890161223c565b9150509295509295909350565b6000806000806080858703121561253c5761253b612ae4565b5b600061254a87828801612212565b945050602061255b87828801612212565b935050604061256c8782880161223c565b925050606061257d87828801612212565b91505092959194509250565b600080604083850312156125a05761259f612ae4565b5b60006125ae85828601612212565b92505060206125bf8582860161223c565b9150509250929050565b6125d28161297a565b82525050565b60006125e5601983612854565b91506125f082612ae9565b602082019050919050565b6000612608601b83612854565b915061261382612b12565b602082019050919050565b600061262b602483612854565b915061263682612b3b565b604082019050919050565b600061264e602283612854565b915061265982612b8a565b604082019050919050565b6000612671602783612854565b915061267c82612bd9565b604082019050919050565b6000612694601083612854565b915061269f82612c28565b602082019050919050565b6126b3816129b8565b82525050565b6126c2816129c2565b82525050565b60006020820190506126dd60008301846125c9565b92915050565b60006040820190506126f860008301856125c9565b61270560208301846126aa565b9392505050565b60006020820190508181036000830152612725816125d8565b9050919050565b60006020820190508181036000830152612745816125fb565b9050919050565b600060208201905081810360008301526127658161261e565b9050919050565b6000602082019050818103600083015261278581612641565b9050919050565b600060208201905081810360008301526127a581612664565b9050919050565b600060208201905081810360008301526127c581612687565b9050919050565b60006020820190506127e160008301846126aa565b92915050565b60006040820190506127fc60008301856126aa565b61280960208301846126aa565b9392505050565b600060408201905061282560008301856126aa565b61283260208301846126b9565b9392505050565b600060208201905061284e60008301846126b9565b92915050565b600082825260208201905092915050565b6000612870826129b8565b915061287b836129b8565b9250827fffffffffffffffffffffffffffffffffffffffffffffffffffffffffffffffff038211156128b0576128af6129f9565b5b828201905092915050565b60006128c6826129b8565b91506128d1836129b8565b9250826128e1576128e0612a28565b5b828204905092915050565b60006128f7826129b8565b9150612902836129b8565b9250817fffffffffffffffffffffffffffffffffffffffffffffffffffffffffffffffff048311821515161561293b5761293a6129f9565b5b828202905092915050565b6000612951826129b8565b915061295c836129b8565b92508282101561296f5761296e6129f9565b5b828203905092915050565b600061298582612998565b9050919050565b60008115159050919050565b600073ffffffffffffffffffffffffffffffffffffffff82169050919050565b6000819050919050565b600060ff82169050919050565b60006129da826129b8565b915060008214156129ee576129ed6129f9565b5b600182039050919050565b7f4e487b7100000000000000000000000000000000000000000000000000000000600052601160045260246000fd5b7f4e487b7100000000000000000000000000000000000000000000000000000000600052601260045260246000fd5b7f4e487b7100000000000000000000000000000000000000000000000000000000600052602160045260246000fd5b7f4e487b7100000000000000000000000000000000000000000000000000000000600052603160045260246000fd5b7f4e487b7100000000000000000000000000000000000000000000000000000000600052603260045260246000fd5b600080fd5b7f746f6b656e206164647265737320616c72656164792073657400000000000000600082015250565b7f7374616b696e67206164647265737320616c7265616479207365740000000000600082015250565b7f6f6e6c7920676f7665726e616e63652063616e2063616c6c2074686973206d6560008201527f74686f6400000000000000000000000000000000000000000000000000000000602082015250565b7f6e6f7420656e6f756768206d6f6e657920746f20706c6163652074686973206260008201527f6574000000000000000000000000000000000000000000000000000000000000602082015250565b7f77696e646f772073697a652073686f756c64206265207374726963746c79207060008201527f6f73697469766500000000000000000000000000000000000000000000000000602082015250565b7f6e6f7420656e6f7567682066756e647300000000000000000000000000000000600082015250565b612c5a8161297a565b8114612c6557600080fd5b50565b612c718161298c565b8114612c7c57600080fd5b50565b612c88816129b8565b8114612c9357600080fd5b50565b612c9f816129c2565b8114612caa57600080fd5b5056fea2646970667358221220c88a981173bbdf458b8d54fd1f5a957f9be934f1118d7320e2f7508defa3f2ae64736f6c63430008060033",
  "immutableReferences": {},
  "source": "pragma solidity ^0.8.0;\npragma experimental ABIEncoderV2;\n\nimport \"@openzeppelin/contracts/token/ERC20/IERC20.sol\";\nimport \"@chainlink/contracts/src/v0.6/interfaces/AggregatorV3Interface.sol\";\nimport \"./BinToken.sol\";\nimport \"./BinStaking.sol\";\n\n\n//SPDX-License-Identifier: UNLICENSED\ncontract BinaryBet {\n    //Structs and enums\n    enum BetSide {down, up} \n    enum BetResult {down, up, tie}\n\n    struct Pool {\n        uint downValue;\n        uint upValue;\n    }\n\n    //Betting parameters\n    AggregatorV3Interface internal priceFeed;  \n    address governance;\n    uint public fee;\n    uint public windowDuration; //in blocks\n    uint public firstBlock;\n    BinaryStaking staking; \n    address payable stakingAddress;\n\n    BinToken token;\n    address tokenAddress;\n\n\n    //Window management\n    mapping (uint => Pool) public pools; //windowNumber => Pool\n    mapping(uint => uint256) public  windowPrice; //first price collection at the window.\n    uint public firstWindow = 1; //Any bet before first block of betting is directed to the first window.\n    uint public windowOffset; //used make window continuous and monotonically increasing when window duration and first block changes.\n    uint public accumulatedFees;\n\n    //User variables\n    mapping (address => uint) public balance;\n    mapping (address => mapping(uint => Pool)) public  userStake;\n    mapping (address => uint[]) public userBets;\n    mapping (address => mapping(uint => bool)) userBetted;\n\n\n    //EVENTS\n    event newBet(address indexed user, uint indexed windowNumber, uint value, uint8 side);\n    event newDeposit(address indexed user, uint value);\n    event newWithdraw(address indexed user, uint value);\n    event betSettled(uint indexed windowNumber, address indexed user, uint gain);\n    event priceUpdated(uint indexed windowNumber, uint256 price);\n\n    \n    modifier onlyGovernance() {\n        require(msg.sender == governance, \"only governance can call this method\");\n        _;\n    }\n\n    constructor(uint _windowDuration, uint _fee, address aggregator) public {\n        require(_fee <= 100);\n        priceFeed = AggregatorV3Interface(aggregator);\n        firstBlock = block.number;\n        windowDuration = _windowDuration;\n\n        fee = _fee;\n        governance = msg.sender;\n        firstWindow = 1;\n    }\n//=============GOVERNANCE FUNCTIONS=============================================\n    function changeGovernance(address newGovernance) onlyGovernance public{\n        governance = newGovernance;\n    }\n\n    function changeWindowSize(uint windowSize) onlyGovernance public {\n        require(windowSize > 0, \"window size should be strictly positive\");\n        uint currentWindow = getWindowNumber(block.number, windowDuration, firstBlock, windowOffset, firstWindow);\n        firstBlock = getWindowStartingBlock(currentWindow + 1, windowDuration, firstBlock, windowOffset);\n        windowOffset = currentWindow;\n        firstWindow = currentWindow;\n        windowDuration = windowSize;\n    }\n//==============================================================================\n\n    function setStakingAddress(address stakingContract) external {\n        require(stakingAddress == address(0), \"staking address already set\");\n        stakingAddress = payable(stakingContract);\n        staking = BinaryStaking(stakingAddress); \n    }\n\n    function setTokenAddress(address tokenContract) external {\n        require(tokenAddress == address(0), \"token address already set\");\n        tokenAddress = tokenContract;\n        token = BinToken(tokenAddress); \n    }\n\n    function deposit() payable external {\n        updatePrice();\n        balance[msg.sender] = balance[msg.sender] + msg.value;\n        emit newDeposit(msg.sender, msg.value);\n    }\n\n    function withdraw(uint value) external {\n        updatePrice();\n        updateBalance(msg.sender);\n\n        require(value <= balance[msg.sender], \"not enough funds\");\n        balance[msg.sender] = balance[msg.sender] - value;\n        payable(msg.sender).transfer(value);\n\n        emit newWithdraw(msg.sender, value);\n\n    }\n\n    function placeBet (uint betValue, uint8 side) payable external {\n        updatePrice();\n        updateBalance(msg.sender);\n                    \n        require(betValue <= balance[msg.sender] + msg.value, \"not enough money to place this bet\");\n\n        //betValue <= balance + msg.value\n        //0 <= balance + msg.value - betValue\n        balance[msg.sender] = balance[msg.sender] + msg.value - betValue;\n\n        uint betFee = computeFee(betValue, fee); \n        accumulatedFees = accumulatedFees + betFee;\n        uint value = betValue - betFee;\n\n        uint windowNumber = getWindowNumber(block.number, windowDuration, firstBlock, windowOffset, firstWindow);\n        if(!userBetted[msg.sender][windowNumber]) {\n            //only adds the bet to the list if it is the first time the user bets at the window\n            userBets[msg.sender].push(windowNumber);\n            userBetted[msg.sender][windowNumber] = true;\n        }\n        \n        //Update the pool for the window.\n        Pool memory oldPool = pools[windowNumber];\n        (uint newDown, uint newUp) = updatePool(oldPool.downValue, oldPool.upValue, side, value);\n        pools[windowNumber] = Pool(newDown, newUp);\n\n        //Update the user stake for the window.\n        Pool memory oldStake = userStake[msg.sender][windowNumber];\n        (newDown, newUp) = updatePool(oldStake.downValue, oldStake.upValue, side, value);\n        userStake[msg.sender][windowNumber] = Pool(newDown, newUp);\n\n        emit newBet(msg.sender, windowNumber, value, side);\n    }\n\n    function updateBalance(address user) public {\n        uint[] storage userWindowsList = userBets[user];\n        if(userWindowsList.length == 0) {\n            //No bets to settle\n            return;\n        }\n\n        for(uint i = userWindowsList.length; i > 0; i--) {\n            //Maximum number of itens in list is 2, when the user bets on 2 subsequent windows and the first window is not yet settled.\n            uint window = userWindowsList[i-1];\n            uint currentWindow = getWindowNumber(block.number, windowDuration, firstBlock, windowOffset, firstWindow);\n            if(currentWindow < window + 2) {\n                //window not yet settled\n                continue;\n            }\n\n            (uint256 referencePrice, uint256 settlementPrice) = getWindowBetPrices(window);\n            if (settlementPrice == 0 && currentWindow < window + 3) {\n                //price not updated but update still possible.\n                continue;\n            } \n\n            uint8 result = betResult(referencePrice, settlementPrice);\n            if (referencePrice == 0 || settlementPrice == 0) {\n                //if the price was not updated for the window it is considered a tie and players can get their money back.\n                result = 2;\n            }\n\n            //Remove window from list of unsettled bets.\n            userWindowsList[i-1] = userWindowsList[userWindowsList.length -1];\n            userWindowsList.pop();\n\n            Pool memory stake = userStake[user][window];\n            Pool memory pool = pools[window];\n            (uint windowGain, uint fees) = settleBet(stake.upValue, stake.downValue, pool.upValue, pool.downValue, result);\n\n            balance[user] = balance[user] + windowGain;\n            accumulatedFees = accumulatedFees + fees;\n            \n            //KITTY token rewards\n            uint reward = calculateTokenReward(stake.upValue, stake.downValue, pool.upValue, pool.downValue);\n            if (token.balanceOf(address(this)) >= reward) {\n                token.transfer(user, reward);\n            }\n            else {\n                token.transfer(user, token.balanceOf(address(this)));\n            }\n\n            emit betSettled(window, user, windowGain);\n        }\n\n        if(accumulatedFees > 0) {\n            staking.receiveFunds{value: accumulatedFees}();\n            accumulatedFees = 0;\n        }\n\n    }\n\n    function settleBet(uint upStake, uint downStake, uint poolUp, uint poolDown, uint8 betResult) public pure returns (uint gain, uint fees) {\n        BetResult result = BetResult(betResult);\n        uint poolTotal = poolUp + poolDown;\n        if (result == BetResult.up && poolUp != 0) {\n            //(upStake/poolUp)*poolTotal\n            gain = sharePool(poolTotal, upStake, poolUp);\n        } \n\n        else if (result == BetResult.down && poolDown != 0) {\n            //(downStake/poolDown)*poolTotal\n            gain = sharePool(poolTotal, downStake, poolDown);\n        }\n        else if (result == BetResult.tie) {\n            gain = upStake + downStake;\n        }\n        else {\n            //If the winning pool is empty, all stake goes to the fees.\n            gain = 0;\n            fees = upStake + downStake;\n        }\n    }\n\n   function betResult(uint256 referencePrice, uint256 settlementPrice) public pure returns(uint8){\n        if(settlementPrice < referencePrice) {\n            return 0;\n        }\n        else if(settlementPrice > referencePrice) {\n            return 1;\n        }\n        return 2;\n    }\n\n    function sharePool(uint value, uint shares, uint totalShares) internal pure returns (uint) {\n        return (shares * value) / totalShares;\n    }\n\n    function calculateTokenReward(uint upStake, uint downStake, uint poolUp, uint poolDown) public pure returns (uint) {\n        uint REWARD_PER_WINDOW = 665e18;\n        return sharePool(REWARD_PER_WINDOW, upStake + downStake, poolUp + poolDown);\n    }\n\n\n    function updatePool(uint downValue, uint upValue, uint8 side, uint value) public pure returns(uint, uint){\n        BetSide betSide = BetSide(side);\n        if (betSide == BetSide.down) {\n            return (downValue + value, upValue);\n        }\n        if (betSide == BetSide.up) {\n            return (downValue, upValue + value);\n        }\n    }\n\n    function getWindowNumber (uint currentBlock, uint _windowDuration, uint _firstBlock, uint _windowOffset, uint _firstWindow) public pure returns (uint windowNumber) {\n        if (currentBlock < _firstBlock) {\n            windowNumber = _firstWindow;\n        }\n        else {\n        //n = floor((block - first_block)/window_size  + 1)\n            windowNumber = ((currentBlock - _firstBlock) / _windowDuration) + _windowOffset + 1; //integer division => floor    \n        }\n\n    }\n\n    function getWindowStartingBlock (uint windowNumber, uint _windowDuration, uint _firstBlock, uint _windowOffset) public pure returns (uint startingBlock) {\n        //firstBlock + (n-1 - (offset + 1))*window_size\n        startingBlock =  _firstBlock + (windowNumber - 1 - _windowOffset)*_windowDuration;\n    }\n\n    function computeFee(uint value, uint _fee) public pure returns (uint betFee) {\n        betFee = (value * _fee) / 100;\n\n    }\n\n\n    function updatePrice() public {\n        uint window = getWindowNumber(block.number, windowDuration, firstBlock, windowOffset, firstWindow);\n        if(windowPrice[window] == 0) {\n            windowPrice[window] = priceOracle();\n            emit priceUpdated(window, windowPrice[window]);\n        }\n    }\n\n    function priceOracle() internal returns (uint256){\n        /*(\n             , \n            int price,\n             ,\n             ,\n             \n        ) = priceFeed.latestRoundData();\n        return uint256(price);\n        */\n        return 100;\n    }\n\n    //Getters\n    function getPoolValues(uint windowNumber) public view returns (uint, uint) {\n        Pool memory pool = pools[windowNumber];\n        return (pool.downValue, pool.upValue);\n    }\n\n    function getUserStake(uint windowNumber, address user) public view returns (uint, uint) {\n        Pool  memory stake  = userStake[user][windowNumber];\n        return (stake.downValue, stake.upValue);\n    }\n\n    function getBalance(address user) public view returns(uint) {\n        return balance[user];\n    }\n\n    function getWindowBetPrices(uint window) public view returns(uint256, uint256) {\n        return (windowPrice[window+1], windowPrice[window+2]);\n    }\n\n    function getUserBetList(address user, uint index) public view returns (uint) {\n         return userBets[user][index];\n    }\n\n    function betListLen(address user) public view returns (uint) {\n        return userBets[user].length;\n    }\n}\n",
  "sourcePath": "/home/pedroargento/bot/contracts/BinaryBet.sol",
  "compiler": {
    "name": "solc",
    "version": "0.8.6+commit.11564f7e.Emscripten.clang"
  },
  "schemaVersion": "3.3.3",
  "updatedAt": "2021-08-10T22:40:52.200Z",
  "networkType": "ethereum",
  "devdoc": {
    "kind": "dev",
    "methods": {},
    "version": 1
  },
  "userdoc": {
    "kind": "user",
    "methods": {},
    "version": 1
  }
}