{
  "contractName": "BinaryStaking",
  "abi": [
    {
      "inputs": [
        {
          "internalType": "address",
          "name": "token",
          "type": "address"
        }
      ],
      "stateMutability": "nonpayable",
      "type": "constructor"
    },
    {
      "anonymous": false,
      "inputs": [
        {
          "indexed": true,
          "internalType": "address",
          "name": "user",
          "type": "address"
        },
        {
          "indexed": false,
          "internalType": "uint256",
          "name": "amount",
          "type": "uint256"
        }
      ],
      "name": "Staked",
      "type": "event"
    },
    {
      "anonymous": false,
      "inputs": [
        {
          "indexed": true,
          "internalType": "address",
          "name": "user",
          "type": "address"
        },
        {
          "indexed": false,
          "internalType": "uint256",
          "name": "amount",
          "type": "uint256"
        }
      ],
      "name": "Unstaked",
      "type": "event"
    },
    {
      "inputs": [],
      "name": "binToken",
      "outputs": [
        {
          "internalType": "contract IERC20",
          "name": "",
          "type": "address"
        }
      ],
      "stateMutability": "view",
      "type": "function"
    },
    {
      "inputs": [],
      "name": "receiveFunds",
      "outputs": [],
      "stateMutability": "payable",
      "type": "function"
    },
    {
      "inputs": [
        {
          "internalType": "uint256",
          "name": "amount",
          "type": "uint256"
        }
      ],
      "name": "stake",
      "outputs": [],
      "stateMutability": "nonpayable",
      "type": "function"
    },
    {
      "inputs": [
        {
          "internalType": "uint256",
          "name": "amount",
          "type": "uint256"
        }
      ],
      "name": "unstake",
      "outputs": [],
      "stateMutability": "nonpayable",
      "type": "function"
    },
    {
      "inputs": [
        {
          "internalType": "address",
          "name": "user",
          "type": "address"
        }
      ],
      "name": "release",
      "outputs": [],
      "stateMutability": "nonpayable",
      "type": "function"
    },
    {
      "inputs": [
        {
          "internalType": "address",
          "name": "user",
          "type": "address"
        }
      ],
      "name": "ownedDividends",
      "outputs": [
        {
          "internalType": "uint256",
          "name": "",
          "type": "uint256"
        }
      ],
      "stateMutability": "view",
      "type": "function"
    }
  ],
  "bytecode": "0x608060405234801561001057600080fd5b5060405161109f38038061109f8339818101604052602081101561003357600080fd5b810190808051906020019092919050505033600160006101000a81548173ffffffffffffffffffffffffffffffffffffffff021916908373ffffffffffffffffffffffffffffffffffffffff160217905550806000806101000a81548173ffffffffffffffffffffffffffffffffffffffff021916908373ffffffffffffffffffffffffffffffffffffffff16021790555050610fca806100d56000396000f3fe6080604052600436106100545760003560e01c80625c33e11461005957806319165587146100635780632e17de78146100b4578063a66e4562146100ef578063a694fc3a14610154578063fe4fdc4e1461018f575b600080fd5b6100616101d0565b005b34801561006f57600080fd5b506100b26004803603602081101561008657600080fd5b81019080803573ffffffffffffffffffffffffffffffffffffffff169060200190929190505050610413565b005b3480156100c057600080fd5b506100ed600480360360208110156100d757600080fd5b81019080803590602001909291905050506105c7565b005b3480156100fb57600080fd5b5061013e6004803603602081101561011257600080fd5b81019080803573ffffffffffffffffffffffffffffffffffffffff1690602001909291905050506108b7565b6040518082815260200191505060405180910390f35b34801561016057600080fd5b5061018d6004803603602081101561017757600080fd5b810190808035906020019092919050505061096c565b005b34801561019b57600080fd5b506101a4610c0d565b604051808273ffffffffffffffffffffffffffffffffffffffff16815260200191505060405180910390f35b600034905060008060009054906101000a900473ffffffffffffffffffffffffffffffffffffffff1673ffffffffffffffffffffffffffffffffffffffff166370a08231306040518263ffffffff1660e01b8152600401808273ffffffffffffffffffffffffffffffffffffffff16815260200191505060206040518083038186803b15801561025f57600080fd5b505afa158015610273573d6000803e3d6000fd5b505050506040513d602081101561028957600080fd5b8101908080519060200190929190505050146103a65761039b61038a60008054906101000a900473ffffffffffffffffffffffffffffffffffffffff1673ffffffffffffffffffffffffffffffffffffffff166370a08231306040518263ffffffff1660e01b8152600401808273ffffffffffffffffffffffffffffffffffffffff16815260200191505060206040518083038186803b15801561032c57600080fd5b505afa158015610340573d6000803e3d6000fd5b505050506040513d602081101561035657600080fd5b810190808051906020019092919050505061037c6103e885610c3190919063ffffffff16565b610cb790919063ffffffff16565b600354610d0190919063ffffffff16565b600381905550610410565b600160009054906101000a900473ffffffffffffffffffffffffffffffffffffffff1673ffffffffffffffffffffffffffffffffffffffff166108fc829081150290604051600060405180830381858888f1935050505015801561040e573d6000803e3d6000fd5b505b50565b60006003541415610423576105c4565b600061042e826108b7565b905061052c61051b60008054906101000a900473ffffffffffffffffffffffffffffffffffffffff1673ffffffffffffffffffffffffffffffffffffffff166370a08231306040518263ffffffff1660e01b8152600401808273ffffffffffffffffffffffffffffffffffffffff16815260200191505060206040518083038186803b1580156104bd57600080fd5b505afa1580156104d1573d6000803e3d6000fd5b505050506040513d60208110156104e757600080fd5b810190808051906020019092919050505061050d6103e885610c3190919063ffffffff16565b610cb790919063ffffffff16565b600354610d8990919063ffffffff16565b600381905550600354600260008473ffffffffffffffffffffffffffffffffffffffff1673ffffffffffffffffffffffffffffffffffffffff168152602001908152602001600020600101819055508173ffffffffffffffffffffffffffffffffffffffff166108fc829081150290604051600060405180830381858888f193505050501580156105c1573d6000803e3d6000fd5b50505b50565b6000811161063d576040517f08c379a000000000000000000000000000000000000000000000000000000000815260040180806020018281038252601f8152602001807f416d6f756e742073686f756c642062652067726561746572207468616e20300081525060200191505060405180910390fd5b600260003373ffffffffffffffffffffffffffffffffffffffff1673ffffffffffffffffffffffffffffffffffffffff168152602001908152602001600020600001548111156106f5576040517f08c379a00000000000000000000000000000000000000000000000000000000081526004018080602001828103825260208152602001807f43616e6e6f7420756e7374616b65206d6f7265207468616e2062616c616e636581525060200191505060405180910390fd5b6106fe33610413565b61075381600260003373ffffffffffffffffffffffffffffffffffffffff1673ffffffffffffffffffffffffffffffffffffffff16815260200190815260200160002060000154610d8990919063ffffffff16565b600260003373ffffffffffffffffffffffffffffffffffffffff1673ffffffffffffffffffffffffffffffffffffffff1681526020019081526020016000206000018190555060008054906101000a900473ffffffffffffffffffffffffffffffffffffffff1673ffffffffffffffffffffffffffffffffffffffff1663a9059cbb33836040518363ffffffff1660e01b8152600401808373ffffffffffffffffffffffffffffffffffffffff16815260200182815260200192505050602060405180830381600087803b15801561082a57600080fd5b505af115801561083e573d6000803e3d6000fd5b505050506040513d602081101561085457600080fd5b8101908080519060200190929190505050503373ffffffffffffffffffffffffffffffffffffffff167f0f5bb82176feb1b5e747e28471aa92156a04d9f3ab9f45f28e2d704232b93f75826040518082815260200191505060405180910390a250565b60006108c1610f59565b600260008473ffffffffffffffffffffffffffffffffffffffff1673ffffffffffffffffffffffffffffffffffffffff1681526020019081526020016000206040518060400160405290816000820154815260200160018201548152505090506109646103e861095683600001516109488560200151600354610d8990919063ffffffff16565b610c3190919063ffffffff16565b610cb790919063ffffffff16565b915050919050565b600081116109e2576040517f08c379a000000000000000000000000000000000000000000000000000000000815260040180806020018281038252601f8152602001807f416d6f756e742073686f756c642062652067726561746572207468616e20300081525060200191505060405180910390fd5b6000600260003373ffffffffffffffffffffffffffffffffffffffff1673ffffffffffffffffffffffffffffffffffffffff1681526020019081526020016000206000015414610a3657610a3533610413565b5b60008054906101000a900473ffffffffffffffffffffffffffffffffffffffff1673ffffffffffffffffffffffffffffffffffffffff166323b872dd3330846040518463ffffffff1660e01b8152600401808473ffffffffffffffffffffffffffffffffffffffff1681526020018373ffffffffffffffffffffffffffffffffffffffff1681526020018281526020019350505050602060405180830381600087803b158015610ae557600080fd5b505af1158015610af9573d6000803e3d6000fd5b505050506040513d6020811015610b0f57600080fd5b810190808051906020019092919050505050610b7681600260003373ffffffffffffffffffffffffffffffffffffffff1673ffffffffffffffffffffffffffffffffffffffff16815260200190815260200160002060000154610d0190919063ffffffff16565b600260003373ffffffffffffffffffffffffffffffffffffffff1673ffffffffffffffffffffffffffffffffffffffff168152602001908152602001600020600001819055503373ffffffffffffffffffffffffffffffffffffffff167f9e71bc8eea02a63969f509818f2dafb9254532904319f9dbda79b67bd34a5f3d826040518082815260200191505060405180910390a250565b60008054906101000a900473ffffffffffffffffffffffffffffffffffffffff1681565b600080831415610c445760009050610cb1565b6000828402905082848281610c5557fe5b0414610cac576040517f08c379a0000000000000000000000000000000000000000000000000000000008152600401808060200182810382526021815260200180610f746021913960400191505060405180910390fd5b809150505b92915050565b6000610cf983836040518060400160405280601a81526020017f536166654d6174683a206469766973696f6e206279207a65726f000000000000815250610dd3565b905092915050565b600080828401905083811015610d7f576040517f08c379a000000000000000000000000000000000000000000000000000000000815260040180806020018281038252601b8152602001807f536166654d6174683a206164646974696f6e206f766572666c6f77000000000081525060200191505060405180910390fd5b8091505092915050565b6000610dcb83836040518060400160405280601e81526020017f536166654d6174683a207375627472616374696f6e206f766572666c6f770000815250610e99565b905092915050565b60008083118290610e7f576040517f08c379a00000000000000000000000000000000000000000000000000000000081526004018080602001828103825283818151815260200191508051906020019080838360005b83811015610e44578082015181840152602081019050610e29565b50505050905090810190601f168015610e715780820380516001836020036101000a031916815260200191505b509250505060405180910390fd5b506000838581610e8b57fe5b049050809150509392505050565b6000838311158290610f46576040517f08c379a00000000000000000000000000000000000000000000000000000000081526004018080602001828103825283818151815260200191508051906020019080838360005b83811015610f0b578082015181840152602081019050610ef0565b50505050905090810190601f168015610f385780820380516001836020036101000a031916815260200191505b509250505060405180910390fd5b5060008385039050809150509392505050565b60405180604001604052806000815260200160008152509056fe536166654d6174683a206d756c7469706c69636174696f6e206f766572666c6f77a26469706673582212200048b7203e23fab7324e7bb94ec79c4b093736ca3f8f5bff315c7629ae33441664736f6c634300060c0033",
  "immutableReferences": {},
  "source": "pragma solidity ^0.6.8;\nimport \"@openzeppelin/contracts/math/SafeMath.sol\";\nimport \"@openzeppelin/contracts/token/ERC20/IERC20.sol\";\nimport \"./BinToken.sol\";\n\n//SPDX-License-Identifier: UNLICENSED\ncontract BinaryStaking {\n    using SafeMath for uint256;\n    IERC20 public binToken;\n\n    address payable owner;\n    uint constant MUL_CONST = 1000;\n    struct StakingAccount {\n        uint stakedBin;\n        uint valueWhenLastReleased; //Global accumulated value of new_rewards/total_staked when user last got rewards. \n    }\n\n    mapping(address => StakingAccount) stakingBalance;\n    uint accumulatedRewards; //(per staked token)\n\n    event Staked(address indexed user, uint amount);\n    event Unstaked(address indexed user, uint amount);\n\n    constructor(address token) public {\n        owner = msg.sender;\n        binToken = BinToken(token);\n    }\n\n    function receiveFunds() public payable {\n        uint value = msg.value;\n        if (binToken.balanceOf(address(this)) != 0) {\n            accumulatedRewards = accumulatedRewards.add(value.mul(MUL_CONST).div(binToken.balanceOf(address(this))));\n        }\n        else {\n            owner.transfer(value);\n        }\n    }\n\n    function stake(uint amount) external{\n        require(amount > 0, \"Amount should be greater than 0\");\n        if (stakingBalance[msg.sender].stakedBin != 0) {\n            release(msg.sender);\n        }\n\n        binToken.transferFrom(msg.sender, address(this), amount);\n        stakingBalance[msg.sender].stakedBin = stakingBalance[msg.sender].stakedBin.add(amount);\n\n        emit Staked(msg.sender, amount);\n    }\n\n    function unstake(uint amount) external {\n        require(amount > 0, \"Amount should be greater than 0\");\n        require(amount <= stakingBalance[msg.sender].stakedBin, \"Cannot unstake more than balance\");\n\n        release(msg.sender);\n        stakingBalance[msg.sender].stakedBin = stakingBalance[msg.sender].stakedBin.sub(amount);\n\n        binToken.transfer(msg.sender, amount);\n        emit Unstaked(msg.sender, amount);\n    }\n\n    function release (address user) public {\n        if (accumulatedRewards == 0){\n            return;\n        }\n        uint amount = ownedDividends(user);\n        accumulatedRewards = accumulatedRewards.sub(amount.mul(MUL_CONST).div( binToken.balanceOf(address(this))));\n        stakingBalance[user].valueWhenLastReleased = accumulatedRewards;                                                        \n        \n        payable(user).transfer(amount);\n    }\n\n    function ownedDividends(address user) public view returns(uint) {\n        StakingAccount memory balance = stakingBalance[user];\n        return ((accumulatedRewards.sub(balance.valueWhenLastReleased)).mul(balance.stakedBin)).div(MUL_CONST);\n    }\n\n}\n\n",
  "sourcePath": "/home/pedroargento/bot/contracts/BinStaking.sol",
  "compiler": {
    "name": "solc",
    "version": "0.6.12+commit.27d51765.Emscripten.clang"
  },
  "schemaVersion": "3.3.3",
  "updatedAt": "2021-05-31T17:31:01.638Z",
  "devdoc": {
    "kind": "dev",
    "methods": {},
    "version": 1
  },
  "userdoc": {
    "kind": "user",
    "methods": {},
    "version": 1
  }
}