{
  "contractName": "BinaryStaking",
  "abi": [
    {
      "inputs": [
        {
          "internalType": "address",
          "name": "token",
          "type": "address"
        }
      ],
      "stateMutability": "nonpayable",
      "type": "constructor"
    },
    {
      "anonymous": false,
      "inputs": [
        {
          "indexed": true,
          "internalType": "address",
          "name": "user",
          "type": "address"
        },
        {
          "indexed": false,
          "internalType": "uint256",
          "name": "amount",
          "type": "uint256"
        }
      ],
      "name": "Release",
      "type": "event"
    },
    {
      "anonymous": false,
      "inputs": [
        {
          "indexed": true,
          "internalType": "address",
          "name": "user",
          "type": "address"
        },
        {
          "indexed": false,
          "internalType": "uint256",
          "name": "amount",
          "type": "uint256"
        }
      ],
      "name": "Staked",
      "type": "event"
    },
    {
      "anonymous": false,
      "inputs": [
        {
          "indexed": true,
          "internalType": "address",
          "name": "user",
          "type": "address"
        },
        {
          "indexed": false,
          "internalType": "uint256",
          "name": "amount",
          "type": "uint256"
        }
      ],
      "name": "Unstaked",
      "type": "event"
    },
    {
      "inputs": [],
      "name": "accumulatedRewards",
      "outputs": [
        {
          "internalType": "uint256",
          "name": "",
          "type": "uint256"
        }
      ],
      "stateMutability": "view",
      "type": "function",
      "constant": true
    },
    {
      "inputs": [],
      "name": "binToken",
      "outputs": [
        {
          "internalType": "contract IERC20",
          "name": "",
          "type": "address"
        }
      ],
      "stateMutability": "view",
      "type": "function",
      "constant": true
    },
    {
      "inputs": [
        {
          "internalType": "address",
          "name": "",
          "type": "address"
        }
      ],
      "name": "stakingBalance",
      "outputs": [
        {
          "internalType": "uint256",
          "name": "stakedBin",
          "type": "uint256"
        },
        {
          "internalType": "uint256",
          "name": "valueWhenLastReleased",
          "type": "uint256"
        }
      ],
      "stateMutability": "view",
      "type": "function",
      "constant": true
    },
    {
      "inputs": [],
      "name": "receiveFunds",
      "outputs": [],
      "stateMutability": "payable",
      "type": "function",
      "payable": true
    },
    {
      "inputs": [
        {
          "internalType": "uint256",
          "name": "amount",
          "type": "uint256"
        }
      ],
      "name": "stake",
      "outputs": [],
      "stateMutability": "nonpayable",
      "type": "function"
    },
    {
      "inputs": [
        {
          "internalType": "uint256",
          "name": "amount",
          "type": "uint256"
        }
      ],
      "name": "unstake",
      "outputs": [],
      "stateMutability": "nonpayable",
      "type": "function"
    },
    {
      "inputs": [],
      "name": "release",
      "outputs": [],
      "stateMutability": "nonpayable",
      "type": "function"
    },
    {
      "inputs": [
        {
          "internalType": "address",
          "name": "user",
          "type": "address"
        }
      ],
      "name": "ownedDividends",
      "outputs": [
        {
          "internalType": "uint256",
          "name": "",
          "type": "uint256"
        }
      ],
      "stateMutability": "view",
      "type": "function",
      "constant": true
    }
  ],
  "bytecode": "0x60806040523480156200001157600080fd5b50604051620010c8380380620010c88339818101604052810190620000379190620000d6565b33600160006101000a81548173ffffffffffffffffffffffffffffffffffffffff021916908373ffffffffffffffffffffffffffffffffffffffff160217905550806000806101000a81548173ffffffffffffffffffffffffffffffffffffffff021916908373ffffffffffffffffffffffffffffffffffffffff160217905550506200015b565b600081519050620000d08162000141565b92915050565b600060208284031215620000ef57620000ee6200013c565b5b6000620000ff84828501620000bf565b91505092915050565b600062000115826200011c565b9050919050565b600073ffffffffffffffffffffffffffffffffffffffff82169050919050565b600080fd5b6200014c8162000108565b81146200015857600080fd5b50565b610f5d806200016b6000396000f3fe60806040526004361061007a5760003560e01c80639c81ff6b1161004e5780639c81ff6b14610107578063a66e456214610132578063a694fc3a1461016f578063fe4fdc4e146101985761007a565b80625c33e11461007f5780632e17de781461008957806345bc78ab146100b257806386d1a69f146100f0575b600080fd5b6100876101c3565b005b34801561009557600080fd5b506100b060048036038101906100ab9190610ab4565b6103c9565b005b3480156100be57600080fd5b506100d960048036038101906100d49190610a5a565b61062c565b6040516100e7929190610c72565b60405180910390f35b3480156100fc57600080fd5b50610105610650565b005b34801561011357600080fd5b5061011c610759565b6040516101299190610c57565b60405180910390f35b34801561013e57600080fd5b5061015960048036038101906101549190610a5a565b61075f565b6040516101669190610c57565b60405180910390f35b34801561017b57600080fd5b5061019660048036038101906101919190610ab4565b610802565b005b3480156101a457600080fd5b506101ad6109e2565b6040516101ba9190610bfc565b60405180910390f35b600034905060008060009054906101000a900473ffffffffffffffffffffffffffffffffffffffff1673ffffffffffffffffffffffffffffffffffffffff166370a08231306040518263ffffffff1660e01b81526004016102249190610b81565b60206040518083038186803b15801561023c57600080fd5b505afa158015610250573d6000803e3d6000fd5b505050506040513d601f19601f820116820180604052508101906102749190610ae1565b1461035c5760008054906101000a900473ffffffffffffffffffffffffffffffffffffffff1673ffffffffffffffffffffffffffffffffffffffff166370a08231306040518263ffffffff1660e01b81526004016102d29190610b81565b60206040518083038186803b1580156102ea57600080fd5b505afa1580156102fe573d6000803e3d6000fd5b505050506040513d601f19601f820116820180604052508101906103229190610ae1565b6b033b2e3c9fd0803ce80000008261033a9190610d33565b6103449190610d02565b6003546103519190610cac565b6003819055506103c6565b600160009054906101000a900473ffffffffffffffffffffffffffffffffffffffff1673ffffffffffffffffffffffffffffffffffffffff166108fc829081150290604051600060405180830381858888f193505050501580156103c4573d6000803e3d6000fd5b505b50565b6000811161040c576040517f08c379a000000000000000000000000000000000000000000000000000000000815260040161040390610c17565b60405180910390fd5b600260003373ffffffffffffffffffffffffffffffffffffffff1673ffffffffffffffffffffffffffffffffffffffff16815260200190815260200160002060000154811115610491576040517f08c379a000000000000000000000000000000000000000000000000000000000815260040161048890610c37565b60405180910390fd5b610499610650565b80600260003373ffffffffffffffffffffffffffffffffffffffff1673ffffffffffffffffffffffffffffffffffffffff168152602001908152602001600020600001546104e79190610d8d565b600260003373ffffffffffffffffffffffffffffffffffffffff1673ffffffffffffffffffffffffffffffffffffffff1681526020019081526020016000206000018190555060008054906101000a900473ffffffffffffffffffffffffffffffffffffffff1673ffffffffffffffffffffffffffffffffffffffff1663a9059cbb33836040518363ffffffff1660e01b8152600401610588929190610bd3565b602060405180830381600087803b1580156105a257600080fd5b505af11580156105b6573d6000803e3d6000fd5b505050506040513d601f19601f820116820180604052508101906105da9190610a87565b503373ffffffffffffffffffffffffffffffffffffffff167f0f5bb82176feb1b5e747e28471aa92156a04d9f3ab9f45f28e2d704232b93f75826040516106219190610c57565b60405180910390a250565b60026020528060005260406000206000915090508060000154908060010154905082565b6000600354141561066057610757565b600061066b3361075f565b9050600354600260003373ffffffffffffffffffffffffffffffffffffffff1673ffffffffffffffffffffffffffffffffffffffff168152602001908152602001600020600101819055506000811115610755573373ffffffffffffffffffffffffffffffffffffffff166108fc829081150290604051600060405180830381858888f19350505050158015610705573d6000803e3d6000fd5b503373ffffffffffffffffffffffffffffffffffffffff167ff6334794522b9db534a812aaae1af828a2e96aac68473b58e36d7d0bfd67477b8260405161074c9190610c57565b60405180910390a25b505b565b60035481565b600080600260008473ffffffffffffffffffffffffffffffffffffffff1673ffffffffffffffffffffffffffffffffffffffff1681526020019081526020016000206040518060400160405290816000820154815260200160018201548152505090506b033b2e3c9fd0803ce800000081602001516003546107e19190610d8d565b82600001516107f09190610d33565b6107fa9190610d02565b915050919050565b60008111610845576040517f08c379a000000000000000000000000000000000000000000000000000000000815260040161083c90610c17565b60405180910390fd5b61084d610650565b60008054906101000a900473ffffffffffffffffffffffffffffffffffffffff1673ffffffffffffffffffffffffffffffffffffffff166323b872dd3330846040518463ffffffff1660e01b81526004016108aa93929190610b9c565b602060405180830381600087803b1580156108c457600080fd5b505af11580156108d8573d6000803e3d6000fd5b505050506040513d601f19601f820116820180604052508101906108fc9190610a87565b5080600260003373ffffffffffffffffffffffffffffffffffffffff1673ffffffffffffffffffffffffffffffffffffffff1681526020019081526020016000206000015461094b9190610cac565b600260003373ffffffffffffffffffffffffffffffffffffffff1673ffffffffffffffffffffffffffffffffffffffff168152602001908152602001600020600001819055503373ffffffffffffffffffffffffffffffffffffffff167f9e71bc8eea02a63969f509818f2dafb9254532904319f9dbda79b67bd34a5f3d826040516109d79190610c57565b60405180910390a250565b60008054906101000a900473ffffffffffffffffffffffffffffffffffffffff1681565b600081359050610a1581610ee2565b92915050565b600081519050610a2a81610ef9565b92915050565b600081359050610a3f81610f10565b92915050565b600081519050610a5481610f10565b92915050565b600060208284031215610a7057610a6f610e8b565b5b6000610a7e84828501610a06565b91505092915050565b600060208284031215610a9d57610a9c610e8b565b5b6000610aab84828501610a1b565b91505092915050565b600060208284031215610aca57610ac9610e8b565b5b6000610ad884828501610a30565b91505092915050565b600060208284031215610af757610af6610e8b565b5b6000610b0584828501610a45565b91505092915050565b610b1781610dc1565b82525050565b610b2681610e09565b82525050565b6000610b39601f83610c9b565b9150610b4482610e90565b602082019050919050565b6000610b5c602083610c9b565b9150610b6782610eb9565b602082019050919050565b610b7b81610dff565b82525050565b6000602082019050610b966000830184610b0e565b92915050565b6000606082019050610bb16000830186610b0e565b610bbe6020830185610b0e565b610bcb6040830184610b72565b949350505050565b6000604082019050610be86000830185610b0e565b610bf56020830184610b72565b9392505050565b6000602082019050610c116000830184610b1d565b92915050565b60006020820190508181036000830152610c3081610b2c565b9050919050565b60006020820190508181036000830152610c5081610b4f565b9050919050565b6000602082019050610c6c6000830184610b72565b92915050565b6000604082019050610c876000830185610b72565b610c946020830184610b72565b9392505050565b600082825260208201905092915050565b6000610cb782610dff565b9150610cc283610dff565b9250827fffffffffffffffffffffffffffffffffffffffffffffffffffffffffffffffff03821115610cf757610cf6610e2d565b5b828201905092915050565b6000610d0d82610dff565b9150610d1883610dff565b925082610d2857610d27610e5c565b5b828204905092915050565b6000610d3e82610dff565b9150610d4983610dff565b9250817fffffffffffffffffffffffffffffffffffffffffffffffffffffffffffffffff0483118215151615610d8257610d81610e2d565b5b828202905092915050565b6000610d9882610dff565b9150610da383610dff565b925082821015610db657610db5610e2d565b5b828203905092915050565b6000610dcc82610ddf565b9050919050565b60008115159050919050565b600073ffffffffffffffffffffffffffffffffffffffff82169050919050565b6000819050919050565b6000610e1482610e1b565b9050919050565b6000610e2682610ddf565b9050919050565b7f4e487b7100000000000000000000000000000000000000000000000000000000600052601160045260246000fd5b7f4e487b7100000000000000000000000000000000000000000000000000000000600052601260045260246000fd5b600080fd5b7f416d6f756e742073686f756c642062652067726561746572207468616e203000600082015250565b7f43616e6e6f7420756e7374616b65206d6f7265207468616e2062616c616e6365600082015250565b610eeb81610dc1565b8114610ef657600080fd5b50565b610f0281610dd3565b8114610f0d57600080fd5b50565b610f1981610dff565b8114610f2457600080fd5b5056fea26469706673582212200c95782fd142efc46ebac4aedd73f75649b25270e0897c06f5ad054e6eecd6f364736f6c63430008060033",
  "immutableReferences": {},
  "source": "pragma solidity ^0.8.0;\nimport \"@openzeppelin/contracts/token/ERC20/IERC20.sol\";\nimport \"./BinToken.sol\";\n//SPDX-License-Identifier: UNLICENSED\ncontract BinaryStaking {\n    IERC20 public binToken;\n\n    uint internal constant PRECISION_CONSTANT = 1e27;\n    address payable owner;\n    struct StakingAccount {\n        uint stakedBin; \n        uint valueWhenLastReleased; //Global accumulated value of new_rewards/total_staked when user last got rewards\n    }\n\n    mapping(address => StakingAccount) public stakingBalance;\n    uint public accumulatedRewards; //(per staked token) \n\n    event Staked(address indexed user, uint amount);\n    event Unstaked(address indexed user, uint amount);\n    event Release(address indexed user, uint amount);\n\n    constructor(address token) public {\n        owner = payable(msg.sender);\n        binToken = BinToken(token);\n    }\n\n    function receiveFunds() public payable {\n        uint value = msg.value;\n        if (binToken.balanceOf(address(this)) != 0) {\n            accumulatedRewards = accumulatedRewards + (value*PRECISION_CONSTANT) / binToken.balanceOf(address(this));\n        }\n        else {\n            owner.transfer(value);\n        }\n    }\n\n    function stake(uint amount) external{\n        require(amount > 0, \"Amount should be greater than 0\");\n        release();\n        binToken.transferFrom(msg.sender, address(this), amount);\n        stakingBalance[msg.sender].stakedBin = stakingBalance[msg.sender].stakedBin + amount;\n\n        emit Staked(msg.sender, amount);\n    }\n\n    function unstake(uint amount) external {\n        require(amount > 0, \"Amount should be greater than 0\");\n        require(amount <= stakingBalance[msg.sender].stakedBin, \"Cannot unstake more than balance\");\n\n        release();\n        stakingBalance[msg.sender].stakedBin = stakingBalance[msg.sender].stakedBin - amount;\n\n        binToken.transfer(msg.sender, amount);\n        emit Unstaked(msg.sender, amount);\n    }\n\n    function release () public {\n        if (accumulatedRewards == 0){\n            return;\n        }\n        uint amount = ownedDividends(msg.sender);\n        stakingBalance[msg.sender].valueWhenLastReleased = accumulatedRewards;                                                        \n        \n        if (amount > 0) {\n            payable(msg.sender).transfer(amount);\n            emit Release(msg.sender, amount);\n        }\n    }\n\n    function ownedDividends(address user) public view returns(uint) {\n        StakingAccount memory balance = stakingBalance[user];\n        return  (balance.stakedBin * (accumulatedRewards - balance.valueWhenLastReleased)) / PRECISION_CONSTANT ;\n    }\n\n\n}\n\n",
  "sourcePath": "/home/pedroargento/bot/contracts/BinStaking.sol",
  "compiler": {
    "name": "solc",
    "version": "0.8.6+commit.11564f7e.Emscripten.clang"
  },
  "schemaVersion": "3.3.3",
  "updatedAt": "2021-08-10T22:40:52.269Z",
  "networkType": "ethereum",
  "devdoc": {
    "kind": "dev",
    "methods": {},
    "version": 1
  },
  "userdoc": {
    "kind": "user",
    "methods": {},
    "version": 1
  }
}