{
  "contractName": "BinaryStaking",
  "abi": [
    {
      "inputs": [
        {
          "internalType": "address",
          "name": "token",
          "type": "address"
        }
      ],
      "stateMutability": "nonpayable",
      "type": "constructor"
    },
    {
      "anonymous": false,
      "inputs": [
        {
          "indexed": false,
          "internalType": "address",
          "name": "user",
          "type": "address"
        },
        {
          "indexed": false,
          "internalType": "uint256",
          "name": "amount",
          "type": "uint256"
        }
      ],
      "name": "Staked",
      "type": "event"
    },
    {
      "anonymous": false,
      "inputs": [
        {
          "indexed": false,
          "internalType": "address",
          "name": "user",
          "type": "address"
        },
        {
          "indexed": false,
          "internalType": "uint256",
          "name": "amount",
          "type": "uint256"
        }
      ],
      "name": "Unstaked",
      "type": "event"
    },
    {
      "inputs": [],
      "name": "binToken",
      "outputs": [
        {
          "internalType": "contract IERC20",
          "name": "",
          "type": "address"
        }
      ],
      "stateMutability": "view",
      "type": "function",
      "constant": true
    },
    {
      "inputs": [],
      "name": "receiveFunds",
      "outputs": [],
      "stateMutability": "payable",
      "type": "function",
      "payable": true
    },
    {
      "inputs": [
        {
          "internalType": "uint256",
          "name": "amount",
          "type": "uint256"
        }
      ],
      "name": "stake",
      "outputs": [],
      "stateMutability": "nonpayable",
      "type": "function"
    },
    {
      "inputs": [
        {
          "internalType": "uint256",
          "name": "amount",
          "type": "uint256"
        }
      ],
      "name": "unstake",
      "outputs": [],
      "stateMutability": "nonpayable",
      "type": "function"
    },
    {
      "inputs": [
        {
          "internalType": "address",
          "name": "user",
          "type": "address"
        }
      ],
      "name": "release",
      "outputs": [],
      "stateMutability": "nonpayable",
      "type": "function"
    }
  ],
  "bytecode": "0x608060405234801561001057600080fd5b50604051610fe3380380610fe38339818101604052602081101561003357600080fd5b810190808051906020019092919050505033600160006101000a81548173ffffffffffffffffffffffffffffffffffffffff021916908373ffffffffffffffffffffffffffffffffffffffff160217905550806000806101000a81548173ffffffffffffffffffffffffffffffffffffffff021916908373ffffffffffffffffffffffffffffffffffffffff16021790555050610f0e806100d56000396000f3fe6080604052600436106100495760003560e01c80625c33e11461004e57806319165587146100585780632e17de78146100a9578063a694fc3a146100e4578063fe4fdc4e1461011f575b600080fd5b610056610160565b005b34801561006457600080fd5b506100a76004803603602081101561007b57600080fd5b81019080803573ffffffffffffffffffffffffffffffffffffffff1690602001909291905050506103a3565b005b3480156100b557600080fd5b506100e2600480360360208110156100cc57600080fd5b8101908080359060200190929190505050610583565b005b3480156100f057600080fd5b5061011d6004803603602081101561010757600080fd5b810190808035906020019092919050505061087a565b005b34801561012b57600080fd5b50610134610b6b565b604051808273ffffffffffffffffffffffffffffffffffffffff16815260200191505060405180910390f35b600034905060008060009054906101000a900473ffffffffffffffffffffffffffffffffffffffff1673ffffffffffffffffffffffffffffffffffffffff166370a08231306040518263ffffffff1660e01b8152600401808273ffffffffffffffffffffffffffffffffffffffff16815260200191505060206040518083038186803b1580156101ef57600080fd5b505afa158015610203573d6000803e3d6000fd5b505050506040513d602081101561021957600080fd5b8101908080519060200190929190505050146103365761032b61031a6103e861030c60008054906101000a900473ffffffffffffffffffffffffffffffffffffffff1673ffffffffffffffffffffffffffffffffffffffff166370a08231306040518263ffffffff1660e01b8152600401808273ffffffffffffffffffffffffffffffffffffffff16815260200191505060206040518083038186803b1580156102c257600080fd5b505afa1580156102d6573d6000803e3d6000fd5b505050506040513d60208110156102ec57600080fd5b810190808051906020019092919050505085610b8f90919063ffffffff16565b610bd990919063ffffffff16565b600354610c5f90919063ffffffff16565b6003819055506103a0565b600160009054906101000a900473ffffffffffffffffffffffffffffffffffffffff1673ffffffffffffffffffffffffffffffffffffffff166108fc829081150290604051600060405180830381858888f1935050505015801561039e573d6000803e3d6000fd5b505b50565b600060035414156103b357610580565b6000600260008373ffffffffffffffffffffffffffffffffffffffff1673ffffffffffffffffffffffffffffffffffffffff1681526020019081526020016000209050600061043b6103e861042d846000015461041f8660010154600354610ce790919063ffffffff16565b610bd990919063ffffffff16565b610b8f90919063ffffffff16565b905061052561051460008054906101000a900473ffffffffffffffffffffffffffffffffffffffff1673ffffffffffffffffffffffffffffffffffffffff166370a08231306040518263ffffffff1660e01b8152600401808273ffffffffffffffffffffffffffffffffffffffff16815260200191505060206040518083038186803b1580156104ca57600080fd5b505afa1580156104de573d6000803e3d6000fd5b505050506040513d60208110156104f457600080fd5b810190808051906020019092919050505083610b8f90919063ffffffff16565b600354610ce790919063ffffffff16565b60038190555060035482600101819055508273ffffffffffffffffffffffffffffffffffffffff166108fc829081150290604051600060405180830381858888f1935050505015801561057c573d6000803e3d6000fd5b5050505b50565b600081116105f9576040517f08c379a000000000000000000000000000000000000000000000000000000000815260040180806020018281038252601f8152602001807f416d6f756e742073686f756c642062652067726561746572207468616e20300081525060200191505060405180910390fd5b600260003373ffffffffffffffffffffffffffffffffffffffff1673ffffffffffffffffffffffffffffffffffffffff168152602001908152602001600020600001548111156106b1576040517f08c379a00000000000000000000000000000000000000000000000000000000081526004018080602001828103825260208152602001807f43616e6e6f7420756e7374616b65206d6f7265207468616e2062616c616e636581525060200191505060405180910390fd5b6106ba336103a3565b61070f81600260003373ffffffffffffffffffffffffffffffffffffffff1673ffffffffffffffffffffffffffffffffffffffff16815260200190815260200160002060000154610ce790919063ffffffff16565b600260003373ffffffffffffffffffffffffffffffffffffffff1673ffffffffffffffffffffffffffffffffffffffff1681526020019081526020016000206000018190555060008054906101000a900473ffffffffffffffffffffffffffffffffffffffff1673ffffffffffffffffffffffffffffffffffffffff1663a9059cbb33836040518363ffffffff1660e01b8152600401808373ffffffffffffffffffffffffffffffffffffffff16815260200182815260200192505050602060405180830381600087803b1580156107e657600080fd5b505af11580156107fa573d6000803e3d6000fd5b505050506040513d602081101561081057600080fd5b8101908080519060200190929190505050507f0f5bb82176feb1b5e747e28471aa92156a04d9f3ab9f45f28e2d704232b93f753382604051808373ffffffffffffffffffffffffffffffffffffffff1681526020018281526020019250505060405180910390a150565b600081116108f0576040517f08c379a000000000000000000000000000000000000000000000000000000000815260040180806020018281038252601f8152602001807f416d6f756e742073686f756c642062652067726561746572207468616e20300081525060200191505060405180910390fd5b6000600260003373ffffffffffffffffffffffffffffffffffffffff1673ffffffffffffffffffffffffffffffffffffffff168152602001908152602001600020600001541461094457610943336103a3565b5b60008054906101000a900473ffffffffffffffffffffffffffffffffffffffff1673ffffffffffffffffffffffffffffffffffffffff166323b872dd3330846040518463ffffffff1660e01b8152600401808473ffffffffffffffffffffffffffffffffffffffff1681526020018373ffffffffffffffffffffffffffffffffffffffff1681526020018281526020019350505050602060405180830381600087803b1580156109f357600080fd5b505af1158015610a07573d6000803e3d6000fd5b505050506040513d6020811015610a1d57600080fd5b810190808051906020019092919050505050610a8481600260003373ffffffffffffffffffffffffffffffffffffffff1673ffffffffffffffffffffffffffffffffffffffff16815260200190815260200160002060000154610c5f90919063ffffffff16565b600260003373ffffffffffffffffffffffffffffffffffffffff1673ffffffffffffffffffffffffffffffffffffffff16815260200190815260200160002060000181905550600354600260003373ffffffffffffffffffffffffffffffffffffffff1673ffffffffffffffffffffffffffffffffffffffff168152602001908152602001600020600101819055507f9e71bc8eea02a63969f509818f2dafb9254532904319f9dbda79b67bd34a5f3d3382604051808373ffffffffffffffffffffffffffffffffffffffff1681526020018281526020019250505060405180910390a150565b60008054906101000a900473ffffffffffffffffffffffffffffffffffffffff1681565b6000610bd183836040518060400160405280601a81526020017f536166654d6174683a206469766973696f6e206279207a65726f000000000000815250610d31565b905092915050565b600080831415610bec5760009050610c59565b6000828402905082848281610bfd57fe5b0414610c54576040517f08c379a0000000000000000000000000000000000000000000000000000000008152600401808060200182810382526021815260200180610eb86021913960400191505060405180910390fd5b809150505b92915050565b600080828401905083811015610cdd576040517f08c379a000000000000000000000000000000000000000000000000000000000815260040180806020018281038252601b8152602001807f536166654d6174683a206164646974696f6e206f766572666c6f77000000000081525060200191505060405180910390fd5b8091505092915050565b6000610d2983836040518060400160405280601e81526020017f536166654d6174683a207375627472616374696f6e206f766572666c6f770000815250610df7565b905092915050565b60008083118290610ddd576040517f08c379a00000000000000000000000000000000000000000000000000000000081526004018080602001828103825283818151815260200191508051906020019080838360005b83811015610da2578082015181840152602081019050610d87565b50505050905090810190601f168015610dcf5780820380516001836020036101000a031916815260200191505b509250505060405180910390fd5b506000838581610de957fe5b049050809150509392505050565b6000838311158290610ea4576040517f08c379a00000000000000000000000000000000000000000000000000000000081526004018080602001828103825283818151815260200191508051906020019080838360005b83811015610e69578082015181840152602081019050610e4e565b50505050905090810190601f168015610e965780820380516001836020036101000a031916815260200191505b509250505060405180910390fd5b506000838503905080915050939250505056fe536166654d6174683a206d756c7469706c69636174696f6e206f766572666c6f77a2646970667358221220a59b38a43df106bd081d569e757212b255c197ef529cb652e411ff602a46a9c864736f6c634300060c0033",
  "immutableReferences": {},
  "source": "pragma solidity ^0.6.8;\nimport \"@openzeppelin/contracts/math/SafeMath.sol\";\nimport \"@openzeppelin/contracts/token/ERC20/IERC20.sol\";\nimport \"./BinToken.sol\";\n\n//SPDX-License-Identifier: UNLICENSED\ncontract BinaryStaking {\n    using SafeMath for uint256;\n    IERC20 public binToken;\n\n    address payable owner;\n    uint constant MUL_CONST = 1000;\n    event Staked(address user, uint amount);\n    event Unstaked(address user, uint amount);\n    struct StakingAccount {\n        uint stakedBin;\n        uint valueWhenLastRelesed; //Global accumulated value of new_rewards/total_staked when user last got rewards. \n    }\n\n    mapping(address => StakingAccount) stakingBalance;\n    uint accumulatedRewards; //(per staked token)\n\n    constructor(address token) public {\n        owner = msg.sender;\n        binToken = BinToken(token);\n    }\n\n    function receiveFunds() public payable {\n        uint value = msg.value;\n        if (binToken.balanceOf(address(this)) != 0) {\n            accumulatedRewards = accumulatedRewards.add(value.div(binToken.balanceOf(address(this))).mul(MUL_CONST));\n        }\n        else {\n            owner.transfer(value);\n        }\n    }\n\n    function stake(uint amount) external{\n        require(amount > 0, \"Amount should be greater than 0\");\n        if (stakingBalance[msg.sender].stakedBin != 0) {\n            release(msg.sender);\n        }\n\n        binToken.transferFrom(msg.sender, address(this), amount);\n        stakingBalance[msg.sender].stakedBin = stakingBalance[msg.sender].stakedBin.add(amount);\n        stakingBalance[msg.sender].valueWhenLastRelesed = accumulatedRewards;\n\n        emit Staked(msg.sender, amount);\n    }\n\n    function unstake(uint amount) external {\n        require(amount > 0, \"Amount should be greater than 0\");\n        require(amount <= stakingBalance[msg.sender].stakedBin, \"Cannot unstake more than balance\");\n\n        release(msg.sender);\n        stakingBalance[msg.sender].stakedBin = stakingBalance[msg.sender].stakedBin.sub(amount);\n\n        binToken.transfer(msg.sender, amount);\n        emit Unstaked(msg.sender, amount);\n    }\n\n    function release (address user) public {\n        if (accumulatedRewards == 0){\n            return;\n        }\n        StakingAccount storage balance = stakingBalance[user];\n        uint amount = (accumulatedRewards.sub(balance.valueWhenLastRelesed)).mul(balance.stakedBin).div(MUL_CONST);\n        \n        accumulatedRewards = accumulatedRewards.sub(amount.div( binToken.balanceOf(address(this))));\n        balance.valueWhenLastRelesed = accumulatedRewards;                                                        \n        \n        payable(user).transfer(amount);\n    }\n\n}\n\n",
  "sourcePath": "/home/pedroargento/bot/contracts/BinStaking.sol",
  "compiler": {
    "name": "solc",
    "version": "0.6.12+commit.27d51765.Emscripten.clang"
  },
  "schemaVersion": "3.3.3",
  "updatedAt": "2021-05-16T22:22:14.584Z",
  "networkType": "ethereum",
  "devdoc": {
    "kind": "dev",
    "methods": {},
    "version": 1
  },
  "userdoc": {
    "kind": "user",
    "methods": {},
    "version": 1
  }
}