{
  "contractName": "BinaryBet",
  "abi": [
    {
      "inputs": [
        {
          "internalType": "uint256",
          "name": "_firstWindowTimestamp",
          "type": "uint256"
        },
        {
          "internalType": "uint256",
          "name": "_windowDuration",
          "type": "uint256"
        },
        {
          "internalType": "uint256",
          "name": "_fee",
          "type": "uint256"
        }
      ],
      "stateMutability": "nonpayable",
      "type": "constructor"
    },
    {
      "anonymous": false,
      "inputs": [
        {
          "indexed": false,
          "internalType": "uint256",
          "name": "gain",
          "type": "uint256"
        },
        {
          "indexed": false,
          "internalType": "uint256",
          "name": "windowNumber",
          "type": "uint256"
        },
        {
          "indexed": false,
          "internalType": "address",
          "name": "user",
          "type": "address"
        }
      ],
      "name": "betSettled",
      "type": "event"
    },
    {
      "anonymous": false,
      "inputs": [
        {
          "indexed": false,
          "internalType": "uint256",
          "name": "value",
          "type": "uint256"
        },
        {
          "indexed": false,
          "internalType": "enum BinaryBet.BetSide",
          "name": "side",
          "type": "uint8"
        },
        {
          "indexed": false,
          "internalType": "address",
          "name": "user",
          "type": "address"
        },
        {
          "indexed": false,
          "internalType": "uint256",
          "name": "windowNumber",
          "type": "uint256"
        }
      ],
      "name": "newBet",
      "type": "event"
    },
    {
      "anonymous": false,
      "inputs": [
        {
          "indexed": false,
          "internalType": "uint256",
          "name": "value",
          "type": "uint256"
        },
        {
          "indexed": false,
          "internalType": "address",
          "name": "user",
          "type": "address"
        }
      ],
      "name": "newDeposit",
      "type": "event"
    },
    {
      "anonymous": false,
      "inputs": [
        {
          "indexed": false,
          "internalType": "uint256",
          "name": "value",
          "type": "uint256"
        },
        {
          "indexed": false,
          "internalType": "address",
          "name": "user",
          "type": "address"
        }
      ],
      "name": "newWithdraw",
      "type": "event"
    },
    {
      "inputs": [],
      "name": "deposit",
      "outputs": [],
      "stateMutability": "payable",
      "type": "function",
      "payable": true
    },
    {
      "inputs": [
        {
          "internalType": "uint256",
          "name": "value",
          "type": "uint256"
        }
      ],
      "name": "withdraw",
      "outputs": [],
      "stateMutability": "nonpayable",
      "type": "function"
    },
    {
      "inputs": [
        {
          "internalType": "uint256",
          "name": "betValue",
          "type": "uint256"
        },
        {
          "internalType": "enum BinaryBet.BetSide",
          "name": "side",
          "type": "uint8"
        }
      ],
      "name": "placeBet",
      "outputs": [],
      "stateMutability": "payable",
      "type": "function",
      "payable": true
    },
    {
      "inputs": [
        {
          "internalType": "address",
          "name": "user",
          "type": "address"
        }
      ],
      "name": "updateBalance",
      "outputs": [
        {
          "internalType": "uint256",
          "name": "",
          "type": "uint256"
        }
      ],
      "stateMutability": "nonpayable",
      "type": "function"
    },
    {
      "inputs": [
        {
          "internalType": "uint256",
          "name": "upStake",
          "type": "uint256"
        },
        {
          "internalType": "uint256",
          "name": "downStake",
          "type": "uint256"
        },
        {
          "internalType": "uint256",
          "name": "poolUp",
          "type": "uint256"
        },
        {
          "internalType": "uint256",
          "name": "poolDown",
          "type": "uint256"
        },
        {
          "internalType": "uint8",
          "name": "betResult",
          "type": "uint8"
        }
      ],
      "name": "settleBet",
      "outputs": [
        {
          "internalType": "uint256",
          "name": "",
          "type": "uint256"
        }
      ],
      "stateMutability": "pure",
      "type": "function",
      "constant": true
    },
    {
      "inputs": [
        {
          "internalType": "uint256",
          "name": "referencePrice",
          "type": "uint256"
        },
        {
          "internalType": "uint256",
          "name": "settlementPrice",
          "type": "uint256"
        }
      ],
      "name": "betResult",
      "outputs": [
        {
          "internalType": "uint8",
          "name": "",
          "type": "uint8"
        }
      ],
      "stateMutability": "pure",
      "type": "function",
      "constant": true
    },
    {
      "inputs": [
        {
          "internalType": "uint256",
          "name": "windowNumber",
          "type": "uint256"
        },
        {
          "internalType": "uint256",
          "name": "value",
          "type": "uint256"
        },
        {
          "internalType": "uint8",
          "name": "betSide",
          "type": "uint8"
        }
      ],
      "name": "updatePool",
      "outputs": [],
      "stateMutability": "nonpayable",
      "type": "function"
    },
    {
      "inputs": [
        {
          "internalType": "uint256",
          "name": "currentTimestamp",
          "type": "uint256"
        }
      ],
      "name": "getTimestampWindow",
      "outputs": [
        {
          "internalType": "uint256",
          "name": "windowNumber",
          "type": "uint256"
        }
      ],
      "stateMutability": "view",
      "type": "function",
      "constant": true
    },
    {
      "inputs": [
        {
          "internalType": "uint256",
          "name": "windowNumber",
          "type": "uint256"
        }
      ],
      "name": "getWindowStartingTimestamp",
      "outputs": [
        {
          "internalType": "uint256",
          "name": "startingTimestamp",
          "type": "uint256"
        }
      ],
      "stateMutability": "view",
      "type": "function",
      "constant": true
    },
    {
      "inputs": [
        {
          "internalType": "uint256",
          "name": "value",
          "type": "uint256"
        },
        {
          "internalType": "uint256",
          "name": "_fee",
          "type": "uint256"
        }
      ],
      "name": "computeFee",
      "outputs": [
        {
          "internalType": "uint256",
          "name": "betFee",
          "type": "uint256"
        }
      ],
      "stateMutability": "pure",
      "type": "function",
      "constant": true
    },
    {
      "inputs": [
        {
          "internalType": "uint256",
          "name": "windowNumber",
          "type": "uint256"
        }
      ],
      "name": "getPoolValues",
      "outputs": [
        {
          "internalType": "uint256",
          "name": "",
          "type": "uint256"
        },
        {
          "internalType": "uint256",
          "name": "",
          "type": "uint256"
        },
        {
          "internalType": "uint256",
          "name": "",
          "type": "uint256"
        },
        {
          "internalType": "uint256",
          "name": "",
          "type": "uint256"
        }
      ],
      "stateMutability": "view",
      "type": "function",
      "constant": true
    }
  ],
  "bytecode": "0x60806040523480156200001157600080fd5b506040516200244b3803806200244b833981810160405260608110156200003757600080fd5b508051602082015160409092015190919060648111156200005757600080fd5b6040518060a001604052808481526020016200008284866200021260201b62000be21790919060201c565b8152602001620000bb620000a66002866200027660201b62000c3c1790919060201c565b866200021260201b62000be21790919060201c565b8152600060208083018290526040928301829052835160048190558482015160058190559385015160068190556060860151600781905560809096015160088190556009899055848052600a9093527f13da86008ba1c6922daee3e07db95305ef49ebced9f5467a0b8613fcc6b343e3919091557f13da86008ba1c6922daee3e07db95305ef49ebced9f5467a0b8613fcc6b343e4939093557f13da86008ba1c6922daee3e07db95305ef49ebced9f5467a0b8613fcc6b343e5929092557f13da86008ba1c6922daee3e07db95305ef49ebced9f5467a0b8613fcc6b343e6929092557f13da86008ba1c6922daee3e07db95305ef49ebced9f5467a0b8613fcc6b343e755819055600180546001600160a01b03191633179055620001e86001600160e01b03620002d416565b600280546001600160a01b0319166001600160a01b03929092169190911790555062000317915050565b6000828201838110156200026d576040805162461bcd60e51b815260206004820152601b60248201527f536166654d6174683a206164646974696f6e206f766572666c6f770000000000604482015290519081900360640190fd5b90505b92915050565b600082620002875750600062000270565b828202828482816200029557fe5b04146200026d5760405162461bcd60e51b81526004018080602001828103825260218152602001806200242a6021913960400191505060405180910390fd5b600080604051620002e59062000309565b604051809103906000f08015801562000302573d6000803e3d6000fd5b5091505090565b61114980620012e183390190565b610fba80620003276000396000f3fe60806040526004361061009c5760003560e01c806333299db81161006457806333299db8146101cb57806340b8405a146101f5578063a7a419f114610228578063ca055e5314610252578063ccb599c414610297578063d0e30db0146102d05761009c565b806303edf914146100a15780630eff4d88146100c95780631bb5abf9146101195780632e1a7d4d1461015f5780632ff284c214610189575b600080fd5b6100c7600480360360408110156100b757600080fd5b508035906020013560ff166102d8565b005b3480156100d557600080fd5b506100f3600480360360208110156100ec57600080fd5b503561053e565b604080519485526020850193909352838301919091526060830152519081900360800190f35b34801561012557600080fd5b506101496004803603604081101561013c57600080fd5b50803590602001356105a6565b6040805160ff9092168252519081900360200190f35b34801561016b57600080fd5b506100c76004803603602081101561018257600080fd5b50356105d2565b34801561019557600080fd5b506101b9600480360360408110156101ac57600080fd5b50803590602001356106f8565b60408051918252519081900360200190f35b3480156101d757600080fd5b506101b9600480360360208110156101ee57600080fd5b5035610722565b34801561020157600080fd5b506101b96004803603602081101561021857600080fd5b50356001600160a01b0316610784565b34801561023457600080fd5b506101b96004803603602081101561024b57600080fd5b5035610967565b34801561025e57600080fd5b506101b9600480360360a081101561027557600080fd5b508035906020810135906040810135906060810135906080013560ff166109b4565b3480156102a357600080fd5b506100c7600480360360608110156102ba57600080fd5b508035906020810135906040013560ff16610a43565b6100c7610b71565b60006102e342610967565b905060006102f033610784565b336000908152600b6020526040902054909150610313908263ffffffff610be216565b336000908152600b6020908152604080832093909355600d81528282208583529052205460ff161561034457600080fd5b336000908152600b6020526040902054610364903463ffffffff610be216565b8411156103a25760405162461bcd60e51b8152600401808060200182810382526022815260200180610f426022913960400191505060405180910390fd5b336000908152600b60205260409020546103d49034906103c8908763ffffffff610c9516565b9063ffffffff610be216565b336000908152600b602052604081209190915580546103f49086906106f8565b6002546040519192506001600160a01b03169082156108fc029083906000818181858888f1935050505015801561042f573d6000803e3d6000fd5b506000610442868363ffffffff610c9516565b336000908152600e60209081526040822080546001818101835591845291909220018690559091506104829085908390889081111561047d57fe5b610a43565b6104993386600181111561049257fe5b8684610cd7565b336000818152600d60209081526040808320888452825291829020805460ff1916600190811790915591518481527f6ab5bc6ec74e9a8760f95ac30582cec0c254beb385160f0c87281e992dd9c5e49385938a9391928a92909190820190859081111561050257fe5b60ff168152602001836001600160a01b03166001600160a01b0316815260200182815260200194505050505060405180910390a1505050505050565b60008060008061054c610f12565b50505060009283525050600a6020908152604091829020825160a081018452815481526001820154928101839052600282015493810184905260038201546060820181905260049092015460809091018190529293909190565b6000828210156105b8575060006105cc565b828211156105c8575060016105cc565b5060025b92915050565b60006105dd33610784565b336000908152600b6020526040902054909150610600908263ffffffff610be216565b336000908152600b602052604090208190558083111561065a576040805162461bcd60e51b815260206004820152601060248201526f6e6f7420656e6f7567682066756e647360801b604482015290519081900360640190fd5b336000908152600b602052604090205461067a908463ffffffff610c9516565b336000818152600b6020526040808220939093559151909185156108fc02918691818181858888f193505050501580156106b8573d6000803e3d6000fd5b506040805184815233602082015281517f1f10c0cd1c27f2cc50e5d733f5ce6003113bf85cb5e6dd70f5c66a0fa38ea4c6929181900390910190a1505050565b600061071b606461070f858563ffffffff610c3c16565b9063ffffffff610d8f16565b9392505050565b60006105cc61074d600954610741600186610c9590919063ffffffff16565b9063ffffffff610c3c16565b60008052600a6020527f13da86008ba1c6922daee3e07db95305ef49ebced9f5467a0b8613fcc6b343e3549063ffffffff610be216565b6001600160a01b0381166000908152600e6020526040812080548291905b6107aa610f12565b600a60008484815481106107ba57fe5b906000526020600020015481526020019081526020016000206040518060a00160405290816000820154815260200160018201548152602001600282015481526020016003820154815260200160048201548152505090508060400151421015610824575061095e565b60006108338260200151610dd1565b905060006108448360400151610dd1565b90506000600c60008a6001600160a01b03166001600160a01b03168152602001908152602001600020600087878154811061087b57fe5b90600052602060002001548152602001908152602001600020905060006108a284846105a6565b905060006108c38360000154846001015488608001518960600151866109b4565b600060018501819055845590506108e0898263ffffffff610be216565b98507fa4acc56bf9e3fb26646ffe4b7fb0ca4f76283132f0b46ca95d5ea416199458b78189898154811061091057fe5b6000918252602091829020015460408051938452918301526001600160a01b038e1682820152519081900360600190a187878154811061094c57fe5b60009182526020822001555050505050505b600019016107a2565b6009546000808052600a6020527f13da86008ba1c6922daee3e07db95305ef49ebced9f5467a0b8613fcc6b343e35490916105cc916001916103c89161070f90879063ffffffff610c9516565b6000808260ff1660028111156109c657fe5b905060006109da868663ffffffff610be216565b9050600060018360028111156109ec57fe5b1415610a055786828a02816109fd57fe5b049050610a37565b6000836002811115610a1357fe5b1415610a245785828902816109fd57fe5b610a34898963ffffffff610be216565b90505b98975050505050505050565b6000610a4e84610722565b6000858152600a6020526040902060020154909150610ac557600954610a7b90829063ffffffff610be216565b6000858152600a6020526040902060010155600954610ab290610aa590600263ffffffff610c3c16565b829063ffffffff610be216565b6000858152600a60205260409020600201555b60008260ff166001811115610ad657fe5b90506000816001811115610ae657fe5b1415610b21576000858152600a6020526040902060040154610b0e908563ffffffff610be216565b6000868152600a60205260409020600401555b6001816001811115610b2f57fe5b1415610b6a576000858152600a6020526040902060030154610b57908563ffffffff610be216565b6000868152600a60205260409020600301555b5050505050565b336000908152600b6020526040902054610b91903463ffffffff610be216565b336000818152600b60209081526040918290209390935580513481529283019190915280517f7409df427fb85f0f6f2573c2a28a0fc2b758c552b1a2c08187ff1db0b07a354b9281900390910190a1565b60008282018381101561071b576040805162461bcd60e51b815260206004820152601b60248201527f536166654d6174683a206164646974696f6e206f766572666c6f770000000000604482015290519081900360640190fd5b600082610c4b575060006105cc565b82820282848281610c5857fe5b041461071b5760405162461bcd60e51b8152600401808060200182810382526021815260200180610f646021913960400191505060405180910390fd5b600061071b83836040518060400160405280601e81526020017f536166654d6174683a207375627472616374696f6e206f766572666c6f770000815250610e10565b60008360ff166001811115610ce857fe5b90506000816001811115610cf857fe5b1415610d3d576001600160a01b0385166000908152600c6020908152604080832086845290915290206001810154610d36908463ffffffff610be216565b6001909101555b6001816001811115610d4b57fe5b1415610b6a576001600160a01b0385166000908152600c6020908152604080832086845290915290208054610d86908463ffffffff610be216565b90555050505050565b600061071b83836040518060400160405280601a81526020017f536166654d6174683a206469766973696f6e206279207a65726f000000000000815250610ea7565b600081815260036020526040812054610dfd57610ded82610f0c565b6000838152600360205260409020555b5060009081526003602052604090205490565b60008184841115610e9f5760405162461bcd60e51b81526004018080602001828103825283818151815260200191508051906020019080838360005b83811015610e64578181015183820152602001610e4c565b50505050905090810190601f168015610e915780820380516001836020036101000a031916815260200191505b509250505060405180910390fd5b505050900390565b60008183610ef65760405162461bcd60e51b8152602060048201818152835160248401528351909283926044909101919085019080838360008315610e64578181015183820152602001610e4c565b506000838581610f0257fe5b0495945050505050565b50606490565b6040518060a001604052806000815260200160008152602001600081526020016000815260200160008152509056fe6e6f7420656e6f756768206d6f6e657920746f20706c616365207468697320626574536166654d6174683a206d756c7469706c69636174696f6e206f766572666c6f77a2646970667358221220405973d08271e54eae1a5d88e9dff1c577b497b4f2e111b7aca19f5cb574c84664736f6c6343000608003360806040523480156200001157600080fd5b50604051806040016040528060098152602001682134b7102a37b5b2b760b91b815250604051806040016040528060038152602001622124a760e91b81525081600390805190602001906200006892919062000234565b5080516200007e90600490602084019062000234565b50506005805460ff1916601217905550620000af336b033b2e3c9fd0803ce80000006001600160e01b03620000b516565b620002d9565b6001600160a01b03821662000111576040805162461bcd60e51b815260206004820152601f60248201527f45524332303a206d696e7420746f20746865207a65726f206164647265737300604482015290519081900360640190fd5b62000128600083836001600160e01b03620001cd16565b6200014481600254620001d260201b620009021790919060201c565b6002556001600160a01b038216600090815260208181526040909120546200017791839062000902620001d2821b17901c565b6001600160a01b0383166000818152602081815260408083209490945583518581529351929391927fddf252ad1be2c89b69c2b068fc378daa952ba7f163c4a11628f55a4df523b3ef9281900390910190a35050565b505050565b6000828201838110156200022d576040805162461bcd60e51b815260206004820152601b60248201527f536166654d6174683a206164646974696f6e206f766572666c6f770000000000604482015290519081900360640190fd5b9392505050565b828054600181600116156101000203166002900490600052602060002090601f016020900481019282601f106200027757805160ff1916838001178555620002a7565b82800160010185558215620002a7579182015b82811115620002a75782518255916020019190600101906200028a565b50620002b5929150620002b9565b5090565b620002d691905b80821115620002b55760008155600101620002c0565b90565b610e6080620002e96000396000f3fe608060405234801561001057600080fd5b50600436106101005760003560e01c806340c10f1911610097578063a457c2d711610066578063a457c2d7146102ce578063a9059cbb146102fa578063dd62ed3e14610326578063f76f8d781461035457610100565b806340c10f191461026c57806370a082311461029857806395d89b41146102be578063a3f4df7e146102c657610100565b80632e0f2625116100d35780632e0f2625146102125780632ff2e9dc14610230578063313ce56714610238578063395093511461024057610100565b806306fdde0314610105578063095ea7b31461018257806318160ddd146101c257806323b872dd146101dc575b600080fd5b61010d61035c565b6040805160208082528351818301528351919283929083019185019080838360005b8381101561014757818101518382015260200161012f565b50505050905090810190601f1680156101745780820380516001836020036101000a031916815260200191505b509250505060405180910390f35b6101ae6004803603604081101561019857600080fd5b506001600160a01b0381351690602001356103f2565b604080519115158252519081900360200190f35b6101ca610410565b60408051918252519081900360200190f35b6101ae600480360360608110156101f257600080fd5b506001600160a01b03813581169160208101359091169060400135610416565b61021a6105a0565b6040805160ff9092168252519081900360200190f35b6101ca6105a5565b61021a6105b5565b6101ae6004803603604081101561025657600080fd5b506001600160a01b0381351690602001356105be565b6101ae6004803603604081101561028257600080fd5b506001600160a01b038135169060200135610617565b6101ca600480360360208110156102ae57600080fd5b50356001600160a01b0316610623565b61010d61063e565b61010d61069f565b6101ae600480360360408110156102e457600080fd5b506001600160a01b0381351690602001356106c4565b6101ae6004803603604081101561031057600080fd5b506001600160a01b038135169060200135610732565b6101ca6004803603604081101561033c57600080fd5b506001600160a01b03813581169160200135166108b8565b61010d6108e3565b60038054604080516020601f60026000196101006001881615020190951694909404938401819004810282018101909252828152606093909290918301828280156103e85780601f106103bd576101008083540402835291602001916103e8565b820191906000526020600020905b8154815290600101906020018083116103cb57829003601f168201915b5050505050905090565b60006104066103ff610963565b8484610967565b5060015b92915050565b60025490565b600083600061042482610a53565b9050818115610465576040516001600160a01b0382169083156108fc029084906000818181858888f19350505050158015610463573d6000803e3d6000fd5b505b6001600160a01b038316600090815260066020526040812047600190910155869061048f82610a53565b90508181156104d0576040516001600160a01b0382169083156108fc029084906000818181858888f193505050501580156104ce573d6000803e3d6000fd5b505b6001600160a01b03808416600090815260066020908152604080832047600190910155928d168252600781528282203383529052205488111561051257600080fd5b6001600160a01b03808b16600081815260066020818152604080842080548f9003905560078252808420338552825280842080548f90039055948e168084529181529184902080548d01905583518c8152935190937fddf252ad1be2c89b69c2b068fc378daa952ba7f163c4a11628f55a4df523b3ef92908290030190a35060019998505050505050505050565b601281565b6b033b2e3c9fd0803ce800000081565b60055460ff1690565b60006104066105cb610963565b8461061285600160006105dc610963565b6001600160a01b03908116825260208083019390935260409182016000908120918c16815292529020549063ffffffff61090216565b610967565b60006104068383610ac4565b6001600160a01b031660009081526020819052604090205490565b60048054604080516020601f60026000196101006001881615020190951694909404938401819004810282018101909252828152606093909290918301828280156103e85780601f106103bd576101008083540402835291602001916103e8565b604051806040016040528060098152602001682134b7102a37b5b2b760b91b81525081565b60006104066106d1610963565b8461061285604051806060016040528060258152602001610e0660259139600160006106fb610963565b6001600160a01b03908116825260208083019390935260409182016000908120918d1681529252902054919063ffffffff610bc016565b600033600061074082610a53565b9050818115610781576040516001600160a01b0382169083156108fc029084906000818181858888f1935050505015801561077f573d6000803e3d6000fd5b505b6001600160a01b03831660009081526006602052604081204760019091015586906107ab82610a53565b90508181156107ec576040516001600160a01b0382169083156108fc029084906000818181858888f193505050501580156107ea573d6000803e3d6000fd5b505b6001600160a01b03831660009081526006602052604080822047600190910155338252902054610822908963ffffffff610c5716565b33600090815260066020526040808220929092556001600160a01b038b1681522054610854908963ffffffff61090216565b6001600160a01b038a166000818152600660209081526040918290209390935580518b81529051919233927fddf252ad1be2c89b69c2b068fc378daa952ba7f163c4a11628f55a4df523b3ef9281900390910190a350600198975050505050505050565b6001600160a01b03918216600090815260016020908152604080832093909416825291909152205490565b604051806040016040528060038152602001622124a760e91b81525081565b60008282018381101561095c576040805162461bcd60e51b815260206004820152601b60248201527f536166654d6174683a206164646974696f6e206f766572666c6f770000000000604482015290519081900360640190fd5b9392505050565b3390565b6001600160a01b0383166109ac5760405162461bcd60e51b8152600401808060200182810382526024815260200180610de26024913960400191505060405180910390fd5b6001600160a01b0382166109f15760405162461bcd60e51b8152600401808060200182810382526022815260200180610d9f6022913960400191505060405180910390fd5b6001600160a01b03808416600081815260016020908152604080832094871680845294825291829020859055815185815291517f8c5be1e5ebec7d5bd14f71427d1e84f3dd0314c0f7b2291e5b200ac8c7c3b9259281900390910190a3505050565b6001600160a01b0381166000908152600660205260408120600101548190610a8290479063ffffffff610c5716565b905061095c610a8f610410565b6001600160a01b038516600090815260066020526040902054610ab8908463ffffffff610c9916565b9063ffffffff610cf216565b6001600160a01b038216610b1f576040805162461bcd60e51b815260206004820152601f60248201527f45524332303a206d696e7420746f20746865207a65726f206164647265737300604482015290519081900360640190fd5b610b2b60008383610d34565b600254610b3e908263ffffffff61090216565b6002556001600160a01b038216600090815260208190526040902054610b6a908263ffffffff61090216565b6001600160a01b0383166000818152602081815260408083209490945583518581529351929391927fddf252ad1be2c89b69c2b068fc378daa952ba7f163c4a11628f55a4df523b3ef9281900390910190a35050565b60008184841115610c4f5760405162461bcd60e51b81526004018080602001828103825283818151815260200191508051906020019080838360005b83811015610c14578181015183820152602001610bfc565b50505050905090810190601f168015610c415780820380516001836020036101000a031916815260200191505b509250505060405180910390fd5b505050900390565b600061095c83836040518060400160405280601e81526020017f536166654d6174683a207375627472616374696f6e206f766572666c6f770000815250610bc0565b600082610ca85750600061040a565b82820282848281610cb557fe5b041461095c5760405162461bcd60e51b8152600401808060200182810382526021815260200180610dc16021913960400191505060405180910390fd5b600061095c83836040518060400160405280601a81526020017f536166654d6174683a206469766973696f6e206279207a65726f000000000000815250610d39565b505050565b60008183610d885760405162461bcd60e51b8152602060048201818152835160248401528351909283926044909101919085019080838360008315610c14578181015183820152602001610bfc565b506000838581610d9457fe5b049594505050505056fe45524332303a20617070726f766520746f20746865207a65726f2061646472657373536166654d6174683a206d756c7469706c69636174696f6e206f766572666c6f7745524332303a20617070726f76652066726f6d20746865207a65726f206164647265737345524332303a2064656372656173656420616c6c6f77616e63652062656c6f77207a65726fa264697066735822122022b1d7bb0d46cb5cf68819abbabab9a7cc93737b098f1dac77829dbd4eed342864736f6c63430006080033536166654d6174683a206d756c7469706c69636174696f6e206f766572666c6f77",
  "immutableReferences": {},
  "source": "pragma solidity ^0.6.8;\nimport \"@openzeppelin/contracts/math/SafeMath.sol\";\nimport \"@openzeppelin/contracts/token/ERC20/IERC20.sol\";\n\nimport \"./BinToken.sol\";\n//SPDX-License-Identifier: UNLICENSED\ncontract BinaryBet {\n    using SafeMath for uint256;\n    // IERC20 private bin;\n\n    uint fee;\n\n    address payable owner;\n\n\n    // BinToken public token;\n    address payable tokenAddress;\n\n    mapping(uint => uint) ethPrice;\n\n    enum BetSide {down, up} \n    enum BetResult {down, up, tie}\n\n    struct Pool {\n        uint startingTimestamp;\n        uint referenceTimestamp;\n        uint settlementTimestamp;\n\n        uint upValue;\n        uint downValue;\n    }\n\n    Pool firstWindow;\n    uint windowDuration; //in timestamp\n\n    mapping (uint => Pool) pools; //windowNumber => Pool\n\n \n\n    struct Stake {\n        uint upStake;\n        uint downStake;\n    }\n    \n\n\n    mapping (address => uint) balance;\n    mapping (address => mapping(uint => Stake)) userStake;\n    mapping (address => mapping(uint => bool)) userBetted;\n\n    mapping (address => uint[]) userWindows;\n    event newBet(uint value, BetSide side, address user, uint windowNumber);\n    event newDeposit(uint value, address user);\n    event newWithdraw(uint value, address user);\n    event betSettled(uint gain, uint windowNumber, address user);\n    \n    function deployToken() internal returns (address) {\n        BinToken token = new BinToken();\n        return address(token);\n        \n    }\n\n    \n    constructor(uint _firstWindowTimestamp, uint _windowDuration, uint _fee) public {\n        require(_fee <= 100);\n        //\n        //                  |-------------betting window-----------|--------------settlement period-----------|  \n        //         firstWindowTimestamp                      starting timestamp                         starting timestamp\n        //                                                         +                                          +            \n        //                                                     window size                               2*window size \n        //                                                         =                                          = \n        //                                                  referenceTimestamp                          settlementTimestamp\n\n        firstWindow = Pool(_firstWindowTimestamp, _firstWindowTimestamp.add(_windowDuration), _firstWindowTimestamp.add(_windowDuration.mul(2)), 0,0);\n        windowDuration = _windowDuration;\n        pools[0] = firstWindow;\n        \n        fee = _fee;\n        owner = msg.sender;\n\n        tokenAddress = payable(deployToken());\n    }\n\n\n\n    function deposit() payable external {\n        balance[msg.sender] = balance[msg.sender].add(msg.value);\n        emit newDeposit(msg.value, msg.sender);\n    }\n\n    function withdraw(uint value) external {\n        uint gain = updateBalance(msg.sender);\n        balance[msg.sender] = balance[msg.sender].add(gain);\n\n        uint funds = balance[msg.sender];\n        require(value <= funds, \"not enough funds\");\n        balance[msg.sender] = balance[msg.sender].sub(value);\n        msg.sender.transfer(value);\n        \n        emit newWithdraw(value, msg.sender);\n\n    }\n    \n    function placeBet (uint betValue, BetSide side) payable external {\n        uint windowNumber = getTimestampWindow(block.timestamp);\n\n        uint gain = updateBalance(msg.sender);\n        balance[msg.sender] = balance[msg.sender].add(gain);\n\n        require(!userBetted[msg.sender][windowNumber]); //First user bet on the window.\n        require(betValue <= balance[msg.sender].add(msg.value), \"not enough money to place this bet\");\n\n        //betValue <= balance + msg.value\n        //0 <= balance + msg.value - betValue\n        balance[msg.sender] = balance[msg.sender].sub(betValue).add(msg.value);\n        uint betFee = computeFee(betValue, fee); \n        \n        \n        tokenAddress.transfer(betFee);\n\n        uint value = betValue.sub(betFee);\n        userWindows[msg.sender].push(windowNumber);\n\n        updatePool (windowNumber, value, uint8(side));\n        updateStake(msg.sender, uint8(side), windowNumber, value);\n        userBetted[msg.sender][windowNumber] = true;\n        emit newBet(value, side, msg.sender, windowNumber);\n    }       \n\n    function updateBalance(address user) public returns(uint){\n        uint totalGain = 0;\n        uint[] storage userWindowsList = userWindows[user];\n        for (uint i = userWindowsList.length; i >= 0; i--) {\n            Pool memory pool = pools[userWindowsList[i]];\n            if(block.timestamp < pool.settlementTimestamp) {\n                continue;\n            }\n            else {\n                uint referencePrice =  getTimestampPrice(pool.referenceTimestamp);\n                uint settlementPrice = getTimestampPrice(pool.settlementTimestamp);\n                Stake storage stake = userStake[user][userWindowsList[i]];\n                uint8 result = betResult(referencePrice, settlementPrice);\n                uint windowGain = settleBet(stake.upStake, stake.downStake, pool.downValue, pool.upValue, result);\n\n                stake.downStake = 0;\n                stake.upStake = 0;\n                totalGain = totalGain.add(windowGain);\n                emit betSettled(windowGain, userWindowsList[i], user);\n                delete userWindowsList[i];\n            }\n        }\n        return totalGain;\n    }\n\n    function settleBet(uint upStake, uint downStake, uint poolUp, uint poolDown, uint8 betResult) public pure returns (uint) {\n        BetResult result = BetResult(betResult);\n        uint poolTotal = poolUp.add(poolDown);\n        uint gain = 0;\n        if (result == BetResult.up) {\n            gain = (upStake*poolTotal)/poolUp;\n        } \n        else if (result == BetResult.down) {\n            gain = (downStake*poolTotal)/poolDown;\n        }\n        else {\n            gain = upStake.add(downStake);\n        }\n        \n        return gain;\n    }\n\n   function betResult(uint referencePrice, uint settlementPrice) public pure returns(uint8){            \n        if(settlementPrice < referencePrice) {\n            return 0;\n        }   \n        else if(settlementPrice > referencePrice) {\n            return 1;\n        } \n        else {\n            return 2;\n        }\n    }\n \n    \n    function updateStake(address user, uint8 side, uint windowNumber, uint value) internal{\n        BetSide betSide = BetSide(side);\n        if (betSide == BetSide.down) {\n            Stake storage stake = userStake[user][windowNumber]; \n            stake.downStake = stake.downStake.add(value); \n        }\n        if (betSide == BetSide.up) {\n            Stake storage stake = userStake[user][windowNumber]; \n            stake.upStake = stake.upStake.add(value);\n        }\n        \n    }\n\n    //Internal but set as public for testing\n    function updatePool (uint windowNumber, uint value, uint8 betSide) public {\n        uint startingTimestamp = getWindowStartingTimestamp(windowNumber);\n        if (pools[windowNumber].settlementTimestamp == 0) {\n            //\n            //                  |-------------betting window-----------|--------------settlement period-----------|  \n            //          starting timestamp                      starting timestamp                         starting timestamp\n            //                                                         +                                          +\n            //                                                     window size                               2*window size          \n            \n            pools[windowNumber].referenceTimestamp = startingTimestamp.add(windowDuration);\n            pools[windowNumber].settlementTimestamp = startingTimestamp.add(windowDuration.mul(2));\n             \n        }\n\n        BetSide side = BetSide(betSide);\n        if (side == BetSide.down) { //down\n              pools[windowNumber].downValue = pools[windowNumber].downValue.add(value);\n        }\n        \n        if (side == BetSide.up) {\n              pools[windowNumber].upValue = pools[windowNumber].upValue.add(value);\n        }\n        \n\n    }  \n\n    //Internal but set as public for testing\n    function getTimestampWindow (uint currentTimestamp) public view returns (uint windowNumber) {\n        //n = floor((beg block - first_block)/window_size  + 1)\n        windowNumber = ((currentTimestamp.sub(pools[0].startingTimestamp)).div(windowDuration)).add(1); //integer division => floor    \n    }\n\n    //Internal but set as public for testing\n    function getWindowStartingTimestamp (uint windowNumber) public view returns (uint startingTimestamp) {\n        //firstBlock + (n-1)*window_size\n        startingTimestamp =  pools[0].startingTimestamp.add((windowNumber.sub(1)).mul(windowDuration));\n    }\n\n    function computeFee(uint value, uint _fee) public pure returns (uint betFee) {\n        betFee = (value.mul(_fee)).div(100); \n\n    }\n\n\n    function getTimestampPrice(uint timestamp) internal returns (uint){\n        if(ethPrice[timestamp] == 0) {\n            ethPrice[timestamp] = priceOracle(timestamp);\n        }\n        return ethPrice[timestamp];\n    }\n    \n    //TODO Implement price API\n    function priceOracle(uint timestamp) internal returns (uint currentPrice){\n        return 100;\n    }\n\n    function getPoolValues(uint windowNumber) public view returns (uint, uint, uint, uint) {\n        Pool memory pool = pools[windowNumber];\n        return (pool.settlementTimestamp, pool.downValue, pool.upValue, pool.referenceTimestamp);\n    }\n\n\n\n}\n\n",
  "sourcePath": "/Users/deyanmakedonski/projects/other/dev-betting/contracts/BinaryBet.sol",
  "compiler": {
    "name": "solc",
    "version": "0.6.8+commit.0bbfe453.Emscripten.clang"
  },
  "schemaVersion": "3.3.3",
  "updatedAt": "2021-01-26T07:08:12.878Z",
  "networkType": "ethereum",
  "devdoc": {
    "methods": {}
  },
  "userdoc": {
    "methods": {}
  }
}