{
  "contractName": "BinaryBet",
  "abi": [
    {
      "inputs": [
        {
          "internalType": "uint256",
          "name": "_firstWindowBlock",
          "type": "uint256"
        },
        {
          "internalType": "uint256",
          "name": "_windowDuration",
          "type": "uint256"
        },
        {
          "internalType": "uint256",
          "name": "_fee",
          "type": "uint256"
        }
      ],
      "stateMutability": "nonpayable",
      "type": "constructor"
    },
    {
      "anonymous": false,
      "inputs": [
        {
          "indexed": false,
          "internalType": "uint256",
          "name": "gain",
          "type": "uint256"
        },
        {
          "indexed": false,
          "internalType": "uint256",
          "name": "windowNumber",
          "type": "uint256"
        },
        {
          "indexed": false,
          "internalType": "address",
          "name": "user",
          "type": "address"
        }
      ],
      "name": "betSettled",
      "type": "event"
    },
    {
      "anonymous": false,
      "inputs": [
        {
          "indexed": false,
          "internalType": "uint256",
          "name": "value",
          "type": "uint256"
        },
        {
          "indexed": false,
          "internalType": "uint8",
          "name": "side",
          "type": "uint8"
        },
        {
          "indexed": false,
          "internalType": "address",
          "name": "user",
          "type": "address"
        },
        {
          "indexed": false,
          "internalType": "uint256",
          "name": "windowNumber",
          "type": "uint256"
        }
      ],
      "name": "newBet",
      "type": "event"
    },
    {
      "anonymous": false,
      "inputs": [
        {
          "indexed": false,
          "internalType": "uint256",
          "name": "value",
          "type": "uint256"
        },
        {
          "indexed": false,
          "internalType": "address",
          "name": "user",
          "type": "address"
        }
      ],
      "name": "newDeposit",
      "type": "event"
    },
    {
      "anonymous": false,
      "inputs": [
        {
          "indexed": false,
          "internalType": "uint256",
          "name": "value",
          "type": "uint256"
        },
        {
          "indexed": false,
          "internalType": "address",
          "name": "user",
          "type": "address"
        }
      ],
      "name": "newWithdraw",
      "type": "event"
    },
    {
      "inputs": [
        {
          "internalType": "address",
          "name": "stakingContract",
          "type": "address"
        }
      ],
      "name": "setStakingAddress",
      "outputs": [],
      "stateMutability": "nonpayable",
      "type": "function"
    },
    {
      "inputs": [],
      "name": "deposit",
      "outputs": [],
      "stateMutability": "payable",
      "type": "function",
      "payable": true
    },
    {
      "inputs": [
        {
          "internalType": "uint256",
          "name": "value",
          "type": "uint256"
        }
      ],
      "name": "withdraw",
      "outputs": [],
      "stateMutability": "nonpayable",
      "type": "function"
    },
    {
      "inputs": [
        {
          "internalType": "uint256",
          "name": "betValue",
          "type": "uint256"
        },
        {
          "internalType": "uint8",
          "name": "side",
          "type": "uint8"
        }
      ],
      "name": "placeBet",
      "outputs": [],
      "stateMutability": "payable",
      "type": "function",
      "payable": true
    },
    {
      "inputs": [
        {
          "internalType": "address",
          "name": "user",
          "type": "address"
        }
      ],
      "name": "updateBalance",
      "outputs": [
        {
          "internalType": "uint256",
          "name": "",
          "type": "uint256"
        }
      ],
      "stateMutability": "nonpayable",
      "type": "function"
    },
    {
      "inputs": [
        {
          "internalType": "uint256",
          "name": "upStake",
          "type": "uint256"
        },
        {
          "internalType": "uint256",
          "name": "downStake",
          "type": "uint256"
        },
        {
          "internalType": "uint256",
          "name": "poolUp",
          "type": "uint256"
        },
        {
          "internalType": "uint256",
          "name": "poolDown",
          "type": "uint256"
        },
        {
          "internalType": "uint8",
          "name": "betResult",
          "type": "uint8"
        }
      ],
      "name": "settleBet",
      "outputs": [
        {
          "internalType": "uint256",
          "name": "",
          "type": "uint256"
        }
      ],
      "stateMutability": "pure",
      "type": "function",
      "constant": true
    },
    {
      "inputs": [
        {
          "internalType": "int256",
          "name": "referencePrice",
          "type": "int256"
        },
        {
          "internalType": "int256",
          "name": "settlementPrice",
          "type": "int256"
        }
      ],
      "name": "betResult",
      "outputs": [
        {
          "internalType": "uint8",
          "name": "",
          "type": "uint8"
        }
      ],
      "stateMutability": "pure",
      "type": "function",
      "constant": true
    },
    {
      "inputs": [
        {
          "internalType": "address",
          "name": "user",
          "type": "address"
        },
        {
          "internalType": "uint8",
          "name": "side",
          "type": "uint8"
        },
        {
          "internalType": "uint256",
          "name": "windowNumber",
          "type": "uint256"
        },
        {
          "internalType": "uint256",
          "name": "value",
          "type": "uint256"
        }
      ],
      "name": "updateStake",
      "outputs": [],
      "stateMutability": "nonpayable",
      "type": "function"
    },
    {
      "inputs": [
        {
          "internalType": "uint256",
          "name": "windowNumber",
          "type": "uint256"
        },
        {
          "internalType": "uint256",
          "name": "value",
          "type": "uint256"
        },
        {
          "internalType": "uint8",
          "name": "betSide",
          "type": "uint8"
        }
      ],
      "name": "updatePool",
      "outputs": [],
      "stateMutability": "nonpayable",
      "type": "function"
    },
    {
      "inputs": [
        {
          "internalType": "uint256",
          "name": "currentBlock",
          "type": "uint256"
        }
      ],
      "name": "getBlockWindow",
      "outputs": [
        {
          "internalType": "uint256",
          "name": "windowNumber",
          "type": "uint256"
        }
      ],
      "stateMutability": "view",
      "type": "function",
      "constant": true
    },
    {
      "inputs": [
        {
          "internalType": "uint256",
          "name": "windowNumber",
          "type": "uint256"
        }
      ],
      "name": "getWindowStartingBlock",
      "outputs": [
        {
          "internalType": "uint256",
          "name": "startingBlock",
          "type": "uint256"
        }
      ],
      "stateMutability": "view",
      "type": "function",
      "constant": true
    },
    {
      "inputs": [
        {
          "internalType": "uint256",
          "name": "value",
          "type": "uint256"
        },
        {
          "internalType": "uint256",
          "name": "_fee",
          "type": "uint256"
        }
      ],
      "name": "computeFee",
      "outputs": [
        {
          "internalType": "uint256",
          "name": "betFee",
          "type": "uint256"
        }
      ],
      "stateMutability": "pure",
      "type": "function",
      "constant": true
    },
    {
      "inputs": [],
      "name": "updatePrice",
      "outputs": [
        {
          "internalType": "bool",
          "name": "",
          "type": "bool"
        }
      ],
      "stateMutability": "nonpayable",
      "type": "function"
    },
    {
      "inputs": [
        {
          "internalType": "uint256",
          "name": "windowNumber",
          "type": "uint256"
        }
      ],
      "name": "getPoolValues",
      "outputs": [
        {
          "internalType": "uint256",
          "name": "",
          "type": "uint256"
        },
        {
          "internalType": "uint256",
          "name": "",
          "type": "uint256"
        },
        {
          "internalType": "uint256",
          "name": "",
          "type": "uint256"
        },
        {
          "internalType": "uint256",
          "name": "",
          "type": "uint256"
        }
      ],
      "stateMutability": "view",
      "type": "function",
      "constant": true
    },
    {
      "inputs": [
        {
          "internalType": "uint256",
          "name": "windowNumber",
          "type": "uint256"
        },
        {
          "internalType": "address",
          "name": "user",
          "type": "address"
        }
      ],
      "name": "getUserStake",
      "outputs": [
        {
          "internalType": "uint256",
          "name": "",
          "type": "uint256"
        },
        {
          "internalType": "uint256",
          "name": "",
          "type": "uint256"
        }
      ],
      "stateMutability": "view",
      "type": "function",
      "constant": true
    },
    {
      "inputs": [
        {
          "internalType": "address",
          "name": "user",
          "type": "address"
        }
      ],
      "name": "getBalance",
      "outputs": [
        {
          "internalType": "uint256",
          "name": "",
          "type": "uint256"
        }
      ],
      "stateMutability": "view",
      "type": "function",
      "constant": true
    }
  ],
  "bytecode": "0x6080604052600e805460ff191690553480156200001b57600080fd5b50604051620015b1380380620015b1833981810160405260608110156200004157600080fd5b508051602082015160409092015190919060648111156200006157600080fd5b6040518060a001604052808481526020016200008c8486620001e660201b62000f921790919060201c565b8152602001620000c5620000b06002866200024a60201b62000fec1790919060201c565b86620001e660201b62000f921790919060201c565b81526000602080830182905260409283018290528351600381905584820151600481905593850151600581905560608601516006819055608090960151600781905560089890985583805260099092527fec8156718a8372b1db44bb411437d0870f3e3790d4a08526d024ce1b0b668f6b557fec8156718a8372b1db44bb411437d0870f3e3790d4a08526d024ce1b0b668f6c929092557fec8156718a8372b1db44bb411437d0870f3e3790d4a08526d024ce1b0b668f6d919091557fec8156718a8372b1db44bb411437d0870f3e3790d4a08526d024ce1b0b668f6e919091557fec8156718a8372b1db44bb411437d0870f3e3790d4a08526d024ce1b0b668f6f92909255905550600180546001600160a01b03191633179055620002a8565b60008282018381101562000241576040805162461bcd60e51b815260206004820152601b60248201527f536166654d6174683a206164646974696f6e206f766572666c6f770000000000604482015290519081900360640190fd5b90505b92915050565b6000826200025b5750600062000244565b828202828482816200026957fe5b0414620002415760405162461bcd60e51b8152600401808060200182810382526021815260200180620015906021913960400191505060405180910390fd5b6112d880620002b86000396000f3fe6080604052600436106100f35760003560e01c80638d897c481161008a578063ccb599c411610059578063ccb599c4146103b1578063d0e30db0146103ea578063f4e0d9ac146103f2578063f8b2cb4f14610425576100f3565b80638d897c48146102c65780639626a230146102f0578063c5bcb0f814610342578063ca055e531461036c576100f3565b806336dab3a4116100c657806336dab3a4146101dc57806340b8405a14610224578063673a7e28146102575780638007247114610280576100f3565b806303edf914146100f85780630eff4d88146101205780632e1a7d4d146101705780632ff284c21461019a575b600080fd5b61011e6004803603604081101561010e57600080fd5b508035906020013560ff16610458565b005b34801561012c57600080fd5b5061014a6004803603602081101561014357600080fd5b50356106e6565b604080519485526020850193909352838301919091526060830152519081900360800190f35b34801561017c57600080fd5b5061011e6004803603602081101561019357600080fd5b503561074e565b3480156101a657600080fd5b506101ca600480360360408110156101bd57600080fd5b508035906020013561087b565b60408051918252519081900360200190f35b3480156101e857600080fd5b5061011e600480360360808110156101ff57600080fd5b506001600160a01b038135169060ff60208201351690604081013590606001356108a5565b34801561023057600080fd5b506101ca6004803603602081101561024757600080fd5b50356001600160a01b031661095e565b34801561026357600080fd5b5061026c610b8b565b604080519115158252519081900360200190f35b34801561028c57600080fd5b506102b0600480360360408110156102a357600080fd5b5080359060200135610bc6565b6040805160ff9092168252519081900360200190f35b3480156102d257600080fd5b506101ca600480360360208110156102e957600080fd5b5035610bf2565b3480156102fc57600080fd5b506103296004803603604081101561031357600080fd5b50803590602001356001600160a01b0316610c4b565b6040805192835260208301919091528051918290030190f35b34801561034e57600080fd5b506101ca6004803603602081101561036557600080fd5b5035610c9b565b34801561037857600080fd5b506101ca600480360360a081101561038f57600080fd5b508035906020810135906040810135906060810135906080013560ff16610cfd565b3480156103bd57600080fd5b5061011e600480360360608110156103d457600080fd5b508035906020810135906040013560ff16610d8c565b61011e610eb9565b3480156103fe57600080fd5b5061011e6004803603602081101561041557600080fd5b50356001600160a01b0316610f38565b34801561043157600080fd5b506101ca6004803603602081101561044857600080fd5b50356001600160a01b0316610f77565b610460610b8b565b50600061046c43610bf2565b905060006104793361095e565b336000908152600a602052604090205490915061049c908263ffffffff610f9216565b336000908152600a6020908152604080832093909355600c81528282208583529052205460ff16156104ff5760405162461bcd60e51b815260040180806020018281038252602581526020018061123b6025913960400191505060405180910390fd5b336000908152600a602052604090205461051f903463ffffffff610f9216565b84111561055d5760405162461bcd60e51b81526004018080602001828103825260228152602001806112606022913960400191505060405180910390fd5b336000908152600a602052604090205461058f908590610583903463ffffffff610f9216565b9063ffffffff61104516565b336000908152600a602052604081209190915580546105af90869061087b565b90506000600e60019054906101000a90046001600160a01b03169050806001600160a01b0316625c33e1836040518263ffffffff1660e01b81526004016000604051808303818588803b15801561060557600080fd5b505af1158015610619573d6000803e3d6000fd5b50505050506000610633838861104590919063ffffffff16565b336000908152600d60209081526040822080546001810182559083529120018690559050610662858288610d8c565b61066e338787846108a5565b336000818152600c60209081526040808320898452825291829020805460ff19166001179055815184815260ff8a16918101919091528082019290925260608201879052517f6ab5bc6ec74e9a8760f95ac30582cec0c254beb385160f0c87281e992dd9c5e49181900360800190a150505050505050565b6000806000806106f46111f1565b5050506000928352505060096020908152604091829020825160a081018452815481526001820154928101839052600282015493810184905260038201546060820181905260049092015460809091018190529293909190565b610756610b8b565b5060006107623361095e565b336000908152600a6020526040902054909150610785908263ffffffff610f9216565b336000908152600a602052604090208190558211156107de576040805162461bcd60e51b815260206004820152601060248201526f6e6f7420656e6f7567682066756e647360801b604482015290519081900360640190fd5b336000908152600a60205260409020546107fe908363ffffffff61104516565b336000818152600a6020526040808220939093559151909184156108fc02918591818181858888f1935050505015801561083c573d6000803e3d6000fd5b506040805183815233602082015281517f1f10c0cd1c27f2cc50e5d733f5ce6003113bf85cb5e6dd70f5c66a0fa38ea4c6929181900390910190a15050565b600061089e6064610892858563ffffffff610fec16565b9063ffffffff61108716565b9392505050565b60008360ff1660018111156108b657fe5b905060008160018111156108c657fe5b141561090b576001600160a01b0385166000908152600b6020908152604080832086845290915290206001810154610904908463ffffffff610f9216565b6001909101555b600181600181111561091957fe5b1415610957576001600160a01b0385166000908152600b6020908152604080832086845290915290208054610954908463ffffffff610f9216565b90555b5050505050565b6001600160a01b0381166000908152600d60205260408120805482919061098a57600092505050610b86565b8054600019015b6109996111f1565b600960008484815481106109a957fe5b906000526020600020015481526020019081526020016000206040518060a00160405290816000820154815260200160018201548152602001600282015481526020016003820154815260200160048201548152505090508060400151431015610a135750610b7d565b602080820151600090815260028252604080822054818501518352818320546001600160a01b038b168452600b9094529082208654919392918290889088908110610a5a57fe5b9060005260206000200154815260200190815260200160002090506000610a818484610bc6565b90506000610aa2836000015484600101548860800151896060015186610cfd565b60006001850181905584559050610abf898263ffffffff610f9216565b98507fa4acc56bf9e3fb26646ffe4b7fb0ca4f76283132f0b46ca95d5ea416199458b781898981548110610aef57fe5b6000918252602091829020015460408051938452918301526001600160a01b038e1682820152519081900360600190a1875488906000198101908110610b3157fe5b9060005260206000200154888881548110610b4857fe5b906000526020600020018190555087805480610b6057fe5b600190038181906000526020600020016000905590555050505050505b60001901610991565b919050565b43600090815260026020526040812054610bbf57610ba76110c9565b43600090815260026020526040902055506001610bc3565b5060005b90565b600082821215610bd857506000610bec565b82821315610be857506001610bec565b5060025b92915050565b600854600080805260096020527fec8156718a8372b1db44bb411437d0870f3e3790d4a08526d024ce1b0b668f6b549091610bec91600191610c3f9161089290879063ffffffff61104516565b9063ffffffff610f9216565b600080610c56611220565b5050506001600160a01b03166000908152600b602090815260408083209383529281529082902082518084019093528054808452600190910154929091018290529091565b6000610bec610cc6600854610cba60018661104590919063ffffffff16565b9063ffffffff610fec16565b6000805260096020527fec8156718a8372b1db44bb411437d0870f3e3790d4a08526d024ce1b0b668f6b549063ffffffff610f9216565b6000808260ff166002811115610d0f57fe5b90506000610d23868663ffffffff610f9216565b905060006001836002811115610d3557fe5b1415610d4e5786828a0281610d4657fe5b049050610d80565b6000836002811115610d5c57fe5b1415610d6d578582890281610d4657fe5b610d7d898963ffffffff610f9216565b90505b98975050505050505050565b6000610d9784610c9b565b600085815260096020526040902060020154909150610e0e57600854610dc490829063ffffffff610f9216565b600085815260096020526040902060010155600854610dfb90610dee90600263ffffffff610fec16565b829063ffffffff610f9216565b6000858152600960205260409020600201555b60008260ff166001811115610e1f57fe5b90506000816001811115610e2f57fe5b1415610e6a57600085815260096020526040902060040154610e57908563ffffffff610f9216565b6000868152600960205260409020600401555b6001816001811115610e7857fe5b141561095757600085815260096020526040902060030154610ea0908563ffffffff610f9216565b6000868152600960205260409020600301555050505050565b6000610ec3610b8b565b336000908152600a6020526040902054909150610ee6903463ffffffff610f9216565b336000818152600a60209081526040918290209390935580513481529283019190915280517f7409df427fb85f0f6f2573c2a28a0fc2b758c552b1a2c08187ff1db0b07a354b9281900390910190a150565b600e5460ff1615610f4857600080fd5b600e805460ff196001600160a01b0390931661010002610100600160a81b031990911617919091166001179055565b6001600160a01b03166000908152600a602052604090205490565b60008282018381101561089e576040805162461bcd60e51b815260206004820152601b60248201527f536166654d6174683a206164646974696f6e206f766572666c6f770000000000604482015290519081900360640190fd5b600082610ffb57506000610bec565b8282028284828161100857fe5b041461089e5760405162461bcd60e51b81526004018080602001828103825260218152602001806112826021913960400191505060405180910390fd5b600061089e83836040518060400160405280601e81526020017f536166654d6174683a207375627472616374696f6e206f766572666c6f7700008152506110f5565b600061089e83836040518060400160405280601a81526020017f536166654d6174683a206469766973696f6e206279207a65726f00000000000081525061118c565b6040805142602080830191909152825180830382018152918301909252805191012060fa9006600a0190565b600081848411156111845760405162461bcd60e51b81526004018080602001828103825283818151815260200191508051906020019080838360005b83811015611149578181015183820152602001611131565b50505050905090810190601f1680156111765780820380516001836020036101000a031916815260200191505b509250505060405180910390fd5b505050900390565b600081836111db5760405162461bcd60e51b8152602060048201818152835160248401528351909283926044909101919085019080838360008315611149578181015183820152602001611131565b5060008385816111e757fe5b0495945050505050565b6040518060a0016040528060008152602001600081526020016000815260200160008152602001600081525090565b60405180604001604052806000815260200160008152509056fe757365722063616e206f6e6c7920626574206f6e652074696d65207065722077696e646f776e6f7420656e6f756768206d6f6e657920746f20706c616365207468697320626574536166654d6174683a206d756c7469706c69636174696f6e206f766572666c6f77a264697066735822122089959ce596d64cbaa716b87bb470e2faf2d4256f86fa44d67059daf0f163559a64736f6c63430006080033536166654d6174683a206d756c7469706c69636174696f6e206f766572666c6f77",
  "immutableReferences": {},
  "source": "pragma solidity ^0.6.8;\nimport \"@openzeppelin/contracts/math/SafeMath.sol\";\nimport \"@openzeppelin/contracts/token/ERC20/IERC20.sol\";\nimport \"./BinToken.sol\";\nimport \"./BinStaking.sol\";\n\n//SPDX-License-Identifier: UNLICENSED\ncontract BinaryBet {\n    using SafeMath for uint256;\n    // IERC20 private bin;\n\n    uint fee;\n\n    address payable owner;\n    mapping(uint => int) ethPrice;\n\n\n    enum BetSide {down, up} \n    enum BetResult {down, up, tie}\n\n    struct Pool {\n        uint startingBlock;\n        uint referenceBlock;\n        uint settlementBlock;\n\n        uint upValue;\n        uint downValue;\n    }\n\n    Pool firstWindow;\n    uint windowDuration; //in blocks\n\n    mapping (uint => Pool) pools; //windowNumber => Pool\n\n \n\n    struct Stake {\n        uint upStake;\n        uint downStake;\n    }\n    \n\n\n    mapping (address => uint) balance;\n    mapping (address => mapping(uint => Stake)) userStake;\n    mapping (address => mapping(uint => bool)) userBetted;\n\n    mapping (address => uint[]) userWindows;\n    event newBet(uint value, uint8 side, address user, uint windowNumber);\n    event newDeposit(uint value, address user);\n    event newWithdraw(uint value, address user);\n    event betSettled(uint gain, uint windowNumber, address user);\n    \n    bool stakingSet = false;\n    address payable stakingAddress;\n    function setStakingAddress(address stakingContract) external {\n        require(!stakingSet);\n        stakingAddress = payable(stakingContract);\n        stakingSet = true;\n    }\n\n    \n    constructor(uint _firstWindowBlock, uint _windowDuration, uint _fee) public {\n        require(_fee <= 100);\n        //\n        //                  |-------------betting window-----------|--------------settlement period-----------|  \n        //         firstWindowBlock                      starting block                         starting block\n\n\n\n        //                                                         +                                          +            \n        //                                                     window size                               2*window size \n        //                                                         =                                          = \n        //                                                  referenceBlock                          settlementBlock\n\n        firstWindow = Pool(_firstWindowBlock, _firstWindowBlock.add(_windowDuration), _firstWindowBlock.add(_windowDuration.mul(2)), 0,0);\n        windowDuration = _windowDuration;\n        pools[0] = firstWindow;\n        \n        fee = _fee;\n        owner = msg.sender;\n\n    }\n\n\n\n    function deposit() payable external {\n        bool update = updatePrice();\n        balance[msg.sender] = balance[msg.sender].add(msg.value);\n        emit newDeposit(msg.value, msg.sender);\n    }\n\n    function withdraw(uint value) external {\n        updatePrice();\n        uint gain = updateBalance(msg.sender);\n        balance[msg.sender] = balance[msg.sender].add(gain);\n\n        require(value <= balance[msg.sender], \"not enough funds\");\n        balance[msg.sender] = balance[msg.sender].sub(value);\n        msg.sender.transfer(value);\n        \n        emit newWithdraw(value, msg.sender);\n\n    }\n    \n    function placeBet (uint betValue, uint8 side) payable external {\n        updatePrice();\n        uint windowNumber = getBlockWindow(block.number);\n\n        uint gain = updateBalance(msg.sender);\n        balance[msg.sender] = balance[msg.sender].add(gain);\n        require(!userBetted[msg.sender][windowNumber], \"user can only bet one time per window\"); //First user bet on the window.\n        require(betValue <= balance[msg.sender].add(msg.value), \"not enough money to place this bet\");\n\n        //betValue <= balance + msg.value\n        //0 <= balance + msg.value - betValue\n        balance[msg.sender] = balance[msg.sender].add(msg.value).sub(betValue);\n        uint betFee = computeFee(betValue, fee); \n        \n        BinaryStaking staking = BinaryStaking(stakingAddress); \n        staking.receiveFunds.value(betFee)();\n\n        uint value = betValue.sub(betFee);\n        userWindows[msg.sender].push(windowNumber);\n\n        updatePool (windowNumber, value, uint8(side));\n        updateStake(msg.sender, uint8(side), windowNumber, value);\n        userBetted[msg.sender][windowNumber] = true;\n        emit newBet(value, side, msg.sender, windowNumber);\n    }       \n\n    function updateBalance(address user) public returns(uint){\n        uint totalGain = 0;\n        uint[] storage userWindowsList = userWindows[user];\n        if(userWindowsList.length == 0) {\n            return 0;\n        }\n        for (uint i = userWindowsList.length-1; i >= 0; i--) {\n            Pool memory pool = pools[userWindowsList[i]];\n            if(block.number < pool.settlementBlock) {\n                continue;\n            }\n\n            int referencePrice =  ethPrice[pool.referenceBlock];\n            int settlementPrice = ethPrice[pool.settlementBlock];\n            Stake storage stake = userStake[user][userWindowsList[i]];\n            uint8 result = betResult(referencePrice, settlementPrice);\n            uint windowGain = settleBet(stake.upStake, stake.downStake, pool.downValue, pool.upValue, result);\n\n            stake.downStake = 0;\n            stake.upStake = 0;\n            totalGain = totalGain.add(windowGain);\n            emit betSettled(windowGain, userWindowsList[i], user);\n\n            userWindowsList[i] = userWindowsList[userWindowsList.length -1];\n            userWindowsList.pop();\n        }\n        return totalGain;\n    }\n\n    function settleBet(uint upStake, uint downStake, uint poolUp, uint poolDown, uint8 betResult) public pure returns (uint) {\n        BetResult result = BetResult(betResult);\n        uint poolTotal = poolUp.add(poolDown);\n        uint gain = 0;\n        if (result == BetResult.up) {\n            gain = (upStake*poolTotal)/poolUp;\n        } \n        else if (result == BetResult.down) {\n            gain = (downStake*poolTotal)/poolDown;\n        }\n        else {\n            gain = upStake.add(downStake);\n        }\n        \n        return gain;\n    }\n\n   function betResult(int referencePrice, int settlementPrice) public pure returns(uint8){            \n        if(settlementPrice < referencePrice) {\n            return 0;\n        }   \n        else if(settlementPrice > referencePrice) {\n            return 1;\n        } \n        else {\n            return 2;\n        }\n    }\n \n    \n    //Internal but set as public for testing\n    function updateStake(address user, uint8 side, uint windowNumber, uint value) public{\n        BetSide betSide = BetSide(side);\n        if (betSide == BetSide.down) {\n            Stake storage stake = userStake[user][windowNumber]; \n            stake.downStake = stake.downStake.add(value); \n        }\n        if (betSide == BetSide.up) {\n            Stake storage stake = userStake[user][windowNumber]; \n            stake.upStake = stake.upStake.add(value);\n        }\n        \n    }\n\n    //Internal but set as public for testing\n    function updatePool (uint windowNumber, uint value, uint8 betSide) public {\n        uint startingBlock = getWindowStartingBlock(windowNumber);\n        if (pools[windowNumber].settlementBlock == 0) {\n            //\n            //                  |-------------betting window-----------|--------------settlement period-----------|  \n            //          starting block                      starting block                         starting block\n            //                                                         +                                          +\n            //                                                     window size                               2*window size          \n            \n            pools[windowNumber].referenceBlock = startingBlock.add(windowDuration);\n            pools[windowNumber].settlementBlock = startingBlock.add(windowDuration.mul(2));\n             \n        }\n\n        BetSide side = BetSide(betSide);\n        if (side == BetSide.down) { //down\n              pools[windowNumber].downValue = pools[windowNumber].downValue.add(value);\n        }\n        \n        if (side == BetSide.up) {\n              pools[windowNumber].upValue = pools[windowNumber].upValue.add(value);\n        }\n        \n\n    }  \n\n    //Internal but set as public for testing\n    function getBlockWindow (uint currentBlock) public view returns (uint windowNumber) {\n        //n = floor((beg block - first_block)/window_size  + 1)\n        windowNumber = ((currentBlock.sub(pools[0].startingBlock)).div(windowDuration)).add(1); //integer division => floor    \n    }\n\n    //Internal but set as public for testing\n    function getWindowStartingBlock (uint windowNumber) public view returns (uint startingBlock) {\n        //firstBlock + (n-1)*window_size\n        startingBlock =  pools[0].startingBlock.add((windowNumber.sub(1)).mul(windowDuration));\n    }\n\n    function computeFee(uint value, uint _fee) public pure returns (uint betFee) {\n        betFee = (value.mul(_fee)).div(100); \n\n    }\n\n\n    function updatePrice() public  returns (bool){\n        if(ethPrice[block.number] == 0) {\n            ethPrice[block.number] = priceOracle();\n            return true;\n        }\n        return false;\n    }\n    \n    //TODO Implement price API\n    function priceOracle() internal returns (int currentPrice){\n        currentPrice =  int(uint(keccak256(abi.encodePacked(now)))%250 + 10);\n    }\n\n    //Getters\n    function getPoolValues(uint windowNumber) public view returns (uint, uint, uint, uint) {\n        Pool memory pool = pools[windowNumber];\n        return (pool.settlementBlock, pool.downValue, pool.upValue, pool.referenceBlock);\n    }\n\n    function getUserStake(uint windowNumber, address user) public view returns (uint, uint) {\n        Stake  memory stake  = userStake[user][windowNumber];\n        return (stake.downStake, stake.upStake);\n    }\n    function getBalance(address user) public view returns(uint) {\n        return balance[user];\n    }\n    \n\n\n}\n\n",
  "sourcePath": "/home/pedroargento/bot/contracts/BinaryBet.sol",
  "compiler": {
    "name": "solc",
    "version": "0.6.8+commit.0bbfe453.Emscripten.clang"
  },
  "schemaVersion": "3.3.3",
  "updatedAt": "2021-02-11T20:48:50.988Z",
  "networkType": "ethereum",
  "devdoc": {
    "methods": {}
  },
  "userdoc": {
    "methods": {}
  }
}