{
  "contractName": "BinaryStaking",
  "abi": [
    {
      "inputs": [
        {
          "internalType": "address",
          "name": "token",
          "type": "address"
        }
      ],
      "stateMutability": "nonpayable",
      "type": "constructor"
    },
    {
      "anonymous": false,
      "inputs": [
        {
          "indexed": true,
          "internalType": "address",
          "name": "user",
          "type": "address"
        },
        {
          "indexed": false,
          "internalType": "uint256",
          "name": "amount",
          "type": "uint256"
        }
      ],
      "name": "Staked",
      "type": "event"
    },
    {
      "anonymous": false,
      "inputs": [
        {
          "indexed": true,
          "internalType": "address",
          "name": "user",
          "type": "address"
        },
        {
          "indexed": false,
          "internalType": "uint256",
          "name": "amount",
          "type": "uint256"
        }
      ],
      "name": "Unstaked",
      "type": "event"
    },
    {
      "inputs": [],
      "name": "binToken",
      "outputs": [
        {
          "internalType": "contract IERC20",
          "name": "",
          "type": "address"
        }
      ],
      "stateMutability": "view",
      "type": "function",
      "constant": true
    },
    {
      "inputs": [],
      "name": "receiveFunds",
      "outputs": [],
      "stateMutability": "payable",
      "type": "function",
      "payable": true
    },
    {
      "inputs": [
        {
          "internalType": "uint256",
          "name": "amount",
          "type": "uint256"
        }
      ],
      "name": "stake",
      "outputs": [],
      "stateMutability": "nonpayable",
      "type": "function"
    },
    {
      "inputs": [
        {
          "internalType": "uint256",
          "name": "amount",
          "type": "uint256"
        }
      ],
      "name": "unstake",
      "outputs": [],
      "stateMutability": "nonpayable",
      "type": "function"
    },
    {
      "inputs": [
        {
          "internalType": "address",
          "name": "user",
          "type": "address"
        }
      ],
      "name": "release",
      "outputs": [],
      "stateMutability": "nonpayable",
      "type": "function"
    },
    {
      "inputs": [
        {
          "internalType": "address",
          "name": "user",
          "type": "address"
        }
      ],
      "name": "ownedDividends",
      "outputs": [
        {
          "internalType": "uint256",
          "name": "",
          "type": "uint256"
        }
      ],
      "stateMutability": "view",
      "type": "function",
      "constant": true
    }
  ],
  "bytecode": "0x60806040523480156200001157600080fd5b50604051620010ae380380620010ae8339818101604052810190620000379190620000d6565b33600160006101000a81548173ffffffffffffffffffffffffffffffffffffffff021916908373ffffffffffffffffffffffffffffffffffffffff160217905550806000806101000a81548173ffffffffffffffffffffffffffffffffffffffff021916908373ffffffffffffffffffffffffffffffffffffffff160217905550506200015b565b600081519050620000d08162000141565b92915050565b600060208284031215620000ef57620000ee6200013c565b5b6000620000ff84828501620000bf565b91505092915050565b600062000115826200011c565b9050919050565b600073ffffffffffffffffffffffffffffffffffffffff82169050919050565b600080fd5b6200014c8162000108565b81146200015857600080fd5b50565b610f43806200016b6000396000f3fe6080604052600436106100545760003560e01c80625c33e11461005957806319165587146100635780632e17de781461008c578063a66e4562146100b5578063a694fc3a146100f2578063fe4fdc4e1461011b575b600080fd5b610061610146565b005b34801561006f57600080fd5b5061008a60048036038101906100859190610a69565b610342565b005b34801561009857600080fd5b506100b360048036038101906100ae9190610ac3565b6104c8565b005b3480156100c157600080fd5b506100dc60048036038101906100d79190610a69565b61072c565b6040516100e99190610c66565b60405180910390f35b3480156100fe57600080fd5b5061011960048036038101906101149190610ac3565b6107c5565b005b34801561012757600080fd5b506101306109f1565b60405161013d9190610c0b565b60405180910390f35b600034905060008060009054906101000a900473ffffffffffffffffffffffffffffffffffffffff1673ffffffffffffffffffffffffffffffffffffffff166370a08231306040518263ffffffff1660e01b81526004016101a79190610b90565b60206040518083038186803b1580156101bf57600080fd5b505afa1580156101d3573d6000803e3d6000fd5b505050506040513d601f19601f820116820180604052508101906101f79190610af0565b146102d55760008054906101000a900473ffffffffffffffffffffffffffffffffffffffff1673ffffffffffffffffffffffffffffffffffffffff166370a08231306040518263ffffffff1660e01b81526004016102559190610b90565b60206040518083038186803b15801561026d57600080fd5b505afa158015610281573d6000803e3d6000fd5b505050506040513d601f19601f820116820180604052508101906102a59190610af0565b6103e8826102b39190610d19565b6102bd9190610ce8565b6003546102ca9190610c92565b60038190555061033f565b600160009054906101000a900473ffffffffffffffffffffffffffffffffffffffff1673ffffffffffffffffffffffffffffffffffffffff166108fc829081150290604051600060405180830381858888f1935050505015801561033d573d6000803e3d6000fd5b505b50565b60006003541415610352576104c5565b600061035d8261072c565b905060008054906101000a900473ffffffffffffffffffffffffffffffffffffffff1673ffffffffffffffffffffffffffffffffffffffff166370a08231306040518263ffffffff1660e01b81526004016103b89190610b90565b60206040518083038186803b1580156103d057600080fd5b505afa1580156103e4573d6000803e3d6000fd5b505050506040513d601f19601f820116820180604052508101906104089190610af0565b6103e8826104169190610d19565b6104209190610ce8565b60035461042d9190610d73565b600381905550600354600260008473ffffffffffffffffffffffffffffffffffffffff1673ffffffffffffffffffffffffffffffffffffffff168152602001908152602001600020600101819055508173ffffffffffffffffffffffffffffffffffffffff166108fc829081150290604051600060405180830381858888f193505050501580156104c2573d6000803e3d6000fd5b50505b50565b6000811161050b576040517f08c379a000000000000000000000000000000000000000000000000000000000815260040161050290610c26565b60405180910390fd5b600260003373ffffffffffffffffffffffffffffffffffffffff1673ffffffffffffffffffffffffffffffffffffffff16815260200190815260200160002060000154811115610590576040517f08c379a000000000000000000000000000000000000000000000000000000000815260040161058790610c46565b60405180910390fd5b61059933610342565b80600260003373ffffffffffffffffffffffffffffffffffffffff1673ffffffffffffffffffffffffffffffffffffffff168152602001908152602001600020600001546105e79190610d73565b600260003373ffffffffffffffffffffffffffffffffffffffff1673ffffffffffffffffffffffffffffffffffffffff1681526020019081526020016000206000018190555060008054906101000a900473ffffffffffffffffffffffffffffffffffffffff1673ffffffffffffffffffffffffffffffffffffffff1663a9059cbb33836040518363ffffffff1660e01b8152600401610688929190610be2565b602060405180830381600087803b1580156106a257600080fd5b505af11580156106b6573d6000803e3d6000fd5b505050506040513d601f19601f820116820180604052508101906106da9190610a96565b503373ffffffffffffffffffffffffffffffffffffffff167f0f5bb82176feb1b5e747e28471aa92156a04d9f3ab9f45f28e2d704232b93f75826040516107219190610c66565b60405180910390a250565b600080600260008473ffffffffffffffffffffffffffffffffffffffff1673ffffffffffffffffffffffffffffffffffffffff1681526020019081526020016000206040518060400160405290816000820154815260200160018201548152505090506103e8816000015182602001516003546107a99190610d73565b6107b39190610d19565b6107bd9190610ce8565b915050919050565b60008111610808576040517f08c379a00000000000000000000000000000000000000000000000000000000081526004016107ff90610c26565b60405180910390fd5b6000600260003373ffffffffffffffffffffffffffffffffffffffff1673ffffffffffffffffffffffffffffffffffffffff168152602001908152602001600020600001541461085c5761085b33610342565b5b60008054906101000a900473ffffffffffffffffffffffffffffffffffffffff1673ffffffffffffffffffffffffffffffffffffffff166323b872dd3330846040518463ffffffff1660e01b81526004016108b993929190610bab565b602060405180830381600087803b1580156108d357600080fd5b505af11580156108e7573d6000803e3d6000fd5b505050506040513d601f19601f8201168201806040525081019061090b9190610a96565b5080600260003373ffffffffffffffffffffffffffffffffffffffff1673ffffffffffffffffffffffffffffffffffffffff1681526020019081526020016000206000015461095a9190610c92565b600260003373ffffffffffffffffffffffffffffffffffffffff1673ffffffffffffffffffffffffffffffffffffffff168152602001908152602001600020600001819055503373ffffffffffffffffffffffffffffffffffffffff167f9e71bc8eea02a63969f509818f2dafb9254532904319f9dbda79b67bd34a5f3d826040516109e69190610c66565b60405180910390a250565b60008054906101000a900473ffffffffffffffffffffffffffffffffffffffff1681565b600081359050610a2481610ec8565b92915050565b600081519050610a3981610edf565b92915050565b600081359050610a4e81610ef6565b92915050565b600081519050610a6381610ef6565b92915050565b600060208284031215610a7f57610a7e610e71565b5b6000610a8d84828501610a15565b91505092915050565b600060208284031215610aac57610aab610e71565b5b6000610aba84828501610a2a565b91505092915050565b600060208284031215610ad957610ad8610e71565b5b6000610ae784828501610a3f565b91505092915050565b600060208284031215610b0657610b05610e71565b5b6000610b1484828501610a54565b91505092915050565b610b2681610da7565b82525050565b610b3581610def565b82525050565b6000610b48601f83610c81565b9150610b5382610e76565b602082019050919050565b6000610b6b602083610c81565b9150610b7682610e9f565b602082019050919050565b610b8a81610de5565b82525050565b6000602082019050610ba56000830184610b1d565b92915050565b6000606082019050610bc06000830186610b1d565b610bcd6020830185610b1d565b610bda6040830184610b81565b949350505050565b6000604082019050610bf76000830185610b1d565b610c046020830184610b81565b9392505050565b6000602082019050610c206000830184610b2c565b92915050565b60006020820190508181036000830152610c3f81610b3b565b9050919050565b60006020820190508181036000830152610c5f81610b5e565b9050919050565b6000602082019050610c7b6000830184610b81565b92915050565b600082825260208201905092915050565b6000610c9d82610de5565b9150610ca883610de5565b9250827fffffffffffffffffffffffffffffffffffffffffffffffffffffffffffffffff03821115610cdd57610cdc610e13565b5b828201905092915050565b6000610cf382610de5565b9150610cfe83610de5565b925082610d0e57610d0d610e42565b5b828204905092915050565b6000610d2482610de5565b9150610d2f83610de5565b9250817fffffffffffffffffffffffffffffffffffffffffffffffffffffffffffffffff0483118215151615610d6857610d67610e13565b5b828202905092915050565b6000610d7e82610de5565b9150610d8983610de5565b925082821015610d9c57610d9b610e13565b5b828203905092915050565b6000610db282610dc5565b9050919050565b60008115159050919050565b600073ffffffffffffffffffffffffffffffffffffffff82169050919050565b6000819050919050565b6000610dfa82610e01565b9050919050565b6000610e0c82610dc5565b9050919050565b7f4e487b7100000000000000000000000000000000000000000000000000000000600052601160045260246000fd5b7f4e487b7100000000000000000000000000000000000000000000000000000000600052601260045260246000fd5b600080fd5b7f416d6f756e742073686f756c642062652067726561746572207468616e203000600082015250565b7f43616e6e6f7420756e7374616b65206d6f7265207468616e2062616c616e6365600082015250565b610ed181610da7565b8114610edc57600080fd5b50565b610ee881610db9565b8114610ef357600080fd5b50565b610eff81610de5565b8114610f0a57600080fd5b5056fea264697066735822122052b20b195dda7f5d893738bb54cf29965a1f901a07071da6b192fa4b3dd1078164736f6c63430008060033",
  "immutableReferences": {},
  "source": "pragma solidity ^0.8.0;\n//import \"@openzeppelin/contracts/math/SafeMath.sol\";\nimport \"@openzeppelin/contracts/token/ERC20/IERC20.sol\";\nimport \"./BinToken.sol\";\n\n//SPDX-License-Identifier: UNLICENSED\ncontract BinaryStaking {\n    //using SafeMath for uint256;\n    IERC20 public binToken;\n\n    address payable owner;\n    uint constant MUL_CONST = 1000;\n    struct StakingAccount {\n        uint stakedBin;\n        uint valueWhenLastReleased; //Global accumulated value of new_rewards/total_staked when user last got rewards. \n    }\n\n    mapping(address => StakingAccount) stakingBalance;\n    uint accumulatedRewards; //(per staked token)\n\n    event Staked(address indexed user, uint amount);\n    event Unstaked(address indexed user, uint amount);\n\n    constructor(address token) public {\n        owner = payable(msg.sender);\n        binToken = BinToken(token);\n    }\n\n    function receiveFunds() public payable {\n        uint value = msg.value;\n        if (binToken.balanceOf(address(this)) != 0) {\n            accumulatedRewards = accumulatedRewards + value*MUL_CONST/binToken.balanceOf(address(this));\n        }\n        else {\n            owner.transfer(value);\n        }\n    }\n\n    function stake(uint amount) external{\n        require(amount > 0, \"Amount should be greater than 0\");\n        if (stakingBalance[msg.sender].stakedBin != 0) {\n            release(msg.sender);\n        }\n\n        binToken.transferFrom(msg.sender, address(this), amount);\n        stakingBalance[msg.sender].stakedBin = stakingBalance[msg.sender].stakedBin + amount;\n\n        emit Staked(msg.sender, amount);\n    }\n\n    function unstake(uint amount) external {\n        require(amount > 0, \"Amount should be greater than 0\");\n        require(amount <= stakingBalance[msg.sender].stakedBin, \"Cannot unstake more than balance\");\n\n        release(msg.sender);\n        stakingBalance[msg.sender].stakedBin = stakingBalance[msg.sender].stakedBin - amount;\n\n        binToken.transfer(msg.sender, amount);\n        emit Unstaked(msg.sender, amount);\n    }\n\n    function release (address user) public {\n        if (accumulatedRewards == 0){\n            return;\n        }\n        uint amount = ownedDividends(user);\n        accumulatedRewards = accumulatedRewards - amount*MUL_CONST/binToken.balanceOf(address(this));\n        stakingBalance[user].valueWhenLastReleased = accumulatedRewards;                                                        \n        \n        payable(user).transfer(amount);\n    }\n\n    function ownedDividends(address user) public view returns(uint) {\n        StakingAccount memory balance = stakingBalance[user];\n        return ((accumulatedRewards - balance.valueWhenLastReleased)*balance.stakedBin)/MUL_CONST;\n    }\n\n}\n\n",
  "sourcePath": "/home/pedroargento/bot/contracts/BinStaking.sol",
  "compiler": {
    "name": "solc",
    "version": "0.8.6+commit.11564f7e.Emscripten.clang"
  },
  "schemaVersion": "3.3.3",
  "updatedAt": "2021-07-29T18:57:43.098Z",
  "networkType": "ethereum",
  "devdoc": {
    "kind": "dev",
    "methods": {},
    "version": 1
  },
  "userdoc": {
    "kind": "user",
    "methods": {},
    "version": 1
  }
}