{
  "contractName": "BinaryBet",
  "abi": [
    {
      "inputs": [
        {
          "internalType": "uint256",
          "name": "_windowDuration",
          "type": "uint256"
        },
        {
          "internalType": "uint256",
          "name": "_fee",
          "type": "uint256"
        }
      ],
      "stateMutability": "nonpayable",
      "type": "constructor"
    },
    {
      "anonymous": false,
      "inputs": [
        {
          "indexed": true,
          "internalType": "uint256",
          "name": "windowNumber",
          "type": "uint256"
        },
        {
          "indexed": true,
          "internalType": "address",
          "name": "user",
          "type": "address"
        },
        {
          "indexed": false,
          "internalType": "uint256",
          "name": "gain",
          "type": "uint256"
        }
      ],
      "name": "betSettled",
      "type": "event"
    },
    {
      "anonymous": false,
      "inputs": [
        {
          "indexed": true,
          "internalType": "address",
          "name": "user",
          "type": "address"
        },
        {
          "indexed": true,
          "internalType": "uint256",
          "name": "windowNumber",
          "type": "uint256"
        },
        {
          "indexed": false,
          "internalType": "uint256",
          "name": "value",
          "type": "uint256"
        },
        {
          "indexed": false,
          "internalType": "uint8",
          "name": "side",
          "type": "uint8"
        }
      ],
      "name": "newBet",
      "type": "event"
    },
    {
      "anonymous": false,
      "inputs": [
        {
          "indexed": true,
          "internalType": "address",
          "name": "user",
          "type": "address"
        },
        {
          "indexed": false,
          "internalType": "uint256",
          "name": "value",
          "type": "uint256"
        }
      ],
      "name": "newDeposit",
      "type": "event"
    },
    {
      "anonymous": false,
      "inputs": [
        {
          "indexed": true,
          "internalType": "address",
          "name": "user",
          "type": "address"
        },
        {
          "indexed": false,
          "internalType": "uint256",
          "name": "value",
          "type": "uint256"
        }
      ],
      "name": "newWithdraw",
      "type": "event"
    },
    {
      "anonymous": false,
      "inputs": [
        {
          "indexed": true,
          "internalType": "uint256",
          "name": "windowNumber",
          "type": "uint256"
        },
        {
          "indexed": false,
          "internalType": "uint256",
          "name": "price",
          "type": "uint256"
        }
      ],
      "name": "priceUpdated",
      "type": "event"
    },
    {
      "inputs": [],
      "name": "accumulatedFees",
      "outputs": [
        {
          "internalType": "uint256",
          "name": "",
          "type": "uint256"
        }
      ],
      "stateMutability": "view",
      "type": "function",
      "constant": true
    },
    {
      "inputs": [
        {
          "internalType": "address",
          "name": "",
          "type": "address"
        }
      ],
      "name": "balance",
      "outputs": [
        {
          "internalType": "uint256",
          "name": "",
          "type": "uint256"
        }
      ],
      "stateMutability": "view",
      "type": "function",
      "constant": true
    },
    {
      "inputs": [],
      "name": "fee",
      "outputs": [
        {
          "internalType": "uint256",
          "name": "",
          "type": "uint256"
        }
      ],
      "stateMutability": "view",
      "type": "function",
      "constant": true
    },
    {
      "inputs": [],
      "name": "firstBlock",
      "outputs": [
        {
          "internalType": "uint256",
          "name": "",
          "type": "uint256"
        }
      ],
      "stateMutability": "view",
      "type": "function",
      "constant": true
    },
    {
      "inputs": [],
      "name": "firstWindow",
      "outputs": [
        {
          "internalType": "uint256",
          "name": "",
          "type": "uint256"
        }
      ],
      "stateMutability": "view",
      "type": "function",
      "constant": true
    },
    {
      "inputs": [
        {
          "internalType": "uint256",
          "name": "",
          "type": "uint256"
        }
      ],
      "name": "pools",
      "outputs": [
        {
          "internalType": "uint256",
          "name": "downValue",
          "type": "uint256"
        },
        {
          "internalType": "uint256",
          "name": "upValue",
          "type": "uint256"
        }
      ],
      "stateMutability": "view",
      "type": "function",
      "constant": true
    },
    {
      "inputs": [
        {
          "internalType": "address",
          "name": "",
          "type": "address"
        },
        {
          "internalType": "uint256",
          "name": "",
          "type": "uint256"
        }
      ],
      "name": "userBets",
      "outputs": [
        {
          "internalType": "uint256",
          "name": "",
          "type": "uint256"
        }
      ],
      "stateMutability": "view",
      "type": "function",
      "constant": true
    },
    {
      "inputs": [
        {
          "internalType": "address",
          "name": "",
          "type": "address"
        },
        {
          "internalType": "uint256",
          "name": "",
          "type": "uint256"
        }
      ],
      "name": "userStake",
      "outputs": [
        {
          "internalType": "uint256",
          "name": "downValue",
          "type": "uint256"
        },
        {
          "internalType": "uint256",
          "name": "upValue",
          "type": "uint256"
        }
      ],
      "stateMutability": "view",
      "type": "function",
      "constant": true
    },
    {
      "inputs": [],
      "name": "windowDuration",
      "outputs": [
        {
          "internalType": "uint256",
          "name": "",
          "type": "uint256"
        }
      ],
      "stateMutability": "view",
      "type": "function",
      "constant": true
    },
    {
      "inputs": [],
      "name": "windowOffset",
      "outputs": [
        {
          "internalType": "uint256",
          "name": "",
          "type": "uint256"
        }
      ],
      "stateMutability": "view",
      "type": "function",
      "constant": true
    },
    {
      "inputs": [
        {
          "internalType": "uint256",
          "name": "",
          "type": "uint256"
        }
      ],
      "name": "windowPrice",
      "outputs": [
        {
          "internalType": "uint256",
          "name": "",
          "type": "uint256"
        }
      ],
      "stateMutability": "view",
      "type": "function",
      "constant": true
    },
    {
      "inputs": [
        {
          "internalType": "address",
          "name": "newGovernance",
          "type": "address"
        }
      ],
      "name": "changeGovernance",
      "outputs": [],
      "stateMutability": "nonpayable",
      "type": "function"
    },
    {
      "inputs": [
        {
          "internalType": "uint256",
          "name": "windowSize",
          "type": "uint256"
        }
      ],
      "name": "changeWindowSize",
      "outputs": [],
      "stateMutability": "nonpayable",
      "type": "function"
    },
    {
      "inputs": [
        {
          "internalType": "address",
          "name": "stakingContract",
          "type": "address"
        }
      ],
      "name": "setStakingAddress",
      "outputs": [],
      "stateMutability": "nonpayable",
      "type": "function"
    },
    {
      "inputs": [],
      "name": "deposit",
      "outputs": [],
      "stateMutability": "payable",
      "type": "function",
      "payable": true
    },
    {
      "inputs": [
        {
          "internalType": "uint256",
          "name": "value",
          "type": "uint256"
        }
      ],
      "name": "withdraw",
      "outputs": [],
      "stateMutability": "nonpayable",
      "type": "function"
    },
    {
      "inputs": [
        {
          "internalType": "uint256",
          "name": "betValue",
          "type": "uint256"
        },
        {
          "internalType": "uint8",
          "name": "side",
          "type": "uint8"
        }
      ],
      "name": "placeBet",
      "outputs": [],
      "stateMutability": "payable",
      "type": "function",
      "payable": true
    },
    {
      "inputs": [
        {
          "internalType": "address",
          "name": "user",
          "type": "address"
        }
      ],
      "name": "updateBalance",
      "outputs": [],
      "stateMutability": "nonpayable",
      "type": "function"
    },
    {
      "inputs": [
        {
          "internalType": "uint256",
          "name": "upStake",
          "type": "uint256"
        },
        {
          "internalType": "uint256",
          "name": "downStake",
          "type": "uint256"
        },
        {
          "internalType": "uint256",
          "name": "poolUp",
          "type": "uint256"
        },
        {
          "internalType": "uint256",
          "name": "poolDown",
          "type": "uint256"
        },
        {
          "internalType": "uint8",
          "name": "betResult",
          "type": "uint8"
        }
      ],
      "name": "settleBet",
      "outputs": [
        {
          "internalType": "uint256",
          "name": "gain",
          "type": "uint256"
        },
        {
          "internalType": "uint256",
          "name": "fees",
          "type": "uint256"
        }
      ],
      "stateMutability": "pure",
      "type": "function",
      "constant": true
    },
    {
      "inputs": [
        {
          "internalType": "uint256",
          "name": "referencePrice",
          "type": "uint256"
        },
        {
          "internalType": "uint256",
          "name": "settlementPrice",
          "type": "uint256"
        }
      ],
      "name": "betResult",
      "outputs": [
        {
          "internalType": "uint8",
          "name": "",
          "type": "uint8"
        }
      ],
      "stateMutability": "pure",
      "type": "function",
      "constant": true
    },
    {
      "inputs": [
        {
          "internalType": "uint256",
          "name": "downValue",
          "type": "uint256"
        },
        {
          "internalType": "uint256",
          "name": "upValue",
          "type": "uint256"
        },
        {
          "internalType": "uint8",
          "name": "side",
          "type": "uint8"
        },
        {
          "internalType": "uint256",
          "name": "value",
          "type": "uint256"
        }
      ],
      "name": "updatePool",
      "outputs": [
        {
          "internalType": "uint256",
          "name": "",
          "type": "uint256"
        },
        {
          "internalType": "uint256",
          "name": "",
          "type": "uint256"
        }
      ],
      "stateMutability": "pure",
      "type": "function",
      "constant": true
    },
    {
      "inputs": [
        {
          "internalType": "uint256",
          "name": "currentBlock",
          "type": "uint256"
        },
        {
          "internalType": "uint256",
          "name": "_windowDuration",
          "type": "uint256"
        },
        {
          "internalType": "uint256",
          "name": "_firstBlock",
          "type": "uint256"
        },
        {
          "internalType": "uint256",
          "name": "_windowOffset",
          "type": "uint256"
        },
        {
          "internalType": "uint256",
          "name": "_firstWindow",
          "type": "uint256"
        }
      ],
      "name": "getWindowNumber",
      "outputs": [
        {
          "internalType": "uint256",
          "name": "windowNumber",
          "type": "uint256"
        }
      ],
      "stateMutability": "pure",
      "type": "function",
      "constant": true
    },
    {
      "inputs": [
        {
          "internalType": "uint256",
          "name": "windowNumber",
          "type": "uint256"
        },
        {
          "internalType": "uint256",
          "name": "_windowDuration",
          "type": "uint256"
        },
        {
          "internalType": "uint256",
          "name": "_firstBlock",
          "type": "uint256"
        },
        {
          "internalType": "uint256",
          "name": "_windowOffset",
          "type": "uint256"
        }
      ],
      "name": "getWindowStartingBlock",
      "outputs": [
        {
          "internalType": "uint256",
          "name": "startingBlock",
          "type": "uint256"
        }
      ],
      "stateMutability": "pure",
      "type": "function",
      "constant": true
    },
    {
      "inputs": [
        {
          "internalType": "uint256",
          "name": "value",
          "type": "uint256"
        },
        {
          "internalType": "uint256",
          "name": "_fee",
          "type": "uint256"
        }
      ],
      "name": "computeFee",
      "outputs": [
        {
          "internalType": "uint256",
          "name": "betFee",
          "type": "uint256"
        }
      ],
      "stateMutability": "pure",
      "type": "function",
      "constant": true
    },
    {
      "inputs": [],
      "name": "updatePrice",
      "outputs": [],
      "stateMutability": "nonpayable",
      "type": "function"
    },
    {
      "inputs": [
        {
          "internalType": "uint256",
          "name": "windowNumber",
          "type": "uint256"
        }
      ],
      "name": "getPoolValues",
      "outputs": [
        {
          "internalType": "uint256",
          "name": "",
          "type": "uint256"
        },
        {
          "internalType": "uint256",
          "name": "",
          "type": "uint256"
        }
      ],
      "stateMutability": "view",
      "type": "function",
      "constant": true
    },
    {
      "inputs": [
        {
          "internalType": "uint256",
          "name": "windowNumber",
          "type": "uint256"
        },
        {
          "internalType": "address",
          "name": "user",
          "type": "address"
        }
      ],
      "name": "getUserStake",
      "outputs": [
        {
          "internalType": "uint256",
          "name": "",
          "type": "uint256"
        },
        {
          "internalType": "uint256",
          "name": "",
          "type": "uint256"
        }
      ],
      "stateMutability": "view",
      "type": "function",
      "constant": true
    },
    {
      "inputs": [
        {
          "internalType": "address",
          "name": "user",
          "type": "address"
        }
      ],
      "name": "getBalance",
      "outputs": [
        {
          "internalType": "uint256",
          "name": "",
          "type": "uint256"
        }
      ],
      "stateMutability": "view",
      "type": "function",
      "constant": true
    },
    {
      "inputs": [
        {
          "internalType": "uint256",
          "name": "window",
          "type": "uint256"
        }
      ],
      "name": "getWindowBetPrices",
      "outputs": [
        {
          "internalType": "uint256",
          "name": "",
          "type": "uint256"
        },
        {
          "internalType": "uint256",
          "name": "",
          "type": "uint256"
        }
      ],
      "stateMutability": "view",
      "type": "function",
      "constant": true
    },
    {
      "inputs": [
        {
          "internalType": "address",
          "name": "user",
          "type": "address"
        },
        {
          "internalType": "uint256",
          "name": "index",
          "type": "uint256"
        }
      ],
      "name": "getUserBetList",
      "outputs": [
        {
          "internalType": "uint256",
          "name": "",
          "type": "uint256"
        }
      ],
      "stateMutability": "view",
      "type": "function",
      "constant": true
    },
    {
      "inputs": [
        {
          "internalType": "address",
          "name": "user",
          "type": "address"
        }
      ],
      "name": "betListLen",
      "outputs": [
        {
          "internalType": "uint256",
          "name": "",
          "type": "uint256"
        }
      ],
      "stateMutability": "view",
      "type": "function",
      "constant": true
    }
  ],
  "bytecode": "0x608060405260016009553480156200001657600080fd5b5060405162002b3938038062002b3983398181016040528101906200003c91906200011c565b60648111156200004b57600080fd5b732514895c72f50d8bd4b4f9b1110f0d6bd2c975266000806101000a81548173ffffffffffffffffffffffffffffffffffffffff021916908373ffffffffffffffffffffffffffffffffffffffff16021790555043600481905550816003819055508060028190555033600160006101000a81548173ffffffffffffffffffffffffffffffffffffffff021916908373ffffffffffffffffffffffffffffffffffffffff1602179055506001600981905550505062000181565b600081519050620001168162000167565b92915050565b600080604083850312156200013057600080fd5b6000620001408582860162000105565b9250506020620001538582860162000105565b9150509250929050565b6000819050919050565b62000172816200015d565b81146200017e57600080fd5b50565b6129a880620001916000396000f3fe6080604052600436106101d85760003560e01c8063849cd1c711610102578063ddca3f4311610095578063f4e0d9ac11610064578063f4e0d9ac14610730578063f52818f014610759578063f83b35fb14610782578063f8b2cb4f146107c0576101d8565b8063ddca3f4314610660578063e0a5cee31461068b578063e0d65d87146106b6578063e3d670d7146106f3576101d8565b8063ac4afa38116100d1578063ac4afa381461059d578063b47a3566146105db578063ca055e5314610618578063d0e30db014610656576101d8565b8063849cd1c7146104bc57806389b808a7146104f95780639626a2301461053657806399572d6f14610574576101d8565b80633937ea4f1161017a5780635c11ff7a116101495780635c11ff7a14610412578063673a7e281461043d5780638068aa68146104545780638096266814610491576101d8565b80633937ea4f1461034357806340b8405a14610381578063576fe42f146103aa578063587f5ed7146103e7576101d8565b80631bb5abf9116101b65780631bb5abf914610275578063231b0268146102b25780632e1a7d4d146102dd5780632ff284c214610306576101d8565b806303edf914146101dd5780630ed6ca29146101f95780630eff4d8814610237575b600080fd5b6101f760048036038101906101f2919061234a565b6107fd565b005b34801561020557600080fd5b50610220600480360381019061021b91906122e7565b610cd9565b60405161022e9291906127c9565b60405180910390f35b34801561024357600080fd5b5061025e600480360381019061025991906120f5565b610d73565b60405161026c9291906127c9565b60405180910390f35b34801561028157600080fd5b5061029c6004803603810190610297919061215a565b610dc6565b6040516102a9919061281b565b60405180910390f35b3480156102be57600080fd5b506102c7610df5565b6040516102d491906127ae565b60405180910390f35b3480156102e957600080fd5b5061030460048036038101906102ff91906120f5565b610dfb565b005b34801561031257600080fd5b5061032d6004803603810190610328919061215a565b610fbb565b60405161033a91906127ae565b60405180910390f35b34801561034f57600080fd5b5061036a600480360381019061036591906120b9565b610feb565b6040516103789291906127c9565b60405180910390f35b34801561038d57600080fd5b506103a860048036038101906103a39190612090565b61101c565b005b3480156103b657600080fd5b506103d160048036038101906103cc91906121f9565b61140e565b6040516103de91906127ae565b60405180910390f35b3480156103f357600080fd5b506103fc611476565b60405161040991906127ae565b60405180910390f35b34801561041e57600080fd5b5061042761147c565b60405161043491906127ae565b60405180910390f35b34801561044957600080fd5b50610452611482565b005b34801561046057600080fd5b5061047b600480360381019061047691906120b9565b611525565b60405161048891906127ae565b60405180910390f35b34801561049d57600080fd5b506104a6611553565b6040516104b391906127ae565b60405180910390f35b3480156104c857600080fd5b506104e360048036038101906104de9190612196565b611559565b6040516104f091906127ae565b60405180910390f35b34801561050557600080fd5b50610520600480360381019061051b9190612090565b6115af565b60405161052d91906127ae565b60405180910390f35b34801561054257600080fd5b5061055d6004803603810190610558919061211e565b6115fb565b60405161056b9291906127c9565b60405180910390f35b34801561058057600080fd5b5061059b60048036038101906105969190612090565b61168d565b005b3480156105a957600080fd5b506105c460048036038101906105bf91906120f5565b611761565b6040516105d29291906127c9565b60405180910390f35b3480156105e757600080fd5b5061060260048036038101906105fd91906120b9565b611785565b60405161060f91906127ae565b60405180910390f35b34801561062457600080fd5b5061063f600480360381019061063a9190612270565b6117e4565b60405161064d9291906127c9565b60405180910390f35b61065e611921565b005b34801561066c57600080fd5b50610675611a0e565b60405161068291906127ae565b60405180910390f35b34801561069757600080fd5b506106a0611a14565b6040516106ad91906127ae565b60405180910390f35b3480156106c257600080fd5b506106dd60048036038101906106d891906120f5565b611a1a565b6040516106ea91906127ae565b60405180910390f35b3480156106ff57600080fd5b5061071a60048036038101906107159190612090565b611a32565b60405161072791906127ae565b60405180910390f35b34801561073c57600080fd5b5061075760048036038101906107529190612090565b611a4a565b005b34801561076557600080fd5b50610780600480360381019061077b91906120f5565b611b82565b005b34801561078e57600080fd5b506107a960048036038101906107a491906120f5565b611cb2565b6040516107b79291906127c9565b60405180910390f35b3480156107cc57600080fd5b506107e760048036038101906107e29190612090565b611cec565b6040516107f491906127ae565b60405180910390f35b610805611482565b61080e3361101c565b61086034600c60003373ffffffffffffffffffffffffffffffffffffffff1673ffffffffffffffffffffffffffffffffffffffff16815260200190815260200160002054611d3590919063ffffffff16565b8211156108a2576040517f08c379a00000000000000000000000000000000000000000000000000000000081526004016108999061272e565b60405180910390fd5b610906826108f834600c60003373ffffffffffffffffffffffffffffffffffffffff1673ffffffffffffffffffffffffffffffffffffffff16815260200190815260200160002054611d3590919063ffffffff16565b611d8a90919063ffffffff16565b600c60003373ffffffffffffffffffffffffffffffffffffffff1673ffffffffffffffffffffffffffffffffffffffff16815260200190815260200160002081905550600061095783600254610fbb565b905061096e81600b54611d3590919063ffffffff16565b600b8190555060006109898285611d8a90919063ffffffff16565b905060006109a243600354600454600a5460095461140e565b9050600f60003373ffffffffffffffffffffffffffffffffffffffff1673ffffffffffffffffffffffffffffffffffffffff168152602001908152602001600020600082815260200190815260200160002060009054906101000a900460ff16610ad657600e60003373ffffffffffffffffffffffffffffffffffffffff1673ffffffffffffffffffffffffffffffffffffffff1681526020019081526020016000208190806001815401808255809150506001900390600052602060002001600090919091909150556001600f60003373ffffffffffffffffffffffffffffffffffffffff1673ffffffffffffffffffffffffffffffffffffffff168152602001908152602001600020600083815260200190815260200160002060006101000a81548160ff0219169083151502179055505b610ade611ff8565b60076000838152602001908152602001600020604051806040016040529081600082015481526020016001820154815250509050600080610b29836000015184602001518988610cd9565b91509150604051806040016040528083815260200182815250600760008681526020019081526020016000206000820151816000015560208201518160010155905050610b74611ff8565b600d60003373ffffffffffffffffffffffffffffffffffffffff1673ffffffffffffffffffffffffffffffffffffffff1681526020019081526020016000206000868152602001908152602001600020604051806040016040529081600082015481526020016001820154815250509050610bf9816000015182602001518a89610cd9565b8093508194505050604051806040016040528084815260200183815250600d60003373ffffffffffffffffffffffffffffffffffffffff1673ffffffffffffffffffffffffffffffffffffffff16815260200190815260200160002060008781526020019081526020016000206000820151816000015560208201518160010155905050843373ffffffffffffffffffffffffffffffffffffffff167f560e32e4934b84f33b228f40ddc5b9fa690426ee087005a7d979d7921d24a02b888b604051610cc69291906127f2565b60405180910390a3505050505050505050565b60008060008460ff166001811115610ced57fe5b905060006001811115610cfc57fe5b816001811115610d0857fe5b1415610d2c57610d218488611d3590919063ffffffff16565b869250925050610d6a565b600180811115610d3857fe5b816001811115610d4457fe5b1415610d685786610d5e8588611d3590919063ffffffff16565b9250925050610d6a565b505b94509492505050565b600080610d7e611ff8565b60076000858152602001908152602001600020604051806040016040529081600082015481526020016001820154815250509050806000015181602001519250925050915091565b600082821015610dd95760009050610def565b82821115610dea5760019050610def565b600290505b92915050565b60045481565b610e03611482565b610e0c3361101c565b600c60003373ffffffffffffffffffffffffffffffffffffffff1673ffffffffffffffffffffffffffffffffffffffff16815260200190815260200160002054811115610e8e576040517f08c379a0000000000000000000000000000000000000000000000000000000008152600401610e859061278e565b60405180910390fd5b610ee081600c60003373ffffffffffffffffffffffffffffffffffffffff1673ffffffffffffffffffffffffffffffffffffffff16815260200190815260200160002054611d8a90919063ffffffff16565b600c60003373ffffffffffffffffffffffffffffffffffffffff1673ffffffffffffffffffffffffffffffffffffffff168152602001908152602001600020819055503373ffffffffffffffffffffffffffffffffffffffff166108fc829081150290604051600060405180830381858888f19350505050158015610f69573d6000803e3d6000fd5b503373ffffffffffffffffffffffffffffffffffffffff167f056f1f5cdd8662230b94b7f88e06d95549d18e77cb2959933db3849d36df790a82604051610fb091906127ae565b60405180910390a250565b6000610fe36064610fd58486611dd490919063ffffffff16565b611e4490919063ffffffff16565b905092915050565b600d602052816000526040600020602052806000526040600020600091509150508060000154908060010154905082565b6000600e60008373ffffffffffffffffffffffffffffffffffffffff1673ffffffffffffffffffffffffffffffffffffffff1681526020019081526020016000209050600081805490501415611072575061140b565b6000818054905090505b600081111561137057600082600183038154811061109657fe5b9060005260206000200154905060006110ba43600354600454600a5460095461140e565b9050600282018110156110ce575050611362565b6000806110da84611cb2565b915091506000811480156110f057506003840183105b156110fe5750505050611362565b600061110a8383610dc6565b9050600083148061111b5750600082145b1561112557600290505b8660018880549050038154811061113857fe5b906000526020600020015487600188038154811061115257fe5b90600052602060002001819055508680548061116a57fe5b60019003818190600052602060002001600090559055611188611ff8565b600d60008a73ffffffffffffffffffffffffffffffffffffffff1673ffffffffffffffffffffffffffffffffffffffff1681526020019081526020016000206000878152602001908152602001600020604051806040016040529081600082015481526020016001820154815250509050611201611ff8565b600760008881526020019081526020016000206040518060400160405290816000820154815260200160018201548152505090506000806112558460200151856000015185602001518660000151896117e4565b915091506112ab82600c60003373ffffffffffffffffffffffffffffffffffffffff1673ffffffffffffffffffffffffffffffffffffffff16815260200190815260200160002054611d3590919063ffffffff16565b600c60003373ffffffffffffffffffffffffffffffffffffffff1673ffffffffffffffffffffffffffffffffffffffff1681526020019081526020016000208190555061130381600b54611d3590919063ffffffff16565b600b819055508b73ffffffffffffffffffffffffffffffffffffffff16897f1a82fd78981b9465af4b8bd67f27607df5d873b7a978cc8cee1a65b85c2990fc8460405161135091906127ae565b60405180910390a35050505050505050505b80806001900391505061107c565b506000600b54111561140957600560009054906101000a900473ffffffffffffffffffffffffffffffffffffffff1673ffffffffffffffffffffffffffffffffffffffff16625c33e1600b546040518263ffffffff1660e01b81526004016000604051808303818588803b1580156113e757600080fd5b505af11580156113fb573d6000803e3d6000fd5b50505050506000600b819055505b505b50565b6000838610156114205781905061146d565b61146a600161145c8561144e896114408a8d611d8a90919063ffffffff16565b611e4490919063ffffffff16565b611d3590919063ffffffff16565b611d3590919063ffffffff16565b90505b95945050505050565b600b5481565b60035481565b600061149943600354600454600a5460095461140e565b9050600060086000838152602001908152602001600020541415611522576114bf611e8e565b6008600083815260200190815260200160002081905550807f7a3325b9d11ddc18edd3dff130141b6ce951061520c6b933a604bf701f3d8052600860008481526020019081526020016000205460405161151991906127ae565b60405180910390a25b50565b600e602052816000526040600020818154811061153e57fe5b90600052602060002001600091509150505481565b600a5481565b60006115a5611596856115888561157a60018b611d8a90919063ffffffff16565b611d8a90919063ffffffff16565b611dd490919063ffffffff16565b84611d3590919063ffffffff16565b9050949350505050565b6000600e60008373ffffffffffffffffffffffffffffffffffffffff1673ffffffffffffffffffffffffffffffffffffffff168152602001908152602001600020805490509050919050565b600080611606611ff8565b600d60008573ffffffffffffffffffffffffffffffffffffffff1673ffffffffffffffffffffffffffffffffffffffff16815260200190815260200160002060008681526020019081526020016000206040518060400160405290816000820154815260200160018201548152505090508060000151816020015192509250509250929050565b600160009054906101000a900473ffffffffffffffffffffffffffffffffffffffff1673ffffffffffffffffffffffffffffffffffffffff163373ffffffffffffffffffffffffffffffffffffffff161461171d576040517f08c379a00000000000000000000000000000000000000000000000000000000081526004016117149061270e565b60405180910390fd5b80600160006101000a81548173ffffffffffffffffffffffffffffffffffffffff021916908373ffffffffffffffffffffffffffffffffffffffff16021790555050565b60076020528060005260406000206000915090508060000154908060010154905082565b6000600e60008473ffffffffffffffffffffffffffffffffffffffff1673ffffffffffffffffffffffffffffffffffffffff16815260200190815260200160002082815481106117d157fe5b9060005260206000200154905092915050565b60008060008360ff1660028111156117f857fe5b9050600061180f8688611d3590919063ffffffff16565b90506001600281111561181e57fe5b82600281111561182a57fe5b148015611838575060008714155b156118695761186287611854838c611dd490919063ffffffff16565b611e4490919063ffffffff16565b9350611915565b6000600281111561187657fe5b82600281111561188257fe5b148015611890575060008614155b156118c1576118ba866118ac838b611dd490919063ffffffff16565b611e4490919063ffffffff16565b9350611914565b6002808111156118cd57fe5b8260028111156118d957fe5b14156118f9576118f2888a611d3590919063ffffffff16565b9350611913565b60009350611910888a611d3590919063ffffffff16565b92505b5b5b50509550959350505050565b611929611482565b61197b34600c60003373ffffffffffffffffffffffffffffffffffffffff1673ffffffffffffffffffffffffffffffffffffffff16815260200190815260200160002054611d3590919063ffffffff16565b600c60003373ffffffffffffffffffffffffffffffffffffffff1673ffffffffffffffffffffffffffffffffffffffff168152602001908152602001600020819055503373ffffffffffffffffffffffffffffffffffffffff167fb852e2e011cc5f1a909361fc2aeee1b2c4fa840300139b0b85f5e08a50898c6234604051611a0491906127ae565b60405180910390a2565b60025481565b60095481565b60086020528060005260406000206000915090505481565b600c6020528060005260406000206000915090505481565b600073ffffffffffffffffffffffffffffffffffffffff16600660009054906101000a900473ffffffffffffffffffffffffffffffffffffffff1673ffffffffffffffffffffffffffffffffffffffff1614611adb576040517f08c379a0000000000000000000000000000000000000000000000000000000008152600401611ad2906126ee565b60405180910390fd5b80600660006101000a81548173ffffffffffffffffffffffffffffffffffffffff021916908373ffffffffffffffffffffffffffffffffffffffff160217905550600660009054906101000a900473ffffffffffffffffffffffffffffffffffffffff16600560006101000a81548173ffffffffffffffffffffffffffffffffffffffff021916908373ffffffffffffffffffffffffffffffffffffffff16021790555050565b600160009054906101000a900473ffffffffffffffffffffffffffffffffffffffff1673ffffffffffffffffffffffffffffffffffffffff163373ffffffffffffffffffffffffffffffffffffffff1614611c12576040517f08c379a0000000000000000000000000000000000000000000000000000000008152600401611c099061270e565b60405180910390fd5b60008111611c55576040517f08c379a0000000000000000000000000000000000000000000000000000000008152600401611c4c9061276e565b60405180910390fd5b6000611c6c43600354600454600a5460095461140e565b9050611c93611c85600183611d3590919063ffffffff16565b600354600454600a54611559565b60048190555080600a8190555080600981905550816003819055505050565b6000806008600060018501815260200190815260200160002054600860006002860181526020019081526020016000205491509150915091565b6000600c60008373ffffffffffffffffffffffffffffffffffffffff1673ffffffffffffffffffffffffffffffffffffffff168152602001908152602001600020549050919050565b600080828401905083811015611d80576040517f08c379a0000000000000000000000000000000000000000000000000000000008152600401611d77906126ce565b60405180910390fd5b8091505092915050565b6000611dcc83836040518060400160405280601e81526020017f536166654d6174683a207375627472616374696f6e206f766572666c6f770000815250611f3c565b905092915050565b600080831415611de75760009050611e3e565b6000828402905082848281611df857fe5b0414611e39576040517f08c379a0000000000000000000000000000000000000000000000000000000008152600401611e309061274e565b60405180910390fd5b809150505b92915050565b6000611e8683836040518060400160405280601a81526020017f536166654d6174683a206469766973696f6e206279207a65726f000000000000815250611f97565b905092915050565b60008060008054906101000a900473ffffffffffffffffffffffffffffffffffffffff1673ffffffffffffffffffffffffffffffffffffffff1663feaf968c6040518163ffffffff1660e01b815260040160a06040518083038186803b158015611ef757600080fd5b505afa158015611f0b573d6000803e3d6000fd5b505050506040513d601f19601f82011682018060405250810190611f2f9190612386565b5050509150508091505090565b6000838311158290611f84576040517f08c379a0000000000000000000000000000000000000000000000000000000008152600401611f7b91906126ac565b60405180910390fd5b5060008385039050809150509392505050565b60008083118290611fde576040517f08c379a0000000000000000000000000000000000000000000000000000000008152600401611fd591906126ac565b60405180910390fd5b506000838581611fea57fe5b049050809150509392505050565b604051806040016040528060008152602001600081525090565b600081359050612021816128ff565b92915050565b60008151905061203681612916565b92915050565b60008135905061204b8161292d565b92915050565b6000815190506120608161292d565b92915050565b60008135905061207581612944565b92915050565b60008151905061208a8161295b565b92915050565b6000602082840312156120a257600080fd5b60006120b084828501612012565b91505092915050565b600080604083850312156120cc57600080fd5b60006120da85828601612012565b92505060206120eb8582860161203c565b9150509250929050565b60006020828403121561210757600080fd5b60006121158482850161203c565b91505092915050565b6000806040838503121561213157600080fd5b600061213f8582860161203c565b925050602061215085828601612012565b9150509250929050565b6000806040838503121561216d57600080fd5b600061217b8582860161203c565b925050602061218c8582860161203c565b9150509250929050565b600080600080608085870312156121ac57600080fd5b60006121ba8782880161203c565b94505060206121cb8782880161203c565b93505060406121dc8782880161203c565b92505060606121ed8782880161203c565b91505092959194509250565b600080600080600060a0868803121561221157600080fd5b600061221f8882890161203c565b95505060206122308882890161203c565b94505060406122418882890161203c565b93505060606122528882890161203c565b92505060806122638882890161203c565b9150509295509295909350565b600080600080600060a0868803121561228857600080fd5b60006122968882890161203c565b95505060206122a78882890161203c565b94505060406122b88882890161203c565b93505060606122c98882890161203c565b92505060806122da88828901612066565b9150509295509295909350565b600080600080608085870312156122fd57600080fd5b600061230b8782880161203c565b945050602061231c8782880161203c565b935050604061232d87828801612066565b925050606061233e8782880161203c565b91505092959194509250565b6000806040838503121561235d57600080fd5b600061236b8582860161203c565b925050602061237c85828601612066565b9150509250929050565b600080600080600060a0868803121561239e57600080fd5b60006123ac8882890161207b565b95505060206123bd88828901612027565b94505060406123ce88828901612051565b93505060606123df88828901612051565b92505060806123f08882890161207b565b9150509295509295909350565b600061240882612836565b6124128185612841565b93506124228185602086016128bb565b61242b816128ee565b840191505092915050565b6000612443601b83612841565b91507f536166654d6174683a206164646974696f6e206f766572666c6f7700000000006000830152602082019050919050565b6000612483601b83612841565b91507f7374616b696e67206164647265737320616c72656164792073657400000000006000830152602082019050919050565b60006124c3602483612841565b91507f6f6e6c7920676f7665726e616e63652063616e2063616c6c2074686973206d6560008301527f74686f64000000000000000000000000000000000000000000000000000000006020830152604082019050919050565b6000612529602283612841565b91507f6e6f7420656e6f756768206d6f6e657920746f20706c6163652074686973206260008301527f65740000000000000000000000000000000000000000000000000000000000006020830152604082019050919050565b600061258f602183612841565b91507f536166654d6174683a206d756c7469706c69636174696f6e206f766572666c6f60008301527f77000000000000000000000000000000000000000000000000000000000000006020830152604082019050919050565b60006125f5602783612841565b91507f77696e646f772073697a652073686f756c64206265207374726963746c79207060008301527f6f736974697665000000000000000000000000000000000000000000000000006020830152604082019050919050565b600061265b601083612841565b91507f6e6f7420656e6f7567682066756e6473000000000000000000000000000000006000830152602082019050919050565b6126978161288e565b82525050565b6126a681612898565b82525050565b600060208201905081810360008301526126c681846123fd565b905092915050565b600060208201905081810360008301526126e781612436565b9050919050565b6000602082019050818103600083015261270781612476565b9050919050565b60006020820190508181036000830152612727816124b6565b9050919050565b600060208201905081810360008301526127478161251c565b9050919050565b6000602082019050818103600083015261276781612582565b9050919050565b60006020820190508181036000830152612787816125e8565b9050919050565b600060208201905081810360008301526127a78161264e565b9050919050565b60006020820190506127c3600083018461268e565b92915050565b60006040820190506127de600083018561268e565b6127eb602083018461268e565b9392505050565b6000604082019050612807600083018561268e565b612814602083018461269d565b9392505050565b6000602082019050612830600083018461269d565b92915050565b600081519050919050565b600082825260208201905092915050565b600061285d8261286e565b9050919050565b6000819050919050565b600073ffffffffffffffffffffffffffffffffffffffff82169050919050565b6000819050919050565b600060ff82169050919050565b600069ffffffffffffffffffff82169050919050565b60005b838110156128d95780820151818401526020810190506128be565b838111156128e8576000848401525b50505050565b6000601f19601f8301169050919050565b61290881612852565b811461291357600080fd5b50565b61291f81612864565b811461292a57600080fd5b50565b6129368161288e565b811461294157600080fd5b50565b61294d81612898565b811461295857600080fd5b50565b612964816128a5565b811461296f57600080fd5b5056fea264697066735822122022a78b831042e27cf94548ff53388017700c34edbc28164bf9b3ee5077aa60a464736f6c634300060c0033",
  "immutableReferences": {},
  "source": "pragma solidity ^0.6.8;\npragma experimental ABIEncoderV2;\n\nimport \"@openzeppelin/contracts/math/SafeMath.sol\";\nimport \"@openzeppelin/contracts/token/ERC20/IERC20.sol\";\nimport \"@chainlink/contracts/src/v0.6/interfaces/AggregatorV3Interface.sol\";\nimport \"./BinToken.sol\";\nimport \"./BinStaking.sol\";\n\n//interface IStdReference {\n    /// A structure returned whenever someone requests for standard reference data.\n    //struct ReferenceData {\n        //uint256 rate; // base/quote exchange rate, multiplied by 1e18.\n        //uint256 lastUpdatedBase; // UNIX epoch of the last time when base price gets updated.\n        //uint256 lastUpdatedQuote; // UNIX epoch of the last time when quote price gets updated.\n    //}\n//\n    ///// Returns the price data for the given base/quote pair. Revert if not available.\n    //function getReferenceData(string calldata _base, string calldata _quote)\n        //external\n        //view\n        //returns (ReferenceData memory);\n\n    /// Similar to getReferenceData, but with multiple base/quote pairs at once.\n    //function getReferenceDataBulk(string[] calldata _bases, string[] calldata _quotes)\n        //external\n        //view\n        //returns (ReferenceData[] memory);\n//}\n\n\n//SPDX-License-Identifier: UNLICENSED\ncontract BinaryBet {\n    using SafeMath for uint256;\n\n    //Structs and enums\n    enum BetSide {down, up} \n    enum BetResult {down, up, tie}\n\n    struct Pool {\n        uint downValue;\n        uint upValue;\n    }\n\n    //Betting parameters\n    //IStdReference oracle;\n    AggregatorV3Interface internal priceFeed;  \n    address governance;\n    uint public fee;\n    uint public windowDuration; //in blocks\n    uint public firstBlock;\n    BinaryStaking staking; \n    address payable stakingAddress;\n\n    //Window management\n    mapping (uint => Pool) public pools; //windowNumber => Pool\n    mapping(uint => uint256) public  windowPrice; //first price collection at the window.\n    uint public firstWindow = 1; //Any bet before first block of betting is directed to the first window.\n    uint public windowOffset; //used make window continuous and monotonically increasing when window duration and first block changes.\n    uint public accumulatedFees;\n\n    //User variables\n    mapping (address => uint) public balance;\n    mapping (address => mapping(uint => Pool)) public  userStake;\n    mapping (address => uint[]) public userBets;\n    mapping (address => mapping(uint => bool)) userBetted;\n\n\n    //EVENTS\n    event newBet(address indexed user, uint indexed windowNumber, uint value, uint8 side);\n    event newDeposit(address indexed user, uint value);\n    event newWithdraw(address indexed user, uint value);\n    event betSettled(uint indexed windowNumber, address indexed user, uint gain);\n    event priceUpdated(uint indexed windowNumber, uint256 price);\n\n    \n    modifier onlyGovernance() {\n        require(msg.sender == governance, \"only governance can call this method\");\n        _;\n    }\n\n    constructor(uint _windowDuration, uint _fee) public {\n        require(_fee <= 100);\n        //oracle = IStdReference(address(0xDA7a001b254CD22e46d3eAB04d937489c93174C3));\n        priceFeed = AggregatorV3Interface(0x2514895c72f50D8bd4B4F9b1110F0D6bD2c97526);\n        firstBlock = block.number;\n        windowDuration = _windowDuration;\n\n        fee = _fee;\n        governance = msg.sender;\n        firstWindow = 1;\n    }\n//=============GOVERNANCE FUNCTIONS=============================================\n    function changeGovernance(address newGovernance) onlyGovernance public{\n        governance = newGovernance;\n    }\n\n    function changeWindowSize(uint windowSize) onlyGovernance public {\n        require(windowSize > 0, \"window size should be strictly positive\");\n        uint currentWindow = getWindowNumber(block.number, windowDuration, firstBlock, windowOffset, firstWindow);\n        firstBlock = getWindowStartingBlock(currentWindow.add(1), windowDuration, firstBlock, windowOffset);\n        windowOffset = currentWindow;\n        firstWindow = currentWindow;\n        windowDuration = windowSize;\n    }\n\n    function setStakingAddress(address stakingContract) external {\n        require(stakingAddress == address(0), \"staking address already set\");\n        stakingAddress = payable(stakingContract);\n        staking = BinaryStaking(stakingAddress); \n    }\n\n    function deposit() payable external {\n        updatePrice();\n        balance[msg.sender] = balance[msg.sender].add(msg.value);\n        emit newDeposit(msg.sender, msg.value);\n    }\n\n    function withdraw(uint value) external {\n        updatePrice();\n        updateBalance(msg.sender);\n\n        require(value <= balance[msg.sender], \"not enough funds\");\n        balance[msg.sender] = balance[msg.sender].sub(value);\n        msg.sender.transfer(value);\n\n        emit newWithdraw(msg.sender, value);\n\n    }\n\n    function placeBet (uint betValue, uint8 side) payable external {\n        updatePrice();\n        updateBalance(msg.sender);\n                    \n        require(betValue <= balance[msg.sender].add(msg.value), \"not enough money to place this bet\");\n\n        //betValue <= balance + msg.value\n        //0 <= balance + msg.value - betValue\n        balance[msg.sender] = balance[msg.sender].add(msg.value).sub(betValue);\n\n        uint betFee = computeFee(betValue, fee); \n        accumulatedFees = accumulatedFees.add(betFee);\n        uint value = betValue.sub(betFee);\n\n        uint windowNumber = getWindowNumber(block.number, windowDuration, firstBlock, windowOffset, firstWindow);\n        if(!userBetted[msg.sender][windowNumber]) {\n            //only adds the bet to the list if it is the first time the user bets at the window\n            userBets[msg.sender].push(windowNumber);\n            userBetted[msg.sender][windowNumber] = true;\n        }\n        \n        //Update the pool for the window.\n        Pool memory oldPool = pools[windowNumber];\n        (uint newDown, uint newUp) = updatePool(oldPool.downValue, oldPool.upValue, side, value);\n        pools[windowNumber] = Pool(newDown, newUp);\n\n        //Update the user stake for the window.\n        Pool memory oldStake = userStake[msg.sender][windowNumber];\n        (newDown, newUp) = updatePool(oldStake.downValue, oldStake.upValue, side, value);\n        userStake[msg.sender][windowNumber] = Pool(newDown, newUp);\n\n        emit newBet(msg.sender, windowNumber, value, side);\n    }\n\n    function updateBalance(address user) public {\n        uint[] storage userWindowsList = userBets[user];\n        if(userWindowsList.length == 0) {\n            //No bets to settle\n            return;\n        }\n\n        for(uint i = userWindowsList.length; i > 0; i--) {\n            //Maximum number of itens in list is 2, when the user bets on 2 subsequent windows and the first window is not yet settled.\n            uint window = userWindowsList[i-1];\n            uint currentWindow = getWindowNumber(block.number, windowDuration, firstBlock, windowOffset, firstWindow);\n            if(currentWindow < window + 2) {\n                //window not yet settled\n                continue;\n            }\n\n            (uint256 referencePrice, uint256 settlementPrice) = getWindowBetPrices(window);\n            if (settlementPrice == 0 && currentWindow < window + 3) {\n                //price not updated but update still possible.\n                continue;\n            } \n\n            uint8 result = betResult(referencePrice, settlementPrice);\n            if (referencePrice == 0 || settlementPrice == 0) {\n                //if the price was not updated for the window it is considered a tie and players can get their money back.\n                result = 2;\n            }\n\n            //Remove window from list of unsettled bets.\n            userWindowsList[i-1] = userWindowsList[userWindowsList.length -1];\n            userWindowsList.pop();\n\n            Pool memory stake = userStake[user][window];\n            Pool memory pool = pools[window];\n            (uint windowGain, uint fees) = settleBet(stake.upValue, stake.downValue, pool.upValue, pool.downValue, result);\n\n            balance[msg.sender] = balance[msg.sender].add(windowGain);\n            accumulatedFees = accumulatedFees.add(fees);\n\n            emit betSettled(window, user, windowGain);\n        }\n\n        if(accumulatedFees > 0) {\n            staking.receiveFunds.value(accumulatedFees)();\n            accumulatedFees = 0;\n        }\n\n    }\n\n    function settleBet(uint upStake, uint downStake, uint poolUp, uint poolDown, uint8 betResult) public pure returns (uint gain, uint fees) {\n        BetResult result = BetResult(betResult);\n        uint poolTotal = poolUp.add(poolDown);\n        if (result == BetResult.up && poolUp != 0) {\n            gain = (upStake.mul(poolTotal)).div(poolUp);\n        } \n\n        else if (result == BetResult.down && poolDown != 0) {\n            gain = (downStake.mul(poolTotal)).div(poolDown);\n        }\n        else if (result == BetResult.tie) {\n            gain = upStake.add(downStake);\n        }\n        else {\n            //If the winning pool is empty, all stake goes to the fees.\n            gain = 0;\n            fees = upStake.add(downStake);\n        }\n    }\n\n   function betResult(uint256 referencePrice, uint256 settlementPrice) public pure returns(uint8){\n        if(settlementPrice < referencePrice) {\n            return 0;\n        }\n        else if(settlementPrice > referencePrice) {\n            return 1;\n        }\n        return 2;\n    }\n\n\n    function updatePool(uint downValue, uint upValue, uint8 side, uint value) public pure returns(uint, uint){\n        BetSide betSide = BetSide(side);\n        if (betSide == BetSide.down) {\n            return (downValue.add(value), upValue);\n        }\n        if (betSide == BetSide.up) {\n            return (downValue, upValue.add(value));\n        }\n    }\n\n    function getWindowNumber (uint currentBlock, uint _windowDuration, uint _firstBlock, uint _windowOffset, uint _firstWindow) public pure returns (uint windowNumber) {\n        if (currentBlock < _firstBlock) {\n            windowNumber = _firstWindow;\n        }\n        else {\n        //n = floor((block - first_block)/window_size  + 1)\n            windowNumber = ((currentBlock.sub(_firstBlock)).div(_windowDuration)).add(_windowOffset).add(1); //integer division => floor    \n        }\n\n    }\n\n    function getWindowStartingBlock (uint windowNumber, uint _windowDuration, uint _firstBlock, uint _windowOffset) public pure returns (uint startingBlock) {\n        //firstBlock + (n-1 - (offset + 1))*window_size\n        startingBlock =  _firstBlock.add((windowNumber.sub(1).sub(_windowOffset)).mul(_windowDuration ));\n    }\n\n    function computeFee(uint value, uint _fee) public pure returns (uint betFee) {\n        betFee = (value.mul(_fee)).div(100);\n\n    }\n\n\n    function updatePrice() public {\n        uint window = getWindowNumber(block.number, windowDuration, firstBlock, windowOffset, firstWindow);\n        if(windowPrice[window] == 0) {\n            windowPrice[window] = priceOracle();\n            emit priceUpdated(window, windowPrice[window]);\n        }\n    }\n\n    function priceOracle() internal returns (uint256){\n        //IStdReference.ReferenceData memory data = oracle.getReferenceData(\"BNB\",\"USD\");\n        (\n             , \n            int price,\n             ,\n             ,\n             \n        ) = priceFeed.latestRoundData();\n        return uint256(price);\n        //return data.rate;\n    }\n\n    //Getters\n    function getPoolValues(uint windowNumber) public view returns (uint, uint) {\n        Pool memory pool = pools[windowNumber];\n        return (pool.downValue, pool.upValue);\n    }\n\n    function getUserStake(uint windowNumber, address user) public view returns (uint, uint) {\n        Pool  memory stake  = userStake[user][windowNumber];\n        return (stake.downValue, stake.upValue);\n    }\n\n    function getBalance(address user) public view returns(uint) {\n        return balance[user];\n    }\n\n    function getWindowBetPrices(uint window) public view returns(uint256, uint256) {\n        return (windowPrice[window+1], windowPrice[window+2]);\n    }\n\n    function getUserBetList(address user, uint index) public view returns (uint) {\n         return userBets[user][index];\n    }\n\n    function betListLen(address user) public view returns (uint) {\n        return userBets[user].length;\n    }\n}\n",
  "sourcePath": "/home/pedroargento/bot/contracts/BinaryBet.sol",
  "compiler": {
    "name": "solc",
    "version": "0.6.12+commit.27d51765.Emscripten.clang"
  },
  "schemaVersion": "3.3.3",
  "updatedAt": "2021-06-20T19:27:47.199Z",
  "networkType": "ethereum",
  "devdoc": {
    "kind": "dev",
    "methods": {},
    "version": 1
  },
  "userdoc": {
    "kind": "user",
    "methods": {},
    "notice": "Similar to getReferenceData, but with multiple base/quote pairs at once.",
    "version": 1
  }
}